:020000040800F2
:10000000B091012031030008EDE6000885DF00080B
:10001000E9E60008897A000885250108000000004B
:100020000000000000000000000000007102000855
:10003000D18A000800000000CD0200086DEB000826
:100040004B0300084B0300084B0300084B03000858
:100050004B0300084B0300084B0300084B03000848
:100060004B0300084B0300084B0300084B03000838
:10007000818000084B0300084B0300084B03000875
:100080004B0300084B0300084B0300084B03000818
:10009000057B0008157B00084B0300084B03000894
:1000A0004B0300084B0300084B0300084B030008F8
:1000B0004B0300084B0300084B0300084B030008E8
:1000C0004B0300084B0300084B0300082DEB00080E
:1000D0004B0300084B0300084B0300084B030008C8
:1000E0004B0300084B0300084B0300084B030008B8
:1000F0004B03000869EC00084B0300084B030008A1
:100100004B0300084B0300084B0300084B03000897
:100110004B0300084B0300084B0300084B03000887
:1001200091800008A1800008B1800008C18000080B
:100130004B0300084B0300084B0300084B03000867
:10014000257B0008357B00084B030008F1E600081A
:100150004B030008D18000084B0300085DF600083F
:100160004B0300084B0300084B0300084B03000837
:100170004B0300084B0300084B030008000000007D
:100180004B0300084B03000800F002F800F060F891
:100190000AA090E8000C82448344AAF10107DA45E2
:1001A00001D100F055F8AFF2090EBAE80F0013F0D4
:1001B000010F18BFFB1A43F001031847D04A010092
:1001C000104B01000A444FF0000C10F8013B13F0F3
:1001D000070408BF10F8014B1D1108BF10F8015BA0
:1001E000641E05D010F8016B641E01F8016BF9D193
:1001F00013F0080F1EBF10F8014BAD1C0C1B09D1EA
:100200006D1E58BF01F801CBFAD505E014F8016B5B
:1002100001F8016B6D1EF9D59142D6D370470000ED
:100220000023002400250026103A28BF78C1FBD8FF
:10023000520728BF30C148BF0B6070471FB514F08C
:1002400076FC9DE8030000F073FA1FBD10B510BDE9
:1002500000F0DAFA1146FFF7F1FF13F048F900F069
:10026000F8FA03B4FFF7F2FF03BC00F029FB00002B
:100270002C4B19680868B0E8F04F80F30988BFF389
:100280006F8F4FF0000080F311887047000000006E
:1002900008480068006880F308884FF0000080F389
:1002A000148862B661B6BFF34F8FBFF36F8F00DF64
:1002B00000BF00BF08ED00E0DFF80C00016841F46A
:1002C00070010160704700BF88ED00E0EFF3098026
:1002D000BFF36F8F134B1A681EF0100F08BF20ED8D
:1002E000108A20E9F04F106009B44FF0500080F3FD
:1002F0001188BFF34F8FBFF36F8F14F0EDF84FF0FD
:10030000000080F3118809BC19680868B0E8F04F54
:100310001EF0100F08BFB0EC108A80F30988BFF3FD
:100320006F8F70476CC00120EFF3058070470000AD
:100330000948804709480047FEE7FEE7FEE7FEE779
:10034000FEE7FEE7FEE7FEE7FEE7FEE704480549B5
:10035000054A064B7047000055EC0008890100086B
:10036000B0910020B0910120B0110120B011012006
:1003700070B5064600F0C0F9056806F10B0020F0E4
:100380000704B4429CBF002070BD2B466A68BAB116
:100390001068A04210D304F1080188423CBF5068A5
:1003A000586007D35168101941601168091B01603A
:1003B00058601460101D70BD13465268002AE7D1C2
:1003C0002146284600F0A0F90028DED170BD70B5A6
:1003D0000446051F00F090F90068002C14BF446823
:1003E00070BD002C18BFAC423CBF20466468F8D3F7
:1003F00001680A18AA4218BF456003D12A68054659
:100400001144016028684119A1421CBF6C6070BD95
:100410006168696021680844286070BD53EA020C75
:1004200000F069802DE9F04B4FF00006002B1FBF54
:10043000B3FA83F503FA05F424FA05F65E4012BF19
:100440001643B2FA82F502FA05F4C5F120051EBF83
:1004500022FA05FC44EA0C04203556EA044C4FEA23
:10046000144418BF641C4FF000084FF0000990427C
:1004700071EB030C39D3002919BFB1FA81F701FAE6
:1004800007F6B0FA80F700FA07F6C7F120071EBF9B
:1004900020FA07FC46EA0C062037B6FBF4FCA7EB73
:1004A0000507103F07F01F0BCBF120060CFA0BFBE2
:1004B0002CFA06F644BFB3460026202FA4BF5E46A2
:1004C0004FF0000B5BEA060C08BF4FF0010B19EB75
:1004D0000B09ABFB027C48EB0608C01B06FB02CCF9
:1004E0000BFB03CC71EB0C01C1E70B460246414606
:1004F0004846BDE8F08B13B54FF000004FF0000107
:10050000AFF30080BDE81C40704740EA010310B51E
:100510009B070FD1042A0DD310C808C9121F9C4293
:10052000F8D020BA19BA884201D9012010BD4FF085
:10053000FF3010BD1AB1D30703D0521C07E00020D2
:1005400010BD10F8013B11F8014B1B1B07D110F82F
:10055000013B11F8014B1B1B01D1921EF1D1184632
:1005600010BD032A40F2308010F0030C00F015801B
:1005700011F8013BBCF1020F624498BF11F801CBA6
:1005800000F8013B38BF11F8013BA2F1040298BF0B
:1005900000F801CB38BF00F8013B11F0030300F075
:1005A0002580083AC0F0088051F8043B083A51F819
:1005B00004CBA0E80810F5E7121D5CBF51F8043B1E
:1005C00040F8043BAFF30080D20724BF11F8013B91
:1005D00011F801CB48BF11F8012B24BF00F8013BF3
:1005E00000F801CB48BF00F8012B704710B5203A46
:1005F000C0F00B80B1E81850203AA0E81850B1E8DC
:100600001850A0E81850BFF4F5AF5FEA027C24BF91
:10061000B1E81850A0E8185044BF18C918C0BDE888
:1006200010405FEA827C24BF51F8043B40F8043B51
:1006300008BF7047D20728BF31F8023B48BF11F806
:10064000012B28BF20F8023B48BF00F8012B704760
:1006500002F0FF0343EA032242EA024200F002B83A
:100660004FF000020429C0F0128010F0030C00F0DB
:100670001B80CCF1040CBCF1020F18BF00F8012B59
:10068000A8BF20F8022BA1EB0C0100F00DB85FEA27
:10069000C17C24BF00F8012B00F8012B48BF00F8F3
:1006A000012B70474FF0000200B513469446964662
:1006B000203922BFA0E80C50A0E80C50B1F1200175
:1006C000BFF4F7AF090728BFA0E80C5048BF0CC023
:1006D0005DF804EB890028BF40F8042B08BF704781
:1006E00048BF20F8022B11F0804F18BF00F8012BF3
:1006F000704770477047704700487047549100201A
:10070000704770477047704738B504460A46002066
:100710006946AFF30080002808BF38BD0246009943
:10072000204600F04FF8012038BD012000F064B8E9
:10073000F8B5AFF30080054600200C46102000BF3E
:100740000646A819A0420DD9324669460020AFF3EB
:100750000080070008BF00F04FF80098A04218BFC3
:100760000546C419FFF7C8FF05600746F01D20F0D5
:1007700007004619284600F00AF8B44208BFF8BD41
:10078000A21B31463868BDE8F84000F01BB80021D4
:100790000160C0E9011070471020704710B500F0EB
:1007A0000DF8006810BD10B5044600F007F80460AD
:1007B00010BD0000004870474C9100200048704771
:1007C0004C910020034640688C46002818BF8842A0
:1007D0003CBF03464068F8D318681844884207D0E5
:1007E0000CF1030020F00700001D411A521A0146C7
:1007F000081D0A60FFF7EBBD10B500F039F8BDE841
:10080000104000F02FB870477546FFF7D3FFAE4693
:1008100005006946534620F00700854618B020B50C
:10082000FFF794FDBDE820404FF000064FF00007B1
:100830004FF000084FF0000B21F00701AC46ACE888
:10084000C009ACE8C009ACE8C009ACE8C0098D46F5
:10085000704710B50446AFF300802046BDE8104055
:10086000FFF7FFBC002801D000F02AB87047000055
:1008700010B5012805D0002103A000F027F80120C1
:1008800010BD09A1F8E7000053494752544D454DAA
:100890003A204F7574206F662068656170206D6521
:1008A0006D6F7279000000003A2048656170206D1C
:1008B000656D6F727920636F727275707465640014
:1008C00001491820ABBEFEE72600020070B50546C0
:1008D0000C460A2000E06D1C00F011F835B12878B4
:1008E0000028F8D102E0641C00F009F814B1207867
:1008F0000028F8D1BDE870400A20AFF3008008B5A9
:1009000069468DF800000320ABBE08BD0949487058
:100910000E21084A1170002182F85610064A5175BE
:1009200091751175118202F1800100224A678A6770
:10093000CA677047A411002018120020F0EE400A88
:10094000F5EEC00AF1EE10FA02D2B1EE600A70477D
:10095000B0EE600AFBE7000070B5064600251EE019
:1009600005EB8500104951F83040A4B131462046CE
:1009700007F092FE78B194ED010A10EE101A0846C5
:1009800011F03AFE38B194ED020A10EE101A084642
:1009900011F032FE08B9002070BD681CC5B2032DED
:1009A000DED30120F8E70000B4CA0120002110E0E6
:1009B00001EB8100094A52F8300030B101EB8100AF
:1009C00052F8300090F8450008B900207047481CE4
:1009D000C1B20329ECD30120F8E70000B4CA01201A
:1009E000002110E001EB8100094A52F8300030B1DB
:1009F00001EB810052F8300090F8440008B9002063
:100A00007047481CC1B20329ECD30120F8E700006D
:100A1000B4CA012010B500240BE004EB8401074A9E
:100A200052F8310007F09FFD08B1012010BD601C95
:100A3000C4B2032CF1D30020F8E70000B4CA0120AF
:100A400070B50646002410E004EB8400094951F813
:100A5000305045B1287E30B13146284607F01CFEA3
:100A600008B9012070BD601CC4B2032CECD3002077
:100A7000F8E70000B4CA012000210FE001EB81007B
:100A8000084B53F830203AB192F84A0010B9506D33
:100A9000052801D301207047481CC1B20329EDD3BA
:100AA0000020F8E7B4CA012010B50446204602F041
:100AB000B9FD08B9002010BD94ED000ADFED1B0A56
:100AC000B4EEE00AF1EE10FA2EDB94ED000ADFED51
:100AD000180AB4EEE00AF1EE10FA25D894ED010AF6
:100AE000DFED140AB4EEE00AF1EE10FA1CDB94ED2F
:100AF000010ADFED110AB4EEE00AF1EE10FA13D8A4
:100B000094ED020ADFED0D0AB4EEE00AF1EE10FA00
:100B10000ADB94ED020ADFED0A0AB4EEE00AF1EE18
:100B200010FA01D80120C6E70020C4E70000B4C2D3
:100B30000000B44200000C420000344300003EC3F9
:100B400000000CC20146022901DC01207047002090
:100B5000FCE7000070B505460F480078012800D179
:100B600000E0002004461CB90B480078022801D19F
:100B7000012000E00020044654B1074840780C28CA
:100B800006D10548807818B9284602F04BFD08B90F
:100B9000002070BD0120FCE72CC6012010B50448E0
:100BA000807800B110BD05F0E1FD00BFFAE700005C
:100BB0002CC6012070B52DED048B86B00546644A25
:100BC00007CA03AB07C39FED630AB0EE408A15B1B5
:100BD000B5F5C07F05D99FED5F0A06B0BDEC048B6B
:100BE00070BD9FED5C0A5C4880EDC80A01247EE080
:100BF0009FED580AF0EE408A04EB4401574800EBA1
:100C00008100D0ED000A601E00EB4001534800EB6C
:100C1000810090ED001A70EEC10AB0EE600A01F09A
:100C2000C1FDB0EE409A12F05DFC8DED000A04EBC0
:100C300044014A4800EB8100D0ED010A601E00EB40
:100C40004001464800EB810090ED011A70EEC10AA8
:100C5000B0EE600A12F046FC8DED010A04EB44018F
:100C60003E4800EB8100D0ED020A601E00EB40011F
:100C70003A4800EB810090ED021A70EEC10AB0EE26
:100C8000600A12F02FFC8DED020A002617E068467C
:100C900000EB860090ED000A03A800EB8600D0ED83
:100CA000000A80EE201AB0EE419AF0EE490AB0EE4A
:100CB000680A11F0A5FFF0EE408A701CC6B2032E40
:100CC000E5D39FED270AF4EEC08AF1EE10FA03D2C5
:100CD0009FED230AF0EE408A38EE280AB0EE408AF3
:100CE000204800EB840080ED008A601C84B2AC4296
:100CF000FFF67EAF012D06D09FED190AB4EEC08A33
:100D0000F1EE10FA07D29FED130A134880EDC80ADE
:100D10009FED100A61E701200DE0124901EB80010F
:100D200091ED000AC0EE080A0E4901EB8001C1ED09
:100D3000000A411C88B2A842EFDBB7EE000A681E29
:100D4000084901EB800080ED000AB0EE480A44E754
:100D5000144C010800000000182200203813002065
:100D6000BD37863538250020F0EE401AF4EEE01A43
:100D7000F1EE10FA02D2B0EE600A7047F4EEC11A3A
:100D8000F1EE10FA02DDB0EE410AF6E7B0EE610ACC
:100D9000F3E7000070B52DED0A8B8CB0B0EE408A01
:100DA000F0EE609AB0EE41AA06469FEDD70AF0EE4B
:100DB000408A002009900A900B903046FFF7FAFE17
:100DC000F0EE40AAD14AD2E900109268CDE90702BC
:100DD0000691CE4A0C3207CA03AB07C39FEDCC0A7B
:100DE000B4EEC08AF1EE10FA1EDDB7EE0E0A28EE60
:100DF000000AC0EE290AB0EE609A9FEDC60A28EEFE
:100E0000000AC0EE0A0AF0EE60BAB0EE6B0A12F009
:100E100007F8B0EE40BAF0EE4B0AB0EE490A11F016
:100E2000EFFEF0EE408A00BFB7EE0E0A2AEE800A0F
:100E3000F0EE400AB0EE680A11F0E2FEF0EE408AF1
:100E4000012456E004EB4401B34800EB8100D0EDEF
:100E5000000A601E00EB4001AF4800EB810090EDFE
:100E6000001A70EEC10AB0EE600A01F09BFCB0EE11
:100E7000409A12F037FBDDED090A30EE200A8DEDC5
:100E8000090A04EB4401A44800EB8100D0ED010AFB
:100E9000601E00EB4001A04800EB810090ED011ABC
:100EA00070EEC10AB0EE600A12F01CFBDDED0A0A1A
:100EB00030EE200A8DED0A0A04EB4401964800EB5F
:100EC0008100D0ED020A601E00EB4001924800EB69
:100ED000810090ED021A70EEC10AB0EE600A12F0C5
:100EE00001FBDDED0B0A30EE200A8DED0B0A601CD4
:100EF00084B2B442A6DB00243BE009A800EB8400E6
:100F000090ED000AF7EE0E0A20EE200A06A800EB8C
:100F10008400D0ED000A80EE201AB0EE419A09A8B4
:100F200000EB840090ED000ADFED7A0A20EE200A43
:100F300003A800EB8400D0ED000A80EE201AF0EE4A
:100F400041BAB0EE6B0A11F06BFFB0EE40BAF0EEB2
:100F50004B0AB0EE490A11F053FEF0EE40BAF0EE43
:100F60006B0AB0EE680A11F04BFEF0EE408A601C8E
:100F7000C4B2032CC1D30124AAE0684800EB84006A
:100F800090ED000A601E654901EB8000D0ED000A7B
:100F900030EE600AB0EE409A9FED610AB4EEC09A5E
:100FA000F1EE10FA00D291E004EB44015A4800EB54
:100FB0008100D0ED000A601E00EB4001564800EBB6
:100FC000810090ED001A70EEC10AB0EE600A01F0E7
:100FD000E9FBB0EE40BA12F085FA8DED000A04EBA1
:100FE00044014D4800EB8100D0ED010A601E00EB8A
:100FF0004001494800EB810090ED011A70EEC10AF2
:10100000B0EE600A12F06EFA8DED010A04EB4401B5
:10101000414800EB8100D0ED020A601E00EB400168
:101020003D4800EB810090ED021A70EEC10AB0EE6F
:10103000600A12F057FA8DED020A002543E0684677
:1010400000EB850090ED000AF7EE0E0A20EE200A74
:1010500006A800EB8500D0ED000A60EE890A80EE5C
:10106000201AB0EE41BA684600EB850090ED000A08
:10107000DFED280A20EE200AF7EE000A20EE200A13
:1010800003A800EB8500D0ED000A60EE890A80EE2F
:10109000201AB0EE41CAB0EE4C0A11F0C1FEF0EEDB
:1010A00040BAF0EE6B0AB0EE4B0A11F0A9FDB0EEBB
:1010B00040CAF0EE4C0AB0EE680A11F0A1FDF0EE65
:1010C000408A681CC5B2032DB9D300BF601C84B22E
:1010D000B442FFF652AF9FED130AF4EEC08AF1EE70
:1010E00010FA03D29FED0F0AF0EE408ADFED0E0AF0
:1010F0009FED0E0A08EEA00ABCEEC00A10EE100A20
:101100000CB0BDEC0A8B70BD00000000204C010843
:101110000AD7233C83C0B84038130020382500206C
:10112000BD3786356F12833A00007A4477BE7F3F21
:1011300010B52DED028B002462E0334800EB8400F3
:1011400090ED000AB0EE408A304800EB840090ED4C
:10115000000A10EE101A084611F060FA80B12A4811
:10116000383800EB840090ED000A10EE101A0846A3
:1011700011F054FA20B118EE100A11F04FFA18B914
:101180000020BDEC028B10BD8CB9204800EB840020
:10119000D0ED000A1C48383800EB840090ED001AAE
:1011A00070EEC10AB0EE600A01F0FCFA0CE01748DC
:1011B00000EB840090ED000A1348383800EB8400FF
:1011C000D0ED000A30EE600AF0EE408AB0EE680A18
:1011D00012F088F9F0EE000AB4EEE00AF1EE10FA2F
:1011E0000ADCB0EE480A12F07DF9F1EE040AB4EE22
:1011F000E00AF1EE10FA01DD0020C2E7601CC4B283
:10120000032C9AD30120BCE780C60120C011002026
:1012100070B504460D46DCB1D5B194ED000A10EE70
:10122000101A084611F0FAF990B194ED010A10EE87
:10123000101A084611F0F2F950B194ED020A10EEBE
:10124000101A084611F0EAF910B10548C07D08B936
:10125000002070BD94E8070085E807000120F8E74A
:101260001812002070B504460D46DCB1D5B194EDDE
:10127000000A10EE101A084611F0D0F990B194ED62
:10128000010A10EE101A084611F0C8F950B194ED99
:10129000020A10EE101A084611F0C0F910B1054804
:1012A000C07D08B9002070BD94E8070085E80700FC
:1012B0000120F8E71812002070B52DED068BF0EE36
:1012C000409A06466648008A012809D86548D0E950
:1012D0000821806AC6E90021B060BDEC068B70BDB4
:1012E000B7EE001ADFED600AB0EE690AFFF73CFDC9
:1012F000B0EE408AB7EE000AB4EEC08AF1EE10FA02
:1013000007DB5748008A401E84B22546DFED568A27
:101310003FE00020524A128A521E91B211E00B1A8D
:1013200000EB53039AB2514B03EB820393ED000A97
:10133000B4EEC80AF1EE10FA01D8104600E01146EA
:1013400000BF421C92B28A42E9DB04460D46474A7E
:1013500002EB850292ED000A444A02EB8402D2EDD0
:10136000000A30EE609A9FED420AB4EEC09AF1EEA8
:1013700010FA09DD3D4A02EB840292ED000A78EE94
:10138000400A80EE890A01E09FED370AF0EE408ABC
:1013900000BF05EB45013348203000EB8100D0ED64
:1013A000000A04EB44012F48203000EB810090ED4F
:1013B000001A70EEC10AB0EE600A01F0F3F904EB16
:1013C00044012848203000EB8100D0ED000A48EEAF
:1013D000800AB0EE60AAB0EE4A0A01F0E3F986EDA9
:1013E000000A05EB45011F48203000EB810090ED1D
:1013F000010A04EB44011B48203000EB8100D0EDD2
:10140000010A70EE600A04EB44011648203000EB3C
:10141000810090ED010A08EEA00A86ED010A05EBB5
:1014200045011048203000EB810090ED020A04EBEA
:1014300044010C48203000EB8100D0ED020A70EE30
:10144000600A04EB44010748203000EB810090ED76
:10145000020A08EEA00A86ED020A00BF3DE700007E
:10146000181200201813002000000000382500206A
:10147000BD37863570B52DED028B05460C462B48E1
:10148000D0F8B40078B12948D0F8B000281A00EE9E
:10149000100AF8EE400A254890ED2D0AB8EE401AE1
:1014A00080EE810A01E0B7EE000AB0EE408AB7EEA6
:1014B000001ADFED1F0AB0EE480AFFF755FCB0EE48
:1014C000408A1A48D0ED370A90ED341A70EEC10AFE
:1014D000B0EE600A01F066F91448D0ED340A48EE27
:1014E000000AF0EE608AB0EE680A01F05BF984ED64
:1014F000000A0E4890ED380AD0ED350A70EE600A09
:1015000090ED350A08EE200A84ED010A90ED390AC3
:10151000D0ED360A70EE600A90ED360A08EE200A29
:1015200084ED020ABDEC028B70BD00001812002091
:101530000000000070B52DED028B04460D46D5ED80
:10154000000A94ED001A70EEC10AB0EE600A01F0D4
:1015500029F9B0EE408A11F0C5FFF1EE040AB4EEAD
:10156000E00AF1EE10FA25D8D5ED010A94ED011A42
:1015700070EEC10AB0EE600A11F0B4FFF0EE000A9E
:10158000B4EEE00AF1EE10FA14D8D5ED020A94EDAB
:10159000021A70EEC10AB0EE600A11F0A3FFF0EE7D
:1015A000000AB4EEE00AF1EE10FA03D80120BDEC17
:1015B000028B70BD0020FAE710B52DED028B0446BA
:1015C000B0EE408A204601F0D5F8F0EE408AF4EE05
:1015D000C88AF1EE10FA1DDD9FED100AF4EEC08A04
:1015E000F1EE10FA16DDC8EE280AB0EE600AD4ED6E
:1015F000000A60EE800AC4ED000AD4ED010A60EE34
:10160000800AC4ED010AD4ED020A60EE800AC4ED3E
:10161000020A00BFBDEC028B10BD0000BD3786354D
:1016200016480078012800D100E00020014619B9D1
:1016300012480078022801D1012000E00020014674
:101640000E48C078C0B10D480079A8B10B48407968
:1016500090B10A4840780C280ED169B107488078CB
:1016600050B90648C07938B10448007A20B103481F
:10167000407A08B1012070470020FCE72CC6012009
:101680001249D1ED0A0A91ED071A30EEC11AD1EDD7
:10169000070A40EE010AC0ED000AD1ED0B0A91EDF8
:1016A000081A30EEC11AD1ED080A40EE010AC0ED69
:1016B000010AD1ED0C0A91ED091A30EEC11AD1EDF3
:1016C000090A40EE010AC0ED020A70471812002014
:1016D00070B52DED048B04460D4695ED000AD4ED52
:1016E000000A30EE600AB0EE409A95ED010AD4EDA2
:1016F000010A30EE600AB0EE408A95ED020AD4EDA0
:10170000020A30EE600AF0EE408A69EE090A48EEFD
:10171000080A48EEA80AB0EE600A11F081FBBDECA1
:10172000048B70BD10B52DED048BF0EE408AB7EE42
:10173000001ADFED0F0AB0EE680AFFF715FBB0EEF6
:10174000408A28EE080AB0EE409A29EE080AF0EE28
:10175000409ABAEE0E0AF1EE080A00EE880AF2EE9E
:10176000040A48EE000A20EEA90ABDEC048B10BD65
:101770000000000010B52DED028BF0EE408AB7EEB0
:10178000001ADFED0E0AB0EE680AFFF7EDFAB0EED0
:10179000408A9FED0B0A28EE000AF7EE000A70EE71
:1017A000C80A60EE200AB7EE000AB0EE001A01EE99
:1017B000480A20EE800ABDEC028B10BD000000003C
:1017C0000000704210B52DED048BB0EE409AB7EEDC
:1017D000001ADFED0D0AB0EE490AFFF7C5FAB0EEC8
:1017E000408AB7EE000A30EE480AF0EE408AB3EEC7
:1017F0000E0A28EE000A20EE080A20EE280A20EE43
:10180000280ABDEC048B10BD00000000064981F8D9
:1018100054000021044A82F8551082F856101146EF
:10182000C96D491CD1657047A41100200C480021E6
:10183000016341638163C16301644164603001807D
:101840008170603841668166C16606480183817691
:10185000A0F58070A0F81B1180F81D1170470000E2
:1018600000C901201813002070B52DED028B05462C
:10187000F0EE408A03F078FE0446B0EE688A8DB937
:10188000A07B38B194ED100A10EE101A084610F043
:10189000C5FE18B90020BDEC028B70BD94ED100A96
:1018A000B0EE408A18EE100A10F0B8FE68B19FED55
:1018B0000C0AB4EEC08AF1EE10FA06D39FED090AC5
:1018C000B4EEC08AF1EE10FA01DD0020E3E706482D
:1018D00080ED338A01200449C87500BFDBE70000B2
:1018E000000034C3000034431812002070B52DED01
:1018F000028B84B00546584840682C1A5648C06888
:10190000A04201D85448C4685348C06858B15248EE
:1019100090ED030AF8EE400A00EE104AB8EE401AC5
:1019200081EE200A01E0B7EE000AF0EE408AB0EE48
:10193000680AFFF7F7FEB0EE408A4748007E0228AB
:101940001FD14548007D28B14348D0F8AC00281A83
:10195000022811D3B0EE480A284600F037FB58B9E8
:101960003D48007D40B93C484068401C3A494860C9
:1019700004B0BDEC028B70BD01A92846FFF77AFDCB
:1019800004E001A8B0EE480AFFF796FC01A805F0B4
:101990002FFFA0B93048C07C38B93048C06D401C1A
:1019A0002E49C86501202C49C87400202B4981F8B4
:1019B000560029484068401C27494860D8E7294616
:1019C00001A800F039FC18B90320FEF79FFFCFE70C
:1019D00000202149C8740120204981F8560008469A
:1019E000846680ED188A01A90EC910300EC01A480D
:1019F000C068A0422ED81848008A401E86B206EB66
:101A00004602174901EB820005F0F2FE06EB4602A2
:101A1000134901EB8200294600F00EFC18B903209F
:101A2000FEF774FFA4E706EB46010D4800EB8103C7
:101A30000A480ECB10300EC0B7EE000A1C3880EDFD
:101A4000180A00200449C1F8BC002946052000F00E
:101A500069FA00BF00BF8BE718120020A411002014
:101A60003813002070B52DED048B9EB004460D4652
:101A700000EE105AB8EE400ADFEDF10A20EE200A1F
:101A8000B0EE408AEF48A0F18001D1E91D23C96F73
:101A9000C0E900238160A0F58070D0F8B800201A5A
:101AA00064280CD90120E849887501F180000021E3
:101AB00041678167C1671EB0BDEC048B70BD00201B
:101AC000E1498875B5EEC08AF1EE10FA00D8F2E768
:101AD000DD4890ED1B0AD0ED0D0A30EE600A8DED69
:101AE0000D0A90ED1C0AD0ED0E0A30EE600A8DED65
:101AF0000E0A90ED1D0AD0ED0F0A30EE600A8DED52
:101B00000F0A0DA800F036FEF0EE408ACE48D0ED68
:101B10001F0AB0EE001A60EE810A60EEA80AB0EE6D
:101B2000600A11F07DF9B0EE409AC748D0ED1E0A68
:101B3000B0EE600AF0EE490A11F086F8F0EE409A35
:101B40000DA807C80AAB07C3B0EE690A0AA800F0DF
:101B5000F9F99DED0A0ABC48D0ED3D0A30EE600A65
:101B6000C0EE080ACDED070A9DED0B0AD0ED3E0A46
:101B700030EE600AC0EE080ACDED080A9DED0C0AB1
:101B8000D0ED3F0A30EE600AC0EE080ACDED090A3A
:101B9000D0ED1F0AB0EE600A07A8FFF70DFD002088
:101BA00014E0A8490C3901EB800191ED000A07A966
:101BB00001EB8001D1ED000A00EE880AA1490C3941
:101BC00001EB800181ED000A411CC8B20328E8D373
:101BD0009D48D0ED1E0AB0EE600AF430FFF7ECFC31
:101BE000994890ED3D0A20EE080A8DED040A90ED2B
:101BF0003E0A20EE080A8DED050A90ED3F0A20EE20
:101C0000080A8DED060A9FED910AF4EEC08AF1EE06
:101C100010FA18D99DED040ADDED0D0A20EE200A18
:101C2000DDED050A9DED0E1A00EE810ADDED060AD6
:101C30009DED0F1A00EE810A68EEA80AB4EEE00AE4
:101C4000F1EE10FA0EDB80490846D0E91B23406F05
:101C5000C1E90D23C86301F180000021416781675C
:101C6000C16718E0784890ED0D0ADDED040A30EE0A
:101C7000200A80ED0D0A90ED0E0ADDED050A30EE2A
:101C8000200A80ED0E0A90ED0F0ADDED060A30EE17
:101C9000200A80ED0F0A6C4A343207CA13AB07C31F
:101CA000694890F89000012818D110A913A8FFF7EF
:101CB000D9FAB8B963488038002141678167C167A4
:101CC0000020634981F85600012081F8570081F80F
:101CD00058000846C06D401CC865ECE613A807C84C
:101CE00010AB07C35848D0F8AC00201A02287CD3A8
:101CF0000026202116A8FEF7D5FC16AA5149243942
:101D000010A801F0DFF908B1012623E09DED1D0ABE
:101D1000F6EE000AB4EEE00AF1EE10FA01DD02265A
:101D200018E017A801F07EFC08B9032612E017A8F6
:101D3000FEF7BAFE08B904260CE017A800F068FA0E
:101D400008B9042606E017A93E482438FFF7F2FB3D
:101D500000B9052686BB3B4880380146D1E91723E8
:101D6000496EC0E91423816517A90EC95C300EC005
:101D7000E83813A90EC940300EC04C3890F89000D6
:101D8000012804D1304813A90EC958300EC02E487E
:101D9000C0F8B04002202C49C1F8B4000846C0F891
:101DA000AC4000202A4981F85400012081F85600F7
:101DB000002081F8570020E0FFE72248803800210A
:101DC00041678167C16780380346D3E910219B6C66
:101DD000C0E90E1342639DF858001D4981F8540074
:101DE000002081F85600084600E007E080F85760C0
:101DF00080F85860C06D401CC86500BF01A920462E
:101E0000FFF738FB01A805F0F3FC60B1104801A909
:101E10000EC910300EC0214601A800F00DFA10B90D
:101E20000320FEF773FD08484068201A08498866B9
:101E30009FED080A084680ED180A00BF3BE6000047
:101E40006F12833A1813002018120020CDCC4C3D9D
:101E5000A41100200000000070B504462E48008A3E
:101E600050B907202D494870002081F856002146BE
:101E70000D2000F057F870BD2748008A401E85B23B
:101E800005EB4502264901EB820005F0B1FC20B9C3
:101E900000202149C1F8BC002BE005EB4502204998
:101EA00001EB8200214600F0C7F918B90320FEF7C4
:101EB0002DFDE0E7FFF73CF9B8B11748D0F8BC00BA
:101EC00010B91548C0F8BC401348D0F8BC00201A1F
:101ED00078280ED3002011494870012081F856005F
:101EE0002146062000F01EF8C5E700200A49C1F887
:101EF000BC0009480068201AB0F5FA5F09D3072032
:101F000006494870002081F8560021460D2000F057
:101F100009F800BFAFE7000018120020A41100204C
:101F200038130020054A1070054A1160052803D0B7
:101F30000022034BC3F8BC2070470000A41100200E
:101F40001812002010B52DED028B0446B0EE408A29
:101F5000204600F00FFCF0EE408A9FED1A0AF4EEE6
:101F6000C08AF1EE10FA04D9B5EEC08AF1EE10FA8B
:101F70000ED89FED150A84ED000A9FED130A84ED3B
:101F8000010A9FED110A84ED020ABDEC028B10BD1F
:101F900088EE280AD4ED000A20EE200A84ED000A1B
:101FA00088EE280AD4ED010A20EE200A84ED010A09
:101FB00088EE280AD4ED020A20EE200A84ED020AF7
:101FC00000BFE2E7BD3786350000000010B52DEDFB
:101FD000028B8EB00446B0EE408A0BA8B0EE480AE1
:101FE000FFF74EFB424890F8910001280CD10BA955
:101FF0000BA8FFF737F938B90420FFF707FC0020DA
:102000000EB0BDEC028B10BD3948007D88B1384858
:102010008030D0E91712406ECDE9001202903448AA
:1020200080300146D1E91723496EC0E91423816548
:102030000AE0304A103207CA8DE807002C48803089
:102040009DE80E0050300EC0202103A8FEF72AFBA9
:1020500003AA69460BA801F035F8C8B99DED0A0A34
:10206000F6EE000AB4EEE00AF1EE10FA10DC04A875
:1020700001F0D8FA60B104A8FEF716FD40B104A83B
:1020800000F0C6F820B104A96846FFF753FA98B9E2
:102090009DF80C00174981F85400002081F8560083
:1020A0001348C07C30B90846C06D401CC86501208B
:1020B0000F49C8740020A3E70D48803004A90EC959
:1020C0005C300EC0E838C0F8B04002200849C1F8C2
:1020D000B4000846C0F8AC40012008750020C87460
:1020E000044981F85400012081F8560000BF87E7B9
:1020F00018120020A41100202DE9F0472DED028BCD
:1021000004460E46B0EE408AF0EE608A17469846C6
:102110000A9D3B48008A401E1FFA80F9384894E81F
:102120000E0028300EC0343890F8910001280AD1F2
:102130003348803094E80E0014300EC0014620462B
:10214000FFF790F80AE02E48803094E80E00203027
:102150000EC02C3894E80E0014300EC02848C6601B
:10216000456080ED308AC0ED318A07760020244931
:10217000C87408750846C0F8AC50C0F8B0500220CA
:10218000C1F8B40000204875887521461C481C30F1
:10219000FFF79EFA1A4880ED320A1A4A00F580705D
:1021A000D0E90831806AC2E90431906109EB490144
:1021B000154800EB810310460ECB1C300EC02838AA
:1021C00094E80E0048300EC000200E4981F85400FB
:1021D000012081F8550081F856009FED0C0A084651
:1021E00080ED180A002088664870FFF71FFB29461B
:1021F0004046FFF797FEBDEC028BBDE8F08700007C
:1022000018120020A4110020381300200000000044
:1022100010B504460748C07D50B10648D0ED330ADA
:10222000B0EE600A204603F0CFFB08B1012010BDDC
:102230000020FCE7181200202DE9F0412DED028B63
:1022400006460D4603F090F90746B87B18B13046B4
:10225000FFF7DEFF20B90020BDEC028BBDE8F08166
:10226000304604F043F9B0EE408A0848D0ED330A16
:10227000B0EE600A2846F0EE480A04F0BFF90446C2
:102280000CB90120E8E70020E6E700001812002062
:1022900070B52DED048B84B005460E46FB4890EDDD
:1022A000030AB8EE400ADFEDFA0A20EE200AB0EE8B
:1022B000408AB5EEC08AF1EE10FA0CDDF54890EDDB
:1022C0001A0AF8EE400AF14890ED030AB8EE401AF7
:1022D00080EE810A01E0B7EE000AF0EE409AEE4887
:1022E000EE4BD3E907215B6AC0E9011302600246A5
:1022F000E84B10330BCB0C320BC2E748E54B1C33D9
:102300000ECB18300EC0E449E44BD3E91520DB6D49
:10231000C1E913038A640846E04B60330ECB5430A6
:102320000EC00024CFE094B9DA48103000EB8400EE
:10233000D0ED000AD9481C3000EB840090ED001A63
:1023400070EEC10AB0EE600A00F02CFA0DE0D14840
:10235000103000EB840090ED000AD0481C3000EBF8
:102360008400D0ED000A30EE600AB0EE409A94B9D5
:10237000C8481C3000EB8400D0ED000AC7481C3070
:1023800000EB840090ED001A70EEC10AB0EE600A16
:1023900000F008FA0DE0BF481C3000EB840090ED1F
:1023A000000ABE481C3000EB8400D0ED000A30EE7D
:1023B000600AF0EE408AB848243000EB840080EDDB
:1023C000009AB0EE490A11F08DF8B348303000EBB6
:1023D0008400D0ED000AB4EEE00AF1EE10FA09DD57
:1023E000B0EE490A11F07EF8AB48303000EB8400C3
:1023F00080ED000AAA48005D98B9B0EE680A11F0B5
:1024000071F8DFEDA80AB4EEE00AF1EE10FA08DD8B
:10241000A3480C3800EB8400C0ED008A0121A048DD
:1024200001559F48005D80B19D480C3800EB840049
:1024300090ED000A20EE280AB5EEC00AF1EE10FA7F
:1024400003D201219648C01C01559548C01C005D6F
:10245000C0B1B0EE680A11F045F88F483C3000EB8F
:102460008400D0ED000AB4EEE00AF1EE10FA09DDC6
:10247000B0EE680A11F036F887483C3000EB840073
:1024800080ED000AB0EE490A11F02CF8F1EE040AD2
:10249000B4EEE00AF1EE10FA0CDD01217E48603066
:1024A0000155001D50F8240081197B48643040F824
:1024B000241006E00021784860300155001D40F8E6
:1024C0002410601CC4B2032CFFF42DAF6F48407D74
:1024D000E8B300EE106AB8EE400ADFED6D0A20EEB8
:1024E000200AF0EE408A6948D0ED3D0A60EEA00A6D
:1024F00090ED3E1AD0ED3E1A41EE210A90ED3F1AC2
:10250000D0ED3F1A41EE210AB0EE600A10F088FCCF
:10251000614880ED1C0A5D4890ED3D0AD0ED400A0F
:1025200030EE600A8DED010A90ED3E0AD0ED410AD1
:1025300030EE600A8DED020A90ED3F0AD0ED420ABE
:1025400030EE600A8DED030AF5EEC08A00E01FE070
:10255000F1EE10FA16DDDDED010A60EEA00A9DED48
:10256000021ADDED021A41EE210A9DED031ADDED9E
:10257000031A41EE210AB0EE600A10F051FCC0EEE1
:10258000280A01E0DFED480A4348C0ED1D0A31E0AA
:10259000B5EEC08AF1EE10FA0BDDB0EE690AFFF776
:1025A00011F93A48D0ED320A60EE200A80EE880A2E
:1025B00001E09FED3D0A384880ED1C0AB5EEC08A67
:1025C000F1EE10FA11DDB0EE690AFFF7D3F8F0EE84
:1025D000408A10F087FF2D48D0ED320A60EE200AC5
:1025E00028EE081A80EE810A01E09FED2F0A2A48A2
:1025F00080ED1D0A2748806E274988672348C068F8
:10260000C86724480078052803D120480068281AA4
:1026100000E000202049C1F880001E48007805280D
:1026200008D11A48D0F8BC0020B11848D0F8BC0036
:10263000281A00E000201849C1F884004FF4FA502D
:10264000C1F88800FEF774FD134981F890000F4827
:10265000407D81F891000D48807D81F892000B4803
:10266000406EC1F894000948407D20B10748D0F879
:10267000B800281A00E000200749C1F88C0008467D
:1026800004F01CFD04B0BDEC048B70BD18120020DA
:102690006F12833AA411002000C901202CC601202A
:1026A000301300200AD7233C0000000010B52E484C
:1026B0002E4BD3E907215B6AC0E902134260002474
:1026C00029E094B928481C3000EB8400D0ED000AC2
:1026D00026481C3000EB840090ED001A70EEC10A11
:1026E000B0EE600A00F05EF80DE01F481C3000EB11
:1026F000840090ED000A1D481C3000EB8400D0EDF2
:10270000000A30EE600A1848283000EB840080EDA3
:10271000000A601CC4B2032CD3D313491348803081
:10272000D0E90A23006BC1E90F2348644831A1F1C5
:102730000C00FEF7CDFF0C4880ED1C0A0B49B1F8E8
:1027400007208286497A80F83610373007494A894F
:102750000280097B81700648C068034948660448C6
:10276000008AA1F86C0010BDA41100202CC6012025
:102770001812002010B50446D4ED000A60EEA00A3D
:1027800094ED011AD4ED011A41EE210A94ED021ADA
:10279000D4ED021A41EE210AB0EE600A10F040FBBF
:1027A00010BD000005E0DFED0E0A70EE600AB0EE2D
:1027B000600ADFED0C0AB4EEE00AF1EE10FAF2DC8A
:1027C00005E0DFED070A70EE200AB0EE600ADFEDEB
:1027D000060AB4EEE00AF1EE10FAF2D370470000F8
:1027E0000000B44300003443000034C370B52DED45
:1027F000028B0546B0EE408A05EB85001C4901EBD3
:10280000C0049FED1C0AF0EE408A18EE100A0FF08B
:10281000F3FE18B90020BDEC028B70BD94ED040AE4
:1028200030EE680AB4EEC80AF1EE10FA0AD894ED58
:10283000050A30EE280AB4EEC80AF1EE10FA01DB00
:102840000120E8E794ED060A30EE680AB4EEC80A03
:10285000F1EE10FA0AD894ED070A30EE280AB4EE29
:10286000C80AF1EE10FA01DB0220D4E70320D2E718
:10287000B4CA0120CDCC4C3E2DE9F0412DED028BA8
:102880000546B0EE408A0F464DB118EE100A0FF023
:10289000B3FE20B1B5EEC08AF1EE10FA04D80020E4
:1028A000BDEC028BBDE8F08100241FE005EB840045
:1028B00090ED000A10EE101A08460FF09DFE08B9C0
:1028C0000020EDE705EB8400D0ED000AB0EE600AD1
:1028D0002046FFF78BFF064626B1032E02D01FB914
:1028E000012E01D00020DBE7601CC4B2032CDDD335
:1028F000002411E005EB8400D0ED000AB0EE600A80
:102900003A46F0EE480A2946204602F05BFA08B93A
:102910000020C5E7601CC4B2032CEBD30120BFE745
:1029200070B500240AE004EB8400064951F83050E9
:1029300015B1284605F0BDFD601CC4B2032CF2D3CE
:1029400070BD0000B4CA012010B52DED028BB0EEB1
:10295000408A0D4890F8240020B99FED0C0ABDEC88
:10296000028B10BD18EE100A0FF046FE10B99FED55
:10297000080AF4E79FED070A38EE400AF7EE000A6E
:1029800020EE200AEBE700002CCB01200000000025
:102990000000C07F00003443F0EE400A9FED020AC1
:1029A00030EE600A70470000000034C3F0EE400AC9
:1029B0009FED020A30EE600A70470000000034C349
:1029C00010B50B2000F092FF10BD000070B5054659
:1029D0000DB9032070BD95F8200008B10420F9E777
:1029E000287920B12879012801D00320F2E717487F
:1029F000007801280ED1154840780C280AD11348D8
:102A0000807838B99FED120A02F018FC10B903F073
:102A1000A1FA08B90220DDE703F036FF08B1012072
:102A2000D8E7284604F05EF804460CB90020D1E748
:102A3000012C01D10120CDE7022C01D10220C9E7F0
:102A4000032C01D10320C5E70620C3E72CC60120D3
:102A500000008C4270B5044624B104F1080000F077
:102A6000E1FD08B9032070BD1948007801280ED196
:102A7000174840780C280AD11548807838B99FED5E
:102A8000150A02F0DBFB10B903F064FA08B9022062
:102A9000E9E703F0F9FE08B10120E4E7207920B965
:102AA00004F1080003F092FF03E004F1080003F0D2
:102AB00007FF05460DB90020D5E7012D01D1012002
:102AC000D1E7022D01D10220CDE70620CBE700009F
:102AD0002CC6012000008C4210B504460CB903201E
:102AE00010BD94F8240008B10420F9E70C480078E0
:102AF00001280ED10A4840780C280AD1084880786D
:102B000038B99FED080A02F099FB10B903F022FAD8
:102B100008B90220E4E7204604F058F8E0E7000096
:102B20002CC6012000008C4270B504462F48007866
:102B300001280DD12D4840780C2809D12B488078E8
:102B400030B99FED2B0A02F079FB08B9012000E0B3
:102B5000002005460CB9032070BD2078062841D21C
:102B6000DFE800F041032A31353C0DB90220F3E7DC
:102B7000D4ED010AB0EE600A1C481C3002F024FFBC
:102B800008B90620E8E7D4ED010AB0EE600A03F0C8
:102B900077FC08B10320DFE707F0ECF8064613489E
:102BA00090ED301AF0EE410A94ED011AB0EE410AB0
:102BB000304603F023FDCFE71DB1012003F02AFCCE
:102BC000CAE70220C8E7022003F024FCC4E71DB1D5
:102BD000032003F01FFCBFE70220BDE7022003F043
:102BE00019FCB9E700BF0320B6E700002CC601209E
:102BF00000008C4210B52DED0A8BF0EE409AB0EE3D
:102C0000608AB0EE41AA044614B9BDEC0A8B10BD2F
:102C10009FED2D0A69EE80AA9FED2B0A28EE00BADF
:102C2000B0EE4A0AFFF7C2FE30EE080ADFED260AD0
:102C300060EE20BAB0EE4B0A0FF03AFFDFED230A48
:102C400060EE20CAB0EE6B0A0FF032FFDFED1F0A14
:102C5000B0EE6CCA00EE80CA9FED1D0A7CEE008AC1
:102C60009FED1B9AB0EE6A0A0FF022FF60EE28CAB1
:102C7000B0EE6A0A10F00CF849EE40CAC4ED00CA82
:102C8000B0EE6A0A10F004F860EE28CAB0EE6A0AE4
:102C90000FF00EFF49EE00CAC4ED01CAB0EE4B0AB8
:102CA0000FF0F6FFDFED0BCADFED080A40EE80CA39
:102CB000B0EE6B0A0FF0ECFFDFED040A40EE80CAC5
:102CC000C4ED02CA00BFA0E735FA8E3C0000824383
:102CD000000000000000784230B5094CA06284F882
:102CE0002C1084F82D2084F82E30246A844206D1DA
:102CF0000024034D2C6285F8244085F8254030BD22
:102D0000ECC901202DE9F04104460D4617461E4648
:102D10000CB9BDE8F0813A462946204600F024F877
:102D20000448846280F82C5080F82D7080F82E6062
:102D300000BFEEE7ECC9012010B50446084890F842
:102D4000300028B1064A11791068224600F00CF8CC
:102D50000020034981F8300002498861087710BDDE
:102D600054CB0120ECC9012010B500B910BD094BAE
:102D7000186383F8341083F835201B6A834206D128
:102D80000023044C236284F8243084F8253000BFEB
:102D9000ECE70000ECC90120034B186283F8241013
:102DA00083F8252070470000ECC901201FB59FED76
:102DB000AA0A8DED000AE821A848FDF773FC4FF43C
:102DC000AE71A748FDF76EFCA64800210160416086
:102DD0008160C1608021A448FDF764FC9821A3486C
:102DE000FDF760FC5421A248FDF75CFCBC21A14822
:102DF000FDF758FCA0480021016041608160782106
:102E00009E48FDF74FFC28219D48FDF74BFC5021C3
:102E10009C48FDF747FC0020964908719FED8E0AFB
:102E2000964880ED010A9FED8C0A80ED020AB7EE0C
:102E3000000A80ED030A9FED940A80ED040A9FEDDD
:102E4000930A80ED050A9FED920A80ED060A9FED38
:102E5000910A80ED070A9FED800A80ED0B0A9FED35
:102E60008E0A80ED0C0AB7EE000A80ED0D0A9FED88
:102E70008B0A80ED0E0A9FED880A80ED0F0AB3EEF3
:102E8000040A80ED100A9FED860A80ED110A9FED7D
:102E9000720A80ED150A9FED7C0A80ED160AB7EEE6
:102EA000000A80ED170A9FED7F0A80ED180A9FED5A
:102EB0007E0A80ED190A9FED7D0A80ED1A0ABBEEAD
:102EC000040A80ED1B0A00200190029003907848CC
:102ED000019002208DF80D0000208DF80E000320D7
:102EE000ADF808001320ADF80A0006208DF80C009C
:102EF00001A805F06FFB614908600220ADF80800E9
:102F00001220ADF80A0007208DF80C0001A805F08A
:102F100061FB5A4988620120ADF808001120ADF824
:102F20000A0006208DF80C0001A805F053FB534958
:102F3000086508460068D0B10846806AB8B10846FE
:102F4000006DA0B108460068808E40F203118842EF
:102F50000DD14A48806A808EB0F5817F07D14748FD
:102F6000006D808E891E884201D1012000E0002082
:102F70003A49C870684600F02FFC38490871FF20B4
:102F8000887100204870087081F8E40006F0F2FEB5
:102F90003B490860084600684860084600680861C8
:102FA000002081F8230081F8240001202C490874B6
:102FB00000212B4841748174C1740175022141754F
:102FC0009FED3C0A80ED060A9FED3B0A80ED070A63
:102FD0009FED390A80ED080A9FED380A80ED090A55
:102FE0009FED1D0A80ED0A0A9FED350A80ED0B0A60
:102FF0009FED190A80ED0C0A9FED170A80ED0D0A6E
:103000009FED150A80ED0E0A032180F83C10002187
:10301000016441648164C16401650020164908703F
:10302000022048700320887015480068486004F04A
:103030001FFD02F075FB03F003FC0848C07810B1D7
:103040000648007918B9012000F050FC1FBD02208D
:103050000249087000BFF9E7000000002CC60120FB
:1030600014C7012070C8012080C8012000C90120B8
:1030700098C90120ECC90120A8CA0120B4CA0120C6
:103080002CCB012054CB01200000B4C20000B4427C
:103090000000DCC20000DC420000344300000C42AF
:1030A0000000484300003EC300000CC2000052C3B1
:1030B00024020020000070420000C07FA62A614365
:1030C000000040432DE9F04F2DED108B83B00546F5
:1030D0000E4614469FEDF00AB0EE40EA4FF00009AC
:1030E000CA46CB462CB9032003B0BDEC108BBDE81B
:1030F000F08F20212046FDF7D5FA85B37EB395EDFC
:10310000000A10EE101A08460FF07FFA38B395ED5A
:10311000010A10EE101A08460FF077FAF8B195ED93
:10312000020A10EE101A08460FF06FFAB8B196EDC9
:10313000000A10EE101A08460FF067FA78B196ED03
:10314000010A10EE101A08460FF05FFA38B196ED3A
:10315000020A10EE101A08460FF057FA18B90320A9
:1031600020702078C0E7D5ED000A60EEA00A95ED4A
:10317000011AD5ED011A41EE210AB0EE600A0FF0F6
:103180004FFEB0EE408A95ED020ADFEDC40A70EE04
:10319000608A18EE100A0FF038FA20B118EE900A83
:1031A0000FF033FA18B90720207020789CE79FEDC4
:1031B000BC0A08EE080AB5EEC00AF1EE10FA03D216
:1031C0000420207020788FE79FEDB30A18EE080ADC
:1031D000F0EE400A9FEDB00A0FF012FDB0EE409AFB
:1031E0000FF01EFEF0EE409A9FEDAD0AB4EEC08ADD
:1031F000F1EE10FA0ADD95ED001AF0EE410A95EDB8
:10320000011AB0EE410A0FF0C7FA05E096ED000A88
:10321000DFEDA40A20EE200AF0EE40DA0027DAE023
:103220009FED9F0AF4EEC09AF1EE10FA02D8012F3A
:1032300000D1CEE017B9B0EE690A01E0B1EE690A3B
:10324000F0EE40BA9FED940A7BEEC0AAF0EE6B0A56
:103250009FED910A0FF0A0FA3DEEC00ADFED920A51
:1032600020EE200AB0EE40AA00F01CFBB0EE40CAEF
:103270002AEEAA0A08EEA80ADFED8C0A30EE600AF0
:10328000DFED8A0A30EE600ADFED890A80EE209ACF
:1032900019EE100A0FF0B9F918B90720207020783C
:1032A00022E79FED840AB4EEC09AF1EE10FA06D33D
:1032B0009FED810AB4EEC09AF1EE10FA00DD88E0CD
:1032C0004FF0010AB7EE001AFFEE000AB0EE490A0D
:1032D00000F06CFAB0EE409A4FF0000875E0B0EEE6
:1032E000490A0FF0CDF9B0EE40BAB8F1000F03D0A3
:1032F000B1EE4B0AB0EE40BAF0EE6A0AB0EE680AE0
:103300000FF04AFAF0EE40FAB0EE4B0A0FF0D0FBA5
:10331000DFED6A0A9FED691A41EE000AF0EE60EAFD
:10332000B0EE4B0A0FF0B4FCDFED640A20EE200A89
:10333000B0EE40FAF0EE6E0A0FF02EFA7FEEC0CA41
:103340009FED590A2BEE00DA8DED00CA9FED560A6B
:103350002CEE800A8DED010AB0EE4D0AFFF71CFB42
:103360008DED020A684600F05DF900B929E04FF0E2
:10337000010B6846FDF798FB00B922E06078401C1D
:1033800060703146684600F0C1F9B0EE40AA1AEE0E
:10339000100A0FF03AF918B9072020702078A3E638
:1033A000B9F1000F04D0B4EECEAAF1EE10FA07D2B4
:1033B0004FF00109B0EE4AEA9DE80700231D07C35C
:1033C00000BF08F1010000F0FF08B8F1020F86D33A
:1033D00000BF781CC7B2022FFFF422AFB9F1000F73
:1033E0000FD1BBF1000F02D00620207007E0BAF128
:1033F000000F02D00520207001E00420207020780A
:1034000072E6D4ED031AB0EE611AD4ED021AF0EEB2
:10341000610AD4ED011AB0EE610A04F11000FFF761
:10342000E9FBD4ED040A95ED001A70EEC10A60EED6
:10343000A00A94ED051AD5ED011A31EE611AD4ED0A
:10344000051A95ED012A71EEC21A41EE210A94ED9A
:10345000061AD5ED021A31EE611AD4ED061A95ED71
:10346000022A71EEC21A41EE210AB0EE600A0FF094
:10347000D7FC84ED070A94ED070A10EE101A0846EF
:103480000FF0C3F818B90720207020782CE6002030
:103490002070207828E6000000000000000078423C
:1034A00017B7D13835FA8E3CE02E654200088447C4
:1034B00000080448470380BF4703803F0000824361
:1034C00070B52DED028B0546B0EE408A2846FDF71B
:1034D00039FB20B118EE100A0FF08EF820B99FEDDD
:1034E000150ABDEC028B70BD05EB8500124901EB9E
:1034F000C004D4ED030AB0EE600AFDF71FFAF6EE41
:10350000000AB4EEE00AF1EE10FA02D29FED090AC9
:10351000E7E794ED020A38EE400ADFED080A20EEF4
:10352000200AD4ED030A80EE201A94ED010A31EE50
:10353000000AD6E70000C07FB4CA012035FA8E3CED
:1035400070B52DED028B0546F0EE408A0C46022D3B
:1035500007D0B0EE680A2846FFF7B2FFBDEC028B39
:1035600070BD54B194ED010A10EE101A08460FF028
:1035700043F810B194ED018A1BE0124890ED130A54
:1035800010EE101A08460FF037F818B10D4890EDFC
:10359000138A0EE00B4890ED120A10EE101A08463E
:1035A0000FF02AF818B1074890ED128A01E09FED5C
:1035B000068AF0EE480AB0EE680A284600F006F8DF
:1035C000CCE70000B4CA01200000344310B52DED53
:1035D000048B0446B0EE408AF0EE608A022C19D1CA
:1035E000B0EE680AFFF7B0F9B0EE409A18EE100A94
:1035F0000FF002F820B119EE100A0EF0FDFF20B90D
:103600009FED070ABDEC048B10BD38EE490AB0EE01
:10361000408A00BFB0EE480A2046FFF751FFF1E7AD
:103620000000C07F10B50446BCB194ED000A10EE56
:10363000101A08460EF0E9FF78B194ED010A10EE79
:10364000101A08460EF0E1FF38B194ED020A10EEB0
:10365000101A08460EF0D9FF08B9002010BD94EDED
:10366000000ADFED1C0AB4EEE00AF1EE10FA2EDBE0
:1036700094ED000ADFED180AB4EEE00AF1EE10FA5C
:1036800025D894ED010ADFED150AB4EEE00AF1EE5B
:1036900010FA1CDB94ED010ADFED110AB4EEE00A2A
:1036A000F1EE10FA13D894ED020ADFED0E0AB4EE33
:1036B000E00AF1EE10FA0ADB94ED020ADFED0A0AE5
:1036C000B4EEE00AF1EE10FA01D80120C6E70020BE
:1036D000C4E700006666B4C26666B44233330B4288
:1036E0003333344333333EC333330BC210B52DED84
:1036F000028BB0EE408AF0EE608A78EE680AB0EE97
:10370000600A00F0CFF8BDEC028B10BD70B52DED56
:10371000068B04460D469FED200AB0EE409A9FEDC1
:103720001F0AF0EE409A9FED1E0AB4EEC09AF1EE29
:1037300010FA06D99FED1A0AF4EEC09AF1EE10FACB
:1037400004D89FED180ABDEC068B70BD95ED001AEC
:10375000F0EE410A94ED001AB0EE410AFFF7C6FF01
:10376000DFED110A80EE20AA94ED010AD5ED010AE1
:1037700030EE600A80EE098A94ED020AD5ED020A65
:1037800030EE600AC0EE298A2AEE0A0A08EE080A1C
:1037900008EEA80AD7E700000000114300001B4311
:1037A00017B7D1380000807F0000B443F0EE401A14
:1037B000F4EEE01AF1EE10FA02D2B0EE600A7047B1
:1037C000F4EEC11AF1EE10FA02DDB0EE410AF6E7AE
:1037D000B0EE610AF3E7000010B52DED028B86B064
:1037E000044603A89FED291ADFED290A9FED290A57
:1037F000FFF700FA9FED280A8DED000A9FED250ADC
:103800008DED010A9FED250A8DED020ADDED030A1B
:103810009DED001A70EEC10A60EEA00A9DED041A3B
:10382000DDED011A31EE611ADDED041A9DED012A7C
:1038300071EEC21A41EE210A9DED051ADDED021A64
:1038400031EE611ADDED051A9DED022A71EEC21A04
:1038500041EE210AB0EE600A0FF0E2FAB0EE408AC3
:103860000CB184ED008A18EE100A0EF0CEFE58B1AD
:103870009FED0B0AB4EEC08AF1EE10FA04D80120D5
:1038800006B0BDEC028B10BD0020F9E70000B4C209
:103890000000B44200000000000082430000A14389
:1038A0000AD7233C05E0DFED0E0A70EE600AB0EEA9
:1038B000600ADFED0C0AB4EEE00AF1EE10FAF2DC79
:1038C00005E0DFED070A70EE200AB0EE600ADFEDDA
:1038D000060AB4EEE00AF1EE10FAF2D370470000E7
:1038E0000000B44300003443000034C310B5044664
:1038F00004B901241348807808B10B2C01D1114878
:1039000084700B2C01D1052000E004200D490870C3
:103910000B2C01D10E2000E00D200A494870082030
:10392000FCF7F4FF0020084981F8240002F050FE63
:1039300001F000FDFEF7F4FF0120034981F82100AA
:1039400010BD00002CC601202CCB012010B52DEDA0
:10395000028B0446F0EE408A0F4890ED130AB0EE59
:10396000408A012C07D1B0EE680A204600F018F812
:10397000BDEC028B10BD18EE100A0EF03DFE18B91A
:103980009FED060AB0EE408AF0EE480AB0EE680AF3
:10399000204600F033F8EBE7B4CA012000003443BE
:1039A00070B52DED028B0546B0EE408A2846FDF736
:1039B000C9F820B118EE100A0EF01EFE20B99FEDD6
:1039C0000C0ABDEC028B70BD05EB8500094901EBCB
:1039D000C00494ED030AD4ED010A78EE600A60EEAB
:1039E000200A94ED020A9FED041A00EE810AE8E72E
:1039F0000000C07FB4CA0120E02E654210B52DED55
:103A0000048B0446F0EE409AF0EE608AB0EE690A4C
:103A10002046FFF7C5FFB0EE408A022C19D1B0EE68
:103A2000680AFEF791FFB0EE409A18EE100A0EF009
:103A3000E3FD20B119EE100A0EF0DEFD20B99FED76
:103A4000060ABDEC048B10BD38EE090AB0EE408AC0
:103A500000BFB0EE480AF4E70000C07F10B52DEDBE
:103A6000028B0446B0EE408A2046FDF76BF820B189
:103A700018EE100A0EF0C0FD20B99FED220ABDEC31
:103A8000028B10BD022C2FD11F4890F8240050B398
:103A90001E48806A20B11D48806AD0ED020A01E00C
:103AA000DFED1B0AB0EE600A0120FFF7D7FFF0EE52
:103AB000408A18EE900A0EF09FFD10B99FED110A92
:103AC000DDE704EB8400114901EBC00090ED030A2F
:103AD00020EE080ADFED0F0A20EE200AF7EE000ABA
:103AE00000EEA80ACBE700BF04EB8400074901EB16
:103AF000C00090ED030A20EE080ADFED060A20EE72
:103B0000200ABCE70000C07F2CCB0120B4CA0120F2
:103B100000000000E02E65422DE9F0412DED048B00
:103B200092B00446B0EE408A06F024F90746202100
:103B30000AA8FCF7B7FD03208DF82800AE480078EE
:103B400002280BD0AC480078042807D0AA48007897
:103B5000032803D0A8480078052805D1012012B019
:103B6000BDEC048BBDE8F08154B394ED000A10EE77
:103B7000101A08460EF052FD10B394ED010A10EE33
:103B8000101A08460EF04AFDD0B194ED020A10EE6C
:103B9000101A08460EF042FD90B118EE100A0EF011
:103BA0003DFD68B1B7EE000AB4EEC08AF1EE10FA3E
:103BB00006D39FED920AB4EEC08AF1EE10FA05DD4D
:103BC0009DF82800FDF722FE0320C8E7FDF728FD39
:103BD00028B99DF82800FDF719FE0220BFE78848A4
:103BE000C07D50B99FED870A0020FDF73DFE20B94A
:103BF0000620FDF70BFE0220B1E7834890ED070A8F
:103C00008DED040A90ED080A8DED050A90ED090A84
:103C10008DED060A04A8FFF705FD38B104A8FCF7EE
:103C200043FF18B104A8FEF7F3FA20B90620FDF708
:103C3000EDFD042093E7DDED061AB0EE611ADDED2F
:103C4000051AF0EE610ADDED041AB0EE610A6C4867
:103C50001C30FEF7CFFF214669481C30FDF738FDC8
:103C6000F0EE408A18EE900A0EF0D8FC20B907203A
:103C7000FDF7CCFD032072E79FED640AF4EEC08AE5
:103C8000F1EE10FA04D80021204600F0B1FF66E7FB
:103C9000B7EE000AC8EE800AB0EE609AB0EE490AAC
:103CA0000EF0D0FEBCEEC00A10EE100A401C85B229
:103CB000022D02D3B5F5C07F04D90320FDF7A6FD80
:103CC00004204CE74E48058200204D4981F89100C0
:103CD00001F5807004A90EC920300EC004A807C8E1
:103CE00001AB07C3012665E0681E00EE100AF8EE7E
:103CF000400A00EE106AB8EE400A80EE201AB0EEDC
:103D0000419A94ED000A3E48D0ED070A70EE600A31
:103D100090ED070A09EE200A8DED070A94ED010ADD
:103D2000D0ED080A70EE600A90ED080A09EE200A4C
:103D30008DED080A94ED020AD0ED090A70EE600AD2
:103D400090ED090A09EE200A8DED090A0AAA01A9D7
:103D500007A8FFF7B7F9C8B99DED110AF6EE000AFA
:103D6000B4EEE00AF1EE10FA10DC0BA8FFF75AFCF3
:103D700060B10BA8FCF798FE40B10BA8FEF748FA1B
:103D800020B10BA901A8FDF7D5FB28B99DF82800A3
:103D9000FDF73CFD0420E2E606EB46011C4800EB83
:103DA00081000BA90EC90EC00BA807C801AB07C341
:103DB000701C86B2AE4297DB28469FED161AF0EED5
:103DC000480AB0EE680AFCF7E5FF804601A8FCF758
:103DD000C1FE20B90320FDF719FD0220BFE6042330
:103DE0000222DFED0C0AB0EE480A41462046009759
:103DF000FEF782F90020B2E6A411002000002F4453
:103E000018120020000000002CC601200AD7233C15
:103E10003813002000409C452DE9F0412DED048B26
:103E20009CB00446B0EE408A05F0A4FF074620216E
:103E300014A8FCF737FC03208DF85000B048007838
:103E400002280BD0AE480078042807D0AC48007890
:103E5000032803D0AA480078052805D101201CB00A
:103E6000BDEC048BBDE8F08154B394ED000A10EE74
:103E7000101A08460EF0D2FB10B394ED010A10EEB2
:103E8000101A08460EF0CAFBD0B194ED020A10EEEB
:103E9000101A08460EF0C2FB90B118EE100A0EF090
:103EA000BDFB68B1B7EE000AB4EEC08AF1EE10FABD
:103EB00006D39FED940AB4EEC08AF1EE10FA05DD48
:103EC0009DF85000FDF7A2FC0320C8E7FDF7A8FB12
:103ED00028B99DF85000FDF799FC0220BFE708A91A
:103EE0002046FDF7BFF920B90420FDF78FFC042020
:103EF000B5E7854890ED070A8DED050A90ED080AB3
:103F00008DED060A90ED090A8DED070A05A8FFF769
:103F100089FB68B105A8FCF7C7FD48B105A8FEF705
:103F200077F928B111A97848A830FDF771F920B9BF
:103F30000620FDF76BFC042091E7214611A8FDF750
:103F4000C7FBF0EE408A18EE900A0EF067FB20B92E
:103F50000720FDF75BFC032081E79FED6C0AF4EE80
:103F6000C08AF1EE10FA04D80021204600F0D6FFF6
:103F700075E7B7EE000AC8EE800AB0EE609AB0EEC0
:103F8000490A0EF05FFDBCEEC00A10EE100A401C9C
:103F900085B2022D02D3B5F5C07F04D90320FDF709
:103FA00035FC04205BE75A4805820120584981F816
:103FB000910001F1800094E80E0014300EC020380A
:103FC00008A90EC920300EC0AC3811A90EC91C308A
:103FD0000EC0D83005A90EC920300EC005A807C8EC
:103FE00002AB07C3012669E0681E00EE100AF8EE76
:103FF000400A00EE106AB8EE400A80EE201AB0EED9
:10400000419A94ED000ADDED110A70EE600A9DED13
:10401000110A09EE200A8DED0E0A94ED010ADDED7C
:10402000120A70EE600A9DED120A09EE200A8DED6B
:104030000F0A94ED020ADDED130A70EE600A9DEDA1
:10404000130A09EE200A8DED100A0BA90EA8FDF740
:1040500009F9F8B114AA02A90BA8FFF733F8C8B9F7
:104060009DED1B0AF6EE000AB4EEE00AF1EE10FA3E
:1040700010DC15A8FFF7D6FA60B115A8FCF714FDFF
:1040800040B115A8FEF7C4F820B115A902A8FDF7A4
:1040900051FA28B99DF85000FDF7B8FB0420DEE680
:1040A00006EB46011B4800EB810015A90EC90EC0A6
:1040B00015A807C802AB07C3701C86B2AE4293DBDB
:1040C00028469FED151AF0EE480AB0EE680AFCF794
:1040D00061FE804602A8FCF73DFD20B90320FDF7F4
:1040E00095FB0220BBE604230122DFED0B0AB0EEB4
:1040F000480A414620460097FDF7FEFF0020AEE645
:10410000A411002000002F442CC601200AD7233C14
:10411000181200203813002000409C4570B52DED8A
:10412000028B05460E462DB9002036498860BDEC4D
:10413000028B70BD002455E005EB840090ED000A71
:1041400010EE101A08460EF057FA60B104EB840026
:104150002D4A02EBC00090ED090A10EE101A084635
:104160000EF04AFA18B9002026498860DFE705EB0F
:10417000840090ED000A04EB8400234901EBC000A9
:10418000D0ED090A70EE608A04EB840051F830002B
:10419000D0ED020AB0EE600A2046FFF75FFCB0EEF9
:1041A000408A18EE100A0EF027FAA8B1B0EE680A9D
:1041B000FCF7C4FBF0EE000AB4EEE00AF1EE10FAF0
:1041C0000ADCB0EE480AFCF7B9FBF1EE040AB4EEE3
:1041D000E00AF1EE10FA03DD00200A498860A6E744
:1041E000601CC4B2032CA7D30648806808B90548F0
:1041F000866004488068301A782801D3012096E749
:10420000002094E72CCB0120B4CA012070B52DED1D
:10421000028B84B00546874C207880B9607808B15D
:1042200000F026FF00206070A07002206071002066
:10423000814981F8230004B0BDEC028B70BD7E483B
:1042400090F82300D8B901207B4981F82300084663
:104250000561012060700020A070E07020710220D4
:1042600060719FED760A84ED030A9FED740A84ED78
:10427000040A0020E063206C401C2064DBE705F0AA
:1042800079FD0646FCF768FB28B1FCF7A9FB10B1E5
:10429000FCF78CFB20B90720607002206071CAE730
:1042A00094ED020A10EE101A08460EF0A5F930B18E
:1042B00094ED020AB5EEC00AF1EE10FA04D8072018
:1042C000607003206071B6E75B480069281AE063FC
:1042D000607808287ED2DFE800F0A504126092938F
:1042E000989F0120607154480069281AB0F57A7FC0
:1042F00000D29CE00020E0700220607097E05048FF
:1043000090ED090A8DED010A90ED130A8DED020A78
:1043100090ED1D0A8DED030ADDED010AB0EE600A95
:104320000020FEF763FA012804D007206070062001
:1043300060717CE004F12C0304F12002191D01A836
:1043400000F00EFC20B907206070062060716EE05E
:10435000D4ED020AB0EE600A002104F13000FEF74D
:104360008BFA20B907206070062060715FE0324848
:104370000561002030498860A0700120E0709FED49
:104380002F0A84ED030A9FED2D0A84ED040A002014
:10439000E06360710320607049E001F0E5F890F897
:1043A000380078B101F0E0F890ED0F0AB0EE408AE5
:1043B000244890ED300AF0EE400A2846B0EE480A54
:1043C00002F01CF9294604F13000FFF7A7FE50B1B6
:1043D000002000E025E0A070012020710020607125
:1043E0000620607023E014480069281A46F2A811DC
:1043F000884203D3072060700220607117E000BF7D
:10440000072060700620607111E00020A07001207C
:104410002071002060710AE002F0A8F900F028FE87
:1044200005E000BF0020044981F8230000BF00BF61
:1044300000BF00E724C701202CCB01200000C07F73
:10444000B4CA01202CC6012070B5044666484068F5
:10445000201A654988600846007808286FD2DFE88E
:1044600000F0041F425F798DA9B3204600F024FAC2
:104470005E4840780C2812D101205D4981F8240063
:1044800001F068FD38B102F0F3F820B121460120B7
:1044900000F0A4FB03E02146022000F09FFBA1E016
:1044A000204602F08BFD5348407C062802D020466F
:1044B000FFF7ACFE4F48407C072807D104204A494B
:1044C00048702146072000F089FB0BE04948407CFA
:1044D000062807D10120464981F8240021460320FF
:1044E00000F07CFB7EE001F035FD38B102F0C0F851
:1044F00020B12146012000F071FB10E001F034F8FA
:10450000407A062804D038488068B0F5FA5F06D3B0
:104510000220354948702146072000F05FFB61E02A
:104520002046FCF719FA28B1FCF75AFA10B1FCF74B
:104530003DFA28B92146072000F050FB52E042E046
:1045400029488068B0F5FA7F03D32146042000F0A3
:1045500045FB47E0012001F05DFF054625B92146F6
:10456000052000F03BFB08E0012D06D002201E498B
:1045700048702146072000F031FB33E000F0F4FFE3
:1045800090F85000032804D12146062000F026FBB5
:104590000FE001F087F828B91348806840F2DC5139
:1045A000884206D30220104948702146072000F0B7
:1045B00015FB17E001200D4908700C2048702046BB
:1045C00002F0FCFC0EE000BF02F002F800F0B2FEC8
:1045D00002F0CCF80420054908700D204870FF2037
:1045E000887100BF00BF70BDA8CA01202CC6012081
:1045F0002CCB012014C7012070B598B00646AB48FB
:1046000090F83300002831D0A848056C0020A74955
:1046100081F8330081F8310081F8320081F83400EC
:104620008864084690F8300030B10A4611790223B8
:1046300010680622FEF766FB0620FEF77DFB9C4A0B
:1046400092F824100223106A0622FEF75BFB022276
:1046500007212846FEF7A0FBFEF7B2F9002303224C
:1046600007212846FEF738FB18B070BD8F4890F838
:10467000310020B38D48856B00208C4981F83100D2
:10468000084690F8300030B10A46117900231068CE
:104690000522FEF737FB0520FEF74EFB844A92F811
:1046A00024100023106A0522FEF72CFBFCF776FA93
:1046B0000023032206212846FEF70EFBD4E77B48A1
:1046C00090F83200D8B17948C56B0020774981F85D
:1046D0003200774890F82400032807D1744A92F8F2
:1046E00024100023106A0522FEF7F6FA00F0BCFC45
:1046F0000023032205212846FEF7EEFAB4E76B48B3
:1047000090F8340058B36948456C0020674981F837
:104710003400084690F8300030B10A46117902237F
:1047200010680622FEF7EEFA0620FEF705FB604A47
:1047300092F824100223106A0622FEF7E3FA0222FE
:1047400008212846FEF728FB00F0F4F95948D0F874
:10475000DC0056498864304600F048F984E7534845
:1047600090F8300000B97FE7302250490CA8FBF7E1
:104770003DFF00204D4981F830004D4988610877A0
:104780009DF83400012810D10C9807909DF838004E
:104790008DF82000DDE90F121198CDE909120B9078
:1047A00007A8FEF757F9044663E09DF83400022895
:1047B00028D10C9802909DF838008DF80C000CA8B8
:1047C000407A8DF80D00DDE90F121198CDE9041241
:1047D00006909DED120A8DED070A0CA8007F8DF85A
:1047E00020009DED140A8DED090A9DF854008DF806
:1047F00028009DED160A8DED0B0A02A8FEF7E6F8DB
:10480000044636E09DF83400032828D10C98019026
:104810009DF838008DF80800DDE90F121198CDE9F8
:10482000031205909DED120A8DED060A9DED130A07
:104830008DED070A9DF850008DF820009DED150ABA
:104840008DED090A9DF858008DF828009DED170A96
:104850008DED0B0A01A8FEF73FF9044609E09DF82B
:104860003400042804D10EA8FEF75EF9044600E0E7
:10487000042494B99DF83400032807D19DF834101E
:10488000002303220C98FEF727FA0DE09DF8341060
:1048900002220C98FEF780FA06E09DF834102346B9
:1048A00004220C98FEF718FA00BFDDE654CB012075
:1048B000ECC901202CC6012070B505464748407858
:1048C000022821D003DC38B1012873D110E003287D
:1048D00030D00C287BD164E041480068281AB0F53C
:1048E0007A7F00D278E02946012000F0F9FA73E0DF
:1048F0003B484068281AB0F5967F00D26CE0294604
:10490000022000F0EDFA67E000240CE004EB8401E3
:10491000344A52F8310003F0DFFD10B10121324872
:104920000155601CC4B2032CF0D32946032000F0CB
:10493000D7FA51E02A484068281A642812D3284838
:10494000456000240CE004EB8401264A52F8310053
:1049500003F0C2FD10B1012123480155601CC4B20F
:10496000032CF0D32846FBF7F7FFC8B100F080FB1B
:1049700000B931E0002408E004EB8401194A52F840
:10498000310003F0C8FD601CC4B2032CF4D3022034
:1049900012490870FF20887129460C2000F0A0FA07
:1049A0001AE00F484068281A64280FD30C48456065
:1049B000002409E00BE004EB84010A4A52F83100BC
:1049C00003F0A9FD601CC4B2032CF4D304E0294613
:1049D000002000F085FA00BF00BF70BD2CC601208A
:1049E0002CCB0120B4CA01201BC701202DE9F047C0
:1049F00007464B48D0F8E050D0F8DC804948D0F862
:104A0000549002264648D0F8E000484500D04D4674
:104A10004348D0F8E000404500D045464048D0F833
:104A2000E000A84201D1BDE8F0873D48C0F8DC5065
:104A30003C4845653A48807808B903262DE0384659
:104A4000FBF78AFF08B9042627E09FED370A00F03C
:104A5000F5FB08B1052620E0FBF7DCFF08B10626D0
:104A60001BE0002416E004EB8400304901EBC00099
:104A7000D0ED090AB0EE600A2046FDF7B7FE824687
:104A8000BAF1000F02D0BAF1030F01D1072603E0FB
:104A9000601CC4B2032CE6D300BF214880F8E46058
:104AA000C0F8E0501F48856580F85C60022E00D099
:104AB000B9E7FDF735FF00201D4981F824000024E7
:104AC00018E004EB8401194A52F8310003F08DFB21
:104AD00038B90820124981F8E400124981F85C00D5
:104AE000A1E704EB8401114A52F8310003F0F3FD11
:104AF000601CC4B2032CE4D3002009498870012053
:104B00000B4981F82200002081F82100394601205C
:104B100000F0E6F900200249087000BF83E70000BA
:104B20002CC6012014C7012000008C42B4CA012009
:104B30002CCB01200848D0F8DC00401C0649C1F805
:104B4000DC00012081F8E4000846D0F8DC000349CD
:104B500048650120704700002CC6012014C70120C1
:104B6000F0B58BB005460E4617461C461A4A07CAD2
:104B7000CDE90912089015B10EB107B114B90020A2
:104B80000BB0F0BD20216846FBF78CFD08A807C8D4
:104B900087E807006A46294608A8FEF793FA2070BE
:104BA000207880B99DED070AF6EE000AB4EEE00A1F
:104BB000F1EE10FA07DC01A8FEF734FD18B101A8E8
:104BC000FBF772FF08B90020DAE701A807C886E8FA
:104BD00007000120D4E70000044C0108034A1070CC
:104BE00051600022014B9A6070470000A8CA012062
:104BF00070B58CB004460D46202104A8FBF752FD89
:104C000003208DF81000BCB194ED000A10EE101ACC
:104C100008460DF003FD78B194ED010A10EE101A6C
:104C200008460DF0FBFC38B194ED020A10EE101AA4
:104C300008460DF0F3FC60B99DF81000FCF7E6FDA6
:104C400025B1202204A92846FBF7D0FC03200CB094
:104C500070BDFCF7E5FC58B99DF81000FCF7D6FDD7
:104C600025B1202204A92846FBF7C0FC0220EEE76C
:104C70005048C07D50B99FED500A0020FCF7F4FD6C
:104C800020B90620FCF7C2FD0220E0E74B4890ED7A
:104C9000070A8DED010A90ED080A8DED020A90EDEC
:104CA000090A8DED030A04AA01A92046FEF70AFAB3
:104CB000A0B99DED0B0AF6EE000AB4EEE00AF1EEA3
:104CC00010FA0BDC05A8FEF7ADFC38B105A8FBF720
:104CD000EBFE18B105A8FDF79BFA58B99DF8100036
:104CE000FCF794FD25B1202204A92846FBF77EFCA1
:104CF0000420ACE705A802F07BFD58B99DF8100030
:104D0000FCF784FD25B1202204A92846FBF76EFCA0
:104D100002209CE70020274981F8910001F18000E2
:104D200094E80E0020300EC02C3894E80E001430A9
:104D30000EC001201F49088201F5807005A90EC927
:104D400020300EC01E4805A90EC910300EC01C38F8
:104D500005A90EC91C300EC01949D4E90103226807
:104D6000C1E913038A64002081F85400012081F80E
:104D7000550081F85600B7EE000A084680ED180A83
:104D80000020486688660120A1F86C000020487069
:104D90000849C1F8BC0004F0EDFF06463146052085
:104DA000FDF7C0F825B1202204A92846FBF71EFC18
:104DB00000204CE718120020000000002CC6012043
:104DC000A41100202DE9F0412DED068B0546884603
:104DD000B0EE408AF0EE608A1746032D0ED218EE30
:104DE000100A0DF009FC48B118EE900A0DF004FC11
:104DF00020B1F5EEC08AF1EE10FA04D80020BDEC27
:104E0000068BBDE8F08105EB8500234901EBC00668
:104E1000B0EE480A2846FDF7E9FC044624B1032C0D
:104E200002D01FB9012C01D00020E8E74146B0EEC6
:104E3000480A2846FEF784FBB0EE409A9FED170A19
:104E400028EE800AD6ED030A80EE201AB0EE41AAC1
:104E5000B0EE4A0AFBF772FDF0EE409A19EE100A26
:104E60000DF0CAFB60B119EE900A0DF0C5FB38B128
:104E7000F0EE690AB0EE490A306803F06CFC08B93C
:104E80000020BCE786ED088A054800EB850080ED30
:104E9000008A0120B3E70000B4CA012035FA8E3C35
:104EA00058C6012000B52DED048B83B0B0EE409ABA
:104EB000B0EE608AF0EE418A8DED009A8DED018AA8
:104EC000CDED028A6846FBF745FE20B9002003B00D
:104ED000BDEC048B00BD684602F08AFCF7E70000D9
:104EE00010B50B4B5A7858700A4B59600023094C87
:104EF000A360E3609FED080A234683ED050A0C28B2
:104F000004D10C2A02D0002384F8233010BD000005
:104F10002CC601202CCB012000000000F0B58FB082
:104F200004460D46202104A8FBF7BCFB03208DF8A6
:104F30001000BCB194ED000A10EE101A08460DF0F6
:104F40006DFB78B194ED010A10EE101A08460DF0D1
:104F500065FB38B194ED020A10EE101A08460DF008
:104F60005DFB60B99DF81000FCF750FC25B12022D4
:104F700004A92846FBF73AFB03200FB0F0BD0CA9AB
:104F80002046FCF76FF968B90420FCF73FFC3DB1FF
:104F900004208DF81000202204A92846FBF726FBE8
:104FA0000420EAE72D4890ED070A8DED010A90ED07
:104FB000080A8DED020A90ED090A8DED030A04AA94
:104FC00001A90CA8FEF77EF8A0B99DED0B0AF6EE3C
:104FD000000AB4EEE00AF1EE10FA0BDC05A8FEF7C9
:104FE00021FB38B105A8FBF75FFD18B105A8FDF757
:104FF0000FF958B99DF81000FCF708FC25B12022E4
:1050000004A92846FBF7F2FA0420B6E729460CA8C3
:10501000FFF7EEFD0646FEB90120114981F8910027
:1050200001F1800094E80E0014300EC020380CA965
:105030000EC920300EC0AC3894E80E0028300EC0E7
:10504000084894E80E0048300EC004F093FE07466E
:10505000394605A8FDF7F0F830468EE72CC601204A
:1050600018120020A411002010B501F099FD10BD08
:105070003EB51C4890F8240000BB00241AE004EB65
:105080008400194951F830501DB1284603F07AFACE
:1050900008B900203EBD04EB8400134901EBC000B9
:1050A00090ED090A04EB840001EBC00080ED080AD2
:1050B000601CC4B2032CE2D30120EBE70A4890ED58
:1050C000090A8DED000A90ED130A8DED010A90EDAD
:1050D0001D0A8DED020A0121B1EE040A6846FDF7B2
:1050E000CBFBD7E72CCB0120B4CA012070B52DED46
:1050F000028B04F03FFE0546284601F0E1FF4B48D5
:10510000D0ED300AB0EE600A01F0C4FA2846FFF78D
:1051100073FA4648807818B12846FFF767FC25E007
:105120002846FBF78DFC18B10220FEF7DFFB1EE0DE
:105130009FED3F0A00F082F818B10A20FEF7D6FB77
:1051400015E0FBF799FC18B10320FEF7CFFB0EE04A
:105150009FED380A00F072F828B101F007FB022138
:105160003548417503E02846FFF76EF900BF284631
:1051700001F0A6FF2D48D0ED300AB0EE600A01F034
:1051800089FA2A480078012823D1284840780C2839
:105190001FD126488078E0B924480079C8B100BF03
:1051A00000F0E2F9044601F06FFB88B901F008FC59
:1051B00070B994F8380058B11C4890ED301AF0EEF0
:1051C000410A94ED0F1AB0EE410A284601F016FA92
:1051D00000BF284601F001FA00F0C6F990ED100A70
:1051E000B0EE408A1148D0ED070AB0EE600A00F137
:1051F000B401F0EE480AA83000F044F900F0B4F928
:105200000446207A094981F8C80008466169C0F857
:10521000CA100649D4F88400C1F8D00002F014FB8B
:1052200002F014F9BDEC028B70BD00002CC6012009
:105230000000A04200008C4214C70120002117E0AA
:1052400001EB81000C4B53F830207AB1D2ED040A07
:10525000F4EEC00AF1EE10FA06DAD2ED050AF4EE29
:10526000C00AF1EE10FA01DB01207047481CC1B200
:105270000329E5D30020F8E7B4CA01202DE9F0475F
:1052800005460E4617469846DDF820A004F072FD4C
:1052900081462048C07B10B90220BDE8F0871D4937
:1052A00091F8500000F02AFA08B10120F5E7012337
:1052B00052464146022000F0D9FD04460CB120467A
:1052C000EBE7144880F8525080F8506080F8517035
:1052D000C0F8689000200F4908670846B0F85600EB
:1052E000A1F85E00002081F85B0081F85A0081F887
:1052F0005C0081F85D000846406B48670020064965
:1053000008700448B0F85610484600F007FF002027
:10531000C3E70000A4CB0120000200200021034AC3
:105320001154002202490A547047000088CC012021
:105330003CCC012010B50020FFF7F0FF0120FFF763
:10534000EDFF10BD38B54C48807828B94B4800783F
:1053500018B94A48407800B938BD4848007888B341
:105360004648407870B34548C1880089814231D1B0
:105370004248C08800904148838841880222012029
:1053800007F075FF0546012D00D1E5E7DDB93C4882
:10539000D0F88800401C3A49C1F888000846D0F887
:1053A0008C00401CC1F88C000020FFF7B7FF0120E3
:1053B000FFF7B4FF3248D0F8B000401C3049C1F8C4
:1053C000B00006E006E0002000F0D6FD012000F06D
:1053D000D3FDC1E729480078A8B12848407890B1AA
:1053E0002648C1680069814202D12448047D11E049
:1053F0002248C1680069081A002801DD012000E088
:105400000020044606E01D48007808B9012000E0AD
:1054100000200446194B9B1D33F814201B1F33F842
:1054200014100CB9012300E00223184607F0EAFE2D
:105430000546012D00D18FE7CDB91148883050F8CD
:105440002400401C0E49883141F824002046FFF713
:1054500065FF0CB9012000E00020084908750848E4
:10546000D0F8AC00401C0649C1F8AC0002E0204670
:1054700000F082FD00BF6FE7C40E002088CC012041
:10548000A4CB012070B52DED068B0446B0EE408A0A
:10549000F0EE608A0D4614B30DB394ED000A10EEE1
:1054A000101A08460DF0C3F8C8B194ED010A10EEC9
:1054B000101A08460DF0BBF888B194ED020A10EE00
:1054C000101A08460DF0B3F848B118EE100A0DF0A6
:1054D000AEF820B118EE900A0DF0A9F818B9002026
:1054E000BDEC068B70BD9FED1E0A68EE009A9FED25
:1054F0001C0A28EE80AAB0EE4A0A0DF0D9FAF3EEA3
:105500000E0A20EE209AB0EE690A0DF0D1FAD4ED21
:10551000000A49EE000AC5ED000AB0EE690A0DF076
:10552000B7FBD4ED010A49EE000AC5ED010AB0EE61
:105530004A0A0DF0ADFBD4ED020AB3EE0E1A41EEAD
:10554000000AC5ED020A074894E80E0038300EC084
:10555000443895E80E0044300EC00120C0E700003A
:1055600035FA8E3C24CC012000487047A4CB0120A2
:1055700070B52DED068B0446B0EE408AF0EE608AE1
:105580000D4614B30DB394ED000A10EE101A084640
:105590000DF04DF8C8B194ED010A10EE101A08464E
:1055A0000DF045F888B194ED020A10EE101A084685
:1055B0000DF03DF848B118EE100A0DF038F820B1A2
:1055C00018EE900A0DF033F818B90020BDEC068BE8
:1055D00070BD9FED260A68EE009A9FED240A28EE22
:1055E00080AAB0EE4A0A0DF063FAF3EE0E0A20EE3E
:1055F000209AB0EE690A0DF05BFAD4ED000A49EE8C
:10560000400AC5ED000AB0EE690A0DF041FBD4ED89
:10561000010A49EE400AC5ED010AB0EE4A0A0DF052
:1056200037FBD4ED020AB3EE0E1A41EE400AC5ED87
:10563000020A95ED000A10EE101A08460CF0F7FF6A
:1056400088B195ED010A10EE101A08460CF0EFFF34
:1056500048B195ED020A10EE101A08460CF0E7FF6B
:1056600008B10120B2E70020B0E7000035FA8E3C17
:105670000B4890F8500003280ED0094890F85000CD
:10568000052809D0064890F85000092804D004489D
:1056900090F850000A2801D1012070470020FCE753
:1056A000A4CB0120084890F85C0048B9064890F85F
:1056B00050000B2804D0044890F850000C2801D169
:1056C000012070470020FCE7A4CB01200A48C07BE2
:1056D00078B1094890F8990058B90748407C40B122
:1056E0000548C08A0449B1F85410884201D101200C
:1056F00070470020FCE70000A4CB012001460129EF
:1057000009D0022907D0042905D0062903D007298A
:1057100001D0082901D1012070470020FCE70000DA
:1057200038B514213B48FAF7BDFF9FED3B0A3948D5
:1057300080ED010A9FED380A80ED020A9FED360ADE
:1057400080ED030A9FED340A80ED040A33A000685F
:105750000090D0213248FAF7A5FF18213148FAF716
:10576000A1FF00203049087000F0E6FC044614B1A7
:1057700007F0E4FC044634B132220221684607F007
:1057800063FB00B900242CB14FF4FA7007F03EFB24
:1057900000B90024224804700CB1012000E006206A
:1057A0001F494872002081F85000012081F8510003
:1057B00040F22620A1F854004FF4FA70A1F84800F6
:1057C000888240F226211648C1824FF4FA7000F018
:1057D00009FE104880ED020A40F2262000F002FE89
:1057E0000C4880ED040A9FED0C0A0D4880ED110A6B
:1057F0009FED090A80ED0F0A9FED070A80ED100A60
:1058000004F0B8FA0649C1F8B40014B90320C1F88D
:10581000840038BD74CC01200000C07F010200006C
:10582000A4CB012088CC01200002002010B52DED72
:10583000048BB0EE408AF0EE608AB0EE419A18EE2A
:10584000100A0CF0F4FE88B118EE900A0CF0EFFE8E
:1058500060B138EE680AF0EEC00AF4EEC90AF1EE63
:1058600010FA03D80120BDEC048B10BD0020FAE72C
:1058700010B52DED028BB0EE408A044618EE100AEA
:105880000CF0D5FE78B17D2C0DD3B4F55B7F0AD238
:10589000B7EE000AF0EEC00A9FED110AF4EEC00A5E
:1058A000F1EE10FA04D29FED0F0ABDEC028B10BD91
:1058B00000EE104AB8EE400ADFED0B0A30EE600A47
:1058C000DFED0A0A60EE200A9FED091A80EE810AD8
:1058D000B7EE001AC0EE010A30EE880AE5E70000D4
:1058E000BD3786350000C07F0000FA4300007043DA
:1058F00000007A4410B52DED048BB0EE409AF0EE26
:10590000609A04464CB119EE100A0CF090FE20B1DA
:1059100019EE900A0CF08BFE18B90020BDEC048B38
:1059200010BD79EE698A9FED210AF4EEC08AF1EE8E
:1059300010FA06D39FED1E0AF4EEC08AF1EE10FABB
:1059400001DD0020EAE7B7EE000A28EE800ADFED6D
:10595000190A60EE200A9FED181A80EE810ADFED29
:10596000170A30EE208A18EE100A0CF060FE68B1BB
:105970009FED130AB4EEC08AF1EE10FA06D39FED44
:10598000110AB4EEC08AF1EE10FA01DD0020C5E77D
:10599000B6EE000A38EE000ABCEEC00A10EE100A9D
:1059A00020802188012000F026F8B7E70000B4C26B
:1059B0000000B44200007A44000070430000FA4343
:1059C0000000FA4200C05A4410B52DED028B82B09F
:1059D000B0EE408A0446204600F088FDF0EE408A92
:1059E00001A8F0EE680AB0EE480AFFF783FF02B0A4
:1059F000BDEC028B10BD0246012A07D17D2903D3DD
:105A0000B1F55B7F00D270470020FCE7022A0BD182
:105A100040F22620814205D340F27620814201D80F
:105A20000120F0E70020EEE70020ECE72DE9F0414F
:105A300005460C464448806E2E1A14B14FF4FA60A5
:105A400001E040F2DC5007463F48C07B88B93E4841
:105A5000407B60B90C203C4981F85000012081F85E
:105A60005C000420C1F884000CB106204872BDE837
:105A7000F081FFF72BFE38B12CB90A20324981F8AA
:105A8000500081F85100F2E7B6F5967F45D32846DD
:105A900000F01EFE002840D02B48B0F856002A49DE
:105AA000B1F85E10884208DB2748B0F85600264956
:105AB000B1F85E10401A80B200E00020804601205C
:105AC000214981F85B000620C1F884005CB1012007
:105AD00081F85D000846C06F401CC8672946032056
