:020000040800F2
:10000000209101203103000889E6000841DF000843
:1000100085E6000829850008592501080000000030
:100020000000000000000000000000007102000855
:10003000B595000800000000CD02000809EB00089B
:100040004B0300084B0300084B0300084B03000858
:100050004B0300084B0300084B0300084B03000848
:100060004B0300084B0300084B0300084B03000838
:10007000858B00084B0300084B0300084B03000866
:100080004B0300084B0300084B0300084B03000818
:1000900009860008198600084B0300084B03000876
:1000A0004B0300084B0300084B0300084B030008F8
:1000B0004B0300084B0300084B0300084B030008E8
:1000C0004B0300084B0300084B030008C9EA000873
:1000D0004B0300084B0300084B0300084B030008C8
:1000E0004B0300084B0300084B0300084B030008B8
:1000F0004B03000805EC00084B0300084B03000805
:100100004B0300084B0300084B0300084B03000897
:100110004B0300084B0300084B0300084B03000887
:10012000958B00084B030008A58B0008B58B0008D1
:100130004B0300084B0300084B0300084B03000867
:1001400029860008398600084B0300088DE6000860
:100150004B0300084B0300084B03000885F600081A
:100160004B0300084B0300084B0300084B03000837
:100170004B0300084B0300084B030008000000007D
:100180004B0300084B03000800F002F800F060F891
:100190000AA090E8000C82448344AAF10107DA45E2
:1001A00001D100F055F8AFF2090EBAE80F0013F0D4
:1001B000010F18BFFB1A43F0010318475854010000
:1001C000985401000A444FF0000C10F8013B13F062
:1001D000070408BF10F8014B1D1108BF10F8015BA0
:1001E000641E05D010F8016B641E01F8016BF9D193
:1001F00013F0080F1EBF10F8014BAD1C0C1B09D1EA
:100200006D1E58BF01F801CBFAD505E014F8016B5B
:1002100001F8016B6D1EF9D59142D6D370470000ED
:100220000023002400250026103A28BF78C1FBD8FF
:10023000520728BF30C148BF0B6070471FB515F08B
:1002400058F99DE8030000F047FA1FBD10B510BD36
:1002500000F0AEFA1146FFF7F1FF13F0E4FA00F0F8
:10026000CCFA03B4FFF7F2FF03BC00F0FDFA000084
:100270002C4B19680868B0E8F04F80F30988BFF389
:100280006F8F4FF0000080F311887047000000006E
:1002900008480068006880F308884FF0000080F389
:1002A000148862B661B6BFF34F8FBFF36F8F00DF64
:1002B00000BF00BF08ED00E0DFF80C00016841F46A
:1002C00070010160704700BF88ED00E0EFF3098026
:1002D000BFF36F8F134B1A681EF0100F08BF20ED8D
:1002E000108A20E9F04F106009B44FF0500080F3FD
:1002F0001188BFF34F8FBFF36F8F14F01BFB4FF0CC
:10030000000080F3118809BC19680868B0E8F04F54
:100310001EF0100F08BFB0EC108A80F30988BFF3FD
:100320006F8F704734C20120EFF3058070470000E3
:100330000948804709480047FEE7FEE7FEE7FEE779
:10034000FEE7FEE7FEE7FEE7FEE7FEE704480549B5
:10035000054A064B70470000F1EB000889010008D0
:100360002091002020910120201101202011012046
:1003700070B5064600F094F9056806F10B0020F010
:100380000704B4429CBF002070BD2B466A68BAB116
:100390001068A04210D304F1080188423CBF5068A5
:1003A000586007D35168101941601168091B01603A
:1003B00058601460101D70BD13465268002AE7D1C2
:1003C0002146284600F074F90028DED170BD70B5D2
:1003D0000446051F00F064F90068002C14BF44684F
:1003E00070BD002C18BFAC423CBF20466468F8D3F7
:1003F00001680A18AA4218BF456003D12A68054659
:100400001144016028684119A1421CBF6C6070BD95
:100410006168696021680844286070BD53EA020C75
:1004200000F069802DE9F04B4FF00006002B1FBF54
:10043000B3FA83F503FA05F424FA05F65E4012BF19
:100440001643B2FA82F502FA05F4C5F120051EBF83
:1004500022FA05FC44EA0C04203556EA044C4FEA23
:10046000144418BF641C4FF000084FF0000990427C
:1004700071EB030C39D3002919BFB1FA81F701FAE6
:1004800007F6B0FA80F700FA07F6C7F120071EBF9B
:1004900020FA07FC46EA0C062037B6FBF4FCA7EB73
:1004A0000507103F07F01F0BCBF120060CFA0BFBE2
:1004B0002CFA06F644BFB3460026202FA4BF5E46A2
:1004C0004FF0000B5BEA060C08BF4FF0010B19EB75
:1004D0000B09ABFB027C48EB0608C01B06FB02CCF9
:1004E0000BFB03CC71EB0C01C1E70B460246414606
:1004F0004846BDE8F08B13B54FF000004FF0000107
:10050000AFF30080BDE81C407047032A40F2308002
:1005100010F0030C00F0158011F8013BBCF1020F44
:10052000624498BF11F801CB00F8013B38BF11F8C5
:10053000013BA2F1040298BF00F801CB38BF00F8DC
:10054000013B11F0030300F02580083AC0F0088059
:1005500051F8043B083A51F804CBA0E80810F5E73D
:10056000121D5CBF51F8043B40F8043BAFF3008020
:10057000D20724BF11F8013B11F801CB48BF11F895
:10058000012B24BF00F8013B00F801CB48BF00F865
:10059000012B704710B5203AC0F00B80B1E818501D
:1005A000203AA0E81850B1E81850A0E81850BFF45D
:1005B000F5AF5FEA027C24BFB1E81850A0E81850FC
:1005C00044BF18C918C0BDE810405FEA827C24BF50
:1005D00051F8043B40F8043B08BF7047D20728BFDE
:1005E00031F8023B48BF11F8012B28BF20F8023B2D
:1005F00048BF00F8012B704702F0FF0343EA0322D3
:1006000042EA024200F002B84FF000020429C0F0B2
:10061000128010F0030C00F01B80CCF1040CBCF134
:10062000020F18BF00F8012BA8BF20F8022BA1EB86
:100630000C0100F00DB85FEAC17C24BF00F8012B6B
:1006400000F8012B48BF00F8012B70474FF0000263
:1006500000B5134694469646203922BFA0E80C50B8
:10066000A0E80C50B1F12001BFF4F7AF090728BF93
:10067000A0E80C5048BF0CC05DF804EB890028BF0F
:1006800040F8042B08BF704748BF20F8022B11F038
:10069000804F18BF00F8012B7047704770477047B4
:1006A00000487047C4D001207047704770477047BA
:1006B00038B504460A4600206946AFF3008000289A
:1006C00008BF38BD02460099204600F04FF80120CF
:1006D00038BD012000F064B8F8B5AFF300800546DE
:1006E00000200C46102000BF0646A819A0420DD9D4
:1006F000324669460020AFF30080070008BF00F0D3
:100700004FF80098A04218BF0546C419FFF7C8FF6C
:1007100005600746F01D20F007004619284600F046
:100720000AF8B44208BFF8BDA21B31463868BDE8DC
:10073000F84000F01BB800210160C0E901107047CB
:100740001020704710B500F00DF8006810BD10B50E
:10075000044600F007F8046010BD00000048704730
:10076000BCD0012000487047BCD00120034640683F
:100770008C46002818BF88423CBF03464068F8D327
:1007800018681844884207D00CF1030020F00700D5
:10079000001D411A521A0146081D0A60FFF717BED4
:1007A00010B500F039F8BDE8104000F02FB87047E0
:1007B0007546FFF7D3FFAE4605006946534620F065
:1007C0000700854618B020B5FFF7C0FDBDE8204002
:1007D0004FF000064FF000074FF000084FF0000BFD
:1007E00021F00701AC46ACE8C009ACE8C009ACE8B0
:1007F000C009ACE8C0098D46704710B50446AFF398
:1008000000802046BDE81040FFF72BBD002801D036
:1008100000F02AB87047000010B5012805D000216B
:1008200003A000F027F8012010BD09A1F8E700009F
:1008300053494752544D454D3A204F7574206F66C9
:100840002068656170206D656D6F72790000000031
:100850003A2048656170206D656D6F727920636F15
:10086000727275707465640001491820ABBEFEE7B2
:100870002600020070B505460C460A2000E06D1CFB
:1008800000F011F835B128780028F8D102E0641C96
:1008900000F009F814B120780028F8D1BDE87040C4
:1008A0000A20AFF3008008B569468DF800000320E8
:1008B000ABBE08BD094948700E21084A11700021DD
:1008C00082F85610064A517591751175118202F120
:1008D000800100228A66CA660A677047F40E00200B
:1008E000680F0020F0EE400AF5EEC00AF1EE10FAB3
:1008F00002D2B1EE600A7047B0EE600AFBE700007A
:1009000070B5064600251EE005EB8500104951F83C
:100910003040A4B13146204608F030FC78B194ED67
:10092000010A10EE101A084611F024FF38B194EDB8
:10093000020A10EE101A084611F01CFF08B9002038
:1009400070BD681CC5B2032DDED30120F8E700009E
:1009500008CC0120002110E001EB8100094A52F887
:10096000300030B101EB810052F8300090F84500C2
:1009700008B900207047481CC1B20329ECD30120FC
:10098000F8E7000008CC0120002110E001EB810015
:10099000094A52F8300030B101EB810052F83000C2
:1009A00090F8440008B900207047481CC1B20329E0
:1009B000ECD30120F8E7000008CC012010B500249A
:1009C0000BE004EB8401074A52F8310008F03DFBCC
:1009D00008B1012010BD601CC4B2032CF1D300206B
:1009E000F8E7000008CC012070B50646002410E0AE
:1009F00004EB8400094951F8305045B1287E30B1EC
:100A00003146284608F0BAFB08B9012070BD601CC9
:100A1000C4B2032CECD30020F8E7000008CC01207E
:100A200000210FE001EB8100084B53F830203AB170
:100A300092F84A0010B9506D052801D30120704783
:100A4000481CC1B20329EDD30020F8E708CC0120EF
:100A500010B50446204602F0A5FD08B9002010BDDF
:100A600094ED000ADFED1B0AB4EEE00AF1EE10FA95
:100A70002EDB94ED000ADFED180AB4EEE00AF1EE89
:100A800010FA25D894ED010ADFED140AB4EEE00A5D
:100A9000F1EE10FA1CDB94ED010ADFED110AB4EE61
:100AA000E00AF1EE10FA13D894ED020ADFED0D0A18
:100AB000B4EEE00AF1EE10FA0ADB94ED020ADFED83
:100AC0000A0AB4EEE00AF1EE10FA01D80120C6E7F6
:100AD0000020C4E70000B4C20000B44200000C4291
:100AE0000000344300003EC300000CC2014602294E
:100AF00001DC012070470020FCE7000070B50546CE
:100B00000F480078012800D100E0002004461CB9FD
:100B10000B480078022801D1012000E000200446A3
:100B200054B1074840780C2806D10548807818B998
:100B3000284602F037FD08B9002070BD0120FCE70F
:100B400048C70120012070477047000010B50448D5
:100B5000807800B110BD05F075FB00BFFAE700001A
:100B600048C7012070B52DED048B86B00546644A58
:100B700007CA03AB07C39FED630AB0EE408A15B105
:100B8000B5F5C07F05D99FED5F0A06B0BDEC048BBB
:100B900070BD9FED5C0A5C4880EDC50A01247EE0D3
:100BA0009FED580AF0EE408A04EB4401574800EBF1
:100BB0008100D0ED000A601E00EB4001534800EBBD
:100BC000810090ED001A70EEC10AB0EE600A01F0EB
:100BD0004FFCB0EE409A12F01CFE8DED000A04EBC3
:100BE00044014A4800EB8100D0ED010A601E00EB91
:100BF0004001464800EB810090ED011A70EEC10AF9
:100C0000B0EE600A12F005FE8DED010A04EB44011E
:100C10003E4800EB8100D0ED020A601E00EB40016F
:100C20003A4800EB810090ED021A70EEC10AB0EE76
:100C3000600A12F0EEFD8DED020A002617E068460C
:100C400000EB860090ED000A03A800EB8600D0EDD3
:100C5000000A80EE201AB0EE419AF0EE490AB0EE9A
:100C6000680A12F095F8F0EE408A701CC6B2032EA6
:100C7000E5D39FED270AF4EEC08AF1EE10FA03D215
:100C80009FED230AF0EE408A38EE280AB0EE408A43
:100C9000204800EB840080ED008A601C84B2AC42E6
:100CA000FFF67EAF012D06D09FED190AB4EEC08A83
:100CB000F1EE10FA07D29FED130A134880EDC50A32
:100CC0009FED100A61E701200DE0124901EB800160
:100CD00091ED000AC0EE080A0E4901EB8001C1ED5A
:100CE000000A411C88B2A842EFDBB7EE000A681E7A
:100CF000084901EB800080ED000AB0EE480A44E7A5
:100D0000A855010800000000681F00207C1000208A
:100D1000BD3786357C220020F0EE401AF4EEE01A52
:100D2000F1EE10FA02D2B0EE600A7047F4EEC11A8A
:100D3000F1EE10FA02DDB0EE410AF6E7B0EE610A1C
:100D4000F3E7000070B52DED0A8B8CB0B0EE408A51
:100D5000F0EE609AB0EE41AA06469FEDD70AF0EE9B
:100D6000408A002009900A900B903046FFF7FAFE67
:100D7000F0EE40AAD14AD2E900109268CDE907020C
:100D80000691CE4A0C3207CA03AB07C39FEDCC0ACB
:100D9000B4EEC08AF1EE10FA1EDDB7EE0E0A28EEB0
:100DA000000AC0EE290AB0EE609A9FEDC60A28EE4E
:100DB000000AC0EE0A0AF0EE60BAB0EE6B0A12F05A
:100DC000F7F8B0EE40BAF0EE4B0AB0EE490A11F077
:100DD000DFFFF0EE408A00BFB7EE0E0A2AEE800A6F
:100DE000F0EE400AB0EE680A11F0D2FFF0EE408A51
:100DF000012456E004EB4401B34800EB8100D0ED40
:100E0000000A601E00EB4001AF4800EB810090ED4E
:100E1000001A70EEC10AB0EE600A01F029FBB0EED4
:100E2000409A12F0F6FCDDED090A30EE200A8DED55
:100E3000090A04EB4401A44800EB8100D0ED010A4B
:100E4000601E00EB4001A04800EB810090ED011A0C
:100E500070EEC10AB0EE600A12F0DBFCDDED0A0AAA
:100E600030EE200A8DED0A0A04EB4401964800EBAF
:100E70008100D0ED020A601E00EB4001924800EBB9
:100E8000810090ED021A70EEC10AB0EE600A12F015
:100E9000C0FCDDED0B0A30EE200A8DED0B0A601C64
:100EA00084B2B442A6DB00243BE009A800EB840036
:100EB00090ED000AF7EE0E0A20EE200A06A800EBDD
:100EC0008400D0ED000A80EE201AB0EE41BA09A8E5
:100ED00000EB840090ED000ADFED7A0A20EE200A94
:100EE00003A800EB8400D0ED000A80EE201AF0EE9B
:100EF00041BAB0EE6B0A12F05BF8B0EE409AF0EE39
:100F0000490AB0EE4B0A11F043FFF0EE40BAF0EEA2
:100F10006B0AB0EE680A11F03BFFF0EE408A601CED
:100F2000C4B2032CC1D30124AAE0684800EB8400BA
:100F300090ED000A601E654901EB8000D0ED000ACB
:100F400030EE600AB0EE409A9FED610AB4EEC09AAE
:100F5000F1EE10FA00D291E004EB44015A4800EBA4
:100F60008100D0ED000A601E00EB4001564800EB06
:100F7000810090ED001A70EEC10AB0EE600A01F037
:100F800077FAB0EE40BA12F044FC8DED000A04EBA3
:100F900044014D4800EB8100D0ED010A601E00EBDA
:100FA0004001494800EB810090ED011A70EEC10A42
:100FB000B0EE600A12F02DFC8DED010A04EB440145
:100FC000414800EB8100D0ED020A601E00EB4001B9
:100FD0003D4800EB810090ED021A70EEC10AB0EEC0
:100FE000600A12F016FC8DED020A002543E0684607
:100FF00000EB850090ED000AF7EE0E0A20EE200AC5
:1010000006A800EB8500D0ED000A60EE890A80EEAC
:10101000201AB0EE41BA684600EB850090ED000A58
:10102000DFED280A20EE200AF7EE000A20EE200A63
:1010300003A800EB8500D0ED000A60EE890A80EE7F
:10104000201AB0EE41CAB0EE4C0A11F0B1FFF0EE3A
:1010500040BAF0EE6B0AB0EE4B0A11F099FEB0EE1A
:1010600040CAF0EE4C0AB0EE680A11F091FEF0EEC4
:10107000408A681CC5B2032DB9D300BF601C84B27E
:10108000B442FFF652AF9FED130AF4EEC08AF1EEC0
:1010900010FA03D29FED0F0AF0EE408ADFED0E0A40
:1010A0009FED0E0A08EEA00ABCEEC00A10EE100A70
:1010B0000CB0BDEC0A8B70BD00000000B4550108F7
:1010C0000AD7233C83C0B8407C1000207C2200203B
:1010D000BD3786356F12833A00007A4477BE7F3F72
:1010E0002DE9F0412DED068BF0EE409A064667485B
:1010F000008A01280AD86648D0E90521C069C6E9F6
:101100000021B060BDEC068BBDE8F081B7EE001A9F
:10111000DFED600AB0EE690AFFF7FEFDB0EE408A2F
:10112000B7EE000AB4EEC08AF1EE10FA07DB5748BA
:10113000008A401E84B22546DFED568A3FE000203B
:10114000524A128A521E91B211E00B1A00EB53035D
:101150009AB2514B03EB820393ED000AB4EEC80A36
:10116000F1EE10FA01D8104600E0114600BF421C13
:1011700092B28A42E9DB04460D46474A02EB8502F9
:1011800092ED000A444A02EB8402D2ED000A30EEEE
:10119000609A9FED420AB4EEC09AF1EE10FA09DDB2
:1011A0003D4A02EB840292ED000A78EE400A80EE9E
:1011B000890A01E09FED370AF0EE408A00BF05EB97
:1011C00045013348143000EB8100D0ED000A04EBF8
:1011D00044012F48143000EB810090ED001A70EEAE
:1011E000C10AB0EE600A01F043F904EB440128485B
:1011F000143000EB8100D0ED000A48EE800AB0EE1A
:1012000060AAB0EE4A0A01F033F986ED000A05EB58
:1012100045011F48143000EB810090ED010A04EBFA
:1012200044011B48143000EB8100D0ED010A70EE40
:10123000600A04EB44011648143000EB810090ED85
:10124000010A08EEA00A86ED010A05EB45011048E7
:10125000143000EB810090ED020A04EB44010C48CD
:10126000143000EB8100D0ED020A70EE600A04EB4E
:1012700044010748143000EB810090ED020A08EEAB
:10128000A00A86ED020A00BF3CE70000680F0020BC
:1012900068100020000000007C220020BD37863549
:1012A00070B52DED028B05460C462B48D0F8B000EA
:1012B00078B12948D0F8AC00281A00EE100AF8EEF0
:1012C000400A254890ED2C0AB8EE401A80EE810ABB
:1012D00001E0B7EE000AB0EE408AB7EE001ADFED8B
:1012E0001F0AB0EE480AFFF717FDB0EE408A1A4811
:1012F000D0ED340A90ED311A70EEC10AB0EE600AFA
:1013000001F0B6F81448D0ED310A48EE000AF0EECC
:10131000608AB0EE680A01F0ABF884ED000A0E486E
:1013200090ED350AD0ED320A70EE600A90ED320A87
:1013300008EE200A84ED010A90ED360AD0ED330A5A
:1013400070EE600A90ED330A08EE200A84ED020A7E
:10135000BDEC028B70BD0000680F00200000000093
:1013600070B52DED028B04460D46D5ED000A94EDC7
:10137000001A70EEC10AB0EE600A01F079F8B0EE22
:10138000408A12F046FAF1EE040AB4EEE00AF1EEF9
:1013900010FA25D8D5ED010A94ED011A70EEC10AB4
:1013A000B0EE600A12F035FAF0EE000AB4EEE00A90
:1013B000F1EE10FA14D8D5ED020A94ED021A70EE8F
:1013C000C10AB0EE600A12F024FAF0EE000AB4EEA0
:1013D000E00AF1EE10FA03D80120BDEC028B70BDDB
:1013E0000020FAE710B52DED028B0446B0EE408ADE
:1013F000204601F025F8F0EE408AF4EEC88AF1EEBE
:1014000010FA1DDD9FED100AF4EEC08AF1EE10FA1D
:1014100016DDC8EE280AB0EE600AD4ED000A60EED0
:10142000800AC4ED000AD4ED010A60EE800AC4ED22
:10143000010AD4ED020A60EE800AC4ED020A00BF80
:10144000BDEC028B10BD0000BD3786351648007814
:10145000012800D100E00020014619B912480078A7
:10146000022801D1012000E0002001460E48C0788A
:10147000C0B10D480079A8B10B48407990B10A4835
:1014800040780C280ED169B10748807850B90648D9
:10149000C07938B10448007A20B10348407A08B1D5
:1014A000012070470020FCE748C701201249D1ED18
:1014B000090A91ED061A30EEC11AD1ED060A40EE86
:1014C000010AC0ED000AD1ED0A0A91ED071A30EECB
:1014D000C11AD1ED070A40EE010AC0ED010AD1EDB3
:1014E0000B0A91ED081A30EEC11AD1ED080A40EE50
:1014F000010AC0ED020A7047680F002070B52DED9B
:10150000048B04460D4695ED000AD4ED000A30EE3A
:10151000600AB0EE409A95ED010AD4ED010A30EE72
:10152000600AB0EE408A95ED020AD4ED020A30EE70
:10153000600AF0EE408A69EE090A48EE080A48EEB1
:10154000A80AB0EE600A11F033FDBDEC048B70BD4B
:1015500010B52DED048BF0EE408AB7EE001ADFEDEA
:101560000F0AB0EE680AFFF7D7FBB0EE408A28EE0C
:10157000080AB0EE409A29EE080AF0EE409ABAEE58
:101580000E0AF1EE080A00EE880AF2EE040A48EEAE
:10159000000A20EEA90ABDEC048B10BD000000007B
:1015A00010B52DED028BF0EE408AB7EE001ADFED9C
:1015B0000E0AB0EE680AFFF7AFFBB0EE408A9FED6F
:1015C0000B0A28EE000AF7EE000A70EEC80A60EE79
:1015D000200AB7EE000AB0EE001A01EE480A20EE2B
:1015E000800ABDEC028B10BD0000000000007042BC
:1015F00010B52DED048BB0EE409AB7EE001ADFED7A
:101600000D0AB0EE490AFFF787FBB0EE408AB7EE4D
:10161000000A30EE480AF0EE408AB3EE0E0A28EED9
:10162000000A20EE080A20EE280A20EE280ABDEC67
:10163000048B10BD00000000064981F85400002111
:10164000044A82F8551082F856101146C96D491C9B
:10165000D1657047F40E00200C48002101634163FE
:101660008163C163016441646030018081706038CE
:1016700041668166C166064881818173A0F58070EC
:10168000A0F80F1180F811117047000018CA01204E
:101690006810002070B52DED048B84B005465B48C2
:1016A00040682C1A5948C068A04201D85748C468FD
:1016B0005648C06858B1554890ED030AF8EE400A04
:1016C00000EE104AB8EE401A81EE200A01E0B7EEB3
:1016D000000AF0EE408AB0EE680AFFF739FFB0EE7C
:1016E000408A4A48C07D02281FD14848007D28B161
:1016F0004648D0F8A800281A022811D3B0EE480AAC
:10170000284600F007FB58B94048007D40B93F48E3
:101710004068401C3D49486004B0BDEC048B70BD7E
:1017200001A92846FFF7BCFD04E001A8B0EE480A75
:10173000FFF7D6FC01A805F0C9FCA0B93348C07C6E
:1017400038B93348C06D401C3149C86501202F4964
:10175000C87400202E4981F856002C484068401C6F
:101760002A494860D8E7294890F88D00012806D119
:1017700001A800F0A9FAB0EE409A04F069FB00203D
:101780002249C8740120224981F85600084684661F
:1017900080ED188A01A90EC910300EC01B48C06820
:1017A000A04230D81948008A401E86B206EB460295
:1017B000184901EB820005F089FC144890F88D006F
:1017C00001280AD106EB4602124901EB820000F023
:1017D0007BFAB0EE409A04F03BFB06EB46010D4865
:1017E00000EB81000A49D0E900238068C1E90423A5
:1017F0008861B7EE000A084680ED180A29460620DF
:1018000000F014FA00BF00BF86E70000680F002058
:10181000F40E00207C10002070B52DED048B9EB0DE
:1018200004460D4600EE105AB8EE400ADFEDFA0A03
:1018300020EE200AB0EE408AF8480146D1E91A327B
:10184000096FC0E91D32C1678038D0F8B400201A92
:1018500064280CD90120F14980398875EF480021AE
:101860008166C16601671EB0BDEC048B70BD0020AF
:10187000EA4980398875B5EEC08AF1EE10FA00D8D1
:10188000F1E7E648803890ED1A0AD0ED0C0A30EE08
:10189000600A8DED0D0A90ED1B0AD0ED0D0A30EEB9
:1018A000600A8DED0E0A90ED1C0AD0ED0E0A30EEA6
:1018B000600A8DED0F0A0DA800F0C2FDF0EE408A1F
:1018C000D6488038D0ED1E0AB0EE001A60EE810ACC
:1018D00060EEA80AB0EE600A11F06AFBB0EE409A22
:1018E000CE488038D0ED1D0AB0EE600AF0EE490A0D
:1018F00011F072FAF0EE409A0DA807C80AAB07C3C0
:10190000B0EE690A0AA800F09BF99DED0A0AC348E7
:101910008038D0ED3A0A30EE600AC0EE080ACDED0C
:10192000070A9DED0B0AD0ED3B0A30EE600AC0EECF
:10193000080ACDED080A9DED0C0AD0ED3C0A30EE08
:10194000600AC0EE080ACDED090AD0ED1E0AB0EE1D
:10195000600A07A8FFF746FD002014E0AF49683190
:1019600001EB800191ED000A07A901EB8001D1EDA7
:10197000000A00EE880AA949683101EB800181ED77
:10198000000A411CC8B20328E8D3A4488038D0ED2F
:101990001D0AB0EE600AE830FFF724FD9F4880384A
:1019A00090ED3A0A20EE080A8DED040A90ED3B0A0C
:1019B00020EE080A8DED050A90ED3C0A20EE080A9B
:1019C0008DED060A9FED960AF4EEC08AF1EE10FA4C
:1019D00018D99DED040ADDED0D0A20EE200ADDED9B
:1019E000050A9DED0E1A00EE810ADDED060A9DED59
:1019F0000F1A00EE810A68EEA80AB4EEE00AF1EED2
:101A000010FA0EDB854980390846D0E91A23006FA9
:101A1000C1E90C238863814800218166C1660167A2
:101A200019E07E48803890ED0C0ADDED040A30EEB6
:101A3000200A80ED0C0A90ED0D0ADDED050A30EE6E
:101A4000200A80ED0D0A90ED0E0ADDED060A30EE5B
:101A5000200A80ED0E0A714A803A303207CA13AB71
:101A600007C36E48803890F88C00012817D110A960
:101A700013A803F029FFB0B9684800218166C16648
:101A800001670020674981F85600012081F857005E
:101A900081F858000846C06D401CC865E3E613A8ED
:101AA00007C810AB07C35D488038D0F8A800201ADB
:101AB00002286CD30026202116A8FEF7C7FD16AA1F
:101AC0005649503110A801F0BDFA08B1012629E0AD
:101AD0009DED1D0AF6EE000AB4EEE00AF1EE10FAF2
:101AE00001DD02261EE017A801F05CFD08B90326FF
:101AF00018E017A8FEF7ACFF08B9042612E0474823
:101B0000803890F88C00012805D117A800F02AFA37
:101B100008B9042606E017A940485030FFF720FC1A
:101B200000B9052696BB3D480146D1E91423896DCD
:101B3000C0E91123C16417A90EC950300EC0DC38AA
:101B400013A90EC93C300EC0483890F88C0001280B
:101B500005D13248803813A90EC954300EC02F4821
:101B60008038C0F8AC4002202C498039C1F8B00060
:101B70000846C0F8A84000202A4981F854000120F6
:101B800081F85600002081F857001CE000E01BE0BF
:101B9000224800218166C1660167803803463C33D4
:101BA0000ECB30300EC09DF858001E4981F854000D
:101BB000002081F85600084680F8576080F8586089
:101BC000C06D401CC86500BF01A92046FFF768FB37
:101BD00001A805F07BFA88B1124801A90EC910309E
:101BE0000EC00E48803890F88C00012806D101A85C
:101BF00000F06AF8B0EE409A04F02AF907488038FD
:101C00004068201A074988669FED070A084680ED5C
:101C1000180A00BF27E600006F12833AE80F002081
:101C2000CDCC4C3DF40E002000000000024A1070A4
:101C3000024A116070470000F40E0020680F002077
:101C400010B52DED028B0446B0EE408A204600F020
:101C5000F7FBF0EE408A9FED1A0AF4EEC08AF1EE2F
:101C600010FA04D9B5EEC08AF1EE10FA0ED89FED45
:101C7000150A84ED000A9FED130A84ED010A9FED19
:101C8000110A84ED020ABDEC028B10BD88EE280A11
:101C9000D4ED000A20EE200A84ED000A88EE280A1E
:101CA000D4ED010A20EE200A84ED010A88EE280A0C
:101CB000D4ED020A20EE200A84ED020A00BFE2E71A
:101CC000BD3786350000000010B504467CB194EDA8
:101CD000010A10EE101A084610F05EFD38B194EDBE
:101CE000020A10EE101A084610F056FD10B99FEDCA
:101CF000070A10BD94ED010AD4ED020A9FED041A03
:101D000071EE600A30EE200AF3E700000000C07FA9
:101D1000000034C310B52DED028B8EB00446B0EE3A
:101D2000408A0BA8B0EE480AFFF7C0FB454890F880
:101D30008D0001280CD10BA90BA803F0C5FD38B903
:101D40000420FFF779FC00200EB0BDEC028B10BD23
:101D50003C48007D88B13B488030D0E91412806D4A
:101D6000CDE900120290374880300146D1E91423B2
:101D7000896DC0E91123C1640AE0334A103207CAF1
:101D80008DE807002F4880309DE80E0044300EC0DB
:101D9000202103A8FEF75AFC03AA69460BA801F00C
:101DA00051F9F0B99DED0A0AF6EE000AB4EEE00A28
:101DB000F1EE10FA15DC04A801F0F4FB88B104A8D8
:101DC000FEF746FE68B11F4890F88D00012803D148
:101DD00004A800F0C7F820B104A96846FFF7C0FACC
:101DE00098B99DF80C00184981F85400002081F83A
:101DF00056001448C07C30B90846C06D401CC86508
:101E000001201049C87400209EE70E48803004A9C4
:101E10000EC950300EC0DC38C0F8AC400220094971
:101E2000C1F8B0000846C0F8A8400120087500209D
:101E3000C874054981F85400012081F8560000BF9C
:101E400082E70000680F0020F40E00202DE9F04723
:101E50002DED028B04460E46B0EE408AF0EE608A0D
:101E6000174698460A9D3B48008A401E1FFA80F993
:101E7000384894E80E0024300EC0303890F88D00B9
:101E800001280AD13348803094E80E0010300EC08B
:101E90000146204603F018FD0AE02E48803094E801
:101EA0000E001C300EC0283894E80E0010300EC012
:101EB0002848C660456080ED2E8AC0ED2F8AC77520
:101EC00000202449C87408750846C0F8A850C0F816
:101ED000AC500220C1F8B00000204875887521463A
:101EE0001C481830FFF70AFB1A4880ED300A1A4ADE
:101EF00000F58070D0E90531C069C2E90431906114
:101F000009EB4901154800EB810310460ECB1C304C
:101F10000EC0283894E80E0048300EC000200E494C
:101F200081F85400012081F8550081F856009FED9A
:101F30000C0A084680ED180A002088664870FFF7F2
:101F40008BFB29464046FFF771FEBDEC028BBDE8D6
:101F5000F0870000680F0020F40E00207C100020A5
:101F60000000000010B52DED028B04462046FFF75F
:101F7000ABFEB0EE408AB0EE480A03F049FEF0EE48
:101F8000408AB0EE680A03F073FEBDEC028B10BD10
:101F900070B52DED048B84B006460D46EE4890EDED
:101FA000030AB8EE400ADFEDED0A20EE200AB0EE9B
:101FB000408AB5EEC08AF1EE10FA0CDDE84890EDEB
:101FC0001A0AF8EE400AE44890ED030AB8EE401A07
:101FD00080EE810A01E0B7EE000AF0EE409AE14897
:101FE000E14BD3E907215B6AC0E9011302600246B5
:101FF000DB4B10330BCB0C320BC2DA48D84B1C3303
:102000000ECB18300EC02438D74B54330ECB48308B
:102010000EC05438D44B60330ECB54300EC0002465
:10202000CFE094B9CE48103000EB8400D0ED000A28
:10203000CD481C3000EB840090ED001A70EEC10A10
:10204000B0EE600A00F014FA0DE0C548103000EB65
:10205000840090ED000AC4481C3000EB8400D0EDF1
:10206000000A30EE600AB0EE409A94B9BC481C30C9
:1020700000EB8400D0ED000ABB481C3000EB84006C
:1020800090ED001A70EEC10AB0EE600A00F0F0F9AF
:102090000DE0B3481C3000EB840090ED000AB2481C
:1020A0001C3000EB8400D0ED000A30EE600AF0EE48
:1020B000408AAC48243000EB840080ED009AB0EEFA
:1020C000490A11F0A6FBA748303000EB8400D0EDA0
:1020D000000AB4EEE00AF1EE10FA09DDB0EE490AAA
:1020E00011F097FB9F48303000EB840080ED000A30
:1020F0009E48005D98B9B0EE680A11F08AFBDFEDEA
:102100009C0AB4EEE00AF1EE10FA08DD97480C38AC
:1021100000EB8400C0ED008A0121944801559348EA
:10212000005D80B191480C3800EB840090ED000A0E
:1021300020EE280AB5EEC00AF1EE10FA03D2012112
:102140008A48C01C01558948C01C005DC0B1B0EE72
:10215000680A11F05EFB83483C3000EB8400D0ED50
:10216000000AB4EEE00AF1EE10FA09DDB0EE680AFA
:1021700011F04FFB7B483C3000EB840080ED000AFF
:10218000B0EE490A11F045FBF1EE040AB4EEE00AA4
:10219000F1EE10FA0CDD0121724860300155001D8E
:1021A00050F8240041196F48643040F8241006E0CC
:1021B00000216C4860300155001D40F82410601C5F
:1021C000C4B2032CFFF42DAF6348407DE8B300EEAA
:1021D000105AB8EE400ADFED610A20EE200AF0EE58
:1021E000408A5D48D0ED3A0A60EEA00A90ED3B1AB5
:1021F000D0ED3B1A41EE210A90ED3C1AD0ED3C1A8D
:1022000041EE210AB0EE600A10F0D2FE554880ED92
:102210001C0A514890ED3A0AD0ED3D0A30EE600AB2
:102220008DED010A90ED3B0AD0ED3E0A30EE600ADA
:102230008DED020A90ED3C0AD0ED3F0A30EE600AC7
:102240008DED030AF5EEC08A00E021E0F1EE10FA10
:1022500018DDDDED010A60EEA00A9DED021ADDED4C
:10226000021A41EE210A9DED031ADDED031A41EE3B
:10227000210AB0EE600A10F09BFEF0EE400A80EEFC
:10228000A80A01E09FED3B0A364880ED1D0A31E0C7
:10229000B5EEC08AF1EE10FA0BDDB0EE690AFFF779
:1022A000A7F92D48D0ED300A60EE200A80EE880AAA
:1022B00001E09FED300A2B4880ED1C0AB5EEC08A84
:1022C000F1EE10FA11DDB0EE690AFFF769F9F0EEF0
:1022D000408A11F09EFA2048D0ED300A60EE200AC4
:1022E00028EE081A80EE810A01E09FED220A1D48BF
:1022F00080ED1D0A1A48806E1A4988671648C06822
:10230000C86717480078052803D113480068301AB9
:1023100000E000201349C1F880000F48407D81F89B
:1023200088000D48807D81F889000B48006EC1F857
:102330008C000948407D20B10748D0F8B400301A1D
:1023400000E000200749C1F88400084604F07CFB47
:1023500004B0BDEC048B70BD680F00206F12833A8F
:10236000F40E002018CA012048C701207410002074
:102370000AD7233C0000000010B52E482E4BD3E9AD
:1023800007215B6AC0E902134260002429E094B986
:1023900028481C3000EB8400D0ED000A26481C3091
:1023A00000EB840090ED001A70EEC10AB0EE600AF6
:1023B00000F05EF80DE01F481C3000EB840090ED4B
:1023C000000A1D481C3000EB8400D0ED000A30EEFE
:1023D000600A1848283000EB840080ED000A601C79
:1023E000C4B2032CD3D3134913488030D0E90A2355
:1023F000006BC1E90F2348644831A1F10C00FFF7DD
:102400007DF80C4880ED1C0A0B49B1F80720828644
:10241000497A80F83610373007494A890280097BAB
:1024200081700648C068034948660448008AA1F8DC
:102430006C0010BDF40E002048C70120680F00207A
:1024400010B50446D4ED000A60EEA00A94ED011A1E
:10245000D4ED011A41EE210A94ED021AD4ED021ACC
:1024600041EE210AB0EE600A10F0A2FD10BD00009E
:1024700005E0DFED0E0A70EE600AB0EE600ADFEDF7
:102480000C0AB4EEE00AF1EE10FAF2DC05E0DFED42
:10249000070A70EE200AB0EE600ADFED060AB4EE1D
:1024A000E00AF1EE10FAF2D3704700000000B443E6
:1024B00000003443000034C370B52DED028B054697
:1024C000B0EE408A05EB85001C4901EBC0049FED8E
:1024D0001C0AF0EE408A18EE100A10F04BF918B9F9
:1024E0000020BDEC028B70BD94ED040A30EE680A4A
:1024F000B4EEC80AF1EE10FA0AD894ED050A30EEEF
:10250000280AB4EEC80AF1EE10FA01DB0120E8E770
:1025100094ED060A30EE680AB4EEC80AF1EE10FA3D
:102520000AD894ED070A30EE280AB4EEC80AF1EE94
:1025300010FA01DB0220D4E70320D2E708CC012007
:10254000CDCC4C3E01460548C26C12B1881A002819
:1025500001DD012070470020FCE70000A8CC01202D
:1025600010B504460CB9012010BD2046FFF7EAFF64
:1025700058B108488069A04207D00648006AA042C6
:1025800003D00448806AA04201D10120ECE700207A
:10259000EAE700000CCB01202DE9F0412DED028B84
:1025A0000546B0EE408A0F464DB118EE100A10F005
:1025B000E1F820B1B5EEC08AF1EE10FA04D800209F
:1025C000BDEC028BBDE8F08100241FE005EB840028
:1025D00090ED000A10EE101A084610F0CBF808B97A
:1025E0000020EDE705EB8400D0ED000AB0EE600AB4
:1025F0002046FFF761FF064626B1032E02D01FB921
:10260000012E01D00020DBE7601CC4B2032CDDD317
:10261000002411E005EB8400D0ED000AB0EE600A62
:102620003A46F0EE480A2946204602F0E1FC08B995
:102630000020C5E7601CC4B2032CEBD30120BFE728
:102640000146002903DD082901DC01207047002034
:10265000FCE7000070B500240AE004EB84000649A2
:1026600051F8305015B1284606F095FC601CC4B2F4
:10267000032CF2D370BD000008CC012010B52DED65
:10268000028BB0EE408A0D4890F8240020B99FEDEF
:102690000C0ABDEC028B10BD18EE100A10F06AF89F
:1026A00010B99FED080AF4E79FED070A38EE400ADB
:1026B000F7EE000A20EE200AEBE7000080CC0120B4
:1026C000000000000000C07F00003443F0EE400A2C
:1026D0009FED020A30EE600A70470000000034C32C
:1026E000F0EE400A9FED020A30EE600A70470000EB
:1026F000000034C310B50B2001F0B8F810BD000085
:10270000F0B52DED048B89B0044624B9032009B03F
:10271000BDEC048BF0BD207E08B10420F7E72079E2
:1027200020B12079012801D00320F0E794F820009F
:10273000D8B194ED090A10EE101A084610F01AF8F4
:1027400088B194ED090ADFED5C0AB4EEE00AF1EE1F
:1027500010FA08D394ED090ADFED580AB4EEE00A46
:10276000F1EE10FA01DD0320D1E794F8200010B15A
:1027700094ED090A01E003F003F8F0EE408A94EDCD
:10278000021AF0EE410A94ED031AB0EE410A10F07D
:10279000CBF8DFED4B0A20EE208A4A48007801286A
:1027A0000ED1484840780C280AD14648807838B97C
:1027B0009FED450A02F01CFF10B903F081F908B93A
:1027C0000220A4E703F0CCFD08B101209FE73D48BB
:1027D00090ED070AF0EE400AB0EE680A03F056FAF0
:1027E00030B1F0EE480AB0EE680A03F04FFA08B9CB
:1027F00006208CE7202101A8FDF728FF607978B931
:102800002079012805D101A904F1080002F09CFCFF
:1028100004E001A904F1080002F01EFB05461FE0D8
:1028200094ED050AB5EEC00AF1EE10FA02DD94ED62
:10283000050A01E09FED250AB0EE409A20790128B3
:1028400006D1B0EE490A04F1080001F093FA05E060
:10285000B0EE490A04F1080001F028F9054600BF6E
:10286000DDB994F82000B0B1D4ED090AB0EE600AE9
:1028700003F0C0FA06461EB103F0E4FC304646E71A
:1028800007F04EFF0746D4ED090AB0EE600A39465C
:10289000206800F023FA002039E7012D01D1012042
:1028A00035E7022D01D1022031E7032D01D10320AC
:1028B0002DE706202BE700000000B4C20000B44260
:1028C000E02E654248C7012000008C420000E14331
:1028D00070B52DED028B044624B104F1080000F020
:1028E00061FE18B90320BDEC028B70BD254800784D
:1028F00001280ED1234840780C280AD1214880783D
:1029000038B99FED210A02F073FE10B903F0D8F830
:1029100008B90220E7E703F023FD08B10120E2E750
:1029200002F02EFFB0EE408A164890ED070AF0EE56
:10293000400AB0EE480A03F0A9F940B194ED020A4A
:10294000F0EE400AB0EE480A03F0A0F908B90620FC
:10295000C9E7207920B904F1080003F095FD03E0F0
:1029600004F1080003F018FD05460DB90020BAE790
:10297000012D01D10120B6E7022D01D10220B2E7DD
:102980000620B0E748C7012000008C4210B52DEDAD
:10299000028B044634B194F8240018B10420BDEC35
:1029A000028B10BD1A48007801280ED118484078D3
:1029B0000C280AD11648807838B99FED160A02F023
:1029C00017FE10B903F07CF808B90220E7E7C4B19C
:1029D00094ED021AF0EE410A94ED031AB0EE410AAA
:1029E0000FF0A2FFDFED0C0A20EE200AB0EE408AC5
:1029F00002F0C6FEF0EE408AF0EE480A03F046F917
:102A000008B90620CBE7204603F0BCFDC7E700006D
:102A100048C7012000008C42E02E65422DE9F041BC
:102A200004463248007801280DD1304840780C28FF
:102A300009D12E48807830B99FED2D0A02F0D8FDDB
:102A400008B9012000E00020054614B90320BDE8C4
:102A5000F0812078072845D2DFE800F045040C110A
:102A60001B252F000DB90220F1E7012003F07AF9B0
:102A70000020ECE7002003F075F90020E7E70DB92E
:102A80000220E4E7D4ED010AB0EE600A03F082F917
:102A9000DDE70DB90220DAE7D4ED020AB0EE600AF4
:102AA00003F090F9D3E70DB90220D0E7D4ED020A84
:102AB000B0EE600A03F09EF9C9E7002003F052F976
:102AC0000A48D0ED300AB0EE600A03F0C1F90646BC
:102AD0009FED080A03F08EF907460EB13046B6E7BF
:102AE0003846B4E700BF0320B1E7000048C7012023
:102AF00000008C420000000010B52DED0A8BF0EEB6
:102B0000409AB0EE608AB0EE41AA044614B9BDEC1A
:102B10000A8B10BD9FED2D0A69EE80AA9FED2B0A4E
:102B200028EE00BAB0EE4A0AFFF7DAFD30EE080AE6
:102B3000DFED260A60EE20BAB0EE4B0A10F080F806
:102B4000DFED230A60EE20CAB0EE6B0A10F078F8D1
:102B5000DFED1F0AB0EE6CCA00EE80CA9FED1D0AC1
:102B60007CEE008A9FED1B9AB0EE6A0A10F068F8BE
:102B700060EE28CAB0EE6A0A10F052F949EE40CA77
:102B8000C4ED00CAB0EE6A0A10F04AF960EE28CA35
:102B9000B0EE6A0A10F054F849EE00CAC4ED01CA5A
:102BA000B0EE4B0A10F03CF9DFED0BCADFED080A7E
:102BB00040EE80CAB0EE6B0A10F032F9DFED040A85
:102BC00040EE80CAC4ED02CA00BFA0E735FA8E3CD1
:102BD00000008243000000000000784270B5054606
:102BE0000DB9002070BD00BFEFF31080044672B62F
:102BF000BC2204492846FDF7CDFC04B962B6012089
:102C0000F0E700000CCB012030B5094CA06284F83D
:102C10002C1084F82D2084F82E30246A844206D1AA
:102C20000024034D2C6285F8244085F8254030BDF2
:102C30000CCB01202DE9F04104460D4617461E46F7
:102C40000CB9BDE8F0813A462946204600F024F848
:102C50000448846280F82C5080F82D7080F82E6033
:102C600000BFEEE70CCB012010B50446084890F8F1
:102C7000300028B1064A11791068224600F00CF89D
:102C80000020034981F8300002498861087710BDAF
:102C9000A8CC01200CCB012010B500B910BD094B08
:102CA000186383F8341083F835201B6A834206D1F9
:102CB0000023044C236284F8243084F8253000BFBC
:102CC000ECE700000CCB0120034B186283F82410C2
:102CD00083F82520704700000CCB01200122054B12
:102CE00083F850201A46506582ED170A01F51672D6
:102CF0009A657047A8CC01200146084890F850001A
:102D000008B9002070470548806D081A04D40020D7
:102D1000024A82F85000F5E70120F3E7A8CC012031
:102D20001FB59FEDAE0A8DED000AF421AC48FDF70A
:102D30008DFC4FF4AE71AB48FDF788FC8021AA48AA
:102D4000FDF784FC9021A948FDF780FC6421A84888
:102D5000FDF77CFCBC21A748FDF778FC4021A64884
:102D6000FDF774FC7821A548FDF770FC2821A448E4
:102D7000FDF76CFC6021A348FDF768FC00209D492D
:102D800008719FED960A9D4880ED010A9FED930A18
:102D900080ED020AB7EE000A80ED030A9FED9A0A61
:102DA00080ED040A9FED990A80ED050A9FED980ACF
:102DB00080ED060A9FED970A80ED070A9FED870ACE
:102DC00080ED0B0A9FED940A80ED0C0AB7EE000A25
:102DD00080ED0D0A9FED910A80ED0E0A9FED8E0A9F
:102DE00080ED0F0AB3EE040A80ED100A9FED8C0A05
:102DF00080ED110A9FED790A80ED150A9FED820A98
:102E000080ED160AB7EE000A80ED170A9FED850ADD
:102E100080ED180A9FED840A80ED190A9FED830A60
:102E200080ED1A0ABBEE040A80ED1B0A0020019017
:102E3000029003907E48019002208DF80D00002042
:102E40008DF80E000320ADF808001320ADF80A003D
:102E500006208DF80C0001A806F02EF967490860DD
:102E60000220ADF808001220ADF80A0007208DF806
:102E70000C0001A806F020F9604988620120ADF835
:102E800008001120ADF80A0006208DF80C0001A8FA
:102E900006F012F95949086508460068D0B108469D
:102EA000806AB8B10846006DA0B108460068808EFF
:102EB00040F2031188420DD15048806A808EB0F5EF
:102EC000817F07D14D48006D808E891E884201D1D7
:102ED000012000E000204249C870684600F03CFC38
:102EE0003F490871FF20887100204870087081F800
:102EF000F00007F015FC4249086008460068486089
:102F0000084600680861002081F8230081F8240049
:102F10000120344908740021324841748174C1741D
:102F20000175022141759FED430A80ED060A9FED70
:102F3000420A80ED070A9FED400A80ED080A9FEDE6
:102F40003F0A80ED090A9FED250A80ED0A0A9FEDF0
:102F50002F0A80ED0B0A9FED210A80ED0C0A9FEDF0
:102F60001F0A80ED0D0A9FED1D0A80ED0E0A032158
:102F700080F83C100021016441648164C1640165F2
:102F800000201D4908704870022048720320C87252
:102F90009FED2B0A084680ED030A9FED100A80ED95
:102FA000040AB2EE040A80ED050A15480068886339
:102FB00005F0AEFA02F010FD03F0AEF90848C07853
:102FC00010B10748007918B9012000F04FFC1FBD6F
:102FD00002200349087000BFF9E70000000000006C
:102FE00048C701203CC8012098C9012018CA012007
:102FF000A8CA01200CCB0120C8CB012008CC01209D
:1030000080CC0120A8CC01200000B4C20000B44252
:103010000000DCC20000DC420000344300000C422F
:103020000000484300003EC300000CC2000052C331
:1030300090C20120000070420000C07F00004D439C
:1030400000007A432DE9F04F2DED108B83B005463B
:103050000E4614469FEDF00AB0EE40EA4FF000092C
:10306000CA46CB462CB9032003B0BDEC108BBDE89B
:10307000F08F20212046FDF7E9FA85B37EB395ED68
:10308000000A10EE101A08460FF07DFB38B395EDDC
:10309000010A10EE101A08460FF075FBF8B195ED15
:1030A000020A10EE101A08460FF06DFBB8B196ED4B
:1030B000000A10EE101A08460FF065FB78B196ED85
:1030C000010A10EE101A08460FF05DFB38B196EDBC
:1030D000020A10EE101A08460FF055FB18B903202B
:1030E00020702078C0E7D5ED000A60EEA00A95EDCB
:1030F000011AD5ED011A41EE210AB0EE600A0FF077
:1031000057FFB0EE408A95ED020ADFEDC40A70EE7B
:10311000608A18EE100A0FF036FB20B118EE900A04
:103120000FF031FB18B90720207020789CE79FED45
:10313000BC0A08EE080AB5EEC00AF1EE10FA03D296
:103140000420207020788FE79FEDB30A18EE080A5C
:10315000F0EE400A9FEDB00A0FF01AFEB0EE409A72
:103160000FF026FFF0EE409A9FEDAD0AB4EEC08A54
:10317000F1EE10FA0ADD95ED001AF0EE410A95ED38
:10318000011AB0EE410A0FF0CFFB05E096ED000A00
:10319000DFEDA40A20EE200AF0EE40DA0027DAE0A4
:1031A0009FED9F0AF4EEC09AF1EE10FA02D8012FBB
:1031B00000D1CEE017B9B0EE690A01E0B1EE690ABC
:1031C000F0EE40BA9FED940A7BEEC0AAF0EE6B0AD7
:1031D0009FED910A0FF0A8FB3DEEC00ADFED920AC9
:1031E00020EE200AB0EE40AA00F01CFBB0EE40CA70
:1031F0002AEEAA0A08EEA80ADFED8C0A30EE600A71
:10320000DFED8A0A30EE600ADFED890A80EE209A4F
:1032100019EE100A0FF0B7FA18B9072020702078BD
:1032200022E79FED840AB4EEC09AF1EE10FA06D3BD
:103230009FED810AB4EEC09AF1EE10FA00DD88E04D
:103240004FF0010AB7EE001AFFEE000AB0EE490A8D
:1032500000F06CFAB0EE409A4FF0000875E0B0EE66
:10326000490A0FF0D5FAB0EE40BAB8F1000F03D01A
:10327000B1EE4B0AB0EE40BAF0EE6A0AB0EE680A60
:103280000FF052FBF0EE40FAB0EE4B0A0FF0D8FC14
:10329000DFED6A0A9FED691A41EE000AF0EE60EA7E
:1032A000B0EE4B0A0FF0BCFDDFED640A20EE200A01
:1032B000B0EE40FAF0EE6E0A0FF036FB7FEEC0CAB9
:1032C0009FED590A2BEE00DA8DED00CA9FED560AEC
:1032D0002CEE800A8DED010AB0EE4D0AFFF7F6F9EB
:1032E0008DED020A684600F05DF900B929E04FF063
:1032F000010B6846FDF7ACFB00B922E06078401C8A
:1033000060703146684600F0C1F9B0EE40AA1AEE8E
:10331000100A0FF038FA18B9072020702078A3E6B9
:10332000B9F1000F04D0B4EECEAAF1EE10FA07D234
:103330004FF00109B0EE4AEA9DE80700231D07C3DC
:1033400000BF08F1010000F0FF08B8F1020F86D3BA
:1033500000BF781CC7B2022FFFF422AFB9F1000FF3
:103360000FD1BBF1000F02D00620207007E0BAF1A8
:10337000000F02D00520207001E00420207020788A
:1033800072E6D4ED031AB0EE611AD4ED021AF0EE33
:10339000610AD4ED011AB0EE610A04F11000FFF7E2
:1033A000ABFBD4ED040A95ED001A70EEC10A60EE95
:1033B000A00A94ED051AD5ED011A31EE611AD4ED8B
:1033C000051A95ED012A71EEC21A41EE210A94ED1B
:1033D000061AD5ED021A31EE611AD4ED061A95EDF2
:1033E000022A71EEC21A41EE210AB0EE600A0FF015
:1033F000DFFD84ED070A94ED070A10EE101A084667
:103400000FF0C1F918B90720207020782CE60020B1
:103410002070207828E600000000000000007842BC
:1034200017B7D13835FA8E3CE02E65420008844744
:1034300000080448470380BF4703803F00008243E1
:1034400070B52DED028B0546B0EE408A2846FDF79B
:103450004DFB20B118EE100A0FF08CF920B99FED4A
:10346000150ABDEC028B70BD05EB8500124901EB1E
:10347000C004D4ED030AB0EE600AFDF733FAF6EEAD
:10348000000AB4EEE00AF1EE10FA02D29FED090A4A
:10349000E7E794ED020A38EE400ADFED080A20EE75
:1034A000200AD4ED030A80EE201A94ED010A31EED1
:1034B000000AD6E70000C07F08CC012035FA8E3C18
:1034C00070B52DED028B0546F0EE408A0C46022DBC
:1034D00007D0B0EE680A2846FFF7B2FFBDEC028BBA
:1034E00070BD54B194ED010A10EE101A08460FF0A9
:1034F00041F910B194ED018A1BE0124890ED130AD6
:1035000010EE101A08460FF035F918B10D4890ED7D
:10351000138A0EE00B4890ED120A10EE101A0846BE
:103520000FF028F918B1074890ED128A01E09FEDDD
:10353000068AF0EE480AB0EE680A284600F006F85F
:10354000CCE7000008CC01200000344310B52DED7D
:10355000048B0446B0EE408AF0EE608A022C19D14A
:10356000B0EE680AFFF78AF8B0EE409A18EE100A3B
:103570000FF000F920B119EE100A0FF0FBF820B996
:103580009FED070ABDEC048B10BD38EE490AB0EE82
:10359000408A00BFB0EE480A2046FFF751FFF1E72E
:1035A0000000C07F10B50446BCB194ED000A10EED7
:1035B000101A08460FF0E7F878B194ED010A10EE02
:1035C000101A08460FF0DFF838B194ED020A10EE39
:1035D000101A08460FF0D7F808B9002010BD94ED76
:1035E000000ADFED1C0AB4EEE00AF1EE10FA2EDB61
:1035F00094ED000ADFED180AB4EEE00AF1EE10FADD
:1036000025D894ED010ADFED150AB4EEE00AF1EEDB
:1036100010FA1CDB94ED010ADFED110AB4EEE00AAA
:10362000F1EE10FA13D894ED020ADFED0E0AB4EEB3
:10363000E00AF1EE10FA0ADB94ED020ADFED0A0A65
:10364000B4EEE00AF1EE10FA01D80120C6E700203E
:10365000C4E700006666B4C26666B44233330B4208
:103660003333344333333EC333330BC210B52DED04
:10367000028BB0EE408AF0EE608A78EE680AB0EE17
:10368000600A00F0CFF8BDEC028B10BD70B52DEDD7
:10369000068B04460D469FED200AB0EE409A9FED42
:1036A0001F0AF0EE409A9FED1E0AB4EEC09AF1EEAA
:1036B00010FA06D99FED1A0AF4EEC09AF1EE10FA4C
:1036C00004D89FED180ABDEC068B70BD95ED001A6D
:1036D000F0EE410A94ED001AB0EE410AFFF7C6FF82
:1036E000DFED110A80EE20AA94ED010AD5ED010A62
:1036F00030EE600A80EE098A94ED020AD5ED020AE6
:1037000030EE600AC0EE298A2AEE0A0A08EE080A9C
:1037100008EEA80AD7E700000000114300001B4391
:1037200017B7D1380000807F0000B443F0EE401A94
:10373000F4EEE01AF1EE10FA02D2B0EE600A704731
:10374000F4EEC11AF1EE10FA02DDB0EE410AF6E72E
:10375000B0EE610AF3E7000010B52DED028B86B0E4
:10376000044603A89FED291ADFED290A9FED290AD7
:10377000FFF7C2F99FED280A8DED000A9FED250A9B
:103780008DED010A9FED250A8DED020ADDED030A9C
:103790009DED001A70EEC10A60EEA00A9DED041ABC
:1037A000DDED011A31EE611ADDED041A9DED012AFD
:1037B00071EEC21A41EE210A9DED051ADDED021AE5
:1037C00031EE611ADDED051A9DED022A71EEC21A85
:1037D00041EE210AB0EE600A0FF0EAFBB0EE408A3B
:1037E0000CB184ED008A18EE100A0EF0CCFF58B12F
:1037F0009FED0B0AB4EEC08AF1EE10FA04D8012056
:1038000006B0BDEC028B10BD0020F9E70000B4C289
:103810000000B44200000000000082430000A14309
:103820000AD7233C05E0DFED0E0A70EE600AB0EE29
:10383000600ADFED0C0AB4EEE00AF1EE10FAF2DCF9
:1038400005E0DFED070A70EE200AB0EE600ADFED5A
:10385000060AB4EEE00AF1EE10FAF2D37047000067
:103860000000B44300003443000034C310B50446E4
:1038700004B901241748807808B10B2C01D11548F0
:1038800084700B2C01D1052000E004201149087040
:103890000B2C01D10E2000E00D200E4948700820AD
:1038A000FDF708F8FDF750F900200B4981F82400D6
:1038B00002F014FBFEF7CEFE0120074981F821003B
:1038C0000B2C02D00548C07910B1002002F04AFA52
:1038D00010BD000048C7012080CC01207C280020BA
:1038E00010B52DED028B0446F0EE408A0F4890EDA6
:1038F000130AB0EE408A012C07D1B0EE680A2046C8
:1039000000F018F8BDEC028B10BD18EE100A0EF096
:1039100031FF18B99FED060AB0EE408AF0EE480A72
:10392000B0EE680A204600F033F8EBE708CC01203F
:103930000000344370B52DED028B0546B0EE408A91
:103940002846FDF7D3F820B118EE100A0EF012FF4A
:1039500020B99FED0C0ABDEC028B70BD05EB850014
:10396000094901EBC00494ED030AD4ED010A78EE95
:10397000600A60EE200A94ED020A9FED041A00EE40
:10398000810AE8E70000C07F08CC0120E02E6542F4
:1039900010B52DED048B0446F0EE409AF0EE608AEF
:1039A000B0EE690A2046FFF7C5FFB0EE408A022C50
:1039B00019D1B0EE680AFEF761FEB0EE409A18EE3B
:1039C000100A0EF0D7FE20B119EE100A0EF0D2FE4A
:1039D00020B99FED060ABDEC048B10BD38EE090A34
:1039E000B0EE408A00BFB0EE480AF4E70000C07FA6
:1039F00010B52DED028B0446B0EE408A2046FDF74F
:103A000075F820B118EE100A0EF0B4FE20B99FED43
:103A1000220ABDEC028B10BD022C2FD11F4890F85A
:103A2000240050B31E48806A20B11D48806AD0ED42
:103A3000020A01E0DFED1B0AB0EE600A0120FFF789
:103A4000D7FFF0EE408A18EE900A0EF093FE10B900
:103A50009FED110ADDE704EB8400114901EBC00082
:103A600090ED030A20EE080ADFED0F0A20EE200A8F
:103A7000F7EE000A00EEA80ACBE700BF04EB8400D3
:103A8000074901EBC00090ED030A20EE080ADFEDC4
:103A9000060A20EE200ABCE70000C07F80CC01208F
:103AA00008CC012000000000E02E65422DE9F04125
:103AB0002DED048B92B00446B0EE408A06F030FE45
:103AC000074620210AA8FCF7C1FD03208DF8280035
:103AD000A2480078022807D0A0480078042803D024
:103AE0009E480078032805D1012012B0BDEC048B5C
:103AF000BDE8F08154B394ED000A10EE101A0846A8
:103B00000EF04AFE10B394ED010A10EE101A0846AA
:103B10000EF042FED0B194ED020A10EE101A0846E3
:103B20000EF03AFE90B118EE100A0EF035FE68B1B4
:103B3000B7EE000AB4EEC08AF1EE10FA06D39FED9C
:103B4000880AB4EEC08AF1EE10FA05DD9DF828006F
:103B5000FDF772FD0320C8E7FDF778FC28B99DF852
:103B60002800FDF769FD0220BFE77E4890ED070AB7
:103B70008DED040A90ED080A8DED050A90ED090A15
:103B80008DED060A04A8FFF70DFD18B104A8FCF797
:103B90005FFF20B90620FDF74FFD0420A5E7DDED0E
:103BA000061AB0EE611ADDED051AF0EE610ADDEDE0
:103BB000041AB0EE610A6C48FEF79EFF21466A487F
:103BC000FDF79CFCF0EE408A18EE900A0EF0E4FD42
:103BD00020B90720FDF730FD032086E79FED630A3B
:103BE000F4EEC08AF1EE10FA04D80021204601F06C
:103BF00033F97AE7B7EE000AC8EE800AB0EE609AB1
:103C0000B0EE490A0EF0E6FFBCEEC00A10EE100A54
:103C1000401C85B2022D02D3B5F5C07F04D9032024
:103C2000FDF70AFD042060E74F48183805820020A0
:103C30004D49183981F88D0001F5807004A90EC92D
:103C400014300EC004A807C801AB07C3012663E007
:103C5000681E00EE100AF8EE400A00EE106AB8EE98
:103C6000400A80EE201AB0EE419A94ED000A3E48D8
:103C70001838D0ED060A70EE600A90ED060A09EEDB
:103C8000200A8DED070A94ED010AD0ED070A70EEC7
:103C9000600A90ED070A09EE200A8DED080A94EDFE
:103CA000020AD0ED080A70EE600A90ED080A09EEEB
:103CB000200A8DED090A0AAA01A907A8FFF7C2F98F
:103CC000A8B99DED110AF6EE000AB4EEE00AF1EE95
:103CD00010FA0CDC0BA8FFF765FC40B10BA8FCF751
:103CE000B7FE20B10BA901A8FDF73AFB28B99DF852
:103CF0002800FDF7A1FC0420F7E606EB46011A4870
:103D0000FC3000EB81000BA90EC90EC00BA807C840
:103D100001AB07C3701C86B2AE4299DB28469FED0B
:103D2000141AF0EE480AB0EE680AFDF70BF8804668
:103D300001A8FCF7E3FE20B90320FDF77DFC02207B
:103D4000D3E604230222DFED0A0AB0EE480A414618
:103D500020460097FEF77AF80020C6E6F40E002011
:103D600000002F4448C70120800F00200AD7233CC1
:103D7000000061452DE9F0412DED048B9CB0044617
:103D8000B0EE408A06F0CCFC0746202114A8FCF7D0
:103D90005DFC03208DF85000B1480078022807D060
:103DA000AF480078042803D0AD480078032805D137
:103DB00001201CB0BDEC048BBDE8F08154B394ED40
:103DC000000A10EE101A08460EF0E6FC10B394ED4F
:103DD000010A10EE101A08460EF0DEFCD0B194ED88
:103DE000020A10EE101A08460EF0D6FC90B118EE3A
:103DF000100A0EF0D1FC68B1B7EE000AB4EEC08A2A
:103E0000F1EE10FA06D39FED970AB4EEC08AF1EEF8
:103E100010FA05DD9DF85000FDF70EFC0320C8E701
:103E2000FDF714FB28B99DF85000FDF705FC0220B2
:103E3000BFE708A9204601F047FD20B90420FDF79F
:103E4000FBFB0420B5E7884890ED070A8DED050AD5
:103E500090ED080A8DED060A90ED090A8DED070A2E
:103E600005A8FFF79FFB98B105A8FCF7F1FD78B115
:103E700005A8FEF777F858B1DDED050AB0EE600A47
:103E800011A9DFED7A0A7848A83001F083FC20B947
:103E90000620FDF7D1FB04208BE7214611A8FDF792
:103EA0002DFBF0EE408A18EE900A0EF075FC20B95A
:103EB0000720FDF7C1FB03207BE79FED6D0AF4EEC1
:103EC000C08AF1EE10FA04D80021204601F03CF936
:103ED0006FE7B7EE000AC8EE800AB0EE609AB0EE67
:103EE000490A0EF077FEBCEEC00A10EE100A401C24
:103EF00085B2022D02D3B5F5C07F04D90320FDF7AA
:103F00009BFB042055E75B4805820120594981F855
:103F10008D0001F1800094E80E0010300EC01C38B6
:103F200008A90EC91C300EC0A83811A90EC9183036
:103F30000EC0DC3005A90EC914300EC005A807C894
:103F400002AB07C3012669E0681E00EE100AF8EE16
:103F5000400A00EE106AB8EE400A80EE201AB0EE79
:103F6000419A94ED000ADDED110A70EE600A9DEDB4
:103F7000110A09EE200A8DED0E0A94ED010ADDED1D
:103F8000120A70EE600A9DED120A09EE200A8DED0C
:103F90000F0A94ED020ADDED130A70EE600A9DED42
:103FA000130A09EE200A8DED100A0BA90EA801F0E4
:103FB0008BFCF8B114AA02A90BA8FFF743F8C8B903
:103FC0009DED1B0AF6EE000AB4EEE00AF1EE10FADF
:103FD00010DC15A8FFF7E6FA60B115A8FCF738FD6C
:103FE00040B115A8FDF7BEFF20B115A902A8FDF745
:103FF000B7F928B99DF85000FDF71EFB0420D8E65C
:1040000006EB46011C4800EB810015A90EC90EC045
:1040100015A807C802AB07C3701C86B2AE4293DB7B
:1040200028469FED161AF0EE480AB0EE680AFCF733
:1040300089FE804602A8FCF761FD20B90320FDF748
:10404000FBFA0220B5E604230122DFED0C0AB0EEF4
:10405000480A414620460097FDF7F8FE0020A8E6F2
:10406000F40E002000002F4448C70120000000008B
:104070000AD7233C680F00207C1000200000614517
:1040800070B52DED028B05460E462DB90020364940
:104090008860BDEC028B70BD002455E005EB840008
:1040A00090ED000A10EE101A08460EF063FB60B1A6
:1040B00004EB84002D4A02EBC00090ED090A10EEDB
:1040C000101A08460EF056FB18B9002026498860E1
:1040D000DFE705EB840090ED000A04EB8400234940
:1040E00001EBC000D0ED090A70EE608A04EB840099
:1040F00051F83000D0ED020AB0EE600A2046FFF71A
:1041000077FCB0EE408A18EE100A0EF033FBA8B12F
:10411000B0EE680AFCF7E6FBF7EE000AB4EEE00A40
:10412000F1EE10FA0ADCB0EE480AFCF7DBFBF0EE29
:10413000000AB4EEE00AF1EE10FA03DD00200A49AD
:104140008860A6E7601CC4B2032CA7D30648806829
:1041500008B90548866004488068301A782801D379
:10416000012096E7002094E780CC012008CC0120B4
:10417000094890F8330058B9074890F8310038B929
:10418000054890F8320018B9034890F8340008B197
:10419000012070470020FCE7A8CC0120FEB50546B1
:1041A000774C207868B9607808B101F04DF90020AB
:1041B0006070A070022060710020724981F82300B5
:1041C000FEBD704890F82300D8B901206D4981F8F0
:1041D000230008460561012060700020A070E07097
:1041E0002071022060719FED680A84ED030A9FED43
:1041F000660A84ED040A0020E063206C401C206401
:10420000DEE706F08DFA0646FCF77AFB28B1FCF7EC
:10421000BBFB10B1FCF79EFB20B9072060700220A9
:104220006071CDE794ED020A10EE101A08460EF008
:10423000A1FA30B194ED020AB5EEC00AF1EE10FA1F
:1042400004D80720607003206071B9E74D48006909
:10425000281AE0636078082875D2DFE800F0880447
:10426000125275767B820120607146480069281AD7
:10427000B0F57A7F00D27FE00020E070022060700D
:104280007AE0424890ED090A8DED000A90ED130A9C
:104290008DED010A90ED1D0A8DED020A04F12C034B
:1042A00004F12002191D684600F05EFD20B90720C8
:1042B0006070062060715FE0D4ED020AB0EE600A23
:1042C000002104F13000FEF767F920B90720607083
:1042D0000620607150E02B48056100202949886064
:1042E000A0700120E0709FED280A84ED030A9FED85
:1042F000260A84ED040A0020E063607103206070E8
:104300003AE02348D0ED300AB0EE600A01F0A0FD9B
:10431000294604F13000FFF7B3FE40B10020A07041
:1043200001202071002060710620607024E0154893
:104330000069281A46F2A811884203D3072060704A
:104340000220607118E011E000BF072060700620B5
:10435000607111E00020A0700120207100206071C8
:104360000AE001F06FFF01F06FF805E000BF0020E8
:10437000044981F8230000BF00BF00BF20E7000010
:104380004CC8012080CC01200000C07F08CC012057
:1043900048C7012070B50546FD48806B281AFC49C6
:1043A000C863084600780D2876D2DFE800F00716CB
:1043B000406686CAF6F5F4F3F2F1F000284600F004
:1043C0007DFBF44840780C2806D10120F24981F8A1
:1043D0002400294600F036FD07E2284602F0B8FA2C
:1043E000EE48407C062802D02846FFF7D7FEE94871
:1043F000D0ED300AB0EE600A01F02AFDE748407CBB
:10440000072807D10420E249487229460C2000F011
:1044100019FD0BE0E148407C062807D10120DE4968
:1044200081F824002946022000F00CFDDDE1D94886
:10443000D0ED300AB0EE600A01F00AFD01F040FB59
:1044400048B101F0A3F990F8200020B929460320D3
:1044500000F0F8FC10E001F099F98078072804D00A
:10446000CB48C06BB0F5FA5F06D30220C84948724A
:1044700029460C2000F0E6FCB7E12846FCF740FA9C
:1044800028B1FCF781FA10B1FCF764FA28B9294683
:104490000C2000F0D7FCA8E195E1BD48C06BB0F559
:1044A000FA7F09D3BA49497809B1042100E00B2108
:1044B0000846294600F0C6FC97E1B5491831A1F13C
:1044C0000C0001F001FA40B90420B1494872C872E9
:1044D00029460C2000F0B6FC87E19FEDB10AAC48FC
:1044E0000C30FFF747FC0446A9484472AD4890F8E9
:1044F0005400A749C87224B129460C2000F0A2FC40
:1045000073E1A348A74B1C330ECB24300EC03038C8
:10451000D0ED0A0A90ED0B1ADFEDA31A31EEC11AA5
:1045200070EE810AB0EE600A01F072FB984880EDEF
:104530000C0A0120964988702946052000F082FC6B
:1045400053E1284602F004FA01F00AFF30BB954817
:104550000078062822D1934890ED180AF7EE000A59
:10456000B4EEE00AF1EE10FA18DB01F00FF990F862
:10457000200098B901208649C870002048720120A7
:1045800001F0F0FB2946062000F05CFC15E01BE181
:1045900010E1D9E0ACE06FE04CE00FE07C48C06B8C
:1045A00046F2A811884208D301F04CFE0220784957
:1045B000487229460C2000F045FC16E1284602F01E
:1045C000C7F92846FCF79CF928B1FCF7DDF910B1D2
:1045D000FCF7C0F950B9002001F0C4FB02206C497F
:1045E000487229460C2000F02DFCFEE09FED6F0A7A
:1045F000674880ED0D0A9FED6D0A01F0E3FB644909
:1046000088720846807A30B901204871294607200F
:1046100000F018FC0DE05E48807A012809D00020E7
:1046200001F0A0FB02205A49487229460C2000F0F4
:1046300009FCDAE0284602F08BF92846FCF760F91D
:1046400028B1FCF7A1F910B1FCF784F950B90020AA
:1046500001F088FB02204E49487229460C2000F0E8
:10466000F1FBC2E04A48C06BB0F5167F03D3294680
:10467000082000F0E7FBB8E0284602F069F9284678
:10468000FCF73EF928B1FCF77FF910B1FCF762F9AD
:1046900050B9002001F066FB02203D4948722946CE
:1046A0000C2000F0CFFBA0E09FED410A384880EDE0
:1046B0000D0A9FED3F0A01F085FB354988720846D7
:1046C000807A30B9022048712946092000F0BAFBEF
:1046D0000DE02F48807A012809D0002001F042FB2C
:1046E00002202B49487229460C2000F0ABFB7CE0ED
:1046F000284602F02DF92846FCF702F928B1FCF70C
:1047000043F910B1FCF726F950B9002001F02AFB5B
:1047100002201F49487229460C2000F093FB64E0F8
:104720001B48C06BB0F5167F0DD3002001F01AFBBB
:1047300001201749887108710020C8710872294644
:104740000A2000F07FFB50E0284602F001F91048F3
:10475000C07968B901200E49C871FCF7F3F938B97E
:1047600001200B49087229460B2000F06BFB3CE04E
:104770000748C06B40F6B831884208D3FCF7E4F92B
:1047800001200349087229460B2000F05BFB2CE056
:10479000C8CB012048C7012080CC01203CC80120A3
:1047A00000007A43F40E0020000034C300000743E9
:1047B0000000344201200E4908700C204870284641
:1047C00002F0C6F811E000BFFCF7BEF901F086FB6D
:1047D000002001F0C7FA01F035FD042004490870FB
:1047E0000D204870FF20887100BF00BF70BD000021
:1047F00048C7012070B598B00646AD4890F8330020
:10480000002831D0AA48056C0020A94981F833005E
:1048100081F8310081F8320081F83400886408465C
:1048200090F8300030B10A46117902231068062250
:10483000FEF700FA0620FEF717FA9E4A92F82410B7
:104840000223106A0622FEF7F5F902220721284604
:10485000FEF73AFAFDF74EFF002303220721284610
:10486000FEF7D2F918B070BD914890F8310020B32E
:104870008F48856B00208E4981F83100084690F8FA
:10488000300030B10A461179002310680522FEF786
:10489000D1F90520FEF7E8F9864A92F824100023A2
:1048A000106A0522FEF7C6F9FCF750F9002303222F
:1048B00006212846FEF7A8F9D4E77D4890F8320093
:1048C000D8B17B48C56B0020794981F8320079481E
:1048D00090F82400032807D1764A92F82410002388
:1048E000106A0522FEF790F900F0D8FC002303229D
:1048F00005212846FEF788F9B4E76D4890F83400A2
:1049000058B36B48456C0020694981F8340008466B
:1049100090F8300030B10A4611790223106806225F
:10492000FEF788F90620FEF79FF9624A92F82410F4
:104930000223106A0622FEF77DF90222082128468A
:10494000FEF7C2F900F0FAF95B48D0F8E8005849E0
:104950008864304600F04CF984E7554890F8300000
:1049600000B97FE7302252490CA8FBF713FE002064
:104970004F4981F830004F49886108779DF834002D
:10498000012810D10C9807909DF838008DF8200070
:10499000DDE90F121198CDE909120B9007A8FDF778
:1049A00097FF044663E09DF83400022828D10C9854
:1049B00002909DF838008DF80C000CA8407A8DF814
:1049C0000D00DDE90F121198CDE9041206909DED5E
:1049D000120A8DED070A0CA8007F8DF820009DEDCE
:1049E000140A8DED090A9DF854008DF828009DEDFC
:1049F000160A8DED0B0A02A8FDF782FE044636E08A
:104A00009DF83400032828D10C9801909DF83800B7
:104A10008DF80800DDE90F121198CDE90312059019
:104A20009DED120A8DED060A9DED130A8DED070A24
:104A30009DF850008DF820009DED150A8DED090AB6
:104A40009DF858008DF828009DED170A8DED0B0A92
:104A500001A8FDF79BFF044609E09DF834000428F7
:104A600004D10EA8FDF7DAFF044600E00424B4B92F
:104A70009DF83400032803D09DF83400042807D1A2
:104A80009DF83410002303220C98FEF7BDF80DE0CA
:104A90009DF8341002220C98FEF716F906E09DF8F6
:104AA0003410234604220C98FEF7AEF800BFD9E676
:104AB000A8CC01200CCB012048C7012070B50546C9
:104AC00047484078022821D003DC38B1012873D14F
:104AD00010E0032830D00C287BD164E04148006806
:104AE000281AB0F57A7F00D278E02946012000F03C
:104AF0000DFB73E03B484068281AB0F5967F00D262
:104B00006CE02946022000F001FB67E000240CE085
:104B100004EB8401344A52F8310004F04FFA10B12A
:104B2000012132480155601CC4B2032CF0D3294640
:104B3000032000F0EBFA51E02A484068281A642864
:104B400012D32848456000240CE004EB8401264A77
:104B500052F8310004F032FA10B101212348015516
:104B6000601CC4B2032CF0D32846FBF7C9FEC8B1C1
:104B700000F06AFC00B931E0002408E004EB840195
:104B8000194A52F8310004F038FA601CC4B2032C00
:104B9000F4D3022012490870FF20887129460C20A6
:104BA00000F0B4FA1AE00F484068281A64280FD3BE
:104BB0000C484560002409E00BE004EB84010A4A3C
:104BC00052F8310004F019FA601CC4B2032CF4D37B
:104BD00004E02946002000F099FA00BF00BF70BD34
:104BE00048C7012080CC012008CC012043C8012007
:104BF0002DE9F04707464B48D0F8EC50D0F8E88054
:104C00004948D0F8549002264648D0F8EC00484570
:104C100000D04D464348D0F8EC00404500D0454612
:104C20004048D0F8EC00A84201D1BDE8F0873D48EB
:104C3000C0F8E8503C4845653A48807808B90326F2
:104C40002DE03846FBF75CFE08B9042627E09FED0F
:104C5000370A00F0CDFC08B1052620E0FBF7AEFED8
:104C600008B106261BE0002416E004EB840030495E
:104C700001EBC000D0ED090AB0EE600A2046FDF756
:104C80001BFC8246BAF1000F02D0BAF1030F01D12A
:104C9000072603E0601CC4B2032CE6D300BF214802
:104CA00080F8F060C0F8EC501F48856580F85C60C3
:104CB000022E00D0B9E7FDF7CDFC00201D4981F898
:104CC0002400002418E004EB8401194A52F8310052
:104CD00003F0FDFF38B90820124981F8F0001249AD
:104CE00081F85C00A1E704EB8401114A52F831001D
:104CF00004F063FA601CC4B2032CE4D30020094919
:104D0000887001200B4981F82200002081F82100E1
:104D10003946012000F0FAF900200249087000BF6E
:104D200083E7000048C701203CC8012000008C42F6
:104D300008CC012080CC0120704700000848D0F842
:104D4000E800401C0649C1F8E800012081F8F000A5
:104D50000846D0F8E8000349486501207047000084
:104D600048C701203CC80120F0B52DED028B8BB067
:104D700006460F4615461C462F4AD2E90010926897
:104D8000CDE90902089116B10FB105B124B900208F
:104D90000BB0BDEC028BF0BD20216846FBF756FC42
:104DA00003202070294608A800F08EFD18B90420C1
:104DB00020700020ECE76A4631462846FEF742F9AB
:104DC0002070207880B99DED070AF6EE000AB4EE57
:104DD000E00AF1EE10FA07DC01A8FEF7E3FB18B1D8
:104DE00001A8FBF735FE08B90020D1E79DED020AC6
:104DF000DDED030A9FED111A71EE600A30EE208A94
:104E0000B0EE480A00F004FFF0EE408A00F030FFF8
:104E100040B19DED010AF0EE400A9FED090A00F055
:104E200035FF18B9062020700020B1E701A807C897
:104E300087E807000120ABE798550108000034C35C
:104E400000000000034A107091630022014BDA63F6
:104E500070470000C8CB012070B58CB004460D46E9
:104E6000202104A8FBF7F2FB03208DF81000BCB151
:104E700094ED000A10EE101A08460DF08DFC78B182
:104E800094ED010A10EE101A08460DF085FC38B1B9
:104E900094ED020A10EE101A08460DF07DFC60B980
:104EA0009DF81000FCF7C8FB25B1202204A9284674
:104EB000FBF770FB03200CB070BDFCF7C7FA58B9C4
:104EC0009DF81000FCF7B8FB25B1202204A9284664
:104ED000FBF760FB0220EEE7424890ED070A8DEDFC
:104EE000010A90ED080A8DED020A90ED090A8DED98
:104EF000030A04AA01A92046FEF7A4F880B99DED93
:104F00000B0AF6EE000AB4EEE00AF1EE10FA07DC46
:104F100005A8FEF747FB18B105A8FBF799FD58B99E
:104F20009DF81000FCF788FB25B1202204A9284633
:104F3000FBF730FB0420BEE705A802F0C7F858B91C
:104F40009DF81000FCF778FB25B1202204A9284623
:104F5000FBF720FB0220AEE70020234981F88D00FB
:104F600001F1800094E80E001C300EC0283894E84F
:104F70000E0010300EC01D4805A90EC910300EC01D
:104F80001C3805A90EC91C300EC02838D4E90113FD
:104F90002268C0E9131382640020144981F8540088
:104FA000012081F8550081F85600B7EE000A084646
:104FB00080ED180A0020486688660120A1F86C0080
:104FC0000020487005F0ACFB064631460620FCF791
:104FD0002DFE25B1202204A92846FBF7DBFA00208C
:104FE00069E7000048C70120680F0020F40E002088
:104FF0002DE9F0412DED068B05468846B0EE408A3E
:10500000F0EE608A1746032D0ED218EE100A0DF04E
:10501000B1FB48B118EE900A0DF0ACFB20B1F5EEF3
:10502000C08AF1EE10FA04D80020BDEC068BBDE872
:10503000F08105EB8500234901EBC006B0EE480A7C
:105040002846FDF739FA044624B1032C02D01FB9D3
:10505000012C01D00020E8E74146B0EE480A28467E
:10506000FEF72EFAB0EE409A9FED170A28EE800A5E
:10507000D6ED030A80EE201AB0EE41AAB0EE4A0A3D
:10508000FBF730FCF0EE409A19EE100A0DF072FBBF
:1050900060B119EE900A0DF06DFB38B1F0EE690ABF
:1050A000B0EE490A306804F0C8F808B90020BCE73F
:1050B00086ED088A054800EB850080ED008A012016
:1050C000B3E7000008CC012035FA8E3C74C70120FC
:1050D00000B52DED048B83B0B0EE409AB0EE608A3F
:1050E000F0EE418A8DED009A8DED018ACDED028AB8
:1050F0006846FBF703FD20B9002003B0BDEC048B2C
:1051000000BD684601F0E2FFF7E7000010B50B4B69
:105110005A7858700A4B59600023094CA360E36029
:105120009FED080A234683ED050A0C2804D10C2ABA
:1051300002D0002384F8233010BD000048C70120AE
:1051400080CC01200000000070B52DED028B8EB0E8
:1051500004460D46202103A8FBF778FA03208DF8BA
:105160000C00BCB194ED000A10EE101A08460DF0C8
:1051700013FB78B194ED010A10EE101A08460DF0F9
:105180000BFB38B194ED020A10EE101A08460DF030
:1051900003FB70B99DF80C00FCF74EFA25B12022F4
:1051A00003A92846FBF7F6F903200EB0BDEC028BED
:1051B00070BD0BA9204600F087FB68B90420FCF7FE
:1051C0003BFA3DB104208DF80C00202203A92846AB
:1051D000FBF7E0F90420E8E72D4890ED070A8DED94
:1051E000000A90ED080A8DED010A90ED090A8DED97
:1051F000020A03AA69460BA8FDF724FFA0B99DED9A
:105200000A0AF6EE000AB4EEE00AF1EE10FA0BDC40
:1052100004A8FEF7C7F938B104A8FBF719FC18B1C8
:1052200004A8FCF79FFE58B99DF80C00FCF704FA9F
:1052300025B1202203A92846FBF7ACF90420B4E7E6
:1052400029460BA8FFF708FE0646FEB901201149C2
:1052500081F88D0001F1800094E80E0010300EC03E
:105260001C380BA90EC91C300EC0A83894E80E00DB
:1052700024300EC0084894E80E0048300EC004A840
:10528000FCF722FDB0EE408A00F0E2FD30468CE7EC
:1052900048C70120680F0020F40E002010B501F06F
:1052A0005BF910BD70B504462CB1206818B12079A7
:1052B000FDF7C6F908B9032070BD2079072808D08A
:1052C0002079062805D02079052802D020790828E1
:1052D00045D100BFEFF31080054672B62068FDF798
:1052E0003FF918B105B962B60720E5E7207907282C
:1052F0000DD1514920680864012081F83300002055
:1053000081F8310081F8320081F8340020E0FEF7A6
:105310002FFF18B105B962B60120CDE72079062824
:1053200006D1454920688863012081F831000FE0EB
:105330002079052806D140492068C863012081F8FA
:10534000320005E03C4920684864012081F83400BF
:1053500039492068C86405B962B60020ACE7206806
:10536000FDF7FEF808B10720A6E7344800780128C9
:105370000ED1324840780C280AD13048807838B9AC
:105380009FED2F0A00F034F910B900F099FB28B90D
:10539000204600F0E3F908B902208DE720790328C0
:1053A0000ED1254890F8300040B92648006A28B947
:1053B00000F0D6FF98B101F061F880B901207BE7D9
:1053C0001D4890F8300040B91E48006A28B900F026
:1053D000C7FF10B901F052F808B101206CE700BF17
:1053E000EFF31080054672B62068FDF7B9F818B1E2
:1053F00005B962B607205FE70F4890F8300010B992
:10540000FEF7B6FE18B105B962B6012054E73022A6
:1054100021460948FBF7BEF80120074981F8300012
:105420002068C8640749206888612079087705B931
:1054300062B6002040E70000A8CC012048C7012048
:1054400000008C420CCB01203EB51C4890F8240093
:1054500000BB00241AE004EB8400194951F83050D5
:105460001DB1284603F000FE08B900203EBD04EB44
:105470008400134901EBC00090ED090A04EB84009D
:1054800001EBC00080ED080A601CC4B2032CE2D31B
:105490000120EBE70A4890ED090A8DED000A90ED36
:1054A000130A8DED010A90ED1D0A8DED020A01210E
:1054B000B1EE040A6846FDF76FF8D7E780CC01200B
:1054C00008CC012070B505F02BF90546284600F000
:1054D00011FD284601F0BAFA2846FFF78BF93F483C
:1054E000807818B12846FFF783FB28E02846FBF7B1
:1054F0007BFA18B10220FEF7B9F921E09FED380AD6
:1055000000F076F818B10A20FEF7B0F918E0FBF7C2
:1055100087FA18B10320FEF7A9F911E09FED310ACF
:1055200000F066F840B1002000F01CFC00F08AFE9C
:1055300002212D48417503E02846FEF72BFF00BFEE
:10554000284601F083FA25480078012819D123481C
:1055500040780C2815D12148807890B91F480079EF
:1055600078B100BF1D48D0ED300AB0EE600A00F0FF
:105570006FFC1A48D0ED070AB0EE600A284600F02A
:10558000DBFD1648D0ED070AB0EE600A00F1B40169
:10559000DFED160AA83000F0FDF800F0F7F8044639
:1055A00060780E4981F8C800E07981F8C90001F1FE
:1055B0008000D4E90312C0E9131280386169C0F891
:1055C000D41094F85400054981F8D800A06DC1F8B2
:1055D000DC0001F0A7FD01F0D9FB70BD48C7012038
:1055E0000000A04200008C423CC8012000000000E6
:1055F000002117E001EB81000C4B53F830207AB109
:10560000D2ED040AF4EEC00AF1EE10FA06DAD2ED99
:10561000050AF4EEC00AF1EE10FA01DB0120704732
:10562000481CC1B20329E5D30020F8E708CC0120CB
:1056300010B52DED0A8B0446B0EE408A18EE100A24
:105640000DF0B3F818B1012C05D0022C03D00020C6
:10565000BDEC0A8B10BD022C02D19FED370A01E090
:105660009FED360AB0EE40AA022C02D19FED340A1B
:1056700001E09FED340AF0EE40AA022C02D19FED2A
:10568000320A01E09FED2F0AF0EE40BAB4EECA8A6A
:10569000F1EE10FA01D2B0EE4A8AB4EEEA8AF1EEE7
:1056A00010FA01DDB0EE6A8A012C02D19FED270AC3
:1056B00001E09FED270AB0EE40CA022C02D19FED17
:1056C0001F0A01E09FED1D0AB0EE409A022C02D1A4
:1056D0009FED200A01E09FED1F0AF0EE409A39EE9F
:1056E000C90A80EE2BBA9FED1C0A38EE400AF0EE94
:1056F0004C8A40EE0B8AF4EEC98AF1EE10FA05D21C
:10570000BCEEC90A10EE100A80B2A1E7F4EEE98AF5
:10571000F1EE10FA05DDBCEEE90A10EE100A80B2D7
:1057200096E7B6EE000A38EE800ABCEEC00A10EE2C
:10573000100A80B28CE70000000034C200000000B4
:10574000000061430000344300008743000002442E
:105750000000FA4300007A440000B442014611B14F
:105760000879042801D000207047087A022802D066
:10577000087A062801D10120F6E70020F4E70000AE
:10578000014890ED0D0A70477C28002000487047C2
:105790007C28002070B52DED088B0446B0EE409AB1
:1057A000B0EE608A0D4614B30DB394ED000A10EE0E
:1057B000101A08460CF0F9FFC8B194ED010A10EE7A
:1057C000101A08460CF0F1FF88B194ED020A10EEB1
:1057D000101A08460CF0E9FF48B119EE100A0CF057
:1057E000E4FF20B118EE100A0CF0DFFF30B9012001
:1057F000304988650020BDEC088B70BD9FED2E0AF6
:1058000029EE00AA9FED2C0A68EE008AB0EE680A25
:105810000DF016FADFED290A20EE20BADFED280A96
:1058200078EEE00AB0EE600A0DF00AFADFED250A24
:10583000F0EE4B9A40EE809AB0EE680A0DF0F0FA66
:10584000DFED1E0A20EE20BADFED1D0A78EEE00A39
:10585000B0EE600A0DF0E4FADFED1A0AF0EE4BAAA2
:1058600040EE80AAB0EE4A0A0DF0EAF9D4ED000A43
:1058700049EE800AC5ED000AB0EE4A0A0DF0D0FAF2
:10588000D4ED010A49EE800AC5ED010A94ED020A41
:1058900030EE2A0A85ED020A064894E80E007030C0
:1058A0000EC095E80E000EC0883880ED228A0120D7
:1058B000A1E700007C28002035FA8E3C333371428A
:1058C000DB0FC93F0000584270B52DED028B044636
:1058D0000D46C4B1BDB194ED000A10EE101A084691
:1058E0000CF063FF78B194ED010A10EE101A08462F
:1058F0000CF05BFF38B194ED020A10EE101A084666
:105900000CF053FF30B90120304988650020BDEC10
:10591000028B70BDD4ED000A60EEA00A94ED011A6E
:10592000D4ED011A41EE210AB0EE600A0DF040FB01
:10593000B0EE408A18EE100A0CF037FF30B19FED40
:10594000240AB4EEC08AF1EE10FA04D804201F49EC
:1059500088650020DBE79FED1E0A78EE408A94ED13
:10596000000A20EE280AC0EE080AC5ED000A94EDF0
:10597000010A20EE280AC0EE080AC5ED010A94EDDE
:10598000020ADFED140A30EE200A85ED020A95EDD9
:10599000000A10EE101A08460CF007FF78B195EDDA
:1059A000010A10EE101A08460CF0FFFE38B195ED12
:1059B000020A10EE101A08460CF0F7FE20B9042077
:1059C000024988650020A2E70120A0E77C2800208A
:1059D000333371420000584210B58C213348FAF736
:1059E00035FE07F03BFF044600224FF4805130485B
:1059F00004F090FE2D48047000202C49C87101204D
:105A000081F854009FED2B0A084680ED030A9FEDB4
:105A10002A0A80ED040A012081F82C0081F82D006B
:105A20009FED260A084680ED0D0A9FED240A80EDC1
:105A30000C0A9FED220A80ED0E0A9FED200A80EDF0
:105A40000F0A9FED1D0A80ED100A4FF4FA70A1F8BD
:105A5000440004F065FE154988649FED160A084667
:105A600080ED060A04F05CFE1049C861002081F850
:105A700020009FED100A0120FFF7DAFD0B49888214
:105A80004FF4FA710948C1820020084948700CB1EE
:105A9000012000E007200549887004F041FE034919
:105AA000C8660CB90320886510BD00007C28002062
:105AB00000040240000034420000B4420000000034
:105AC00010B5FFF763FE0446A078062801D1012037
:105AD00010BD0020FCE700002DE9F0472DED028B02
