:020000040800F2
:1000000038900120310300082DDD000821D60008BA
:1000100029DD0008697C0008ED17010800000000D8
:100020000000000000000000000000007102000855
:10003000E98C000800000000CD020008ADE10008D6
:100040004B0300084B0300084B0300084B03000858
:100050004B0300084B0300084B0300084B03000848
:100060004B0300084B0300084B0300084B03000838
:10007000B98200084B0300084B0300084B0300083B
:100080004B0300084B0300084B0300084B03000818
:10009000497D0008597D00084B0300084B03000808
:1000A0004B0300084B0300084B0300084B030008F8
:1000B0004B0300084B0300084B0300084B030008E8
:1000C0004B0300084B0300084B0300086DE10008D8
:1000D0004B0300084B0300084B0300084B030008C8
:1000E0004B0300084B0300084B0300084B030008B8
:1000F0004B030008A9E200084B0300084B0300086B
:100100004B0300084B0300084B0300084B03000897
:100110004B0300084B0300084B0300084B03000887
:10012000C98200084B030008D9820008E982000850
:100130004B0300084B0300084B0300084B03000867
:10014000697D0008797D00084B03000831DD000857
:100150004B0300084B0300084B03000829ED00087F
:100160004B0300084B0300084B0300084B03000837
:100170004B0300084B0300084B030008000000007D
:100180004B0300084B03000800F002F800F060F891
:100190000AA090E8000C82448344AAF10107DA45E2
:1001A00001D100F055F8AFF2090EBAE80F0013F0D4
:1001B000010F18BFFB1A43F0010318471045010057
:1001C000504501000A444FF0000C10F8013B13F0B9
:1001D000070408BF10F8014B1D1108BF10F8015BA0
:1001E000641E05D010F8016B641E01F8016BF9D193
:1001F00013F0080F1EBF10F8014BAD1C0C1B09D1EA
:100200006D1E58BF01F801CBFAD505E014F8016B5B
:1002100001F8016B6D1EF9D59142D6D370470000ED
:100220000023002400250026103A28BF78C1FBD8FF
:10023000520728BF30C148BF0B6070471FB514F08C
:10024000A8F99DE8030000F047FA1FBD10B510BDE6
:1002500000F0AEFA1146FFF7F1FF12F048FB00F094
:10026000CCFA03B4FFF7F2FF03BC00F0FDFA000084
:100270002C4B19680868B0E8F04F80F30988BFF389
:100280006F8F4FF0000080F311887047000000006E
:1002900008480068006880F308884FF0000080F389
:1002A000148862B661B6BFF34F8FBFF36F8F00DF64
:1002B00000BF00BF08ED00E0DFF80C00016841F46A
:1002C00070010160704700BF88ED00E0EFF3098026
:1002D000BFF36F8F134B1A681EF0100F08BF20ED8D
:1002E000108A20E9F04F106009B44FF0500080F3FD
:1002F0001188BFF34F8FBFF36F8F13F06BFB4FF07D
:10030000000080F3118809BC19680868B0E8F04F54
:100310001EF0100F08BFB0EC108A80F30988BFF3FD
:100320006F8F704730C20120EFF3058070470000E7
:100330000948804709480047FEE7FEE7FEE7FEE779
:10034000FEE7FEE7FEE7FEE7FEE7FEE704480549B5
:10035000054A064B7047000095E200088901000835
:1003600038900020389001203810012038100120EA
:1003700070B5064600F094F9056806F10B0020F010
:100380000704B4429CBF002070BD2B466A68BAB116
:100390001068A04210D304F1080188423CBF5068A5
:1003A000586007D35168101941601168091B01603A
:1003B00058601460101D70BD13465268002AE7D1C2
:1003C0002146284600F074F90028DED170BD70B5D2
:1003D0000446051F00F064F90068002C14BF44684F
:1003E00070BD002C18BFAC423CBF20466468F8D3F7
:1003F00001680A18AA4218BF456003D12A68054659
:100400001144016028684119A1421CBF6C6070BD95
:100410006168696021680844286070BD53EA020C75
:1004200000F069802DE9F04B4FF00006002B1FBF54
:10043000B3FA83F503FA05F424FA05F65E4012BF19
:100440001643B2FA82F502FA05F4C5F120051EBF83
:1004500022FA05FC44EA0C04203556EA044C4FEA23
:10046000144418BF641C4FF000084FF0000990427C
:1004700071EB030C39D3002919BFB1FA81F701FAE6
:1004800007F6B0FA80F700FA07F6C7F120071EBF9B
:1004900020FA07FC46EA0C062037B6FBF4FCA7EB73
:1004A0000507103F07F01F0BCBF120060CFA0BFBE2
:1004B0002CFA06F644BFB3460026202FA4BF5E46A2
:1004C0004FF0000B5BEA060C08BF4FF0010B19EB75
:1004D0000B09ABFB027C48EB0608C01B06FB02CCF9
:1004E0000BFB03CC71EB0C01C1E70B460246414606
:1004F0004846BDE8F08B13B54FF000004FF0000107
:10050000AFF30080BDE81C407047032A40F2308002
:1005100010F0030C00F0158011F8013BBCF1020F44
:10052000624498BF11F801CB00F8013B38BF11F8C5
:10053000013BA2F1040298BF00F801CB38BF00F8DC
:10054000013B11F0030300F02580083AC0F0088059
:1005500051F8043B083A51F804CBA0E80810F5E73D
:10056000121D5CBF51F8043B40F8043BAFF3008020
:10057000D20724BF11F8013B11F801CB48BF11F895
:10058000012B24BF00F8013B00F801CB48BF00F865
:10059000012B704710B5203AC0F00B80B1E818501D
:1005A000203AA0E81850B1E81850A0E81850BFF45D
:1005B000F5AF5FEA027C24BFB1E81850A0E81850FC
:1005C00044BF18C918C0BDE810405FEA827C24BF50
:1005D00051F8043B40F8043B08BF7047D20728BFDE
:1005E00031F8023B48BF11F8012B28BF20F8023B2D
:1005F00048BF00F8012B704702F0FF0343EA0322D3
:1006000042EA024200F002B84FF000020429C0F0B2
:10061000128010F0030C00F01B80CCF1040CBCF134
:10062000020F18BF00F8012BA8BF20F8022BA1EB86
:100630000C0100F00DB85FEAC17C24BF00F8012B6B
:1006400000F8012B48BF00F8012B70474FF0000263
:1006500000B5134694469646203922BFA0E80C50B8
:10066000A0E80C50B1F12001BFF4F7AF090728BF93
:10067000A0E80C5048BF0CC05DF804EB890028BF0F
:1006800040F8042B08BF704748BF20F8022B11F038
:10069000804F18BF00F8012B7047704770477047B4
:1006A00000487047D8CF01207047704770477047A7
:1006B00038B504460A4600206946AFF3008000289A
:1006C00008BF38BD02460099204600F04FF80120CF
:1006D00038BD012000F064B8F8B5AFF300800546DE
:1006E00000200C46102000BF0646A819A0420DD9D4
:1006F000324669460020AFF30080070008BF00F0D3
:100700004FF80098A04218BF0546C419FFF7C8FF6C
:1007100005600746F01D20F007004619284600F046
:100720000AF8B44208BFF8BDA21B31463868BDE8DC
:10073000F84000F01BB800210160C0E901107047CB
:100740001020704710B500F00DF8006810BD10B50E
:10075000044600F007F8046010BD00000048704730
:10076000D0CF012000487047D0CF01200346406819
:100770008C46002818BF88423CBF03464068F8D327
:1007800018681844884207D00CF1030020F00700D5
:10079000001D411A521A0146081D0A60FFF717BED4
:1007A00010B500F039F8BDE8104000F02FB87047E0
:1007B0007546FFF7D3FFAE4605006946534620F065
:1007C0000700854618B020B5FFF7C0FDBDE8204002
:1007D0004FF000064FF000074FF000084FF0000BFD
:1007E00021F00701AC46ACE8C009ACE8C009ACE8B0
:1007F000C009ACE8C0098D46704710B50446AFF398
:1008000000802046BDE81040FFF72BBD002801D036
:1008100000F02AB87047000010B5012805D000216B
:1008200003A000F027F8012010BD09A1F8E700009F
:1008300053494752544D454D3A204F7574206F66C9
:100840002068656170206D656D6F72790000000031
:100850003A2048656170206D656D6F727920636F15
:10086000727275707465640001491820ABBEFEE7B2
:100870002600020070B505460C460A2000E06D1CFB
:1008800000F011F835B128780028F8D102E0641C96
:1008900000F009F814B120780028F8D1BDE87040C4
:1008A0000A20AFF3008008B569468DF800000320E8
:1008B000ABBE08BD094948700E21084A11700021DD
:1008C00082F85610064A517591751175118202F120
:1008D000800100228A66CA660A677047AC0C002055
:1008E000200D0020F0EE400AF5EEC00AF1EE10FAFD
:1008F00002D2B1EE600A7047B0EE600AFBE700007A
:1009000070B5064600251EE005EB8500104951F83C
:100910003040A4B13146204607F0CAFF78B194EDCB
:10092000010A10EE101A084610F09AFF38B194ED43
:10093000020A10EE101A084610F092FF08B90020C3
:1009400070BD681CC5B2032DDED30120F8E700009E
:10095000D0CC0120002110E001EB8100094A52F8BF
:10096000300030B101EB810052F8300090F84500C2
:1009700008B900207047481CC1B20329ECD30120FC
:10098000F8E70000D0CC0120002110E001EB81004D
:10099000094A52F8300030B101EB810052F83000C2
:1009A00090F8440008B900207047481CC1B20329E0
:1009B000ECD30120F8E70000D0CC012010B50024D2
:1009C0000BE004EB8401074A52F8310007F0D7FE30
:1009D00008B1012010BD601CC4B2032CF1D300206B
:1009E000F8E70000D0CC012070B50646002410E0E6
:1009F00004EB8400094951F8305045B1287E30B1EC
:100A00003146284607F054FF08B9012070BD601C2C
:100A1000C4B2032CECD30020F8E70000D0CC0120B6
:100A200000210FE001EB8100084B53F830203AB170
:100A300092F84A0010B9506D052801D30120704783
:100A4000481CC1B20329EDD30020F8E7D0CC012027
:100A500010B50446204602F029FD08B9002010BD5B
:100A600094ED000ADFED1B0AB4EEE00AF1EE10FA95
:100A70002EDB94ED000ADFED180AB4EEE00AF1EE89
:100A800010FA25D894ED010ADFED140AB4EEE00A5D
:100A9000F1EE10FA1CDB94ED010ADFED110AB4EE61
:100AA000E00AF1EE10FA13D894ED020ADFED0D0A18
:100AB000B4EEE00AF1EE10FA0ADB94ED020ADFED83
:100AC0000A0AB4EEE00AF1EE10FA01D80120C6E7F6
:100AD0000020C4E70000B4C20000B44200000C4291
:100AE0000000344300003EC3000020C2014602293A
:100AF00001DC012070470020FCE7000070B50546CE
:100B00000F480078012800D100E0002004461CB9FD
:100B10000B480078022801D1012000E000200446A3
:100B200054B1074840780C2806D10548807818B998
:100B3000284602F0BBFC08B9002070BD0120FCE78C
:100B400030C80120012070477047000010B50448EC
:100B5000807800B110BD05F05BF900BFFAE7000036
:100B600030C8012070B52DED048B86B00546644A6F
:100B700007CA03AB07C39FED630AB0EE408A15B105
:100B8000B5F5C07F05D99FED5F0A06B0BDEC048BBB
:100B900070BD9FED5C0A5C4880EDC50A01247EE0D3
:100BA0009FED580AF0EE408A04EB4401574800EBF1
:100BB0008100D0ED000A601E00EB4001534800EBBD
:100BC000810090ED001A70EEC10AB0EE600A01F0EB
:100BD0004FFCB0EE409A11F080FE8DED000A04EB60
:100BE00044014A4800EB8100D0ED010A601E00EB91
:100BF0004001464800EB810090ED011A70EEC10AF9
:100C0000B0EE600A11F069FE8DED010A04EB4401BB
:100C10003E4800EB8100D0ED020A601E00EB40016F
:100C20003A4800EB810090ED021A70EEC10AB0EE76
:100C3000600A11F052FE8DED020A002617E06846A8
:100C400000EB860090ED000A03A800EB8600D0EDD3
:100C5000000A80EE201AB0EE419AF0EE490AB0EE9A
:100C6000680A11F007F9F0EE408A701CC6B2032E34
:100C7000E5D39FED270AF4EEC08AF1EE10FA03D215
:100C80009FED230AF0EE408A38EE280AB0EE408A43
:100C9000204800EB840080ED008A601C84B2AC42E6
:100CA000FFF67EAF012D06D09FED190AB4EEC08A83
:100CB000F1EE10FA07D29FED130A134880EDC50A32
:100CC0009FED100A61E701200DE0124901EB800160
:100CD00091ED000AC0EE080A0E4901EB8001C1ED5A
:100CE000000A411C88B2A842EFDBB7EE000A681E7A
:100CF000084901EB800080ED000AB0EE480A44E7A5
:100D00006046010800000000201D0020340E002075
:100D1000BD37863534200020F0EE401AF4EEE01A9C
:100D2000F1EE10FA02D2B0EE600A7047F4EEC11A8A
:100D3000F1EE10FA02DDB0EE410AF6E7B0EE610A1C
:100D4000F3E7000070B52DED0A8B8CB0B0EE408A51
:100D5000F0EE609AB0EE41AA06469FEDD70AF0EE9B
:100D6000408A002009900A900B903046FFF7FAFE67
:100D7000F0EE40AAD14AD2E900109268CDE907020C
:100D80000691CE4A0C3207CA03AB07C39FEDCC0ACB
:100D9000B4EEC08AF1EE10FA1EDDB7EE0E0A28EEB0
:100DA000000AC0EE290AB0EE609A9FEDC60A28EE4E
:100DB000000AC0EE0A0AF0EE60BAB0EE6B0A11F05B
:100DC00069F9B0EE40BAF0EE4B0AB0EE490A11F004
:100DD00051F8F0EE408A00BFB7EE0E0A2AEE800A04
:100DE000F0EE400AB0EE680A11F044F8F0EE408AE6
:100DF000012456E004EB4401B34800EB8100D0ED40
:100E0000000A601E00EB4001AF4800EB810090ED4E
:100E1000001A70EEC10AB0EE600A01F029FBB0EED4
:100E2000409A11F05AFDDDED090A30EE200A8DEDF1
:100E3000090A04EB4401A44800EB8100D0ED010A4B
:100E4000601E00EB4001A04800EB810090ED011A0C
:100E500070EEC10AB0EE600A11F03FFDDDED0A0A46
:100E600030EE200A8DED0A0A04EB4401964800EBAF
:100E70008100D0ED020A601E00EB4001924800EBB9
:100E8000810090ED021A70EEC10AB0EE600A11F016
:100E900024FDDDED0B0A30EE200A8DED0B0A601CFF
:100EA00084B2B442A6DB00243BE009A800EB840036
:100EB00090ED000AF7EE0E0A20EE200A06A800EBDD
:100EC0008400D0ED000A80EE201AB0EE41BA09A8E5
:100ED00000EB840090ED000ADFED7A0A20EE200A94
:100EE00003A800EB8400D0ED000A80EE201AF0EE9B
:100EF00041BAB0EE6B0A11F0CDF8B0EE409AF0EEC8
:100F0000490AB0EE4B0A10F0B5FFF0EE40BAF0EE31
:100F10006B0AB0EE680A10F0ADFFF0EE408A601C7C
:100F2000C4B2032CC1D30124AAE0684800EB8400BA
:100F300090ED000A601E654901EB8000D0ED000ACB
:100F400030EE600AB0EE409A9FED610AB4EEC09AAE
:100F5000F1EE10FA00D291E004EB44015A4800EBA4
:100F60008100D0ED000A601E00EB4001564800EB06
:100F7000810090ED001A70EEC10AB0EE600A01F037
:100F800077FAB0EE40BA11F0A8FC8DED000A04EB40
:100F900044014D4800EB8100D0ED010A601E00EBDA
:100FA0004001494800EB810090ED011A70EEC10A42
:100FB000B0EE600A11F091FC8DED010A04EB4401E2
:100FC000414800EB8100D0ED020A601E00EB4001B9
:100FD0003D4800EB810090ED021A70EEC10AB0EEC0
:100FE000600A11F07AFC8DED020A002543E06846A4
:100FF00000EB850090ED000AF7EE0E0A20EE200AC5
:1010000006A800EB8500D0ED000A60EE890A80EEAC
:10101000201AB0EE41BA684600EB850090ED000A58
:10102000DFED280A20EE200AF7EE000A20EE200A63
:1010300003A800EB8500D0ED000A60EE890A80EE7F
:10104000201AB0EE41CAB0EE4C0A11F023F8F0EECF
:1010500040BAF0EE6B0AB0EE4B0A10F00BFFB0EEA8
:1010600040CAF0EE4C0AB0EE680A10F003FFF0EE52
:10107000408A681CC5B2032DB9D300BF601C84B27E
:10108000B442FFF652AF9FED130AF4EEC08AF1EEC0
:1010900010FA03D29FED0F0AF0EE408ADFED0E0A40
:1010A0009FED0E0A08EEA00ABCEEC00A10EE100A70
:1010B0000CB0BDEC0A8B70BD000000006C4601084E
:1010C0000AD7233C83C0B840340E002034200020CF
:1010D000BD3786356F12833A00007A4477BE7F3F72
:1010E0002DE9F0412DED068BF0EE409A064667485B
:1010F000008A01280AD86648D0E90521C069C6E9F6
:101100000021B060BDEC068BBDE8F081B7EE001A9F
:10111000DFED600AB0EE690AFFF7FEFDB0EE408A2F
:10112000B7EE000AB4EEC08AF1EE10FA07DB5748BA
:10113000008A401E84B22546DFED568A3FE000203B
:10114000524A128A521E91B211E00B1A00EB53035D
:101150009AB2514B03EB820393ED000AB4EEC80A36
:10116000F1EE10FA01D8104600E0114600BF421C13
:1011700092B28A42E9DB04460D46474A02EB8502F9
:1011800092ED000A444A02EB8402D2ED000A30EEEE
:10119000609A9FED420AB4EEC09AF1EE10FA09DDB2
:1011A0003D4A02EB840292ED000A78EE400A80EE9E
:1011B000890A01E09FED370AF0EE408A00BF05EB97
:1011C00045013348143000EB8100D0ED000A04EBF8
:1011D00044012F48143000EB810090ED001A70EEAE
:1011E000C10AB0EE600A01F043F904EB440128485B
:1011F000143000EB8100D0ED000A48EE800AB0EE1A
:1012000060AAB0EE4A0A01F033F986ED000A05EB58
:1012100045011F48143000EB810090ED010A04EBFA
:1012200044011B48143000EB8100D0ED010A70EE40
:10123000600A04EB44011648143000EB810090ED85
:10124000010A08EEA00A86ED010A05EB45011048E7
:10125000143000EB810090ED020A04EB44010C48CD
:10126000143000EB8100D0ED020A70EE600A04EB4E
:1012700044010748143000EB810090ED020A08EEAB
:10128000A00A86ED020A00BF3CE70000200D002006
:10129000200E00200000000034200020BD378635DD
:1012A00070B52DED028B05460C462B48D0F8B000EA
:1012B00078B12948D0F8AC00281A00EE100AF8EEF0
:1012C000400A254890ED2C0AB8EE401A80EE810ABB
:1012D00001E0B7EE000AB0EE408AB7EE001ADFED8B
:1012E0001F0AB0EE480AFFF717FDB0EE408A1A4811
:1012F000D0ED340A90ED311A70EEC10AB0EE600AFA
:1013000001F0B6F81448D0ED310A48EE000AF0EECC
:10131000608AB0EE680A01F0ABF884ED000A0E486E
:1013200090ED350AD0ED320A70EE600A90ED320A87
:1013300008EE200A84ED010A90ED360AD0ED330A5A
:1013400070EE600A90ED330A08EE200A84ED020A7E
:10135000BDEC028B70BD0000200D002000000000DD
:1013600070B52DED028B04460D46D5ED000A94EDC7
:10137000001A70EEC10AB0EE600A01F079F8B0EE22
:10138000408A11F0AAFAF1EE040AB4EEE00AF1EE96
:1013900010FA25D8D5ED010A94ED011A70EEC10AB4
:1013A000B0EE600A11F099FAF0EE000AB4EEE00A2D
:1013B000F1EE10FA14D8D5ED020A94ED021A70EE8F
:1013C000C10AB0EE600A11F088FAF0EE000AB4EE3D
:1013D000E00AF1EE10FA03D80120BDEC028B70BDDB
:1013E0000020FAE710B52DED028B0446B0EE408ADE
:1013F000204601F025F8F0EE408AF4EEC88AF1EEBE
:1014000010FA1DDD9FED100AF4EEC08AF1EE10FA1D
:1014100016DDC8EE280AB0EE600AD4ED000A60EED0
:10142000800AC4ED000AD4ED010A60EE800AC4ED22
:10143000010AD4ED020A60EE800AC4ED020A00BF80
:10144000BDEC028B10BD0000BD3786351648007814
:10145000012800D100E00020014619B912480078A7
:10146000022801D1012000E0002001460E48C0788A
:10147000C0B10D480079A8B10B48407990B10A4835
:1014800040780C280ED169B10748807850B90648D9
:10149000C07938B10448007A20B10348407A08B1D5
:1014A000012070470020FCE730C801201249D1ED2F
:1014B000090A91ED061A30EEC11AD1ED060A40EE86
:1014C000010AC0ED000AD1ED0A0A91ED071A30EECB
:1014D000C11AD1ED070A40EE010AC0ED010AD1EDB3
:1014E0000B0A91ED081A30EEC11AD1ED080A40EE50
:1014F000010AC0ED020A7047200D002070B52DEDE5
:10150000048B04460D4695ED000AD4ED000A30EE3A
:10151000600AB0EE409A95ED010AD4ED010A30EE72
:10152000600AB0EE408A95ED020AD4ED020A30EE70
:10153000600AF0EE408A69EE090A48EE080A48EEB1
:10154000A80AB0EE600A10F0A5FDBDEC048B70BDDA
:1015500010B52DED048BF0EE408AB7EE001ADFEDEA
:101560000F0AB0EE680AFFF7D7FBB0EE408A28EE0C
:10157000080AB0EE409A29EE080AF0EE409ABAEE58
:101580000E0AF1EE080A00EE880AF2EE040A48EEAE
:10159000000A20EEA90ABDEC048B10BD000000007B
:1015A00010B52DED028BF0EE408AB7EE001ADFED9C
:1015B0000E0AB0EE680AFFF7AFFBB0EE408A9FED6F
:1015C0000B0A28EE000AF7EE000A70EEC80A60EE79
:1015D000200AB7EE000AB0EE001A01EE480A20EE2B
:1015E000800ABDEC028B10BD0000000000007042BC
:1015F00010B52DED048BB0EE409AB7EE001ADFED7A
:101600000D0AB0EE490AFFF787FBB0EE408AB7EE4D
:10161000000A30EE480AF0EE408AB3EE0E0A28EED9
:10162000000A20EE080A20EE280A20EE280ABDEC67
:10163000048B10BD00000000064981F85400002111
:10164000044A82F8551082F856101146C96D491C9B
:10165000D1657047AC0C00200C4800210163416348
:101660008163C163016441646030018081706038CE
:1016700041668166C166064881818173A0F58070EC
:10168000A0F80F1180F8111170470000E0CA012086
:10169000200E002070B52DED048B84B005465B480C
:1016A00040682C1A5948C068A04201D85748C468FD
:1016B0005648C06858B1554890ED030AF8EE400A04
:1016C00000EE104AB8EE401A81EE200A01E0B7EEB3
:1016D000000AF0EE408AB0EE680AFFF739FFB0EE7C
:1016E000408A4A48C07D02281FD14848007D28B161
:1016F0004648D0F8A800281A022811D3B0EE480AAC
:10170000284600F007FB58B94048007D40B93F48E3
:101710004068401C3D49486004B0BDEC048B70BD7E
:1017200001A92846FFF7BCFD04E001A8B0EE480A75
:10173000FFF7D6FC01A805F08BFAA0B93348C07CAE
:1017400038B93348C06D401C3149C86501202F4964
:10175000C87400202E4981F856002C484068401C6F
:101760002A494860D8E7294890F88D00012806D119
:1017700001A800F0A9FAB0EE409A04F011FA002096
:101780002249C8740120224981F85600084684661F
:1017900080ED188A01A90EC910300EC01B48C06820
:1017A000A04230D81948008A401E86B206EB460295
:1017B000184901EB820005F04BFA144890F88D00AF
:1017C00001280AD106EB4602124901EB820000F023
:1017D0007BFAB0EE409A04F0E3F906EB46010D48BF
:1017E00000EB81000A49D0E900238068C1E90423A5
:1017F0008861B7EE000A084680ED180A29460620DF
:1018000000F014FA00BF00BF86E70000200D0020A2
:10181000AC0C0020340E002070B52DED048B9EB072
:1018200004460D4600EE105AB8EE400ADFEDFA0A03
:1018300020EE200AB0EE408AF8480146D1E91A327B
:10184000096FC0E91D32C1678038D0F8B400201A92
:1018500064280CD90120F14980398875EF480021AE
:101860008166C16601671EB0BDEC048B70BD0020AF
:10187000EA4980398875B5EEC08AF1EE10FA00D8D1
:10188000F1E7E648803890ED1A0AD0ED0C0A30EE08
:10189000600A8DED0D0A90ED1B0AD0ED0D0A30EEB9
:1018A000600A8DED0E0A90ED1C0AD0ED0E0A30EEA6
:1018B000600A8DED0F0A0DA800F0C2FDF0EE408A1F
:1018C000D6488038D0ED1E0AB0EE001A60EE810ACC
:1018D00060EEA80AB0EE600A10F0DCFBB0EE409AB1
:1018E000CE488038D0ED1D0AB0EE600AF0EE490A0D
:1018F00010F0E4FAF0EE409A0DA807C80AAB07C34F
:10190000B0EE690A0AA800F09BF99DED0A0AC348E7
:101910008038D0ED3A0A30EE600AC0EE080ACDED0C
:10192000070A9DED0B0AD0ED3B0A30EE600AC0EECF
:10193000080ACDED080A9DED0C0AD0ED3C0A30EE08
:10194000600AC0EE080ACDED090AD0ED1E0AB0EE1D
:10195000600A07A8FFF746FD002014E0AF49683190
:1019600001EB800191ED000A07A901EB8001D1EDA7
:10197000000A00EE880AA949683101EB800181ED77
:10198000000A411CC8B20328E8D3A4488038D0ED2F
:101990001D0AB0EE600AE830FFF724FD9F4880384A
:1019A00090ED3A0A20EE080A8DED040A90ED3B0A0C
:1019B00020EE080A8DED050A90ED3C0A20EE080A9B
:1019C0008DED060A9FED960AF4EEC08AF1EE10FA4C
:1019D00018D99DED040ADDED0D0A20EE200ADDED9B
:1019E000050A9DED0E1A00EE810ADDED060A9DED59
:1019F0000F1A00EE810A68EEA80AB4EEE00AF1EED2
:101A000010FA0EDB854980390846D0E91A23006FA9
:101A1000C1E90C238863814800218166C1660167A2
:101A200019E07E48803890ED0C0ADDED040A30EEB6
:101A3000200A80ED0C0A90ED0D0ADDED050A30EE6E
:101A4000200A80ED0D0A90ED0E0ADDED060A30EE5B
:101A5000200A80ED0E0A714A803A303207CA13AB71
:101A600007C36E48803890F88C00012817D110A960
:101A700013A803F06DFEB0B9684800218166C16605
:101A800001670020674981F85600012081F857005E
:101A900081F858000846C06D401CC865E3E613A8ED
:101AA00007C810AB07C35D488038D0F8A800201ADB
:101AB00002286CD30026202116A8FEF7C7FD16AA1F
:101AC0005649503110A801F041FA08B1012629E029
:101AD0009DED1D0AF6EE000AB4EEE00AF1EE10FAF2
:101AE00001DD02261EE017A801F0E0FC08B903267C
:101AF00018E017A8FEF7ACFF08B9042612E0474823
:101B0000803890F88C00012805D117A800F02AFA37
:101B100008B9042606E017A940485030FFF720FC1A
:101B200000B9052696BB3D480146D1E91423896DCD
:101B3000C0E91123C16417A90EC950300EC0DC38AA
:101B400013A90EC93C300EC0483890F88C0001280B
:101B500005D13248803813A90EC954300EC02F4821
:101B60008038C0F8AC4002202C498039C1F8B00060
:101B70000846C0F8A84000202A4981F854000120F6
:101B800081F85600002081F857001CE000E01BE0BF
:101B9000224800218166C1660167803803463C33D4
:101BA0000ECB30300EC09DF858001E4981F854000D
:101BB000002081F85600084680F8576080F8586089
:101BC000C06D401CC86500BF01A92046FFF768FB37
:101BD00001A805F03DF888B1124801A90EC91030DE
:101BE0000EC00E48803890F88C00012806D101A85C
:101BF00000F06AF8B0EE409A03F0D2FF0748803850
:101C00004068201A074988669FED070A084680ED5C
:101C1000180A00BF27E600006F12833AA00D0020CB
:101C2000CDCC4C3DAC0C002000000000024A1070EE
:101C3000024A116070470000AC0C0020200D00200B
:101C400010B52DED028B0446B0EE408A204600F020
:101C5000F7FBF0EE408A9FED1A0AF4EEC08AF1EE2F
:101C600010FA04D9B5EEC08AF1EE10FA0ED89FED45
:101C7000150A84ED000A9FED130A84ED010A9FED19
:101C8000110A84ED020ABDEC028B10BD88EE280A11
:101C9000D4ED000A20EE200A84ED000A88EE280A1E
:101CA000D4ED010A20EE200A84ED010A88EE280A0C
:101CB000D4ED020A20EE200A84ED020A00BFE2E71A
:101CC000BD3786350000000010B504467CB194EDA8
:101CD000010A10EE101A08460FF0D4FD38B194ED49
:101CE000020A10EE101A08460FF0CCFD10B99FED55
:101CF000070A10BD94ED010AD4ED020A9FED041A03
:101D000071EE600A30EE200AF3E700000000C07FA9
:101D1000000034C310B52DED028B8EB00446B0EE3A
:101D2000408A0BA8B0EE480AFFF7C0FB454890F880
:101D30008D0001280CD10BA90BA803F009FD38B9BF
:101D40000420FFF779FC00200EB0BDEC028B10BD23
:101D50003C48007D88B13B488030D0E91412806D4A
:101D6000CDE900120290374880300146D1E91423B2
:101D7000896DC0E91123C1640AE0334A103207CAF1
:101D80008DE807002F4880309DE80E0044300EC0DB
:101D9000202103A8FEF75AFC03AA69460BA801F00C
:101DA000D5F8F0B99DED0A0AF6EE000AB4EEE00AA5
:101DB000F1EE10FA15DC04A801F078FB88B104A854
:101DC000FEF746FE68B11F4890F88D00012803D148
:101DD00004A800F0C7F820B104A96846FFF7C0FACC
:101DE00098B99DF80C00184981F85400002081F83A
:101DF00056001448C07C30B90846C06D401CC86508
:101E000001201049C87400209EE70E48803004A9C4
:101E10000EC950300EC0DC38C0F8AC400220094971
:101E2000C1F8B0000846C0F8A8400120087500209D
:101E3000C874054981F85400012081F8560000BF9C
:101E400082E70000200D0020AC0C00202DE9F047B7
:101E50002DED028B04460E46B0EE408AF0EE608A0D
:101E6000174698460A9D3B48008A401E1FFA80F993
:101E7000384894E80E0024300EC0303890F88D00B9
:101E800001280AD13348803094E80E0010300EC08B
:101E90000146204603F05CFC0AE02E48803094E8BE
:101EA0000E001C300EC0283894E80E0010300EC012
:101EB0002848C660456080ED2E8AC0ED2F8AC77520
:101EC00000202449C87408750846C0F8A850C0F816
:101ED000AC500220C1F8B00000204875887521463A
:101EE0001C481830FFF70AFB1A4880ED300A1A4ADE
:101EF00000F58070D0E90531C069C2E90431906114
:101F000009EB4901154800EB810310460ECB1C304C
:101F10000EC0283894E80E0048300EC000200E494C
:101F200081F85400012081F8550081F856009FED9A
:101F30000C0A084680ED180A002088664870FFF7F2
:101F40008BFB29464046FFF771FEBDEC028BBDE8D6
:101F5000F0870000200D0020AC0C0020340E002083
:101F60000000000010B52DED028B04462046FFF75F
:101F7000ABFEB0EE408AB0EE480A03F067FDF0EE2B
:101F8000408AB0EE680A03F091FDBDEC028B10BDF3
:101F900070B52DED048B84B006460D46EE4890EDED
:101FA000030AB8EE400ADFEDED0A20EE200AB0EE9B
:101FB000408AB5EEC08AF1EE10FA0CDDE84890EDEB
:101FC0001A0AF8EE400AE44890ED030AB8EE401A07
:101FD00080EE810A01E0B7EE000AF0EE409AE14897
:101FE000E14BD3E907215B6AC0E9011302600246B5
:101FF000DB4B10330BCB0C320BC2DA48D84B1C3303
:102000000ECB18300EC02438D74B54330ECB48308B
:102010000EC05438D44B60330ECB54300EC0002465
:10202000CFE094B9CE48103000EB8400D0ED000A28
:10203000CD481C3000EB840090ED001A70EEC10A10
:10204000B0EE600A00F014FA0DE0C548103000EB65
:10205000840090ED000AC4481C3000EB8400D0EDF1
:10206000000A30EE600AB0EE409A94B9BC481C30C9
:1020700000EB8400D0ED000ABB481C3000EB84006C
:1020800090ED001A70EEC10AB0EE600A00F0F0F9AF
:102090000DE0B3481C3000EB840090ED000AB2481C
:1020A0001C3000EB8400D0ED000A30EE600AF0EE48
:1020B000408AAC48243000EB840080ED009AB0EEFA
:1020C000490A10F00AFCA748303000EB8400D0ED3C
:1020D000000AB4EEE00AF1EE10FA09DDB0EE490AAA
:1020E00010F0FBFB9F48303000EB840080ED000ACD
:1020F0009E48005D98B9B0EE680A10F0EEFBDFED87
:102100009C0AB4EEE00AF1EE10FA08DD97480C38AC
:1021100000EB8400C0ED008A0121944801559348EA
:10212000005D80B191480C3800EB840090ED000A0E
:1021300020EE280AB5EEC00AF1EE10FA03D2012112
:102140008A48C01C01558948C01C005DC0B1B0EE72
:10215000680A10F0C2FB83483C3000EB8400D0EDED
:10216000000AB4EEE00AF1EE10FA09DDB0EE680AFA
:1021700010F0B3FB7B483C3000EB840080ED000A9C
:10218000B0EE490A10F0A9FBF1EE040AB4EEE00A41
:10219000F1EE10FA0CDD0121724860300155001D8E
:1021A00050F8240041196F48643040F8241006E0CC
:1021B00000216C4860300155001D40F82410601C5F
:1021C000C4B2032CFFF42DAF6348407DE8B300EEAA
:1021D000105AB8EE400ADFED610A20EE200AF0EE58
:1021E000408A5D48D0ED3A0A60EEA00A90ED3B1AB5
:1021F000D0ED3B1A41EE210A90ED3C1AD0ED3C1A8D
:1022000041EE210AB0EE600A0FF044FF554880ED20
:102210001C0A514890ED3A0AD0ED3D0A30EE600AB2
:102220008DED010A90ED3B0AD0ED3E0A30EE600ADA
:102230008DED020A90ED3C0AD0ED3F0A30EE600AC7
:102240008DED030AF5EEC08A00E021E0F1EE10FA10
:1022500018DDDDED010A60EEA00A9DED021ADDED4C
:10226000021A41EE210A9DED031ADDED031A41EE3B
:10227000210AB0EE600A0FF00DFFF0EE400A80EE8A
:10228000A80A01E09FED3B0A364880ED1D0A31E0C7
:10229000B5EEC08AF1EE10FA0BDDB0EE690AFFF779
:1022A000A7F92D48D0ED300A60EE200A80EE880AAA
:1022B00001E09FED300A2B4880ED1C0AB5EEC08A84
:1022C000F1EE10FA11DDB0EE690AFFF769F9F0EEF0
:1022D000408A10F002FB2048D0ED300A60EE200A60
:1022E00028EE081A80EE810A01E09FED220A1D48BF
:1022F00080ED1D0A1A48806E1A4988671648C06822
:10230000C86717480078052803D113480068301AB9
:1023100000E000201349C1F880000F48407D81F89B
:1023200088000D48807D81F889000B48006EC1F857
:102330008C000948407D20B10748D0F8B400301A1D
:1023400000E000200749C1F88400084604F062F963
:1023500004B0BDEC048B70BD200D00206F12833AD9
:10236000AC0C0020E0CA012030C801202C0E002057
:102370000AD7233C0000000010B52E482E4BD3E9AD
:1023800007215B6AC0E902134260002429E094B986
:1023900028481C3000EB8400D0ED000A26481C3091
:1023A00000EB840090ED001A70EEC10AB0EE600AF6
:1023B00000F05EF80DE01F481C3000EB840090ED4B
:1023C000000A1D481C3000EB8400D0ED000A30EEFE
:1023D000600A1848283000EB840080ED000A601C79
:1023E000C4B2032CD3D3134913488030D0E90A2355
:1023F000006BC1E90F2348644831A1F10C00FFF7DD
:102400007DF80C4880ED1C0A0B49B1F80720828644
:10241000497A80F83610373007494A890280097BAB
:1024200081700648C068034948660448008AA1F8DC
:102430006C0010BDAC0C002030C80120200D002025
:1024400010B50446D4ED000A60EEA00A94ED011A1E
:10245000D4ED011A41EE210A94ED021AD4ED021ACC
:1024600041EE210AB0EE600A0FF014FE10BD00002C
:1024700005E0DFED0E0A70EE600AB0EE600ADFEDF7
:102480000C0AB4EEE00AF1EE10FAF2DC05E0DFED42
:10249000070A70EE200AB0EE600ADFED060AB4EE1D
:1024A000E00AF1EE10FAF2D3704700000000B443E6
:1024B00000003443000034C370B52DED028B054697
:1024C000B0EE408A05EB85001C4901EBC0049FED8E
:1024D0001C0AF0EE408A18EE100A0FF0C1F918B984
:1024E0000020BDEC028B70BD94ED040A30EE680A4A
:1024F000B4EEC80AF1EE10FA0AD894ED050A30EEEF
:10250000280AB4EEC80AF1EE10FA01DB0120E8E770
:1025100094ED060A30EE680AB4EEC80AF1EE10FA3D
:102520000AD894ED070A30EE280AB4EEC80AF1EE94
:1025300010FA01DB0220D4E70320D2E7D0CC01203F
:10254000CDCC4C3E01460548C26C12B1881A002819
:1025500001DD012070470020FCE7000070CD012064
:1025600010B504460CB9012010BD2046FFF7EAFF64
:1025700058B108488069A04207D00648006AA042C6
:1025800003D00448806AA04201D10120ECE700207A
:10259000EAE70000D4CB01202DE9F0412DED028BBC
:1025A0000546B0EE408A0F464DB118EE100A0FF006
:1025B00057F920B1B5EEC08AF1EE10FA04D8002028
:1025C000BDEC028BBDE8F08100241FE005EB840028
:1025D00090ED000A10EE101A08460FF041F908B904
:1025E0000020EDE705EB8400D0ED000AB0EE600AB4
:1025F0002046FFF761FF064626B1032E02D01FB921
:10260000012E01D00020DBE7601CC4B2032CDDD317
:10261000002411E005EB8400D0ED000AB0EE600A62
:102620003A46F0EE480A2946204602F063FC08B913
:102630000020C5E7601CC4B2032CEBD30120BFE728
:102640000146002903DD082901DC01207047002034
:10265000FCE7000070B500240AE004EB84000649A2
:1026600051F8305015B1284606F02FF8601CC4B25E
:10267000032CF2D370BD0000D0CC012010B52DED9D
:10268000028BB0EE408A0D4890F8240020B99FEDEF
:102690000C0ABDEC028B10BD18EE100A0FF0E0F82A
:1026A00010B99FED080AF4E79FED070A38EE400ADB
:1026B000F7EE000A20EE200AEBE7000048CD0120EB
:1026C000000000000000C07F00003443F0EE400A2C
:1026D0009FED020A30EE600A70470000000034C32C
:1026E000F0EE400A9FED020A30EE600A70470000EB
:1026F000000034C310B50B2001F03CF810BD000001
:10270000F0B52DED028B89B004469FED5A0AB0EE6C
:10271000408A24B9032009B0BDEC028BF0BD207EB5
:1027200008B10420F7E7207920B12079012801D0F1
:102730000320F0E794F8200018B394ED090A10EE96
:10274000101A08460FF08CF888B194ED090ADFEDF5
:102750004A0AB4EEE00AF1EE10FA08D394ED090A41
:10276000DFED460AB4EEE00AF1EE10FA01DD0320D7
:10277000D1E794ED090ADFED3F0A30EE200AB0EE12
:10278000408A3F48007801280ED13D4840780C2807
:102790000AD13B48807838B99FED3A0A02F0A2FE90
:1027A00010B903F0ADF808B90220B4E703F0BEFB9E
:1027B00008B10120AFE7202101A8FDF747FF6079AC
:1027C00078B92079012805D101A904F1080002F0A7
:1027D0003DFC04E001A904F1080002F0BFFA05463F
:1027E0001FE094ED050AB5EEC00AF1EE10FA02DD25
:1027F00094ED050A01E09FED240AF0EE408A20796D
:10280000012806D1B0EE680A04F1080001F036FA9A
:1028100005E0B0EE680A04F1080001F0CBF80546C7
:1028200000BFCDB994F82000A0B1B0EE480A03F083
:102830009FF906461EB103F0EBFA30466BE707F04E
:1028400001FB0746D4ED090AB0EE600A394620685C
:1028500000F0D8F900205EE7012D01D101205AE7F0
:10286000022D01D1022056E7032D01D1032052E7AA
:10287000062050E70000B442000070C20000704221
:1028800030C8012000008C420000E14370B50446CE
:1028900024B104F1080000F009FE08B9032070BD5E
:1028A0001948007801280ED1174840780C280AD121
:1028B0001548807838B99FED150A02F013FE10B95B
:1028C00003F01EF808B90220E9E703F02FFB08B176
:1028D0000120E4E7207920B904F1080003F0BAFBF5
:1028E00003E004F1080003F03DFB05460DB90020AC
:1028F000D5E7012D01D10120D1E7022D01D1022020
:10290000CDE70620CBE7000030C8012000008C4254
:1029100010B5044624B194F8240008B1042010BD79
:102920000C48007801280ED10A4840780C280AD1BA
:102930000848807838B99FED080A02F0D3FD10B935
:1029400002F0DEFF08B90220E9E7204603F000FCB0
:10295000E5E7000030C8012000008C422DE9F0417D
:1029600004462C48007801280DD12A4840780C28CC
:1029700009D12848807830B99FED270A02F0B2FDCE
:1029800008B9012000E00020054614B90320BDE885
:10299000F081207806283AD2DFE800F03A030B10E5
:1029A0001A240DB90220F2E7012003F0B1F800204B
:1029B000EDE7002003F0ACF80020E8E70DB90220B5
:1029C000E5E7D4ED010AB0EE600A03F0B9F8DEE7FE
:1029D0000DB90220DBE7D4ED020AB0EE600A03F085
:1029E000C7F8D4E7002003F093F80A48D0ED300A86
:1029F000B0EE600A03F0D4F806469FED080A03F033
:102A0000B7F807460EB13046C1E73846BFE700BF0A
:102A10000320BCE730C8012000008C420000B44213
:102A200010B52DED0A8BF0EE409AB0EE608AB0EE54
:102A300041AA044614B9BDEC0A8B10BD9FED2D0AC6
:102A400069EE80AA9FED2B0A28EE00BAB0EE4A0A82
:102A5000FFF746FE30EE080ADFED260A60EE20BAE8
:102A6000B0EE4B0A0FF05EF9DFED230A60EE20CAEC
:102A7000B0EE6B0A0FF056F9DFED1F0AB0EE6CCA2C
:102A800000EE80CA9FED1D0A7CEE008A9FED1B9A26
:102A9000B0EE6A0A0FF046F960EE28CAB0EE6A0A94
:102AA0000FF030FA49EE40CAC4ED00CAB0EE6A0A2F
:102AB0000FF028FA60EE28CAB0EE6A0A0FF032F979
:102AC00049EE00CAC4ED01CAB0EE4B0A0FF01AFA83
:102AD000DFED0BCADFED080A40EE80CAB0EE6B0AEC
:102AE0000FF010FADFED040A40EE80CAC4ED02CA0E
:102AF00000BFA0E735FA8E3C0000824300000000D2
:102B00000000784270B505460DB9002070BD00BFC9
:102B1000EFF31080044672B6BC2204492846FDF744
:102B200039FD04B962B60120F0E70000D4CB0120E2
:102B300030B5094CA06284F82C1084F82D2084F85C
:102B40002E30246A844206D10024034D2C6285F87D
:102B5000244085F8254030BDD4CB01202DE9F0413B
:102B600004460D4617461E460CB9BDE8F0813A46AC
:102B70002946204600F024F80448846280F82C504E
:102B800080F82D7080F82E6000BFEEE7D4CB0120D6
:102B900010B50446084890F8300028B1064A11796B
:102BA0001068224600F00CF80020034981F830003C
:102BB00002498861087710BD70CD0120D4CB012077
:102BC00010B500B910BD094B186383F8341083F8B1
:102BD00035201B6A834206D10023044C236284F80B
:102BE000243084F8253000BFECE70000D4CB01206E
:102BF000034B186283F8241083F8252070470000E7
:102C0000D4CB01200122054B83F850201A46506591
:102C100082ED170A01F516729A65704770CD012092
:102C20000146084890F8500008B900207047054850
:102C3000806D081A04D40020024A82F85000F5E79B
:102C40000120F3E770CD01201FB59FEDA50A8DEDA2
:102C5000000AF421A348FDF7F9FC4FF49E71A24845
:102C6000FDF7F4FC8021A148FDF7F0FC9021A0487D
:102C7000FDF7ECFC64219F48FDF7E8FCBC219E4871
:102C8000FDF7E4FC40219D48FDF7E0FC78219C48DD
:102C9000FDF7DCFC28219B48FDF7D8FC60219A4811
:102CA000FDF7D4FC0020944908719FED8D0A9448EB
:102CB00080ED010A9FED8A0A80ED020AB7EE000A54
:102CC00080ED030A9FED910A80ED040A9FED900AC2
:102CD00080ED050A9FED8F0A80ED060A9FED8E0AB2
:102CE00080ED070A9FED7E0A80ED0B0A9FED8B0AAF
:102CF00080ED0C0AB7EE000A80ED0D0A9FED880A00
:102D000080ED0E0A9FED850A80ED0F0AB3EE040AEE
:102D100080ED100A9FED830A80ED110A9FED700A85
:102D200080ED150A9FED790A80ED160AB7EE000ACC
:102D300080ED170A9FED7C0A80ED180A9FED7B0A53
:102D400080ED190A9FED7A0A80ED1A0ABBEE040A9B
:102D500080ED1B0A002001900290039075480190BD
:102D600002208DF80D0000208DF80E000320ADF834
:102D700008001320ADF80A0006208DF80C0001A809
:102D800005F034FD5E4908600220ADF8080012200D
:102D9000ADF80A0007208DF80C0001A805F026FD0B
:102DA000574988620120ADF808001120ADF80A00EB
:102DB00006208DF80C0001A805F018FD50490865A3
:102DC00008460068D0B10846806AB8B10846006D70
:102DD000A0B108460068808E40F2031188420DD1F0
:102DE0004748806A808EB0F5817F07D14448006DE6
:102DF000808E891E884201D1012000E000203949DF
:102E0000C870684600F02CFC36490871FF208871B4
:102E100000204870087081F8F00007F013F8394975
:102E2000086008460068486008460068086100209D
:102E300081F8230081F8240001202B490873002128
:102E4000294841738173C1730174022141749FED5C
:102E50003A0A80ED050A9FED390A80ED060A9FEDDA
:102E6000370A80ED070A9FED1E0A80ED080A9FEDE4
:102E7000340A80ED090A9FED330A80ED0A0A002129
:102E8000C162016300201D49087048700220487229
:102E90000320C8729FED2C0A084680ED030A9FEDBF
:102EA000100A80ED040AB2EE040A80ED050A154806
:102EB0000068886304F0CCFE02F0D2FC03F012F844
:102EC0000848C07810B10748007918B9012000F00F
:102ED00051FC1FBD02200349087000BFF9E7000044
:102EE0000000000030C8012024C9012060CA012070
:102EF000E0CA012070CB0120D4CB012090CC01206E
:102F0000D0CC012048CD012070CD01200000B4C2FA
:102F10000000B4420000DCC20000DC420000344388
:102F200000000C420000484300003EC3000020C2E5
:102F3000000052C370010020000070430000C07FF9
:102F400000007042000070C200007A432DE9F04F8B
:102F50002DED108B83B005460E4614469FEDF00A0A
:102F6000B0EE40EA4FF00009CA46CB462CB9032028
:102F700003B0BDEC108BBDE8F08F20212046FDF79B
:102F800065FB85B37EB395ED000A10EE101A084676
:102F90000EF06FFC38B395ED010A10EE101A0846DA
:102FA0000EF067FCF8B195ED020A10EE101A084613
:102FB0000EF05FFCB8B196ED000A10EE101A08464C
:102FC0000EF057FC78B196ED010A10EE101A084683
:102FD0000EF04FFC38B196ED020A10EE101A0846BA
:102FE0000EF047FC18B9032020702078C0E7D5ED1B
:102FF000000A60EEA00A95ED011AD5ED011A41EE26
:10300000210AB0EE600A0FF045F8B0EE408A95ED67
:10301000020ADFEDC40A70EE608A18EE100A0EF0A4
:1030200028FC20B118EE900A0EF023FC18B90720F6
:10303000207020789CE79FEDBC0A08EE080AB5EEE8
:10304000C00AF1EE10FA03D20420207020788FE736
:103050009FEDB30A18EE080AF0EE400A9FEDB00AA1
:103060000EF008FFB0EE409A0FF014F8F0EE409A20
:103070009FEDAD0AB4EEC08AF1EE10FA0ADD95EDCF
:10308000001AF0EE410A95ED011AB0EE410A0EF079
:10309000BDFC05E096ED000ADFEDA40A20EE200A53
:1030A000F0EE40DA0027DAE09FED9F0AF4EEC09AD6
:1030B000F1EE10FA02D8012F00D1CEE017B9B0EE30
:1030C000690A01E0B1EE690AF0EE40BA9FED940A98
:1030D0007BEEC0AAF0EE6B0A9FED910A0EF096FC13
:1030E0003DEEC00ADFED920A20EE200AB0EE40AAC3
:1030F00000F01CFBB0EE40CA2AEEAA0A08EEA80AAD
:10310000DFED8C0A30EE600ADFED8A0A30EE600AED
:10311000DFED890A80EE209A19EE100A0EF0A9FB65
:1031200018B907202070207822E79FED840AB4EEBA
:10313000C09AF1EE10FA06D39FED810AB4EEC09A60
:10314000F1EE10FA00DD88E04FF0010AB7EE001A48
:10315000FFEE000AB0EE490A00F06CFAB0EE409AB9
:103160004FF0000875E0B0EE490A0EF0C3FBB0EE78
:1031700040BAB8F1000F03D0B1EE4B0AB0EE40BA3E
:10318000F0EE6A0AB0EE680A0EF040FCF0EE40FA8B
:10319000B0EE4B0A0EF0C6FDDFED6A0A9FED691A2C
:1031A00041EE000AF0EE60EAB0EE4B0A0EF0AAFE25
:1031B000DFED640A20EE200AB0EE40FAF0EE6E0A6F
:1031C0000EF024FC7FEEC0CA9FED590A2BEE00DA08
:1031D0008DED00CA9FED560A2CEE800A8DED010A96
:1031E000B0EE4D0AFFF772FA8DED020A684600F064
:1031F0005DF900B929E04FF0010B6846FDF728FCA6
:1032000000B922E06078401C60703146684600F0EA
:10321000C1F9B0EE40AA1AEE100A0EF02AFB18B956
:10322000072020702078A3E6B9F1000F04D0B4EE97
:10323000CEAAF1EE10FA07D24FF00109B0EE4AEA39
:103240009DE80700231D07C300BF08F1010000F03F
:10325000FF08B8F1020F86D300BF781CC7B2022F57
:10326000FFF422AFB9F1000F0FD1BBF1000F02D074
:103270000620207007E0BAF1000F02D00520207070
:1032800001E004202070207872E6D4ED031AB0EE3D
:10329000611AD4ED021AF0EE610AD4ED011AB0EE13
:1032A000610A04F11000FFF7BBFBD4ED040A95EDB1
:1032B000001A70EEC10A60EEA00A94ED051AD5ED71
:1032C000011A31EE611AD4ED051A95ED012A71EE5D
:1032D000C21A41EE210A94ED061AD5ED021A31EE1A
:1032E000611AD4ED061A95ED022A71EEC21A41EE6A
:1032F000210AB0EE600A0EF0CDFE84ED070A94EDCF
:10330000070A10EE101A08460EF0B3FA18B9072093
:10331000207020782CE600202070207828E600001D
:10332000000000000000784217B7D13835FA8E3C13
:10333000E02E65420008844700080448470380BF28
:103340004703803F0000824370B52DED028B054698
:10335000B0EE408A2846FDF7C9FB20B118EE100AEE
:103360000EF07EFA20B99FED150ABDEC028B70BD00
:1033700005EB8500124901EBC004D4ED030AB0EE61
:10338000600AFDF7AFFAF6EE000AB4EEE00AF1EEDD
:1033900010FA02D29FED090AE7E794ED020A38EE2F
:1033A000400ADFED080A20EE200AD4ED030A80EE81
:1033B000201A94ED010A31EE000AD6E70000C07F22
:1033C000D0CC012035FA8E3C70B52DED028B054630
:1033D000F0EE408A0C46022D07D0B0EE680A28466F
:1033E000FFF7B2FFBDEC028B70BD54B194ED010A42
:1033F00010EE101A08460EF033FA10B194ED018A5F
:103400001BE0124890ED130A10EE101A08460EF059
:1034100027FA18B10D4890ED138A0EE00B4890ED95
:10342000120A10EE101A08460EF01AFA18B10748E0
:1034300090ED128A01E09FED068AF0EE480AB0EEA8
:10344000680A284600F006F8CCE70000D0CC01203E
:103450000000344310B52DED048B0446B0EE408AD5
:10346000F0EE608A022C19D1B0EE680AFFF706F977
:10347000B0EE409A18EE100A0EF0F2F920B119EEF3
:10348000100A0EF0EDF920B99FED070ABDEC048B90
:1034900010BD38EE490AB0EE408A00BFB0EE480ACF
:1034A0002046FFF751FFF1E70000C07F10B504464A
:1034B000BCB194ED000A10EE101A08460EF0D9F9CE
:1034C00078B194ED010A10EE101A08460EF0D1F909
:1034D00038B194ED020A10EE101A08460EF0C9F940
:1034E00008B9002010BD94ED000ADFED1C0AB4EE0F
:1034F000E00AF1EE10FA2EDB94ED000ADFED180A77
:10350000B4EEE00AF1EE10FA25D894ED010ADFEDF1
:10351000150AB4EEE00AF1EE10FA1CDB94ED010A94
:10352000DFED110AB4EEE00AF1EE10FA13D894EDD3
:10353000020ADFED0E0AB4EEE00AF1EE10FA0ADB41
:1035400094ED020ADFED0A0AB4EEE00AF1EE10FA99
:1035500001D80120C6E70020C4E700006666B4C2B7
:103560006666B44233330B423333344333333EC3A2
:1035700033331FC210B52DED028BB0EE408AF0EE52
:10358000608A78EE680AB0EE600A00F0CFF8BDEC11
:10359000028B10BD70B52DED068B04460D469FEDD8
:1035A000200AB0EE409A9FED1F0AF0EE409A9FED80
:1035B0001E0AB4EEC09AF1EE10FA06D99FED1A0A6F
:1035C000F4EEC09AF1EE10FA04D89FED180ABDECA3
:1035D000068B70BD95ED001AF0EE410A94ED001ACD
:1035E000B0EE410AFFF7C6FFDFED110A80EE20AA18
:1035F00094ED010AD5ED010A30EE600A80EE098AE9
:1036000094ED020AD5ED020A30EE600AC0EE298A76
:103610002AEE0A0A08EE080A08EEA80AD7E7000010
:10362000000011430000164317B7D1380000807F17
:103630000000B443F0EE401AF4EEE01AF1EE10FA96
:1036400002D2B0EE600A7047F4EEC11AF1EE10FA41
:1036500002DDB0EE410AF6E7B0EE610AF3E70000E2
:1036600010B52DED028B86B0044603A89FED291AF4
:10367000DFED290A9FED290AFFF7D2F99FED280A0D
:103680008DED000A9FED250A8DED010A9FED250ABB
:103690008DED020ADDED030A9DED001A70EEC10A00
:1036A00060EEA00A9DED041ADDED011A31EE611AFB
:1036B000DDED041A9DED012A71EEC21A41EE210AD8
:1036C0009DED051ADDED021A31EE611ADDED051AE8
:1036D0009DED022A71EEC21A41EE210AB0EE600A97
:1036E0000EF0D8FCB0EE408A0CB184ED008A18EEE2
:1036F000100A0EF0BEF858B19FED0B0AB4EEC08A66
:10370000F1EE10FA04D8012006B0BDEC028B10BD1A
:103710000020F9E70000B4C20000B442000000003D
:10372000000082430000A1430AD7233C05E0DFEDFF
:103730000E0A70EE600AB0EE600ADFED0C0AB4EE1D
:10374000E00AF1EE10FAF2DC05E0DFED070A70EEB8
:10375000200AB0EE600ADFED060AB4EEE00AF1EEF0
:1037600010FAF2D3704700000000B4430000344365
:10377000000034C310B5044604B90124174880780A
:1037800008B10B2C01D1154884700B2C01D10520F8
:1037900000E00420114908700B2C01D10E2000E03C
:1037A0000D200E4948700820FDF784F8FDF7CCF98C
:1037B00000200B4981F8240002F038FAFEF74AFF96
:1037C0000120074981F821000B2C02D00548C0795F
:1037D00010B1002002F09CF910BD000030C801209B
:1037E00048CD0120D0CD012010B52DED028B04462F
:1037F000F0EE408A0F4890ED130AB0EE408A012C9B
:1038000007D1B0EE680A204600F018F8BDEC028B34
:1038100010BD18EE100A0EF023F818B99FED060A35
:10382000B0EE408AF0EE480AB0EE680A204600F09A
:1038300033F8EBE7D0CC01200000344370B52DED18
:10384000028B0546B0EE408A2846FDF74FF920B1BD
:1038500018EE100A0EF004F820B99FED0C0ABDEC2A
:10386000028B70BD05EB8500094901EBC00494EDA6
:10387000030AD4ED010A78EE600A60EE200A94EDA6
:10388000020A9FED041A00EE810AE8E70000C07FFB
:10389000D0CC0120E02E654210B52DED048B0446FE
:1038A000F0EE409AF0EE608AB0EE690A2046FFF72B
:1038B000C5FFB0EE408A022C19D1B0EE680AFEF7BF
:1038C000DDFEB0EE409A18EE100A0DF0C9FF20B1EF
:1038D00019EE100A0DF0C4FF20B99FED060ABDECE9
:1038E000048B10BD38EE090AB0EE408A00BFB0EE7E
:1038F000480AF4E70000C07F10B52DED028B0446A6
:10390000B0EE408A2046FDF7F1F820B118EE100A1B
:103910000DF0A6FF20B99FED220ABDEC028B10BD71
:10392000022C2FD11F4890F8240050B31E48806A03
:1039300020B11D48806AD0ED020A01E0DFED1B0ACC
:10394000B0EE600A0120FFF7D7FFF0EE408A18EED4
:10395000900A0DF085FF10B99FED110ADDE704EB29
:103960008400114901EBC00090ED030A20EE080A23
:10397000DFED0F0A20EE200AF7EE000A00EEA80A9B
:10398000CBE700BF04EB8400074901EBC00090EDDA
:10399000030A20EE080ADFED060A20EE200ABCE743
:1039A0000000C07F48CD0120D0CC012000000000E5
:1039B000E02E65422DE9F0412DED048B92B00446D6
:1039C000B0EE408A06F03EFA074620210AA8FCF72E
:1039D0003DFE03208DF82800A2480078022807D079
:1039E000A0480078042803D09E480078032805D119
:1039F000012012B0BDEC048BBDE8F08154B394ED0E
:103A0000000A10EE101A08460DF03CFF10B394EDBA
:103A1000010A10EE101A08460DF034FFD0B194EDF3
:103A2000020A10EE101A08460DF02CFF90B118EEA5
:103A3000100A0DF027FF68B1B7EE000AB4EEC08A95
:103A4000F1EE10FA06D39FED880AB4EEC08AF1EECB
:103A500010FA05DD9DF82800FDF7EEFD0320C8E70C
:103A6000FDF7F4FC28B99DF82800FDF7E5FD0220DC
:103A7000BFE77E4890ED070A8DED040A90ED080A35
:103A80008DED050A90ED090A8DED060A04A8FFF7F1
:103A90000DFD18B104A8FCF7DBFF20B90620FDF7E7
:103AA000CBFD0420A5E7DDED061AB0EE611ADDEDD1
:103AB000051AF0EE610ADDED041AB0EE610A6C48F9
:103AC000FEF7AEFF21466A48FDF718FDF0EE408A8A
:103AD00018EE900A0DF0D6FE20B90720FDF7ACFDD8
:103AE000032086E79FED630AF4EEC08AF1EE10FA38
:103AF00004D80021204601F031F97AE7B7EE000A38
:103B0000C8EE800AB0EE609AB0EE490A0EF0D4F822
:103B1000BCEEC00A10EE100A401C85B2022D02D382
:103B2000B5F5C07F04D90320FDF786FD042060E7CA
:103B30004F481838058200204D49183981F88D000A
:103B400001F5807004A90EC914300EC004A807C87E
:103B500001AB07C3012663E0681E00EE100AF8EE11
:103B6000400A00EE106AB8EE400A80EE201AB0EE6D
:103B7000419A94ED000A3E481838D0ED060A70EEDE
:103B8000600A90ED060A09EE200A8DED070A94ED11
:103B9000010AD0ED070A70EE600A90ED070A09EEFF
:103BA000200A8DED080A94ED020AD0ED080A70EEA5
:103BB000600A90ED080A09EE200A8DED090A0AAAAA
:103BC00001A907A8FFF7C2F9A8B99DED110AF6EE01
:103BD000000AB4EEE00AF1EE10FA0CDC0BA8FFF7D5
:103BE00065FC40B10BA8FCF733FF20B10BA901A87D
:103BF000FDF7B6FB28B99DF82800FDF71DFD042050
:103C0000F7E606EB46011A48FC3000EB81000BA9F1
:103C10000EC90EC00BA807C801AB07C3701C86B243
:103C2000AE4299DB28469FED141AF0EE480AB0EE3A
:103C3000680AFDF787F8804601A8FCF75FFF20B906
:103C40000320FDF7F9FC0220D3E604230222DFED76
:103C50000A0AB0EE480A414620460097FEF7F6F8F9
:103C60000020C6E6AC0C002000002F4430C8012024
:103C7000380D00200AD7233C000061452DE9F041B2
:103C80002DED048B9CB00446B0EE408A06F0DAF8C5
:103C90000746202114A8FCF7D9FC03208DF850001A
:103CA000B1480078022807D0AF480078042803D034
:103CB000AD480078032805D101201CB0BDEC048B71
:103CC000BDE8F08154B394ED000A10EE101A0846D6
:103CD0000DF0D8FD10B394ED010A10EE101A08464D
:103CE0000DF0D0FDD0B194ED020A10EE101A084686
:103CF0000DF0C8FD90B118EE100A0DF0C3FD68B1CB
:103D0000B7EE000AB4EEC08AF1EE10FA06D39FEDCA
:103D1000970AB4EEC08AF1EE10FA05DD9DF8500066
:103D2000FDF78AFC0320C8E7FDF790FB28B99DF852
:103D30005000FDF781FC0220BFE708A9204601F0F2
:103D400007FD20B90420FDF777FC0420B5E788487B
:103D500090ED070A8DED050A90ED080A8DED060A33
:103D600090ED090A8DED070A05A8FFF79FFB98B1B2
:103D700005A8FCF76DFE78B105A8FEF7F3F858B179
:103D8000DDED050AB0EE600A11A9DFED7A0A784888
:103D9000A83001F041FC20B90620FDF74DFC0420BD
:103DA0008BE7214611A8FDF7A9FBF0EE408A18EE3B
:103DB000900A0DF067FD20B90720FDF73DFC0320B8
:103DC0007BE79FED6D0AF4EEC08AF1EE10FA04D89D
:103DD0000021204601F03AF96FE7B7EE000AC8EE7D
:103DE000800AB0EE609AB0EE490A0DF065FFBCEEB5
:103DF000C00A10EE100A401C85B2022D02D3B5F5A0
:103E0000C07F04D90320FDF717FC042055E75B4869
:103E100005820120594981F88D0001F1800094E864
:103E20000E0010300EC01C3808A90EC91C300EC080
:103E3000A83811A90EC918300EC0DC3005A90EC96A
:103E400014300EC005A807C802AB07C3012669E0FD
:103E5000681E00EE100AF8EE400A00EE106AB8EE96
:103E6000400A80EE201AB0EE419A94ED000ADDED92
:103E7000110A70EE600A9DED110A09EE200A8DED1F
:103E80000E0A94ED010ADDED120A70EE600A9DED56
:103E9000120A09EE200A8DED0F0A94ED020ADDEDFB
:103EA000130A70EE600A9DED130A09EE200A8DEDEB
:103EB000100A0BA90EA801F04BFCF8B114AA02A934
:103EC0000BA8FFF743F8C8B99DED1B0AF6EE000AF0
:103ED000B4EEE00AF1EE10FA10DC15A8FFF7E6FAEE
:103EE00060B115A8FCF7B4FD40B115A8FEF73AF88B
:103EF00020B115A902A8FDF733FA28B99DF85000A2
:103F0000FDF79AFB0420D8E606EB46011C4800EBBF
:103F1000810015A90EC90EC015A807C802AB07C3BA
:103F2000701C86B2AE4293DB28469FED161AF0EE67
:103F3000480AB0EE680AFCF705FF804602A8FCF7C5
:103F4000DDFD20B90320FDF777FB0220B5E6042351
:103F50000122DFED0C0AB0EE480A414620460097E8
:103F6000FDF774FF0020A8E6AC0C002000002F44F1
:103F700030C80120000000000AD7233C200D00209B
:103F8000340E00200000614570B52DED028B054612
:103F90000E462DB9002036498860BDEC028B70BDFD
:103FA000002455E005EB840090ED000A10EE101A95
:103FB00008460DF055FC60B104EB84002D4A02EB7D
:103FC000C00090ED090A10EE101A08460DF048FCEA
:103FD00018B9002026498860DFE705EB840090EDE2
:103FE000000A04EB8400234901EBC000D0ED090A6C
:103FF00070EE608A04EB840051F83000D0ED020AC4
:10400000B0EE600A2046FFF777FCB0EE408A18EE6B
:10401000100A0DF025FCA8B1B0EE680AFCF762FCAE
:10402000F7EE000AB4EEE00AF1EE10FA0ADCB0EEA8
:10403000480AFCF757FCF0EE000AB4EEE00AF1EE95
:1040400010FA03DD00200A498860A6E7601CC4B2AC
:10405000032CA7D30648806808B905488660044841
:104060008068301A782801D3012096E7002094E771
:1040700048CD0120D0CC0120094890F8330058B930
:10408000074890F8310038B9054890F8320018B95F
:10409000034890F8340008B1012070470020FCE785
:1040A00070CD0120F0B52DED028B83B00546B74CE5
:1040B000207880B9607808B101F048F9002060707C
:1040C000A070022060710020B14981F8230003B084
:1040D000BDEC028BF0BDAE4890F82300D8B90120AA
:1040E000AB4981F82300084605610220607000207A
:1040F000A070E0702071022060719FEDA60A84ED2F
:10410000030A9FEDA40A84ED040A00202062606A7D
:10411000401C6062DBE705F095FE0746FCF7F0FB0C
:1041200028B1FCF731FC10B1FCF714FC20B90720D2
:10413000607002206071CAE794ED020A10EE101A56
:1041400008460DF08DFB30B194ED020AB5EEC00AC1
:10415000F1EE10FA04D80720607003206071B6E712
:104160008B480069281A20626078082873D2DFE83B
:1041700000F0F4045B8EA6CAF5FE002640E006EBD4
:104180008600854901EBC00090ED080A06EB860029
:1041900001EBC000D0ED090A30EE608A06EB860024
:1041A00051F83000D0ED020AB0EE600A3046FFF759
:1041B000A3FBF0EE408A18EE100A0DF051FBD0B1CF
:1041C00018EE900A0DF04CFBA8B1B0EE480AFCF7CF
:1041D00089FBF7EE000AB4EEE00AF1EE10FA0ADC11
:1041E000B0EE680AFCF77EFBF0EE000AB4EEE00ADF
:1041F000F1EE10FA02DD0120607103E0701CC6B21E
:10420000032EBCD300BF032E00D2BBE0012060719F
:104210005F480069281AB0F57A7F00D2B2E000202A
:10422000E07002206070ADE05C48FFF73FF920B914
:104230000720607006206071A4E0D4ED020AB0EEA1
:10424000600A00215548FEF7A7F928B907206070D9
:104250000620607196E08FE04D48056100204C49D2
:104260008860A0700120E0709FED4A0A84ED030A87
:104270009FED480A84ED040A484A07CAC4E90612B9
:104280006061002020626071032060707AE029463E
:104290004248FFF779FE30B10020A0700120607124
:1042A000042060706EE03A480069281A46F2A811AE
:1042B000884203D3072060700220607162E0384AB0
:1042C00007CA8DE80700684601F04CFE074647B173
:1042D00007206070012F01D1012000E006206071ED
:1042E00050E09DE80700C4E90612606128480561B6
:1042F0000020274988600220E07000202062607161
:10430000052060703EE0264A0C3207CA8DE807009F
:1043100001F00CFE88B92348007806280DD1294603
:104320006846FFF731FE40B10020A07001202071E7
:10433000002060710620607024E015480069281A8A
:1043400046F2A811884205D301F062FD0720607093
:104350000220607116E00AE000E00EE000F0F6FFD7
:104360000020A07001202071002060710AE001F09F
:104370004FFD00F0EBFF05E000BF0020044981F88D
:10438000230000BF00BF00BFA1E6000030C901202C
:1043900048CD01200000C07FD0CC01203C46010860
:1043A00048460108AC0C002070B50546F848806B03
:1043B000281AF749C863084600780D2873D2DFE849
:1043C00000F00716395373B7F4F2F1F0EFEEED0099
:1043D000284600F069FBEF4840780C2806D1012000
:1043E000ED4981F82400294600F0AEFCF4E12846AE
:1043F00002F094F8E948407B062802D02846FFF7EF
:1044000051FEE648407B072807D10420E049487266
:1044100029460C2000F098FC0BE0E048407B062881
:1044200007D10120DC4981F824002946022000F050
:104430008BFCD1E101F064FA20B12946032000F0A1
:1044400083FC10E001F0E4F88078072804D0D0481D
:10445000C06BB0F5FA5F06D30220CD4948722946F9
:104460000C2000F071FCB7E12846FCF749FA28B1AE
:10447000FCF78AFA10B1FCF76DFA20B929460C2036
:1044800000F062FCA8E1C248C06BB0F5FA7F09D326
:10449000BF49497809B1042100E00B2108462946AB
:1044A00000F052FC98E185E1B9491831A1F10C0006
:1044B00001F04EF940B90420B5494872C872294646
:1044C0000C2000F041FC87E19FEDB50AB0480C30AC
:1044D000FFF7D4FB0446AE484472B24890F854004B
:1044E000AB49C87224B129460C2000F02DFC73E1C1
:1044F000A748AC4B1C330ECB24300EC03038D0ED67
:104500000A0A90ED0B1ADFEDA81A31EEC11A70EE0F
:10451000810AB0EE600A01F099FA9D4880ED0C0A1C
:1045200001209B4988702946052000F00DFC53E1CD
:10453000284601F0F3FF01F0F9FCF8B9994800783A
:1045400006281BD1974890ED180AF7EE000AB4EE42
:10455000E00AF1EE10FA11DB01F05AF890F82000B1
:1045600060B901208A49C87000204872012001F01A
:10457000CFFA2946062000F0E7FB0EE08448C06B26
:1045800046F2A811884208D301F042FC022080497B
:10459000487229460C2000F0D7FB1DE10BE1EEE04C
:1045A000C9E09CE05FE03CE0FFE7284601F0B6FF91
:1045B0002846FCF7A5F928B1FCF7E6F910B1FCF79D
:1045C000C9F950B9002001F0A3FA022070494872DD
:1045D00029460C2000F0B8FBFEE09FED740A6C4801
:1045E00080ED0D0A9FED710A01F0C2FA68498872E8
:1045F0000846807A30B9012048712946072000F02A
:10460000A3FB0DE06248807A012809D0002001F068
:104610007FFA02205E49487229460C2000F094FB84
:10462000DAE0284601F07AFF2846FCF769F928B15C
:10463000FCF7AAF910B1FCF78DF950B9002001F090
:1046400067FA02205249487229460C2000F07CFB90
:10465000C2E04F48C06BB0F5167F03D3294608204F
:1046600000F072FBB8E0284601F058FF2846FCF73E
:1046700047F928B1FCF788F910B1FCF76BF950B98C
:10468000002001F045FA02204149487229460C20D9
:1046900000F05AFBA0E09FED460A3D4880ED0D0A70
:1046A0009FED430A01F064FA394988720846807A1E
:1046B00030B9022048712946092000F045FB0DE081
:1046C0003348807A012809D0002001F021FA022025
:1046D0002F49487229460C2000F036FB7CE0284622
:1046E00001F01CFF2846FCF70BF928B1FCF74CF948
:1046F00010B1FCF72FF950B9002001F009FA02209F
:104700002349487229460C2000F01EFB64E0204833
:10471000C06BB0F5167F0DD3002001F0F9F9012030
:104720001B49887108710020C871087229460A2047
:1047300000F00AFB50E0284601F0F0FE1448C07972
:1047400068B901201249C871FCF7FCF938B9012099
:104750000F49087229460B2000F0F6FA3CE00C489D
:10476000C06B40F6B831884208D3FCF7EDF9012060
:104770000749087229460B2000F0E6FA2CE00120D8
:10478000044908700C204870284601F0C7FE23E059
:1047900090CC012030C8012048CD012024C901203F
:1047A00000007A43AC0C0020000034C30000074333
:1047B0000000344200BFFCF7C7F901F037FA0020CF
:1047C00001F0A6F901F024FB0420044908700D2033
:1047D0004870FF20887100BF00BF70BD30C8012045
:1047E00070B598B00646AD4890F83300002831D037
:1047F000AA48056C0020A94981F8330081F83100EE
:1048000081F8320081F834008864084690F830005E
:1048100030B10A461179022310680622FEF79EF98C
:104820000620FEF7B5F99E4A92F824100223106A7A
:104830000622FEF793F9022207212846FEF7D8F94F
:10484000FDF758FF0023032207212846FEF770F9E1
:1048500018B070BD914890F8310020B38F48856B37
:1048600000208E4981F83100084690F8300030B1C0
:104870000A461179002310680522FEF76FF905201A
:10488000FEF786F9864A92F824100023106A052262
:10489000FEF764F9FCF75AF90023032206212846A3
:1048A000FEF746F9D4E77D4890F83200D8B17B484E
:1048B000C56B0020794981F83200794890F82400CE
:1048C000032807D1764A92F824100023106A0522A3
:1048D000FEF72EF900F064FC002303220521284690
:1048E000FEF726F9B4E76D4890F8340058B36B48EA
:1048F000456C0020694981F83400084690F8300082
:1049000030B10A461179022310680622FEF726F913
:104910000620FEF73DF9624A92F824100223106A3D
:104920000622FEF71BF9022208212846FEF760F94D
:1049300000F0F4F95B48D0F8E80058498864304644
:1049400000F046F984E7554890F8300000B97FE759
:10495000302252490CA8FBF71DFE00204F4981F878
:1049600030004F49886108779DF83400012810D144
:104970000C9807909DF838008DF82000DDE90F12A3
:104980001198CDE909120B9007A8FDF77FFF0446A7
:1049900063E09DF83400022828D10C9802909DF81D
:1049A00038008DF80C000CA8407A8DF80D00DDE978
:1049B0000F121198CDE9041206909DED120A8DEDAB
:1049C000070A0CA8007F8DF820009DED140A8DEDDC
:1049D000090A9DF854008DF828009DED160A8DED0A
:1049E0000B0A02A8FDF78CFE044636E09DF8340061
:1049F000032828D10C9801909DF838008DF8080004
:104A0000DDE90F121198CDE9031205909DED120A10
:104A10008DED060A9DED130A8DED070A9DF85000F5
:104A20008DF820009DED150A8DED090A9DF85800BE
:104A30008DF828009DED170A8DED0B0A01A8FDF7F2
:104A400067FF044609E09DF83400042804D10EA84D
:104A5000FDF784FF044600E00424B4B99DF8340057
:104A6000032803D09DF83400042807D19DF83410A2
:104A7000002303220C98FEF75BF80DE09DF834103C
:104A800002220C98FEF7B4F806E09DF83410234695
:104A900004220C98FEF74CF800BFD9E670CD012037
:104AA000D4CB012030C8012070B505464448407879
:104AB00002281AD003DC38B1012879D109E0032893
:104AC00029D00C2874D15DE02946012000F0A0FA1D
:104AD00073E03C484068281AB0F5967F00D26CE03D
:104AE0002946022000F094FA67E000240CE004EB71
:104AF0008401354A52F8310003F0FAFD10B101216A
:104B000032480155601CC4B2032CF0D3294603205F
:104B100000F07EFA51E02B484068281A642812D32E
:104B20002848456000240CE004EB8401264A52F832
:104B3000310003F0DDFD10B1012124480155601C56
:104B4000C4B2032CF0D32846FBF7DAFEC8B100F05C
:104B5000FDFB00B931E0002408E004EB84011A4AAF
:104B600052F8310003F0E3FD601CC4B2032CF4D30F
:104B7000022013490870FF20887129460C2000F09C
:104B800047FA1AE00F484068281A64280ED30D48E7
:104B90004560002408E004EB84010B4A52F8310020
:104BA00003F0C5FD601CC4B2032CF4D305E0FFE79D
:104BB0002946002000F02CFA00BF00BF70BD0000A5
:104BC00030C8012048CD0120D0CC01202BC90120C4
:104BD0002DE9F04707464B48D0F8EC50D0F8E88074
:104BE0004948D0F8349002264648D0F8EC004845B1
:104BF00000D04D464348D0F8EC00404500D0454633
:104C00004048D0F8EC00A84201D1BDE8F0873D480B
:104C1000C0F8E8503C4845633A48807808B9032614
:104C20002DE03846FBF76CFE08B9042627E09FED1F
:104C3000370A00F057FC08B1052620E0FBF7BEFE5E
:104C400008B106261BE0002416E004EB840030497E
:104C500001EBC000D0ED090AB0EE600A2046FDF776
:104C60002BFC8246BAF1000F02D0BAF1030F01D13A
:104C7000072603E0601CC4B2032CE6D300BF214822
:104C800080F8F060C0F8EC501F48856380F83C6005
:104C9000022E00D0B9E7FDF7DDFC00201D4981F8A8
:104CA0002400002418E004EB8401194A52F8310072
:104CB00003F0A7FB38B90820124981F8F000124927
:104CC00081F83C00A1E704EB8401114A52F831005D
:104CD00003F00DFE601CC4B2032CE4D3002009498C
:104CE000887001200B4981F82200002081F8210002
:104CF0003946012000F08CF900200249087000BFFD
:104D000083E7000030C8012024C9012000008C4244
:104D1000D0CC012048CD0120704700000848D0F8D1
:104D2000E800401C0649C1F8E800012081F8F000C5
:104D30000846D0F8E80003494863012070470000A6
:104D400030C8012024C90120034A10709163002259
:104D5000014BDA637047000090CC012070B58CB035
:104D600004460D46202104A8FBF770FC03208DF8B3
:104D70001000BCB194ED000A10EE101A08460CF0B9
:104D800081FD78B194ED010A10EE101A08460CF07E
:104D900079FD38B194ED020A10EE101A08460CF0B5
:104DA00071FD60B99DF81000FCF746FC25B120228A
:104DB00004A92846FBF7EEFB03200CB070BDFCF7FE
:104DC00045FB58B99DF81000FCF736FC25B12022B0
:104DD00004A92846FBF7DEFB0220EEE7424890EDEF
:104DE000070A8DED010A90ED080A8DED020A90ED9B
:104DF000090A8DED030A04AA01A92046FEF7A6F8C8
:104E000080B99DED0B0AF6EE000AB4EEE00AF1EE71
:104E100010FA07DC05A8FEF749FB18B105A8FBF757
:104E200017FE58B99DF81000FCF706FC25B12022AA
:104E300004A92846FBF7AEFB0420BEE705A801F055
:104E400007FF58B99DF81000FCF7F6FB25B12022AA
:104E500004A92846FBF79EFB0220AEE70020234969
:104E600081F88D0001F1800094E80E001C300EC026
:104E7000283894E80E0010300EC01D4805A90EC950
:104E800010300EC01C3805A90EC91C300EC02838C1
:104E9000D4E901132268C0E9131382640020144985
:104EA00081F85400012081F8550081F85600B7EED2
:104EB000000A084680ED180A00204866886601202E
:104EC000A1F86C000020487004F0BCFF0646314693
:104ED0000620FCF7ABFE25B1202204A92846FBF7EB
:104EE00059FB002069E7000030C80120200D002098
:104EF000AC0C00202DE9F0412DED068B05468846CF
:104F0000B0EE408AF0EE608A1746032D0ED218EEFE
:104F1000100A0CF0A5FC48B118EE900A0CF0A0FCA9
:104F200020B1F5EEC08AF1EE10FA04D80020BDECF5
:104F3000068BBDE8F08105EB8500234901EBC00637
:104F4000B0EE480A2846FDF7B7FA044624B1032C10
:104F500002D01FB9012C01D00020E8E74146B0EE95
:104F6000480A2846FEF730FAB0EE409A9FED170A3D
:104F700028EE800AD6ED030A80EE201AB0EE41AA90
:104F8000B0EE4A0AFBF7AEFCF0EE409A19EE100ABA
:104F90000CF066FC60B119EE900A0CF061FC38B1BF
:104FA000F0EE690AB0EE490A306803F0E0FC08B997
:104FB0000020BCE786ED088A054800EB850080EDFF
:104FC000008A0120B3E70000D0CC012035FA8E3CE6
:104FD0005CC8012000B52DED048B83B0B0EE409A83
:104FE000B0EE608AF0EE418A8DED009A8DED018A77
:104FF000CDED028A6846FBF781FD20B9002003B0A1
:10500000BDEC048B00BD684601F022FEF7E700000E
:1050100010B50B4B5A7858700A4B59600023094C55
:10502000A360E3609FED080A234683ED050A0C2880
:1050300004D10C2A02D0002384F8233010BD0000D4
:1050400030C8012048CD01200000000070B52DEDD2
:10505000028B8EB004460D46202103A8FBF7F6FA1A
:1050600003208DF80C00BCB194ED000A10EE101A6C
:1050700008460CF007FC78B194ED010A10EE101A06
:1050800008460CF0FFFB38B194ED020A10EE101A3E
:1050900008460CF0F7FB70B99DF80C00FCF7CCFA51
:1050A00025B1202203A92846FBF774FA03200EB08D
:1050B000BDEC028B70BD0BA9204600F049FB68B91E
:1050C0000420FCF7B9FA3DB104208DF80C00202231
:1050D00003A92846FBF75EFA0420E8E72D4890ED87
:1050E000070A8DED000A90ED080A8DED010A90ED9A
:1050F000090A8DED020A03AA69460BA8FDF726FFEF
:10510000A0B99DED0A0AF6EE000AB4EEE00AF1EE4F
:1051100010FA0BDC04A8FEF7C9F938B104A8FBF7B4
:1051200097FC18B104A8FCF71DFF58B99DF80C00B6
:10513000FCF782FA25B1202203A92846FBF72AFAB8
:105140000420B4E729460BA8FFF708FE0646FEB97F
:105150000120114981F88D0001F1800094E80E00D2
:1051600010300EC01C380BA90EC91C300EC0A83858
:1051700094E80E0024300EC0084894E80E00483031
:105180000EC004A8FCF7A0FDB0EE408A00F008FDB8
:1051900030468CE730C80120200D0020AC0C0020E8
:1051A00010B500F0BFFF10BD70B504462CB12068EB
:1051B00018B12079FDF744FA08B9032070BD2079B1
:1051C000072808D02079062805D02079052802D0A4
:1051D0002079082845D100BFEFF31080054672B64C
:1051E0002068FDF7BDF918B105B962B60720E5E7FB
:1051F000207907280DD1514920680864012081F8E1
:105200003300002081F8310081F8320081F8340049
:1052100020E0FEF731FF18B105B962B60120CDE7F5
:105220002079062806D1454920688863012081F845
:1052300031000FE02079052806D140492068C86375
:10524000012081F8320005E03C49206848640120D3
:1052500081F8340039492068C86405B962B6002075
:10526000ACE72068FDF77CF908B10720A6E73448D1
:10527000007801280ED1324840780C280AD13048F5
:10528000807838B99FED2F0A00F02CF910B900F0A2
:1052900037FB28B9204600F0A9F908B902208DE7AC
:1052A000207903280ED1254890F8300040B92648CF
:1052B000006A28B900F03AFE98B100F0C5FE80B946
:1052C00001207BE71D4890F8300040B91E48006A75
:1052D00028B900F02BFE10B900F0B6FE08B101208D
:1052E0006CE700BFEFF31080054672B62068FDF74B
:1052F00037F918B105B962B607205FE70F4890F893
:10530000300010B9FEF7B8FE18B105B962B6012039
:1053100054E7302221460948FBF73CF901200749B0
:1053200081F830002068C8640749206888612079C6
:10533000087705B962B6002040E7000070CD012073
:1053400030C8012000008C42D4CB01203EB51C485F
:1053500090F8240000BB00241AE004EB84001949F3
:1053600051F830501DB1284603F018FA08B9002052
:105370003EBD04EB8400134901EBC00090ED090A27
:1053800004EB840001EBC00080ED080A601CC4B28D
:10539000032CE2D30120EBE70A4890ED090A8DEDDA
:1053A000000A90ED130A8DED010A90ED1D0A8DEDB6
:1053B000020A0121B1EE040A6846FDF7EDF8D7E7CD
:1053C00048CD0120D0CC012070B504F03BFD05464E
:1053D000284600F037FC284601F01EF92846FFF762
:1053E000FFF93B48807818B12846FFF7F1FB28E029
:1053F0002846FBF7F9FA18B10220FEF7BBF921E0C5
:105400009FED340A00F06EF818B10A20FEF7B2F9E9
:1054100018E0FBF705FB18B10320FEF7ABF911E02C
:105420009FED2D0A00F05EF840B1002000F070FB07
:1054300000F0EEFC02212948417403E02846FEF703
:10544000B3FF00BF284601F0E7F8214800780128A3
:1054500011D11F4840780C280DD11D48807850B9D3
:105460001B48007938B100BF1948D0ED300AB0EEC2
:10547000600A00F095FB1648D0ED070AB0EE600A0E
:1054800000F1B401DFED160AA83000F0C5F800F015
:10549000BFF8044660780E4981F8C800E07981F8C9
:1054A000C90001F18000D4E90312C0E91312803869
:1054B0006169C0F8D41094F82100054981F8D8003A
:1054C000606AC1F8DC0001F0EFFB01F01FFA70BD6B
:1054D00030C801200000A04200008C4224C90120F5
:1054E00000000000002117E001EB81000C4B53F895
:1054F00030207AB1D2ED040AF4EEC00AF1EE10FACF
:1055000006DAD2ED050AF4EEC00AF1EE10FA01DB7C
:1055100001207047481CC1B20329E5D30020F8E7F9
:10552000D0CC012010B52DED048B0446B0EE408A9E
:1055300018EE100A0CF0AFF918B1012C05D0022CAE
:1055400003D00020BDEC048B10BDB5EEC08AF1EE97
:1055500010FA03D29FED1E0AB0EE408A9FED1D0A9D
:10556000B4EEC08AF1EE10FA03DD9FED1A0AB0EE38
:10557000408A012C02D19FED180A01E09FED170A25
:10558000F0EE409A9FED169A9FED160A38EE400A0B
:10559000F0EE698A40EE098AF5EEC08AF1EE10FA63
:1055A00001D20020CEE79FED100AF4EEC08AF1EEA2
:1055B00010FA02DD4FF47A70C4E7B6EE000A38EE56
:1055C000800ABCEEC00A10EE100A80B2BAE70000F2
:1055D00000000000000034430000024400C01944F1
:1055E0001CC7B1400000B44200007A44014611B12A
:1055F0000879042801D000207047087A022802D0D8
:10560000087A052801D10120F6E70020F4E7000020
:1056100000487047D0CD012070B52DED088B0446B1
:10562000B0EE409AB0EE608A0D4614B30DB394ED1F
:10563000000A10EE101A08460CF02DF9C8B194EDCE
:10564000010A10EE101A08460CF025F988B194ED05
:10565000020A10EE101A08460CF01DF948B119EEB6
:10566000100A0CF018F920B118EE100A0CF013F91A
:1056700030B90120314948620020BDEC088B70BD73
:105680009FED2F0A29EE00AA9FED2D0A68EE008AF1
:10569000B0EE680A0CF046FBDFED2A0A20EE20BAD5
:1056A000DFED290A78EEE00AB0EE600A0CF03AFB72
:1056B000DFED260AF0EE4B9A40EE809AB0EE680AD3
:1056C0000CF020FCDFED1F0A20EE20BADFED1E0AF1
:1056D00078EEE00AB0EE600A0CF014FCDFED1B0A75
:1056E000F0EE4BAA40EE80AAB0EE4A0A0CF01AFB8C
:1056F000D4ED000A49EE800AC5ED000AB0EE4A0A70
:105700000CF000FCD4ED010A49EE800AC5ED010A57
:1057100094ED020A30EE2A0A85ED020A074894E861
:105720000E003C300EC0483895E80E0048300EC0E0
:10573000543880ED158A01209FE70000D0CD01206C
:1057400035FA8E3C33337142DB0FC93F00005842BB
:1057500070B52DED028B04460D46C4B1BDB194ED7C
:10576000000A10EE101A08460CF095F878B194ED86
:10577000010A10EE101A08460CF08DF838B194EDBD
:10578000020A10EE101A08460CF085F830B9012014
:10579000304948620020BDEC028B70BDD4ED000A98
:1057A00060EEA00A94ED011AD4ED011A41EE210A2F
:1057B000B0EE600A0CF06EFCB0EE408A18EE100AF3
:1057C0000CF069F830B19FED240AB4EEC08AF1EE16
:1057D00010FA04D804201F4948620020DBE79FED3F
:1057E0001E0A78EE408A94ED000A20EE280AC0EEE8
:1057F000080AC5ED000A94ED010A20EE280AC0EE61
:10580000080AC5ED010A94ED020ADFED140A30EE34
:10581000200A85ED020A95ED000A10EE101A0846DE
:105820000CF039F878B195ED010A10EE101A08461F
:105830000CF031F838B195ED020A10EE101A084656
:105840000CF029F820B90420024948620020A2E7A0
:105850000120A0E7D0CD012033337142000058422F
:1058600010B558212248FAF7F1FE07F067FB04460D
:1058700000224FF480511F4804F0DEFA1C480470E7
:1058800000201B49C871012081F821009FED1A0AF0
:10589000084680ED030A9FED190A80ED040A9FED8A
:1058A000160A80ED060A04F0CDFA1149C8610020FD
:1058B00081F820009FED100A0120FFF733FE0C490C
:1058C00088829FED0E0A0220FFF72CFE0849C8824D
:1058D000002048700CB1012000E0072004498870C6
:1058E00004F0B0FA024988630CB90320486210BD85
:1058F000D0CD012000040240000034420000B44238
:1059000010B5FFF785FE0446A078062801D10120D6
:1059100010BD0020FCE700002DE9F0472DED028BC3
:105920000646B0EE408A0F469146304600F0E8F851
:10593000044604F087FA82464348007838B90120CB
:10594000414948620220BDEC028BBDE8F087012E80
:1059500001D0022E08D1B0EE480A00F0B3F818B119
:1059600047F23050874204D9022037494862032069
:10597000E9E7B9F1000F1CD13348806BAAEB0000B6
:105980001E2801D20020DEE72F480C3000EB8400F7
:10599000D0ED000A78EE600AB0EE600A0CF0A2FFCB
:1059A000F6EE000AB4EEE00AF1EE10FA01D20020A1
:1059B000C9E7B0EE480A3046FFF7B4FD80463A46E4
:1059C0004146304607F0D2FA0546012D00D1BAE72C
:1059D0009DB11D48303050F82400401C1A49303128
:1059E00041F82400002118480830015500201649CC
:1059F0004870032048620220A5E71348283050F879
:105A00002400401C1049283141F8240001210E488F
:105A100008300155001D00EB840080ED008A0A4823
:105A2000143020F814801438C0F838A0007A20B15F
:105A30000548407A08B1012000E000200249487082
:105A40000020486200BF7EE7D0CD012010B52DEDCB
:105A5000028BB0EE408A18EE100A0BF01CFF50B11A
:105A6000B7EE000A0CF03EFFDFED0C0AB4EEE00AE0
:105A7000F1EE10FA04D29FED0A0ABDEC028B10BDC4
:105A80009FED080A28EE000AB7EE001AC0EE010AE0
:105A90009FED050A30EE800AEFE70000BD3786353E
:105AA0000000C07FCDCC4C3F0000B44210B52DEDBE
:105AB000028BB0EE408AB0EE480A00F003F8BDEC6D
:105AC000028B10BD10B52DED028BB0EE408A18EEA2
:105AD000100A0BF0E0FE78B1B5EEC08AF1EE10FAD4
