:020000040800F2
:10000000E88001204D0300087D8D00086963000829
:10001000B98B000863150008F5CE00080000000049
:100020000000000000000000000000008D02000839
:100030002B28000800000000E9020008E9990008E8
:1000400067030008670300086703000867030008E8
:1000500067030008670300086703000867030008D8
:1000600067030008670300086703000867030008C8
:10007000C923000867030008670300086703000836
:1000800067030008670300086703000867030008A8
:100090006915000879150008670300086703000860
:1000A0006703000867030008670300086703000888
:1000B0006703000867030008670300086703000878
:1000C00067030008670300086703000851940008ED
:1000D0006703000867030008670300086703000858
:1000E0006703000867030008670300086703000848
:1000F00067030008E59A0008670300086703000823
:100100006703000867030008670300086703000827
:100110006703000867030008670300086703000817
:10012000D923000867030008E9230008F923000821
:1001300067030008670300086703000867030008F7
:10014000891500089915000867030008B18E00089A
:1001500067030008670300086703000867030008D7
:1001600067030008670300086703000867030008C7
:100170006703000867030008670300080000000029
:10018000670300086703000800F002F800F06EF84B
:100190000AA090E8000C82448344AAF10107DA45E2
:1001A00001D100F063F8AFF2090EBAE80F0013F0C6
:1001B000010F18BFFB1A43F0010318473C0601006A
:1001C0007C0601000A444FF0000C10F8013B13F0CC
:1001D000070408BF10F8014B1D1108BF10F8015BA0
:1001E000641E05D010F8016B641E01F8016BF9D193
:1001F00013F0080F1EBF10F8014BAD1C0C1B09D1EA
:100200006D1E58BF01F801CBFAD505E014F8016B5B
:1002100001F8016B6D1EF9D59142D6D370470000ED
:10022000103A24BF78C878C1FAD8520724BF30C822
:1002300030C144BF04680C607047000000230024F4
:1002400000250026103A28BF78C1FBD8520728BFE6
:1002500030C148BF0B6070471FB50FF088FB9DE8A9
:10026000030000F019FA1FBD10B510BD00F0A6FA8A
:100270001146FFF7F1FF0DF0F1FE00F0C4FA03B4F0
:10028000FFF7F2FF03BC00F0F5FA00002C4B1968F1
:100290000868B0E8F04F80F30988BFF36F8F4FF024
:1002A000000080F3118870470000000008480068D3
:1002B000006880F308884FF0000080F3148862B66D
:1002C00061B6BFF34F8FBFF36F8F00DF00BF00BF7A
:1002D00008ED00E0DFF80C00016841F470010160F6
:1002E000704700BF88ED00E0EFF30980BFF36F8F28
:1002F000134B1A681EF0100F08BF20ED108A20E97A
:10030000F04F106009B44FF0500080F31188BFF334
:100310004F8FBFF36F8F0EF081FD4FF0000080F321
:10032000118809BC19680868B0E8F04F1EF0100F7A
:1003300008BFB0EC108A80F30988BFF36F8F704755
:10034000C0030020EFF30580704700000948804794
:1003500009480047FEE7FEE7FEE7FEE7FEE7FEE7A7
:10036000FEE7FEE7FEE7FEE704480549054A064BBF
:1003700070470000D19A000889010008E880002039
:10038000E8800120E8000120E800012070B5064661
:1003900000F066F9056806F10B0020F00704B4428E
:1003A0009CBF002070BD2B466A68BAB11068A0429D
:1003B00010D304F1080188423CBF5068586007D34D
:1003C0005168101941601168091B01605860146080
:1003D000101D70BD13465268002AE7D121462846F9
:1003E00000F046F90028DED170BD53EA020C00F09F
:1003F00069802DE9F04B4FF00006002B1FBFB3FAC8
:1004000083F503FA05F424FA05F65E4012BF16439D
:10041000B2FA82F502FA05F4C5F120051EBF22FAF0
:1004200005FC44EA0C04203556EA044C4FEA144417
:1004300018BF641C4FF000084FF00009904271EBA8
:10044000030C39D3002919BFB1FA81F701FA07F675
:10045000B0FA80F700FA07F6C7F120071EBF20FAAE
:1004600007FC46EA0C062037B6FBF4FCA7EB0507B1
:10047000103F07F01F0BCBF120060CFA0BFB2CFAF8
:1004800006F644BFB3460026202FA4BF5E464FF0B9
:10049000000B5BEA060C08BF4FF0010B19EB0B09D0
:1004A000ABFB027C48EB0608C01B06FB02CC0BFB37
:1004B00003CC71EB0C01C1E70B46024641464846AE
:1004C000BDE8F08B13B54FF000004FF00001AFF323
:1004D0000080BDE81C407047032A40F2308010F0D5
:1004E000030C00F0158011F8013BBCF1020F6244CF
:1004F00098BF11F801CB00F8013B38BF11F8013B60
:10050000A2F1040298BF00F801CB38BF00F8013B0C
:1005100011F0030300F02580083AC0F0088051F87C
:10052000043B083A51F804CBA0E80810F5E7121D87
:100530005CBF51F8043B40F8043BAFF30080D207A6
:1005400024BF11F8013B11F801CB48BF11F8012B72
:1005500024BF00F8013B00F801CB48BF00F8012B95
:10056000704710B5203AC0F00B80B1E81850203A1F
:10057000A0E81850B1E81850A0E81850BFF4F5AF43
:100580005FEA027C24BFB1E81850A0E8185044BFCD
:1005900018C918C0BDE810405FEA827C24BF51F83A
:1005A000043B40F8043B08BF7047D20728BF31F82E
:1005B000023B48BF11F8012B28BF20F8023B48BF7F
:1005C00000F8012B70474FF000020429C0F01280A0
:1005D00010F0030C00F01B80CCF1040CBCF1020FF6
:1005E00018BF00F8012BA8BF20F8022BA1EB0C01CB
:1005F00000F00DB85FEAC17C24BF00F8012B00F8C1
:10060000012B48BF00F8012B70474FF0000200B5E6
:10061000134694469646203922BFA0E80C50A0E825
:100620000C50B1F12001BFF4F7AF090728BFA0E8D3
:100630000C5048BF0CC05DF804EB890028BF40F89F
:10064000042B08BF704748BF20F8022B11F0804FE1
:1006500018BF00F8012B70477047704770470000C3
:10066000004870478C800020704770477047704783
:1006700038B504460A4600206946AFF300800028DA
:1006800008BF38BD02460099204600F075F80120E9
:1006900038BD012000F08AB8F8B5AFF300800546F8
:1006A00000200C46102000BF0646A819A0420DD914
:1006B000324669460020AFF30080070008BF00F013
:1006C00075F80098A04218BF0546C419FFF7C8FF87
:1006D00005600746F01D20F007004619284600F087
:1006E0000AF8B44208BFF8BDA21B31463868BDE81D
:1006F000F84000F041B800210160C0E901107047E6
:100700001020704770B50446051FFFF7A9FF006869
:10071000002C14BF446870BD002C18BFAC423CBF15
:1007200020466468F8D301680A18AA4218BF4560D9
:1007300003D12A6805461144016028684119A14285
:100740001CBF6C6070BD61686960216808442860E6
:1007500070BD10B500F00CF8006810BD10B504466F
:1007600000F006F8046010BD004870478480002047
:100770000048704784800020034640688C4600286B
:1007800018BF88423CBF03464068F8D31868184435
:10079000884207D00CF1030020F00700001D411A29
:1007A000521A0146081D0A60FFF7ACBF10B500F0F1
:1007B00039F8BDE8104000F02FB870477546FFF7D4
:1007C000D3FFAE4605006946534620F00700854634
:1007D00018B020B5FFF7C8FDBDE820404FF0000677
:1007E0004FF000074FF000084FF0000B21F0070119
:1007F000AC46ACE8C009ACE8C009ACE8C009ACE85C
:10080000C0098D46704710B50446AFF300802046FE
:10081000BDE81040FFF733BD002801D000F02AB832
:100820007047000010B5012805D0002103A000F09A
:1008300027F8012010BD09A1F8E7000053494752ED
:10084000544D454D3A204F7574206F6620686561A0
:1008500070206D656D6F7279000000003A20486568
:100860006170206D656D6F727920636F7272757043
:100870007465640001491820ABBEFEE72600020043
:1008800070B505460C460A2000E06D1C00F011F81A
:1008900035B128780028F8D102E0641C00F009F88E
:1008A00014B120780028F8D1BDE870400A20AFF3D9
:1008B000008008B569468DF800000320ABBE08BD76
:1008C0009FED221A9FED222A20EE010AB5EE001AB2
:1008D00030EE010ABDEEC01A11EE100AB5EE400A64
:1008E000F1EE10FAB8BF013801EE100AB8EEC11AE5
:1008F00030EE410A20EE020ABDEEC01A9FED152A25
:1009000011EE100A002130EE021AB1EB502F4FF613
:10091000F4711CBF0020B0EE410AC0F6000101EEE8
:10092000100A01EB8001B8EE411A30EE410A91ED58
:10093000001A91ED012AB7EE003A33EE403A23EE69
:10094000011A20EE020A31EE000A704783F9223EB6
:1009500000000044000000C4B0B5B0F800C00B882F
:100960009C4553D145884B889D424FD113889C4567
:100970004CD153889D4249D143684968506805FB72
:100980000CFC0022B2EB9C0F30D04FEA9C0200BF5F
:1009900093ED000A91ED001A03F1100E30EE010AFA
:1009A00080ED000A93ED010A91ED011A01F11004A6
:1009B00030EE010A80ED010A93ED020A91ED021A70
:1009C00000F1100530EE010A80ED020A93ED030AF2
:1009D00091ED031A013A30EE010A80ED030A7346E5
:1009E00028462146D4D12146284673461CF00302EE
:1009F0000AD000BFB3EC010AB1EC011A013A30EEA3
:100A0000010AA0EC010AF5D1002000E0FD2040B26F
:100A1000B0BD018042804360704700002DE9F04F77
:100A200081B02DED028B8EB0B0F800C0B0F802A0FE
:100A3000D44540F03A810B88FD229C4540F0368138
:100A40004F88BB4240F0328140689FEDB08ABCF1D4
:100A5000000F009000F031814C686FF0030000EB54
:100A60008C09002700266546CDF828C02046099449
:100A70000A98401B08D0B1002046FFF7C6FD384653
:100A8000013004F10404FBD304F1040BB5F10108B7
:100A90004FF07E50206012D0A9EB86015846FFF738
:100AA000B4FD01205C4600BF0130854204F104041E
:100AB000FAD10136013FB8F1000F4546D8D1DDF833
:100AC00028C0BCF1000F00F0F8804FEACA000430E3
:100AD00002900998009900EB8A00C0F100090420F7
:100AE00000EB8A00ACF1010801EB8A054FEA8A03AA
:100AF000019001F1040B4FF0000E0F465646002006
:100B00000A460490039300BF0EFB0AF002EB80013B
:100B100091ED000A0C910999B5EE400AF1EE10FA38
:100B200001EB80000D90CDF82080CDE906950B9269
:100B30002ED10EF1010060450DD20020414600BFCC
:100B40002A1892ED000AB5EE400AF1EE10FA06D12D
:100B500001391844F4D10498012817D0D4E0A0EB4F
:100B60000900002157F82130146842F8043B47F887
:100B7000214001318E42F5D10D9A51461368046827
:100B800040F8043B013942F8044BF7D101200490AE
:100B90000C99AAEB0E0991ED008AB9F1010F4FF003
:100BA0007E5008600DD00120594600BF91ED000A2B
:100BB000013080EE080A864281ED000A01F104014D
:100BC000F4D10D995046CDF814B000BF91ED000A54
:100BD000013880EE080AA1EC010AF7D1DDF82C807B
:100BE0000998A9F1010B0022654600BF724505D1A5
:100BF00008EB890300EB8A0036E000BF0C9998ED02
:100C0000008A91ED000ABBF1000F28EE000A38EED1
:100C1000400A88ED000A17D00123042107EB010CDC
:100C200008EB01049CED000A94ED001A28EE000A7E
:100C3000013331EE400A9E4201F1040184ED000AC5
:100C4000ECD108EB010301E008F104030D9C5146CF
:100C5000B4EC011A90ED000A28EE011A30EE410AB8
:100C6000A0EC010A0139F3D103EB8E08013D02F13A
:100C70000102BBD1079D02980B9ADDF82080054444
:100C8000039BDDF818900198DDF814B0DDF828C05A
:100C90000432013E0EF1010EA8F10108A9EB03098F
:100CA000074483447FF430AF09E0FD2250B20EB018
:100CB000BDEC028B01B0BDE8F08F00200490B5EED2
:100CC000408AF1EE10FA4FF00002EFD104980128AB
:100CD000ECD00AFB0CF14FF000004FF0000271B1B4
:100CE000009B00BF93ED000AB5EE400AF1EE10FA4A
:100CF00005D10132914203F10403F3D10A468A423D
:100D000008BF6FF00400D2E7FB22CFE7000000002D
:100D10002DE9F04F85B047880B889F4240F08480D2
:100D2000B0F800B013889B4540F07E80B1F802E037
:100D300053889E4578D1D0F8048050684968019066
:100D4000BC0827F0030008EB800604FB0EF09FEDC3
:100D5000390A07F0030C029101EB00104FEA8E02F2
:100D600000210090CDE903E70198DDF808A0009B81
:100D700000EB8109B0EE401A5746404674B3554621
:100D800027464046B0EE401A95ED002A90ED003A15
:100D9000154490ED014A23EE022A95ED003A1544E0
:100DA00090ED025A31EE021A24EE032A95ED003A34
:100DB000154490ED036A31EE021A25EE032A95EDF3
:100DC000003A31EE021A26EE032A31EE021A013FF2
:100DD00000F110001544D7D11F463046BCF1000F7A
:100DE0000CD0654690ED002A97ED003A043022EED3
:100DF000032A31EE021A013D1744F3D1A9EC011A7E
:100E0000BEF1010E0AF1040A03F10403B2D1DDF8C8
:100E10000CE0049F714408EB8708BBF1010B06EB63
:100E20008706A1D1002000E0FD2040B205B0BDE85A
:100E3000F08F00BF00000000B0B5B0F800C00B8814
:100E40009C4553D145884B889D424FD113889C4582
:100E50004CD153889D4249D143684968506805FB8D
:100E60000CFC0022B2EB9C0F30D04FEA9C0200BF7A
:100E700093ED000A91ED001A03F1100E30EE410AD5
:100E800080ED000A93ED010A91ED011A01F11004C1
:100E900030EE410A80ED010A93ED020A91ED021A4B
:100EA00000F1100530EE410A80ED020A93ED030ACD
:100EB00091ED031A013A30EE410A80ED030A7346C0
:100EC00028462146D4D12146284673461CF0030209
:100ED0000AD000BFB3EC010AB1EC011A013A30EEBE
:100EE000410AA0EC010AF5D1002000E0FD2040B24B
:100EF000B0BD00002DE9F04FB0F800A04A8892453F
:100F000045D142880B889A4241D1D1F804C0466845
:100F10004FEA920802F003094FEA0A1E4FEA8A01DB
:100F20004FF0000B624600BFB8F1000F1AD0154613
:100F3000474600BF336828462B6073680D44435012
:100F4000B3686C186B50F56806F1100366186550AD
:100F5000013F06EB01051E46ECD100EB0E071E46D5
:100F600002E000BF0CEB8B07B9F1000F06D048463A
:100F700056F8043B01383B600F44F9D10BF1010BEB
:100F8000BAF1010A02F10402CED1002000E0FD20F6
:100F900040B2BDE8F08F00009FED201A9FED202A9F
:100FA00020EE010ABDEEC01A11EE100AB5EE400A9D
:100FB000F1EE10FAB8BF013801EE100AB8EEC11A0E
:100FC00030EE410A20EE020ABDEEC01A9FED152A4E
:100FD00011EE100A002130EE021AB1EB502F4FF63D
:100FE000F4711CBF0020B0EE410AC0F6000101EE12
:100FF000100A01EB8001B8EE411A30EE410A91ED82
:10100000001A91ED012AB7EE003A33EE403A23EE92
:10101000011A20EE020A31EE000A704783F9223EDF
:1010200000000044000000C400BFFEE770B50446A5
:101030000D461C48046000201B4908700CF062FC3F
:10104000194909780843184908700CF01DFD164924
:1010500009780843144908701DB1144800F03CFC9D
:101060001CE09FED130A114880ED090A9FED110A5B
:1010700080ED0A0A9FED0F0A80ED0B0A9FED0E0A24
:1010800080ED0C0A90ED0C0ADFED0C0A80EE801A60
:1010900080ED081A9FED0A0A80ED060A02480078E2
:1010A00070BD000028C001200A0200202C0C002086
:1010B000AC38223BB016CE393F161B41C3F51C415C
:1010C0000000204210B501221021024802F06CFD00
:1010D00010BD00000000024010B50022102102489F
:1010E00002F062FD10BD00000000024010B50122B8
:1010F0001146024802F058FD10BD000000040240F5
:1011000010B500220121024802F04EFD10BD000082
:101110000004024010B50446FFF7DEFF922000F005
:1011200057F906229549122000F032F9FFF7CAFF5D
:1011300092484078000200B29049097808439049EB
:1011400008800846B0F9000000EE100AB8EEC00AA8
:101150008C48D0ED000A20EE200AD4ED080A20EEDB
:10116000200A84ED000A8548C078000200B2834955
:1011700089780843824908800846B0F9000000EEEB
:10118000100AB8EEC00A7F48D0ED000A20EE200A0F
:10119000D4ED080A20EE200A84ED010A7748407950
:1011A000000200B27549097908437549088008466C
:1011B000B0F9000000EE100AB8EEC00A7148D0ED98
:1011C000000A20EE200AD4ED080A20EE200A84ED61
:1011D000020AFFF795FF08226849002000F0D8F8BE
:1011E000FFF784FF654800780F284FD166480078E4
:1011F000F0B36248C078000200B2604989780843C1
:101200005F49088094ED090A0846B0F9000000EE35
:10121000900AF8EEE00A5D4890ED001A10EE810A9F
:1012200084ED030A55484079000200B25349097918
:1012300008435349088094ED0A0A0846B0F90000B3
:1012400000EE900AF8EEE00A504890ED001A10EE19
:10125000810A84ED040A4948C079000200B2474976
:10126000897908434649088094ED0B0A084600E056
:101270000DE0B0F9000000EE900AF8EEE00A4348F5
:1012800090ED001A10EE810A84ED050A44E03B4817
:10129000C078000200B2394989780843384908808B
:1012A0000846B0F9000000EE100AB8EEC00A374850
:1012B000D0ED000A20EE200A84ED030A2F48407981
:1012C000000200B22D49097908432D4908800846DB
:1012D000B0F9000000EE100AB8EEC00A2B48D0EDBD
:1012E000000A20EE200A84ED040A2448C079000296
:1012F00000B2224989790843214908800846B0F99B
:10130000000000EE100AB8EEC00A2048D0ED000A36
:1013100020EE200A84ED050AFFF7DEFEA22000F091
:1013200057F802221549222000F032F8FFF7CAFED2
:1013300012480078C0001149497840EA611010490C
:1013400008800846B0F90000B0F5806F05DB08465C
:101350000088A0F5006000B208800948B0F90000DC
:1013600000EE100AF8EEC00AB4EE001AB3EE070A57
:1013700000EE810A84ED070A10BD00003E02002045
:10138000460200200002002010020020040200207B
:1013900070B506460C46154646F0800000F018F879
:1013A00006E0552000F014F82070641C681EC5B2D9
:1013B000002DF6D170BD70B504460D4644F0800096
:1013C00000F006F8552000F003F8287070BD00000A
:1013D00001B582B04FF47A70012301AA02A90090EE
:1013E0000348006804F04AF99DF804000EBD0000AF
:1013F00028C0012070B505460C462846FFF7E8FFD7
:101400002046FFF7E5FF70BDD2ED020A92ED021A09
:10141000B6EE000A00EEC10AD2ED030A92ED031AFD
:1014200000EEC10AD0ED000A20EE200AD2ED010A3A
:1014300092ED021A60EE810A92ED001AD2ED031AC3
:1014400041EE610A90ED011A00EE810AD2ED010A27
:1014500092ED031A60EE810A92ED001AD2ED021AA3
:1014600041EE210A90ED021A00EE810AF0EE000A28
:1014700020EE200A81ED000A92ED010AD2ED020A67
:1014800020EE200AD2ED000A92ED031A00EE810A46
:10149000D0ED000A60EE200A92ED011AD2ED011A99
:1014A000B6EE000A01EE610AD2ED031A92ED032AAC
:1014B000B0EE401A01EEC21AD0ED011AB0EE600A89
:1014C00001EE210AD2ED020A92ED031A60EE810AC2
:1014D00092ED001AD2ED011A41EE610A90ED021A66
:1014E00000EE810AF0EE000A20EE200A81ED010AEA
:1014F00092ED010AD2ED030A20EE200AD2ED000A95
:1015000092ED021A00EEC10AD0ED000A20EE200A88
:10151000D2ED020A92ED031A60EE810A92ED001AF2
:10152000D2ED011A41EE210A90ED011A00EE810A76
:1015300092ED011AD2ED011AF6EE000A41EE610AAF
:1015400092ED021AD2ED021A41EE610A90ED021AF2
:1015500000EE810AF0EE000A20EE200A81ED020A78
:10156000704700BFFEE7000010B5024801F030FDF3
:1015700010BD00005C07002010B5024801F028FDF6
:1015800010BD00005C07002010B5024801F020FDEE
:1015900010BD00008407002010B5024801F018FDBE
:1015A00010BD00008407002010B58AB00446012059
:1015B000069000200790207F00F0010080F00100DD
:1015C00004900E200990606B4001019020680D4945
:1015D000884207D10C4800780B490978491C0A4A0F
:1015E000117006E00948007808490978491C074A43
:1015F00011700590012008902068694601F05EFB9B
:101600000AB010BD5C07002001C0012002C001200B
:101610007CB505460E463AE06B46214A31462846DF
:1016200001F0F1FB00242EE01E4850F82400006871
:10163000A84227D11A4800681A4951F82410496B6A
:1016400088421FD1174850F82400D0F83900C0B1A3
:101650001348007C134951F8241081F838001049D0
:101660000A69104951F8241001F12C006946FEF76F
:1016700033FF0C4A52F8240052F82420D2F83910D3
:1016800088477CBD641C084800788442CCD331462E
:10169000284601F0A4FB0028BED100BFF1E70000FE
:1016A000E40A0020A40A002000C0012070B505460D
:1016B0002548007808B900F04BF823480078102836
:1016C00001DB002070BD002111E0204850F821000E
:1016D00000682A68904208D11C4850F82100406BED
:1016E000AA68904201D10020ECE7481CC1B216481C
:1016F00000788142E9DB4120FEF748FE04464121A3
:101700002046FEF760FF686860600021E1602161AB
:1017100008216161286820606868E061A8686063EA
:10172000E868C4F839002869C4F83D002046FFF78E
:101730003BFF054801780078401C034A10700348BD
:1017400040F821402046BDE700C00120A40A002047
:1017500010B50B4801F0EFFE0221094801F0F4F941
:101760001021074801F0F0F9064801F0E4FE0221DB
:10177000044801F0E9F91021024801F0E5F910BD33
:101780005C0700208407002010B52DED028B044675
:10179000B0EE408A00F028FFF0EE408A11E000F041
:1017A00023FF30EE680AB4EEC80AF1EE10FA08DD45
:1017B00012480068401C114908600020BDEC028BF3
:1017C00010BD206801F0E9FB0028E8D000F00CFF14
:1017D00030EE680A0A4880ED000A206804F1200310
:1017E0001A1D211D01F0C5F930B104480068401CE4
:1017F000024908600020E1E70120DFE704C0012082
:1018000008C001200346042B15D007DC7BB1012B57
:101810000ED0022B0DD0032B12D10BE0202B0BD0BE
:10182000212B0AD0222B09D0232B09D107E008E075
:1018300007E006E005E004E003E002E001E000E08C
:1018400000BF00BF002070470020704710B5002285
:101850000449054808F0E3FF0449034808F0D0FFB5
:10186000002010BD80710020A46400208069002049
:1018700070B504460D46204629680BF0E5F8214670
:10188000034808F0BDFF024808F086FF002070BD45
:10189000A464002010B503460C460021084610BD84
:1018A0002DE9F04104460D4600260A48D0F8BC72E6
:1018B000D7F8140210B10120BDE8F0812A46214674
:1018C000044808F0ACFF034809F05CF806463046CF
:1018D000F2E70000A464002070B52DED048B88B001
:1018E00004460020069007909FEDFE0AB0EE408A65
:1018F0009FEDFC0AF0EE408A9FEDFA0AB0EE409AA6
:1019000000F09AFEF84880ED000A00BF00F094FE57
:10191000F548D0ED000A30EE600AF2EE080AB4EEA7
:10192000E00AF1EE10FA14DD9FEDF00A84ED090AE9
:101930009FEDEF0A84ED0A0A9FEDED0A84ED0B0A94
:101940009FEDEC0A84ED0C0A9FEDEB0A84ED060A8C
:101950005DE29FEDEA0A00F003FE9FEDE20A84EDEE
:101960000C0A9FEDE00A84ED090A9FEDDE0A84ED82
:101970000A0A9FEDDC0A84ED0B0A002673E1FFF7EB
:10198000ABFB9220FFF724FD062206A91220FFF7E9
:10199000FFFCFFF797FB9DF81900000200B29DF8CD
:1019A000181040EA010500EE105AB8EEC00AD448FB
:1019B000D0ED000A20EE200A84ED000A9DF81B00FD
:1019C000000200B29DF81A1040EA010500EE105A1C
:1019D000B8EEC00ACA48D0ED000A20EE200A84ED15
:1019E000010A9DF81D00000200B29DF81C1040EA9B
:1019F000010500EE105AB8EEC00AC148D0ED000A49
:101A000020EE200A84ED020AD4ED000A60EEA00A5E
:101A100094ED011AD4ED011A41EE210A94ED021A57
:101A2000D4ED021A41EE210AB0EE600A0BF082FEFC
:101A3000B0EE408A94ED0C0A30EE080A84ED0C0AF0
:101A4000FFF75EFB082206A90020FFF7A1FCFFF7C5
:101A50004DFB9DF818000F2850D19DF81B00000287
:101A600000B29DF81A1040EA010500EE105AB8EED7
:101A7000C00AA448D0ED000A20EE200A84ED030A33
:101A800094ED090AD4ED030A30EE200A84ED090A28
:101A90009DF81D00000200B29DF81C1040EA0105EF
:101AA00000EE105AB8EEC00A9648D0ED000A20EEBB
:101AB000200A84ED040A94ED0A0AD4ED040A30EEFB
:101AC000200A84ED0A0A9DF81F00000200B29DF86A
:101AD0001E1040EA010500EE105AB8EEC00A89480F
:101AE000D0ED000A20EE200A84ED050A94ED0B0AE1
:101AF000D4ED050A30EE200A84ED0B0A06BBF0EEA9
:101B0000488AB0EE489A002017E004F10C0101EB7E
:101B1000800191ED000A03A901EB800181ED000A2B
:101B200004F10C0101EB800191ED000A694601EB23
:101B3000800181ED000A411CC8B20328E5DB49E0C1
:101B4000B4EEE88AF1EE10FA01DDF0EE488AB4EE68
:101B5000C98AF1EE10FA01D2B0EE489A002037E0BF
:101B600004F10C0101EB800191ED000A03A901EBE6
:101B70008001D1ED000AB4EEE00AF1EE10FA0ADDC0
:101B800004F10C0101EB800191ED000A03A901EBC6
:101B9000800181ED000A04F10C0101EB800191ED5F
:101BA000000A694601EB8001D1ED000AB4EEE00ABB
:101BB000F1EE10FA0AD204F10C0101EB800191ED73
:101BC000000A694601EB800181ED000A411CC8B2A0
:101BD0000328C5DB38EEC90A4B4880ED000A002017
:101BE00012E003A901EB800191ED000A694601EBC7
:101BF0008001D1ED000A30EE600A444901EB80011A
:101C000081ED000A411CC8B20328EADB3E4890ED92
:101C1000000AF6EE000AB4EEE00AF1EE10FA1BDC60
:101C20003A4890ED000ADFED3A0AB4EEE00AF1EE30
:101C300010FA11DC90ED010ADFED350AB4EEE00A8E
:101C4000F1EE10FA08DC90ED020ADFED310AB4EE95
:101C5000E00AF1EE10FA00DD0AE09FED2E0A00F036
:101C60007FFC701C86B22C4800888642FFF687AE47
:101C700000BFD4ED0C0A2848008800EE100AB8EE28
:101C8000400A80EE801A84ED0C1A002015E004F161
:101C9000240101EB8001D1ED000A1F49098800EE03
:101CA000101AB8EE400A80EE801A04F1240101EB0C
:101CB000800181ED001A411CC8B20328E7DBFFF761
:101CC0000BFAA220FFF784FB022206A92220FFF7CD
:101CD0005FFBFFF7F7F99DF81800C0009DF8191099
:101CE0001CE000000000000038020020AC38223B5D
:101CF000B016CE393F161B41000020420AD7A33B45
:101D000000020020040200200C020020200C002011
:101D10009A99193E6F12033A3C02002040EA61157D
:101D2000B5F5806F02DBA5F5006005B200EE105A34
:101D3000F8EEC00AB4EE001AB3EE070A00EE810A0C
:101D400084ED060A38480088401C00B236490880F5
:101D5000364890ED000AF6EE000AB4EEE00AF1EE25
:101D600010FA3FF7D3ADD4ED0C0A9FED311A70EEA7
:101D7000C10AB0EE600A0CF010F9F6EE000AB4EEFB
:101D8000E00AF1EE10FAECDC2A4890ED000A5FED73
:101D9000200AB4EEE00AF1EE10FAE2DC90ED010A5E
:101DA0005FED250AB4EEE00AF1EE10FAD9DC90ED11
:101DB000020A5FED290AB4EEE00AF1EE10FAD0DC77
:101DC000D4ED090AB0EE600A0CF0E7F8DFED1A0A6C
:101DD000B4EEE00AF1EE10FAC3DCD4ED0A0AB0EE7C
:101DE000600A0CF0DAF8DFED140AB4EEE00AF1EE66
:101DF00010FAB6DCD4ED0B0AB0EE600A0CF0CDF8A8
:101E0000DFED0D0AB4EEE00AF1EE10FAA9DC00BF36
:101E100094ED0C0ADFED090A80EE801A84ED081AB1
:101E200008B0BDEC048B70BD120200200C02002033
:101E3000CDCC1C41200C00200AD7233CC3F51C410B
:101E400000B5ADF55D7D0AF059FD414807F09EFAF9
:101E5000404908604FF48C723F4997A8FEF781FB18
:101E60000421D99101218DF8541397A800F02CFA80
:101E70003A4908600121D9918DF8541397A800F0D0
:101E800023FA374908600321D99101218DF85413B1
:101E900097A800F019FA334908600221D991B0EEF1
:101EA000000A8DEDB10A01218DF8541397A800F0B6
:101EB0000BFA2D4908604FF48C722C4951A8FEF79B
:101EC00050FB4FF48C722A490BA8FEF74AFB042101
:101ED0004D910BA800F0F8F92649086001214D91B9
:101EE0000BA800F0F1F92449086003214D910BA8DB
:101EF00000F0EAF92149086002214D910BA800F099
:101F0000E3F91F4908602C221E496846FEF729FBA9
:101F100069461D4807F0C6F91C4806F031FF1C4908
:101F2000086005F0F9FB1B49C1F82600032008767C
:101F3000012048769FED180A10EE100A48619FEDC7
:101F4000160A10EE100A08610DF55D7D00BD000057
:101F5000540900206C03002028FC000870030020B6
:101F600074030020780300207C03002040FD00085B
:101F700058FE00088003002084030020880300200E
:101F80008C03002070FF0008F01400200C090020D2
:101F90007CC00120681500200000000000BF0BF08D
:101FA000A7FC01200CF09EF8F9E7000010B52DED1C
:101FB000048B38480068B0F9020000EE100AB8EE51
:101FC000C00ADFED350A80EE201A9FED340A21EEBB
:101FD000000AB0EE409A2F480068B0F9000000EE09
:101FE000100AF8EEC00A9FED2C1A80EE810ADFED90
:101FF0002B0A20EE200AB0EE408A26480068B0F98D
:10200000080000EE100AB8EEC00ADFED230A80EEE9
:10201000201AB1EE410ADFED220A20EE200AF0EE8E
:10202000408AB0EE490A0BF0BDFFDFED1E0AB4EEA8
:10203000E00AF1EE10FA03D29FED1B0AB0EE409ACF
:10204000B0EE480A0BF0AEFFDFED160AB4EEE00A80
:10205000F1EE10FA03D29FED140AB0EE408AB0EE12
:10206000680A0BF09FFFDFED110AB4EEE00AF1EE13
:1020700010FA03D29FED0C0AF0EE408AB0EE681A17
:10208000F0EE480AB0EE490A07F0E2FABDEC048B24
:1020900010BD00006C0300200000254400803B467A
:1020A0000050C34600004843000000000000C84242
:1020B00090ED010AD1ED020A20EE200AD0ED020ACD
:1020C00091ED011A00EEC10A82ED000A90ED020ABC
:1020D000D1ED000A20EE200AD0ED000A91ED021A9F
:1020E00000EEC10A82ED010A90ED000AD1ED010A6D
:1020F00020EE200AD0ED010A91ED001A00EEC10A8F
:1021000082ED020A704700002DE9F05F2DED028B91
:102110004FF0000AAEE0664850F82A6006F11C0451
:1021200006F12805374695ED5E0AB0EE408A207923
:10213000012803D1B1EE480AB0EE408AA07800F041
:102140004000C8B12088402816D1A079012805D1C7
:10215000286890ED000AF0EE408A03E097ED040A4B
:10216000F0EE408AF0EE480AB0EE680A05F580709D
:1021700006F0D6FFB0EE408AA07800F0080028B341
:10218000207800F0480008B3207A00F00A0030B14F
:10219000A86890ED000A30EE080AB0EE408AE079B7
:1021A000012805D1686890ED000AF0EE408A03E04E
:1021B00097ED020AF0EE408AF0EE480AB0EE680AA7
:1021C00005F1880006F0ACFFB0EE408A207A00F0FE
:1021D000010030B1E86890ED000A30EE080AB0EE78
:1021E000408AA07800F0010078B1B7F90C0000EE49
:1021F000900AF8EEE00AB0EE600AF0EE480A05F147
:10220000100006F08DFFB0EE408A6079012805D1FC
:10221000BFEE000A28EE000AB0EE408ABDEEC80A02
:1022200010EE100A0FFA80FB96F8AC8196F8AD918B
:10223000CBF3072108EB88101E4A1044243000F825
:10224000191008EB88101146084424304FEA490160
:10225000491C00F801B096F8AF0148B908EB8811A5
:1022600011442431022202FB09101021FEF7ABF9C0
:102270000AF1010A104800788245FFF44CAF4FF094
:10228000000A0DE00D4810F80A0038B10AEB8A1177
:10229000084A8818B7EE000AFFF776FA0AF1010A31
:1022A000BAF1060FEED3BDEC028BBDE8F09F000043
:1022B000A8C001207100002070000020F70100205C
:1022C000012180F8AF1170473EB505462F480078D0
:1022D0000C2801DD00203EBD4FF4E070FEF756F8FB
:1022E00004464FF4E0712046FEF78FF995F800019F
:1022F00084F8AE01D5F8F410E161D5F8F810216248
:10230000D5F8FC00606205F13C0104F1380006F0EC
:10231000C9FF05F1680104F1B00006F0C3FF05F143
:10232000940104F5947006F0BDFF2868A062696806
:10233000E162E9686163A968216305F5827120465D
:1023400006F076FC12494FF488704151001D44514B
:1023500005F58270FFF7AAF9C4F8A8010D4A07CA6B
:102360008DE807000294684600F030FAC4F8B00126
:102370002046FFF7A5FF054801780078401C034A76
:102380001070054840F821402046A4E77000002066
:102390002D28000814FA0008A8C0012010B5014635
:1023A000002381F8AF31D1F8A8311B68034CA34258
:1023B00001D1012300E002231A4610BD5C07002072
:1023C00080ED680A7047000010B5024801F0FEF881
:1023D00010BD0000FC09002010B5024801F0F6F81D
:1023E00010BD00000408002010B5024801F0EEF80E
:1023F00010BD00009C09002010B5024801F0E6F86D
:1024000010BD000064080020014608781038182329
:10241000B0FBF3F20848805CC865032A05D9086858
:102420006FF30900001D886503E008686FF3090079
:102430008865886D70470000F4F9000801460020A7
:102440008A6A8B69CBB932B1012A0DD0022A03D036
:10245000032A10D10EE000BFCB6A03F08073B3F102
:10246000807F00D1012007E0CB6AB3F1C07F00D1AB
:10247000012001E000E000BF34E08B69B3F5005FAC
:102480001AD132B1012A07D0022A03D0032A11D16E
:102490000AE000BF01200EE0CB6A03F08073B3F1C5
:1024A000807F00D1012006E0CB6AB3F1C07F00D16C
:1024B000012000E000BF15E032B1012A05D0022A58
:1024C00004D0032A0CD103E000BF00BF012008E0C4
:1024D000CB6A03F08073B3F1807F00D1012000E06C
:1024E00000BF00BF704730B50468246824F480241E
:1024F00005682C60046863608468402C04D104681B
:10250000A2600468E16003E00468A1600468E2601E
:1025100030BD000008B50E480078B8B901200C495C
:1025200008700C48406800900B4900980968884280
:1025300004D20A480068401C084908600548406801
:102540000549086000200249087000BF08BD00006E
:1025500050000020001000E0400000203C0000205F
:102560000C494868F0EE400A00BF0A494968091A58
:1025700001EE101AF8EE411A074991ED001AB8EE73
:10258000411A20EE811AF4EEC11AF1EE10FAECD3E2
:1025900070470000001000E03000002010B52DED65
:1025A000028B82B004460E48406801902068019971
:1025B000081A00EE100AF8EE400A0A4890ED000AE8
:1025C000B8EE400A80EE801AB0EE418A0198206091
:1025D000FFF7A0FFB0EE480A02B0BDEC028B10BDC1
:1025E000001000E03000002010B52DED028B00F04F
:1025F00085F80F4880880E49096801EB4102C2EB5B
:10260000C11100EBC10000EE100AB8EE400A084804
:10261000C08800EE900AF8EE600A9FED061A00EE00
:10262000810AB0EE408AB0EE480ABDEC028B10BDC4
:10263000280000206F12833A10B52DED028B00F0B8
:102640005DF80F4890ED000AB8EE400A808800EE71
:10265000900AF8EE600A9FED0B1A00EE810A084816
:10266000C08800EE900AF8EE600A9FED071A00EEAF
:10267000810AB0EE408AB0EE480ABDEC028B10BD74
:10268000280000206F12833ABD37863510B5044606
:102690001348006840F0807011490860002011491B
:1026A00048600846006840F0010008600E4860433A
:1026B0000E490860084600684FF47A71B0FBF1F0EB
:1026C0000B490860094800680749B0FBF1F0094967
:1026D0000860002008490860FFF71CFF10BD0000DB
:1026E000FCED00E0001000E040420F003000002050
:1026F00034000020380000203C00002038B5294874
:1027000040680090FFF706FF274800684FF0FF3150
:10271000A0FB01310098181841F10001234A03C2BF
:10272000234800232149026803C9FDF75EFE214AC0
:1027300003C220480CC81E4800680024A2FB0015F4
:1027400003FB005002FB04021848D0E90030591A7C
:1027500060EB0200184AC2E90010164800681749E9
:102760000860174800231449026803C9FDF73DFEBD
:1027700012498880084680881149096841430E48FB
:10278000D0E90030591A60F100000E4AC2E9001089
:102790000D4800230B49026803C9FDF726FE0749CF
:1027A000C88038BD001000E03C0000204800002038
:1027B0003000002058000020600000202800002089
:1027C00034000020680000203800002070B5044666
:1027D0001020FDF7DBFD0546002028606860A8603A
:1027E000E860A068E860208808B9642000E02088DC
:1027F000288060686860608808B9642000E06088AC
:10280000288120882881054801780078401C034AE7
:102810001070034840F82150284670BD24C00120A4
:10282000A00B002001880181704770472DE9F0411D
:10283000074607F12C05D7F83D603446D6F8B001BD
:10284000FFF7F0FF06F5DA70FFF7A8FE86ED6E0AD7
:10285000608820806878297840EA0120608060885C
:1028600000EE100AB8EE400ADFED300A20EE200A32
:1028700084ED010AE878A97840EA012000B200EE70
:10288000100AB8EEC00ADFED2A0A20EE200AD4EDC5
:10289000020A9FED281A01EE200A84ED020A6879E7
:1028A000297940EA012000B200EE100AB8EEC00A11
:1028B000DFED210A20EE200AB4F90C0000EE900AA8
:1028C000F8EEE00A9FED1D1A01EE200ABDEEC00AE7
:1028D00010EE100A00B2A081A879A0736088218848
:1028E000401AB0F5805F03DD6069401E606108E05A
:1028F00060882188401A10F5805F02DA6069401C08
:1029000060614FF4B4716069484300EE100AB8EE9C
:10291000C00AD4ED010A30EE200AD4ED060A30EEEA
:10292000600A84ED040ABDE8F0810000ACFF333D8D
:102930003433A3409899193E6666663FD0CCCC3DAF
:1029400010B510480068FFF76DFF0F4800688068F9
:1029500000780D49096809680978884211D10A4848
:1029600000688068407A084909680968897A88425D
:1029700007D1054A12689168034A1268106806F088
:10298000EBFC10BDBC030020B403002090ED000A56
:10299000D1ED000A20EE200AD0ED010A91ED011AD6
:1029A00000EE810AD0ED020A91ED021A00EE810AD2
:1029B0007047D2ED020A92ED021AB6EE000A00EE5E
:1029C000C10AD2ED030A92ED031A00EEC10AD0ED5E
:1029D000000A20EE200AD2ED010A92ED021A60EE02
:1029E000810A92ED001AD2ED031A41EE210A90ED10
:1029F000011A00EE810AD2ED010A92ED031A60EE8F
:102A0000810A92ED001AD2ED021A41EE610A90EDB0
:102A1000021A00EE810AF0EE000A20EE200A81ED93
:102A2000000A92ED010AD2ED020A20EE200AD2ED50
:102A3000000A92ED031A00EEC10AD0ED000A60EE22
:102A4000200A92ED011AD2ED011AB6EE000A01EE4B
:102A5000610AD2ED031A92ED032AB0EE401A01EE9C
:102A6000C21AD0ED011AB0EE600A01EE210AD2EDD1
:102A7000020A92ED031A60EE810A92ED001AD2ED7D
:102A8000011A41EE210A90ED021A00EE810AF0EEE1
:102A9000000A20EE200A81ED010A92ED010AD2ED32
:102AA000030A20EE200AD2ED000A92ED021A00EE8F
:102AB000810AD0ED000A20EE200AD2ED020A92ED42
:102AC000031A60EE810A92ED001AD2ED011A41EE6E
:102AD000610A90ED011A00EE810A92ED011AD2ED21
:102AE000011AF6EE000A41EE610A92ED021AD2EDE9
:102AF000021A41EE610A90ED021A00EE810AF0EE30
:102B0000000A20EE200A81ED020A704772B600BF6B
:102B1000FEE7000070B50A480468001D0568001D46
:102B20000668344454B108220649204605F018F8D6
:102B3000042204491031284605F012F870BD000047
:102B4000107AFF1F5204002010B5024692F8203080
:102B5000012B01D0022B06D110684069084314688C
:102B60006061002010BD506A40F480205062012056
:102B7000F8E7F0B504460D461E4694F8207020682C
:102B80008368A86800B900E000BF012F01D0022FC0
:102B90007DD103F0806030B903F0006018B903F014
:102BA000805000287ED0C3F301610120884030604E
:102BB000A86860B9B5F800C0E86840EA4C5C2068D5
:102BC00000F5C07000EB0110C0F800C00FE0D5E9BF
:102BD00001C040EACC00D5F80CC040EA0C00D4F8A3
:102BE00000C00CF5C07C0CEB011CCCF80000D5F843
:102BF00010C0206800F5C07000EB0110C0F804C0E0
:102C0000287D01280ED1206800F5C07000EB01106E
:102C1000406840F4807C206800F5C07000EB011033
:102C2000C0F804C0D079000692F806C040EA0C4013
:102C300092F805C040EA0C2092F804C040EA0C006B
:102C4000D4F800C00CF5C07C0CEB011CCCF80C00D7
:102C5000D078000692F802C040EA0C4092F801C019
:102C600040EA0C2092F800C040EA0C00D4F800C002
:102C70000CF5C07C0CEB011CCCF80800206800F5BA
:102C8000C07000EB0110006840F0010C01E00FE0A3
:102C900008E0206800F5C07000EB0110C0F800C02B
:102CA0000020F0BD606A40F4001060620120F8E787
:102CB000606A40F4802060620120F2E7F0B50446CB
:102CC0000A4694F82050012D01D0022D7ED14249B0
:102CD00001F50071086840F001000860086820F400
:102CE0007C5008600868566A40EA06200860107D3B
:102CF00000F01F06012000FA06F3C8699843C86176
:102D0000A1F50071D069C8B9D1F80C029843C1F897
:102D10000C02908880B2968940EA064601F5107050
:102D2000576940F83760108880B2168940EA064635
:102D300001F51070576900EBC7004660D0690128A3
:102D400019D1D1F80C021843C1F80C02908880B256
:102D5000168840EA064601F51070576940F837605A
:102D6000908980B2168940EA064601F510705769CD
:102D700000EBC7004660906928B9D1F80402984377
:102D8000C1F8040204E0D1F804021843C1F80402B7
:102D9000106928B9D1F814029843C1F8140204E06C
:102DA000D1F814021843C1F81402106A012804D1A2
:102DB000D1F81C021843C1F81C02D1F8000220F01F
:102DC0000100C1F800020020F0BDFFE7606A40F496
:102DD000802060620120F7E700640040704710B572
:102DE0000246002092F82030012B01D0022B09D19D
:102DF00021B91468E46804F0030003E0146824694E
:102E000004F0030010BD70B5044694F82050012D65
:102E100001D0022D7DD151B92068C06800F00300B7
:102E200080B9606A40F400106062012070BD2068C3
:102E3000006900F0030028B9606A40F40010606285
:102E40000120F3E7206800F5D87000EB011000685E
:102E500000F004009060906840B9206800F5D870D8
:102E600000EB01100068400D106007E0206800F5DD
:102E7000D87000EB01100068C0085060206800F5B1
:102E8000D87000EB0110006800F00200D0602068EC
:102E900000F5D87000EB0110406800F00F00082822
:102EA00002D30820106108E0206800F5D87000EB1C
:102EB0000110406800F00F001061206800F5D87024
:102EC00000EB0110406800F47F40000A9061206828
:102ED00000F5D87000EB01104068000C50612068CC
:102EE00000F5D87000EB011080681870206800F5BC
:102EF000D87000EB0110806800F47F40000A587021
:102F0000206800F5D87000EB0110806800F47F00A5
:102F100000E03CE0000C9870206800F5D87000EBF1
:102F200001108068000ED870206800F5D87000EBA2
:102F30000110C0681871206800F5D87000EB01100E
:102F4000C06800F47F40000A5871206800F5D8700E
:102F500000EB0110C06800F47F00000C987120683D
:102F600000F5D87000EB0110C068000ED87131B9BF
:102F70002068C06840F020002668F06005E0206806
:102F8000006940F020002668306100204EE7606A4A
:102F900040F480206062012048E70146002091F85B
:102FA0002020012A01D0022A11D10B689B6803F06E
:102FB000806303B1401C0B689B6803F0006303B19E
:102FC000401C0B689B6803F0805303B1401C7047A2
:102FD0002DE9F05F04460025206846692068D0F896
:102FE0000490206887682068D0F80CA02068D0F88A
:102FF00010B02068D0F8188006F00100002855D0E5
:1030000007F00100C0B101202168886007F00200CC
:1030100018B1204600F0BFFA0EE007F0040010B12E
:1030200045F4006508E007F0080010B145F480554C
:1030300002E0204600F0AEFA07F48070C8B14FF409
:1030400080702168886007F4007018B1204600F095
:10305000A4FA0EE007F4806010B145F4005508E0D2
:1030600007F4006010B145F4804502E0204600F00E
:1030700093FA07F48030C8B14FF48030216888603B
:1030800007F4003018B1204600F089FA0EE007F48A
:10309000802010B145F4004508E007F4002010B18D
:1030A00045F4803502E0204600F078FA06F008008A
:1030B00038B10AF0100020B145F4007510202168E5
:1030C000C86006F0040040B10AF0080028B10820EA
:1030D0002168C860204600F01DFA06F0020038B1F1
:1030E0002068C06800F0030010B1204600F013FA19
:1030F00006F0400038B10BF0100020B145F48065B7
:1031000010202168086106F0200040B10BF0080093
:1031100028B1082021680861204600F003FA06F073
:10312000100038B12068006900F0030010B120469B
:1031300000F0F9F906F4003040B109F0100028B1B0
:10314000102021684860204600F0F4F906F4803031
:1031500040B109F0080028B10820216848602046E5
:1031600000F01EFA06F4004088B309F0040078B3BA
:1031700006F4807020B108F0010008B145F00105A7
:1031800006F4007020B108F0020008B145F0020515
:1031900006F4806020B108F0040008B145F0040591
:1031A00006F40060A0B108F0700088B108F070006B
:1031B000402817D006DC10280BD020280CD030284F
:1031C00019D10CE0502810D0602814D110E01DE077
:1031D00019E045F008050FE045F010050CE045F05A
:1031E000200509E045F0400506E045F0800503E0D4
:1031F00045F4807500E000BF00BF2068806920F0C2
:103200007000216888610420216848602DB1606ADF
:10321000284360622046FFF7E1FDBDE8F09F70B5EE
:1032200004460CB9012070BD94F8200010B9204666
:1032300000F0B0F82068006840F0010021680860E4
:1032400000F0B8FC05460DE000F0B4FC401B0A2875
:1032500008D9606A40F400306062052084F82000DC
:103260000120E0E72068406800F001000028EBD072
:103270002068006820F002002168086000F09AFCD5
:1032800005460DE000F096FC401B0A2808D9606A4C
:1032900040F400306062052084F820000120C2E77D
:1032A0002068406800F002000028EBD1207E012851
:1032B00006D12068006840F080002168086005E0C1
:1032C0002068006820F0800021680860607E012886
:1032D00006D12068006840F040002168086005E0E1
:1032E0002068006820F0400021680860A07E012866
:1032F00006D12068006840F020002168086005E0E1
:103300002068006820F0200021680860E07E012825
:1033100006D12068006820F010002168086005E0F0
:103320002068006840F0100021680860207F0128B4
:1033300006D12068006840F008002168086005E0B8
:103340002068006820F0080021680860607F01287C
:1033500006D12068006840F004002168086005E09C
:103360002068006820F0040021680860D4E90201A8
:10337000084321690843616908436168491E08439D
:103380002168C86100206062012084F820000020CC
:1033900049E7000010B586B00446142101A8FDF7E6
:1033A00034F956492068884249D155480068401C84
:1033B000534908600846006801280FD100BF00206B
:1033C00000905048006840F000704E490860084680
:1033D000006800F00070009000BF00BF00BF002038
:1033E000009048481038006840F0080045491039FE
:1033F00008600846006800F00800009000BF00BFA9
:1034000003200190022002900020039003200490EA
:103410000920059001A93C4800F0CCFA00220521C2
:10342000142000F08FFC142000F078FC002205210D
:10343000152000F087FC152000F070FC5CE033499B
:103440002068884258D100BF002000902D480068B5
:1034500040F080602B4908600846006800F08060FA
:10346000009000BF00BF26480068401C2449086047
:103470000846006801280FD100BF002000902148B5
:10348000006840F000701F4908600846006800F0BE
:103490000070009000BF00BF00BF002000901948DE
:1034A0001038006840F002001649103908600846DC
:1034B000006800F00200009000BF00BF6020019093
:1034C0000220029000200390032004900920059020
:1034D00001A90F4800F06EFA00220521402000F0FB
:1034E00031FC402000F01AFC00220521412000F0B0
:1034F00029FC412000F012FC06B010BD0064004021
:103500001000002040380240000C024000680040DB
:1035100000040240704710B5044600212046FEF723
:1035200077F810BD704710B5044601212046FEF71C
:103530006FF810BD704770B5044694F8200001285C
:1035400022D1022084F820002068006820F00100C9
:103550002168086000F02EFB05460DE000F02AFB14
:10356000401B0A2808D9606A40F4003060620520D8
:1035700084F82000012070BD2068406800F0010040
:103580000028EBD16062F6E7606A40F400206062D8
:103590000120F0E7704770477047704770477047E9
:1035A0007047014691F83500022803D08020486515
:1035B00001207047052081F835000868006820F078
:1035C00001000A6810600020F3E70000F8B5044627
:1035D000002000908C4800684FF41651B0FBF1F7C2
:1035E000A56D2E6894F85C1008208840304098B192
:1035F0002068006800F0040070B12068006820F0C6
:1036000004002168086094F85C1008208840A860D5
:10361000606D40F00100606594F85C100120884006
:10362000304068B12068406900F0800040B194F8F3
:103630005C1001208840A860606D40F00200606569
:1036400094F85C1004208840304068B1206800681D
:1036500000F0020040B194F85C1004208840A8609B
:10366000606D40F00400606594F85C1010208840A4
:10367000304078B32068006800F0080050B394F838
:103680005C1010208840A8602068006800F480204A
:1036900080B12068006800F4002028B9206CC8B10F
:1036A0002046216C884715E0A06C98B12046A16C9B
:1036B00088470FE02068006800F4807028B920680F
:1036C000006820F0080021680860206C10B12046D6
:1036D000216C884794F85C102020884030400028F6
:1036E00065D02068006800F0100000285FD094F8D2
:1036F0005C1020208840A86094F83500052828D167
:103700002068006820F01600216808602068406981
:1037100020F0800021684861206C08B9A06C28B1B5
:103720002068006820F008002168086094F85C10A8
:103730003F208840A860012084F8350000BF0020A9
:1037400084F8340000BF206D10B12046216D8847F9
:10375000F8BD2068006800F4802080B1206800680F
:1037600000F4002028B9606C10B12046616C8847D5
:103770001DE0E06BD8B12046E16B884717E0206878
:10378000006800F4807068B92068006820F01000BC
:1037900021680860012084F8350000BF002084F80B
:1037A000340000BFE06B10B12046E16B8847606DCC
:1037B00038B3606D00F00100F0B1052084F83500E9
:1037C0002068006820F001002168086000BF0098B0
:1037D000401C0090B84200D905E02068006800F065
:1037E00001000028F3D100BF012084F8350000BF9C
:1037F000002084F8340000BFE06C10B12046E16C7A
:10380000884700BFA4E70000200000202DE9F04118
:103810000446002500F0CEF9074614B90120BDE8A2
:10382000F081606A00B100BF022084F8350000BF5B
:10383000002084F8340000BF2068006820F00100F8
:10384000216808600AE000F0B5F9C01B052805D919
:1038500020206065032084F83500E0E720680068D8
:1038600000F001000028EED12068056821480540DD
:10387000D4E901010843E16808432169084361690B
:103880000843A1690843E1690843216A08430543E5
:10389000606A042803D1D4E90B010843054320687A
:1038A00005602068456925F00705606A0543606A80
:1038B00004280DD1A06A0543E06A48B12046FEF70E
:1038C000BDFD28B140206065012084F83500A6E7E1
:1038D000206845612046FEF797FD064694F85C1087
:1038E0003F208840B06000206065012084F83500EA
:1038F000002094E73F8010F02DE9F04704460D4684
:1039000016461F464FF00008D4F8589000BF94F8B0
:103910003400012802D10220BDE8F087012084F89C
:10392000340000BF94F83500012825D1022084F826
:103930003500002060653B46324629462046FEF7AA
:10394000D2FD94F85C103F208840C9F80800206838
:10395000006840F0160021680860206C28B12068DB
:10396000006840F00800216808602068006840F0A6
:1039700001002168086006E000BF002084F83400E0
:1039800000BF4FF002084046C6E7000070B504468D
:1039900000F010F906462546681C10B1044800786E
:1039A000054400BF00F006F9801BA842FAD370BDA1
:1039B0001C000020F8B502460B460025002400201C
:1039C0000021D6E0012606FA01F51E6806EA050484
:1039D000AC4274D11E7906F00306012E04D01E7984
:1039E00006F00306022E13D190684F000326BE4056
:1039F000B0434F00DE68BE403043906050680126FF
:103A00008E40B0431E79C6F300168E40304350609E
:103A10001E7906F00306032E09D0D0684F00032656
:103A2000BE40B0434F009E68BE403043D0601E7918
:103A300006F00306022E13D1CF0802F1200656F835
:103A400027004E07F70E0F26BE40B0434F07FF0E6C
:103A50001E69BE403043CF0802F1200646F8270019
:103A600010684F000326BE40B0431E7906F00306DF
:103A70004F00BE40304310605E6806F44036002EB2
:103A800076D000BF002600963C4E366846F480464D
:103A90003A4F3E603E46366806F48046009600BFC8
:103AA00000BF374E8F0856F827008E07370F0F26B6
:103AB000BE40B043334EB24202D1002624E057E06C
:103AC000314EB24201D101261EE0304EB24201D148
:103AD000022619E02E4EB24201D1032614E02D4EEB
:103AE000B24201D104260FE02B4EB24201D105268D
:103AF0000AE02A4EB24201D1062605E0284EB24223
:103B000001D1072600E008268F073F0FBE40304353
:103B10001B4E8F0846F82700224E3068A0435E688F
:103B200006F4801606B120431E4E3060361D306804
:103B3000A0435E6806F4001606B12043194E361DF8
:103B40003060184E361F3068A0435E6806F40036B9
:103B500006B12043134E361F3060361F3068A04335
:103B60005E6806F4803606B120430E4E083E306093
:103B7000491C1029FFF426AFF8BD0000443802406C
:103B800008380140000002400004024000080240E2
:103B9000000C0240001002400014024000180240D5
:103BA000001C0240083C01400AB1816101E00B04A5
:103BB00083617047014800687047000014000020CE
:103BC00003480068034909780844014908607047C0
:103BD000140000201C00002010B50D48006840F4BF
:103BE00000700B4908600846006840F48060086077
:103BF0000846006840F480700860032000F0E0F898
:103C00000F2000F007F800F05FF8002010BD000062
:103C1000003C02402DE9F04188B004460027B84638
:103C200000BF002001902348006840F480702149C3
:103C300008600846006800F48070019000BF00BF73
:103C400002A903A801F064F8069F1FB901F088F8E3
:103C5000054602E001F084F845001748B5FBF0F096
:103C6000A0F1010815481649086040F2E7311448F0
:103C7000C160C0F80480002101618160816101F0B0
:103C800023FE064696B90E4801F06CFE06466EB954
:103C90002D2000F043F8102C07D2002221462D20C1
:103CA00000F050F80748046000E00126304608B0F4
:103CB000BDE8F0814038024040420F000020004043
:103CC0005C0A00201800002008B500BF002000900A
:103CD0001148006840F480400F49086008460068B9
:103CE00000F48040009000BF00BF00BF00200090A3
:103CF000081F006840F08050091F086008460068EF
:103D000000F08050009000BF00BF00220F21901EE5
:103D100000F018F808BD000044380240014608468B
:103D200000280DDB00BF00BF00F01F0301229A40F6
:103D300043099B0003F1E023C3F8002100BF00BF4B
:103D400000BF70472DE9F05F80460D4616460027FC
:103D500009F0ECF8074639462A46334601F00700D9
:103D6000C0F1070ABAF1040F02D94FF0040A01E0CA
:103D7000C0F1070AD14600F1040ABAF1070F02D2D6
:103D80004FF0000A01E0A0F1030AD4464FF0010A07
:103D90000AFA09FAAAF1010A0AEA020A0AFA0CFA6C
:103DA0004FF0010B0BFA0CFBABF1010B0BEA030B11
:103DB0004AEA0B042146404609F0C0F8BDE8F09FEE
:103DC00000BF00F00702064B19684FF6FF031940C9
:103DD000044B0B4343EA0221014B196000BF7047BB
:103DE0000CED00E00000FA057047024610684162E1
:103DF00000207047F0B5034615461868446A21B99B
:103E000044EA05401E68B06219E01868806A04EB55
:103E10001044002208E0186800F5827050F8220073
:103E200004EB1044501CC2B2481E9042F3D844EA3E
:103E30000547186800F582704E1E40F82670002075
:103E4000F0BD10B50446D4F8E00407F016FA10BD32
:103E500070B504460D4605EBC50304F1140101EBF2
:103E60008301CA682946D4F8E00407F0F9F870BD68
:103E700070B504460D4605EBC50304F5157101EB5D
:103E80008301CA682946D4F8E00407F071F970BDCF
:103E900010B50446D4F8E00407F0F2F910BD2DE99E
:103EA000F04104460D4605F08000802808D105F059
:103EB0000F0000EBC00104F1140000EB810607E0E5
:103EC00005F00F0000EBC00104F5157000EB810652
:103ED0003146206808F02AFC07463846BDE8F081E4
:103EE00070B504460E4606F0800080280AD106F020
:103EF0000F0000EBC00104F1140000EB810501206C
:103F0000687009E006F00F0000EBC00104F51570C1
:103F100000EB81050020687006F00F00287000BFDC
:103F200094F89404012801D1022070BD012084F886
:103F3000940400BF2946206807F086FF00BF0020D8
:103F400084F8940400BF00BFEFE770B504460E4646
:103F500006F00F002179884201D9012070BD06F0DA
:103F6000800080280AD106F00F0000EBC00104F1A8
:103F7000140000EB81050120687009E006F00F00D5
:103F800000EBC00104F5157000EB8105002068709E
:103F90000020A87006F00F00287000BF94F8940469
:103FA000012801D10220D9E7012084F8940400BF40
:103FB0002946206808F046F900BF002084F89404E0
:103FC00000BF00BFCAE7024601F00F0000EBC003CC
:103FD00002F5157000EB8300406970472DE9F0474A
:103FE00005460E4690461F464FF0000906F0800039
:103FF00080280AD106F00F0000EBC00105F1140083
:1040000000EB81040120607009E006F00F0000EB76
:10401000C00105F5157000EB81040020607006F00A
:104020000F002070C8F30A00A0602771607808B103
:1040300020786083022F01D10020607100BF95F8C5
:104040009404012802D10220BDE8F087012085F800
:10405000940400BF2146286807F002FE00BF00203C
:1040600085F8940400BF4846EEE72DE9F041054687
:104070000E461746984606F00F0000EBC00105F506
:10408000157000EB8104E760C4F8108000206061C7
:10409000607006F00F002070A879012800D1E76158
:1040A000AA792146286808F061F90020BDE8F0816E
:1040B00070B504460D4605F00F002179884201D9FC
:1040C000012070BD05F0800080280AD105F00F00A6
:1040D00000EBC00104F1140000EB810601207070B8
:1040E00007E005EBC50104F5157000EB8106002023
:1040F00070700120B07005F00F00307000BF94F8B0
:104100009404012801D10220DBE7012084F8940403
:1041100000BF3146206808F0DCF805F00F0028B930
:10412000A17904F29C42206808F054F800BF0020F6
:1041300084F8940400BF00BFC3E72DE9F0410546B1
:104140000E461746984606F00F0000EBC00105F139
:10415000140000EB8104E760C4F810800020606167
:104160000120607006F00F002070A879012800D1AE
:10417000E761AA792146286808F0F8F80020BDE830
:10418000F0812DE9FE4F0446D4F800B05E46206869
:1041900008F0AEFB002874D1206808F01FFC08B9B5
:1041A000BDE8FE8F40F608008059C0F30D20C4F82A
:1041B000D404206808F012FC00F00200022805D1A7
:1041C0002068406900F0020021684861206808F01A
:1041D00005FC00F01000102845D12068806920F00F
:1041E000100021688861DBF8209009F00F0000EBD7
:1041F000C00104F5157000EB810AC9F343400228A1
:104200001AD147F6F07009EA000030B3C9F30A1278
:104210005846DAF80C1008F0E6FBC9F30A11DAF890
:104220000C000844CAF80C00C9F30A11DAF81400AB
:104230000844CAF8140010E0C9F3434006280CD122
:10424000082204F29C41584608F0CDFBC9F30A113C
:10425000DAF814000844CAF814002068806940F0B5
:10426000100021688861206808F0B8FB00F4002085
:10427000B0F5002F7BD10025206808F07FFB02906D
:1042800072E0E1E2029800F00100002868D0E9B293
:10429000206808F096FB804608F0010048B1012133
:1042A00006F5306000EB451081602946204604F099
:1042B00039FE08F00800082809D1082106F5306009
:1042C00000EB451081602946204604F0F9FD08F016
:1042D0001000102805D1102106F5306000EB4510C4
:1042E000816008F00200022824D1DBF8140000F0FD
:1042F0008000802807D140F60400805940F4806196
:1043000040F60400815105EBC50104F5157000EB82
:10431000810A9AF80300012806D100208AF80300D8
:10432000E9B2204600F09BFA022106F5306000EB6E
:104330004510816008F02000202805D1202106F5D5
:10434000306000EB4510816008F40050B0F5005F6C
:1043500006D14FF4005106F5306000EB4510816046
:104360006D1C029840080290029800288AD12068AB
:1043700008F034FB00F48020B0F5802F7DD1206858
:1043800008F0F2FA029000259AE0029800F001008D
:10439000002873D0E9B2206808F0FAFA804608F0E5
:1043A0000100F0B305F00F0101208840019040F6B4
:1043B00034008159019821EA000040F63401885107
:1043C000012106F5106000EB45108160A0790128FD
:1043D00024D105EBC50104F1140000EB810005EBCD
:1043E000C502C16804F1140000EB8200806801443A
:1043F00005EBC50204F1140000EB8200C1606DB949
:1044000005EBC50104F1140000EB8100006928B937
:1044100004F29C420121206807F0DCFEE9B220464C
:1044200000E001E0FFF714FD08F00800082805D1BE
:10443000082106F5106000EB4510816008F01000BF
:10444000102805D1102106F5106000EB45108160A1
:1044500008F04000402805D1402106F5106000EB2F
:104460004510816008F0020002281DD129465846F7
:1044700008F001FA05EBC50101E025E01CE004F1BC
:10448000140000EB810A9AF80300012806D10020ED
:104490008AF80300E9B2204600F0D8F9022106F5B7
:1044A000106000EB4510816008F08000802803D187
:1044B0002946204604F0D8FD6D1C02984008029061
:1044C000029800287FF461AF206808F087FA00F0B6
:1044D0000040B0F1004F1CD140F60400805920F09C
:1044E000010140F60400815194F8CC04012807D161
:1044F000002084F8CC0400212046FFF775FC02E080
:10450000204600F0D1FA2068406900F000402168A0
:104510004861206808F062FA00F40060B0F5006FAE
:104520000ED140F60800805900F0010010B120467D
:1045300000F012FB2068406900F4006021684861C7
:10454000206808F04BFA00F48050B0F5805F7ED10F
:1045500040F60400805920F0010140F6040081512A
:104560001021206808F087F9002732E04FF67F31EC
:1045700006F5106000EB4710816006F5106000EB57
:104580004710006820F4001106F5106000EB47109A
:1045900001604FF67F3106F5306000EB4710816017
:1045A00006F5306000EB4710006820F4001106F5B6
:1045B000306000EB4710016006F5306000EB4710FB
:1045C000006840F0006106F5306000EB47100160C4
:1045D0007F1C2079B842C9D840F61C00805940F0B1
:1045E000011140F61C008151E07B70B1D6F88408BF
:1045F00040F00B01C6F8841840F64400805940F0A2
:104600000B0140F6440081510FE040F61400805940
:1046100042F22B01084340F614018851081F8059CB
:1046200040F00B014FF401608151D6F8000820F4EE
:10463000FE60C6F80008A17904F29C42206807F0E9
:10464000C9FD2068406900F48050216800E000E066
:104650004861206808F0C2F900F40050B0F5005F2E
:1046600017D1206807F064FB206808F02EF9E0718C
:1046700000F070FB0090E2792068009908F064FA7D
:10468000204600F0F9F92068406900F400502168E4
:104690004861206808F0A2F900F00800082808D155
:1046A000204600F008FA2068406900F00800216800
:1046B0004861206808F092F900F08000802818D145
:1046C000DBF8180020F08000CBF8180001250DE081
:1046D00005EBC50104F5157000EB8100C0780128D9
:1046E00003D1E9B22046FFF7DAFB6D1C2079A8421E
:1046F000EED8206808F072F900F48010B0F5801F41
:104700002DD1012522E006F5106000EB4510D0F810
:10471000009005EBC50104F1140000EB8100007965
:10472000012812D109F00040B0F1004F0DD1012154
:1047300005EBC50204F1140000EB8200C170E8B281
:1047400040F080012046FFF7AAFB6D1C2079A842AB
:10475000D9D82068406900F4801021684861206839
:1047600008F03CF900F40010B0F5001F44D1012519
:1047700038E006F5306000EB4510D0F8009005EB0E
:10478000C50104F5157000EB81000079012828D1DE
:1047900009F00040B0F1004F23D194F8D40400F0A8
:1047A0000100C9F3004188421BD1012105EBC5027C
:1047B00004F5157000EB8200C170DBF8180040F0C2
:1047C0008000CBF81800DBF8140000F0800040B93E
:1047D00040F60400805940F4007140F60400815115
:1047E00003E06D1C2079A842C3D800BF206840694F
:1047F00000F4001021684861206808F0EFF800F02C
:104800008040B0F1804F08D12046FFF71AFB2068A6
:10481000406900F0804021684861206808F0DEF8B7
:1048200000F0040004280FD12068D0F8049009F0AB
:104830000400042802D12046FFF72AFB20684068C4
:1048400040EA09002168486000BFA9E470B5044649
:104850000D462946D4F8E00406F07EFD70BD70B523
:1048600004460D462946D4F8E00406F099FD70BDD3
:10487000F8B504460CB90120F8BD266894F89504F3
:1048800028B9002084F89404204600F0A1F8032001
:1048900084F89504B6F1A04F01D10021A1712068E0
:1048A00007F090FC207C8DF8000094E80F0007F0E2
:1048B00053FA20B1022084F895040120DCE700219E
:1048C000206808F0EFF820B1022084F89504012058
:1048D000D2E7002531E0012105EBC50204F1140007
:1048E00000EB8200417005EBC50104F1140000F8F3
:1048F000215005EBC50100EB81004583002105EB4C
:10490000C50204F1140000EB8200017105EBC50241
:1049100004F1140000EB8200816005EBC50204F194
:10492000140000EB8200C16005EBC50204F1140025
:1049300000EB82000161681CC5B22079A842CADC84
:1049400000252AE0002105EBC50204F5157000EBF7
:104950008200417005EBC50104F5157000F8215087
:10496000002105EBC50200EB8200017105EBC502D9
:1049700004F5157000EB8200816005EBC50204F5BB
:10498000157000EB8200C16005EBC50204F51570DF
:1049900000EB82000161681CC5B22079A842D1DC1D
:1049A000207C8DF8000094E80F0007F017FB20B181
:1049B000022084F8950401205EE700206074012045
:1049C00084F89504206807F0F7FA002054E7000007
:1049D00010B586B00446142101A8FBF716FE206826
:1049E000B0F1A04F42D100BF0020009020480068E5
:1049F00040F001001E4908600846006800F0010010
:104A0000009000BF00BF4FF4C05001900220029000
:104A100000200390032004900A20059001A9154866
:104A2000FEF7C8FF00BF1248001D006840F080007C
:104A30000F49091D086000BF002000900C48143089
:104A4000006840F480400A49143108600846006854
:104A500000F48040009000BF00BF00BF002205218D
:104A60004320FFF76FF94320FFF758F906B010BD58
:104A7000303802400000024070B504460125E0795C
:104A800008B9002506E0E079022801D1012501E0FE
:104A9000FEF73CF82946D4F8E00406F02BFDD4F8E4
:104AA000E00406F0D1FC70BD10B50446D4F8E00473
:104AB00006F001FD10BD10B50446D4F8E00406F080
:104AC00005FD10BD70B504460D4600BF94F8940472
:104AD000012801D1022070BD012084F8940400BF98
:104AE00065742946206808F011F800BF002084F89A
:104AF000940400BF00BFEEE710B5044604F29C41E9
:104B0000D4F8E00406F00DFD10BD70B5044625682C
:104B100000BF94F89404012801D1022070BD012047
:104B200084F8940400BFE86800F0400030B1607B76
:104B3000012803D1A86B40F48030A863206807F0F7
:104B40006BFE206807F026FA00BF002084F894046A
:104B500000BF00BFE2E7000010B50446D4F8E0044F
:104B600006F03CFD2068D0F8000E40F001002168FE
:104B7000C1F8000EE07A28B10348006840F0060052
:104B80000149086010BD000010ED00E070B504465A
:104B90000D460CB9012070BD5848006800F00700B0
:104BA000A84209D255490D700846006800F0070078
:104BB000A84201D00120EEE7207800F00200022890
:104BC0001DD1207800F00400042805D14C4800686D
:104BD00040F4E0504A490860207800F008000828B6
:104BE00005D14748006840F46040454908604448A2
:104BF000006820F0F000A16808434149086020786F
:104C000000F00100A8B36068012807D13C480838CB
:104C10000068C0F34040B8B90120BCE760680228D2
:104C200002D06068032807D1354808380068C0F30F
:104C3000406048B90120AEE7314808380068C0F349
:104C4000400008B90120A6E72D48006820F00300C5
:104C5000616808432A490860FEF7ACFF064609E090
:104C6000FEF7A8FF801B41F28831884202D9032059
:104C700091E707E02248006800F00C006168B0EBA3
:104C8000810FEDD11D48006800F00700A84209D946
:104C90001A490D700846006800F00700A84201D0CC
:104CA000012078E7207800F00400042807D1144898
:104CB000006820F4E050E16808431149086020785A
:104CC00000F00800082808D10D48006820F4604072
:104CD000216940EAC1000A49086000F061F808490A
:104CE0000968C1F30311074A515CC84006490860CE
:104CF00006480068FEF78EFF00204CE7003C0240AB
:104D000008380240FCF900082000002018000020AC
:104D10000F2202600D4A126802F0030242600B4A41
:104D2000126802F0F0028260084A126802F4E0524F
:104D3000C260064A126802F46042D2080261044A64
:104D4000126802F007020A6070470000083802404B
:104D5000003C02400148006870470000200000202D
:104D600000B5FFF7F7FF04490968C1F38221034A40
:104D7000515CC84000BD0000083802400CFA000831
:104D800000B5FFF7E7FF04490968C1F34231034A60
:104D9000515CC84000BD0000083802400CFA000811
:104DA0002DE9F047002400250026A146254800688B
:104DB00000F00C0020B1042805D008283AD105E005
:104DC000DFF8849039E0DFF8849036E01D48001F5A
:104DD000006800F03F041B48001F006800F48000DA
:104DE00078B11A481749091F0968C1F38811A0FB57
:104DF00001700146224600233846FBF7F6FA0546C5
:104E00000EE011480F49091F0968C1F38811A0FB82
:104E100001700146224600233846FBF7E6FA0546B4
:104E20000848001F0068C0F30140401C4600B5FB65
:104E3000F6F902E0DFF8109000BF00BF4846BDE879
:104E4000F0870000083802400024F400001BB7007F
:104E5000F8B504460CB90120F8BD207800F0010037
:104E6000002874D0F948006800F00C0004280DD028
:104E7000F648006800F00C00082813D1F348001F22
:104E8000006800F48000B0F5800F0BD1EF480838BF
:104E90000068C0F34040002859D06068002856D10F
:104EA0000120D9E700BF6068B0F5803F08D1E7482E
:104EB0000838006840F48030E449083908601EE092
:104EC0006068B0F5A02F0DD1E0480838006840F4C4
:104ED0008020DE49083908600846006840F48030C8
:104EE00008600CE0D9480838006820F48030D749C1
:104EF000083908600846006820F48020086000BF78
:104F0000606890B1FEF756FE054606E0FEF752FED9
:104F1000401B642801D903209EE7CC48083800686C
:104F2000C0F340400028F1D011E0FEF743FE0546F3
:104F300006E0FEF73FFE401B642801D903208BE703
:104F4000C24808380068C0F340400028F1D12078FA
:104F500000F0020002285FD1BC48006800F00C009D
:104F600058B1BA48006800F00C0008281CD1B748B6
:104F7000001F006800F48000B0B9B4480838006829
:104F8000C0F3400020B1E068012801D0012063E7B0
:104F9000AE480838006820F0F800216940EAC100F6
:104FA000AA490839086037E0E06800B30120A84941
:104FB0000860FEF7FFFD054606E0FEF7FBFD401B1F
:104FC000022801D9032047E7A04808380068C0F349
:104FD00040000028F1D09D480838006820F0F80013
:104FE000216940EAC10099490839086014E00020AD
:104FF00097490860FEF7DEFD054606E0FEF7DAFD9C
:10500000401B022801D9032026E790480838006891
:10501000C0F340000028F1D1207800F008000828F3
:105020002CD16069A8B101208A490860FEF7C2FD51
:10503000054606E0FEF7BEFD401B022801D903200D
:105040000AE782486C300068C0F340000028F1D0C5
:1050500014E000207F490860FEF7ACFD054606E03D
:10506000FEF7A8FD401B022801D90320F4E677488B
:105070006C300068C0F340000028F1D1207800F0C7
:105080000400042870D1002770483830006800F010
:10509000805090B900BF002000906C483830006804
:1050A00040F080506949383108600846006800F0D7
:1050B0008050009000BF00BF01276748006800F4DF
:1050C0008070B0B96448006840F48070624908603C
:1050D000FEF770FD054606E0FEF76CFD401B02285A
:1050E00001D90320B8E65C48006800F4807000280D
:1050F000F2D000BFA068012808D154486830006889
:1051000040F001005149683108601DE0A0680528A1
:105110000DD14E486830006840F004004B496831BA
:1051200008600846006840F0010008600CE047484D
:105130006830006820F00100444968310860084682
:10514000006820F00400086000BFA068A8B1FEF766
:1051500031FD054609E0FEF72DFD401B41F2883187
:10516000884202D9032077E626E038486830006894
:10517000C0F340000028EED013E0FEF71BFD05460B
:1051800008E0FEF717FD401B41F28831884201D943
:10519000032061E62D4868300068C0F34000002815
:1051A000EFD1012F07D129483830006820F0805016
:1051B00026493831086000BFA069002845D023483F
:1051C000006800F00C0008285DD0A069022845D1D5
:1051D00000201F490866FEF7EDFC054606E0FEF7D5
:1051E000E9FC401B022801D9032035E6174808389E
:1051F0000068C0F340600028F1D1D4E907010843FA
:10520000616A40EA81110122A06AC2EB500041EAC2
:1052100000412C20005D41EA00600C49091F086034
:1052200001200B490866FEF7C5FC054606E0FEF7BF
:10523000C1FC401B022801D903200DE603480838B1
:105240000068C0F340600028F1D049E0083802400F
:1052500000004742800E4742007000400020214974
:105260000866FEF7A7FC054606E0FEF7A3FC401B18
:10527000022801D90320EFE51B480068C0F3406015
:105280000028F2D12CE0A069012800D1E4E51648FD
:10529000001D0668A069012820D006F48001E0699D
:1052A00081421BD106F03F01206A814216D147F6A8
:1052B000C0703040616AB0EB811F0FD106F44031FD
:1052C0000122A06AC2EB5000B1EB004F06D106F0FC
:1052D00070612C20005DB1EB006F01D00120BBE5B7
:1052E0000020B9E500004742003802407047000046
:1052F000F8B504462068466820688568C5F38010C4
:1053000048B905F0010030B1C6F3801018B120464D
:10531000216C8847F8BDC5F3400030B1C6F3C0101A
:1053200018B12046616C8847F4E7C5F3401030B9E6
:10533000C5F3801018B9C5F3002000287CD0C6F34F
:10534000401000287DD0C5F38010F0B194F85100D2
:1053500003280ED0606D40F00400606500BF00209F
:1053600000902068C068009020688068009000BFAE
:105370000BE000BF002000902068C068009020680B
:105380008068009000BF00BFC4E7C5F3401088B13B
:10539000606D40F00100606500BF00200090206853
:1053A000806800902068006820F040002168086054
:1053B00000BF00BFC5F3002058B1606D40F0080089
:1053C000606500BF0020009020688068009000BFEA
:1053D00000BF606D78B32068406820F0E00021686D
:1053E0004860012084F8510006F00200022802D033
:1053F00006F0010008B32068406820F0030021682F
:105400004860E06C50B11048E16C0865E06CFEF754
:10541000C8F818B1606D40F040006065A06C50B1F4
:105420000948A16C0865A06CFEF7BBF818B1606D67
:1054300040F04000606503E003E02046FFF756FFC0
:1054400068E700BF66E700006194000810B50446F5
:105450000CB9012010BD606A38B96068B0F5827F70
:1054600000D105E00021E16102E0002121616161DC
:105470000021A16294F8510028B9002084F850005E
:10548000204600F047F8022084F8510020680068A8
:1054900020F0400021680860A08800F48270218913
:1054A00001F404410843A18901F400610843217C0F
:1054B00001F002010843217D01F001010843218B25
:1054C00001F400710843217F01F0380108432021D5
:1054D000095D01F080010843218D01F4005108436A
:1054E000216808600421A06901EA104094F82410A2
:1054F00001F010010843216848602068C06920F469
:1055000000602168C86100206065012084F85100B6
:1055100000209FE710B586B00446142101A8FBF7D0
:1055200074F84F49206888427ED100BF0020009067
:105530004C48006840F480504A49086008460068BA
:1055400000F48050009000BF00BF00BF002000901A
:1055500044481438006840F0020042491439086099
:105560000846006800F00200009000BF00BF00BFC6
:10557000002000900846006840F0010008600846DE
:10558000006800F00100009000BF00BF18200190EB
:105590000220029001200390032004900520059032
:1055A00001A93148FEF706FA8020019002200290FE
:1055B00001200390032004900520059001A92B48A9
:1055C000FEF7F8F92A482B4908604FF0C0604860A0
:1055D000002128488160C1604FF480610161002191
:1055E00041618161C16101620421416203218162E3
:1055F0000021C1620163FEF709F908B1FDF786FADF
:1056000000BF1C48E064846300BF194848301A4951
:1056100008604FF0C0604860402117488160002159
:10562000C1604FF4806100E018E001610021416138
:105630008161C16101624162FEF7E8F808B1FDF7DE
:1056400065FA00BF0C48A064846300BF00220521F6
:105650002320FEF777FB2320FEF760FB06B010BD8A
:105660000030014044380240000402400000024083
:105670001064024004080020640800202DE9FE4F59
:1056800004460F4690461D460C9E01200190FEF7F1
:1056900091FA814694F851B060680290AA46BBF135
:1056A000010F0BD00298B0F5827F04D1A06810B929
:1056B000BBF1040F02D00220BDE8FE8F1FB1B8F18C
:1056C000000F00D00DB90120F6E700BF94F850009C
:1056D000012801D10220EFE7012084F8500000BF2B
:1056E00094F85100042802D0052084F851000020CD
:1056F0006065C4F83880E587A5872763E586A586B9
:10570000206460642068006800F04000402805D0F4
:105710002068006840F0400021680860E068B0F54B
:10572000006F52D1606810B1BAF1010F09D1206B3E
:1057300000882168C860206B801C2063E08E401EBA
:10574000E0863BE02068806800F00200022810D16B
:10575000E08E70B1019801280BD1206B0088216880
:10576000C860206B801C2063E08E401EE086002015
:1057700001902068806800F0010068B1E08F58B1A6
:105780002068C068A16B0880A06B801CA063E08FBC
:10579000401EE08701200190FEF70CFAA0EB090003
:1057A000B0420BD3701C48B1012084F8510000BFF7
:1057B000002084F8500000BF03207DE7E08E002821
:1057C000C0D1E08F0028BDD152E0606810B1BAF1BD
:1057D000010F09D1206B007821680873206B401CF1
:1057E0002063E08E401EE0863CE02068806800F088
:1057F0000200022810D1E08E70B1019801280BD16F
:10580000206B007821680873206B401C2063E08EB9
:10581000401EE086002001902068806800F00100B2
:1058200068B1E08F58B12068C068A16B0870A06BA8
:10583000401CA063E08F401EE08701200190FEF72E
:10584000B9F9A0EB0900B04201D3701C00B94EB900
:10585000012084F8510000BF002084F8500000BFF0
:10586000032029E7E08E0028BFD1E08F0028BCD1BB
:105870004A463146204603F0FDFD40B120206065D8
:1058800000BF002084F8500000BF012014E7A0688A
:1058900050B900BF002000902068C06800902068C8
:1058A0008068009000BF00BF012084F8510000BF55
:1058B000002084F8500000BF606D08B10120FBE6B5
:1058C0000020F9E67047704710B504460CB9012076
:1058D00010BD94F83D0028B9002084F83C00204613
:1058E00000F026F8022084F83D00211D206804F015
:1058F00001F9012084F8460000BF84F83E00012130
:105900003F200155402001554120015500BF00BFF7
:10591000012084F8420043200155442001554520D0
:10592000015500BF012084F83D000020D0E70000B1
:1059300008B50A4A016891420FD100BF00210091C9
:105940000749096841F40031054A116011460968A8
:1059500001F40031009100BF00BF08BD00440140C8
:1059600044380240014691F83D00012801D0012051
:105970007047022081F83D000868C06840F00100CF
:105980000B68D8601A4B086898421BD00868B0F1C1
:10599000804F17D0174B0868984213D0164B0868F1
:1059A00098420FD0154B086898420BD0144B0868EA
:1059B000984207D0134B0868984203D0124B0868EE
:1059C00098420CD10868806800F00702062A0CD0C3
:1059D0000868006840F001000B68186005E008687E
:1059E000006840F001000B6818600020C0E700006C
:1059F000000001400004004000080040000C00408E
:105A0000000401400040014000180040704770B59C
:105A100004462068C5682068066906F0020002286E
:105A200019D105F00200022815D1401F2168086134
:105A3000012020772068806900F0030018B120461B
:105A4000FFF7E4FF05E0204600F0C8F8204600F02C
:105A50007CF90020207706F00400042819D105F015
:105A60000400042815D1C043216808610220207772
:105A70002068806900F4407018B12046FFF7C6FF27
:105A800005E0204600F0AAF8204600F05EF900206C
:105A9000207706F00800082819D105F0080008282A
:105AA00015D1C04321680861042020772068C069AF
:105AB00000F0030018B12046FFF7A8FF05E02046DC
:105AC00000F08CF8204600F040F90020207706F026
:105AD0001000102819D105F01000102815D1C0436E
