:020000040800F2
:10000000A08701204D0300083D910008D989000810
:10001000ED8F0008014A0008EDC400080000000050
:100020000000000000000000000000008D02000839
:100030005154000800000000E9020008E59500089E
:1000400067030008670300086703000867030008E8
:1000500067030008670300086703000867030008D8
:1000600067030008670300086703000867030008C8
:100070005D50000867030008670300086703000875
:1000800067030008670300086703000867030008A8
:10009000054A0008154A00086703000867030008BE
:1000A0006703000867030008670300086703000888
:1000B0006703000867030008670300086703000878
:1000C000670300086703000867030008A595000898
:1000D0006703000867030008670300086703000858
:1000E0006703000867030008670300086703000848
:1000F00067030008E196000867030008670300082B
:100100006703000867030008670300086703000827
:100110006703000867030008670300086703000817
:100120006D500008670300087D5000088D500008DE
:1001300067030008670300086703000867030008F7
:10014000254A0008354A0008670300084191000865
:1001500067030008670300086703000867030008D7
:1001600067030008670300086703000867030008C7
:100170006703000867030008670300080000000029
:10018000670300086703000800F002F800F06EF84B
:100190000AA090E8000C82448344AAF10107DA45E2
:1001A00001D100F063F8AFF2090EBAE80F0013F0C6
:1001B000010F18BFFB1A43F001031847A4EB00001E
:1001C000E4EB00000A444FF0000C10F8013B13F080
:1001D000070408BF10F8014B1D1108BF10F8015BA0
:1001E000641E05D010F8016B641E01F8016BF9D193
:1001F00013F0080F1EBF10F8014BAD1C0C1B09D1EA
:100200006D1E58BF01F801CBFAD505E014F8016B5B
:1002100001F8016B6D1EF9D59142D6D370470000ED
:10022000103A24BF78C878C1FAD8520724BF30C822
:1002300030C144BF04680C607047000000230024F4
:1002400000250026103A28BF78C1FBD8520728BFE6
:1002500030C148BF0B6070471FB50EF036FB9DE8FC
:10026000030000F019FA1FBD10B510BD00F0A6FA8A
:100270001146FFF7F1FF0DF034F800F0C4FA03B4B3
:10028000FFF7F2FF03BC00F0F5FA00002C4B1968F1
:100290000868B0E8F04F80F30988BFF36F8F4FF024
:1002A000000080F3118870470000000008480068D3
:1002B000006880F308884FF0000080F3148862B66D
:1002C00061B6BFF34F8FBFF36F8F00DF00BF00BF7A
:1002D00008ED00E0DFF80C00016841F470010160F6
:1002E000704700BF88ED00E0EFF30980BFF36F8F28
:1002F000134B1A681EF0100F08BF20ED108A20E97A
:10030000F04F106009B44FF0500080F31188BFF334
:100310004F8FBFF36F8F0DF0F9FC4FF0000080F3AB
:10032000118809BC19680868B0E8F04F1EF0100F7A
:1003300008BFB0EC108A80F30988BFF36F8F704755
:100340000CC20120EFF30580704700000948804788
:1003500009480047FEE7FEE7FEE7FEE7FEE7FEE7A7
:10036000FEE7FEE7FEE7FEE704480549054A064BBF
:1003700070470000CD96000889010008A087002082
:10038000A0870120A0070120A007012070B5064624
:1003900000F066F9056806F10B0020F00704B4428E
:1003A0009CBF002070BD2B466A68BAB11068A0429D
:1003B00010D304F1080188423CBF5068586007D34D
:1003C0005168101941601168091B01605860146080
:1003D000101D70BD13465268002AE7D121462846F9
:1003E00000F046F90028DED170BD53EA020C00F09F
:1003F00069802DE9F04B4FF00006002B1FBFB3FAC8
:1004000083F503FA05F424FA05F65E4012BF16439D
:10041000B2FA82F502FA05F4C5F120051EBF22FAF0
:1004200005FC44EA0C04203556EA044C4FEA144417
:1004300018BF641C4FF000084FF00009904271EBA8
:10044000030C39D3002919BFB1FA81F701FA07F675
:10045000B0FA80F700FA07F6C7F120071EBF20FAAE
:1004600007FC46EA0C062037B6FBF4FCA7EB0507B1
:10047000103F07F01F0BCBF120060CFA0BFB2CFAF8
:1004800006F644BFB3460026202FA4BF5E464FF0B9
:10049000000B5BEA060C08BF4FF0010B19EB0B09D0
:1004A000ABFB027C48EB0608C01B06FB02CC0BFB37
:1004B00003CC71EB0C01C1E70B46024641464846AE
:1004C000BDE8F08B13B54FF000004FF00001AFF323
:1004D0000080BDE81C407047032A40F2308010F0D5
:1004E000030C00F0158011F8013BBCF1020F6244CF
:1004F00098BF11F801CB00F8013B38BF11F8013B60
:10050000A2F1040298BF00F801CB38BF00F8013B0C
:1005100011F0030300F02580083AC0F0088051F87C
:10052000043B083A51F804CBA0E80810F5E7121D87
:100530005CBF51F8043B40F8043BAFF30080D207A6
:1005400024BF11F8013B11F801CB48BF11F8012B72
:1005500024BF00F8013B00F801CB48BF00F8012B95
:10056000704710B5203AC0F00B80B1E81850203A1F
:10057000A0E81850B1E81850A0E81850BFF4F5AF43
:100580005FEA027C24BFB1E81850A0E8185044BFCD
:1005900018C918C0BDE810405FEA827C24BF51F83A
:1005A000043B40F8043B08BF7047D20728BF31F82E
:1005B000023B48BF11F8012B28BF20F8023B48BF7F
:1005C00000F8012B70474FF000020429C0F01280A0
:1005D00010F0030C00F01B80CCF1040CBCF1020FF6
:1005E00018BF00F8012BA8BF20F8022BA1EB0C01CB
:1005F00000F00DB85FEAC17C24BF00F8012B00F8C1
:10060000012B48BF00F8012B70474FF0000200B5E6
:10061000134694469646203922BFA0E80C50A0E825
:100620000C50B1F12001BFF4F7AF090728BFA0E8D3
:100630000C5048BF0CC05DF804EB890028BF40F89F
:10064000042B08BF704748BF20F8022B11F0804FE1
:1006500018BF00F8012B70477047704770470000C3
:1006600000487047448700207047704770477047C4
:1006700038B504460A4600206946AFF300800028DA
:1006800008BF38BD02460099204600F075F80120E9
:1006900038BD012000F08AB8F8B5AFF300800546F8
:1006A00000200C46102000BF0646A819A0420DD914
:1006B000324669460020AFF30080070008BF00F013
:1006C00075F80098A04218BF0546C419FFF7C8FF87
:1006D00005600746F01D20F007004619284600F087
:1006E0000AF8B44208BFF8BDA21B31463868BDE81D
:1006F000F84000F041B800210160C0E901107047E6
:100700001020704770B50446051FFFF7A9FF006869
:10071000002C14BF446870BD002C18BFAC423CBF15
:1007200020466468F8D301680A18AA4218BF4560D9
:1007300003D12A6805461144016028684119A14285
:100740001CBF6C6070BD61686960216808442860E6
:1007500070BD10B500F00CF8006810BD10B504466F
:1007600000F006F8046010BD004870473C87002088
:10077000004870473C870020034640688C460028AC
:1007800018BF88423CBF03464068F8D31868184435
:10079000884207D00CF1030020F00700001D411A29
:1007A000521A0146081D0A60FFF7ACBF10B500F0F1
:1007B00039F8BDE8104000F02FB870477546FFF7D4
:1007C000D3FFAE4605006946534620F00700854634
:1007D00018B020B5FFF7C8FDBDE820404FF0000677
:1007E0004FF000074FF000084FF0000B21F0070119
:1007F000AC46ACE8C009ACE8C009ACE8C009ACE85C
:10080000C0098D46704710B50446AFF300802046FE
:10081000BDE81040FFF733BD002801D000F02AB832
:100820007047000010B5012805D0002103A000F09A
:1008300027F8012010BD09A1F8E7000053494752ED
:10084000544D454D3A204F7574206F6620686561A0
:1008500070206D656D6F7279000000003A20486568
:100860006170206D656D6F727920636F7272757043
:100870007465640001491820ABBEFEE72600020043
:1008800070B505460C460A2000E06D1C00F011F81A
:1008900035B128780028F8D102E0641C00F009F88E
:1008A00014B120780028F8D1BDE870400A20AFF3D9
:1008B000008008B569468DF800000320ABBE08BD76
:1008C00070B52DED028B04469FED950AF0EE408A3F
:1008D0009448006803F022F99348006803F01EF979
:1008E0000020924948700846C0ED188A9FED900A92
:1008F00080ED1A0A8F48006820B18E48006890ED9C
:10090000040A01E09FED8C0A884880ED190A8B48A3
:100910000068201A8549C8660846807809286FD281
:10092000DFE800F0F6052743DDDEDFE0E100814887
:10093000006803F0F3F87F48006802F0FDF828B97A
:1009400000207F490870BDEC028B70BD7C480078A8
:1009500028B901207A4908707A480460F3E7794899
:100960000068201A142803D32146022002F0B8FAA6
:10097000D3E07048006803F0D1F86E48006802F0D8
:10098000DBF820B92146052002F0BCFADBE7674816
:10099000C06EB0F5FA6F07D36648006802F014FB2A
:1009A0002146032002F09CFAB7E06248006802F09A
:1009B000C3F820B92146052002F0A4FAC3E75D4838
:1009C000006890ED040AF7EE000A20EE208A5948EC
:1009D000006890ED040A554880ED190AB4EEE88AE3
:1009E000F1EE10FA0DDB5348006803F097F8514818
:1009F000006801F0E5F92146042002F071FAA2E74F
:100A000086E09FED510AB4EEC08AF1EE10FA08D3E9
:100A10009FED470A38EE800AB4EEC80AF1EE10FAEC
:100A200004D22146072002F06DFA8CE73F48C06EE1
:100A300047F23051884204D32146072002F062FA7F
:100A400081E73C480068B0F90C0000EE900AF8EE2F
:100A5000E00AB0EE600A0CF03AFCDFED3C0AB4EEBE
:100A6000E00AF1EE10FA10DB32480068D0ED020A1D
:100A7000B0EE600A0CF02BFCF3EE040AB4EEE00AD0
:100A8000F1EE10FA01D8012000E0002005462748C9
:100A9000C06EB0F5FA7F00D31DB900202C49086064
:100AA0000FE02B48006810B92948046009E0284885
:100AB0000068201AC82804D32146062002F022FA32
:100AC00041E79FED240A1B48006804F0BFFA19486B
:100AD000006804F025FA0120144908701DE000BFE9
:100AE00000BF00BF00BF1348006803F017F81148AB
:100AF000006820B10F48006890ED040A01E09FED06
:100B00000E0A0A4880ED190A00200849087004E01E
:100B10002146072002F0F6F900BF00BF00BF12E730
:100B200000C0D54418000020200000204407002009
:100B30000000B4421C00002000000000340000202F
:100B400026000020280000200000B4C200009644C7
:100B5000380000200000AB4310B504460448447040
:100B6000082C04D10E200249087001F0CBFF10BD03
:100B7000AC09002010B504463448007800B110BD1F
:100B800033480079042822D131484079F8B93148F6
:100B9000006801F0D1FF20B12F48006801F0CCFFC0
:100BA00018B900202D490870E9E72C48007828B9C9
:100BB00001202A4908702A480460E0E728480068B4
:100BC000201A142800D2DAE701F0B8FAD7E7204853
:100BD0000079012802D11E48407900B1CFE72148B1
:100BE000006801F0A9FF18B900201C490870C6E789
:100BF0001A48007828B9012018490870184804607C
:100C0000BDE717480068201A14281CD303F05AFEC9
:100C10001448006801F0D4F80D4890ED2A0A1148F4
:100C20000068D0ED040A30EE600A0F4880ED000A3B
:100C300001200E4908700020084908702246012151
:100C4000022002F0C1FC00BF99E70000250000204F
:100C5000440700201C000020200000202600002067
:100C600028000020180000204C0000205000002028
:100C700010B50446204601F065FD08B9002010BDFE
:100C800094ED000ADFED1B0AB4EEE00AF1EE10FA73
:100C90002EDB94ED000ADFED180AB4EEE00AF1EE67
:100CA00010FA25D894ED010AF1EE040AB4EEE00A38
:100CB000F1EE10FA1CDB94ED010ADFED100AB4EE40
:100CC000E00AF1EE10FA13D894ED020ADFED0C0AF7
:100CD000B4EEE00AF1EE10FA0ADB94ED020ADFED61
:100CE000090AB4EEE00AF1EE10FA01D80120C6E7D5
:100CF0000020C4E7000048C20000484200002F4323
:100D000000002FC30000B4C210B500F0F5F8094888
:100D1000006802F075FB0848D0ED2A0AB0EE600AC0
:100D20000448006804F092F90248006804F0F8F8FA
:100D300010BD0000180000204407002010B52DED64
:100D4000028B0446434890ED2A0A10EE101A08461A
:100D50000BF0E8FB38B92146072002F049FC0020DF
:100D6000BDEC028B10BD3C48006801F0E5FE28B9DF
:100D70002146062002F03CFC0020F1E737480068DD
:100D8000201A3449C1F8AC000846D0F8AC004AF645
:100D9000C871884205D32146092002F029FC0020B1
:100DA000DEE721469FED2E0A2B48006802F076FC14
:100DB00028B12146082002F01BFC0020D0E729487A
:100DC000006802F0ABFE2848006802F0A7FE00F0C1
:100DD00093F82148006802F013FB1E48D0ED2A0A60
:100DE000B0EE600A1C48006804F030F91A48006848
:100DF00004F096F818480068D0ED010A9FED1B1A20
:100E000071EE600AB0EE600A03F0B8FDB0EE408A01
:100E1000B0EE480A0CF05BFAF7EE000AB4EEE00A16
:100E2000F1EE10FA10D80C480068D0ED020AB0EECE
:100E3000600A0CF04CFAF3EE040AB4EEE00AF1EEAC
:100E400010FA01D801208BE7032002490870002026
:100E500086E7000044070020180000203C00002026
:100E600000401C461C00002020000020A75E3E43DE
:100E700010B52DED028B114890F8440010B11048C8
:100E8000006820B99FED0F0ABDEC028B10BD0E4823
:100E900090ED000A02F08AFBB0EE408A0848006834
:100EA000D0ED010A094890ED001A70EEC10A60EE1B
:100EB000880AB0EE600A03F061FDE5E70C08002047
:100EC0001800002000000000300000202C0000204E
:100ED00010B5C6B004464FF48C7206496846FFF759
:100EE00040FB4FF48C7269462046FFF73AFB46B050
:100EF00010BD0000A0E9000810B52DED028B2548BB
:100F0000006810B9BDEC028B10BD234890ED2A0A91
:100F100020480068D0ED040A30EE608A1F4800784F
:100F200028B31F4890ED000ADFED1E0AB4EEE00A78
:100F3000F1EE10FA06DD9FED1C0AB4EEC08AF1EE68
:100F400010FA10D3164890ED000ADFED170AB4EE40
:100F5000E00AF1EE10FA0AD29FED120AB4EEC08A4E
:100F6000F1EE10FA03DD0B48006800F029FFB0EE47
:100F7000480A0CF0ACF9DFED0B0AB4EEE00AF1EE32
:100F800010FA05DD064880ED008A0120034908704B
:100F900000BFB7E7180000204407002050000020E1
:100FA0004C000020CDCC4C3DCDCC4CBD3EB50446D4
:100FB000002C60D04E4890F84600E8B34D480068D9
:100FC00001F0BAFDC0B34C48006801F0B5FD98B31C
:100FD0004A48006801F0B0FD70B394ED000A10EECD
:100FE000101A08460BF09EFA30B394ED010A10EE89
:100FF000101A08460BF096FAF0B194ED020A10EEC2
:10100000101A08460BF08EFAB0B194ED000ADFED2D
:101010003C0AB4EEE00AF1EE10FA2CD394ED000A8B
:10102000DFED380AB4EEE00AF1EE10FA23DC94EDBD
:10103000010AB5EEC00A00E01DE0F1EE10FA1AD385
:1010400094ED010ADFED2F0AB4EEE00AF1EE10FA9A
:1010500011DC94ED020ADFED2A0AB4EEE00AF1EEAB
:1010600010FA08D394ED020ADFED270AB4EEE00A85
:10107000F1EE10FA01DD00203EBD244890ED020A99
:101080008DED000A90ED030A8DED010A90ED040A42
:101090008DED020A1748006800F092FE16480068BD
:1010A00000F08EFE1548006800F08AFE11480068C6
:1010B00002F0A6F91048006802F0A2F90F48006893
:1010C00002F09EF9684602F0DDFF08B90020D3E780
:1010D00094ED000A0D4880ED210A94ED010A80ED9F
:1010E000220A94ED020A80ED230A0120C4E70000E1
:1010F0000C080020180000201C0000202000002008
:10110000000034C3000034430000AAC2440700209A
:1011100010B50E2000F002F810BD000070B50446B6
:1011200007251D48006802F0F9FC1C48006802F021
:10113000F5FC1B48006802F0F1FC1748006800F05D
:101140003FFE1648006800F03BFE1548006800F0BE
:1011500037FE0020134981F8450002F069FE0020A7
:10116000114981F84C0008464471002008700F2C8A
:1011700001D1062506E0102C01D1092502E00E2C34
:1011800000D10A2505F0FAF906460748C17832462B
:10119000284602F019FA70BD180000201C0000203B
:1011A000200000200C0800204407002001460129EF
:1011B00003DB0C2901DC012070470020FCE7000064
:1011C0007CB50446854845792846FFF7EFFF50B9BE
:1011D0000D2D07D08248006802F0A0FC814800680D
:1011E00002F09CFC7CBD7E48006801F0A5FC20B1AB
:1011F0007C48006801F0A0FC18B90F20FFF78EFFB3
:10120000F0E70D2D75D2DFE805F0E1071D37495DE8
:1012100069758CA6B9CEDA000220734B9FED732A54
:10122000DFED731A9FED731AF7EE000A9FED720A55
:101230000122CDE900046A4801686A48006801F0AB
:101240008BFFC7E0234601226548016865480068B6
:1012500002F0A6F878B161484078022806D122460B
:1012600060480168032000F065FE04E0224600218A
:10127000062000F05FFEADE004235B4ADFED5B1A61
:101280009FED5B1AF7EE000A9FED5B0A544800944D
:1012900001685448006801F0D3FF9BE0524B9FED7A
:1012A000532ADFED531A9FED531AF7EE000A9FED14
:1012B000520A01224A48009401684A48006801F035
:1012C00097FE87E006239FED4A0A012244480094D6
:1012D00001684448006802F035F87BE04148006846
:1012E00002F01CFC22463E480168072000F022FE66
:1012F00070E06BE008204AF6C8739FED3C2ADFEDF2
:101300003F1A9FED3F1AF7EE000A9FED3E0A0022BA
:10131000CDE90004334801683148006801F01CFF42
:1013200058E0234600222F4801682D48006802F04B
:1013300037F878B129484078022806D12246284853
:101340000168092000F0F6FD04E0224600210C208F
:1013500000F0F0FD3EE00A234AF6C872DFED231AE2
:101360009FED261AF7EE000A9FED260A1D4800940D
:1013700001681B48006801F063FF2BE04AF6C87360
:101380009FED1A2ADFED1D1A9FED1D1AF7EE000AD8
:101390009FED1C0A00221348009401681048006861
:1013A00001F026FE16E00C239FED140A00220D48E2
:1013B000009401680A48006801F0C4FF0AE0084888
:1013C000006802F0ABFB00F0D9FD03E00E20FFF750
:1013D000A5FE00BF00BF00BF04E7000044070020D7
:1013E0001C00002020000020803801000000B443D1
:1013F000956B15420000AF440000484481D59941E7
:10140000000096440000E143F0EE401AF4EEE01ACA
:10141000F1EE10FA02D2B0EE600A7047F4EEC11A93
:10142000F1EE10FA02DDB0EE410AF6E7B0EE610A25
:10143000F3E7000030B52DED048B89B0F0EE408A63
:10144000B0EE609A0546B7EE0E0A28EE800AC0EEAE
:10145000090AB0EE608A0020069007900890874A3B
:10146000D2E900109268CDE904020391012456E00C
:1014700004EB4401824800EB8100D0ED000A601EBD
:1014800000EB40017E4800EB810090ED001A70EE09
:10149000C10AB0EE600A00F06FFCF0EE409A0BF06B
:1014A0001BFFDDED060A30EE200A8DED060A04EB87
:1014B0004401734800EB8100D0ED010A601E00EB8F
:1014C00040016F4800EB810090ED011A70EEC10AF7
:1014D000B0EE600A0BF000FFDDED070A30EE200AE7
:1014E0008DED070A04EB4401654800EB8100D0ED67
:1014F000020A601E00EB4001614800EB810090EDA4
:10150000021A70EEC10AB0EE600A0BF0E5FEDDEDE6
:10151000080A30EE200A8DED080A601C84B2AC4245
:10152000A6DB00201AE006A901EB8001D1ED000A3C
:10153000B7EE0E1A60EE810A03A901EB800191ED6E
:10154000001AC0EE811AB0EE610AB4EEC80AF1EEDC
:1015500010FA01DDB0EE408A411CC8B20328E2D384
:10156000012470E004EB4401454800EB8100D0ED1C
:10157000000A601E00EB4001414800EB810090ED45
:10158000001A70EEC10AB0EE600A00F0F5FBF0EE52
:10159000409A0BF0A1FE8DED000A04EB440138489F
:1015A00000EB8100D0ED010A601E00EB40013448E1
:1015B00000EB810090ED011A70EEC10AB0EE600AF6
:1015C0000BF08AFE8DED010A04EB44012C4800EB80
:1015D0008100D0ED020A601E00EB4001284800EBBC
:1015E000810090ED021A70EEC10AB0EE600A0BF0B5
:1015F00073FE8DED020A002021E0694601EB8001B7
:10160000D1ED000AB7EE0E1A20EE811A691E00EE27
:10161000901AF8EE600A61EE200A03A901EB80013E
:1016200091ED001AC0EE811AB0EE610AB4EEC80A5C
:10163000F1EE10FA01DDB0EE408A411CC8B2032879
:10164000DBD3601C84B2AC428CDB9FED0E0AB4EE9F
:10165000C08AF1EE10FA03D29FED0A0AB0EE408A7A
:10166000DFED090A9FED090A08EE200ABCEEC00A68
:1016700010EE100A09B0BDEC048B30BD0CED000873
:101680004C0A00206F12833A00007A4477BE7F3FF5
:1016900070B52DED048BB0EE409A06464E48008A98
:1016A000012807D84C4A303207CA86E80700BDEC4B
:1016B000048B70BDB7EE001ADFED480AB0EE490AA0
:1016C000FFF7A2FE4448008A401E00EE900AF8EEA2
:1016D000600A60EE208ABCEEE80A10EE100A84B2BE
:1016E0003D48008A401EA04207D83B48008A401E61
:1016F00084B225469FED398A07E0601C85B200EE72
:10170000104AB8EE400A38EEC08A05EB450132486F
:10171000303000EB8100D0ED000A04EB44012E488C
:10172000303000EB810090ED001A70EEC10AB0EE8F
:10173000600A00F021FB04EB44012748303000EB45
:101740008100D0ED000A48EE000AF0EE609AB0EE9B
:10175000690A00F011FB86ED000A05EB45011E4801
:10176000303000EB810090ED010A04EB44011A488F
:10177000303000EB8100D0ED010A70EE600A04EB1E
:1017800044011548303000EB810090ED010A08EE6D
:10179000200A86ED010A05EB45010F48303000EBC9
:1017A000810090ED020A04EB44010B48303000EB5D
:1017B0008100D0ED020A70EE600A04EB4401064895
:1017C000303000EB810090ED020A08EE200A86ED31
:1017D000020A00BF6BE700001C0A002000000000A6
:1017E00070B52DED028B04460D46D5ED000A94ED43
:1017F000001A70EEC10AB0EE600A00F0BDFAB0EE59
:10180000408A0BF069FDF1EE040AB4EEE00AF1EE55
:1018100010FA25D8D5ED010A94ED011A70EEC10A2F
:10182000B0EE600A0BF058FDF0EE000AB4EEE00AEC
:10183000F1EE10FA14D8D5ED020A94ED021A70EE0A
:10184000C10AB0EE600A0BF047FDF0EE000AB4EEFC
:10185000E00AF1EE10FA03D80120BDEC028B70BD56
:101860000020FAE70B4890F8460088B10A48007952
:1018700005280DD1084890F83C0048B1064890F87A
:101880003D0028B1044890F83E0008B1012070479F
:101890000020FCE70C0800204407002070B52DED67
:1018A000048B04460D4695ED000AD4ED000A30EE97
:1018B000600AB0EE409A95ED010AD4ED010A30EECF
:1018C000600AB0EE408A95ED020AD4ED020A30EECD
:1018D000600AF0EE408A69EE090A48EE080A48EE0E
:1018E000A80AB0EE600A0BF025FABDEC048B70BDBF
:1018F00010B52DED048BF0EE408AB7EE001ADFED47
:101900000F0AB0EE680AFFF77FFDB0EE408A28EEBE
:10191000080AB0EE409A29EE080AF0EE409ABAEEB4
:101920000E0AF1EE080A00EE880AF2EE040A48EE0A
:10193000000A20EEA90ABDEC048B10BD00000000D7
:10194000064981F854000021044A82F8551082F8B3
:1019500056101146896D491C91657047AC090020ED
:1019600070B52DED028B84B005463C4840682C1ABA
:101970003A48C068A04201D83848C4683748C068AF
:1019800058B1364890ED030AF8EE400A00EE104ACE
:10199000B8EE401A81EE200A01E0B7EE000AF0EE40
:1019A000408AB0EE680AFFF7A3FFB0EE408A01A8B4
:1019B000B0EE480AFFF76CFE01A802F063FBB8B96D
:1019C0002648C07C38B92648806D401C244988656B
:1019D00001202249C8740020214981F856001F487F
:1019E0004068401C1D49486004B0BDEC028B70BDCE
:1019F00000201A49C8740120194981F85600084688
:101A0000446680ED178A01A90EC910300EC0134834
:101A1000C068A0421FD81148008A401E86B206EB5B
:101A200046020E49303101EB820002F02BFB06EB3F
:101A300046010A48303000EB810309480ECB1030D4
:101A40000EC0B7EE000A1C3880ED170A29460620A2
:101A500000F008F800BF00BFC6E700001C0A002025
:101A6000AC090020024A1070024A11607047000061
:101A7000AC0900201C0A002070B58CB0044604F0AC
:101A80007DFD0546202104A8FEF7BFFDFFF7EAFE15
:101A900028B90320FFF754FF02200CB070BD524854
:101AA00090ED020A8DED010A90ED030A8DED020A18
:101AB00090ED040A8DED030A04AA01A9204600F066
:101AC0002BFC80B99DED0B0AF6EE000AB4EEE00A9D
:101AD000F1EE10FA07DC05A800F034FE18B105A8F5
:101AE000FFF7C6F828B99DF81000FFF729FF04207A
:101AF000D3E79DED010ADFED3D0AB4EEE00AF1EE19
:101B000010FA3CD39DED010ADFED390AB4EEE00A8C
:101B1000F1EE10FA33DC9DED020AB5EEC00AF1EEEB
:101B200010FA2CD39DED020ADFED320AB4EEE00A82
:101B3000F1EE10FA23DC9DED030ADFED2F0AB4EE7F
:101B4000E00AF1EE10FA1AD39DED030ADFED2B0A3D
:101B5000B4EEE00AF1EE10FA11DC9DED060ADDEDBF
:101B6000020AB4EEE00AF1EE10FA08DC9DED070A75
:101B7000DDED030AB4EEE00AF1EE10FA04D206201D
:101B8000FFF7DEFE042088E702201D490882084690
:101B900001A90EC930300EC03C3805A90EC93C3031
:101BA0000EC0174910488030D0E90C23806BC1E982
:101BB00006230862088ADFED130A9FED130AFFF778
:101BC00039FC064605A8FFF7F1F920B90320FFF715
:101BD000B7FE022061E7022301223146204600952C
:101BE00000F014F8002058E744070020000048C225
:101BF0000000484200003443000034C30000AAC281
:101C00001C0A00200000C842000000002DE9F04737
:101C100004460D4616461F46DDF820802048008AFF
:101C2000401E1FFA80F91E4894E80E0024300EC0B2
:101C30003038C560C0F80480067500201849C874A3
:101C40001848D1E90C23896BC0E90423816109EBB1
:101C500049011348303000EB810312480ECB1C3091
:101C60000EC02838D4E901132268C0E91313826436
:101C700000200C4981F85400012081F8550081F8BA
:101C800056009FED090A084680ED170A00204866B5
:101C9000487041463846FFF7E5FEBDE8F087000092
:101CA0001C0A0020AC0900200000000010B52F48DD
:101CB0002F4BD3E902211B69C0E9021342600024C3
:101CC00029E094B929481C3000EB8400D0ED000ACB
:101CD0002748083000EB840090ED001A70EEC10A2E
:101CE000B0EE600A00F048F80DE020481C3000EB30
:101CF000840090ED000A1E48083000EB8400D0ED0F
:101D0000000A30EE600A1948283000EB840080EDAC
:101D1000000A601CC4B2032CD3D314491448803089
:101D2000D0E90C23806BC1E90F2348644831A1F14D
:101D30000C00FFF7B3FD0D4880ED1B0A0C498A8F9C
:101D4000828691F83E1080F83610373008497F318E
:101D50000A880280897881700648C068034908664D
:101D60000448008AA1F8680010BD0000AC090020FA
:101D7000440700201C0A002005E0DFED0E0A70EE8B
:101D8000600AB0EE600ADFED0C0AB4EEE00AF1EE94
:101D900010FAF2DC05E0DFED070A70EE200AB0EE83
:101DA000600ADFED060AB4EEE00AF1EE10FAF2D3B3
:101DB000704700000000B44300003443000034C307
:101DC00010B5044604B910BD9FED080A84ED680AF9
:101DD00004F5947000F00CF804F1B00000F008F87D
:101DE00004F1380000F004F800BFECE70000000048
:101DF00010B504469FED1E0A84ED0B0A9FED1C0AE8
:101E000084ED0C0A9FED1A0A84ED0D0A9FED180A65
:101E100084ED0E0A9FED160A84ED0F0A9FED140A59
:101E200084ED100A9FED120A84ED110A9FED100A4D
:101E300084ED120A9FED0E0A84ED130A9FED0C0A41
:101E400084ED140A9FED0A0A84ED150A9FED080A35
:101E500084ED160A9FED060A84ED170A0021A1669B
:101E6000E1667020015504F1600003F0ADF910BD8A
:101E70000000000070B52DED028B04460D46B0EE5B
:101E8000408A16461F48006CB0F5FA7F0AD200203F
:101E90001C4981F84C001C4948601A494864BDEC53
:101EA000028B70BDB0EE480A204601F05BFD15497B
:101EB00081F84C00084690F84C0028B900201249DF
:101EC000486010494864EAE70F48406808B90E487E
:101ED00046600D484068301A0A4948640846406C1C
:101EE000082801D20020DAE7A1890648523020F8FC
:101EF000151094ED020A801D00EB850080ED000AAC
:101F00000120CCE7440700203807002010B5C6B0F8
:101F100004464FF48C7206496846FEF722FB4FF4E4
:101F20008C7269462046FEF71CFB46B010BD0000CF
:101F3000D0EB000810B50E4B587100230C4C2364F5
:101F400063649FED0C0A234683ED120A002384F894
:101F50004C30094B1A600023074C636011B191EDBE
:101F6000040A01E09FED030A034B83ED020A10BD52
:101F700044070020000000003807002010B5324858
:101F800090F8400090B1304890F8420070B12F486E
:101F9000407802280ED12C4890F8410030B12A48F0
:101FA00090F8430010B102F073FA18B91120FFF74E
:101FB000B5F810BD2648006890ED040A254880ED6C
:101FC000000A2548006890ED040A224880ED010AC5
:101FD0001F480068FFF7F4FE1F480068FFF7F0FE97
:101FE0001B48006801F00CFA1B48006801F008FA71
:101FF0001848D0ED000AB0EE600A1548006803F0FA
:1020000025F81448D0ED010AB0EE600A12480068C5
:1020100003F01CF80E48006802F082FF0E480068CA
:1020200002F07EFF0120084981F8450001F000FF21
:102030000D200649487102200870084640780128A2
:1020400000D100BF00BFB4E70C0800204407002007
:102050001C000020440000202000002010B52DEDC1
:102060000A8BF0EE409AB0EE608AB0EE41AA0446C8
:1020700014B9BDEC0A8B10BD9FED2B0A69EE80AA46
:102080009FED290A28EE00BA38EE0A0ADFED260A8B
:1020900060EE20BAB0EE4B0A0AF094FCDFED230AA2
:1020A00060EE20CAB0EE6B0A0AF08CFCDFED200A6D
:1020B000B0EE6CCA00EE80CABBEE0D0A7CEE008A60
:1020C0009FED1C9AB0EE6A0A0AF07CFC60EE28CA0A
:1020D000B0EE6A0A0AF066FD49EE40CAC4ED00CAD5
:1020E000B0EE6A0A0AF05EFD60EE28CAB0EE6A0A37
:1020F0000AF068FC49EE00CAC4ED01CAB0EE4B0A12
:102100000AF050FDDFED0CCADFED080A40EE80CA90
:10211000B0EE6B0A0AF046FDDFED050A40EE80CA1C
:10212000C4ED02CA00BFA4E735FA8E3C0000164396
:10213000000033433333F3C00000084210B50120E0
:1021400001F038FC10BD000000B5ADF5537D8DA841
:10215000FEF7BEFE47A801F015FA01A8FFF7D6FE6C
:10216000C8214E48FEF751FA48214D48FEF74DFA76
:10217000CC214C48FEF749FA8C214B48FEF745FA32
:102180008DA802F0D1FE4949086047A802F0CCFEB4
:102190004749086001A802F0C7FE46490860434865
:1021A0000068454908604248006848604148006846
:1021B00088600020394908704871A1F8C4003F497F
:1021C00008703F4908703F4908703F4908609FED1B
:1021D0003F0A3F4880ED000AB7EE000A3D4880ED17
:1021E000000A01202E4981F8440000F011FC01F0A2
:1021F0001FFE04F0C3F93849086000203749086021
:1022000004F0BCF9364908600020364908609FEDAB
:10221000360A364880ED000A9FED330A80ED010A48
:102220009FED310A324880ED000A002031490870E4
:1022300031490870314908703149087031490860E6
:102240009FED290A154880ED210A9FED2F0A80EDA8
:10225000220A9FED2E0A80ED230A2D48007808B14E
:10226000012000E000200D4988700020C870012086
:10227000087102F027FB01F03DFC01F0FDFD01F0CB
:10228000DFFE01F0F3FF02F07BF901F0EBFC01202F
:10229000204908700DF5537D00BD00004407002063
:1022A0000C080020540800202009002018000020FD
:1022B0001C000020200000202C07002059000020D6
:1022C000250000202600002028000020A75E3E43B5
:1022D0002C000020300000203400002038000020B6
:1022E0003C000020400000200000000044000020CE
:1022F0004C0000205000002051000020520000201F
:10230000530000205400002000003443000034C378
:1023100058000020240000202DE9F04F2DED108BF7
:1023200083B005460E4614469FEDF70AF0EE40DAFC
:102330004FF00009CA46CB462CB9032003B0BDECD0
:10234000108BBDE8F08F20212046FEF75EF985B3A3
:102350007EB395ED000A10EE101A08460AF0EBF86D
:1023600038B395ED010A10EE101A08460AF0E3F8AA
:10237000F8B195ED020A10EE101A08460AF0DBF8E3
:10238000B8B196ED000A10EE101A08460AF0D3F81C
:1023900078B196ED010A10EE101A08460AF0CBF853
:1023A00038B196ED020A10EE101A08460AF0C3F88A
:1023B00018B9032020702078C0E7D44890F8450071
:1023C00018B9022020702078B8E7D04890F844006F
:1023D00018B9012020702078B0E7D5ED000A60EE32
:1023E000A00A95ED011AD5ED011A41EE210AB0EED1
:1023F000600A0AF09FFCB0EE408A95ED020ADFED1C
:10240000C40A70EE608A18EE100A0AF094F820B13F
:1024100018EE900A0AF08FF818B90720207020787B
:102420008CE79FEDBC0A08EE080ADFEDBB0AB4EEAC
:10243000E00AF1EE10FA03D20420207020787DE744
:102440009FEDB50A18EE080AF0EE400A9FEDAE0ABD
:102450000AF060FBB0EE409A0AF06CFCF0EE409A95
:102460009FEDAC0AB4EEC08AF1EE10FA0ADD95EDEC
:10247000001AF0EE410A95ED011AB0EE410A0AF099
:1024800015F905E096ED000ADFEDA40A20EE200A1A
:10249000B0EE40DA0027D6E09FED9E0AF4EEC09A37
:1024A000F1EE10FA02D8012F00D1CAE017B9B0EE50
:1024B000690A01E0B1EE690AF0EE40BABBEE0D0A1E
:1024C0007BEEC0AAF0EE6B0A9FED950A0AF0EEF8DB
:1024D0003DEE400ADFED930A20EE200AB0EE40AA5E
:1024E00000F072FAB0EE40CA2AEEAA0A08EEA80A74
:1024F000DFED8D0A30EE600ADFED8C0A30EE600A07
:10250000DFED8B0A80EE209A19EE100A0AF013F81C
:1025100018B907202070207810E79FED860AB4EEE6
:10252000C09AF1EE10FA06D39FED830AB4EEC09A7A
:10253000F1EE10FA00DD84E04FF0010AB7EE001A68
:10254000FFEE000AB0EE490A00F0D2F9B0EE409A70
:102550004FF0000871E0B0EE490A0AF01BF8B0EE47
:1025600040BAB8F1000F03D0B1EE4B0AB0EE40BA5A
:10257000F0EE6A0AB0EE680A0AF098F8B0EE40FA97
:10258000B0EE4B0A0AF01EFADFED6C0A9FED6C1AF2
:1025900041EE000AB0EE60EAB0EE4B0A0AF002FB30
:1025A000DFED670A20EE200AF0EE40EAF0EE4E0A78
:1025B0000AF07CF87FEE40CA8DED00CA9FED590A03
:1025C0002CEE800A8DED010A9FED560A2BEE000AD3
:1025D0008DED020A684600F0B5F800B929E04FF029
:1025E000010B6846FEF744FB00B922E06078401C0E
:1025F00060703146684600F025F9B0EE40AA1AEE48
:10260000100A09F098FF18B907202070207895E685
:10261000B9F1000F04D0B4EEEDAAF1EE10FA07D232
:102620004FF00109F0EE4ADA9DE80700231D07C3C9
:1026300000BF08F1010000F0FF08B8F1020F8AD3D3
:1026400000BF781CC7B2022FFFF426AFB9F1000F0C
:102650000FD1BBF1000F02D00620207007E0BAF1C5
:10266000000F02D00520207001E0042020702078A7
:1026700064E6D4ED031AB0EE611AD4ED021AF0EE5E
:10268000610AD4ED011AB0EE610A04F11000FFF7FF
:10269000E5FCD4ED040A95ED001A70EEC10A60EE77
:1026A000A00A94ED051AD5ED011A31EE611AD4EDA8
:1026B000051A95ED012A71EEC21A41EE210A94ED38
:1026C000061AD5ED021A31EE611AD4ED061A95ED0F
:1026D000022A71EEC21A41EE210AB0EE600A0AF037
:1026E00029FB84ED070A94ED070A10EE101A08463C
:1026F00009F021FF18B90720207020781EE600207D
:10270000207020781AE60000000000000C0800206D
:102710000000084217B7D1383D0A674235FA8E3CAF
:102720003333F3C0E02E654200C8AF460052FA468C
:1027300000C45147470380BF4703803F0000164352
:102740000000334310B50446BCB194ED000A10EE0E
:10275000101A084609F0EFFE78B194ED010A10EE68
:10276000101A084609F0E7FE38B194ED020A10EE9F
:10277000101A084609F0DFFE08B9002010BD94EDDC
:10278000000ADFED240AB4EEE00AF1EE10FA3FDBB6
:1027900094ED000ADFED200AB4EEE00AF1EE10FA43
:1027A00036D894ED010A1D48D0ED020A9FED1C1A9F
:1027B00070EEC10AB4EEE00AF1EE10FA28DB94EDF7
:1027C000010AD0ED030A9FED161A70EE810AB4EEED
:1027D000E00AF1EE10FA1BD894ED020AD0ED060AD9
:1027E0009FED0F1A70EEC10AB4EEE00AF1EE10FA96
:1027F0000EDB94ED020AD0ED070A9FED091A70EE88
:10280000810AB4EEE00AF1EE10FA01D80120B5E732
:102810000020B3E7420034C3420034430C080020D8
:102820006F12833A10B52DED028BB0EE408AF0EEB8
:10283000608A78EE680AB0EE600A00F0C5F8BDEC78
:10284000028B10BD70B52DED068B04460D46244855
:1028500090ED030AD0ED020A30EE600AB0EE409A25
:1028600090ED070AD0ED060A30EE600AF0EE409ACD
:102870009FED1C0AB4EEC09AF1EE10FA06D99FED56
:10288000190AF4EEC09AF1EE10FA04D89FED160A78
:10289000BDEC068B70BD95ED001AF0EE410A94ED8B
:1028A000001AB0EE410AFFF7BDFFDFED100A80EE1F
:1028B00020AA94ED010AD5ED010A30EE600A80EEFF
:1028C000098A94ED020AD5ED020A30EE600AC0EEE4
:1028D000298A2AEE0A0A08EE080A08EEA80AD7E7AB
:1028E0000C08002017B7D1380000807F0000B443E7
:1028F000F0EE401AF4EEE01AF1EE10FA02D2B0EE69
:10290000600A7047F4EEC11AF1EE10FA02DDB0EE83
:10291000410AF6E7B0EE610AF3E7000010B52DEDCD
:10292000028B84B0044601A89FED211ADFED210A35
:102930009FED210AFFF792FBDDED010A60EEA00A90
:102940009DED021ADFED1D1A31EE611ADDED021A5E
:102950009FED1A2A71EEC21A41EE210A9DED031A6B
:10296000DFED171A31EE611ADDED031A9FED142A1F
:1029700071EEC21A41EE210AB0EE600A0AF0DAF9ED
:10298000B0EE408A0CB184ED008A18EE100A09F00E
:10299000D2FD58B19FED0B0AB4EEC08AF1EE10FAE9
:1029A00004D8012004B0BDEC028B10BD0020F9E773
:1029B000000034C300003443000000003333F3C090
:1029C000000008420AD7233C05E0DFED0E0A70EE56
:1029D000600AB0EE600ADFED0C0AB4EEE00AF1EE38
:1029E00010FAF2DC05E0DFED070A70EE200AB0EE27
:1029F000600ADFED060AB4EEE00AF1EE10FAF2D357
:102A0000704700000000B44300003443000034C3AA
:102A100010B5DFED330A9FED330A0AF09FF8324814
:102A200080ED000ADFED2E0A9FED2E0A0AF072F803
:102A30002D4880ED010ADFED2D0A9FED2D0A0AF0E9
:102A40008DF8294880ED040ADFED280A9FED280A59
:102A50000AF060F8244880ED050A90ED000AF1EED6
:102A6000040A30EE200A80ED020A90ED010AF1EE30
:102A7000040A30EE600A80ED030A90ED040AF1EEDC
:102A8000040A30EE200A80ED060A90ED050AF1EE08
:102A9000040A30EE600A80ED070A9FED160A80ED09
:102AA000080A9FED150A80ED090A9FED140A80EDD2
:102AB0000A0A9FED130A80ED0B0AD0ED0A0AB0EE68
:102AC000600A00F073FD084880ED0C0AD0ED0B0A97
:102AD000B0EE600A00F06AFD034880ED0D0A10BDFB
:102AE00000000000000034430C0800200000AAC2CF
:102AF000000034C3405458C5B2CB5DC54002553DBB
:102B00000A4DDBBC10B50848006801F007F807481B
:102B1000006801F003F80648006800F0FFFF00209D
:102B20000449087010BD0000180000201C0000209F
:102B3000200000204407002010B5044664B1D4F8FA
:102B4000B00148B1D4F8B40130B1D4F8B00102F00A
:102B500029FC08B1012010BD0020FCE710B52DEDC7
:102B6000048BF0EE408AB0EE609AB0EE418A18EE27
:102B7000100A09F0D7FC50B1B0EE480A0AF0A7FBE2
:102B8000DFED080AB4EEE00AF1EE10FA04D89FED8A
:102B9000060ABDEC048B10BDB0EE490A08EE880AA7
:102BA000F7E7000017B7D138000000002DE9F04129
:102BB0002DED048B92B00446F0EE408A03F0DEFC6B
:102BC000074620210AA8FDF720FD03208DF82800E4
:102BD00098480078022807D096480078042803D047
:102BE00094480078032805D1012012B0BDEC048B75
:102BF000BDE8F0811CB394ED000A10EE101A0846EF
:102C000009F0A2FCD8B194ED010A10EE101A0846A2
:102C100009F09AFC98B194ED020A10EE101A0846D9
:102C200009F092FC58B118EE900A09F08DFC30B111
:102C3000B7EE000AF4EEC08AF1EE10FA05D29DF864
:102C40002800FEF77DFE0320CFE7FEF70BFE28B934
:102C50009DF82800FEF774FE0220C6E7764890ED46
:102C6000020A8DED040A90ED030A8DED050A90ED40
:102C7000040A8DED060A04A8FFF764FD18B104A844
:102C8000FDF7F6FF20B90620FEF75AFE0420ACE758
:102C9000DDED061AB0EE611ADDED051AF0EE610AFF
:102CA000DDED041AB0EE610A6448FFF7D7F921465A
:102CB0006248FEF7F3FDB0EE408A18EE100A09F004
:102CC00043FC20B90720FEF73BFE03208DE79FED74
:102CD0005C0AB4EEC08AF1EE10FA04D80021204656
:102CE00000F096FB81E7B0EE000AC8EE000AB0EEF5
:102CF000609AB0EE490A09F02FFEBCEEC00A10EE51
:102D0000100A401C85B2022D02D3B5F5C07F04D94C
:102D10000320FEF715FE042067E7484818380582AF
:102D200004A90EC930300EC004A807C801AB07C300
:102D3000012663E0681E00EE100AF8EE400A00EE7D
:102D4000106AB8EE400A80EE201AB0EE419A94ED77
:102D5000000A3A481838D0ED060A70EE600A90ED85
:102D6000060A09EE200A8DED070A94ED010AD0ED5E
:102D7000070A70EE600A90ED070A09EE200A8DED51
:102D8000080A94ED020AD0ED080A70EE600A90ED90
:102D9000080A09EE200A8DED090A0AAA01A907A866
:102DA000FFF7BAFAA8B99DED110AF6EE000AB4EEE3
:102DB000E00AF1EE10FA0CDC0BA8FFF7C3FC40B1FF
:102DC0000BA8FDF755FF20B10BA901A8FEF708FDE0
:102DD00028B99DF82800FEF7B3FD042005E706EBAF
:102DE00046011648183000EB81000BA90EC90EC031
:102DF0000BA807C801AB07C3701C86B2AE4299DBB3
:102E00002846F0EE680AB0EE480AFEF713FB80464B
:102E100001A8FEF7CBF820B90320FEF791FD0220B0
:102E2000E3E604230222414620460097FEF7EEFE29
:102E30000020DAE6AC09002044070020340A002014
:102E40000AD7233C10B52DED068BF0EE409A2148B1
:102E5000006820B99FED200ABDEC068B10BD1D480F
:102E6000006890ED010A79EEC08AB0EE688A9FEDA5
:102E70001B0A38EEC09AB0EE490A0AF028FAB0EE02
:102E800040AAB0EE480A0AF022FAB4EEC0AAF1EE67
:102E900010FA01D2B0EE498A9FED100A38EE800A8E
:102EA000B0EE409AB0EE490A0AF011FAB0EE40AA2C
:102EB000B0EE480A0AF00BFAB4EEC0AAF1EE10FA2E
:102EC00001D2B0EE498A0348006890ED040A30EE62
:102ED000080AC1E718000020000000000000B44309
:102EE000054A90700022044BDA66044A1160002201
:102EF000034B1A6070470000440700203400002094
:102F00003800002070B504460D460C48006800F0FB
:102F100005FE0B48006800F001FE0A48006800F05A
:102F2000FDFD07480068FEF74BFF29462046FFF7E6
:102F3000D7FF00200449087070BD00001800002071
:102F40001C00002020000020440700202DE9F04153
:102F50002DED028B07460C46F0EE408A15461E46C4
:102F6000384600F0DBFD97ED040AB0EE408AB0EE83
:102F7000480A0AF0ACF9C0EE280AB2EE050AF4EEEF
:102F8000C00AF1EE10FA06D81120FEF7C7F8BDEC22
:102F9000028BBDE8F0813CB90A4880ED088A012027
:102FA000084981F8410006E0064880ED098A0120C1
:102FB000044981F84300324600212846FEF7BAFF53
:102FC00000BFE4E70C08002070B50446204600F07E
:102FD000A5FD00BFEFF31080054672B6204602F053
:102FE0001FF805B962B62046FEF7EAFE70BD000084
:102FF0002DE9F0412DED088B05460F461446B0EE45
:1030000040AAF0EE60AAB0EE418AF0EE618AB0EE1E
:10301000429A1E46DDF83880384600F07FFD1AEEF1
:10302000100A09F07FFAA0B118EE100A09F07AFA36
:1030300078B1B0EE4A0A0AF04AF9DFED440AB4EE7C
:10304000E00AF1EE10FA04D9B5EEC08AF1EE10FAFA
:1030500006D21120FEF762F8BDEC088BBDE8F081C6
:103060002946204601F074FA39480068A8EB0000B0
:1030700038490864D5ED040AB0EE600A0AF027F971
:10308000344880ED120A36B1006CB04203D31020F0
:10309000FEF744F8E0E718EE900A09F043FA80B131
:1030A00019EE100A09F03EFA58B19FED280AF4EE25
:1030B000C08AF1EE10FA04D9B5EEC09AF1EE10FA1A
:1030C00003D81120FEF72AF8C6E768EE899A19EEB0
:1030D000900A09F027FA38B11E4890ED120AB4EEB2
:1030E000E90AF1EE10FA03DB1120FEF717F8B3E757
:1030F000B0EE6A0A00F05AFAF1EE40BAB0EE4A0AAF
:103100000AF0E5F82BEE800AB0EE40BA284601F04E
:103110009DFF284601F004FF4246B0EE480A2146D2
:103120002846FEF7A7FE00B996E7284600F0F6FC11
:103130002846FEF745FE0CB90B2100E005210846A4
:1031400042462946FEF7F6FE00BF85E717B7D1389D
:1031500038070020440700202DE9F0472DED088BAB
:1031600005460E461446F0EE408AB0EE609AB0EE88
:10317000418AF0EE619AB0EE42AA1F46DDE910895D
:10318000304600F0CBFC18EE900A09F0CBF9A0B164
:1031900018EE100A09F0C6F978B1B0EE680A0AF024
:1031A00096F8DFED260AB4EEE00AF1EE10FA04D943
:1031B000B5EEC08AF1EE10FA06D21120FDF7AEFF8F
:1031C000BDEC088BBDE8F0872946204601F0C0F928
:1031D0004A463946F0EE4A0AB0EE690A284600F03F
:1031E00067FB00B1ECE7B0EE490A00F0DFF9B0EEA2
:1031F00040BAB0EE680A0AF06AF82BEE000AF0EE68
:1032000040AA284601F022FF284601F089FE4A46DE
:10321000B0EE480A21462846FEF72CFE00B9CFE75B
:10322000284600F07BFC2846FEF7CAFD4A462946A0
:103230004046FEF77FFE00BFC2E7000017B7D13857
:103240002DE9F0412DED088B04460D46F0EE408A45
:10325000B0EE609AB0EE418AF0EE619A16461F46D3
:10326000DDF83880284600F059FC18EE900A09F085
:1032700059F990B1B0EE680A0AF029F8DFED2E0A8C
:10328000B4EEE00AF1EE10FA07D9B7EE000A10EE3C
:10329000100A09F047F900B106E01120FDF73EFFE2
:1032A000BDEC088BBDE8F08142463146F0EE690A7C
:1032B000B0EE480A204600F0FBFA00B1F0E7B0EEAD
:1032C000490A00F073F9B1EE40BAB0EE680A09F0AD
:1032D000FEFF2BEE000AF0EE40AA204601F0B6FEFB
:1032E000204601F01DFE9FED140AB4EEC08AF1EEF7
:1032F00010FA0ADDD4ED040AB0EE600A09F0E7FF27
:10330000F0EE400A80EE880A01E09FED0C0AB0EE74
:1033100040AAB7EE000AB4EEC0AAF1EE10FA04DA41
:103320000748006CB0F5FA7F04D342462146384680
:10333000FEF700FE00BFB3E717B7D138000000006A
:10334000440700202DE9F0412DED028B80460C460C
:103350001546B0EE408A1E46089F404600F0DEFB50
:10336000204600F0DBFB0C480068381A0B49086463
:103370000846006C40F6B831884203D2BDEC028B9F
:10338000BDE8F0813B463246B0EE480A2946404649
:10339000FFF7DCFD00BFF1E73807002044070020FD
:1033A0002DE9F04107460C4615461E46384600F00A
:1033B000B5FB204600F0B2FB0E480068301A0E49FB
:1033C00008640846006C40F6B831884202D20020FA
:1033D000BDE8F0813846FFF7F7FD25B90120074920
:1033E00081F8400003E00120044981F842000120F7
:1033F000EEE7000038070020440700200C080020FA
:1034000000B97047402181834922C28300BFF8E799
:1034100030B58BB005460C46202103A8FDF7F5F822
:1034200003208DF80C00BDB195ED000A10EE101AC6
:10343000084609F089F878B195ED010A10EE101AE6
:10344000084609F081F838B195ED020A10EE101A1D
:10345000084609F079F860B99DF80C00FEF770FA9B
:1034600024B1202203A92046FDF77BF803200BB0EE
:1034700030BDFEF7F7F958B99DF80C00FEF760FA79
:1034800024B1202203A92046FDF76BF80220EEE7C5
:10349000364890ED020A8DED000A90ED030A8DED9D
:1034A000010A90ED040A8DED020A03AA6946284636
:1034B000FEF732FF80B99DED0A0AF6EE000AB4EE7F
:1034C000E00AF1EE10FA07DC04A8FFF73BF918B1A7
:1034D00004A8FDF7CDFB58B99DF80C00FEF730FAB3
:1034E00024B1202203A92046FDF73BF80420BEE7C3
:1034F00004A800F0C7FD58B99DF80C00FEF720FAAB
:1035000024B1202203A92046FDF72BF80220AEE7C4
:10351000174804A90EC910300EC01C3804A90EC9E2
:103520001C300EC0283895E80E0048300EC0002030
:103530000F4981F85400012081F8550081F85600A8
:10354000B7EE000A084680ED170A002008664866B4
:103550000120A1F868000020487024B1202203A9AE
:103560002046FCF7FEFF002081E700004407002012
:10357000AC09002000B97047082181830822C2836A
:1035800000BFF8E710B5C6B004464FF48C72064988
:103590006846FCF7E6FF4FF48C7269462046FCF75C
:1035A000E0FF46B010BD0000B8EA0008F0EE400AA7
:1035B000F5EEC00AF1EE10FA02DBB7EE000A704732
:1035C000BFEE000AFBE7000010B5064B1871D9707A
:1035D0000023044CC4F8AC30034B1A600023034CA6
:1035E000236010BD440700203C0000204000002064
:1035F00070B505460C461148C6781148006800F0C1
:103600008DFA1048006800F089FA0F48006800F051
:1036100085FA0B480068FEF7D3FB0A480068FEF7FE
:10362000CFFB09480068FEF7CBFB2246314628460F
:10363000FFF7CAFF00200149087070BD4407002051
:10364000180000201C0000202000002010B52DEDE7
:10365000048BF0EE408AB0EE609AB0EE418A18EE2C
:10366000100A08F05FFF50B1B0EE480A09F02FFED3
:10367000DFED080AB4EEE00AF1EE10FA04D89FED8F
:10368000060ABDEC048B10BD78EEC90A80EE880AEC
:10369000F7E7000017B7D1380000000070B52DED36
:1036A000028B0546B0EE408A0C46B5F90C0000EEE0
:1036B000900AF8EEE00AB0EE600A09F008FEB4EEF7
:1036C000C80AF1EE10FA05D200200A490860BDECE4
:1036D000028B70BD0748006818B9064804600020D6
:1036E000F5E704480068201AC82801D30120EEE756
:1036F0000020ECE74000002010B5044601F0E2F89D
:10370000644800790B2879D2DFE800F0BC06131D6D
:103710003949A7A8A9AAAB005F48006800F0FEF9E4
:103720005E48006800F0FAF95D48006800F0F6F9BC
:10373000ADE02046FDF702FB20B122460121032027
:10374000FFF742FFA3E05548006800F0E7F954484E
:10375000006800F0E3F9FDF7D7FA52480068201A34
:103760004C49C1F8AC000846D0F8AC00B0F5967FE3
:1037700004D3224601210420FFF726FF87E0FDF74E
:10378000C3FA494890F8450040B1424840790D28B5
:1037900004D1224601210520FFF716FF77E03E48BD
:1037A0000068FFF7C9F948B13C480068FFF7C4F961
:1037B00020B13B480068FFF7BFF900B967E000F0AF
:1037C0007FFAE0B134480068FFF71AFE334800681A
:1037D000FFF716FE32480068FFF712FE2E48006819
:1037E00001F09EFB2D48006801F09AFB2C48006810
:1037F00001F096FB02202749087048E041E000F004
:1038000055FA10B9FFF77EF941E024480068FFF748
:10381000F7FD23480068FFF7F3FD2448D0ED000AC8
:10382000B0EE600A1D48006801F010FC1F48D0EDA2
:10383000010AB0EE600A1A48006801F007FC174858
:10384000006801F06DFB1648006801F069FBFDF7A8
:103850005BFA02200F49087019E000BF00BF00BFEB
:1038600000BF0D48006800F059F90C48006800F0EE
:1038700055F90B48006800F051F90020054908701F
:1038800005E000BF21460720FFF7B2FE00BF00BFE2
:1038900010BD000044070020180000201C0000207C
:1038A000200000203C0000200C08002044000020E4
:1038B00070B52DED048B0546B0EE408AF0EE608ABF
:1038C0000C46164624480068301A24490864D5ED91
:1038D000040A214890ED021A70EEC10AB0EE600AA7
:1038E00009F0F5FC1D4880ED120A4CB1006CA042B5
:1038F00006D31020FDF712FC0120BDEC048B70BD37
:1039000028EE289A18EE100A08F00CFEE8B118EE1E
:10391000900A08F007FEC0B19FED110AB4EEC08A0C
:10392000F1EE10FA11D9F5EEC08AF1EE10FA0CD9C9
:1039300019EE100A08F0F6FD38B1084890ED120AA9
:10394000B4EEC90AF1EE10FA04DB1120FDF7E6FB34
:103950000120D2E70020D0E73807002044070020EC
:1039600017B7D13810B52DED028B0446B0EE408A62
:10397000D4ED020AB0EE600A09F0A9FCF3EE040AE5
:10398000B4EEE00AF1EE10FA12D8B4F90C0000EE31
:10399000900AF8EEE00AB0EE600A09F098FCB4EE86
:1039A000C80AF1EE10FA03DB0120BDEC028B10BD5A
:1039B0000020FAE770B5044602F0E0FD054601205C
:1039C000434908704348006800F0A8F8424800687E
:1039D00000F0A4F841480079042803D03F4800795A
:1039E000052802D1FDF790F903E03D48006800F09A
:1039F00095F838480068FFF7BDFD37480068FFF7C5
:103A0000B9FD042035490871FFF702F833484470C6
:103A10000020344981F8450081F8400081F84100D8
:103A200081F8420081F84300022C08D19FED2E0A54
:103A3000084680ED080A9FED2C0A80ED090A9FEDEB
:103A40002A0A284880ED0E0A9FED270A80ED0F0A0A
:103A500022480021C0F84E10C0F852108165C1659F
:103A600000F0E6F91B480068FFF766F820B11A4835
:103A70000068FFF761F818B90F20FDF74FFB70BD24
:103A80009FED1A0A10EE100A08F04CFD40B19FEDB0
:103A9000180A10EE100A08F045FD08B100BF03E057
:103AA0001120FDF73BFBEAE701200C4908700948AB
:103AB0000068FEF785F908480068FEF781F92A4694
:103AC000054801680120FEF735FA00BFD7E700007E
:103AD000250000201C0000202000002044070020BA
:103AE000180000200C0800200000000081D599413A
:103AF000956B154210B5002406E0064951F82400E4
:103B000000F00CF8601CC4B2032CF6D3002002496C
:103B1000087010BD2C0700204407002010B5044693
:103B200004B910BD9FED040A204601F08FFA20462B
:103B300001F08FFA00BFF4E70000000010B502F0BA
:103B40001DFD04464148007800B910BD00F094F90D
:103B50003F48007810B301203E4908700820FCF768
:103B6000FBFF3D48007820B121460820FFF7CAF945
:103B70000BE03A494879FDF719FB10B1FDF7C8FA97
:103B800003E021460A20FFF733FD00F075F900F04D
:103B900057FA00F06BFB00F0F3FCD6E72E480078F4
:103BA00058B12046FCF78CFE00F066F900F048FAA8
:103BB00000F05CFB00F0E4FCC7E72046FCF7DAFF0E
:103BC0002046FDF7FDFA00F057F92046FFF794FD77
:103BD00000F052F900F034FA00F048FB204600F003
:103BE00085F81E480079062807DB1C4800790A285A
:103BF00003DC00201949087023E0184800790228E6
:103C000003D016480079032803D103201349087014
:103C100017E0134890F8450038B1104840790D2856
:103C200003D102200D4908700BE00C494879FDF7DB
:103C3000BDFA18B101200949087002E000200749C7
:103C4000087000F09DFC00BF7FE70000240000200A
:103C500059000020250000205800002044070020C3
:103C60000C08002010B541F230210E48FCF7CDFCC5
:103C700070210D48FCF7C9FC00200B490870487002
:103C800002F07CFC074988600020FEF747FE0549EA
:103C900088740846807C20B90820034908700120F8
:103CA000487010BD1C0A0020AC09002003480078B1
:103CB0000E2801D0012070470020FCE7AC0900204D
:103CC0000948007802280BD007480078042807D05C
:103CD00005480078052803D003480078062801D15C
:103CE000012070470020FCE7AC0900202DE9F041DD
:103CF00004464A488068271A484884604848007843
:103D000030B10820FCF728FFFDF7D0FFBDE8F081B7
:103D10004248807C10B9FDF7C9FFF7E7FDF7A2FD27
:103D2000F8B940480078022803D03E4800780428BB
:103D300005D13A48406838443849486008E0394875
:103D40000078062804D135480068384433490860B3
:103D5000052034494870002081F85600FDF7A6FF81
:103D6000D4E730484078052802D100202D4948701A
:103D70002C4800780F2847D2DFE800F0080D1E46D7
:103D80001F462344454646464646430021460120F9
:103D9000FDF768FE3DE021480068201A00D138E0B8
:103DA0002148FDF769FE05461DB900201D498870B0
:103DB00001E01A4804602CE000BF2046FDF7D0FD6A
:103DC00027E016480068201A40F2DC51884200D2F1
:103DD0001FE014488078401CC6B2032E00D3002692
:103DE00006EB4601104A02EB81009FED100AFEF738
:103DF000DDFE054615B90B48867001E007480460F2
:103E000007E000BF00BF04E021460620FDF72AFEC0
:103E100000BF00BFFDF74AFF00BF77E71C0A002084
:103E200059000020AC090020E8EC00080000C8425E
:103E30000F4890F8440028B10D4890F8450008B1AB
:103E4000012000E000200A4981F84600084690F869
:103E50004400084981F87C00054890F8450081F845
:103E60007D00034890F8460081F87E00704700000E
:103E70000C0800204407002010B500245DE06748CE
:103E800050F82400A0B3654850F8240090ED040ACF
:103E9000634800EB840080ED000A604850F824007D
:103EA000B0F90C0000EE100AB8EEC00A5C480C3005
:103EB00000EB840080ED000A584850F8240090ED93
:103EC000020A5748183000EB840080ED000A53497D
:103ED00051F82400FEF730FE5149243108554F486F
:103EE00050F8240090F8AF01012802D1012101E02F
:103EF00004E000214A48673001551CE09FED490A63
:103F0000474800EB840080ED000A9FED460A4448D4
:103F10000C3000EB840080ED000A9FED420A40481F
:103F2000183000EB840080ED000A00213C4824306A
:103F3000015543300155601CC4B2032C9FD33A484D
:103F4000006820B13848006890ED010A01E09FED5B
:103F5000350A3348183880ED1C0A344890ED0A0AB7
:103F60002F48183880ED1D0A304890ED0B0A2C4878
:103F7000183880ED1E0A2D4890F844002849183959
:103F800081F87C00294890F8450081F87D00274899
:103F900090F8460081F87E00FCF76AFF2048183848
:103FA00080ED020A214890F8450030B31F48D0ED5B
:103FB0000A0AB0EE601A1E480068D0ED040AB0EE9E
:103FC000600ADFED1C0AFEF7C9FD1548183880EDC0
:103FD000030A1648D0ED0B0AB0EE601A16480068C6
:103FE000D0ED040AB0EE600ADFED140AFEF7B6FD6C
:103FF0000B48183880ED040A09E09FED0A0A0848CA
:10400000183880ED030A9FED070A80ED040A9FED42
:10401000050A0348183880ED050A10BD2C0700205A
:104020005C07002000000000180000200C080020A1
:104030001C0000200000344320000020000034C396
:1040400010B50F48D0ED041AB0EE611AD0ED031A86
:10405000F0EE610AD0ED021AB0EE610AB030FDF761
:10406000FDFF074890ED030AD0ED040A30EE200A68
:1040700080ED300A90ED300A80ED2F0A10BD00006F
:104080004407002010B52DED068B0446002C60D0AF
:104090006B4890F84600E8B36A480068FEF74CFDAC
:1040A000C0B369480068FEF747FD98B367480068E9
:1040B000FEF742FD70B394ED000A10EE101A0846A8
:1040C00008F030FA30B394ED010A10EE101A0846E9
:1040D00008F028FAF0B194ED020A10EE101A084622
:1040E00008F020FAB0B194ED000ADFED590AB4EE01
:1040F000E00AF1EE10FA2CD394ED000ADFED550A38
:10410000B4EEE00AF1EE10FA23DC94ED010AB5EE0C
:10411000C00A00E01DE0F1EE10FA1AD394ED010A96
:10412000DFED4C0AB4EEE00AF1EE10FA11DC94ED8A
:10413000020ADFED470AB4EEE00AF1EE10FA08D306
:1041400094ED020ADFED440AB4EEE00AF1EE10FA53
:1041500003DD0020BDEC068B10BD404890ED000A49
:10416000FFF724FA94ED001ADFED3D0A40EE010A54
:10417000B0EE60AAB0EE4A0A00F024FCF0EE409ADD
:10418000B0EE690AFEF75EFEB0EE408A2C48D0ED34
:104190000A0AB0EE601AD4ED010AB0EE600ADFED53
:1041A0002D0AFFF753FAF0EE408A2548D0ED0B0AAE
:1041B000B0EE601AD4ED020AB0EE600ADFED240A18
:1041C000FFF744FAB0EE409A18EE100A08F0AAF988
:1041D00048B118EE900A08F0A5F920B119EE100ABE
:1041E00008F0A0F908B90020B4E794ED000A1D48D2
:1041F00080ED210A94ED010A80ED220A94ED020A75
:1042000080ED230AC0ED299A80ED2A8A1648C0ED78
:10421000008A80ED019AB0EE480A0A48006800F072
:1042200015FFB0EE680A0848006800F00FFFB0EE16
:10423000490A0648006800F009FF01208AE70000EB
:104240000C080020180000201C0000202000002086
:10425000000034C3000034430000AAC23000002034
:10426000A75E3E43440700204400002010B52DED1A
:10427000028B7B4890F87E007A490870784890F865
:104280007C004870764890F87D0088700846744934
:104290008A8FA0F8032091F83E10417170497F3158
:1042A0000A88C280897801726D4890ED1C0A6D48B9
:1042B00080ED030A01466A4AD2E902031269C1E9A4
:1042C0000532086166488030D0E90123C068C1E941
:1042D0000723486262488030D0E90C23806BC1E933
:1042E0000A2308635E48D0ED2C0A60EEA00A90ED28
:1042F0002D1AD0ED2D1A41EE210AB0EE600A08F019
:1043000019FD584880ED0D0A5548D0ED030A9FED80
:10431000561A60EE810AB0EE600A08F053FBDFED3A
:10432000530A20EE208A4E48D0ED030A90ED041A7D
:1043300070EE810A9FED4C1A60EE810AB0EE600AC1
:1043400008F040FBDFED4A0A00EE808A454880ED28
:104350000E8A434890ED2E0ADFED460A30EE600AE1
:10436000404880ED0F0A3E4890ED2F0A3D4880ED11
:10437000100A9FED400A80ED110A9FED3C0A80ED86
:10438000120A9FED3B0A80ED130ABBEE0D0A80ED89
:10439000140A9FED390A80ED150A384890ED020A9B
:1043A000304880ED160A354890ED030A2D4880ED1F
:1043B000170A324890ED060A2A4880ED180A2F485D
:1043C00090ED070A274880ED190A9FED2D0A80ED30
:1043D0001A0A9FED2C0A80ED1B0A9FED2B0A80ED37
:1043E0001C0AD0ED1C1AB0EE611AD0ED1B1AF0EECB
:1043F000610AD0ED1A1AB0EE610A7430FDF72EFE94
:104400001848D0ED1D0A60EEA00A90ED1E1AD0EDFE
:104410001E1A41EE210AB0EE600A08F08BFC11482A
:1044200080ED200A90ED1F0ADFED120A30EE600ADF
:1044300080ED220A9FED150A08F0C4FADFED0B0AA1
:1044400020EE208A9FED0E0A08F0BCFADFED080A84
:1044500000EE808A034880ED218ABDEC028B10BDFE
:10446000440700202009002035FA8E3C0000164346
:1044700000003343000008423333F3C00C0800202F
:104480000000000000003443000034C3DB0F49404B
:1044900010B52B48D0ED080AB0EE600A08F017FFFF
:1044A000DFED280AB4EEE00AF1EE10FA0DD9244847
:1044B000D0ED090AB0EE600A08F009FFDFED210A2D
:1044C000B4EEE00AF1EE10FA01D8002010BD1C484D
:1044D00090ED080ADFED1C0A80EE801A80ED0A1AC2
:1044E00090ED090ADFED190A80EE801A80ED0B1AB3
:1044F000D0ED0A0AB0EE600AFFF758F8104880EDD8
:104500000C0AD0ED0B0AB0EE600AFFF74FF80C482A
:1045100080ED0D0A90ED0A0A10EE101A084608F018
:1045200001F850B1064890ED0B0A10EE101A08463B
:1045300007F0F8FF08B10120C8E70020C6E7000037
:104540000C08002017B7D138000034C30000BE4269
:1045500010B50246B1F90C00002800DA4042B0F56F
:10456000004F01DB47F6FF70044B33F912308342F2
:1045700003DA04B2014B23F8124010BD9207002069
:1045800010B50024C348C078012802D1C24804688D
:104590000CE0C048C078022802D1C048046805E099
:1045A000BC48C078032801D1BD480468B9480078E8
:1045B000BC490870B74840794870B648C0788870E0
:1045C000B4480079C870B84800780871B14890F8CC
:1045D0007C004871AF4890F87D008871AD4890F834
:1045E0007E00C8710846AB498A8F028191F83E105F
:1045F0008172A8497F310A88A0F80B20897841731D
:10460000A449D1E902230969C0E904238161014673
:10461000A04BD3E906201B6AC1E90803CA6108461A
:104620009C4B24330ECB28300EC09E49994B30331F
:104630000DCB34310DC140399648803082694069D4
:10464000C1E9170293488030026AC069C1E91902C2
:10465000904890ED030A084680ED200A8D4890EDC1
:10466000040A084680ED210A8A4890ED070A0846A8
:1046700080ED220A874890ED080A084680ED230A5B
:10468000844890ED290A084680ED1B0A814890ED88
:104690002A0A084680ED1C0A7E48D0ED290A90EDD2
:1046A0001C1A70EEC10AB0EE600A00F067F97D488E
:1046B00080ED1D0A7D4800787A4981F840007548F0
:1046C00090ED210A084680ED110A724890ED220A09
:1046D000084680ED120A6F4890ED230A084680EDE7
:1046E000130A6C4890ED2A0A084680ED140A7048B7
:1046F00090ED000A084680ED150A6D4890ED010A1C
:10470000084680ED160A6448006820B162480068D7
:1047100090ED5E0A01E09FED670A624880ED1E0A97
:104720005D48006820B15C48006890ED400A01E0F7
:104730009FED600A5B4880ED1F0A5848006820B171
:104740005648006890ED680A01E09FED5A0A554806
:1047500080ED270A5248006820B15148006890ED6A
:10476000680A01E09FED530A4E4880ED280A4B4845
:10477000006820B14948006890ED5E0A01E09FEDB5
:104780004D0A484880ED290A4548006820B1444850
:10479000006890ED5E0A01E09FED460A414880ED19
:1047A0002A0A3E48006820B13C48006890ED400A63
:1047B00001E09FED400A3B4880ED2B0A3848006835
:1047C00020B13748006890ED400A01E09FED390ABA
:1047D000344880ED2C0A3048006820B12E4800682B
:1047E00090ED220A01E09FED330A2E4880ED2D0A5C
:1047F0002A48006820B12948006890ED220A01E0AB
:104800009FED2C0A274880ED2E0A2548006820B12C
:104810002348006890ED220A01E09FED260A214816
:1048200080ED2F0A244800781E4981F8C0002348F3
:10483000007881F8C1002148007828B101F09EFE7F
:104840001F490968401A00E000201649C1F8C40059
:104850001048D0F8AC00C1F8C8006CB194ED680AFB
:10486000084680ED240A94ED5E0A80ED250A94ED59
:10487000400A80ED260A0CE09FED0E0A094880ED03
:10488000240A9FED0C0A80ED250A9FED0A0A80EDAF
:10489000260A10BD44070020180000201C0000203C
:1048A0002000002054080020590000205100002062
:1048B00044000020000000005200002053000020AF
:1048C0005400002010B59FED250A254880ED250AEB
:1048D0009FED240A80ED260A2348D0ED0A0AB0EEA7
:1048E000601A1F48D0ED250AB0EE600ADFED1F0AFE
:1048F000FEF7ACFE1A4880ED270A1B48D0ED0B0AE4
:10490000B0EE601A1648D0ED260AB0EE600ADFED70
:10491000180AFEF79BFE124880ED280A9FED150A43
:1049200080ED290A14480068B0B10D4800790228CA
:1049300012D00B48007903280ED0094800790428CA
:104940000AD007480079052806D09FED0A0AFEF72D
:1049500079FA034880ED2A0A10BD000000002F43B9
:104960004407002000002FC30C080020000034433F
:10497000000034C3A75E3E431800002005E0DFEDD1
:104980000E0A70EE600AB0EE600ADFED0C0AB4EEBB
:10499000E00AF1EE10FAF2DC05E0DFED070A70EE56
:1049A000200AB0EE600ADFED060AB4EEE00AF1EE8E
:1049B00010FAF2D9704700000000B44300003443FD
:1049C000000034C305E0DFED0D0A70EE600AB0EEC2
:1049D000600ADFED0A0AB4EEE00AF1EE10FAF2DA4C
:1049E00005E0DFED060A70EE200AB0EE600AB5EED3
:1049F000C00AF1EE10FAF4D3704700000000B4438F
:104A000000BFFEE710B5024801F010F810BD00002D
:104A10000801002010B5024801F008F810BD0000A0
:104A20000801002010B5024801F000F810BD000098
:104A30003001002010B5024800F0F8FF10BD000062
:104A40003001002010B58AB00446012006900020F5
:104A50000790207F00F0010080F0010004900E20FC
:104A60000990606B4001019020680D49884207D190
:104A70000C4800780B490978491C0A4A117006E075
:104A80000948007808490978491C074A11700590BF
:104A9000012008902068694600F03EFE0AB010BD73
:104AA000080100200DC001200EC001207CB5054684
:104AB0000E463AE06B46214A3146284600F0D1FEC8
:104AC00000242EE01E4850F824000068A84227D198
:104AD0001A4800681A4951F82410496B88421FD1BE
:104AE000174850F82400D0F83900C0B11348007CB2
:104AF000134951F8241081F8380010490A69104907
:104B000051F8241001F12C006946FBF7E5FC0C4A32
:104B100052F8240052F82420D2F8391088477CBD7E
:104B2000641C084800788442CCD33146284600F003
:104B300084FE0028BED100BFF1E7000004C70120B9
:104B4000C4C601200CC0012070B505462548007878
:104B500008B900F04BF823480078102801DB00204A
:104B600070BD002111E0204850F8210000682A683B
:104B7000904208D11C4850F82100406BAA6890422E
:104B800001D10020ECE7481CC1B2164800788142F0
:104B9000E9DB4120FBF7FAFB044641212046FBF705
:104BA00012FD686860600021E16021610821616197
:104BB000286820606868E061A8686063E868C4F8F5
:104BC00039002869C4F83D002046FFF73BFF05483F
:104BD00001780078401C034A1070034840F82140D7
:104BE0002046BDE70CC00120C4C6012010B50B480B
:104BF00001F0CFF90221094800F0D4FC1021074848
:104C000000F0D0FC064801F0C4F90221044800F08D
:104C1000C9FC1021024800F0C5FC10BD08010020AD
:104C20003001002010B52DED028B0446B0EE408A15
:104C300000F0F0FAF0EE408A11E000F0EBFA30EE0E
:104C4000680AB4EEC80AF1EE10FA08DD12480068EE
:104C5000401C114908600020BDEC028B10BD20688B
:104C600000F0C9FE0028E8D000F0D4FA30EE680A5F
:104C70000A4880ED000A206804F120031A1D211D56
:104C800000F0A5FC30B104480068401C02490860EF
:104C90000020E1E70120DFE710C0012014C001205F
:104CA0000346042B15D007DC7BB1012B0ED0022B61
:104CB0000DD0032B12D10BE0202B0BD0212B0AD0CF
:104CC000222B09D0232B09D107E008E007E006E0FA
:104CD00005E004E003E002E001E000E000BF00BF07
:104CE000002070470020704710B500220449054895
:104CF00005F035FA0449034805F022FA002010BDFA
:104D0000387800205C6B00203870002070B50446B5
:104D10000D462046296807F0D3FA2146034805F0DE
:104D20000FFA024805F0D8F9002070BD5C6B002036
:104D300010B503460C460021084610BD00BF08F020
:104D4000D7F8012008F0F4FAF9E700002DE9F05F48
:104D50002DED028B4FF0000ABDE06D4850F82A603F
:104D600006F11C0506F12804374694ED5E0AB0EE04
:104D7000408A2879012803D1B1EE480AB0EE408A72
:104D8000A87800F04000D8B12888402818D1A87928
:104D9000012807D1206828B1206890ED000AF0EEC4
:104DA000408A03E097ED040AF0EE408AF0EE480AEC
:104DB000B0EE680A04F5807004F0FAFAB0EE408AAA
:104DC000A87800F0080048B3287800F0480028B31D
:104DD000287A00F00A0040B1A06830B1A06890EDD8
:104DE000000A30EE080AB0EE408AE879012807D1BF
:104DF000606828B1606890ED000AF0EE408A03E038
:104E000097ED020AF0EE408AF0EE480AB0EE680A2A
:104E100004F1880004F0CCFAB0EE408A287A00F061
:104E2000010040B1E06830B1E06890ED000A30EE7A
:104E3000080AB0EE408AA87800F0010078B1B7F90E
:104E40000C0000EE900AF8EEE00AB0EE600AF0EE18
:104E5000480A04F1100004F0ABFAB0EE408A687919
:104E6000012805D1BFEE000A28EE000AB0EE408A04
:104E7000BDEEC80A10EE100A0FFA80FB96F8AC815E
:104E800096F8AD91CBF3072108EB8810214A104426
:104E9000243000F8191008EB88101146084424301B
:104EA0004FEA4901491C00F801B096F8AF0180B9FA
:104EB000002108EB88101044243000F8191000225B
:104EC00008EB88101349084424304FEA4901491C73
:104ED00042540AF1010A104800788245FFF43DAFC0
:104EE0004FF0000A0DE00D4810F80A0038B10AEB47
:104EF0008A11084A8818B7EE000AFFF793FE0AF1F4
:104F0000010ABAF1060FEED3BDEC028BBDE8F09FAB
:104F1000F002002069C0012068C00120EFC101201B
:104F2000012180F8AF1170473EB505462F48007843
:104F30000C2801DD00203EBD4FF4E070FBF726FA9F
:104F400004464FF4E0712046FBF75FFB95F8000143
:104F500084F8AE01D5F8F410E161D5F8F8102162BB
:104F6000D5F8FC00606205F13C0104F1380004F062
:104F7000E1FA05F1680104F1B00004F0DBFA05F193
:104F8000940104F5947004F0D5FA2868A062696869
:104F9000E162E9686163A968216305F582712046D1
:104FA00004F026F812494FF488704151001D445115
:104FB00005F58270FFF7C8FDC4F8A8010D4A07CABD
:104FC0008DE807000294684600F0F4F9C4F8B001D7
:104FD0002046FFF7A5FF054801780078401C034AEA
:104FE0001070054840F821402046A4E768C0012021
:104FF0005554000870E90008F002002010B5014681
:10500000002381F8AF31D1F8A8311B68034CA342CB
:1050100001D1012300E002231A4610BD080100203F
:1050200090ED010AD0ED050AF8EEE00A9FED051AB1
:1050300000EE810A80ED060A9FED030A80ED040A66
:10504000704700000000B4430000000080ED680AD3
:105050007047002180F8AF117047000010B502487A
:1050600000F0E2FF10BD00004802002010B5024829
:1050700000F0DAFF10BD000074C5012010B5024831
:1050800000F0D2FF10BD0000E801002010B502487A
:1050900000F0CAFF10BD0000D4C501200146087809
:1050A00010381823B0FBF3F20848805CC865032A67
:1050B00005D908686FF30900001D886503E00868DA
:1050C0006FF309008865886D7047000050E900089B
:1050D000014600208A6A8B69CBB932B1012A0DD012
:1050E000022A03D0032A10D10EE000BFCB6A03F0DE
:1050F0008073B3F1807F00D1012007E0CB6AB3F168
:10510000C07F00D1012001E000E000BF34E08B69E6
:10511000B3F5005F1AD132B1012A07D0022A03D0B9
:10512000032A11D10AE000BF01200EE0CB6A03F090
:105130008073B3F1807F00D1012006E0CB6AB3F128
:10514000C07F00D1012000E000BF15E032B1012A8C
:1051500005D0022A04D0032A0CD103E000BF00BF0F
:10516000012008E0CB6A03F08073B3F1807F00D1A7
:10517000012000E000BF00BF7047000008B50E48E6
:105180000078B8B901200C4908700C4840680090BC
:105190000B4900980968884204D20A480068401CFC
:1051A0000849086005484068054908600020024930
:1051B000087000BF08BD000040C00120001000E0E2
:1051C00030C001202CC0012010B52DED028B82B023
:1051D00004460E484068019020680199081A00EEC4
:1051E000100AF8EE400A0A4890ED000AB8EE400AAC
:1051F00080EE801AB0EE418A01982060FFF7BEFF72
:10520000B0EE480A02B0BDEC028B10BD001000E009
:1052100020C0012010B52DED028B00F05BF80F4887
:1052200080880E49096801EB4102C2EBC11100EB15
:10523000C10000EE100AB8EE400A0848C08800EE2F
:10524000900AF8EE600A9FED061A00EE810AB0EEB1
:10525000408AB0EE480ABDEC028B10BD18C0012098
:105260006F12833A10B504461348006840F080700E
:10527000114908600020114948600846006840F064
:10528000010008600E4860430E4908600846006847
:105290004FF47A71B0FBF1F00B49086009480068DF
:1052A0000749B0FBF1F0094908600020084908608F
:1052B000FFF764FF10BD0000FCED00E0001000E00F
:1052C00040420F0020C0012024C0012028C001203E
:1052D0002CC0012038B5294840680090FFF74EFFE8
:1052E000274800684FF0FF31A0FB013100981818E3
:1052F00041F10001234A03C22348002321490268E7
:1053000003C9FBF772F8214A03C220480CC81E48A3
:1053100000680024A2FB001503FB005002FB0402FE
:105320001848D0E90030591A60EB0200184AC2E967
:1053300000101648006817490860174800231449F0
:10534000026803C9FBF751F8124988800846808833
:105350001149096841430E48D0E90030591A60F1FB
:1053600000000E4AC2E900100D4800230B490268F4
:1053700003C9FBF73AF80749C88038BD001000E0C0
:105380002CC0012038C0012020C0012048C00120CD
:1053900050C0012018C0012024C0012058C00120A5
:1053A00028C0012001460889002801DD012070473E
:1053B0000020FCE770B504461020FAF7E7FF054629
:1053C000002028606860A860E860A068E860208825
:1053D00008B9642000E020882880606868606088E0
:1053E00008B9642000E06088288120882881054869
:1053F00001780078401C034A1070034840F821509F
:10540000284670BDF5C1012020C701200188018117
:105410007047000070B5002510E00B4850F825409B
:105420002089002803DD2089401E208104E0606877
:1054300010B16168E0688847681CC5B2034800780D
:105440008542EADB70BD000020C70120F5C10120C4
:10545000704700002DE9F041074607F12C05D7F809
:105460003D603446D6F8B001FFF7D0FF06F5DA709C
:10547000FFF7AAFE86ED6E0A60882080687829789A
:1054800040EA01206080608800EE100AB8EE400A11
:10549000DFED300A20EE200A84ED010AE878A978D1
:1054A00040EA012000B200EE100AB8EEC00ADFEDBB
:1054B0002A0A20EE200AD4ED020A9FED281A01EEF6
:1054C000200A84ED020A6879297940EA012000B2B5
:1054D00000EE100AB8EEC00ADFED210A20EE200A25
:1054E000B4F90C0000EE900AF8EEE00A9FED1D1AE8
:1054F00001EE200ABDEEC00A10EE100A00B2A08133
:10550000A879A07360882188401AB0F5805F03DD18
:105510006069401E606108E060882188401A10F5CB
:10552000805F02DA6069401C60614FF4B4716069A9
:10553000484300EE100AB8EEC00AD4ED010A30EE7E
:10554000200AD4ED060A30EE600A84ED040ABDE8B4
:10555000F0810000ACFF333D3433A3409899193EED
:105560006666663FD0CCCC3D72B600BFFEE7000059
:1055700070B50A480468001D0568001D06683444BB
:1055800054B108220649204603F02FFA04220449A8
:105590001031284603F029FA70BD0000107AFF1F71
:1055A0009EC2012010B5024692F82030012B01D096
:1055B000022B06D11068406908431468606100201E
:1055C00010BD506A40F4802050620120F8E7F0B529
:1055D00004460D461E4694F8207020688368A8682B
:1055E00000B900E000BF012F01D0022F7DD103F0F0
:1055F000806030B903F0006018B903F080500028D3
:105600007ED0C3F30161012088403060A86860B992
:10561000B5F800C0E86840EA4C5C206800F5C0704E
:1056200000EB0110C0F800C00FE0D5E901C040EA6E
:10563000CC00D5F80CC040EA0C00D4F800C00CF542
:10564000C07C0CEB011CCCF80000D5F810C0206821
:1056500000F5C07000EB0110C0F804C0287D0128DF
:105660000ED1206800F5C07000EB0110406840F4D6
:10567000807C206800F5C07000EB0110C0F804C009
:10568000D079000692F806C040EA0C4092F805C0B6
:1056900040EA0C2092F804C040EA0C00D4F800C0A4
:1056A0000CF5C07C0CEB011CCCF80C00D07800068B
:1056B00092F802C040EA0C4092F801C040EA0C2087
:1056C00092F800C040EA0C00D4F800C00CF5C07C91
:1056D0000CEB011CCCF80800206800F5C07000EB52
:1056E0000110006840F0010C01E00FE008E02068C4
:1056F00000F5C07000EB0110C0F800C00020F0BD44
:10570000606A40F4001060620120F8E7606A40F4CB
:10571000802060620120F2E7F0B504460A4694F862
:105720002050012D01D0022D7ED1424901F500719A
:10573000086840F001000860086820F47C500860A8
:105740000868566A40EA06200860107D00F01F06CF
:10575000012000FA06F3C8699843C861A1F50071F9
:10576000D069C8B9D1F80C029843C1F80C029088EE
:1057700080B2968940EA064601F51070576940F8F4
:105780003760108880B2168940EA064601F510702D
:10579000576900EBC7004660D069012819D1D1F8DC
:1057A0000C021843C1F80C02908880B2168840EAB7
:1057B000064601F51070576940F83760908980B24D
:1057C000168940EA064601F51070576900EBC700DC
:1057D0004660906928B9D1F804029843C1F80402E0
:1057E00004E0D1F804021843C1F80402106928B992
:1057F000D1F814029843C1F8140204E0D1F814025D
:105800001843C1F81402106A012804D1D1F81C020F
:105810001843C1F81C02D1F8000220F00100C1F8C1
:1058200000020020F0BDFFE7606A40F48020606263
:105830000120F7E700640040704710B502460020E1
:1058400092F82030012B01D0022B09D121B9146824
:10585000E46804F0030003E01468246904F0030022
:1058600010BD70B5044694F82050012D01D0022DD2
:105870007DD151B92068C06800F0030080B9606A2A
:1058800040F400106062012070BD2068006900F0E3
:10589000030028B9606A40F4001060620120F3E759
:1058A000206800F5D87000EB0110006800F00400DB
:1058B0009060906840B9206800F5D87000EB011046
:1058C0000068400D106007E0206800F5D87000EB1C
:1058D00001100068C0085060206800F5D87000EB27
:1058E0000110006800F00200D060206800F5D87058
:1058F00000EB0110406800F00F00082802D30820D8
:10590000106108E0206800F5D87000EB01104068D5
:1059100000F00F001061206800F5D87000EB011056
:10592000406800F47F40000A9061206800F5D8705C
:1059300000EB01104068000C5061206800F5D87041
:1059400000EB011080681870206800F5D87000EB3B
:105950000110806800F47F40000A5870206800F54C
:10596000D87000EB0110806800F47F0000E03CE09C
:10597000000C9870206800F5D87000EB011080686A
:10598000000ED870206800F5D87000EB0110C068D8
:105990001871206800F5D87000EB0110C06800F4A1
:1059A0007F40000A5871206800F5D87000EB0110A4
:1059B000C06800F47F00000C9871206800F5D87072
:1059C00000EB0110C068000ED87131B92068C068C2
:1059D00040F020002668F06005E02068006940F093
:1059E00020002668306100204EE7606A40F4802085
:1059F0006062012048E70146002091F82020012A3A
:105A000001D0022A11D10B689B6803F0806303B1B7
:105A1000401C0B689B6803F0006303B1401C0B68DB
:105A20009B6803F0805303B1401C70472DE9F05F81
:105A300004460025206846692068D0F80490206854
:105A400087682068D0F80CA02068D0F810B02068D3
:105A5000D0F8188006F00100002855D007F00100AA
:105A6000C0B101202168886007F0020018B120460B
:105A700000F0BFFA0EE007F0040010B145F4006535
:105A800008E007F0080010B145F4805502E0204618
:105A900000F0AEFA07F48070C8B14FF4807021684E
:105AA000886007F4007018B1204600F0A4FA0EE0F8
:105AB00007F4806010B145F4005508E007F4006079
:105AC00010B145F4804502E0204600F093FA07F457
:105AD0008030C8B14FF480302168886007F400300E
