:020000040800F2
:10000000E88B01204D030008BD9B0008A595000862
:10001000B99B00080152000809CF00080000000049
:100020000000000000000000000000008D02000839
:100030003561000800000000E902000801A0000886
:1000400067030008670300086703000867030008E8
:1000500067030008670300086703000867030008D8
:1000600067030008670300086703000867030008C8
:10007000315700086703000867030008670300089A
:1000800067030008670300086703000867030008A8
:1000900005520008155200086703000867030008AE
:1000A0006703000867030008670300086703000888
:1000B0006703000867030008670300086703000878
:1000C000670300086703000867030008C19F000872
:1000D0006703000867030008670300086703000858
:1000E0006703000867030008670300086703000848
:1000F00067030008FDA00008670300086703000805
:100100006703000867030008670300086703000827
:100110006703000867030008670300086703000817
:10012000415700086703000851570008615700084D
:1001300067030008670300086703000867030008F7
:10014000255200083552000867030008C19B0008CB
:1001500067030008670300086703000867030008D7
:1001600067030008670300086703000867030008C7
:100170006703000867030008670300080000000029
:10018000670300086703000800F002F800F06EF84B
:100190000AA090E8000C82448344AAF10107DA45E2
:1001A00001D100F063F8AFF2090EBAE80F0013F0C6
:1001B000010F18BFFB1A43F001031847ECF20000CF
:1001C0002CF300000A444FF0000C10F8013B13F030
:1001D000070408BF10F8014B1D1108BF10F8015BA0
:1001E000641E05D010F8016B641E01F8016BF9D193
:1001F00013F0080F1EBF10F8014BAD1C0C1B09D1EA
:100200006D1E58BF01F801CBFAD505E014F8016B5B
:1002100001F8016B6D1EF9D59142D6D370470000ED
:10022000103A24BF78C878C1FAD8520724BF30C822
:1002300030C144BF04680C607047000000230024F4
:1002400000250026103A28BF78C1FBD8520728BFE6
:1002500030C148BF0B6070471FB50FF076F89DE8BE
:10026000030000F047FA1FBD10B510BD00F0AEFA54
:100270001146FFF7F1FF0DF073FD00F0CCFA03B467
:10028000FFF7F2FF03BC00F0FDFA00002C4B1968E9
:100290000868B0E8F04F80F30988BFF36F8F4FF024
:1002A000000080F3118870470000000008480068D3
:1002B000006880F308884FF0000080F3148862B66D
:1002C00061B6BFF34F8FBFF36F8F00DF00BF00BF7A
:1002D00008ED00E0DFF80C00016841F470010160F6
:1002E000704700BF88ED00E0EFF30980BFF36F8F28
:1002F000134B1A681EF0100F08BF20ED108A20E97A
:10030000F04F106009B44FF0500080F31188BFF334
:100310004F8FBFF36F8F0EF039FA4FF0000080F36C
:10032000118809BC19680868B0E8F04F1EF0100F7A
:1003300008BFB0EC108A80F30988BFF36F8F704755
:1003400024000020EFF30580704700000948804733
:1003500009480047FEE7FEE7FEE7FEE7FEE7FEE7A7
:10036000FEE7FEE7FEE7FEE704480549054A064BBF
:1003700070470000E9A0000889010008E88B002010
:10038000E88B0120E80B0120E80B012070B5064640
:1003900000F094F9056806F10B0020F00704B44260
:1003A0009CBF002070BD2B466A68BAB11068A0429D
:1003B00010D304F1080188423CBF5068586007D34D
:1003C0005168101941601168091B01605860146080
:1003D000101D70BD13465268002AE7D121462846F9
:1003E00000F074F90028DED170BD70B50446051F19
:1003F00000F064F90068002C14BF446870BD002C44
:1004000018BFAC423CBF20466468F8D301680A18A4
:10041000AA4218BF456003D12A680546114401600D
:1004200028684119A1421CBF6C6070BD6168696099
:1004300021680844286070BD53EA020C00F069800E
:100440002DE9F04B4FF00006002B1FBFB3FA83F5E8
:1004500003FA05F424FA05F65E4012BF1643B2FA19
:1004600082F502FA05F4C5F120051EBF22FA05FC4B
:1004700044EA0C04203556EA044C4FEA144418BFF1
:10048000641C4FF000084FF00009904271EB030C20
:1004900039D3002919BFB1FA81F701FA07F6B0FA8A
:1004A00080F700FA07F6C7F120071EBF20FA07FC05
:1004B00046EA0C062037B6FBF4FCA7EB0507103F15
:1004C00007F01F0BCBF120060CFA0BFB2CFA06F6FB
:1004D00044BFB3460026202FA4BF5E464FF0000B5A
:1004E0005BEA060C08BF4FF0010B19EB0B09ABFBE5
:1004F000027C48EB0608C01B06FB02CC0BFB03CCBE
:1005000071EB0C01C1E70B46024641464846BDE887
:10051000F08B13B54FF000004FF00001AFF30080F7
:10052000BDE81C407047032A40F2308010F0030CF5
:1005300000F0158011F8013BBCF1020F624498BF36
:1005400011F801CB00F8013B38BF11F8013BA2F1D3
:10055000040298BF00F801CB38BF00F8013B11F04E
:10056000030300F02580083AC0F0088051F8043BEE
:10057000083A51F804CBA0E80810F5E7121D5CBF5B
:1005800051F8043B40F8043BAFF30080D20724BF8E
:1005900011F8013B11F801CB48BF11F8012B24BF22
:1005A00000F8013B00F801CB48BF00F8012B704771
:1005B00010B5203AC0F00B80B1E81850203AA0E8FE
:1005C0001850B1E81850A0E81850BFF4F5AF5FEA32
:1005D000027C24BFB1E81850A0E8185044BF18C9E5
:1005E00018C0BDE810405FEA827C24BF51F8043B8C
:1005F00040F8043B08BF7047D20728BF31F8023BE0
:1006000048BF11F8012B28BF20F8023B48BF00F873
:10061000012B704702F0FF0343EA032242EA024241
:1006200000F002B84FF000020429C0F0128010F070
:10063000030C00F01B80CCF1040CBCF1020F18BFBE
:1006400000F8012BA8BF20F8022BA1EB0C0100F051
:100650000DB85FEAC17C24BF00F8012B00F8012B24
:1006600048BF00F8012B70474FF0000200B5134659
:1006700094469646203922BFA0E80C50A0E80C50C2
:10068000B1F12001BFF4F7AF090728BFA0E80C5073
:1006900048BF0CC05DF804EB890028BF40F8042B6C
:1006A00008BF704748BF20F8022B11F0804F18BFD9
:1006B00000F8012B7047704770477047004870473B
:1006C00094CB0120704770477047704738B5044697
:1006D0000A4600206946AFF30080002808BF38BDF5
:1006E00002460099204600F04FF8012038BD012055
:1006F00000F064B8F8B5AFF30080054600200C4662
:10070000102000BF0646A819A0420DD932466946FE
:100710000020AFF30080070008BF00F04FF80098FA
:10072000A04218BF0546C419FFF7C8FF0560074679
:10073000F01D20F007004619284600F00AF8B442E0
:1007400008BFF8BDA21B31463868BDE8F84000F08C
:100750001BB800210160C0E90110704710207047EC
:1007600010B500F00DF8006810BD10B5044600F09B
:1007700007F8046010BD0000004870478CCB0120D2
:10078000004870478CCB0120034640688C46002807
:1007900018BF88423CBF03464068F8D31868184425
:1007A000884207D00CF1030020F00700001D411A19
:1007B000521A0146081D0A60FFF717BE10B500F077
:1007C00039F8BDE8104000F02FB870477546FFF7C4
:1007D000D3FFAE4605006946534620F00700854624
:1007E00018B020B5FFF7C0FDBDE820404FF000066F
:1007F0004FF000074FF000084FF0000B21F0070109
:10080000AC46ACE8C009ACE8C009ACE8C009ACE84B
:10081000C0098D46704710B50446AFF300802046EE
:10082000BDE81040FFF72BBD002801D000F02AB82A
:100830007047000010B5012805D0002103A000F08A
:1008400027F8012010BD09A1F8E7000053494752DD
:10085000544D454D3A204F7574206F662068656190
:1008600070206D656D6F7279000000003A20486558
:100870006170206D656D6F727920636F7272757033
:100880007465640001491820ABBEFEE72600020033
:1008900070B505460C460A2000E06D1C00F011F80A
:1008A00035B128780028F8D102E0641C00F009F87E
:1008B00014B120780028F8D1BDE870400A20AFF3C9
:1008C000008008B569468DF800000320ABBE08BD66
:1008D000094948700E21084A1170002182F856100B
:1008E000064A517591751175118202F1800100223D
:1008F0000A624A628A627047B80700202C0800200A
:10090000F0EE400AF5EEC00AF1EE10FA02D2B1EEB6
:10091000600A7047B0EE600AFBE7000070B506465B
:1009200000251EE005EB8500104951F83040A4B1C8
:100930003146204605F0E2F978B194ED010A10EE57
:10094000101A08460CF005FB38B194ED020A10EEBF
:10095000101A08460CF0FDFA08B9002070BD681C9A
:10096000C5B2032DDED30120F8E700000807002000
:10097000002110E001EB8100094A52F8300030B14B
:1009800001EB810052F8300090F8450008B90020D2
:100990007047481CC1B20329ECD30120F8E70000DE
:1009A00008070020002110E001EB8100094A52F8FD
:1009B000300030B101EB810052F8300090F8440073
:1009C00008B900207047481CC1B20329ECD30120AC
:1009D000F8E700000807002010B500240BE004EB46
:1009E0008401074A52F8310005F0EFF808B1012000
:1009F00010BD601CC4B2032CF1D30020F8E7000046
:100A00000807002070B50646002410E004EB8400BF
:100A1000094951F8305045B1287E30B13146284659
:100A200005F06CF908B9012070BD601CC4B2032C3C
:100A3000ECD30020F8E700000807002000210FE0B9
:100A400001EB8100084B53F830203AB192F84A008C
:100A500010B9506D052801D301207047481CC1B260
:100A60000329EDD30020F8E70807002070470000B5
:100A700010B50446204602F051FB08B9002010BD15
:100A800094ED000ADFED1B0AB4EEE00AF1EE10FA75
:100A90002EDB94ED000ADFED180AB4EEE00AF1EE69
:100AA00010FA25D894ED010ADFED140AB4EEE00A3D
:100AB000F1EE10FA1CDB94ED010ADFED110AB4EE41
:100AC000E00AF1EE10FA13D894ED020ADFED0D0AF8
:100AD000B4EEE00AF1EE10FA0ADB94ED020ADFED63
:100AE0000A0AB4EEE00AF1EE10FA01D80120C6E7D6
:100AF0000020C4E70000B4C20000B44200000C4271
:100B00000000344300003EC3000020C20146022919
:100B100001DC012070470020FCE7000070B50546AD
:100B20000F480078012800D100E0002004461CB9DD
:100B30000B480078022801D1012000E00020044683
:100B400054B1074840780C2806D10548807818B978
:100B5000284602F0E3FA08B9002070BD0120FCE746
:100B6000780300202DE9F04F2DED048B8FB0054662
:100B700089464FF00C0AD34615B1681C484505D389
:100B800001200FB0BDEC048BBDE8F08FAA4500DD5D
:100B9000AA46A9F10100401B584504D2A9F1010061
:100BA000401B1FFA80FBAA4502DB681E1FFA80FA71
:100BB000A9F10100401B584504D8A9F10200401BCF
:100BC0001FFA80FBBAF1000F02D0BBF1000F01D178
:100BD0000120D6E7A5EB0A0086B205EB0B0087B231
:100BE000B81B1FFA80F806EB4601984800EB81021B
:100BF00007CA03AB07C307EB4701944800EB810228
:100C000007CA0CAB07C3002491E0CCB906EB460140
:100C10008E4800EB810000EB8400D0ED000A701ECE
:100C200000EB4001894800EB810000EB840090ED6F
:100C3000001A70EEC10AB0EE600A01F0A3FC14E0E5
:100C400006EB4601814800EB810000EB840090ED4B
:100C5000000A701E00EB40017C4800EB810000EBB5
:100C60008400D0ED000A30EE600AB0EE408ACCB9C4
:100C7000781C00EB4001754800EB810000EB84001C
:100C8000D0ED000A07EB4701704800EB810000EB54
:100C9000840090ED001A70EEC10AB0EE600A01F017
:100CA00071FC14E0781C00EB4001684800EB810007
:100CB00000EB840090ED000A07EB4701634800EB6E
:100CC000810000EB8400D0ED000A30EE600AF0EE07
:100CD000408A00EE108AB8EE400A28EE000AF0EED4
:100CE000080A80EE201A03A800EB840090ED000AA9
:100CF00031EE000A06A800EB840080ED000A00EE49
:100D0000108AB8EE400A68EE800AB0EE081A80EE4B
:100D1000810A0CA800EB8400D0ED000A30EEC00A76
:100D200009A800EB840080ED000A601CC4B2032C0B
:100D3000FFF46BAF34466DE0A01B00EE100AF8EE36
:100D4000C00A00EE108AB8EE400A80EE801AB0EEBB
:100D5000418AB7EE000A30EE480AF0EE408A28EEEB
:100D6000A80AB0EE409A28EE080AF0EE409A002059
:100D700032E029EE280A03A901EB8001D1ED000A37
:100D800020EE200AF0EE080A69EE200A60EE880ADA
:100D900006A901EB800191ED001A00EE810AF0EE48
:100DA000080A68EEA00A60EEA90A09A901EB800111
:100DB00091ED001A00EE810A69EE880A0CA901EB98
:100DC000800191ED001A00EE810A694601EB800175
:100DD00081ED000A411CC8B20328CAD3DDED000A28
:100DE000B0EE600A01F0CEFB8DED000A684602F01D
:100DF00095F918B16846FFF73BFE08B90020C0E638
:100E000004EB4401114800EB81009DE80E000EC088
:100E1000601C84B2BC428FDD701C84B211E004EB14
:100E200044030A4A02EB8301621E02EB4203074AB3
:100E300002EB830000F006FC08B90020A1E6601C6C
:100E400084B2781C8442EAD901209AE6F80800208E
:100E500070B52DED048B86B00546644A07CA03AB16
:100E600007C39FED630AB0EE408A15B1B5F5C07FA8
:100E700005D99FED5F0A06B0BDEC048B70BD9FEDF8
:100E80005C0A5C4880EDB30A01247EE09FED580ABD
:100E9000F0EE408A04EB4401574800EB8100D0EDAE
:100EA000000A601E00EB4001534800EB810090ED0A
:100EB000001A70EEC10AB0EE600A01F063FBB0EEFA
:100EC000409A0CF048FF8DED000A04EB44014A48BB
:100ED00000EB8100D0ED010A601E00EB40014648A6
:100EE00000EB810090ED011A70EEC10AB0EE600ACD
:100EF0000CF031FF8DED010A04EB44013E4800EB9C
:100F00008100D0ED020A601E00EB40013A4800EB80
:100F1000810090ED021A70EEC10AB0EE600A0CF08A
:100F20001AFF8DED020A002617E0684600EB8600E6
:100F300090ED000A03A800EB8600D0ED000A80EED9
:100F4000201AB0EE419AF0EE490AB0EE680A0CF0B1
:100F5000F7FAF0EE408A701CC6B2032EE5D39FED7F
:100F6000270AF4EEC08AF1EE10FA03D29FED230AAD
:100F7000F0EE408A38EE280AB0EE408A204800EBB6
:100F8000840080ED008A601C84B2AC42FFF67EAF24
:100F9000012D06D09FED190AB4EEC08AF1EE10FAC9
:100FA00007D29FED130A134880EDB30A9FED100A94
:100FB00061E701200DE0124901EB800191ED000A8B
:100FC000C0EE080A0E4901EB8001C1ED000A411C88
:100FD00088B2A842EFDBB7EE000A681E084901EBB1
:100FE000800080ED000AB0EE480A44E73CF40008B7
:100FF000000000002C180020F8080020BD378635BE
:10100000F81A0020F0EE401AF4EEE01AF1EE10FAB1
:1010100002D2B0EE600A7047F4EEC11AF1EE10FA97
:1010200002DDB0EE410AF6E7B0EE610AF3E7000038
:1010300070B52DED0A8B8CB0B0EE408AF0EE609A60
:10104000B0EE41AA06469FEDD70AF0EE408A002096
:1010500009900A900B903046FFF7FAFEF0EE40AA96
:10106000D14AD2E900109268CDE907020691CE4A32
:101070000C3207CA03AB07C39FEDCC0AB4EEC08A9B
:10108000F1EE10FA1EDDB7EE0E0A28EE000AC0EEF1
:10109000290AB0EE609A9FEDC60A28EE000AC0EE5B
:1010A0000A0AF0EE60BAB0EE6B0A0CF059FBB0EE33
:1010B00040BAF0EE4B0AB0EE490A0CF041FAF0EEFD
:1010C000408A00BFB7EE0E0A2AEE800AF0EE400A10
:1010D000B0EE680A0CF034FAF0EE408A012456E0D3
:1010E00004EB4401B34800EB8100D0ED000A601E20
:1010F00000EB4001AF4800EB810090ED001A70EE6C
:10110000C10AB0EE600A01F03DFAB0EE409A0CF070
:1011100022FEDDED090A30EE200A8DED090A04EB0E
:101120004401A44800EB8100D0ED010A601E00EBF1
:101130004001A04800EB810090ED011A70EEC10A59
:10114000B0EE600A0CF007FEDDED0A0A30EE200A70
:101150008DED0A0A04EB4401964800EB8100D0EDC6
:10116000020A601E00EB4001924800EB810090ED06
:10117000021A70EEC10AB0EE600A0CF0ECFDDDED73
:101180000B0A30EE200A8DED0B0A601C84B2B442CB
:10119000A6DB00243BE009A800EB840090ED000AE8
:1011A000F7EE0E0A20EE200A06A800EB8400D0ED30
:1011B000000A80EE201AB0EE41BA09A800EB8400C4
:1011C00090ED000ADFED7A0A20EE200A03A800EB7A
:1011D0008400D0ED000A80EE201AF0EE41BAB0EEA5
:1011E0006B0A0CF0BDFAB0EE409AF0EE490AB0EE90
:1011F0004B0A0CF0A5F9F0EE40BAF0EE6B0AB0EE37
:10120000680A0CF09DF9F0EE408A601CC4B2032C11
:10121000C1D30124AAE0684800EB840090ED000AE5
:10122000601E654901EB8000D0ED000A30EE600AD7
:10123000B0EE409A9FED610AB4EEC09AF1EE10FA5A
:1012400000D291E004EB44015A4800EB8100D0ED5C
:10125000000A601E00EB4001564800EB810090ED53
:10126000001A70EEC10AB0EE600A01F08BF9B0EE20
:1012700040BA0CF070FD8DED000A04EB44014D48BE
:1012800000EB8100D0ED010A601E00EB40014948EF
:1012900000EB810090ED011A70EEC10AB0EE600A19
:1012A0000CF059FD8DED010A04EB4401414800EBBF
:1012B0008100D0ED020A601E00EB40013D4800EBCA
:1012C000810090ED021A70EEC10AB0EE600A0CF0D7
:1012D00042FD8DED020A002543E0684600EB8500E3
:1012E00090ED000AF7EE0E0A20EE200A06A800EBA9
:1012F0008500D0ED000A60EE890A80EE201AB0EE7B
:1013000041BA684600EB850090ED000ADFED280A3F
:1013100020EE200AF7EE000A20EE200A03A800EBD8
:101320008500D0ED000A60EE890A80EE201AB0EE4A
:1013300041CAB0EE4C0A0CF013FAF0EE40BAF0EEEF
:101340006B0AB0EE4B0A0CF0FBF8B0EE40CAF0EEC0
:101350004C0AB0EE680A0CF0F3F8F0EE408A681C14
:10136000C5B2032DB9D300BF601C84B2B442FFF6EE
:1013700052AF9FED130AF4EEC08AF1EE10FA03D2D9
:101380009FED0F0AF0EE408ADFED0E0A9FED0E0A88
:1013900008EEA00ABCEEC00A10EE100A0CB0BDECBC
:1013A0000A8B70BD0000000048F400080AD7233CF7
:1013B00083C0B840F8080020F81A0020BD378635F1
:1013C0006F12833A00007A4477BE7F3F2DE9F041E7
:1013D0002DED068BF0EE409A06466748008A0128FC
:1013E0000BD865488030D0E91321406DC6E9002153
:1013F000B060BDEC068BBDE8F081B7EE001ADFED02
:101400005F0AB0EE690AFFF7FDFDB0EE408AB7EE65
:10141000000AB4EEC08AF1EE10FA07DB5648008AE3
:10142000401E84B22546DFED558A3FE00020524A37
:10143000128A521E91B211E00B1A00EB53039AB2BA
:101440004F4B03EB820393ED000AB4EEC80AF1EEB2
:1014500010FA01D8104600E0114600BF421C92B2BB
:101460008A42E9DB04460D46454A02EB850292EDCD
:10147000000A434A02EB8402D2ED000A30EE609A81
:101480009FED400AB4EEC09AF1EE10FA09DD3C4A35
:1014900002EB840292ED000A78EE400A80EE890A9F
:1014A00001E09FED360AF0EE408A00BF05EB4501F2
:1014B0003148CC3000EB8100D0ED000A04EB440150
:1014C0002D48CC3000EB810090ED001A70EEC10A7F
:1014D000B0EE600A01F056F804EB44012648CC3027
:1014E00000EB8100D0ED000A48EE800AB0EE60AA61
:1014F000B0EE4A0A01F046F886ED000A05EB450118
:101500001D48CC3000EB810090ED010A04EB440152
:101510001948CC3000EB8100D0ED010A70EE600A72
:1015200004EB44011448CC3000EB810090ED010A3B
:1015300008EEA00A86ED010A05EB45010E48CC3005
:1015400000EB810090ED020A04EB44010A48CC3024
:1015500000EB8100D0ED020A70EE600A04EB44015A
:101560000548CC3000EB810090ED020A08EEA00A9D
:1015700086ED020A00BF3CE72C08002000000000B6
:10158000F81A0020BD37863570B52DED028B054663
:101590000C462A48806E70B12848406E281A00EE2A
:1015A000100AF8EE400A254890ED1A0AB8EE401AE3
:1015B00080EE810A01E0B7EE000AB0EE408AB7EE95
:1015C000001ADFED1F0AB0EE480AFFF71BFDB0EE70
:1015D000408A1A48D0ED220A90ED1F1A70EEC10A17
:1015E000B0EE600A00F0CEFF1448D0ED1F0A48EEBE
:1015F000000AF0EE608AB0EE680A00F0C3FF84EDE6
:10160000000A0E4890ED230AD0ED200A70EE600A21
:1016100090ED200A08EE200A84ED010A90ED240ADC
:10162000D0ED210A70EE600A90ED210A08EE200A42
:1016300084ED020ABDEC028B70BD00002C08002076
:101640000000000070B52DED028B04460D46D5ED6F
:10165000000A94ED001A70EEC10AB0EE600A00F0C4
:1016600091FFB0EE408A0CF076FBF1EE040AB4EE86
:10167000E00AF1EE10FA25D8D5ED010A94ED011A31
:1016800070EEC10AB0EE600A0CF065FBF0EE000AE5
:10169000B4EEE00AF1EE10FA14D8D5ED020A94ED9A
:1016A000021A70EEC10AB0EE600A0CF054FBF0EEC4
:1016B000000AB4EEE00AF1EE10FA03D80120BDEC06
:1016C000028B70BD0020FAE710B52DED028B0446A9
:1016D000B0EE408A204600F03DFFF0EE408AF4EE86
:1016E000C88AF1EE10FA1DDD9FED100AF4EEC08AF3
:1016F000F1EE10FA16DDC8EE280AB0EE600AD4ED5D
:10170000000A60EE800AC4ED000AD4ED010A60EE22
:10171000800AC4ED010AD4ED020A60EE800AC4ED2D
:10172000020A00BFBDEC028B10BD0000BD3786353C
:1017300016480078012800D100E00020014619B9C0
:1017400012480078022801D1012000E00020014663
:101750000E48C078C0B10D480079A8B10B48407957
:1017600090B10A4840780C280ED169B107488078BA
:1017700050B90648C07938B10448007A20B103480E
:10178000407A08B1012070470020FCE77803002070
:101790001249D1ED090A91ED061A30EEC11AD1EDC8
:1017A000060A40EE010AC0ED000AD1ED0A0A91EDE9
:1017B000071A30EEC11AD1ED070A40EE010AC0ED5A
:1017C000010AD1ED0B0A91ED081A30EEC11AD1EDE4
:1017D000080A40EE010AC0ED020A70472C080020FA
:1017E00070B52DED048B04460D4695ED000AD4ED41
:1017F000000A30EE600AB0EE409A95ED010AD4ED91
:10180000010A30EE600AB0EE408A95ED020AD4ED8E
:10181000020A30EE600AF0EE408A69EE090A48EEEC
:10182000080A48EEA80AB0EE600A0BF099FFBDEC7A
:10183000048B70BD10B52DED048BF0EE408AB7EE31
:10184000001ADFED0F0AB0EE680AFFF7DBFBB0EE1F
:10185000408A28EE080AB0EE409A29EE080AF0EE17
:10186000409ABAEE0E0AF1EE080A00EE880AF2EE8D
:10187000040A48EE000A20EEA90ABDEC048B10BD54
:101880000000000010B52DED028BF0EE408AB7EE9F
:10189000001ADFED0E0AB0EE680AFFF7B3FBB0EEF8
:1018A000408A9FED0B0A28EE000AF7EE000A70EE60
:1018B000C80A60EE200AB7EE000AB0EE001A01EE88
:1018C000480A20EE800ABDEC028B10BD000000002B
:1018D0000000704210B52DED048BB0EE409AB7EECB
:1018E000001ADFED0D0AB0EE490AFFF78BFBB0EEF0
:1018F000408AB7EE000A30EE480AF0EE408AB3EEB6
:101900000E0A28EE000A20EE080A20EE280A20EE31
:10191000280ABDEC048B10BD00000000064981F8C8
:1019200054000021044A82F8551082F856101146DE
:10193000C96D491CD1657047B80700200A480021CD
:10194000016341638163C16301644164603001806C
:101950008170603841668166C1660448018081708B
:10196000C01C01808170704738060020F0080020FC
:1019700070B52DED028B84B005464C4840682C1A9A
:101980004A48C068A04201D84848C4684748C0686F
:1019900058B1464890ED030AF8EE400A00EE104AAE
:1019A000B8EE401A81EE200A01E0B7EE000AF0EE30
:1019B000408AB0EE680AFFF73DFFB0EE408A3B4830
:1019C000C07D02281ED13948007D20B13748006E05
:1019D000281A022811D3B0EE480A284600F076FAF9
:1019E00058B93248007D40B930484068401C2F4902
:1019F000486004B0BDEC028B70BD01A92846FFF71A
:101A0000C3FD04E001A8B0EE480AFFF7DFFC01A81F
:101A100003F0C4FAA0B92548C07C38B92448C06D89
:101A2000401C2349C86501202049C8740020204972
:101A300081F856001D484068401C1C494860D8E7A2
:101A400000201A49C8740120194981F85600084637
:101A5000846680ED188A01A90EC910300EC01348A3
:101A6000C068A0421FD81148008A401E86B206EB0B
:101A700046020E49CC3101EB820003F08FFA06EBEF
:101A800046010A48CC3000EB810309480ECB1030E8
:101A90000EC0B7EE000A1C3880ED180A2946062051
:101AA00000F0C6F900BF00BFA3E700002C0800202B
:101AB000B807002070B52DED048B9AB004460D4692
:101AC00000EE105AB8EE400ADFEDD40A20EE200AEC
:101AD000B0EE408AD2480146D1E90832896AC0E9AD
:101AE0000B3241638038C06E201A64280CD9012063
:101AF000CB4980398875CA48002101624162816200
:101B00001AB0BDEC048B70BD0020C54980398875C2
:101B1000B5EEC08AF1EE10FA00D8F1E7C04880387F
:101B200090ED130AD0ED0C0A30EE600A8DED0C0A30
:101B300090ED140AD0ED0D0A30EE600A8DED0D0A1D
:101B400090ED150AD0ED0E0A30EE600A8DED0E0A0A
:101B50000CA800F0FFFCF0EE408AB1488038D0EDD0
:101B6000170AB0EE001A60EE810A60EEA80AB0EE25
:101B7000600A0BF0F5FDB0EE409AA9488038D0ED30
:101B8000160AB0EE600AF0EE490A0BF0FDFCF0EE2A
:101B9000409A0CA807C809AB07C3B0EE690A09A8A8
:101BA00000F050F99DED090A9D488038D0ED280AD3
:101BB00030EE600AC0EE080ACDED060A9DED0A0A75
:101BC000D0ED290A30EE600AC0EE080ACDED070A12
:101BD0009DED0B0AD0ED2A0A30EE600AC0EE080A2D
:101BE000CDED080AD0ED170AB0EE600A06A8FFF79F
:101BF0006BFD002014E08A49203101EB800191ED5A
:101C0000000A06A901EB8001D1ED000A00EE880A66
:101C10008349203101EB800181ED000A411CC8B2EB
:101C20000328E8D37E488038D0ED160AB0EE600A6B
:101C3000A030FFF749FD7A48803890ED280A20EE61
:101C4000080A8DED030A90ED290A20EE080A8DEDB1
:101C5000040A90ED2A0A20EE080A8DED050A9FED90
:101C6000710AF4EEC08AF1EE10FA18D99DED030A5C
:101C7000DDED0C0A20EE200ADDED040A9DED0D1AC3
:101C800000EE810ADDED050A9DED0E1A00EE810AD7
:101C900068EEA80AB4EEE00AF1EE10FA0EDB604935
:101CA00080390846D0E91323406DC1E90C238863CD
:101CB0005B48002101624162816219E05848803826
:101CC00090ED0C0ADDED030A30EE200A80ED0C0ADF
:101CD00090ED0D0ADDED040A30EE200A80ED0D0ACC
:101CE00090ED0E0ADDED050A30EE200A80ED0E0AB9
:101CF0004B4A803A303207CA0FAB07C34848803896
:101D0000006E201A02286ED30026202112A8FEF7AA
:101D1000ABFC12AA424908310FA800F04BFF08B1F2
:101D200001261DE09DED190AF6EE000AB4EEE00A68
:101D3000F1EE10FA01DD022612E013A801F0EEF92F
:101D400008B903260CE013A8FEF792FE08B9042692
:101D500006E013A932480830FFF774FC00B90526E5
:101D60002EBB2F49091F081DD0E902230069C1E9D4
:101D700000238860081D13A90EC908300EC09438CE
:101D80000FA90EC93C300EC04838446602202449D1
:101D900080398866084604660020234981F854008B
:101DA000012081F85600002081F857001AE01C48F5
:101DB0000021016241628162803803463C330ECBD0
:101DC00030300EC09DF84800174981F854000020BB
:101DD00081F85600084680F8576080F85860C06D5A
:101DE000401CC86500BF69462046FFF7CDFB68462A
:101DF00003F0D4F820B10C489DE80E0010300EC05E
:101E0000074880384068201A074988669FED070A0E
:101E1000084680ED180A00BF72E600006F12833A90
:101E2000AC080020CDCC4C3DB807002000000000DD
:101E3000024A1070024A116070470000B807002083
:101E40002C08002010B52DED028B0446B0EE408A20
:101E5000204600F07FFBF0EE408A9FED1A0AF4EE78
:101E6000C08AF1EE10FA04D9B5EEC08AF1EE10FA8C
:101E70000ED89FED150A84ED000A9FED130A84ED3C
:101E8000010A9FED110A84ED020ABDEC028B10BD20
:101E900088EE280AD4ED000A20EE200A84ED000A1C
:101EA00088EE280AD4ED010A20EE200A84ED010A0A
:101EB00088EE280AD4ED020A20EE200A84ED020AF8
:101EC00000BFE2E7BD3786350000000010B52DEDFC
:101ED000028B8EB00446B0EE408A0BA8B0EE480AE2
:101EE000FFF756FC3748007D88B136488030D0E98E
:101EF00002120069CDE90012029032497C31081DBE
:101F0000D0E902230069C1E90023886009E02E4A74
:101F1000103207CA8DE807002A487C309DE80E0081
:101F20000EC0202103A8FEF79FFB03AA69460BA859
:101F300000F040FEA8B99DED0A0AF6EE000AB4EEE4
:101F4000E00AF1EE10FA0CDC04A801F0E7F840B169
:101F500004A8FEF78DFD20B104A96846FFF772FBC7
:101F6000B0B99DF80C00184981F85400002081F8A0
:101F700056001448C07C30B90846C06D401CC86586
:101F800001201049C87400200EB0BDEC028B10BDBA
:101F90000C48803004A90EC908300EC0943844663D
:101FA000022008498866084604660120087500205A
:101FB000C874054981F85400012081F8560000BF1B
:101FC000E2E700002C080020B80700202DE9F047C8
:101FD0002DED028B04460E46B0EE408AF0EE608A8C
:101FE000174698460A9D2C48008A401E1FFA80F921
:101FF000294894E80E0024300EC03038C660456091
:1020000080ED1C8AC0ED1D8AC77500202249C87466
:1020100008750846056645660220886600204875F2
:10202000887521461C481830FFF7DAFB1A4880ED06
:102030001E0A1A498030D0E91323406DC1E90423F8
:10204000886109EB49011448CC3000EB8103134A45
:102050000BCB1C320BC2114894E80E0048300EC066
:1020600000200E4981F85400012081F8550081F8C4
:1020700056009FED0B0A084680ED180A002088667E
:102080004870FFF75BFC29464046FFF7D1FEBDECE8
:10209000028BBDE8F08700002C080020B807002064
:1020A0000000000070B52DED048B84B006460D468F
:1020B000EF4890ED030AB8EE400ADFEDEE0A20EE9D
:1020C000200AB0EE408AB5EEC08AF1EE10FA0CDDBF
:1020D000E94890ED1A0AF8EE400AE54890ED030A47
:1020E000B8EE401A80EE810A01E0B7EE000AF0EE89
:1020F000409AE248E24BD3E907215B6AC0E9011349
:1021000002600246DC4B10330BCB0C320BC2DB48B7
:10211000D94B1C330ECB18300EC02438D84B543357
:102120000ECB48300EC05438D54B60330ECB5430F4
:102130000EC00024D2E094B9CF48103000EB8400E8
:10214000D0ED000ACE481C3000EB840090ED001A60
:1021500070EEC10AB0EE600A00F014FA0DE0C64855
:10216000103000EB840090ED000AC5481C3000EBF5
:102170008400D0ED000A30EE600AB0EE409A94B9C7
:10218000BD481C3000EB8400D0ED000ABC481C3078
:1021900000EB840090ED001A70EEC10AB0EE600A08
:1021A00000F0F0F90DE0B4481C3000EB840090ED35
:1021B000000AB3481C3000EB8400D0ED000A30EE7A
:1021C000600AF0EE408AAD48243000EB840080EDD8
:1021D000009AB0EE490A0BF0BEFDA848303000EB83
:1021E0008400D0ED000AB4EEE00AF1EE10FA09DD49
:1021F000B0EE490A0BF0AFFDA048303000EB840090
:1022000080ED000A9A48C430005DA0B9B0EE680ABB
:102210000BF0A1FDDFED9B0AB4EEE00AF1EE10FA3F
:1022200009DD9348B83000EB8400C0ED008A01213D
:102230008F48C43001558E48C430005D80B18C4851
:10224000B83000EB840090ED000A20EE280AB5EECD
:10225000C00AF1EE10FA03D201218548C7300155BA
:102260008348C730005DC0B1B0EE680A0BF073FD63
:1022700082483C3000EB8400D0ED000AB4EEE00A66
:10228000F1EE10FA09DDB0EE680A0BF064FD7B4850
:102290003C3000EB840080ED000AB0EE490A0BF000
:1022A0005AFDF1EE040AB4EEE00AF1EE10FA0CDD8C
:1022B0000121724860300155001D50F82400411979
:1022C0006E48643040F8241006E000216B4860300E
:1022D0000155001D40F82410601CC4B2032CFFF40B
:1022E0002AAF6348407DE8B300EE105AB8EE400ACA
:1022F000DFED600A20EE200AF0EE408A5C48D0ED67
:10230000280A60EEA00A90ED291AD0ED291A41EEB4
:10231000210A90ED2A1AD0ED2A1A41EE210AB0EED8
:10232000600A0BF01DFA554880ED1C0A504890EDEC
:10233000280AD0ED2B0A30EE600A8DED010A90EDEF
:10234000290AD0ED2C0A30EE600A8DED020A90EDDC
:102350002A0AD0ED2D0A30EE600A8DED030AF5EE63
:10236000C08A00E021E0F1EE10FA18DDDDED010A8F
:1023700060EEA00A9DED021ADDED021A41EE210A7F
:102380009DED031ADDED031A41EE210AB0EE600A5D
:102390000BF0E6F9F0EE400A80EEA80A01E09FEDAE
:1023A0003A0A364880ED1D0A31E0B5EEC08AF1EEFA
:1023B00010FA0BDDB0EE690AFFF78CFA2C48D0ED6D
:1023C0001E0A60EE200A80EE880A01E09FED2E0AC8
:1023D0002A4880ED1C0AB5EEC08AF1EE10FA11DD34
:1023E000B0EE690AFFF74EFAF0EE408A0BF0B3FC4C
:1023F0001F48D0ED1E0A60EE200A28EE081A80EE73
:10240000810A01E09FED200A1C4880ED1D0A1A4850
:10241000806E1A4988671648C068C86716480078F1
:10242000052803D112480068301A00E00020134943
:10243000C1F880000E48407D81F888000C48807DFE
:1024400081F889000A48806CC1F88C000848407DFA
:1024500018B10748C06E301A00E000200749C1F8E3
:102460008400084602F01EFC04B0BDEC048B70BD75
:102470002C0800206F12833AB8070020380600208D
:10248000780300200AD7233C0000000010B52E4836
:102490002E4BD3E907215B6AC0E902134260002496
:1024A00029E094B928481C3000EB8400D0ED000AE4
:1024B00026481C3000EB840090ED001A70EEC10A33
:1024C000B0EE600A00F05EF80DE01F481C3000EB33
:1024D000840090ED000A1D481C3000EB8400D0ED14
:1024E000000A30EE600A1848283000EB840080EDC6
:1024F000000A601CC4B2032CD3D3134913488030A4
:10250000D0E90A23006BC1E90F2348644831A1F1E7
:102510000C00FFF765F90C4880ED1C0A0B49B1F877
:1025200007208286497A80F83610373007494A8971
:102530000280097B81700648C068034948660448E8
:10254000008AA1F86C0010BDB807002078030020B5
:102550002C08002010B50446D4ED000A60EEA00A55
:1025600094ED011AD4ED011A41EE210A94ED021AFC
:10257000D4ED021A41EE210AB0EE600A0BF0F0F839
:1025800010BD000005E0DFED0E0A70EE600AB0EE4F
:10259000600ADFED0C0AB4EEE00AF1EE10FAF2DCAC
:1025A00005E0DFED070A70EE200AB0EE600ADFED0D
:1025B000060AB4EEE00AF1EE10FAF2D3704700001A
:1025C0000000B44300003443000034C370B52DED67
:1025D000028B0546B0EE408A05EB85001C4901EBF5
:1025E000C0049FED1C0AF0EE408A18EE100A0AF0B3
:1025F000B0FC18B90020BDEC028B70BD94ED040A4C
:1026000030EE680AB4EEC80AF1EE10FA0AD894ED7A
:10261000050A30EE280AB4EEC80AF1EE10FA01DB22
:102620000120E8E794ED060A30EE680AB4EEC80A25
:10263000F1EE10FA0AD894ED070A30EE280AB4EE4B
:10264000C80AF1EE10FA01DB0220D4E70320D2E73A
:1026500008070020CDCC4C3E2DE9F0412DED028B3A
:102660000546B0EE408A0F464DB118EE100A0AF04A
:1026700070FC20B1B5EEC08AF1EE10FA04D800204B
:10268000BDEC028BBDE8F08100241FE005EB840067
:1026900090ED000A10EE101A08460AF05AFC08B92C
:1026A0000020EDE705EB8400D0ED000AB0EE600AF3
:1026B0002046FFF78BFF064626B1032E02D01FB936
:1026C000012E01D00020DBE7601CC4B2032CDDD357
:1026D000002411E005EB8400D0ED000AB0EE600AA2
:1026E0003A46F0EE480A2946204601F039FE08B97C
:1026F0000020C5E7601CC4B2032CEBD30120BFE768
:1027000070B500240AE004EB8400064951F830500B
:1027100015B1284603F0FFF9601CC4B2032CF2D3B4
:1027200070BD00000807002010B52DED028BB0EE43
:10273000408A0D4890F8360020B99FED0C0ABDEC98
:10274000028B10BD18EE100A0AF003FC10B99FEDC1
:10275000080AF4E79FED070A38EE400AF7EE000A90
:1027600020EE200AEBE700008007002000000000B8
:102770000000C07F00003443F0EE400A9FED020AE3
:1027800030EE600A70470000000034C3F0EE400AEB
:102790009FED020A30EE600A70470000000034C36B
:1027A00010B52DED0A8BF0EE409AB0EE608AB0EED7
:1027B00041AA044614B9BDEC0A8B10BD9FED2D0A49
:1027C00069EE80AA9FED2B0A28EE00BAB0EE4A0A05
:1027D000FFF7DCFF30EE080ADFED260A60EE20BAD4
:1027E000B0EE4B0A0AF004FEDFED230A60EE20CAC9
:1027F000B0EE6B0A0AF0FCFDDFED200AB0EE6CCA09
:1028000000EE80CA9FED1E0A7CEE008A9FED1C9AA6
:10281000B0EE6A0A0AF0ECFD60EE28CAB0EE6A0A71
:102820000AF0D6FE49EE40CAC4ED00CAB0EE6A0A0C
:102830000AF0CEFE60EE28CAB0EE6A0A0AF0D8FDB1
:1028400049EE00CAC4ED01CAB0EE4B0A0AF0C0FE60
:10285000DFED0CCADFED080A40EE80CAB0EE6B0A6D
:102860000AF0B6FEDFED050A40EE80CAC4ED02CAEA
:1028700000BFA0E735FA8E3C0000824300006643AB
:1028800000000000000078421FB59FEDB10A8DEDF9
:10289000000AD021AF48FDF7E7FE4FF4B871AE480B
:1028A000FDF7E2FE8021AD48FDF7DEFE9021AC4849
:1028B000FDF7DAFE4021AB48FDF7D6FE7821AA48A5
:1028C000FDF7D2FE3821A948FDF7CEFE9FEDA00A04
:1028D000A54880ED010A9FED9E0A80ED020AB7EE41
:1028E000000A80ED030A9FEDA20A80ED040A9FED25
:1028F000A10A80ED050A9FEDA00A80ED060A9FED72
:102900009F0A80ED070A9FED920A80ED0B0A9FED6A
:102910009C0A80ED0C0AB7EE000A80ED0D0A9FEDCF
:10292000990A80ED0E0A9FED960A80ED0F0AB3EE2C
:10293000040A80ED100A9FED940A80ED110A9FEDC4
:10294000840A80ED150A9FED8A0A80ED160AB7EE1B
:10295000000A80ED170A9FED8D0A80ED180A9FEDA1
:102960008C0A80ED190A9FED8B0A80ED1A0ABBEEE6
:10297000040A80ED1B0A0020019002900390864813
:10298000019002208DF80D0000208DF80E0003202C
:10299000ADF808001320ADF80A0006208DF80C00F1
:1029A00001A803F049F9704908600220ADF8080059
:1029B0001220ADF80A0007208DF80C0001A803F0E2
:1029C0003BF9694988620120ADF808001120ADF893
:1029D0000A0006208DF80C0001A803F02DF96249C9
:1029E000086508460068D0B10846806AB8B1084654
:1029F000006DA0B108460068808E40F20311884245
:102A00000DD15948806A808EB0F5817F07D1564834
:102A1000006D808E891E884201D1012000E00020D7
:102A20004C49C870684600F053FC4A490871FF20C1
:102A3000887100204870087081F8CC0004F084FB95
:102A40004A4908600846006848600846006808610E
:102A50000846006848610846002141628162C162FF
:102A60000020424981F8330081F83400012081F8C8
:102A70003500002081F83600012037490873002115
:102A8000354841738173C1730174022141749FED14
:102A9000430A80ED050A9FED420A80ED060A9FED8C
:102AA000400A80ED070A9FED2A0A80ED080A9FED93
:102AB000340A80ED090A9FED2E0A80ED0A0A0021F2
:102AC000C16201630120244981F8340000212248B9
:102AD00080F8351080F8361080F8371080F83810FC
:102AE000022180F83910032180F83A109FED2D0A59
:102AF00080ED0F0A9FED2C0A80ED100A9FED2B0A46
:102B000080ED110A00218164C16401659FED280AEE
:102B100080ED150A9FED220A80ED160A9FED200A2E
:102B200080ED170A0166416602F05EFB01F0D2FDFE
:102B30000848C07810B10748007918B9012000F0A2
:102B400051FC1FBD02200349087000BFF9E70000D7
:102B5000000000007803002048040020B805002091
:102B600038060020C8060020080700208007002043
:102B70000000B4C20000B4420000DCC20000DC422D
:102B80000000344300000C420000484300003EC3F4
:102B9000000020C2000052C328C50120000070437D
:102BA0000000C07F00007A43000048420000F0426D
:102BB0000000E1432DE9F04F2DED108B83B0054669
:102BC0000E4614469FEDF00AB0EE40EA4FF00009C1
:102BD000CA46CB462CB9032003B0BDEC108BBDE830
:102BE000F08F20212046FDF73FFD85B37EB395EDA4
:102BF000000A10EE101A08460AF0B4F938B395ED41
:102C0000010A10EE101A08460AF0ACF9F8B195ED79
:102C1000020A10EE101A08460AF0A4F9B8B196EDAF
:102C2000000A10EE101A08460AF09CF978B196EDE9
:102C3000010A10EE101A08460AF094F938B196ED20
:102C4000020A10EE101A08460AF08CF918B903208F
:102C500020702078C0E7D5ED000A60EEA00A95ED5F
:102C6000011AD5ED011A41EE210AB0EE600A0AF010
:102C700077FDB0EE408A95ED020ADFEDC40A70EEF2
:102C8000608A18EE100A0AF06DF920B118EE900A69
:102C90000AF068F918B90720207020789CE79FEDAA
:102CA000BC0A08EE080AB5EEC00AF1EE10FA03D22B
:102CB0000420207020788FE79FEDB30A18EE080AF1
:102CC000F0EE400A9FEDB00A0AF03AFCB0EE409AEE
:102CD0000AF046FDF0EE409A9FEDAD0AB4EEC08AD0
:102CE000F1EE10FA0ADD95ED001AF0EE410A95EDCD
:102CF000011AB0EE410A0AF0EFF905E096ED000A7C
:102D0000DFEDA40A20EE200AF0EE40DA0027DAE038
:102D10009FED9F0AF4EEC09AF1EE10FA02D8012F4F
:102D200000D1CEE017B9B0EE690A01E0B1EE690A50
:102D3000F0EE40BA9FED940A7BEEC0AAF0EE6B0A6B
:102D40009FED910A0AF0C8F93DEEC00ADFED920A44
:102D500020EE200AB0EE40AA00F020FBB0EE40CA00
:102D60002AEEAA0A08EEA80ADFED8C0A30EE600A05
:102D7000DFED8B0A30EE600ADFED8A0A80EE209AE2
:102D800019EE100A0AF0EEF818B907202070207822
:102D900022E79FED850AB4EEC09AF1EE10FA06D351
:102DA0009FED820AB4EEC09AF1EE10FA00DD88E0E1
:102DB0004FF0010AB7EE001AFFEE000AB0EE490A22
:102DC00000F070FAB0EE409A4FF0000875E0B0EEF7
:102DD000490A0AF0F5F8B0EE40BAB8F1000F03D096
:102DE000B1EE4B0AB0EE40BAF0EE6A0AB0EE680AF5
:102DF0000AF072F9F0EE40FAB0EE4B0A0AF0F8FA77
:102E0000DFED6B0A9FED6B1A41EE000AF0EE60EA0F
:102E1000B0EE4B0A0AF0DCFBDFED660A20EE200A7A
:102E2000B0EE40FAF0EE6E0A0AF056F97FEEC0CA34
:102E30009FED590A2BEE00DA8DED00CA9FED560A80
:102E40002CEE800A8DED010AB0EE4D0AFFF794FCDE
:102E50008DED020A684600F061F900B929E04FF0F3
:102E6000010B6846FDF704FE00B922E06078401CC3
:102E700060703146684600F0C5F9B0EE40AA1AEE1F
:102E8000100A0AF06FF818B9072020702078A3E61E
:102E9000B9F1000F04D0B4EECEAAF1EE10FA07D2C9
:102EA0004FF00109B0EE4AEA9DE80700231D07C371
:102EB00000BF08F1010000F0FF08B8F1020F86D34F
:102EC00000BF781CC7B2022FFFF422AFB9F1000F88
:102ED0000FD1BBF1000F02D00620207007E0BAF13D
:102EE000000F02D00520207001E00420207020781F
:102EF00072E6D4ED031AB0EE611AD4ED021AF0EEC8
:102F0000610AD4ED011AB0EE610A04F11000FFF776
:102F100047FCD4ED040A95ED001A70EEC10A60EE8C
:102F2000A00A94ED051AD5ED011A31EE611AD4ED1F
:102F3000051A95ED012A71EEC21A41EE210A94EDAF
:102F4000061AD5ED021A31EE611AD4ED061A95ED86
:102F5000022A71EEC21A41EE210AB0EE600A0AF0AE
:102F6000FFFB84ED070A94ED070A10EE101A0846DD
:102F700009F0F8FF18B90720207020782CE600200F
:102F80002070207828E60000000000000000784251
:102F900017B7D13835FA8E3CE02E654200088447D9
:102FA00000A44E470098E947470380BF4703803F8E
:102FB000000082430000664370B52DED028B05468C
:102FC000B0EE408A2846FDF7A1FD20B118EE100AA8
:102FD00009F0BFFF20B99FED150ABDEC028B70BD53
:102FE00005EB8500124901EBC004D4ED030AB0EEF5
:102FF000600AFDF785FCF6EE000AB4EEE00AF1EE99
:1030000010FA02D29FED090AE7E794ED020A38EEC2
:10301000400ADFED080A20EE200AD4ED030A80EE14
:10302000201A94ED010A31EE000AD6E70000C07FB5
:103030000807002035FA8E3C70B52DED028B054651
:10304000F0EE408A0C46022D07D0B0EE680A284602
:10305000FFF7B2FFBDEC028B70BD54B194ED010AD5
:1030600010EE101A084609F074FF10B194ED018AB1
:103070001BE0124890ED130A10EE101A084609F0F2
:1030800068FF18B10D4890ED138A0EE00B4890EDE3
:10309000120A10EE101A084609F05BFF18B1074833
:1030A00090ED128A01E09FED068AF0EE480AB0EE3C
:1030B000680A284600F006F8CCE700000807002060
:1030C0000000344310B52DED048B0446B0EE408A69
:1030D000F0EE608A022C19D1B0EE680AFFF724FBEB
:1030E000B0EE409A18EE100A09F033FF20B119EE45
:1030F000100A09F02EFF20B99FED070ABDEC048BE2
:1031000010BD38EE490AB0EE408A00BFB0EE480A62
:103110002046FFF751FFF1E70000C07F10B50446DD
:10312000BCB194ED000A10EE101A084609F01AFF1F
:1031300078B194ED010A10EE101A084609F012FF5A
:1031400038B194ED020A10EE101A084609F00AFF91
:1031500008B9002010BD94ED000ADFED1C0AB4EEA2
:10316000E00AF1EE10FA2EDB94ED000ADFED180A0A
:10317000B4EEE00AF1EE10FA25D894ED010ADFED85
:10318000150AB4EEE00AF1EE10FA1CDB94ED010A28
:10319000DFED110AB4EEE00AF1EE10FA13D894ED67
:1031A000020ADFED0E0AB4EEE00AF1EE10FA0ADBD5
:1031B00094ED020ADFED0A0AB4EEE00AF1EE10FA2D
:1031C00001D80120C6E70020C4E700006666B4C24B
:1031D0006666B44233330B423333344333333EC336
:1031E00033331FC210B52DED028BB0EE408AF0EEE6
:1031F000608A78EE680AB0EE600A00F0CFF8BDECA5
:10320000028B10BD70B52DED068B04460D469FED6B
:10321000200AB0EE409A9FED1F0AF0EE409A9FED13
:103220001E0AB4EEC09AF1EE10FA06D99FED1A0A02
:10323000F4EEC09AF1EE10FA04D89FED180ABDEC36
:10324000068B70BD95ED001AF0EE410A94ED001A60
:10325000B0EE410AFFF7C6FFDFED110A80EE20AAAB
:1032600094ED010AD5ED010A30EE600A80EE098A7C
:1032700094ED020AD5ED020A30EE600AC0EE298A0A
:103280002AEE0A0A08EE080A08EEA80AD7E70000A4
:10329000000011430000164317B7D1380000807FAB
:1032A0000000B443F0EE401AF4EEE01AF1EE10FA2A
:1032B00002D2B0EE600A7047F4EEC11AF1EE10FAD5
:1032C00002DDB0EE410AF6E7B0EE610AF3E7000076
:1032D00010B52DED028B86B0044603A89FED291A88
:1032E000DFED290A9FED290AFFF75AFA9FED280A18
:1032F0008DED000A9FED250A8DED010A9FED250A4F
:103300008DED020ADDED030A9DED001A70EEC10A93
:1033100060EEA00A9DED041ADDED011A31EE611A8E
:10332000DDED041A9DED012A71EEC21A41EE210A6B
:103330009DED051ADDED021A31EE611ADDED051A7B
:103340009DED022A71EEC21A41EE210AB0EE600A2A
:103350000AF006FAB0EE408A0CB184ED008A18EE4D
:10336000100A09F0FFFD58B19FED0B0AB4EEC08AB8
:10337000F1EE10FA04D8012006B0BDEC028B10BDAE
:103380000020F9E70000B4C20000B44200000000D1
:10339000000066430000A1430AD7233C05E0DFEDAF
:1033A0000E0A70EE600AB0EE600ADFED0C0AB4EEB1
:1033B000E00AF1EE10FAF2DC05E0DFED070A70EE4C
:1033C000200AB0EE600ADFED060AB4EEE00AF1EE84
:1033D00010FAF2D3704700000000B44300003443F9
:1033E000000034C310B5044604B9012411488078A4
:1033F00008B10B2C01D10F4884700B2C01D1052092
:1034000000E004200B4908700B2C01D10E2000E0D5
:103410000D20084948700820FDF75AFA0020064997
:1034200081F83600FFF76CF90120034981F831007B
:1034300010BD0000780300208007002010B52DED9E
:10344000028B0446F0EE408A0F4890ED130AB0EE6E
:10345000408A012C07D1B0EE680A204600F018F827
:10346000BDEC028B10BD18EE100A09F072FD18B900
:103470009FED060AB0EE408AF0EE480AB0EE680A08
:10348000204600F033F8EBE7080700200000344343
:1034900070B52DED028B0546B0EE408A2846FDF74B
:1034A00035FB20B118EE100A09F053FD20B99FED4D
:1034B0000C0ABDEC028B70BD05EB8500094901EBE0
:1034C000C00494ED030AD4ED010A78EE600A60EEC0
:1034D000200A94ED020A9FED041A00EE810AE8E743
:1034E0000000C07F08070020E02E654210B52DEDDA
:1034F000048B0446F0EE409AF0EE608AB0EE690A62
:103500002046FFF7C5FFB0EE408A022C19D1B0EE7D
:10351000680AFFF709F9B0EE409A18EE100A09F0B0
:1035200018FD20B119EE100A09F013FD20B99FED26
:10353000060ABDEC048B10BD38EE090AB0EE408AD5
:1035400000BFB0EE480AF4E70000C07F10B52DEDD3
:10355000028B0446B0EE408A2046FDF7D7FA20B130
:1035600018EE100A09F0F5FC20B99FED220ABDEC17
:10357000028B10BD022C2FD11F4890F8360050B39B
:103580001E48806A20B11D48806AD0ED020A01E021
:10359000DFED1B0AB0EE600A0120FFF7D7FFF0EE67
:1035A000408A18EE900A09F0D4FC10B99FED110A78
:1035B000DDE704EB8400114901EBC00090ED030A44
:1035C00020EE080ADFED0F0A20EE200AF7EE000ACF
:1035D00000EEA80ACBE700BF04EB8400074901EB2B
:1035E000C00090ED030A20EE080ADFED060A20EE87
:1035F000200ABCE70000C07F8007002008070020E9
:1036000000000000E02E65422DE9F0412DED048B15
:1036100092B00446B0EE408A03F096FD07462021A2
:103620000AA8FDF721F803208DF828009F480078AC
:10363000022807D09D480078042803D09B480078D2
:10364000032805D1012012B0BDEC048BBDE8F08148
:1036500054B394ED000A10EE101A084609F08BFCE2
:1036600010B394ED010A10EE101A084609F083FC1D
:10367000D0B194ED020A10EE101A084609F07BFC56
:1036800090B118EE100A09F076FC68B1B7EE000AA6
:10369000B4EEC08AF1EE10FA06D39FED850AB4EEBF
:1036A000C08AF1EE10FA05DD9DF82800FEF736F924
:1036B0000320C8E7FEF73CF828B99DF82800FEF77C
:1036C0002DF90220BFE77B4890ED070A8DED040A33
:1036D00090ED080A8DED050A90ED090A8DED060AB8
:1036E00004A8FFF71BFD18B104A8FDF7C1F920B924
:1036F0000620FEF713F90420A5E7DDED061AB0EE6B
:10370000611ADDED051AF0EE610ADDED041AB0EE86
:10371000610A6948FFF744F821466748FEF760F8F8
:10372000F0EE408A18EE900A09F025FC20B9072037
:10373000FEF7F4F8032086E79FED600AF4EEC08AF6
:10374000F1EE10FA04D80021204600F051FD7AE78E
:10375000B7EE000AC8EE800AB0EE609AB0EE490AF1
:1037600009F010FEBCEEC00A10EE100A401C85B233
:10377000022D02D3B5F5C07F04D90320FEF7CEF8A1
:10378000042060E74C4818380582803004A90EC92F
:103790004C300EC004A807C801AB07C3012663E084
:1037A000681E00EE100AF8EE400A00EE106AB8EE4D
:1037B000400A80EE201AB0EE419A94ED000A3E488D
:1037C0001838D0ED060A70EE600A90ED060A09EE90
:1037D000200A8DED070A94ED010AD0ED070A70EE7C
:1037E000600A90ED070A09EE200A8DED080A94EDB3
:1037F000020AD0ED080A70EE600A90ED080A09EEA0
:10380000200A8DED090A0AAA01A907A8FFF7D2F933
:10381000A8B99DED110AF6EE000AB4EEE00AF1EE49
:1038200010FA0CDC0BA8FFF779FC40B10BA8FDF7F0
:103830001FF920B10BA901A8FDF704FF28B99DF8D5
:103840002800FEF76BF80420FDE606EB46011A4857
:10385000B43000EB81000BA90EC90EC00BA807C83D
:1038600001AB07C3701C86B2AE4299DB28469FEDC0
:10387000141AF0EE480AB0EE680AFDF7D9FB80464C
:1038800001A8FDF74BF920B90320FEF747F8022005
:10389000D9E604230222DFED0A0AB0EE480A4146C7
:1038A00020460097FEF792FB0020CCE6B8070020E8
:1038B00000002F4478030020440800200AD7233C4E
:1038C0000000614570B52DED028B05460E462DB901
:1038D000002036498860BDEC028B70BD002455E0A5
:1038E00005EB840090ED000A10EE101A084609F06E
:1038F00030FB60B104EB84002D4A02EBC00090ED78
:10390000090A10EE101A084609F023FB18B9002026
:1039100026498860DFE705EB840090ED000A04EBA0
:103920008400234901EBC000D0ED090A70EE608AE3
:1039300004EB840051F83000D0ED020AB0EE600ACA
:103940002046FFF703FEB0EE408A18EE100A09F099
:1039500000FBA8B1B0EE680AFCF7D2FFF7EE000A50
:10396000B4EEE00AF1EE10FA0ADCB0EE480AFCF719
:10397000C7FFF0EE000AB4EEE00AF1EE10FA03DD44
:1039800000200A498860A6E7601CC4B2032CA7D3B4
:103990000648806808B90548866004488068301A7F
:1039A000782801D3012096E7002094E780070020C3
:1039B000080700202DE9F0412DED028B06468F4CC3
:1039C000207880B9607808B100F058FD0020607060
:1039D000A070022060710020894981F83300BDEC9D
:1039E000028BBDE8F081864890F83300D8B90120F9
:1039F000834981F833000846066101206070002089
:103A0000A070E0702071022060719FED7E0A84ED4D
:103A1000030A9FED7C0A84ED040A00202062606A9C
:103A2000401C6062DBE703F08FFB0746FCF776FF84
:103A300028B1FCF7B7FF10B1FCF79AFF20B90520B9
:103A4000607002206071CAE794ED020A10EE101A4D
:103A5000084609F07EFA30B194ED020AB5EEC00ACC
:103A6000F1EE10FA04D80520607003206071B6E70B
:103A700063480069301A20626078062872D2DFE855
:103A800000F0B4035A8DA7B0002540E005EB850097
:103A90005D4901EBC00090ED080A05EB850001EBE4
:103AA000C000D0ED090A30EE608A05EB850051F8C0
:103AB0003000D0ED020AB0EE600A2846FFF746FD5E
:103AC000F0EE408A18EE100A09F043FAD0B118EE71
:103AD000900A09F03EFAA8B1B0EE480AFCF710FFD0
:103AE000F7EE000AB4EEE00AF1EE10FA0ADCB0EEEE
:103AF000680AFCF705FFF0EE000AB4EEE00AF1EE0A
:103B000010FA02DD0120607103E0681CC5B2032DCC
:103B1000BCD300BF032D00D26CE001206071384897
:103B20000069301AB0F57A7F00D263E00020E070BF
:103B3000022060705EE03548FFF7F0FA20B90520FA
:103B400060700620607155E0D4ED020AB0EE600AA4
:103B500000212E48FEF780FD28B905206070062060
:103B6000607147E040E026480661002024498860F3
:103B7000A0700120E0709FED230A84ED030A9FED01
:103B8000210A84ED040A214A07CAC4E906126061C9
:103B9000002020626071032060702BE031461B48DA
:103BA000FFF790FE40B10020A0700120207100209E
:103BB0006071042060701DE011480069301A46F2FF
:103BC000A811884203D3052060700220607111E0C3
:103BD00000F054FC0020A0700120207100206071D2
:103BE00008E000F04BFC05E000BF0020044981F82C
:103BF000330000BF00BF00BFF1E600005404002006
:103C0000800700200000C07F08070020F4F30008B0
:103C1000F0B589B00546D14C207888B9607808B1F4
:103C200000F004FD00206070A07002206071002090
:103C3000CB4981F83400012081F8350009B0F0BD8E
:103C4000C6483438007C20B1C4483438407B04284E
:103C500006D0012060700020A07002206071EDE7A6
:103C6000BF4890F8340030BB0120BD4981F83400D2
:103C700008464561022060700020A070E07020714D
:103C8000022060710320A071B649D1E90020896843
:103C9000C4E9022021619FEDB40A84ED090A9FED79
:103CA000B20A84ED0A0A0020E06220630120AC49D8
:103CB00081F83500C2E703F047FA0746FCF72EFE0D
:103CC00028B1FCF76FFE10B1FCF752FE20B90820B6
:103CD000607002206071B1E794ED080A10EE101ACE
:103CE000084609F036F978B194ED080AB5EEC00A35
:103CF000F1EE10FA08D994ED080ADFED9C0AB4EE53
:103D0000E00AF1EE10FA04DD082060700320607113
:103D100094E793484069281AE062607809287DD2C8
:103D2000DFE800F0FDFC0534638BBADEFB002021E8
:103D300001A8FCF799FC01AA8D4904F10800FEF7DF
:103D400039FFA071A07938B902A8FFF7E7F918B1D7
:103D500002A8FCF78DFE20B9082060700620607173
:103D6000F8E002A807C8C4E9061260617C4802A90D
:103D70000EC924300EC000206071794890F83500DB
:103D800008B1032000E005206070E3E0D4ED080AEC
:103D9000B0EE600A04F10801764800F0DBFC06464C
:103DA00066B1754890F85400A07108206070012E2B
:103DB00001D1012000E006206071CBE06E48D0E91F
:103DC0000712406AC4E90512E06165486A4B1C337A
:103DD0000ECB24300EC03038456100206049886029
:103DE000E062607104206070B4E000F097FCB0B94C
:103DF00061480078062812D1294659482430FFF737
:103E000061FD60B10020A070012020710020607170
:103E1000534981F83500072060709BE093E05048DB
:103E20004069281A46F2A811884205D300F0FEFB2B
:103E300008206070022060718CE0D4ED080AB0EEBA
:103E4000600A04F10800FFF7DFFB064666B14A4846
:103E500090F85400A07108206070012E01D101205B
:103E600000E00620607175E0434AD2E90710526A0B
:103E7000C4E9060261613A483F4B1C330ECB243043
:103E80000EC0303845610020354988602071E062FD
:103E90006071062060705DE000F040FC90B936482B
:103EA000007806280ED129462D482430FFF70AFD58
:103EB00040B10020A0700120207100206071072017
:103EC000607047E026484069281A46F2A8118842E7
:103ED00005D300F0ABFB082060700220607139E070
:103EE0000020A07001202071002060711C484069F2
:103EF000281A40F6B83188421ED3E078401CE070A2
:103F0000E078042804D30020E070206B401C20637C
:103F1000E07800EB4000134902E00EE015E013E00A
:103F200001EB800207CAC4E90312A06000202071DF
:103F30000320A071022060700CE000F0EFFB08B1DC
:103F400000F074FB06E000BF00BF0020044981F8C8
:103F5000340000BF00BF00BF70E600007C040020FA
:103F6000800700200CF400080000C07F00002F44F0
:103F70009403002000F40008B807002070B505463F
:103F80004448407802281AD003DC38B1012879D19E
:103F900009E0032829D00C2874D15DE029460120CE
:103FA00000F04EFA73E03C484068281AB0F5967F5E
:103FB00000D26CE02946022000F042FA67E00024BB
:103FC0000CE004EB8401354A52F8310001F0B6FDF3
:103FD00010B1012132480155601CC4B2032CF0D34A
:103FE0002946032000F02CFA51E02B484068281A9B
:103FF000642812D32848456000240CE004EB8401B7
:10400000264A52F8310001F099FD10B101212448EF
:104010000155601CC4B2032CF0D32846FCF77EFC8B
:10402000C8B100F02BFA00B931E0002408E004EB3D
:1040300084011A4A52F8310001F09FFD601CC4B29D
:10404000032CF4D3022013490870FF2088712946FD
:104050000C2000F0F5F91AE00F484068281A64288F
:104060000ED30D484560002408E004EB84010B4AA0
:1040700052F8310001F081FD601CC4B2032CF4D36E
:1040800005E0FFE72946002000F0DAF900BF00BF95
:1040900070BD000078030020800700200807002082
:1040A0004F0400202DE9F04707464B48D0F8C85090
:1040B000D0F8C4804948D0F8689002264648D0F825
:1040C000C800484500D04D464348D0F8C800404598
:1040D00000D045464048D0F8C800A84201D1BDE80C
:1040E000F0873D48C0F8C4503C4885663A4880781F
:1040F00008B903262DE03846FCF710FC08B9042661
:1041000027E09FED370A00F071FA08B1052620E09C
:10411000FCF762FC08B106261BE0002416E004EB65
:104120008400304901EBC000D0ED090AB0EE600A0E
:104130002046FEF74BFA8246BAF1000F02D0BAF1E0
:10414000030F01D1072603E0601CC4B2032CE6D3A1
:1041500000BF214880F8CC60C0F8C8501F48C56631
:1041600080F87060022E00D0B9E7FEF7C9FA00208F
:104170001D4981F83600002418E004EB8401194A37
:1041800052F8310001F063FB38B90820124981F878
:10419000CC00124981F87000A1E704EB8401114AB8
:1041A00052F8310001F0C9FD601CC4B2032CE4D305
:1041B00000200949887001200B4981F83200002055
:1041C00081F831003946012000F03AF90020024917
:1041D000087000BF83E70000780300204804002037
:1041E00000008C4208070020800700207047000074
:1041F00070B58CB005460C46202104A8FCF734FAB3
:1042000003208DF81000BDB195ED000A10EE101AD4
:10421000084608F0B0FE78B195ED010A10EE101ACC
:10422000084608F0A8FE38B195ED020A10EE101A03
:10423000084608F0A0FE60B99DF81000FDF76EFB7F
:1042400024B1202204A92046FCF7B2F903200CB0C7
:1042500070BDFDF76DFA58B99DF81000FDF75EFBD3
:1042600024B1202204A92046FCF7A2F90220EEE79F
:10427000394890ED070A8DED010A90ED080A8DEDA1
:10428000020A90ED090A8DED030A04AA01A9284645
:10429000FEF790FC80B99DED0B0AF6EE000AB4EE35
:1042A000E00AF1EE10FA07DC05A8FEF737FF18B1B7
:1042B00005A8FCF7DDFB58B99DF81000FDF72EFBB3
:1042C00024B1202204A92046FCF772F90420BEE79D
:1042D00005A800F063FE58B99DF81000FDF71EFB1D
:1042E00024B1202204A92046FCF762F90220AEE79F
:1042F0001A4805A90EC910300EC0184905A80DC8E6
:104300001C310DC1154895E80E0048300EC0002044
:10431000124981F85400012081F8550081F85600B7
:10432000B7EE000A084680ED180A00204866886645
:104330000120A1F86C000020487002F005FF06463D
:1043400031460620FDF774FD24B1202204A9204641
:10435000FCF72EF900207AE778030020B807002048
:104360002DE9F0412DED068B05468846B0EE408ADA
:10437000F0EE608A1746032D0ED218EE100A08F0F0
:10438000E8FD48B118EE900A08F0E3FD20B1F5EE23
:10439000C08AF1EE10FA04D80020BDEC068BBDE80F
:1043A000F08105EB8500234901EBC006B0EE480A19
:1043B0002846FEF70BF9044624B1032C02D01FB99E
:1043C000012C01D00020E8E74146B0EE480A28461B
:1043D000FEF732FEB0EE409A9FED170A28EE800AF3
:1043E000D6ED030A80EE201AB0EE41AAB0EE4A0ADA
:1043F000FCF786FAF0EE409A19EE100A08F0A9FDD3
:1044000060B119EE900A08F0A4FD38B1F0EE690A27
:10441000B0EE490A306801F0D0FC08B90020BCE7D2
:1044200086ED088A054800EB850080ED008A0120B2
:10443000B3E700000807002035FA8E3CA4030020F3
:1044400010B50B4B5A7858700A4B59600023094C31
:10445000A360E3609FED080A234683ED060A0C285B
:1044600004D10C2A02D0002384F8333010BD0000A0
:104470007803002080070020000000003EB51C48A3
:1044800090F8360000BB00241AE004EB84001949C0
:1044900051F830501DB1284601F0A6FB08B90020A4
:1044A0003EBD04EB8400134901EBC00090ED090A06
:1044B00004EB840001EBC00080ED080A601CC4B26C
:1044C000032CE2D30120EBE70A4890ED090A8DEDB9
:1044D000000A90ED130A8DED010A90ED1D0A8DED95
:1044E000020A0121B1EE040A6846FEF7B5F8D7E7E3
:1044F000800700200807002010B502F025FE0446C2
:10450000204600F0D1FB3448807818B12046FFF7F0
:10451000C9FD5AE02046FFF731FD2F4840780C28AE
:1045200005D0204600F0C0FB00F064FD10BD204621
:10453000FCF768FA40B10220FEF754FF204600F075
:10454000B3FB00F057FDF1E79FED240A00F04EF8B1
:1045500040B10A20FEF746FF204600F0A5FB00F020
:1045600049FDE3E7FCF76AFA40B10320FEF73AFFA2
:10457000204600F099FB00F03DFDD7E79FED180ABB
:1045800000F034F850B100F051F8022115484174A0
:10459000204600F089FB00F02DFDC7E7204600F023
:1045A00005FB1048407B042802D02046FFF702FAA2
:1045B0000C48407B042808D101200B4981F83600C3
:1045C000054908702046FFF723FB204600F06CFBEE
:1045D00000F010FD00BFA9E7780300200000A04212
:1045E00000008C424804002080070020002117E0D2
:1045F00001EB81000C4B53F830207AB1D2ED040A64
:10460000F4EEC00AF1EE10FA06DAD2ED050AF4EE85
:10461000C00AF1EE10FA01DB01207047481CC1B25C
:104620000329E5D30020F8E7080700203EB5FDF791
:104630007FF800B93EBD244890ED070A8DED000AD1
:1046400090ED080A8DED010A90ED090A8DED020A40
:10465000684600F0A3FC1D489DE80E0010300EC017
:104660001C389DE80E001C300EC0184916488030DA
:10467000D0E90A23006BC1E912230865B7EE000AEE
:10468000084680ED180A012081F856000020487085
:104690000F494875887501F180000021016241626F
:1046A000816201200A49088201F180009DE80E0024
:1046B0004C300EC002F048FD044621460620FDF7AE
:1046C000B7FB00BFB6E7000078030020B807002062
:1046D0002C08002010B541F6CC010E48FBF7C4FFB2
:1046E00074210D48FBF7C0FF00200B49087048708B
:1046F00002F02AFD074988600020FEF7E9FD054920
:1047000088740846807C20B908200349087001207D
:10471000487010BD2C080020B80700200B48407DD1
:1047200078B90B48007802280BD009480078032894
:1047300007D007480078042803D0054800780528EA
:1047400001D1012070470020FCE700002C08002068
:10475000B80700202DE9F04F2DED068B97B00446E9
:104760000D46B0EE408A9FEDFE0AF0EE409A02F050
:10477000EBFC824620210FA8FBF776FF03208DF883
:104780003C005CB355B395ED000A10EE101A0846D4
:1047900008F0F1FB10B395ED010A10EE101A08466F
:1047A00008F0E9FBD0B195ED020A10EE101A0846A8
:1047B00008F0E1FB90B118EE100A08F0DCFB68B1DC
:1047C000B7EE000AB4EEC08AF1EE10FA06D39FED00
:1047D000E50AB4EEC08AF1EE10FA09DD9DF83C005E
:1047E000FDF79CF8032017B0BDEC068BBDE8F08FF9
:1047F000FFF794FF08B10120F5E7FCF799FF28B90E
:104800009DF83C00FDF78AF80220ECE7D64890EDD1
:10481000070A8DED060A90ED080A8DED070A90ED66
:10482000090A8DED080A06A8FEF778FC58B106A81B
:10483000FCF71EF938B12046FEF770FC18B120468F
:10484000FCF716F920B90620FDF768F80420CAE73E
:104850004FF0000833E0B8F1000F13D104EB8800EB
:10486000D0ED000A06A800EB880090ED001A70EE6B
:10487000C10AB0EE600AFDF785FEF0EE40AA09F02D
:104880006AFA0EE004EB8800D0ED000A06A800EBFF
:10489000880090ED001A70EEC10AB0EE600A09F0CF
:1048A0005AFAB0EE409AF0EE490AB0EE690A08F002
:1048B00047FEF0EE409A08F1010000F0FF08B8F161
:1048C000030FC8D3B7EE000AC9EE800AB0EE609AB3
:1048D000B0EE490A08F056FDBCEEC00A10EE100A10
:1048E00086B206B90126D4ED021AB0EE611AD4EDF3
:1048F000011AF0EE610AD4ED001AB0EE610A0CA8BC
:10490000FDF74EFF29460CA8FCF76AFFF0EE408A3F
:1049100018EE900A08F02FFB30B19FED940AF4EEE8
:10492000C08AF1EE10FA04D80320FCF7F7FF032049
:1049300059E7B7EE000AC8EE800AB0EE609AB0EE12
:10494000490A08F01FFDBCEEC00A10EE100A87B23B
:1049500007B90127701C38441FFA80F9B9F5C07FE8
:1049600004D90320FCF7DAFF04203CE78048A0F8D4
:104970001090803006A90EC94C300EC04FF00108CF
:1049800050E000EE108AF8EE400A00EE106AB8EE31
:10499000400A80EE801AB0EE419A08EB4801744854
:1049A000CC3000EB810BD4ED000A9DED061A70EEC1
:1049B000C10AB0EE600AFDF7E5FDDDED060A49EE3D
:1049C000000AF0EE60AAB0EE6A0AFDF7DBFD8BED9F
:1049D000000A94ED010ADDED070A70EE600A9DED14
:1049E000070A09EE200A8BED010A94ED020ADDEDBB
:1049F000080A70EE600A9DED080A09EE200A8BEDA8
:104A0000020A5846FEF78AFB18B15846FCF730F800
:104A100020B90620FCF782FF0420E4E608F101003B
:104A20001FFA80F8B045ACDD94E8070003AB07C37C
:104A30004FF0010866E000EE108AF8EE400A00EE42
:104A4000107AB8EE400A80EE801AB0EE419A06EB7A
:104A500008001FFA80FB95ED000ADDED0C0A70EEF0
:104A6000600A9DED0C0A09EE200A8DED090A95ED0C
:104A7000010ADDED0D0A70EE600A9DED0D0A09EEEA
:104A8000200A8DED0A0A95ED020ADDED0E0A70EEA0
:104A9000600A9DED0E0A09EE200A8DED0B0A0FAAA1
:104AA00003A909A8FEF786F8A8B99DED160AF6EE47
:104AB000000AB4EEE00AF1EE10FA0CDC10A8FEF7E2
:104AC0002DFB40B110A8FBF7D3FF20B110A903A81C
:104AD000FCF7B8FD28B99DF83C00FCF71FFF042047
:104AE00081E60BEB4B012248CC3000EB810010A992
:104AF0000EC90EC010A807C803AB07C308F1010018
:104B00001FFA80F8B84596DD49463046FCF72AF88A
:104B100020B90620FCF702FF042064E6A9F1010099
:104B200000EE100AB8EE400A60EE280A00EE107A95
:104B3000B8EE400A80EE80AA48469FED0E1AF0EECD
:104B4000480AB0EE4A0AFCF773FA029003A8FBF792
:104B5000E5FF88B90320FCF7E1FE022043E60000F0
:104B60000000000000002F44780300200AD7233CF7
:104B70002C080020000061450A490B48D0E90A23AF
:104B8000006BC1E906230862042301225FED070AD6
:104B9000B0EE480ACDF800A028460299FDF716FAB3
:104BA000002020E62C080020F803002070B5044601
:104BB0003A488068251A39488460807C30B9FDF70E
:104BC00065FC29462046FDF76DFA70BDFCF7B0FD87
:104BD00018BB33480078022803D0314800780428F5
:104BE00005D12E48406828442C49486008E02C48EC
:104BF0000078062804D1294800682844274908601D
:104C0000052027494870002081F85600FDF73EFC3A
:104C100029462046FDF746FAD7E72148407805287F
:104C200002D100201E4948701C48407D50B12946E1
:104C30002046FCF73FFFFDF729FC29462046FDF7FB
:104C400031FAC2E7164800780F2819D2DFE800F0E1
:104C500008090E180F13141617181818181815002D
:104C600000BF21460620FDF7E3F80EE000BF204616
:104C7000FCF77EFE09E000BF07E000BF00BF04E0D4
:104C800021460620FDF7D4F800BF00BFFDF7FEFB6C
:104C900029462046FDF706FA00BF96E72C080020BB
:104CA000B8070020704700002DE9F0472DED028B7A
:104CB0008146B34890F83600B249C87000260DE12D
:104CC00006EB8600B04901EBC0073C68C6EBC600A6
:104CD00000EB4001AB48743000EB81059FEDAB0A5F
:104CE000B0EE408A4FF00008002C7CD0D4ED010AD1
:104CF000B0EE600A3046FEF7A1FB87ED090AD4ED5D
:104D0000020AB0EE600A3046FEF720FCB0EE408AA0
:104D1000D7ED090AB0EE600A3046FDF757FC804631
:104D20004946204600F0EAFF9949885594F8451015
:104D30009748C01C815594F84410C01C8155B8F1A7
:104D4000010F01D1012100E0002191480930815576
:104D5000B8F1010F02D0B8F1020F01D1012100E03A
:104D600000218B480C3081556178C01C815594ED31
:104D7000010A263000EB860080ED000A94ED020A5D
:104D80008348413000EB860080ED000A80484D30BA
:104D900000EB860080ED008A94ED030A7C486530C4
:104DA00000EB860080ED000A94ED030A7848593044
:104DB00000EB860080ED000A94ED0F0A7448713014
:104DC00000EB860080ED000A94ED100A70487D30FB
:104DD00000EB860080ED000A94ED040A6C488930EF
:104DE00000EB860000E067E080ED000A94ED050A24
:104DF0006748953000EB860080ED000A208E203554
:104E000025F8200C608E25F81E0CA08E25F81C0CB1
:104E100094ED010A05ED060A97ED090A05ED050A6C
:104E200097ED080A05ED040A94ED0F0A05ED030A53
:104E300094ED100A05ED020A94ED100ADFED550A13
:104E400020EE200A05ED010A94ED020A85ED000A24
:104E500085ED018A94ED030A85ED020A94ED040ABA
:104E600085ED030A94ED050A85ED040A607828753E
:104E7000207E68754648805DA87594F84400E87502
:104E800094F84500287694F846006876204600F0AD
:104E900044FFA87685F81B803D480C30805D28775C
:104EA000E0692862E06C6862206DA862A06DE8622B
:104EB000B4F860002886203D97ED090A3448153083
:104EC00000EB860080ED000A97ED080A3048253097
:104ED00000EB860080ED000A701CC6B2032EFFF4C2
:104EE000EFAEFBF75FFD2A49C91F48710846D0EDB8
:104EF000091AB0EE611AD0ED081AF0EE610AD0ED91
:104F0000071AB0EE610AA830FDF74AFC2048C01F1E
:104F100090ED080AD0ED090A9FED1F1A71EE600AA4
:104F200030EE200A80ED2D0A90ED2D0A80ED2E0A3C
:104F300013484068A9EB00001549C91FC1F8C0001B
:104F4000084600780F4908701148C01F4078487023
:104F50000F48C01F807888700D48C01FD0F8C4006B
:104F600088660B48C01FD0F8C800C8660848C01F34
:104F700090F8CC0081F87000BDEC028BBDE8F087A2
:104F800080070020480400200807002000000000DF
:104F90007F030020E02E6542000034C370B5044654
:104FA00012480078012800D100E0002005461DB914
:104FB0000E480078022801D1012000E000200546BB
:104FC0005CB155B1094840780C2806D10748807873
:104FD00018B92046FEF7A2F808B9002070BD0021DC
:104FE0009FED030A2046FDF737FBF7E77803002023
:104FF0000000D24370B56F48C06B451C40216D481E
:10500000FBF732FB02F0A0F80646FBF787FC694984
:10501000087000204870684800798870002425E0F6
:105020006548C01D015D6348C01C015562480A30D7
:10503000015D6048801D01555F481C3000EB840015
:1050400090ED000A5B480C3000EB840080ED000A14
:1050500059483C3000EB840090ED000A55481C3064
:1050600000EB840080ED000A601CC4B2032CD7D38F
:10507000504951488030D0E90A23006BC1E90A2326
:1050800008634D4890ED2D0A084680ED0D0AC56372
:1050900080214A48FBF7E8FA4748007947490870F9
:1050A00008464549B1F80720A0F80120497AC170A7
:1050B00041494A898280097B81713F4B1C330ECB69
:1050C00008300EC014383C4B2C330ECB14300EC0BD
:1050D0003A4939488030D0E90A23006BC1E90823F6
:1050E00088623548D0ED2A0A60EEA00A90ED2B1AAE
:1050F000D0ED2B1A41EE210AB0EE600A08F030FB29
:105100002E4880ED0B0A90ED0B0A80ED0C0A2A4820
:1051100090ED2C0ADFED2A0A30EE600A274880ED78
:105120000D0A254890ED2D0A244880ED0E0A9FEDCA
:10513000240A80ED0F0A9FED230A80ED100A9FEDEF
:10514000220A80ED110A9FED210A80ED120A9FEDDF
:105150001F0A80ED130A9FED1E0A80ED140A9FEDD1
:105160001D0A80ED150A9FED1C0A80ED160A9FEDC1
:105170001B0A80ED170A9FED1A0A80ED180A9FEDB1
:10518000190A80ED190A9FED110A80ED1A0A9FEDA8
:10519000110A80ED1B0A9FED0E0A80ED1C0A743087
:1051A0009FED0B1ADFED0B0A9FED080AFDF7F8FAE9
:1051B00070BD0000C806002078030020B80500205C
:1051C00000007842000082430000664300000000B7
:1051D0000000B4C20000B44200000C42000034439E
:1051E00000003EC3000020C204480021016041606D
:1051F00040F2DC50014948800120704710C2012074
:1052000000BFFEE710B5024801F0F6F910BD00003E
:1052100028C5012010B5024801F0EEF910BD0000CC
:1052200028C5012010B5024801F0E6F910BD0000C4
:1052300050C5012010B5024801F0DEF910BD000094
:1052400050C5012010B58AB0044601200690002008
:105250000790207F00F0010080F0010004900E20F4
:105260000990606B4001019020680D49884207D188
:105270000C4800780B490978491C0A4A117006E06D
:105280000948007808490978491C074A11700590B7
:10529000012008902068694601F024F80AB010BD8A
:1052A00028C5012001C0012002C001207CB50546AF
:1052B0000E463AE06B46214A3146284601F0B7F8DF
:1052C00000242EE01E4850F824000068A84227D190
:1052D0001A4800681A4951F82410496B88421FD1B6
:1052E000174850F82400D0F83900C0B11348007CAA
:1052F000134951F8241081F8380010490A691049FF
:1053000051F8241001F12C006946FBF70CF90C4A06
:1053100052F8240052F82420D2F8391088477CBD76
:10532000641C084800788442CCD33146284601F0FA
:105330006AF80028BED100BFF1E70000AC020020EF
:105340006C02002000C0012070B505462548007899
:1053500008B900F04BF823480078102801DB002042
:1053600070BD002111E0204850F8210000682A6833
:10537000904208D11C4850F82100406BAA68904226
:1053800001D10020ECE7481CC1B2164800788142E8
:10539000E9DB4120FAF7FAFF044641212046FBF7FA
:1053A00041F9686860600021E16021610821616164
:1053B000286820606868E061A8686063E868C4F8ED
:1053C00039002869C4F83D002046FFF73BFF054837
:1053D00001780078401C034A1070034840F82140CF
:1053E0002046BDE700C001206C02002010B50B482C
:1053F00001F0B5FB0221094800F0BAFE1021074870
:1054000000F0B6FE064801F0AAFB0221044800F0B5
:10541000AFFE1021024800F0ABFE10BD28C50120F0
:1054200050C50120082900DC01B97047416100BF67
:10543000FBE7000010B52DED028B0446B0EE408A6C
:1054400000F08EFDF0EE408A11E000F089FD30EEB4
:10545000680AB4EEC80AF1EE10FA08DD12480068D6
:10546000401C114908600020BDEC028B10BD206873
:1054700001F0A7F80028E8D000F072FD30EE680ACD
:105480000A4880ED000A206804F120031A1D211D3E
:1054900000F083FE30B104480068401C02490860F7
:1054A0000020E1E70120DFE704C0012008C001205F
:1054B0000346042B15D007DC7BB1012B0ED0022B49
:1054C0000DD0032B12D10BE0202B0BD0212B0AD0B7
:1054D000222B09D0232B09D107E008E007E006E0E2
:1054E00005E004E003E002E001E000E000BF00BFEF
:1054F000002070470020704710B50022044905487D
:1055000005F03BFB0449034805F028FB002010BDD3
:10551000E47C002008700020E474002070B504468C
:105520000D462046296807F0D9FB2146034805F0BF
:1055300015FB024805F0DEFA002070BD087000205F
:1055400010B503460C460021084610BD00BF08F008
:10555000E5F9012008F02BFCF9E700002DE9F05FE8
:105560002DED028B4FF0000ABDE06D4850F82A6027
:1055700006F11C0506F12804374694ED5E0AB0EEEC
:10558000408A2879012803D1B1EE480AB0EE408A5A
:10559000A87800F04000D8B12888402818D1A87910
:1055A000012807D1206828B1206890ED000AF0EEAC
:1055B000408A03E097ED040AF0EE408AF0EE480AD4
:1055C000B0EE680A04F5807004F032FCB0EE408A58
:1055D000A87800F0080048B3287800F0480028B305
:1055E000287A00F00A0040B1A06830B1A06890EDC0
:1055F000000A30EE080AB0EE408AE879012807D1A7
:10560000606828B1606890ED000AF0EE408A03E01F
:1056100097ED020AF0EE408AF0EE480AB0EE680A12
:1056200004F1880004F004FCB0EE408A287A00F00F
:10563000010040B1E06830B1E06890ED000A30EE62
:10564000080AB0EE408AA87800F0010078B1B7F9F6
:105650000C0000EE900AF8EEE00AB0EE600AF0EE00
:10566000480A04F1100004F0E3FBB0EE408A6879C8
:10567000012805D1BFEE000A28EE000AB0EE408AEC
:10568000BDEEC80A10EE100A0FFA80FB96F8AC8146
:1056900096F8AD91CBF3072108EB8810214A10440E
:1056A000243000F8191008EB881011460844243003
:1056B0004FEA4901491C00F801B096F8AF0180B9E2
:1056C000002108EB88101044243000F81910002243
:1056D00008EB88101349084424304FEA4901491C5B
:1056E00042540AF1010A104800788245FFF43DAFA8
:1056F0004FF0000A0DE00D4810F80A0038B10AEB2F
:105700008A11084A8818B7EE000AFFF793FE0AF1DB
:10571000010ABAF1060FEED3BDEC028BBDE8F09F93
:10572000C802002061C0012060C00120E7C1012043
:1057300010B5024801F05EFA10BD0000C40100205F
:1057400010B5024801F056FA10BD0000D0C5012086
:1057500010B5024801F04EFA10BD000064010020AF
:1057600010B5024801F046FA10BD000030C6012015
:105770000146087810381823B0FBF3F20848805C23
:10578000C865032A05D908686FF30900001D8865FC
:1057900003E008686FF309008865886D70470000B2
:1057A000D0F30008014600208A6A8B69CBB932B178
:1057B000012A0DD0022A03D0032A10D10EE000BF27
:1057C000CB6A03F08073B3F1807F00D1012007E042
:1057D000CB6AB3F1C07F00D1012001E000E000BF3F
:1057E00034E08B69B3F5005F1AD132B1012A07D0DA
:1057F000022A03D0032A11D10AE000BF01200EE0E3
:10580000CB6A03F08073B3F1807F00D1012006E002
:10581000CB6AB3F1C07F00D1012000E000BF15E0EA
:1058200032B1012A05D0022A04D0032A0CD103E0A8
:1058300000BF00BF012008E0CB6A03F08073B3F122
:10584000807F00D1012000E000BF00BF704710B58D
:1058500004460CB9002010BDFB21204600F07FFA61
:10586000F9E7000030B502460C460AB1106820B9CD
:10587000012028490870002030BD274800780528FD
:1058800004D30220234908700020F5E7908840B136
:1058900090880F2805D8D08818B1D088B0F5006F4F
:1058A00004D303201B4908700020E5E7107A06287E
:1058B00007D0107A072804D001201649087000206C
:1058C000DAE7507A022804D0042012490870002038
:1058D000D2E7002318E0114850F8231091B1886AEC
:1058E00080B1886A00681568A8420BD1888EA042F2
:1058F00003D0488ED588A84204D10520054D2870D4
:105900000020B9E7581CC3B2034800788342E2DBA9
:105910000120B1E7F9C10120F0C1012020C7012019
:105920002DE9FC4105462F480068281A022801D2BB
:10593000BDE8FC812B48056000263EE02A4800783F
:1059400030442A49097890FBF1F201FB1200C7B2FA
:10595000274850F827400CB1A06A00B92BE0207E00
:1059600058B12946204600F0C9F930B90120453424
:105970002071E070002004F8450994F8450038B122
:1059800094F8440020B1207E10B194F8480000B192
:1059900011E094ED0F0A8DED010A94ED100A8DEDE2
:1059A000000AA06A01994162A06A009981622046BA
:1059B00000F04AFA00BF701CC6B20C48007886425C
:1059C000BCDB0A48007850B107480078401C074902
:1059D0000978B0FBF1F201FB12000349087000BF27
:1059E000A6E70000F4C10120F8C10120F0C10120A8
:1059F00020C701202DE9F05F054615B1D5F83D001F
:105A000008B9BDE8F09FD5F83D4095F83800082862
:105A100003D0206A401C2062F3E795F82C0000F0C8
:105A20000F0694F83000B04203D0206A401C206278
:105A3000E7E72E20415D2D20405D41EA00292F201F
:105A4000405D01013020405D41EA201A3120415D76
:105A50003020405D00F00F0041EA002B95F82C004B
:105A60000709E06900F10108267067701021F2EE65
:105A7000090ABAEE090A484600F00EFA84ED010A56
:105A80000C21F3EE0E0ABBEE0E0A504600F004FAAB
:105A900084ED020A0C21F2EE040ABAEE040A58461A
:105AA00000F0FAF984ED030A3220405D00EE100A9E
:105AB000B8EE400A84ED040A3320405D00EE100A7F
:105AC000B8EE400A84ED050A01F03EFB6062C4F8BE
:105AD0001C8001202076002084F8490094F84600BC
