:020000040800F2
:100000003888012031030008F19400088D8D000824
:10001000A1930008B54D0008A1C800080000000029
:100020000000000000000000000000007102000855
:100030000558000800000000CD020008999900084A
:100040004B0300084B0300084B0300084B03000858
:100050004B0300084B0300084B0300084B03000848
:100060004B0300084B0300084B0300084B03000838
:10007000115400084B0300084B0300084B03000811
:100080004B0300084B0300084B0300084B03000818
:10009000B94D0008C94D00084B0300084B03000888
:1000A0004B0300084B0300084B0300084B030008F8
:1000B0004B0300084B0300084B0300084B030008E8
:1000C0004B0300084B0300084B0300085999000834
:1000D0004B0300084B0300084B0300084B030008C8
:1000E0004B0300084B0300084B0300084B030008B8
:1000F0004B030008959A00084B0300084B030008C7
:100100004B0300084B0300084B0300084B03000897
:100110004B0300084B0300084B0300084B03000887
:10012000215400084B0300083154000841540008D2
:100130004B0300084B0300084B0300084B03000867
:10014000D94D0008E94D00084B030008F59400085C
:100150004B0300084B0300084B0300084B03000847
:100160004B0300084B0300084B0300084B03000837
:100170004B0300084B0300084B030008000000007D
:100180004B0300084B03000800F002F800F060F891
:100190000AA090E8000C82448344AAF10107DA45E2
:1001A00001D100F055F8AFF2090EBAE80F0013F0D4
:1001B000010F18BFFB1A43F0010318477CEF000042
:1001C000BCEF00000A444FF0000C10F8013B13F0A4
:1001D000070408BF10F8014B1D1108BF10F8015BA0
:1001E000641E05D010F8016B641E01F8016BF9D193
:1001F00013F0080F1EBF10F8014BAD1C0C1B09D1EA
:100200006D1E58BF01F801CBFAD505E014F8016B5B
:1002100001F8016B6D1EF9D59142D6D370470000ED
:100220000023002400250026103A28BF78C1FBD8FF
:10023000520728BF30C148BF0B6070471FB50EF092
:100240003CFD9DE8030000F019FA1FBD10B510BD7C
:1002500000F0A6FA1146FFF7F1FF0DF03AFA00F0B0
:10026000C4FA03B4FFF7F2FF03BC00F0F5FA000094
:100270002C4B19680868B0E8F04F80F30988BFF389
:100280006F8F4FF0000080F311887047000000006E
:1002900008480068006880F308884FF0000080F389
:1002A000148862B661B6BFF34F8FBFF36F8F00DF64
:1002B00000BF00BF08ED00E0DFF80C00016841F46A
:1002C00070010160704700BF88ED00E0EFF3098026
:1002D000BFF36F8F134B1A681EF0100F08BF20ED8D
:1002E000108A20E9F04F106009B44FF0500080F3FD
:1002F0001188BFF34F8FBFF36F8F0DF0FFFE4FF0EC
:10030000000080F3118809BC19680868B0E8F04F54
:100310001EF0100F08BFB0EC108A80F30988BFF3FD
:100320006F8F7047C0C10120EFF305807047000058
:100330000948804709480047FEE7FEE7FEE7FEE779
:10034000FEE7FEE7FEE7FEE7FEE7FEE704480549B5
:10035000054A064B70470000819A00088901000891
:10036000388800203888012038080120380801200A
:1003700070B5064600F066F9056806F10B0020F03E
:100380000704B4429CBF002070BD2B466A68BAB116
:100390001068A04210D304F1080188423CBF5068A5
:1003A000586007D35168101941601168091B01603A
:1003B00058601460101D70BD13465268002AE7D1C2
:1003C0002146284600F046F90028DED170BD53EAE8
:1003D000020C00F069802DE9F04B4FF00006002B75
:1003E0001FBFB3FA83F503FA05F424FA05F65E405D
:1003F00012BF1643B2FA82F502FA05F4C5F12005E0
:100400001EBF22FA05FC44EA0C04203556EA044CCF
:100410004FEA144418BF641C4FF000084FF0000965
:10042000904271EB030C39D3002919BFB1FA81F75F
:1004300001FA07F6B0FA80F700FA07F6C7F12007CD
:100440001EBF20FA07FC46EA0C062037B6FBF4FC78
:10045000A7EB0507103F07F01F0BCBF120060CFAA6
:100460000BFB2CFA06F644BFB3460026202FA4BF90
:100470005E464FF0000B5BEA060C08BF4FF0010B25
:1004800019EB0B09ABFB027C48EB0608C01B06FB13
:1004900002CC0BFB03CC71EB0C01C1E70B4602460F
:1004A00041464846BDE8F08B13B54FF000004FF0D1
:1004B0000001AFF30080BDE81C407047032A40F202
:1004C000308010F0030C00F0158011F8013BBCF1F6
:1004D000020F624498BF11F801CB00F8013B38BF0E
:1004E00011F8013BA2F1040298BF00F801CB38BF1C
:1004F00000F8013B11F0030300F02580083AC0F03A
:10050000088051F8043B083A51F804CBA0E80810E1
:10051000F5E7121D5CBF51F8043B40F8043BAFF314
:100520000080D20724BF11F8013B11F801CB48BF6E
:1005300011F8012B24BF00F8013B00F801CB48BFA4
:1005400000F8012B704710B5203AC0F00B80B1E8DD
:100550001850203AA0E81850B1E81850A0E81850F8
:10056000BFF4F5AF5FEA027C24BFB1E81850A0E801
:10057000185044BF18C918C0BDE810405FEA827C1B
:1005800024BF51F8043B40F8043B08BF7047D20732
:1005900028BF31F8023B48BF11F8012B28BF20F8D3
:1005A000023B48BF00F8012B70474FF000020429BE
:1005B000C0F0128010F0030C00F01B80CCF1040C92
:1005C000BCF1020F18BF00F8012BA8BF20F8022BC6
:1005D000A1EB0C0100F00DB85FEAC17C24BF00F86C
:1005E000012B00F8012B48BF00F8012B70474FF09A
:1005F000000200B5134694469646203922BFA0E873
:100600000C50A0E80C50B1F12001BFF4F7AF09077E
:1006100028BFA0E80C5048BF0CC05DF804EB89006F
:1006200028BF40F8042B08BF704748BF20F8022BB2
:1006300011F0804F18BF00F8012B704770477047CA
:100640007047000000487047E4C7012070477047BA
:100650007047704738B504460A4600206946AFF334
:100660000080002808BF38BD02460099204600F0EF
:1006700075F8012038BD012000F08AB8F8B5AFF355
:100680000080054600200C46102000BF0646A81931
:10069000A0420DD9324669460020AFF30080070022
:1006A00008BF00F075F80098A04218BF0546C419AD
:1006B000FFF7C8FF05600746F01D20F00700461948
:1006C000284600F00AF8B44208BFF8BDA21B314624
:1006D0003868BDE8F84000F041B800210160C0E989
:1006E000011070471020704770B50446051FFFF7D2
:1006F000A9FF0068002C14BF446870BD002C18BF0F
:10070000AC423CBF20466468F8D301680A18AA428C
:1007100018BF456003D12A68054611440160286866
:100720004119A1421CBF6C6070BD6168696021689D
:100730000844286070BD10B500F00CF8006810BDCA
:1007400010B5044600F006F8046010BD004870477C
:10075000DCC7012000487047DCC701200346406821
:100760008C46002818BF88423CBF03464068F8D337
:1007700018681844884207D00CF1030020F00700E5
:10078000001D411A521A0146081D0A60FFF7ACBF4E
:1007900010B500F039F8BDE8104000F02FB87047F0
:1007A0007546FFF7D3FFAE4605006946534620F075
:1007B0000700854618B020B5FFF7C8FDBDE820400A
:1007C0004FF000064FF000074FF000084FF0000B0D
:1007D00021F00701AC46ACE8C009ACE8C009ACE8C0
:1007E000C009ACE8C0098D46704710B50446AFF3A8
:1007F00000802046BDE81040FFF733BD002801D03F
:1008000000F02AB87047000010B5012805D000217B
:1008100003A000F027F8012010BD09A1F8E70000AF
:1008200053494752544D454D3A204F7574206F66D9
:100830002068656170206D656D6F72790000000041
:100840003A2048656170206D656D6F727920636F25
:10085000727275707465640001491820ABBEFEE7C2
:100860002600020070B505460C460A2000E06D1C0B
:1008700000F011F835B128780028F8D102E0641CA6
:1008800000F009F814B120780028F8D1BDE87040D4
:100890000A20AFF3008008B569468DF800000320F8
:1008A000ABBE08BD10B5044604484470082C04D102
:1008B0000E200249087002F061F910BD780B00208B
:1008C00010B588B001F036FC04462248407808B1E3
:1008D00008B010BD207802280BD194F87E0040B1FA
:1008E00094F83C0028B13D20005D10B13E20005D31
:1008F00018B9022017490872EAE720216846FFF775
:1009000076FE0120009000208DF8040001208DF873
:100910000500104A0C3207CA02AB07C39FED0E0A4E
:100920008DED050A00208DF81800684603F038F9AF
:100930000849087208464068401C48600846007A2A
:10094000022805D00846007A012801D0012048700D
:1009500000BFBDE7440800200000C8420D480079F0
:10096000052814D10C4890F8460080B1094890F849
:100970003C0060B1074890F83D0040B1054890F850
:100980003E0020B10548007808B9012070470020DA
:10099000FCE70000CC08002094090020FC000020A7
:1009A00010B504463448007800B110BD33480079D2
:1009B000042822D131484079F8B93148006802F062
:1009C000F7F820B12F48006802F0F2F818B90020BB
:1009D0002D490870E9E72C48007828B901202A49F8
:1009E00008702A480460E0E728480068201A0A28AE
:1009F00000D2DAE701F0A2FBD7E72048007901280E
:100A000002D11E48407900B1CFE72148006802F0CA
:100A1000CFF818B900201C490870C6E71A480078BA
:100A200028B901201849087018480460BDE7174824
:100A30000068201A0A281CD304F0A6F8144800689D
:100A400001F07AF90D4890ED2A0A11480068D0EDBE
:100A5000040A30EE600A0F4880ED000A01200E49BA
:100A6000087000200849087022460121022002F087
:100A7000DBFD00BF99E7000075000020CC080020D6
:100A80006C0000207000002076000020780000201C
:100A9000680000209C000020A000002010B5044643
:100AA000204601F047FE08B9002010BD94ED000A71
:100AB000DFED1B0AB4EEE00AF1EE10FA2EDB94ED46
:100AC000000ADFED180AB4EEE00AF1EE10FA25D8BC
:100AD00094ED010AF1EE040AB4EEE00AF1EE10FA28
:100AE0001CDB94ED010ADFED100AB4EEE00AF1EE32
:100AF00010FA13D894ED020ADFED0C0AB4EEE00A06
:100B0000F1EE10FA0ADB94ED020ADFED090AB4EE09
:100B1000E00AF1EE10FA01D80120C6E70020C4E790
:100B2000000048C20000484200002F4300002FC3CD
:100B30000000B4C210B500F0F5F80948006802F0F2
:100B400089FC0848D0ED2A0AB0EE600A0448006823
:100B500004F056FC0248006804F0BCFB10BD000025
:100B600068000020CC08002010B52DED028B044653
:100B7000434890ED2A0A10EE101A08460BF0ACFE1E
:100B800038B92146072002F063FD0020BDEC028B3E
:100B900010BD3C48006802F00BF828B92146062039
:100BA00002F056FD0020F1E737480068201A34496A
:100BB000C1F8AC000846D0F8AC004AF6C8718842CB
:100BC00005D32146092002F043FD0020DEE721463F
:100BD0009FED2E0A2B48006802F090FD28B12146B7
:100BE000082002F035FD0020D0E72948006802F017
:100BF000C7FF2848006802F0C3FF00F093F82148BF
:100C0000006802F027FC1E48D0ED2A0AB0EE600A08
:100C10001C48006804F0F4FB1A48006804F05AFB12
:100C200018480068D0ED010A9FED1B1A71EE600AAA
:100C3000B0EE600A04F06CF8B0EE408AB0EE480AFC
:100C40000CF03DFDF7EE000AB4EEE00AF1EE10FA0A
:100C500010D80C480068D0ED020AB0EE600A0CF023
:100C60002EFDF3EE040AB4EEE00AF1EE10FA01D81C
:100C700001208BE7032002490870002086E700006E
:100C8000CC080020680000208C00002000401C469A
:100C90006C00002070000020A75E3E4310B52DEDD3
:100CA000028B114890F8440010B11048006820B938
:100CB0009FED0F0ABDEC028B10BD0E4890ED000AAF
:100CC00002F0A4FCB0EE408A08480068D0ED010AAA
:100CD000094890ED001A70EEC10A60EE880AB0EE85
:100CE000600A04F015F8E5E7940900206800002088
:100CF00000000000800000207C00002010B5C6B07D
:100D000004464FF48C7206496846FFF71CFC4FF40A
:100D10008C7269462046FFF716FC46B010BD0000F5
:100D20006CED000810B52DED028B2548006810B958
:100D3000BDEC028B10BD234890ED2A0A20480068C4
:100D4000D0ED040A30EE608A1F48007828B31F48AF
:100D500090ED000ADFED1E0AB4EEE00AF1EE10FAA3
:100D600006DD9FED1C0AB4EEC08AF1EE10FA10D336
:100D7000164890ED000ADFED170AB4EEE00AF1EE36
:100D800010FA0AD29FED120AB4EEC08AF1EE10FA00
:100D900003DD0B48006800F0CFFFB0EE480A0CF00E
:100DA0008EFCDFED0B0AB4EEE00AF1EE10FA05DD81
:100DB000064880ED008A01200349087000BFB7E7AC
:100DC00068000020CC080020A00000209C0000202B
:100DD000CDCC4C3DCDCC4CBD3EB50446002C60D0B6
:100DE0004E4890F84600E8B34D48006801F0E0FE38
:100DF000C0B34C48006801F0DBFE98B34A48006875
:100E000001F0D6FE70B394ED000A10EE101A0846F9
:100E10000BF062FD30B394ED010A10EE101A084693
:100E20000BF05AFDF0B194ED020A10EE101A0846CC
:100E30000BF052FDB0B194ED000ADFED3C0AB4EEC8
:100E4000E00AF1EE10FA2CD394ED000ADFED380A37
:100E5000B4EEE00AF1EE10FA23DC94ED010AB5EEEF
:100E6000C00A00E01DE0F1EE10FA1AD394ED010A79
:100E7000DFED2F0AB4EEE00AF1EE10FA11DC94ED8A
:100E8000020ADFED2A0AB4EEE00AF1EE10FA08D306
:100E900094ED020ADFED270AB4EEE00AF1EE10FA53
:100EA00001DD00203EBD244890ED020A8DED000AD0
:100EB00090ED030A8DED010A90ED040A8DED020A12
:100EC0001748006800F038FF1648006800F034FF4B
:100ED0001548006800F030FF1148006802F0BAFAC7
:100EE0001048006802F0B6FA0F48006802F0B2FA43
:100EF000684603F041FA08B90020D3E794ED000AF0
:100F00000D4880ED210A94ED010A80ED220A94ED4E
:100F1000020A80ED230A0120C4E7000094090020A2
:100F2000680000206C00002070000020000034C326
:100F3000000034430000AAC2CC08002010B50E20E7
:100F400000F002F810BD000070B5044607251E48E9
:100F5000006802F015FE1D48006802F011FE1C48F2
:100F6000006802F00DFE02F049F81748006800F032
:100F7000E3FE1648006800F0DFFE1548006800F048
:100F8000DBFE0020134981F8450003F0CBF8002078
:100F9000114981F84C0008464471002008700F2C5C
:100FA00001D1062506E0102C01D1092502E00E2C06
:100FB00000D10A2505F0BCFC06460748C178324638
:100FC000284602F031FB70BD680000206C00002054
:100FD0007000002094090020CC080020014601295F
:100FE00003DB0C2901DC012070470020FCE7000036
:100FF0007CB50446854845792846FFF7EFFF50B990
:101000000D2D07D08248006802F0BAFD81480068C3
:1010100002F0B6FD7CBD7E48006801F0C9FD20B13C
:101020007C48006801F0C4FD18B90F20FFF78CFF61
:10103000F0E70D2D75D2DFE805F0E1071D37495DBA
:1010400069758CA6B9CEDA000220734B9FED732A26
:10105000DFED731A9FED731AF7EE000A9FED720A27
:101060000122CDE900046A4801686A48006802F07C
:101070009FF8C7E02346012265480168654800687B
:1010800002F0BAF978B161484078022806D12246C8
:1010900060480168032000F04BFF04E02246002175
:1010A000062000F045FFADE004235B4ADFED5B1A4C
:1010B0009FED5B1AF7EE000A9FED5B0A544800941F
:1010C00001685448006802F0E7F89BE0524B9FED3E
:1010D000532ADFED531A9FED531AF7EE000A9FEDE6
:1010E000520A01224A48009401684A48006801F007
:1010F000ABFF87E006239FED4A0A01224448009493
:1011000001684448006802F049F97BE04148006802
:1011100002F036FD22463E480168072000F008FF35
:1011200070E06BE008204AF6C8739FED3C2ADFEDC3
:101130003F1A9FED3F1AF7EE000A9FED3E0A00228C
:10114000CDE90004334801683148006802F030F806
:1011500058E0234600222F4801682D48006802F01D
:101160004BF978B129484078022806D12246284810
:101170000168092000F0DCFE04E0224600210C207A
:1011800000F0D6FE3EE00A234AF6C872DFED231ACD
:101190009FED261AF7EE000A9FED260A1D480094DF
:1011A00001681B48006802F077F82BE04AF6C87324
:1011B0009FED1A2ADFED1D1A9FED1D1AF7EE000AAA
:1011C0009FED1C0A00221348009401681048006833
:1011D00001F03AFF16E00C239FED140A00220D489F
:1011E000009401680A48006802F0D8F80AE008484C
:1011F000006802F0C5FC00F0BFFE03E00E20FFF720
:10120000A3FE00BF00BF00BF04E70000CC08002021
:101210006C00002070000020803801000000B44302
:10122000956B15420000AF440000484481D59941B8
:101230000000164400007A43F0EE401AF4EEE01A83
:10124000F1EE10FA02D2B0EE600A7047F4EEC11A65
:10125000F1EE10FA02DDB0EE410AF6E7B0EE610AF7
:10126000F3E7000030B52DED048B89B0F0EE408A35
:10127000B0EE609A0546B7EE0E0A28EE800AC0EE80
:10128000090AB0EE608A0020069007900890874A0D
:10129000D2E900109268CDE904020391012456E0DE
:1012A00004EB4401824800EB8100D0ED000A601E8F
:1012B00000EB40017E4800EB810090ED001A70EEDB
:1012C000C10AB0EE600A00F013FDF0EE409A0CF097
:1012D000FBF9DDED060A30EE200A8DED060A04EB7F
:1012E0004401734800EB8100D0ED010A601E00EB61
:1012F00040016F4800EB810090ED011A70EEC10AC9
:10130000B0EE600A0CF0E0F9DDED070A30EE200ADD
:101310008DED070A04EB4401654800EB8100D0ED38
:10132000020A601E00EB4001614800EB810090ED75
:10133000021A70EEC10AB0EE600A0CF0C5F9DDEDDC
:10134000080A30EE200A8DED080A601C84B2AC4217
:10135000A6DB00201AE006A901EB8001D1ED000A0E
:10136000B7EE0E1A60EE810A03A901EB800191ED40
:10137000001AC0EE811AB0EE610AB4EEC80AF1EEAE
:1013800010FA01DDB0EE408A411CC8B20328E2D356
:10139000012470E004EB4401454800EB8100D0EDEE
:1013A000000A601E00EB4001414800EB810090ED17
:1013B000001A70EEC10AB0EE600A00F099FCF0EE7F
:1013C000409A0CF081F98DED000A04EB4401384895
:1013D00000EB8100D0ED010A601E00EB40013448B3
:1013E00000EB810090ED011A70EEC10AB0EE600AC8
:1013F0000CF06AF98DED010A04EB44012C4800EB76
:101400008100D0ED020A601E00EB4001284800EB8D
:10141000810090ED021A70EEC10AB0EE600A0CF085
:1014200053F98DED020A002021E0694601EB8001AD
:10143000D1ED000AB7EE0E1A20EE811A691E00EEF9
:10144000901AF8EE600A61EE200A03A901EB800110
:1014500091ED001AC0EE811AB0EE610AB4EEC80A2E
:10146000F1EE10FA01DDB0EE408A411CC8B203284B
:10147000DBD3601C84B2AC428CDB9FED0E0AB4EE71
:10148000C08AF1EE10FA03D29FED0A0AB0EE408A4C
:10149000DFED090A9FED090A08EE200ABCEEC00A3A
:1014A00010EE100A09B0BDEC048B30BDE4F000086A
:1014B000380C00206F12833A00007A4477BE7F3FD9
:1014C00070B52DED048BB0EE409A06464E48008A6A
:1014D000012807D84C4A503207CA86E80700BDECFD
:1014E000048B70BDB7EE001ADFED480AB0EE490A72
:1014F000FFF7A2FE4448008A401E00EE900AF8EE74
:10150000600A60EE208ABCEEE80A10EE100A84B28F
:101510003D48008A401EA04207D83B48008A401E32
:1015200084B225469FED398A07E0601C85B200EE43
:10153000104AB8EE400A38EEC08A05EB4501324841
:10154000503000EB8100D0ED000A04EB44012E483E
:10155000503000EB810090ED001A70EEC10AB0EE41
:10156000600A00F0C5FB04EB44012748503000EB53
:101570008100D0ED000A48EE000AF0EE609AB0EE6D
:10158000690A00F0B5FB86ED000A05EB45011E482F
:10159000503000EB810090ED010A04EB44011A4841
:1015A000503000EB8100D0ED010A70EE600A04EBD0
:1015B00044011548503000EB810090ED010A08EE1F
:1015C000200A86ED010A05EB45010F48503000EB7B
:1015D000810090ED020A04EB44010B48503000EB0F
:1015E0008100D0ED020A70EE600A04EB4401064867
:1015F000503000EB810090ED020A08EE200A86EDE3
:10160000020A00BF6BE70000E80B002000000000AA
:1016100070B52DED028B04460D46D5ED000A94ED14
:10162000001A70EEC10AB0EE600A00F061FBB0EE85
:10163000408A0CF049F8F1EE040AB4EEE00AF1EE4B
:1016400010FA25D8D5ED010A94ED011A70EEC10A01
:10165000B0EE600A0CF038F8F0EE000AB4EEE00AE2
:10166000F1EE10FA14D8D5ED020A94ED021A70EEDC
:10167000C10AB0EE600A0CF027F8F0EE000AB4EEF2
:10168000E00AF1EE10FA03D80120BDEC028B70BD28
:101690000020FAE70B4890F8460088B10A48007924
:1016A00005280DD1084890F83C0048B1064890F84C
:1016B0003D0028B1044890F83E0008B10120704771
:1016C0000020FCE794090020CC08002070B52DED27
:1016D000048B04460D4695ED000AD4ED000A30EE69
:1016E000600AB0EE409A95ED010AD4ED010A30EEA1
:1016F000600AB0EE408A95ED020AD4ED020A30EE9F
:10170000600AF0EE408A69EE090A48EE080A48EEDF
:10171000A80AB0EE600A0BF0E7FCBDEC048B70BDCC
:10172000F0B52DED028B91B004460E46D4ED021AB1
:10173000B0EE611AD4ED011AF0EE610AD4ED001A90
:10174000B0EE610A06A800F085FC314606A8FFF756
:10175000BDFFF0EE408A18EE900A0BF0CFF820B9EA
:10176000032011B0BDEC028BF0BDB0EE000AC8EE54
:10177000800AB0EE608AB0EE480A0BF0C7FABCEE01
:10178000C00A10EE100A401C85B2022D00D20225BC
:10179000B5F5C07F01D90420E3E794E807008DE8A0
:1017A0000700012754E0681E00EE100AF8EE400A18
:1017B00000EE107AB8EE400A80EE201AB0EE418AB0
:1017C00096ED000ADDED060A70EE600A9DED060A50
:1017D00008EE200A8DED030A96ED010ADDED070AF9
:1017E00070EE600A9DED070A08EE200A8DED040AEE
:1017F00096ED020ADDED080A70EE600A9DED080A1A
:1018000008EE200A8DED050A09AA694603A800F032
:101810007FFDA8B99DED100AF6EE000AB4EEE00ACD
:10182000F1EE10FA0CDC0AA800F084FF40B10AA81F
:10183000FFF734F920B10AA96846FFF7E9FE08B9B5
:1018400004208EE70AA807C88DE80700781C87B235
:10185000AF42A8DB002084E710B52DED048BF0EE3D
:10186000408AB7EE001ADFED0F0AB0EE680AFFF704
:10187000E3FCB0EE408A28EE080AB0EE409A29EE6A
:10188000080AF0EE409ABAEE0E0AF1EE080A00EEEF
:10189000880AF2EE040A48EE000A20EEA90ABDEC1E
:1018A000048B10BD00000000064981F8540000219F
:1018B000044A82F8551082F856101146896D491C69
:1018C00091657047780B002070B52DED028B84B0C8
:1018D0000546404840682C1A3E48C068A04201D8DE
:1018E0003C48C4683B48C06858B13A4890ED030A88
:1018F000F8EE400A00EE104AB8EE401A81EE200AD7
:1019000001E0B7EE000AF0EE408AB0EE680AFFF799
:10191000A3FFB0EE408A01A8B0EE480AFFF7D0FD61
:1019200001A802F029FDB8B92A48C07C38B92A4874
:10193000806D401C2849886501202649C874002014
:10194000254981F8560023484068401C21494860D9
:1019500004B0BDEC028B70BD00201E49C87401208C
:101960001D4981F856000846446680ED178A01A992
:101970000EC910300EC01748C068A04227D81548BD
:10198000008A401E86B206EB46021249503101EB36
:10199000820002F0F1FC06EB46010E48503000EBED
:1019A00081030D490DCB10310DC1B7EE000A0A4875
:1019B00080ED170A0748007D20B12946052000F078
:1019C0000DF803E02946062000F008F800BF00BF2C
:1019D000BEE70000E80B0020780B0020024A1070E0
:1019E000024A116070470000780B0020E80B0020CD
:1019F00070B58CB0044604F09BFF0546202104A876
:101A0000FEF7F5FDFFF746FE28B90320FFF74CFF70
:101A100002200CB070BD524890ED020A8DED010A13
:101A200090ED030A8DED020A90ED040A8DED030A94
:101A300004AA01A9204600F06BFC80B99DED0B0AB9
:101A4000F6EE000AB4EEE00AF1EE10FA07DC05A8A3
:101A500000F070FE18B105A8FFF720F828B99DF82E
:101A60001000FFF721FF0420D3E79DED010ADFED11
:101A70003D0AB4EEE00AF1EE10FA3CD39DED010A06
:101A8000DFED390AB4EEE00AF1EE10FA33DC9DED39
:101A9000020AB5EEC00AF1EE10FA2CD39DED020A4F
:101AA000DFED320AB4EEE00AF1EE10FA23DC9DED30
:101AB000030ADFED2F0AB4EEE00AF1EE10FA1AD3B2
:101AC0009DED030ADFED2B0AB4EEE00AF1EE10FA09
:101AD00011DC9DED060ADDED020AB4EEE00AF1EE3E
:101AE00010FA08DC9DED070ADDED030AB4EEE00A0A
:101AF000F1EE10FA04D20620FFF7D6FE042088E7A4
:101B000002201D490882084601A90EC950300EC0A6
:101B10005C3805A90EC95C300EC0174910488030EA
:101B2000D0E90C23806BC1E90E230864088ADFED3D
:101B3000130A9FED130AFFF795FB064605A8FFF76A
:101B40004BF920B90320FFF7AFFE022061E7022323
:101B5000012231462046009500F014F8002058E795
:101B6000CC080020000048C2000048420000344376
:101B7000000034C30000AAC2E80B00200000484364
:101B8000000000002DE9F04704460D4616461F46AA
:101B9000DDF820802048008A401E1FFA80F91E4888
:101BA00094E80E0044300EC05038C560C0F8048080
:101BB000467500201849C8741848D1E91423896D66
:101BC000C0E90423816109EB49011348503000EB5F
:101BD000810312480ECB1C300EC02838D4E9011303
:101BE0002268C0E91313826400200C4981F8540074
:101BF000012081F8550081F856009FED090A08463A
:101C000080ED170A00204866487041463846FFF7C5
:101C1000E5FEBDE8F0870000E80B0020780B00200F
:101C20000000000010B52F482F4BD3E902211B699B
:101C3000C0E902134260002429E094B929481C300D
:101C400000EB8400D0ED000A2748083000EB840048
:101C500090ED001A70EEC10AB0EE600A00F048F88C
:101C60000DE020481C3000EB840090ED000A1E4877
:101C7000083000EB8400D0ED000A30EE600A19480D
:101C8000283000EB840080ED000A601CC4B2032CF5
:101C9000D3D3144914488030D0E90C23806BC1E9B8
:101CA0000F2348644831A1F10C00FFF70FFD0D48E8
:101CB00080ED1B0A0C498A8F828691F83E1080F8CD
:101CC0003610373008497F310A8802808978817060
:101CD0000648C068034908660448008AA1F86800FD
:101CE00010BD0000780B0020CC080020E80B00207D
:101CF00005E0DFED0E0A70EE600AB0EE600ADFED7F
:101D00000C0AB4EEE00AF1EE10FAF2DC05E0DFEDC9
:101D1000070A70EE200AB0EE600ADFED060AB4EEA4
:101D2000E00AF1EE10FAF2D3704700000000B4436D
:101D300000003443000034C310B5044604B910BD9C
:101D40009FED080A84ED680A04F5947000F00CF821
:101D500004F1B00000F008F804F1380000F004F8D5
:101D600000BFECE70000000010B504469FED1E0A1E
:101D700084ED0B0A9FED1C0A84ED0C0A9FED1A0AF4
:101D800084ED0D0A9FED180A84ED0E0A9FED160AE8
:101D900084ED0F0A9FED140A84ED100A9FED120ADC
:101DA00084ED110A9FED100A84ED120A9FED0E0AD0
:101DB00084ED130A9FED0C0A84ED140A9FED0A0AC4
:101DC00084ED150A9FED080A84ED160A9FED060AB8
:101DD00084ED170A0021A166E1667020015504F127
:101DE000600003F0CBFB10BD0000000070B52DEDCE
:101DF000028B04460D46B0EE408A16461F48006C22
:101E0000B0F5FA7F0AD200201C4981F84C001C4929
:101E100048601A494864BDEC028B70BDB0EE480AB8
:101E2000204601F0CFFD154981F84C00084690F896
:101E30004C0028B900201249486010494864EAE77C
:101E40000F48406808B90E4846600D484068301A8F
:101E50000A4948640846406C082801D20020DAE7A5
:101E6000A1890648523020F8151094ED020A801D11
:101E700000EB850080ED000A0120CCE7CC080020B3
:101E800068080020014605290CD2DFE801F00305AF
:101E900007090C00002070470120FCE70220FAE748
:101EA0000320F8E700BF0620F5E700B101B970474D
:101EB00090ED000A81ED000A90ED010A81ED010A22
:101EC00090ED020A81ED020A90ED030A81ED030A0A
:101ED00090ED040A81ED040A42694A6190ED060A18
:101EE00081ED060A90ED070A81ED070A90ED080AD8
:101EF00081ED080A90ED090A81ED090A90ED0A0AC0
:101F000081ED0A0A00BFD2E710B5C6B004464FF40F
:101F10008C7206496846FEF716FB4FF48C726946D0
:101F20002046FEF710FB46B010BD00009CEF0008F5
:101F300010B50E4B587100230C4C236463649FED65
:101F40000C0A234683ED120A002384F84C30094B17
:101F50001A600023074C636011B191ED040A01E09F
:101F60009FED030A034B83ED020A10BDCC0800204D
:101F7000000000006808002010B5314890F84000CB
:101F800090B12F4890F8420070B12E484078022856
:101F90000ED12B4890F8410030B1294890F8430009
:101FA00010B102F0EDFB18B91120FEF7CDFF10BD06
:101FB00001F024F82448006890ED040A234880EDDD
:101FC000000A2348006890ED040A204880ED010AC9
:101FD0001D480068FFF7B0FE1D480068FFF7ACFE23
:101FE0001948006801F036FA1948006801F032FA21
:101FF0001648D0ED000AB0EE600A1348006803F0FE
:10200000FFF91248D0ED010AB0EE600A10480068EE
:1020100003F0F6F90C48006803F05CF90C4800681E
:1020200003F058F90120064981F8450002F07AF8DA
:102030000D20044948710220087000BFB7E7000076
:1020400094090020CC0800206C000020940000209F
:102050007000002010B52DED0A8BF0EE409AB0EE26
:10206000608AB0EE41AA044614B9BDEC0A8B10BDDB
:102070009FED2B0A69EE80AA9FED290A28EE00BA8F
:1020800038EE0A0ADFED260A60EE20BAB0EE4B0AFF
:102090000AF072FEDFED230A60EE20CAB0EE6B0A92
:1020A0000AF06AFEDFED200AB0EE6CCA00EE80CACC
:1020B0009FED1E0A7CEE008AB9EE009AB0EE6A0A25
:1020C0000AF05AFE60EE28CAB0EE6A0A0AF044FF2F
:1020D00049EE40CAC4ED00CAB0EE6A0A0AF03CFFFD
:1020E00060EE28CAB0EE6A0A0AF046FE49EE00CA5F
:1020F000C4ED01CAB0EE4B0A0AF02EFFDFED0CCAA8
:10210000DFED080A40EE80CAB0EE6B0A0AF024FF49
:10211000DFED050A40EE80CAC4ED02CA00BFA4E7A5
:1021200035FA8E3C000016430000334300000000E7
:102130000000084200487047CC08002010B501207C
:1021400001F068FC10BD000000B5ADF5537D8DA811
:10215000FEF7D4FD47A801F045FA01A8FFF7D4FE29
:10216000C8214E48FEF743FA48214D48FEF73FFA92
:10217000CC214C48FEF73BFA8C214B48FEF737FA4E
:1021800044214A48FEF733FA8DA803F0A7F84849DE
:10219000086047A803F0A2F84649086001A803F0C8
:1021A0009DF8454908604248006844490860414834
:1021B000006848604048006888600020374908701F
:1021C000487102F0EBFD02F0E5FD40883349A1F8CB
:1021D000C40000203A4908703A4908703A4908702A
:1021E0003A4908609FED3A0A3A4880ED000AB7EE96
:1021F000000A394880ED000A0120294981F844008D
:1022000000F042FC01F08EFF04F092FB33490860BD
:1022100000203349086004F08BFB3249086000203D
:10222000314908609FED310A314880ED000A9FED89
:102230002F0A80ED010A9FED2D0A2E4880ED000A3D
:1022400000202D4908702D4908702D4908709FED18
:10225000270A124880ED210A9FED2A0A80ED220A02
:102260009FED290A80ED230A00200C498870C87070
:102270000120087102F088FC01F06EFC01F076FF8D
:1022800002F058F802F06CF902F0F2FA01F0A2FD47
:1022900001201E4908700DF5537D00BDCC080020BB
:1022A00094090020DC090020A80A0020340B00203B
:1022B000680000206C000020700000205C080020F6
:1022C000FC0000207500002076000020780000202F
:1022D000A75E3E437C000020800000208400002098
:1022E000880000208C0000209000002000000000EA
:1022F000940000209C000020A0000020A1000020ED
:10230000A200002000003443000034C37400002009
:102310002DE9F04F2DED108B83B005460E46144687
:102320009FEDF70AF0EE40DA4FF00009CA46CB46BF
:102330002CB9032003B0BDEC108BBDE8F08F202139
:102340002046FEF754F985B37EB395ED000A10EEF2
:10235000101A08460AF0C9FA38B395ED010A10EED2
:10236000101A08460AF0C1FAF8B195ED020A10EE0B
:10237000101A08460AF0B9FAB8B196ED000A10EE44
:10238000101A08460AF0B1FA78B196ED010A10EE7B
:10239000101A08460AF0A9FA38B196ED020A10EEB2
:1023A000101A08460AF0A1FA18B903202070207804
:1023B000C0E7D44890F8450018B902202070207872
:1023C000B8E7D04890F8440018B901202070207870
:1023D000B0E7D5ED000A60EEA00A95ED011AD5ED43
:1023E000011A41EE210AB0EE600A0AF07DFEB0EE5D
:1023F000408A95ED020ADFEDC40A70EE608A18EE9D
:10240000100A0AF072FA20B118EE900A0AF06DFA7A
:1024100018B90720207020788CE79FEDBC0A08EEE1
:10242000080AF3EE000AB4EEE00AF1EE10FA03D265
:102430000420207020787DE7B3EE000A18EE080A29
:10244000F0EE400A9FEDAE0A0AF03EFDB0EE409A73
:102450000AF04AFEF0EE409A9FEDAC0AB4EEC08A54
:10246000F1EE10FA0ADD95ED001AF0EE410A95ED55
:10247000011AB0EE410A0AF0F3FA05E096ED000AFF
:10248000DFEDA30A20EE200AB0EE40DA0027D6E006
:102490009FED9E0AF4EEC09AF1EE10FA02D8012FD9
:1024A00000D1CAE017B9B0EE690A01E0B1EE690ADD
:1024B000F0EE40BA9FED920A7BEEC0AAF0EE6B0AF6
:1024C000B9EE000A0AF0CCFA3DEE400ADFED910ABF
:1024D00020EE200AB0EE40AA00F07CFAB0EE40CA2E
:1024E0002AEEAA0A08EEA80ADFED8B0A30EE600A8F
:1024F000DFED8A0A30EE600ADFED890A80EE209A6D
:1025000019EE100A0AF0F1F918B9072020702078A6
:1025100010E79FED840AB4EEC09AF1EE10FA06D3EC
:102520009FED810AB4EEC09AF1EE10FA00DD84E06E
:102530004FF0010AB7EE001AFFEE000AB0EE490AAA
:1025400000F0CEF9B0EE409A4FF0000871E0B0EE26
:10255000490A0AF0F9F9B0EE40BAB8F1000F03D019
:10256000B1EE4B0AB0EE40BAF0EE6A0AB0EE680A7D
:102570000AF076FAB0EE40FAB0EE4B0A0AF0FCFB35
:10258000DFED6A0A9FED6A1A41EE000AB0EE60EADA
:10259000B0EE4B0A0AF0E0FCDFED650A20EE200AFF
:1025A000F0EE40EAF0EE4E0A0AF05AFA7FEE40CA28
:1025B0008DED00CA9FED570A2CEE800A8DED010AC1
:1025C0009FED540A2BEE000A8DED020A684600F0DA
:1025D000B1F800B929E04FF0010B6846FEF75EFA4A
:1025E00000B922E06078401C60703146684600F017
:1025F00021F9B0EE40AA1AEE100A0AF076F918B9DD
:1026000007202070207895E6B9F1000F04D0B4EED1
:10261000EDAAF1EE10FA07D24FF00109F0EE4ADA16
:102620009DE80700231D07C300BF08F1010000F06B
:10263000FF08B8F1020F8AD300BF781CC7B2022F7F
:10264000FFF426AFB9F1000F0FD1BBF1000F02D09C
:102650000620207007E0BAF1000F02D0052020709C
:1026600001E004202070207864E6D4ED031AB0EE77
:10267000611AD4ED021AF0EE610AD4ED011AB0EE3F
:10268000610A04F11000FFF7E5FCD4ED040A95EDB2
:10269000001A70EEC10A60EEA00A94ED051AD5ED9D
:1026A000011A31EE611AD4ED051A95ED012A71EE89
:1026B000C21A41EE210A94ED061AD5ED021A31EE46
:1026C000611AD4ED061A95ED022A71EEC21A41EE96
:1026D000210AB0EE600A0AF007FD84ED070A94EDC6
:1026E000070A10EE101A08460AF0FFF818B907207A
:1026F000207020781EE60020207020781AE6000066
:1027000000000000940900200000084217B7D138EB
:1027100035FA8E3CE02E654200C8AF460052FA46BC
:1027200000C45147470380BF4703803F0000164362
:102730000000334310B50446BCB194ED000A10EE1E
:10274000101A08460AF0D1F878B194ED010A10EE9B
:10275000101A08460AF0C9F838B194ED020A10EED2
:10276000101A08460AF0C1F808B9002010BD94ED0F
:10277000000ADFED240AB4EEE00AF1EE10FA3FDBC6
:1027800094ED000ADFED200AB4EEE00AF1EE10FA53
:1027900036D894ED010A1D48D0ED020A9FED1C1AAF
:1027A00070EEC10AB4EEE00AF1EE10FA28DB94ED07
:1027B000010AD0ED030A9FED161A70EE810AB4EEFD
:1027C000E00AF1EE10FA1BD894ED020AD0ED060AE9
:1027D0009FED0F1A70EEC10AB4EEE00AF1EE10FAA6
:1027E0000EDB94ED020AD0ED070A9FED091A70EE98
:1027F000810AB4EEE00AF1EE10FA01D80120B5E743
:102800000020B3E7420034C342003443940900205F
:102810006F12833A10B52DED028BB0EE408AF0EEC8
:10282000608A78EE680AB0EE600A00F0D3F8BDEC7A
:10283000028B10BD70B52DED068B04460D46244865
:1028400090ED030AD0ED020A30EE600AB0EE409A35
:1028500090ED070AD0ED060A30EE600AF0EE409ADD
:102860009FED1C0AB4EEC09AF1EE10FA06D99FED66
:10287000190AF4EEC09AF1EE10FA04D89FED160A88
:10288000BDEC068B70BD95ED001AF0EE410A94ED9B
:10289000001AB0EE410AFFF7BDFFDFED100A80EE2F
:1028A00020AA94ED010AD5ED010A30EE600A80EE0F
:1028B000098A94ED020AD5ED020A30EE600AC0EEF4
:1028C000298A2AEE0A0A08EE080A08EEA80AD7E7BB
:1028D0009409002017B7D1380000807F0000B4436E
:1028E000F0EE401AF4EEE01AF1EE10FA02D2B0EE79
:1028F000600A7047F4EEC11AF1EE10FA02DDB0EE94
:10290000410AF6E7B0EE610AF3E7000010B52DEDDD
:10291000028B86B0044603A89FED291ADFED290A31
:102920009FED290AFFF796FBB3EE0D0A8DED000A25
:10293000B9EE000A8DED010A9FED240A8DED020A21
:10294000DDED030A9DED001A70EEC10A60EEA00AEB
:102950009DED041ADDED011A31EE611ADDED041A68
:102960009DED012A71EEC21A41EE210A9DED051A74
:10297000DDED021A31EE611ADDED051A9DED022A38
:1029800071EEC21A41EE210AB0EE600A0AF0ACFB09
:10299000B0EE408A0CB184ED008A18EE100A09F0FE
:1029A000A4FF58B19FED0A0AB4EEC08AF1EE10FA06
:1029B00004D8012006B0BDEC028B10BD0020F9E761
:1029C000000034C30000344300000000000008424F
:1029D0000AD7233C05E0DFED0E0A70EE600AB0EE88
:1029E000600ADFED0C0AB4EEE00AF1EE10FAF2DC58
:1029F00005E0DFED070A70EE200AB0EE600ADFEDB9
:102A0000060AB4EEE00AF1EE10FAF2D370470000C5
:102A10000000B44300003443000034C310B5134831
:102A2000007828B91248006810B11248006800B94F
:102A300010BD11490E480068B030FFF736FA0F4953
:102A40000C480068B030FFF730FA0D4908480068BC
:102A5000B03006F049FF0B4906480068B03006F078
:102A600043FF01200149087000BFE1E7A2000020F8
:102A70006C0000207000002074080020A0080020D6
:102A8000A4000020D000002010B5DFED330A9FED38
:102A9000330A0AF03DFA324880ED000ADFED2E0AD3
:102AA0009FED2E0A0AF010FA2D4880ED010ADFEDA5
:102AB0002D0A9FED2D0A0AF02BFA294880ED040A11
:102AC000DFED280A9FED280A0AF0FEF9244880ED80
:102AD000050A90ED000AF1EE040A30EE200A80EDBE
:102AE000020A90ED010AF1EE040A30EE600A80ED70
:102AF000030A90ED040AF1EE040A30EE200A80ED9C
:102B0000060A90ED050AF1EE040A30EE600A80ED47
:102B1000070A9FED160A80ED080A9FED150A80ED61
:102B2000090A9FED140A80ED0A0A9FED130A80ED51
:102B30000B0AD0ED0A0AB0EE600A00F067FD084803
:102B400080ED0C0AD0ED0B0AB0EE600A00F05EFDDD
:102B5000034880ED0D0A10BD000000000000344362
:102B6000940900200000AAC2000034C3405458C594
:102B7000B2CB5DC54002553D0A4DDBBC10B50848DF
:102B8000006800F0FDFF0748006800F0F9FF064804
:102B9000006800F0F5FF00200449087010BD000037
:102BA000680000206C00002070000020CC0800208D
:102BB00010B5044664B1D4F8B00148B1D4F8B401FA
:102BC00030B1D4F8B00102F0C7FD08B1012010BD4A
:102BD0000020FCE710B52DED048BF0EE408AB0EE3E
:102BE000609AB0EE418A18EE100A09F075FE50B1F5
:102BF000B0EE480A0AF063FDDFED080AB4EEE00A21
:102C0000F1EE10FA04D89FED060ABDEC048B10BD5E
:102C1000B0EE490A08EE880AF7E7000017B7D13886
:102C2000000000002DE9F0412DED048B92B0044628
:102C3000F0EE408A03F07CFE074620210AA8FDF74B
:102C4000D6FC03208DF8280098480078022807D089
:102C500096480078042803D094480078032805D1CA
:102C6000012012B0BDEC048BBDE8F0811CB394EDE3
:102C7000000A10EE101A084609F040FED8B194ED93
:102C8000010A10EE101A084609F038FE98B194EDCA
:102C9000020A10EE101A084609F030FE58B118EE7C
:102CA000900A09F02BFE30B1B7EE000AF4EEC08AAC
:102CB000F1EE10FA05D29DF82800FEF7F5FD03208D
:102CC000CFE7FEF7E7FC28B99DF82800FEF7ECFDFA
:102CD0000220C6E7764890ED020A8DED040A90EDD9
:102CE000030A8DED050A90ED040A8DED060A04A88D
:102CF000FFF720FD18B104A8FDF7D0FE20B906208B
:102D0000FEF7D2FD0420ACE7DDED061AB0EE611A45
:102D1000DDED051AF0EE610ADDED041AB0EE610A90
:102D20006448FFF797F921466248FEF7CFFCB0EE02
:102D3000408A18EE100A09F0E1FD20B90720FEF7DD
:102D4000B3FD03208DE79FED5C0AB4EEC08AF1EE7F
:102D500010FA04D80021204600F084FB81E7B0EE91
:102D6000000AC8EE000AB0EE609AB0EE490A09F017
:102D7000CDFFBCEEC00A10EE100A401C85B2022D39
:102D800002D3B5F5C07F04D90320FEF78DFD0420E2
:102D900067E748483838058204A90EC950300EC08C
:102DA00004A807C801AB07C3012663E0681E00EE54
:102DB000100AF8EE400A00EE106AB8EE400A80EE03
:102DC000201AB0EE419A94ED000A3A483838D0ED16
:102DD0000E0A70EE600A90ED0E0A09EE200A8DEDE3
:102DE000070A94ED010AD0ED0F0A70EE600A90ED2B
:102DF0000F0A09EE200A8DED080A94ED020AD0EDC3
:102E0000100A70EE600A90ED100A09EE200A8DEDAE
:102E1000090A0AAA01A907A8FFF77AFAA8B99DED3D
:102E2000110AF6EE000AB4EEE00AF1EE10FA0CDC3C
:102E30000BA8FFF77FFC40B10BA8FDF72FFE20B1D8
:102E40000BA901A8FEF7E4FB28B99DF82800FEF7BE
:102E50002BFD042005E706EB46011648183000EB71
:102E600081000BA90EC90EC00BA807C801AB07C390
:102E7000701C86B2AE4299DB2846F0EE680AB0EECE
:102E8000480AFEF7EFF9804601A8FDF7A5FF20B933
:102E90000320FEF709FD0220E3E604230222414657
:102EA00020460097FEF76EFE0020DAE6780B002041
:102EB000CC080020200C00200AD7233C10B52DEDB3
:102EC000068BF0EE409A2148006820B99FED200A59
:102ED000BDEC068B10BD1D48006890ED010A79EE2F
:102EE000C08AB0EE688A9FED1B0A38EEC09AB0EE39
:102EF000490A0AF0E4FBB0EE40AAB0EE480A0AF034
:102F0000DEFBB4EEC0AAF1EE10FA01D2B0EE498AAF
:102F10009FED100A38EE800AB0EE409AB0EE490AF2
:102F20000AF0CDFBB0EE40AAB0EE480A0AF0C7FBAB
:102F3000B4EEC0AAF1EE10FA01D2B0EE498A03480D
:102F4000006890ED040A30EE080AC1E7680000202E
:102F5000000000000000B4432DE9F0412DED028B8C
:102F600007460C46F0EE408A15461E46384600F0ED
:102F700007FE97ED040AB0EE408AB0EE480A0AF068
:102F80009EFBC0EE280AB2EE050AF4EEC00AF1EE8E
:102F900010FA06D81120FDF7D7FFBDEC028BBDE873
:102FA000F0813CB90A4880ED088A0120084981F87F
:102FB000410006E0064880ED098A0120044981F8B5
:102FC0004300324600212846FEF7B2FF00BFE4E787
:102FD0009409002070B50446204600F0D1FD00BFE2
:102FE000EFF31080054672B6204602F0F3F905B9FA
:102FF00062B62046FEF7A0FE70BD000010B50D4879
:10300000007828B10C48006810B10C48006800B97D
:1030100010BD0B4908480068B03006F065FC09494E
:1030200006480068B03006F05FFC002001490870D7
:1030300000BFEDE7A20000206C000020700000201F
:1030400074080020A00800202DE9F0412DED088B28
:1030500005460F461446B0EE40AAF0EE60AAB0EE68
:10306000418AF0EE618AB0EE429A1E46DDF8388061
:10307000384600F085FD1AEE100A09F02DFCA0B1CB
:1030800018EE100A09F028FC78B1B0EE4A0A0AF0EE
:1030900016FBDFED440AB4EEE00AF1EE10FA04D9B3
:1030A000B5EEC08AF1EE10FA06D21120FDF74CFF02
:1030B000BDEC088BBDE8F0812946204601F0C0FB3D
:1030C00039480068A8EB000038490864D5ED040AC7
:1030D000B0EE600A0AF0F3FA344880ED120A36B115
:1030E000006CB04203D31020FDF72EFFE0E718EE8E
:1030F000900A09F0F1FB80B119EE100A09F0ECFB1F
:1031000058B19FED280AF4EEC08AF1EE10FA04D906
:10311000B5EEC09AF1EE10FA03D81120FDF714FFB6
:10312000C6E768EE899A19EE900A09F0D5FB38B126
:103130001E4890ED120AB4EEE90AF1EE10FA03DB34
:103140001120FDF701FFB3E7B0EE6A0A00F05EFA66
:10315000F1EE40BAB0EE4A0A0AF0B1FA2BEE800A5C
:10316000B0EE40BA284602F04BF9284602F0B2F819
:103170004246B0EE480A21462846FEF737FE00B91F
:1031800096E7284600F0FCFC2846FEF7D5FD0CB972
:103190000B2100E00521084642462946FEF7C8FEFD
:1031A00000BF85E717B7D13868080020CC08002099
:1031B0002DE9F0472DED088B05460E461446F0EE3E
:1031C000408AB0EE609AB0EE418AF0EE619AB0EEBD
:1031D00042AA1F46DDE91089304600F0D1FC18EE06
:1031E000900A09F079FBA0B118EE100A09F074FBFF
:1031F00078B1B0EE680A0AF062FADFED260AB4EEA2
:10320000E00AF1EE10FA04D9B5EEC08AF1EE10FA38
:1032100006D21120FDF798FEBDEC088BBDE8F087C3
:103220002946204601F00CFB4A463946F0EE4A0A90
:10323000B0EE690A284600F06BFB00B1ECE7B0EE97
:10324000490A00F0E3F9B0EE40BAB0EE680A0AF0BD
:1032500036FA2BEE000AF0EE40AA284602F0D0F82B
:10326000284602F037F84A46B0EE480A214628467A
:10327000FEF7BCFD00B9CFE7284600F081FC2846E8
:10328000FEF75AFD4A4629464046FEF751FE00BF6A
:10329000C2E7000017B7D1382DE9F0412DED088BBA
:1032A00004460D46F0EE408AB0EE609AB0EE418AD8
:1032B000F0EE619A16461F46DDF83880284600F089
:1032C0005FFC18EE900A09F007FB90B1B0EE680AB7
:1032D0000AF0F5F9DFED2E0AB4EEE00AF1EE10FA8D
:1032E00007D9B7EE000A10EE100A09F0F5FA00B19E
:1032F00006E01120FDF728FEBDEC088BBDE8F0814B
:1033000042463146F0EE690AB0EE480A204600F027
:10331000FFFA00B1F0E7B0EE490A00F077F9B1EE3C
:1033200040BAB0EE680A0AF0CAF92BEE000AF0EED5
:1033300040AA204602F064F8204601F0CBFF9FED42
:10334000140AB4EEC08AF1EE10FA0ADDD4ED040AD4
:10335000B0EE600A0AF0B3F9F0EE400A80EE880A97
:1033600001E09FED0C0AB0EE40AAB7EE000AB4EE01
:10337000C0AAF1EE10FA04DA0748006CB0F5FA7F43
:1033800004D3424621463846FEF7D2FD00BFB3E7DC
:1033900017B7D13800000000CC0800202DE9F0411B
:1033A0002DED028B80460C461546B0EE408A1E4637
:1033B000089F404600F0E4FB204600F0E1FB0C488B
:1033C0000068381A0B4908640846006CB0F57A7F2B
:1033D00003D2BDEC028BBDE8F0813B463246B0EE35
:1033E000480A29464046FFF7B7FD00BFF1E7000055
:1033F00068080020CC0800202DE9F04107460C4663
:1034000015461E46384600F0BBFB204600F0B8FBD0
:103410000D480068301A0D4908640846006CB0F584
:103420007A7F02D20020BDE8F0813846FFF7D2FD56
:1034300025B90120064981F8400003E00120044934
:1034400081F842000120EEE768080020CC08002047
:103450009409002000B97047402181834922C2832A
:1034600000BFF8E770B58CB005460C46202104A8D3
:10347000FDF7BDF803208DF81000BDB195ED000AF1
:1034800010EE101A084609F039FA78B195ED010AE4
:1034900010EE101A084609F031FA38B195ED020A1B
:1034A00010EE101A084609F029FA60B99DF81000CC
:1034B000FEF7FAF924B1202204A92046FDF743F8CB
:1034C00003200CB070BDFEF7E5F858B99DF8100068
:1034D000FEF7EAF924B1202204A92046FDF733F8CB
:1034E0000220EEE7394890ED020A8DED010A90EDD9
:1034F000030A8DED020A90ED040A8DED030A04AA79
:1035000001A92846FEF704FF80B99DED0B0AF6EEEF
:10351000000AB4EEE00AF1EE10FA07DC05A8FFF7A6
:1035200009F918B105A8FDF7B9FA58B99DF81000C6
:10353000FEF7BAF924B1202204A92046FDF703F8CA
:103540000420BEE705A800F017FF58B99DF8100049
:10355000FEF7AAF924B1202204A92046FCF7F3FFC4
:103560000220AEE71A4805A90EC910300EC018494E
:1035700005A80DC81C310DC1154895E80E0048304E
:103580000EC00020124981F85400012081F8550036
:1035900081F85600B7EE000A084680ED170A0020B1
:1035A000086648660120A1F868000020487003F012
:1035B000BFF9064631460620FEF710FA24B1202254
:1035C00004A92046FCF7BFFF00207AE7CC080020C2
:1035D000780B002000B97047082181830822C2833C
:1035E00000BFF8E710B5C6B004464FF48C72064928
:1035F0006846FCF7A8FF4FF48C7269462046FCF73A
:10360000A2FF46B010BD000084EE0008F0EE400AB4
:10361000F5EEC00AF1EE10FA02DBB7EE000A7047D1
:10362000BFEE000AFBE7000010B5064B1871D97019
:103630000023044CC4F8AC30034B1A600023034C45
:10364000236010BDCC0800208C00002090000020DA
:1036500070B505460C461148C6781148006800F060
:103660008FFA1048006800F08BFA0F48006800F0ED
:1036700087FA0B480068FEF75FFB0A480068FEF710
:103680005BFB09480068FEF757FB22463146284697
:10369000FFF7CAFF00200149087070BDCC08002068
:1036A000680000206C0000207000002010B52DED97
:1036B000048BF0EE408AB0EE609AB0EE418A18EECC
:1036C000100A09F009F950B1B0EE480A09F0F7FF05
:1036D000DFED080AB4EEE00AF1EE10FA04D89FED2F
:1036E000060ABDEC048B10BD78EEC90A80EE880A8C
:1036F000F7E7000017B7D1380000000070B52DEDD6
:10370000028B0546B0EE408A0C46B5F90C0000EE7F
:10371000900AF8EEE00AB0EE600A09F0D0FFB4EECD
:10372000C80AF1EE10FA05D200200A490860BDEC83
:10373000028B70BD0748006818B906480460002075
:10374000F5E704480068201AC82801D30120EEE7F5
:103750000020ECE79000002010B5044601F014FAB8
:10376000644800790B2879D2DFE800F0BC06131D0D
:103770003949A7A8A9AAAB005F48006800F000FA81
:103780005E48006800F0FCF95D48006800F0F8F958
:10379000ADE02046FDF7E8F920B1224601210320E3
:1037A000FFF742FFA3E05548006800F0E9F95448EC
:1037B000006800F0E5F9FDF7BDF952480068201AED
:1037C0004C49C1F8AC000846D0F8AC00B0F5967F83
:1037D00004D3224601210420FFF726FF87E0FDF7EE
:1037E000A9F9494890F8450040B1424840790D2870
:1037F00004D1224601210520FFF716FF77E03E485D
:103800000068FFF7D5F948B13C480068FFF7D0F9E8
:1038100020B13B480068FFF7CBF900B967E000F042
:103820001DFBE0B134480068FFF714FE3348006820
:10383000FFF710FE32480068FFF70CFE2E480068C4
:1038400001F048FD2D48006801F044FD2C48006857
:1038500001F040FD02202749087048E041E000F0F7
:10386000F3FA10B9FFF78AF941E024480068FFF73E
:10387000F1FD23480068FFF7EDFD2448D0ED000A74
:10388000B0EE600A1D48006801F0BAFD1F48D0ED97
:10389000010AB0EE600A1A48006801F0B1FD17484D
:1038A000006801F017FD1648006801F013FDFDF7F0
:1038B00041F902200F49087019E000BF00BF00BFA6
:1038C00000BF0D48006800F05BF90C48006800F08C
:1038D00057F90B48006800F053F9002005490870BB
:1038E00005E000BF21460720FFF7B2FE00BF00BF82
:1038F00010BD0000CC080020680000206C000020F3
:10390000700000208C00002094090020940000200A
:1039100070B52DED048B0546B0EE408AF0EE608A5E
:103920000C46164624480068301A24490864D5ED30
:10393000040A214890ED021A70EEC10AB0EE600A46
:1039400009F0BDFE1D4880ED120A4CB1006CA0428A
:1039500006D31020FDF7F8FA0120BDEC048B70BDF2
:1039600028EE289A18EE100A08F0B6FFE8B118EE13
:10397000900A08F0B1FFC0B19FED110AB4EEC08A01
:10398000F1EE10FA11D9F5EEC08AF1EE10FA0CD969
:1039900019EE100A08F0A0FF38B1084890ED120A9D
:1039A000B4EEC90AF1EE10FA04DB1120FDF7CCFAEF
:1039B0000120D2E70020D0E768080020CC080020D2
:1039C00017B7D13810B52DED028B0446B0EE408A02
:1039D000D4ED020AB0EE600A09F071FEF3EE040ABB
:1039E000B4EEE00AF1EE10FA12D8B4F90C0000EED1
:1039F000900AF8EEE00AB0EE600A09F060FEB4EE5C
:103A0000C80AF1EE10FA03DB0120BDEC028B10BDF9
:103A10000020FAE770B5044602F08AFF054601204F
:103A2000444908704448006800F0AAF84348006818
:103A300000F0A6F842480079042803D040480079F5
:103A4000052802D1FDF776F803E03E48006800F053
:103A500097F839480068FFF7BDFD38480068FFF760
:103A6000B9FD042036490871FFF70EF83448447058
:103A70000020354981F8450081F8400081F8410077
:103A800081F8420081F84300022C08D19FED2F0AF3
:103A9000084680ED080A9FED2D0A80ED090A9FED8A
:103AA0002B0A294880ED0E0A9FED280A80ED0F0AA7
:103AB00023480021C0F84E10C0F852108165C1653E
:103AC00000F030FB1C480068FFF772F820B11B487B
:103AD0000068FFF76DF818B90F20FDF735FA70BDD3
:103AE0009FED1B0A10EE100A08F0F6FE40B19FEDA4
:103AF000190A10EE100A08F0EFFE08B100BF03E04B
:103B00001120FDF721FAEAE701200D490870FEF7C0
:103B100085FF09480068FEF70FF908480068FEF7BE
:103B20000BF92A46054801680120FEF701FA00BF9B
:103B3000D5E70000750000206C0000207000002018
:103B4000CC0800206800002094090020000000003C
:103B500081D59941956B154210B5002406E00649C0
:103B600051F8240000F00CF8601CC4B2032CF6D30A
:103B700000200249087010BD5C080020CC0800201D
:103B800010B5044604B910BD9FED040A204601F0AB
:103B900037FC204601F037FC00BFF4E700000000CE
:103BA00070B52DED028B88B0044684B394ED020A03
:103BB00010EE101A084608F08FFE40B394ED030A89
:103BC00010EE101A084608F087FE00B394ED040AC0
:103BD00010EE101A084608F07FFEC0B194ED050AF9
:103BE00010EE101A084608F077FE80B194ED050A31
:103BF000B5EEC00AF1EE10FA09D3207E60B194ED63
:103C0000070A10EE101A084608F066FE20B90320D5
:103C100008B0BDEC028B70BD207908B9207E08B1D8
:103C20000420F5E7607920B16079012801D00320F4
:103C3000EEE7FCF793FE08B90220E9E700F0EEF8A2
:103C400008B10120E4E794ED050AB5EEC00AF1EEF3
:103C500010FA02DD94ED050A01E09FED1B0AB0EEBB
:103C6000408A9FED190AB4EEC08AF1EE10FA01DD28
:103C70000320CDE71548FEF75DFD08B9012000E0FF
:103C8000002005465DB1202221466846FCF75BFC1A
:103C90008DED058A684600F0F7F806460FE060797A
:103CA00030B9002104F10800FFF7DCFB064606E00E
:103CB000B0EE480A04F10800FEF7B4FF06463046AD
:103CC000FEF7E0F8A4E7000000004843D408002015
:103CD00010B502F02DFE04463948007800B910BD39
:103CE00000F044FA37480078D0B101203649087016
:103CF0000820FCF7D7FD35494879FDF76FF910B179
:103D0000FDF71CF903E021460A20FFF7A1FC00F0B3
:103D10002DFA00F00FFB00F023FC00F0A9FDDEE718
:103D20002046FCF73DFE2046FDF762F900F01EFA42
:103D30002046FFF711FD00F019FA00F0FBFA00F041
:103D40000FFC204600F0DCF800F010FA00F0F2FA68
:103D500000F076FF1D480079062807DB1B48007934
:103D60000A2803DC00201949087024E0174800796C
:103D7000022803D015480079032803D103201349F2
:103D8000087018E000BF124890F8450038B10F489D
:103D900040790D2803D102200C4908700BE00B4933
:103DA0004879FDF71BF918B101200849087002E0B5
:103DB00000200649087000F05BFD00BF8FE700009F
:103DC00074000020FC00002075000020CC080020BA
:103DD0009409002010B541F250210E48FCF707FC71
:103DE00070210D48FCF703FC00200B490870487057
:103DF00002F09EFD074988600020FEF787FD054917
:103E000088740846807C20B9082003490870012086
:103E1000487010BDE80B0020780B0020094800789E
:103E200002280BD007480078032807D005480078FF
:103E3000042803D003480078052801D101207047E9
:103E40000020FCE7780B0020034800780E2801D002
:103E5000012070470020FCE7780B0020094800781B
:103E600002280BD007480078042807D005480078BE
:103E7000052803D003480078062801D101207047A7
:103E80000020FCE7780B00203EB504460CB9032067
:103E90003EBDFFF7C3FF08B10120F9E704F10801B7
:103EA0001548FDF73DFC05460DB12846F0E72022F8
:103EB00021461248FCF747FB0120104918390875C4
:103EC0000D48D0ED021AB0EE611AD0ED011AF0EEF5
:103ED000610AD0ED001AB0EE610A6846FEF7BAF842
:103EE0006846FDF785FD05461DB1002003491839D8
:103EF00008752846CCE70000D8F00008000C002028
:103F00002DE9F0432DED028B89B004467F4880688F
:103F1000271A7E4884607E48007848B10820FCF764
:103F2000C1FCFDF77FFE09B0BDEC028BBDE8F0835C
:103F30007648807C10B9FDF775FEF4E7FDF7AAFB23
:103F4000F8B974480078022803D072480078042831
:103F500005D16E48406838446C49486008E06D48B7
:103F60000078062804D16948006838446749086029
:103F7000052068494870002081F85600FDF752FE80
:103F8000D1E764484078052802D100206149487093
:103F9000604800780F287DD2DFE800F008091AAEEB
:103FA0001B1FAAACADAEAEAEAEAEAB00A9E057489B
:103FB0000068201A00D1A4E05748FDF719FD064615
:103FC0001EB900205349887001E05048046098E011
:103FD00000BF2046FDF778FC93E05048D0ED000A82
:103FE0004F4890ED021A70EEC10AB0EE600AFDF77C
:103FF0007FFEB0EE408A09F067FBF1EE000AB4EEF6
:10400000E00AF1EE10FA27D84448D0ED010A4448FE
:1040100090ED031A70EEC10AB0EE600A09F054FB8D
:10402000F1EE000AB4EEE00AF1EE10FA14D83B48C3
:10403000D0ED020A3A4890ED041A70EEC10AB0EED3
:10404000600A09F041FBF1EE000AB4EEE00AF1EE7D
:1040500010FA01D8012000E0002081462B480068BA
:10406000201AB0F5FA5F01D3012000E0002080465D
:10407000B9F1000F0CD1B8F1000F2BD0284808304F
:10408000FEF758FB30B326480830FCF707FD08B3AD
:10409000202200E030E01D49183101A8FCF753FA56
:1040A00000201A4908759DF8090028B9002103A8C5
:1040B000FFF7D8F9054607E0DDED060AB0EE600A25
:1040C00003A8FEF7AFFD05461DB121460620FDF70A
:1040D00085FC0CE0B8F1000F09D000200B490875F1
:1040E0000620FDF7E1FB21460620FDF777FC08E0FE
:1040F00007E000BF00BF04E021460620FDF76EFC8C
:1041000000BF00BFFDF78EFD00BF0CE7E80B0020ED
:10411000FC000020780B0020B4F00008D8F0000864
:10412000CC0800200F4890F8440028B10D4890F8C2
:10413000450008B1012000E000200A4981F846004E
:10414000084690F84400084981F87C00054890F83A
:10415000450081F87D00034890F8460081F87E0014
:104160007047000094090020CC08002010B50024FE
:104170005DE0674850F82400A0B3654850F824007B
:1041800090ED040A634800EB840080ED000A60486B
:1041900050F82400B0F90C0000EE100AB8EEC00A86
:1041A0005C480C3000EB840080ED000A584850F861
:1041B000240090ED020A5748183000EB840080ED8F
:1041C000000A534951F82400FEF7F2FC514924310A
:1041D00008554F4850F8240090F8AF01012802D14B
:1041E000012101E004E000214A48673001551CE04C
:1041F0009FED490A474800EB840080ED000A9FEDDF
:10420000460A44480C3000EB840080ED000A9FED24
:10421000420A4048183000EB840080ED000A00217B
:104220003C482430015543300155601CC4B2032C76
:104230009FD33A48006820B13848006890ED010AE1
:1042400001E09FED350A3348183880ED1C0A3448E8
:1042500090ED0A0A2F48183880ED1D0A304890ED7D
:104260000B0A2C48183880ED1E0A2D4890F844009F
:104270002849183981F87C00294890F8450081F8D0
:104280007D00274890F8460081F87E00FCF706FD87
:104290002048183880ED020A214890F8450030B3D4
:1042A0001F48D0ED0A0AB0EE601A1E480068D0ED33
:1042B000040AB0EE600ADFED1C0AFEF78BFC15481D
:1042C000183880ED030A1648D0ED0B0AB0EE601ADC
:1042D00016480068D0ED040AB0EE600ADFED140A5B
:1042E000FEF778FC0B48183880ED040A09E09FEDD2
:1042F0000A0A0848183880ED030A9FED070A80ED86
:10430000040A9FED050A0348183880ED050A10BD20
:104310005C080020E4080020000000006800002085
:10432000940900206C00002000003443700000203D
:10433000000034C310B50F48D0ED041AB0EE611A76
:10434000D0ED031AF0EE610AD0ED021AB0EE610A68
:10435000B030FDF77FFE074890ED030AD0ED040A68
:1043600030EE200A80ED300A90ED300A80ED2F0A01
:1043700010BD0000CC08002010B52DED068B0446C2
:10438000002C60D06B4890F84600E8B36A4800689B
:10439000FEF70EFCC0B369480068FEF709FC98B34D
:1043A00067480068FEF704FC70B394ED000A10EE55
:1043B000101A084608F090FA30B394ED010A10EE96
:1043C000101A084608F088FAF0B194ED020A10EECF
:1043D000101A084608F080FAB0B194ED000ADFED3B
:1043E000590AB4EEE00AF1EE10FA2CD394ED000A6B
:1043F000DFED550AB4EEE00AF1EE10FA23DC94ED9D
:10440000010AB5EEC00A00E01DE0F1EE10FA1AD381
:1044100094ED010ADFED4C0AB4EEE00AF1EE10FA79
:1044200011DC94ED020ADFED470AB4EEE00AF1EE8A
:1044300010FA08D394ED020ADFED440AB4EEE00A64
:10444000F1EE10FA03DD0020BDEC068B10BD4048F4
:1044500090ED000AFFF7DAF894ED001ADFED3D0A5F
:1044600040EE010AB0EE60AAB0EE4A0A00F074FC19
:10447000F0EE409AB0EE690AFEF720FDB0EE408AF9
:104480002C48D0ED0A0AB0EE601AD4ED010AB0EE65
:10449000600ADFED2D0AFFF709F9F0EE408A2548A2
:1044A000D0ED0B0AB0EE601AD4ED020AB0EE600A4D
:1044B000DFED240AFFF7FAF8B0EE409A18EE100A82
:1044C00008F00AFA48B118EE900A08F005FA20B18F
:1044D00019EE100A08F000FA08B90020B4E794EDCC
:1044E000000A1D4880ED210A94ED010A80ED220AA0
:1044F00094ED020A80ED230AC0ED299A80ED2A8A04
:104500001648C0ED008A80ED019AB0EE480A0A48CC
:10451000006800F075FFB0EE680A0848006800F017
:104520006FFFB0EE490A0648006800F069FF0120FD
:104530008AE7000094090020680000206C00002039
:1045400070000020000034C3000034430000AAC201
:1045500080000020A75E3E43CC080020940000208D
:1045600010B52DED028B7B4890F87E007A490870DB
:10457000784890F87C004870764890F87D00887004
:10458000084674498A8FA0F8032091F83E104171C3
:1045900070497F310A88C280897801726D4890ED38
:1045A0001C0A6D4880ED030A01466A4AD2E90203FB
:1045B0001269C1E90532086166488030D0E90123FB
:1045C000C068C1E90723486262488030D0E90C2303
:1045D000806BC1E90A2308635E48D0ED2C0A60EEC7
:1045E000A00A90ED2D1AD0ED2D1A41EE210AB0EE61
:1045F000600A08F079FD584880ED0D0A5548D0ED65
:10460000030A9FED561A60EE810AB0EE600A08F0C8
:10461000B3FBDFED530A20EE208A4E48D0ED030AAB
:1046200090ED041A70EE810A9FED4C1A60EE810A3B
:10463000B0EE600A08F0A0FBDFED4A0A00EE808AC7
:10464000454880ED0E8A434890ED2E0ADFED460A7C
:1046500030EE600A404880ED0F0A3E4890ED2F0A88
:104660003D4880ED100A9FED400A80ED110A9FED54
:104670003C0A80ED120A9FED3B0A80ED130A9FED84
:104680003B0A80ED140AB9EE000A80ED150A38489D
:1046900090ED020A304880ED160A354890ED030A85
:1046A0002D4880ED170A324890ED060A2A4880ED21
:1046B000180A2F4890ED070A274880ED190A9FED48
:1046C0002B0A80ED1A0A9FED2B0A80ED1B0A9FED45
:1046D0002A0A80ED1C0AD0ED1C1AB0EE611AD0ED4A
:1046E0001B1AF0EE610AD0ED1A1AB0EE610A7430AE
:1046F000FDF7B0FC1848D0ED1D0A60EEA00A90ED61
:104700001E1AD0ED1E1A41EE210AB0EE600A08F022
:10471000EBFC114880ED200A90ED1F0ADFED120A34
:1047200030EE600A80ED220A9FED140A08F024FBA7
:10473000DFED0B0A20EE208A9FED0C0A08F01CFB2F
:10474000DFED080A00EE808A034880ED218ABDEC87
:10475000028B10BDCC080020A80A002035FA8E3C40
:104760000000164300003343000008420000000030
:104770009409002000003443000034C3DB0F49409B
:1047800010B52B48D0ED080AB0EE600A08F097FF8C
:10479000DFED280AB4EEE00AF1EE10FA0DD9244854
:1047A000D0ED090AB0EE600A08F089FFDFED210ABA
:1047B000B4EEE00AF1EE10FA01D8002010BD1C485A
:1047C00090ED080ADFED1C0A80EE801A80ED0A1ACF
:1047D00090ED090ADFED190A80EE801A80ED0B1AC0
:1047E000D0ED0A0AB0EE600AFEF710FF104880ED27
:1047F0000C0AD0ED0B0AB0EE600AFEF707FF0C487A
:1048000080ED0D0A90ED0A0A10EE101A084608F025
:1048100063F850B1064890ED0B0A10EE101A0846E6
:1048200008F05AF808B10120C8E70020C6E70000E8
:104830009409002017B7D138000034C30000BE42ED
:1048400010B50246B1F90C00002800DA4042B0F57C
:10485000004F01DB47F6FF70044B33F912308342FF
:1048600003DA04B2014B23F8124010BD1A090020EC
:1048700010B50024BC48C078012802D1BB480468A8
:104880000CE0B948C078022802D1B948046805E0B4
:10489000B548C078032801D1B6480468B24800780A
:1048A000B5490870B04840794870AF48C078887002
:1048B000AD480079C870B14800780871AA4890F8EE
:1048C0007C004871A84890F87D008871A64890F84F
:1048D0007E00C8710846A4498A8F028191F83E1073
:1048E0008172A1497F310A88A0F80B208978417331
:1048F0009D49D1E902230969C0E904238161024687
:10490000994B18330BCB1C320BC29B49964BD3E906
:104910000920DB6AC1E90B038A620846924B3033F7
:104920000ECB34300EC094498F4880308269406984
:10493000C1E917028C488030026AC069C1E91902D6
:10494000894890ED030A084680ED200A864890EDDC
:10495000040A084680ED210A834890ED070A0846BC
:1049600080ED220A804890ED080A084680ED230A6F
:104970007D4890ED290A084680ED1B0A7A4890EDA3
:104980002A0A084680ED1C0A7748D0ED290A90EDE6
:104990001C1A70EEC10AB0EE600A00F0B9F9764850
:1049A00080ED1D0A0020744981F840006E4890EDAA
:1049B000210A084680ED110A6B4890ED220A08464C
:1049C00080ED120A684890ED230A084680ED130A2C
:1049D000654890ED2A0A084680ED140A684890ED73
:1049E000000A084680ED150A654890ED010A084660
:1049F00080ED160A5D48006820B15C48006890EDC3
:104A00005E0A01E09FED5F0A5B4880ED1E0A574891
:104A1000006820B15548006890ED400A01E09FED24
:104A2000590A554880ED1F0A5148006820B1504886
:104A3000006890ED680A01E09FED520A4E4880ED53
:104A4000270A4C48006820B14A48006890ED680A7F
:104A500001E09FED4C0A484880ED280A4448006870
:104A600020B14348006890ED5E0A01E09FED450AE1
:104A7000414880ED290A3F48006820B13D48006860
:104A800090ED5E0A01E09FED3F0A3B4880ED2A0A67
:104A90003748006820B13648006890ED400A01E0D0
:104AA0009FED380A344880ED2B0A3248006820B167
:104AB0003048006890ED400A01E09FED320A2E4830
:104AC00080ED2C0A2948006820B12848006890ED44
:104AD000220A01E09FED2B0A274880ED2D0A244889
:104AE000006820B12248006890ED220A01E09FEDA5
:104AF000250A214880ED2E0A1E48006820B11D4875
:104B0000006890ED220A01E09FED1E0A1A4880ED30
:104B10002F0A0020184981F8C00081F8C100C1F8AF
:104B2000C4001148D0F8AC00C1F8C8006CB194EDD5
:104B3000680A084680ED240A94ED5E0A80ED250A95
:104B400094ED400A80ED260A0CE09FED0E0A0A481B
:104B500080ED240A9FED0B0A80ED250A9FED090ADE
:104B600080ED260A10BD0000CC080020680000205F
:104B70006C00002070000020DC090020FC000020F8
:104B8000940000200000000010B59FED250A254884
:104B900080ED250A9FED240A80ED260A2348D0EDFA
:104BA0000A0AB0EE601A1F48D0ED250AB0EE600A7E
:104BB000DFED1F0AFEF77AFD1A4880ED270A1B4831
:104BC000D0ED0B0AB0EE601A1648D0ED260AB0EE12
:104BD000600ADFED180AFEF769FD124880ED280A29
:104BE0009FED150A80ED290A14480068B0B10D4800
:104BF0000079022812D00B48007903280ED009480A
:104C0000007904280AD007480079052806D09FEDCE
:104C10000A0AFEF753F9034880ED2A0A10BD000086
:104C200000002F43CC08002000002FC3940900206F
:104C300000003443000034C3A75E3E4368000020F8
:104C400070B500F0A7F804462D48007868B12D48EB
:104C500090F87F0048B92B4890F8800028B929487F
:104C600090F8810008B9012000E000202649087072
:104C700000204870234890F87E008870084621493B
:104C80008A8FA0F8032091F83E1041711D497F31B1
:104C90000A88C280897801721A4D08352ECD0C30F1
:104CA0002EC09FED1A0A1C3880ED060A154890EDBB
:104CB0001C0A154880ED070A124B18330ECB203022
:104CC0000EC011490F488030D0E90C23806BC1E938
:104CD0000B2348630B4890ED2F0A084680ED0E0A1F
:104CE00060888887207881F83E00002081F83F00A6
:104CF0000348007818B10846006C401C086470BD79
:104D0000A1000020CC080020340B0020000000008F
:104D100005E0DFED0E0A70EE600AB0EE600ADFED2E
:104D20000C0AB4EEE00AF1EE10FAF2DC05E0DFED79
:104D3000070A70EE200AB0EE600ADFED060AB4EE54
:104D4000E00AF1EE10FAF2D9704700000000B44317
:104D500000003443000034C305E0DFED0D0A70EEBF
:104D6000600AB0EE600ADFED0A0AB4EEE00AF1EE86
:104D700010FAF2DA05E0DFED060A70EE200AB0EE76
:104D8000600AB5EEC00AF1EE10FAF4D370470000E5
:104D90000000B4430048704700010020044800218F
:104DA0000160416040F2DC500149488001207047B9
:104DB0000001002000BFFEE710B5024801F010F826
:104DC00010BD000054C5012010B5024801F008F8DC
:104DD00010BD000054C5012010B5024801F000F8D4
:104DE00010BD00007CC5012010B5024800F0F8FF9E
:104DF00010BD00007CC5012010B58AB0044601201A
:104E0000069000200790207F00F0010080F0010054
:104E100004900E200990606B4001019020680D49BC
:104E2000884207D10C4800780B490978491C0A4A86
:104E3000117006E00948007808490978491C074ABA
:104E400011700590012008902068694600F03EFE30
:104E50000AB010BD54C5012025C0012026C0012084
:104E60007CB505460E463AE06B46214A3146284657
:104E700000F0D1FE00242EE01E4850F82400006807
:104E8000A84227D11A4800681A4951F82410496BE2
:104E900088421FD1174850F82400D0F83900C0B11B
:104EA0001348007C134951F8241081F83800104948
:104EB0000A69104951F8241001F12C006946FBF7EA
:104EC000FDFA0C4A52F8240052F82420D2F8391086
:104ED00088477CBD641C084800788442CCD33146A6
:104EE000284600F084FE0028BED100BFF1E7000094
:104EF0009C0300205C03002024C0012070B50546FF
:104F00002548007808B900F04BF8234800781028AD
:104F100001DB002070BD002111E0204850F8210085
:104F200000682A68904208D11C4850F82100406B64
:104F3000AA68904201D10020ECE7481CC1B2164893
:104F400000788142E9DB4120FBF712FA0446412157
:104F50002046FBF72AFB686860600021E160216160
:104F600008216161286820606868E061A868606362
:104F7000E868C4F839002869C4F83D002046FFF706
:104F80003BFF054801780078401C034A1070034835
:104F900040F821402046BDE724C001205C030020EA
:104FA00010B50B4801F0CFF90221094800F0D4FCFC
:104FB0001021074800F0D0FC064801F0C4F9022196
:104FC000044800F0C9FC1021024800F0C5FC10BDE7
:104FD00054C501207CC5012010B52DED028B04467F
:104FE000B0EE408A00F0F0FAF0EE408A11E000F0F6
:104FF000EBFA30EE680AB4EEC80AF1EE10FA08DDFA
:1050000012480068401C114908600020BDEC028B6A
:1050100010BD206800F0C9FE0028E8D000F0D4FAE6
:1050200030EE680A0A4880ED000A206804F1200387
:105030001A1D211D00F0A5FC30B104480068401C79
:10504000024908600020E1E70120DFE728C00120D5
:105050002CC001200346042B15D007DC7BB1012BAB
:105060000ED0022B0DD0032B12D10BE0202B0BD036
:10507000212B0AD0222B09D0232B09D107E008E0ED
:1050800007E006E005E004E003E002E001E000E004
:1050900000BF00BF002070470020704710B50022FD
:1050A0000449054805F035FA0449034805F022FA99
:1050B000002010BD34790020586C0020347100208D
:1050C00070B504460D462046296807F0D3FA2146FC
:1050D000034805F00FFA024805F0D8F9002070BD2A
:1050E000586C002010B503460C460021084610BD40
:1050F00000BF08F0D7F8012008F012FBF9E7000024
:105100002DE9F05F2DED028B4FF0000ABDE06D48F8
:1051100050F82A6006F11C0506F12804374694ED84
:105120005E0AB0EE408A2879012803D1B1EE480A20
:10513000B0EE408AA87800F04000D8B12888402816
:1051400018D1A879012807D1206828B1206890EDEE
:10515000000AF0EE408A03E097ED040AF0EE408A80
:10516000F0EE480AB0EE680A04F5807004F0FAFA2E
:10517000B0EE408AA87800F0080048B3287800F024
:10518000480028B3287A00F00A0040B1A06830B186
:10519000A06890ED000A30EE080AB0EE408AE87987
:1051A000012807D1606828B1606890ED000AF0EE30
:1051B000408A03E097ED020AF0EE408AF0EE480ADA
:1051C000B0EE680A04F1880004F0CCFAB0EE408A30
:1051D000287A00F0010040B1E06830B1E06890ED5D
:1051E000000A30EE080AB0EE408AA87800F001000C
:1051F00078B1B7F90C0000EE900AF8EEE00AB0EED4
:10520000600AF0EE480A04F1100004F0ABFAB0EEC8
:10521000408A6879012805D1BFEE000A28EE000A0D
:10522000B0EE408ABDEEC80A10EE100A0FFA80FBFD
:1052300096F8AC8196F8AD91CBF3072108EB881076
:10524000214A1044243000F8191008EB8810114648
:10525000084424304FEA4901491C00F801B096F88F
:10526000AF0180B9002108EB88101044243000F809
:105270001910002208EB88101349084424304FEA23
:105280004901491C42540AF1010A1048007882453C
:10529000FFF43DAF4FF0000A0DE00D4810F80A0092
:1052A00038B10AEB8A11084A8818B7EE000AFFF7EE
:1052B00093FE0AF1010ABAF1060FEED3BDEC028BA0
:1052C000BDE8F09FBCC6012031C0012030C00120E4
:1052D000B7C10120012180F8AF1170473EB50546E6
:1052E0002F4800780C2801DD00203EBD4FF4E0700F
:1052F000FBF73EF804464FF4E0712046FBF777F9E0
:1053000095F8000184F8AE01D5F8F410E161D5F804
:10531000F8102162D5F8FC00606205F13C0104F14F
:10532000380004F0E1FA05F1680104F1B00004F07E
:10533000DBFA05F1940104F5947004F0D5FA2868BD
:10534000A0626968E162E9686163A968216305F5A3
:105350008271204604F026F812494FF488704151BA
:10536000001D445105F58270FFF7C8FDC4F8A8017F
:105370000D4A07CA8DE807000294684600F0F4F968
:10538000C4F8B0012046FFF7A5FF05480178007872
:10539000401C034A1070054840F821402046A4E70D
:1053A00030C001200958000860ED0008BCC601208B
:1053B00010B50146002381F8AF31D1F8A8311B6840
:1053C000034CA34201D1012300E002231A4610BD81
:1053D00054C5012090ED010AD0ED050AF8EEE00A6F
:1053E0009FED051A00EE810A80ED060A9FED030A83
:1053F00080ED040A704700000000B4430000000084
:1054000080ED680A7047002180F8AF1170470000F6
:1054100010B5024800F0E2FF10BD0000B402002009
:1054200010B5024800F0DAFF10BD0000FCC50120F5
:1054300010B5024800F0D2FF10BD00005402002059
:1054400010B5024800F0CAFF10BD00005CC6012084
:105450000146087810381823B0FBF3F20848805C46
:10546000C865032A05D908686FF30900001D88651F
:1054700003E008686FF309008865886D70470000D5
:1054800040ED0008014600208A6A8B69CBB932B131
:10549000012A0DD0022A03D0032A10D10EE000BF4A
:1054A000CB6A03F08073B3F1807F00D1012007E065
:1054B000CB6AB3F1C07F00D1012001E000E000BF62
:1054C00034E08B69B3F5005F1AD132B1012A07D0FD
:1054D000022A03D0032A11D10AE000BF01200EE006
:1054E000CB6A03F08073B3F1807F00D1012006E026
:1054F000CB6AB3F1C07F00D1012000E000BF15E00E
:1055000032B1012A05D0022A04D0032A0CD103E0CB
:1055100000BF00BF012008E0CB6A03F08073B3F145
:10552000807F00D1012000E000BF00BF7047000075
:1055300008B50E480078B8B901200C4908700C482D
:10554000406800900B4900980968884204D20A48D4
:105550000068401C08490860054840680549086023
:1055600000200249087000BF08BD0000280000208C
:10557000001000E0180000201400002010B52DEDF0
:10558000028B82B004460E48406801902068019961
:10559000081A00EE100AF8EE400A0A4890ED000AD8
:1055A000B8EE400A80EE801AB0EE418A0198206081
:1055B000FFF7BEFFB0EE480A02B0BDEC028B10BD93
:1055C000001000E00800002010B52DED028B00F067
:1055D0005BF80F4880880E49096801EB4102C2EB75
:1055E000C11100EBC10000EE100AB8EE400A0848F5
:1055F000C08800EE900AF8EE600A9FED061A00EEF1
:10560000810AB0EE408AB0EE480ABDEC028B10BDB4
:10561000000000206F12833A10B50446134800685A
:1056200040F0807011490860002011494860084628
:10563000006840F0010008600E4860430E490860B1
:10564000084600684FF47A71B0FBF1F00B4908602E
:10565000094800680749B0FBF1F0094908600020DB
:1056600008490860FFF764FF10BD0000FCED00E092
:10567000001000E040420F00080000200C00002055
:10568000100000201400002038B529484068009020
:10569000FFF74EFF274800684FF0FF31A0FB0131B4
:1056A0000098181841F10001234A03C2234800233F
:1056B0002149026803C9FAF78AFE214A03C2204839
:1056C0000CC81E4800680024A2FB001503FB005014
:1056D00002FB04021848D0E90030591A60EB0200BE
:1056E000184AC2E9001016480068174908601748B0
:1056F00000231449026803C9FAF769FE1249888039
:10570000084680881149096841430E48D0E90030B5
:10571000591A60F100000E4AC2E900100D4800233A
:105720000B49026803C9FAF752FE0749C88038BD21
:10573000001000E0140000202000002008000020DD
:105740003000002038000020000000200C00002065
:10575000400000201000002001460889002801DDDB
:10576000012070470020FCE770B504461020FAF7CE
:10577000FFFD0546002028606860A860E860A0681A
:10578000E860208808B9642000E0208828806068EC
:105790006860608808B9642000E0608828812088FB
:1057A0002881054801780078401C034A107003489E
:1057B00040F82150284670BD50000020B80300205A
:1057C000018801817047000070B5002510E00B488A
:1057D00050F825402089002803DD2089401E2081C3
:1057E00004E0606810B16168E0688847681CC5B271
:1057F000034800788542EADB70BD0000B803002052
:1058000050000020704700002DE9F041074607F1E5
:105810002C05D7F83D603446D6F8B001FFF7D0FF2D
:1058200006F5DA70FFF7AAFE86ED6E0A6088208022
:105830006878297840EA01206080608800EE100ACC
:10584000B8EE400ADFED300A20EE200A84ED010AAE
:10585000E878A97840EA012000B200EE100AB8EE1C
:10586000C00ADFED2A0A20EE200AD4ED020A9FEDDD
:10587000281A01EE200A84ED020A6879297940EAA3
:10588000012000B200EE100AB8EEC00ADFED210AD6
:1058900020EE200AB4F90C0000EE900AF8EEE00ABF
:1058A0009FED1D1A01EE200ABDEEC00A10EE100A8F
:1058B00000B2A081A879A07360882188401AB0F551
:1058C000805F03DD6069401E606108E060882188B8
:1058D000401A10F5805F02DA6069401C60614FF485
:1058E000B4716069484300EE100AB8EEC00AD4ED06
:1058F000010A30EE200AD4ED060A30EE600A84ED8B
:10590000040ABDE8F0810000ACFF333D3433A3400E
:105910009899193E6666663FD0CCCC3D72B600BF02
:10592000FEE7000070B50A480468001D0568001D08
:105930000668344454B108220649204603F02FFA81
:10594000042204491031284603F029FA70BD0000F2
:10595000107AFF1F32C2012010B5024692F82030A3
:10596000012B01D0022B06D110684069084314684E
:105970006061002010BD506A40F480205062012018
:10598000F8E7F0B504460D461E4694F820702068EE
:105990008368A86800B900E000BF012F01D0022F82
:1059A0007DD103F0806030B903F0006018B903F0D6
:1059B000805000287ED0C3F3016101208840306010
:1059C000A86860B9B5F800C0E86840EA4C5C206897
:1059D00000F5C07000EB0110C0F800C00FE0D5E981
:1059E00001C040EACC00D5F80CC040EA0C00D4F865
:1059F00000C00CF5C07C0CEB011CCCF80000D5F805
:105A000010C0206800F5C07000EB0110C0F804C0A1
:105A1000287D01280ED1206800F5C07000EB011030
:105A2000406840F4807C206800F5C07000EB0110F5
:105A3000C0F804C0D079000692F806C040EA0C40D5
:105A400092F805C040EA0C2092F804C040EA0C002D
:105A5000D4F800C00CF5C07C0CEB011CCCF80C0099
:105A6000D078000692F802C040EA0C4092F801C0DB
:105A700040EA0C2092F800C040EA0C00D4F800C0C4
:105A80000CF5C07C0CEB011CCCF80800206800F57C
:105A9000C07000EB0110006840F0010C01E00FE065
:105AA00008E0206800F5C07000EB0110C0F800C0ED
:105AB0000020F0BD606A40F4001060620120F8E749
:105AC000606A40F4802060620120F2E7F0B504468D
:105AD0000A4694F82050012D01D0022D7ED1424972
