:020000040800F2
:10000000409101203103000855E900080DE2000885
:1000100051E9000839870008ED27010800000000B9
:100020000000000000000000000000007102000855
:10003000C597000800000000CD020008D5ED0008BB
:100040004B0300084B0300084B0300084B03000858
:100050004B0300084B0300084B0300084B03000848
:100060004B0300084B0300084B0300084B03000838
:10007000958D00084B0300084B0300084B03000854
:100080004B0300084B0300084B0300084B03000818
:1000900019880008298800084B0300084B03000852
:1000A0004B0300084B0300084B0300084B030008F8
:1000B0004B0300084B0300084B0300084B030008E8
:1000C0004B0300084B0300084B03000895ED0008A4
:1000D0004B0300084B0300084B0300084B030008C8
:1000E0004B0300084B0300084B0300084B030008B8
:1000F0004B030008D1EE00084B0300084B03000837
:100100004B0300084B0300084B0300084B03000897
:100110004B0300084B0300084B0300084B03000887
:10012000A58D00084B030008B58D0008C58D00089B
:100130004B0300084B0300084B0300084B03000867
:1001400039880008498800084B03000859E900086D
:100150004B0300084B0300084B030008C5F80008D8
:100160004B0300084B0300084B0300084B03000837
:100170004B0300084B0300084B030008000000007D
:100180004B0300084B03000800F002F800F060F891
:100190000AA090E8000C82448344AAF10107DA45E2
:1001A00001D100F055F8AFF2090EBAE80F0013F0D4
:1001B000010F18BFFB1A43F001031847F056010066
:1001C000305701000A444FF0000C10F8013B13F0C7
:1001D000070408BF10F8014B1D1108BF10F8015BA0
:1001E000641E05D010F8016B641E01F8016BF9D193
:1001F00013F0080F1EBF10F8014BAD1C0C1B09D1EA
:100200006D1E58BF01F801CBFAD505E014F8016B5B
:1002100001F8016B6D1EF9D59142D6D370470000ED
:100220000023002400250026103A28BF78C1FBD8FF
:10023000520728BF30C148BF0B6070471FB515F08B
:10024000A4FA9DE8030000F047FA1FBD10B510BDE9
:1002500000F0AEFA1146FFF7F1FF13F030FC00F0AA
:10026000CCFA03B4FFF7F2FF03BC00F0FDFA000084
:100270002C4B19680868B0E8F04F80F30988BFF389
:100280006F8F4FF0000080F311887047000000006E
:1002900008480068006880F308884FF0000080F389
:1002A000148862B661B6BFF34F8FBFF36F8F00DF64
:1002B00000BF00BF08ED00E0DFF80C00016841F46A
:1002C00070010160704700BF88ED00E0EFF3098026
:1002D000BFF36F8F134B1A681EF0100F08BF20ED8D
:1002E000108A20E9F04F106009B44FF0500080F3FD
:1002F0001188BFF34F8FBFF36F8F14F067FC4FF07F
:10030000000080F3118809BC19680868B0E8F04F54
:100310001EF0100F08BFB0EC108A80F30988BFF3FD
:100320006F8F70478C000020EFF30580704700004E
:100330000948804709480047FEE7FEE7FEE7FEE779
:10034000FEE7FEE7FEE7FEE7FEE7FEE704480549B5
:10035000054A064B70470000BDEE00088901000801
:1003600040910020409101204011012040110120C6
:1003700070B5064600F094F9056806F10B0020F010
:100380000704B4429CBF002070BD2B466A68BAB116
:100390001068A04210D304F1080188423CBF5068A5
:1003A000586007D35168101941601168091B01603A
:1003B00058601460101D70BD13465268002AE7D1C2
:1003C0002146284600F074F90028DED170BD70B5D2
:1003D0000446051F00F064F90068002C14BF44684F
:1003E00070BD002C18BFAC423CBF20466468F8D3F7
:1003F00001680A18AA4218BF456003D12A68054659
:100400001144016028684119A1421CBF6C6070BD95
:100410006168696021680844286070BD53EA020C75
:1004200000F069802DE9F04B4FF00006002B1FBF54
:10043000B3FA83F503FA05F424FA05F65E4012BF19
:100440001643B2FA82F502FA05F4C5F120051EBF83
:1004500022FA05FC44EA0C04203556EA044C4FEA23
:10046000144418BF641C4FF000084FF0000990427C
:1004700071EB030C39D3002919BFB1FA81F701FAE6
:1004800007F6B0FA80F700FA07F6C7F120071EBF9B
:1004900020FA07FC46EA0C062037B6FBF4FCA7EB73
:1004A0000507103F07F01F0BCBF120060CFA0BFBE2
:1004B0002CFA06F644BFB3460026202FA4BF5E46A2
:1004C0004FF0000B5BEA060C08BF4FF0010B19EB75
:1004D0000B09ABFB027C48EB0608C01B06FB02CCF9
:1004E0000BFB03CC71EB0C01C1E70B460246414606
:1004F0004846BDE8F08B13B54FF000004FF0000107
:10050000AFF30080BDE81C407047032A40F2308002
:1005100010F0030C00F0158011F8013BBCF1020F44
:10052000624498BF11F801CB00F8013B38BF11F8C5
:10053000013BA2F1040298BF00F801CB38BF00F8DC
:10054000013B11F0030300F02580083AC0F0088059
:1005500051F8043B083A51F804CBA0E80810F5E73D
:10056000121D5CBF51F8043B40F8043BAFF3008020
:10057000D20724BF11F8013B11F801CB48BF11F895
:10058000012B24BF00F8013B00F801CB48BF00F865
:10059000012B704710B5203AC0F00B80B1E818501D
:1005A000203AA0E81850B1E81850A0E81850BFF45D
:1005B000F5AF5FEA027C24BFB1E81850A0E81850FC
:1005C00044BF18C918C0BDE810405FEA827C24BF50
:1005D00051F8043B40F8043B08BF7047D20728BFDE
:1005E00031F8023B48BF11F8012B28BF20F8023B2D
:1005F00048BF00F8012B704702F0FF0343EA0322D3
:1006000042EA024200F002B84FF000020429C0F0B2
:10061000128010F0030C00F01B80CCF1040CBCF134
:10062000020F18BF00F8012BA8BF20F8022BA1EB86
:100630000C0100F00DB85FEAC17C24BF00F8012B6B
:1006400000F8012B48BF00F8012B70474FF0000263
:1006500000B5134694469646203922BFA0E80C50B8
:10066000A0E80C50B1F12001BFF4F7AF090728BF93
:10067000A0E80C5048BF0CC05DF804EB890028BF0F
:1006800040F8042B08BF704748BF20F8022B11F038
:10069000804F18BF00F8012B7047704770477047B4
:1006A00000487047E89000207047704770477047D7
:1006B00038B504460A4600206946AFF3008000289A
:1006C00008BF38BD02460099204600F04FF80120CF
:1006D00038BD012000F064B8F8B5AFF300800546DE
:1006E00000200C46102000BF0646A819A0420DD9D4
:1006F000324669460020AFF30080070008BF00F0D3
:100700004FF80098A04218BF0546C419FFF7C8FF6C
:1007100005600746F01D20F007004619284600F046
:100720000AF8B44208BFF8BDA21B31463868BDE8DC
:10073000F84000F01BB800210160C0E901107047CB
:100740001020704710B500F00DF8006810BD10B50E
:10075000044600F007F8046010BD00000048704730
:10076000E090002000487047E09000200346406879
:100770008C46002818BF88423CBF03464068F8D327
:1007800018681844884207D00CF1030020F00700D5
:10079000001D411A521A0146081D0A60FFF717BED4
:1007A00010B500F039F8BDE8104000F02FB87047E0
:1007B0007546FFF7D3FFAE4605006946534620F065
:1007C0000700854618B020B5FFF7C0FDBDE8204002
:1007D0004FF000064FF000074FF000084FF0000BFD
:1007E00021F00701AC46ACE8C009ACE8C009ACE8B0
:1007F000C009ACE8C0098D46704710B50446AFF398
:1008000000802046BDE81040FFF72BBD002801D036
:1008100000F02AB87047000010B5012805D000216B
:1008200003A000F027F8012010BD09A1F8E700009F
:1008300053494752544D454D3A204F7574206F66C9
:100840002068656170206D656D6F72790000000031
:100850003A2048656170206D656D6F727920636F15
:10086000727275707465640001491820ABBEFEE7B2
:100870002600020070B505460C460A2000E06D1CFB
:1008800000F011F835B128780028F8D102E0641C96
:1008900000F009F814B120780028F8D1BDE87040C4
:1008A0000A20AFF3008008B569468DF800000320E8
:1008B000ABBE08BD094948700E21084A11700021DD
:1008C00082F85610064A517591751175118202F120
:1008D000800100228A66CA660A677047840E00207B
:1008E000F80E0020F0EE400AF5EEC00AF1EE10FA24
:1008F00002D2B1EE600A7047B0EE600AFBE700007A
:1009000070B5064600251EE005EB8500104951F83C
:100910003040A4B13146204608F038FD78B194ED5E
:10092000010A10EE101A084612F06EF838B194ED74
:10093000020A10EE101A084612F066F808B90020F4
:1009400070BD681CC5B2032DDED30120F8E700009E
:1009500084CC0120002110E001EB8100094A52F80B
:10096000300030B101EB810052F8300090F84500C2
:1009700008B900207047481CC1B20329ECD30120FC
:10098000F8E7000084CC0120002110E001EB810099
:10099000094A52F8300030B101EB810052F83000C2
:1009A00090F8440008B900207047481CC1B20329E0
:1009B000ECD30120F8E7000084CC012010B500241E
:1009C0000BE004EB8401074A52F8310008F045FCC3
:1009D00008B1012010BD601CC4B2032CF1D300206B
:1009E000F8E7000084CC012070B50646002410E032
:1009F00004EB8400094951F8305045B1287E30B1EC
:100A00003146284608F0C2FC08B9012070BD601CC0
:100A1000C4B2032CECD30020F8E7000084CC012002
:100A200000210FE001EB8100084B53F830203AB170
:100A300092F84A0010B9506D052801D30120704783
:100A4000481CC1B20329EDD30020F8E784CC012073
:100A500010B50446204602F0A5FD08B9002010BDDF
:100A600094ED000ADFED1B0AB4EEE00AF1EE10FA95
:100A70002EDB94ED000ADFED180AB4EEE00AF1EE89
:100A800010FA25D894ED010ADFED140AB4EEE00A5D
:100A9000F1EE10FA1CDB94ED010ADFED110AB4EE61
:100AA000E00AF1EE10FA13D894ED020ADFED0D0A18
:100AB000B4EEE00AF1EE10FA0ADB94ED020ADFED83
:100AC0000A0AB4EEE00AF1EE10FA01D80120C6E7F6
:100AD0000020C4E70000B4C20000B44200000C4291
:100AE0000000344300003EC300000CC2014602294E
:100AF00001DC012070470020FCE7000070B50546CE
:100B00000F480078012800D100E0002004461CB9FD
:100B10000B480078022801D1012000E000200446A3
:100B200054B1074840780C2806D10548807818B998
:100B3000284602F037FD08B9002070BD0120FCE70F
:100B4000C4C70120012070477047000010B5044859
:100B5000807800B110BD05F07DFC00BFFAE7000011
:100B6000C4C7012070B52DED048B86B00546644ADC
:100B700007CA03AB07C39FED630AB0EE408A15B105
:100B8000B5F5C07F05D99FED5F0A06B0BDEC048BBB
:100B900070BD9FED5C0A5C4880EDC50A01247EE0D3
:100BA0009FED580AF0EE408A04EB4401574800EBF1
:100BB0008100D0ED000A601E00EB4001534800EBBD
:100BC000810090ED001A70EEC10AB0EE600A01F0EB
:100BD0004FFCB0EE409A12F068FF8DED000A04EB76
:100BE00044014A4800EB8100D0ED010A601E00EB91
:100BF0004001464800EB810090ED011A70EEC10AF9
:100C0000B0EE600A12F051FF8DED010A04EB4401D1
:100C10003E4800EB8100D0ED020A601E00EB40016F
:100C20003A4800EB810090ED021A70EEC10AB0EE76
:100C3000600A12F03AFF8DED020A002617E06846BE
:100C400000EB860090ED000A03A800EB8600D0EDD3
:100C5000000A80EE201AB0EE419AF0EE490AB0EE9A
:100C6000680A12F0E1F9F0EE408A701CC6B2032E59
:100C7000E5D39FED270AF4EEC08AF1EE10FA03D215
:100C80009FED230AF0EE408A38EE280AB0EE408A43
:100C9000204800EB840080ED008A601C84B2AC42E6
:100CA000FFF67EAF012D06D09FED190AB4EEC08A83
:100CB000F1EE10FA07D29FED130A134880EDC50A32
:100CC0009FED100A61E701200DE0124901EB800160
:100CD00091ED000AC0EE080A0E4901EB8001C1ED5A
:100CE000000A411C88B2A842EFDBB7EE000A681E7A
:100CF000084901EB800080ED000AB0EE480A44E7A5
:100D00004058010800000000F81E00200C100020D0
:100D1000BD3786350C220020F0EE401AF4EEE01AC2
:100D2000F1EE10FA02D2B0EE600A7047F4EEC11A8A
:100D3000F1EE10FA02DDB0EE410AF6E7B0EE610A1C
:100D4000F3E7000070B52DED0A8B8CB0B0EE408A51
:100D5000F0EE609AB0EE41AA06469FEDD70AF0EE9B
:100D6000408A002009900A900B903046FFF7FAFE67
:100D7000F0EE40AAD14AD2E900109268CDE907020C
:100D80000691CE4A0C3207CA03AB07C39FEDCC0ACB
:100D9000B4EEC08AF1EE10FA1EDDB7EE0E0A28EEB0
:100DA000000AC0EE290AB0EE609A9FEDC60A28EE4E
:100DB000000AC0EE0A0AF0EE60BAB0EE6B0A12F05A
:100DC00043FAB0EE40BAF0EE4B0AB0EE490A12F028
:100DD0002BF9F0EE408A00BFB7EE0E0A2AEE800A29
:100DE000F0EE400AB0EE680A12F01EF9F0EE408A0A
:100DF000012456E004EB4401B34800EB8100D0ED40
:100E0000000A601E00EB4001AF4800EB810090ED4E
:100E1000001A70EEC10AB0EE600A01F029FBB0EED4
:100E2000409A12F042FEDDED090A30EE200A8DED07
:100E3000090A04EB4401A44800EB8100D0ED010A4B
:100E4000601E00EB4001A04800EB810090ED011A0C
:100E500070EEC10AB0EE600A12F027FEDDED0A0A5C
:100E600030EE200A8DED0A0A04EB4401964800EBAF
:100E70008100D0ED020A601E00EB4001924800EBB9
:100E8000810090ED021A70EEC10AB0EE600A12F015
:100E90000CFEDDED0B0A30EE200A8DED0B0A601C16
:100EA00084B2B442A6DB00243BE009A800EB840036
:100EB00090ED000AF7EE0E0A20EE200A06A800EBDD
:100EC0008400D0ED000A80EE201AB0EE41BA09A8E5
:100ED00000EB840090ED000ADFED7A0A20EE200A94
:100EE00003A800EB8400D0ED000A80EE201AF0EE9B
:100EF00041BAB0EE6B0A12F0A7F9B0EE409AF0EEEC
:100F0000490AB0EE4B0A12F08FF8F0EE40BAF0EE5C
:100F10006B0AB0EE680A12F087F8F0EE408A601CA7
:100F2000C4B2032CC1D30124AAE0684800EB8400BA
:100F300090ED000A601E654901EB8000D0ED000ACB
:100F400030EE600AB0EE409A9FED610AB4EEC09AAE
:100F5000F1EE10FA00D291E004EB44015A4800EBA4
:100F60008100D0ED000A601E00EB4001564800EB06
:100F7000810090ED001A70EEC10AB0EE600A01F037
:100F800077FAB0EE40BA12F090FD8DED000A04EB56
:100F900044014D4800EB8100D0ED010A601E00EBDA
:100FA0004001494800EB810090ED011A70EEC10A42
:100FB000B0EE600A12F079FD8DED010A04EB4401F8
:100FC000414800EB8100D0ED020A601E00EB4001B9
:100FD0003D4800EB810090ED021A70EEC10AB0EEC0
:100FE000600A12F062FD8DED020A002543E06846BA
:100FF00000EB850090ED000AF7EE0E0A20EE200AC5
:1010000006A800EB8500D0ED000A60EE890A80EEAC
:10101000201AB0EE41BA684600EB850090ED000A58
:10102000DFED280A20EE200AF7EE000A20EE200A63
:1010300003A800EB8500D0ED000A60EE890A80EE7F
:10104000201AB0EE41CAB0EE4C0A12F0FDF8F0EEF4
:1010500040BAF0EE6B0AB0EE4B0A11F0E5FFB0EECD
:1010600040CAF0EE4C0AB0EE680A11F0DDFFF0EE77
:10107000408A681CC5B2032DB9D300BF601C84B27E
:10108000B442FFF652AF9FED130AF4EEC08AF1EEC0
:1010900010FA03D29FED0F0AF0EE408ADFED0E0A40
:1010A0009FED0E0A08EEA00ABCEEC00A10EE100A70
:1010B0000CB0BDEC0A8B70BD000000004C5801085C
:1010C0000AD7233C83C0B8400C1000200C2200201B
:1010D000BD3786356F12833A00007A4477BE7F3F72
:1010E0002DE9F0412DED068BF0EE409A064667485B
:1010F000008A01280AD86648D0E90521C069C6E9F6
:101100000021B060BDEC068BBDE8F081B7EE001A9F
:10111000DFED600AB0EE690AFFF7FEFDB0EE408A2F
:10112000B7EE000AB4EEC08AF1EE10FA07DB5748BA
:10113000008A401E84B22546DFED568A3FE000203B
:10114000524A128A521E91B211E00B1A00EB53035D
:101150009AB2514B03EB820393ED000AB4EEC80A36
:10116000F1EE10FA01D8104600E0114600BF421C13
:1011700092B28A42E9DB04460D46474A02EB8502F9
:1011800092ED000A444A02EB8402D2ED000A30EEEE
:10119000609A9FED420AB4EEC09AF1EE10FA09DDB2
:1011A0003D4A02EB840292ED000A78EE400A80EE9E
:1011B000890A01E09FED370AF0EE408A00BF05EB97
:1011C00045013348143000EB8100D0ED000A04EBF8
:1011D00044012F48143000EB810090ED001A70EEAE
:1011E000C10AB0EE600A01F043F904EB440128485B
:1011F000143000EB8100D0ED000A48EE800AB0EE1A
:1012000060AAB0EE4A0A01F033F986ED000A05EB58
:1012100045011F48143000EB810090ED010A04EBFA
:1012200044011B48143000EB8100D0ED010A70EE40
:10123000600A04EB44011648143000EB810090ED85
:10124000010A08EEA00A86ED010A05EB45011048E7
:10125000143000EB810090ED020A04EB44010C48CD
:10126000143000EB8100D0ED020A70EE600A04EB4E
:1012700044010748143000EB810090ED020A08EEAB
:10128000A00A86ED020A00BF3CE70000F80E00202D
:10129000F80F0020000000000C220020BD3786352A
:1012A00070B52DED028B05460C462B48D0F8B000EA
:1012B00078B12948D0F8AC00281A00EE100AF8EEF0
:1012C000400A254890ED2C0AB8EE401A80EE810ABB
:1012D00001E0B7EE000AB0EE408AB7EE001ADFED8B
:1012E0001F0AB0EE480AFFF717FDB0EE408A1A4811
:1012F000D0ED340A90ED311A70EEC10AB0EE600AFA
:1013000001F0B6F81448D0ED310A48EE000AF0EECC
:10131000608AB0EE680A01F0ABF884ED000A0E486E
:1013200090ED350AD0ED320A70EE600A90ED320A87
:1013300008EE200A84ED010A90ED360AD0ED330A5A
:1013400070EE600A90ED330A08EE200A84ED020A7E
:10135000BDEC028B70BD0000F80E00200000000004
:1013600070B52DED028B04460D46D5ED000A94EDC7
:10137000001A70EEC10AB0EE600A01F079F8B0EE22
:10138000408A12F092FBF1EE040AB4EEE00AF1EEAC
:1013900010FA25D8D5ED010A94ED011A70EEC10AB4
:1013A000B0EE600A12F081FBF0EE000AB4EEE00A43
:1013B000F1EE10FA14D8D5ED020A94ED021A70EE8F
:1013C000C10AB0EE600A12F070FBF0EE000AB4EE53
:1013D000E00AF1EE10FA03D80120BDEC028B70BDDB
:1013E0000020FAE710B52DED028B0446B0EE408ADE
:1013F000204601F025F8F0EE408AF4EEC88AF1EEBE
:1014000010FA1DDD9FED100AF4EEC08AF1EE10FA1D
:1014100016DDC8EE280AB0EE600AD4ED000A60EED0
:10142000800AC4ED000AD4ED010A60EE800AC4ED22
:10143000010AD4ED020A60EE800AC4ED020A00BF80
:10144000BDEC028B10BD0000BD3786351648007814
:10145000012800D100E00020014619B912480078A7
:10146000022801D1012000E0002001460E48C0788A
:10147000C0B10D480079A8B10B48407990B10A4835
:1014800040780C280ED169B10748807850B90648D9
:10149000C07938B10448007A20B10348407A08B1D5
:1014A000012070470020FCE7C4C701201249D1ED9C
:1014B000090A91ED061A30EEC11AD1ED060A40EE86
:1014C000010AC0ED000AD1ED0A0A91ED071A30EECB
:1014D000C11AD1ED070A40EE010AC0ED010AD1EDB3
:1014E0000B0A91ED081A30EEC11AD1ED080A40EE50
:1014F000010AC0ED020A7047F80E002070B52DED0C
:10150000048B04460D4695ED000AD4ED000A30EE3A
:10151000600AB0EE409A95ED010AD4ED010A30EE72
:10152000600AB0EE408A95ED020AD4ED020A30EE70
:10153000600AF0EE408A69EE090A48EE080A48EEB1
:10154000A80AB0EE600A11F07FFEBDEC048B70BDFE
:1015500010B52DED048BF0EE408AB7EE001ADFEDEA
:101560000F0AB0EE680AFFF7D7FBB0EE408A28EE0C
:10157000080AB0EE409A29EE080AF0EE409ABAEE58
:101580000E0AF1EE080A00EE880AF2EE040A48EEAE
:10159000000A20EEA90ABDEC048B10BD000000007B
:1015A00010B52DED028BF0EE408AB7EE001ADFED9C
:1015B0000E0AB0EE680AFFF7AFFBB0EE408A9FED6F
:1015C0000B0A28EE000AF7EE000A70EEC80A60EE79
:1015D000200AB7EE000AB0EE001A01EE480A20EE2B
:1015E000800ABDEC028B10BD0000000000007042BC
:1015F00010B52DED048BB0EE409AB7EE001ADFED7A
:101600000D0AB0EE490AFFF787FBB0EE408AB7EE4D
:10161000000A30EE480AF0EE408AB3EE0E0A28EED9
:10162000000A20EE080A20EE280A20EE280ABDEC67
:10163000048B10BD00000000064981F85400002111
:10164000044A82F8551082F856101146C96D491C9B
:10165000D1657047840E00200C480021016341636E
:101660008163C163016441646030018081706038CE
:1016700041668166C166064881818173A0F58070EC
:10168000A0F80F1180F811117047000094CA0120D2
:10169000F80F002070B52DED048B84B005465B4833
:1016A00040682C1A5948C068A04201D85748C468FD
:1016B0005648C06858B1554890ED030AF8EE400A04
:1016C00000EE104AB8EE401A81EE200A01E0B7EEB3
:1016D000000AF0EE408AB0EE680AFFF739FFB0EE7C
:1016E000408A4A48C07D02281FD14848007D28B161
:1016F0004648D0F8A800281A022811D3B0EE480AAC
:10170000284600F007FB58B94048007D40B93F48E3
:101710004068401C3D49486004B0BDEC048B70BD7E
:1017200001A92846FFF7BCFD04E001A8B0EE480A75
:10173000FFF7D6FC01A805F0D1FDA0B93348C07C65
:1017400038B93348C06D401C3149C86501202F4964
:10175000C87400202E4981F856002C484068401C6F
:101760002A494860D8E7294890F88D00012806D119
:1017700001A800F0A9FAB0EE409A04F057FC00204E
:101780002249C8740120224981F85600084684661F
:1017900080ED188A01A90EC910300EC01B48C06820
:1017A000A04230D81948008A401E86B206EB460295
:1017B000184901EB820005F091FD144890F88D0066
:1017C00001280AD106EB4602124901EB820000F023
:1017D0007BFAB0EE409A04F029FC06EB46010D4876
:1017E00000EB81000A49D0E900238068C1E90423A5
:1017F0008861B7EE000A084680ED180A29460620DF
:1018000000F014FA00BF00BF86E70000F80E0020C9
:10181000840E00200C10002070B52DED048B9EB0BE
:1018200004460D4600EE105AB8EE400ADFEDFA0A03
:1018300020EE200AB0EE408AF8480146D1E91A327B
:10184000096FC0E91D32C1678038D0F8B400201A92
:1018500064280CD90120F14980398875EF480021AE
:101860008166C16601671EB0BDEC048B70BD0020AF
:10187000EA4980398875B5EEC08AF1EE10FA00D8D1
:10188000F1E7E648803890ED1A0AD0ED0C0A30EE08
:10189000600A8DED0D0A90ED1B0AD0ED0D0A30EEB9
:1018A000600A8DED0E0A90ED1C0AD0ED0E0A30EEA6
:1018B000600A8DED0F0A0DA800F0C2FDF0EE408A1F
:1018C000D6488038D0ED1E0AB0EE001A60EE810ACC
:1018D00060EEA80AB0EE600A11F0B6FCB0EE409AD5
:1018E000CE488038D0ED1D0AB0EE600AF0EE490A0D
:1018F00011F0BEFBF0EE409A0DA807C80AAB07C373
:10190000B0EE690A0AA800F09BF99DED0A0AC348E7
:101910008038D0ED3A0A30EE600AC0EE080ACDED0C
:10192000070A9DED0B0AD0ED3B0A30EE600AC0EECF
:10193000080ACDED080A9DED0C0AD0ED3C0A30EE08
:10194000600AC0EE080ACDED090AD0ED1E0AB0EE1D
:10195000600A07A8FFF746FD002014E0AF49683190
:1019600001EB800191ED000A07A901EB8001D1EDA7
:10197000000A00EE880AA949683101EB800181ED77
:10198000000A411CC8B20328E8D3A4488038D0ED2F
:101990001D0AB0EE600AE830FFF724FD9F4880384A
:1019A00090ED3A0A20EE080A8DED040A90ED3B0A0C
:1019B00020EE080A8DED050A90ED3C0A20EE080A9B
:1019C0008DED060A9FED960AF4EEC08AF1EE10FA4C
:1019D00018D99DED040ADDED0D0A20EE200ADDED9B
:1019E000050A9DED0E1A00EE810ADDED060A9DED59
:1019F0000F1A00EE810A68EEA80AB4EEE00AF1EED2
:101A000010FA0EDB854980390846D0E91A23006FA9
:101A1000C1E90C238863814800218166C1660167A2
:101A200019E07E48803890ED0C0ADDED040A30EEB6
:101A3000200A80ED0C0A90ED0D0ADDED050A30EE6E
:101A4000200A80ED0D0A90ED0E0ADDED060A30EE5B
:101A5000200A80ED0E0A714A803A303207CA13AB71
:101A600007C36E48803890F88C00012817D110A960
:101A700013A804F001F8B0B9684800218166C16676
:101A800001670020674981F85600012081F857005E
:101A900081F858000846C06D401CC865E3E613A8ED
:101AA00007C810AB07C35D488038D0F8A800201ADB
:101AB00002286CD30026202116A8FEF7C7FD16AA1F
:101AC0005649503110A801F0BDFA08B1012629E0AD
:101AD0009DED1D0AF6EE000AB4EEE00AF1EE10FAF2
:101AE00001DD02261EE017A801F05CFD08B90326FF
:101AF00018E017A8FEF7ACFF08B9042612E0474823
:101B0000803890F88C00012805D117A800F02AFA37
:101B100008B9042606E017A940485030FFF720FC1A
:101B200000B9052696BB3D480146D1E91423896DCD
:101B3000C0E91123C16417A90EC950300EC0DC38AA
:101B400013A90EC93C300EC0483890F88C0001280B
:101B500005D13248803813A90EC954300EC02F4821
:101B60008038C0F8AC4002202C498039C1F8B00060
:101B70000846C0F8A84000202A4981F854000120F6
:101B800081F85600002081F857001CE000E01BE0BF
:101B9000224800218166C1660167803803463C33D4
:101BA0000ECB30300EC09DF858001E4981F854000D
:101BB000002081F85600084680F8576080F8586089
:101BC000C06D401CC86500BF01A92046FFF768FB37
:101BD00001A805F083FB88B1124801A90EC9103095
:101BE0000EC00E48803890F88C00012806D101A85C
:101BF00000F06AF8B0EE409A04F018FA074880380E
:101C00004068201A074988669FED070A084680ED5C
:101C1000180A00BF27E600006F12833A780F0020F1
:101C2000CDCC4C3D840E002000000000024A107014
:101C3000024A116070470000840E0020F80E002058
:101C400010B52DED028B0446B0EE408A204600F020
:101C5000F7FBF0EE408A9FED1A0AF4EEC08AF1EE2F
:101C600010FA04D9B5EEC08AF1EE10FA0ED89FED45
:101C7000150A84ED000A9FED130A84ED010A9FED19
:101C8000110A84ED020ABDEC028B10BD88EE280A11
:101C9000D4ED000A20EE200A84ED000A88EE280A1E
:101CA000D4ED010A20EE200A84ED010A88EE280A0C
:101CB000D4ED020A20EE200A84ED020A00BFE2E71A
:101CC000BD3786350000000010B504467CB194EDA8
:101CD000010A10EE101A084610F0A8FE38B194ED73
:101CE000020A10EE101A084610F0A0FE10B99FED7F
:101CF000070A10BD94ED010AD4ED020A9FED041A03
:101D000071EE600A30EE200AF3E700000000C07FA9
:101D1000000034C310B52DED028B8EB00446B0EE3A
:101D2000408A0BA8B0EE480AFFF7C0FB454890F880
:101D30008D0001280CD10BA90BA803F09DFE38B92A
:101D40000420FFF779FC00200EB0BDEC028B10BD23
:101D50003C48007D88B13B488030D0E91412806D4A
:101D6000CDE900120290374880300146D1E91423B2
:101D7000896DC0E91123C1640AE0334A103207CAF1
:101D80008DE807002F4880309DE80E0044300EC0DB
:101D9000202103A8FEF75AFC03AA69460BA801F00C
:101DA00051F9F0B99DED0A0AF6EE000AB4EEE00A28
:101DB000F1EE10FA15DC04A801F0F4FB88B104A8D8
:101DC000FEF746FE68B11F4890F88D00012803D148
:101DD00004A800F0C7F820B104A96846FFF7C0FACC
:101DE00098B99DF80C00184981F85400002081F83A
:101DF00056001448C07C30B90846C06D401CC86508
:101E000001201049C87400209EE70E48803004A9C4
:101E10000EC950300EC0DC38C0F8AC400220094971
:101E2000C1F8B0000846C0F8A8400120087500209D
:101E3000C874054981F85400012081F8560000BF9C
:101E400082E70000F80E0020840E00202DE9F04704
:101E50002DED028B04460E46B0EE408AF0EE608A0D
:101E6000174698460A9D3B48008A401E1FFA80F993
:101E7000384894E80E0024300EC0303890F88D00B9
:101E800001280AD13348803094E80E0010300EC08B
:101E90000146204603F0F0FD0AE02E48803094E829
:101EA0000E001C300EC0283894E80E0010300EC012
:101EB0002848C660456080ED2E8AC0ED2F8AC77520
:101EC00000202449C87408750846C0F8A850C0F816
:101ED000AC500220C1F8B00000204875887521463A
:101EE0001C481830FFF70AFB1A4880ED300A1A4ADE
:101EF00000F58070D0E90531C069C2E90431906114
:101F000009EB4901154800EB810310460ECB1C304C
:101F10000EC0283894E80E0048300EC000200E494C
:101F200081F85400012081F8550081F856009FED9A
:101F30000C0A084680ED180A002088664870FFF7F2
:101F40008BFB29464046FFF771FEBDEC028BBDE8D6
:101F5000F0870000F80E0020840E00200C100020F6
:101F60000000000010B52DED028B04462046FFF75F
:101F7000ABFEB0EE408AB0EE480A03F037FFF0EE59
:101F8000408AB0EE680A03F061FFBDEC028B10BD21
:101F900070B52DED048B84B006460D46EE4890EDED
:101FA000030AB8EE400ADFEDED0A20EE200AB0EE9B
:101FB000408AB5EEC08AF1EE10FA0CDDE84890EDEB
:101FC0001A0AF8EE400AE44890ED030AB8EE401A07
:101FD00080EE810A01E0B7EE000AF0EE409AE14897
:101FE000E14BD3E907215B6AC0E9011302600246B5
:101FF000DB4B10330BCB0C320BC2DA48D84B1C3303
:102000000ECB18300EC02438D74B54330ECB48308B
:102010000EC05438D44B60330ECB54300EC0002465
:10202000CFE094B9CE48103000EB8400D0ED000A28
:10203000CD481C3000EB840090ED001A70EEC10A10
:10204000B0EE600A00F014FA0DE0C548103000EB65
:10205000840090ED000AC4481C3000EB8400D0EDF1
:10206000000A30EE600AB0EE409A94B9BC481C30C9
:1020700000EB8400D0ED000ABB481C3000EB84006C
:1020800090ED001A70EEC10AB0EE600A00F0F0F9AF
:102090000DE0B3481C3000EB840090ED000AB2481C
:1020A0001C3000EB8400D0ED000A30EE600AF0EE48
:1020B000408AAC48243000EB840080ED009AB0EEFA
:1020C000490A11F0F2FCA748303000EB8400D0ED53
:1020D000000AB4EEE00AF1EE10FA09DDB0EE490AAA
:1020E00011F0E3FC9F48303000EB840080ED000AE3
:1020F0009E48005D98B9B0EE680A11F0D6FCDFED9D
:102100009C0AB4EEE00AF1EE10FA08DD97480C38AC
:1021100000EB8400C0ED008A0121944801559348EA
:10212000005D80B191480C3800EB840090ED000A0E
:1021300020EE280AB5EEC00AF1EE10FA03D2012112
:102140008A48C01C01558948C01C005DC0B1B0EE72
:10215000680A11F0AAFC83483C3000EB8400D0ED03
:10216000000AB4EEE00AF1EE10FA09DDB0EE680AFA
:1021700011F09BFC7B483C3000EB840080ED000AB2
:10218000B0EE490A11F091FCF1EE040AB4EEE00A57
:10219000F1EE10FA0CDD0121724860300155001D8E
:1021A00050F8240041196F48643040F8241006E0CC
:1021B00000216C4860300155001D40F82410601C5F
:1021C000C4B2032CFFF42DAF6348407DE8B300EEAA
:1021D000105AB8EE400ADFED610A20EE200AF0EE58
:1021E000408A5D48D0ED3A0A60EEA00A90ED3B1AB5
:1021F000D0ED3B1A41EE210A90ED3C1AD0ED3C1A8D
:1022000041EE210AB0EE600A11F01EF8554880ED4B
:102210001C0A514890ED3A0AD0ED3D0A30EE600AB2
:102220008DED010A90ED3B0AD0ED3E0A30EE600ADA
:102230008DED020A90ED3C0AD0ED3F0A30EE600AC7
:102240008DED030AF5EEC08A00E021E0F1EE10FA10
:1022500018DDDDED010A60EEA00A9DED021ADDED4C
:10226000021A41EE210A9DED031ADDED031A41EE3B
:10227000210AB0EE600A10F0E7FFF0EE400A80EEAF
:10228000A80A01E09FED3B0A364880ED1D0A31E0C7
:10229000B5EEC08AF1EE10FA0BDDB0EE690AFFF779
:1022A000A7F92D48D0ED300A60EE200A80EE880AAA
:1022B00001E09FED300A2B4880ED1C0AB5EEC08A84
:1022C000F1EE10FA11DDB0EE690AFFF769F9F0EEF0
:1022D000408A11F0EAFB2048D0ED300A60EE200A77
:1022E00028EE081A80EE810A01E09FED220A1D48BF
:1022F00080ED1D0A1A48806E1A4988671648C06822
:10230000C86717480078052803D113480068301AB9
:1023100000E000201349C1F880000F48407D81F89B
:1023200088000D48807D81F889000B48006EC1F857
:102330008C000948407D20B10748D0F8B400301A1D
:1023400000E000200749C1F88400084604F084FC3E
:1023500004B0BDEC048B70BDF80E00206F12833A00
:10236000840E002094CA0120C4C70120041000205C
:102370000AD7233C0000000010B52E482E4BD3E9AD
:1023800007215B6AC0E902134260002429E094B986
:1023900028481C3000EB8400D0ED000A26481C3091
:1023A00000EB840090ED001A70EEC10AB0EE600AF6
:1023B00000F05EF80DE01F481C3000EB840090ED4B
:1023C000000A1D481C3000EB8400D0ED000A30EEFE
:1023D000600A1848283000EB840080ED000A601C79
:1023E000C4B2032CD3D3134913488030D0E90A2355
:1023F000006BC1E90F2348644831A1F10C00FFF7DD
:102400007DF80C4880ED1C0A0B49B1F80720828644
:10241000497A80F83610373007494A890280097BAB
:1024200081700648C068034948660448008AA1F8DC
:102430006C0010BD840E0020C4C70120F80E0020DF
:1024400010B50446D4ED000A60EEA00A94ED011A1E
:10245000D4ED011A41EE210A94ED021AD4ED021ACC
:1024600041EE210AB0EE600A10F0EEFE10BD000051
:1024700005E0DFED0E0A70EE600AB0EE600ADFEDF7
:102480000C0AB4EEE00AF1EE10FAF2DC05E0DFED42
:10249000070A70EE200AB0EE600ADFED060AB4EE1D
:1024A000E00AF1EE10FAF2D3704700000000B443E6
:1024B00000003443000034C370B52DED028B054697
:1024C000B0EE408A05EB85001C4901EBC0049FED8E
:1024D0001C0AF0EE408A18EE100A10F095FA18B9AE
:1024E0000020BDEC028B70BD94ED040A30EE680A4A
:1024F000B4EEC80AF1EE10FA0AD894ED050A30EEEF
:10250000280AB4EEC80AF1EE10FA01DB0120E8E770
:1025100094ED060A30EE680AB4EEC80AF1EE10FA3D
:102520000AD894ED070A30EE280AB4EEC80AF1EE94
:1025300010FA01DB0220D4E70320D2E784CC01208B
:10254000CDCC4C3E01460548C26C12B1881A002819
:1025500001DD012070470020FCE7000024CD0120B0
:1025600010B504460CB9012010BD2046FFF7EAFF64
:1025700058B108488069A04207D00648006AA042C6
:1025800003D00448806AA04201D10120ECE700207A
:10259000EAE7000088CB01202DE9F0412DED028B08
:1025A0000546B0EE408A0F464DB118EE100A10F005
:1025B0002BFA20B1B5EEC08AF1EE10FA04D8002053
:1025C000BDEC028BBDE8F08100241FE005EB840028
:1025D00090ED000A10EE101A084610F015FA08B92E
:1025E0000020EDE705EB8400D0ED000AB0EE600AB4
:1025F0002046FFF761FF064626B1032E02D01FB921
:10260000012E01D00020DBE7601CC4B2032CDDD317
:10261000002411E005EB8400D0ED000AB0EE600A62
:102620003A46F0EE480A2946204602F0EBFC08B98B
:102630000020C5E7601CC4B2032CEBD30120BFE728
:102640000146002903DD082901DC01207047002034
:10265000FCE7000070B500240AE004EB84000649A2
:1026600051F8305015B1284606F09DFD601CC4B2EB
:10267000032CF2D370BD000084CC012010B52DEDE9
:10268000028BB0EE408A0D4890F8240020B99FEDEF
:102690000C0ABDEC028B10BD18EE100A10F0B4F954
:1026A00010B99FED080AF4E79FED070A38EE400ADB
:1026B000F7EE000A20EE200AEBE70000FCCC012038
:1026C000000000000000C07F00003443F0EE400A2C
:1026D0009FED020A30EE600A70470000000034C32C
:1026E000F0EE400A9FED020A30EE600A70470000EB
:1026F000000034C310B50B2001F0B8F810BD000085
:10270000F0B52DED048B89B0044624B9032009B03F
:10271000BDEC048BF0BD207E08B10420F7E72079E2
:1027200020B12079012801D00320F0E794F820009F
:10273000D8B194ED090A10EE101A084610F064F9A9
:1027400088B194ED090ADFED5C0AB4EEE00AF1EE1F
:1027500010FA08D394ED090ADFED580AB4EEE00A46
:10276000F1EE10FA01DD0320D1E794F8200010B15A
:1027700094ED090A01E003F0D9F8F0EE408A94EDF7
:10278000021AF0EE410A94ED031AB0EE410A10F07D
:1027900017FADFED4B0A20EE208A4A48007801281C
:1027A0000ED1484840780C280AD14648807838B97C
:1027B0009FED450A02F026FF10B903F05FFA08B951
:1027C0000220A4E703F0D4FE08B101209FE73D48B2
:1027D00090ED070AF0EE400AB0EE680A03F044FB01
:1027E00030B1F0EE480AB0EE680A03F03DFB08B9DC
:1027F00006208CE7202101A8FDF728FF607978B931
:102800002079012805D101A904F1080002F0A6FCF5
:1028100004E001A904F1080002F028FB05461FE0CE
:1028200094ED050AB5EEC00AF1EE10FA02DD94ED62
:10283000050A01E09FED250AB0EE409A20790128B3
:1028400006D1B0EE490A04F1080001F095FA05E05E
:10285000B0EE490A04F1080001F02AF9054600BF6C
:10286000DDB994F82000B0B1D4ED090AB0EE600AE9
:1028700003F0AEFB06461EB103F0ECFD304646E722
:1028800008F056F80746D4ED090AB0EE600A39465A
:10289000206800F023FA002039E7012D01D1012042
:1028A00035E7022D01D1022031E7032D01D10320AC
:1028B0002DE706202BE700000000B4C20000B44260
:1028C000E02E6542C4C7012000008C420000E143B5
:1028D00070B52DED028B044624B104F1080000F020
:1028E00061FE18B90320BDEC028B70BD254800784D
:1028F00001280ED1234840780C280AD1214880783D
:1029000038B99FED210A02F07DFE10B903F0B6F947
:1029100008B90220E7E703F02BFE08B10120E2E747
:1029200003F004F8B0EE408A164890ED070AF0EE86
:10293000400AB0EE480A03F097FA40B194ED020A5B
:10294000F0EE400AB0EE480A03F08EFA08B906200D
:10295000C9E7207920B904F1080003F09DFE03E0E7
:1029600004F1080003F020FE05460DB90020BAE787
:10297000012D01D10120B6E7022D01D10220B2E7DD
:102980000620B0E7C4C7012000008C4210B52DED31
:10299000028B044634B194F8240018B10420BDEC35
:1029A000028B10BD1A48007801280ED118484078D3
:1029B0000C280AD11648807838B99FED160A02F023
:1029C00021FE10B903F05AF908B90220E7E7C4B1B3
:1029D00094ED021AF0EE410A94ED031AB0EE410AAA
:1029E00010F0EEF8DFED0C0A20EE200AB0EE408A7F
:1029F00002F09CFFF0EE408AF0EE480A03F034FA51
:102A000008B90620CBE7204603F0C4FEC7E7000064
:102A1000C4C7012000008C42E02E65422DE9F04140
:102A200004463248007801280DD1304840780C28FF
:102A300009D12E48807830B99FED2D0A02F0E2FDD1
:102A400008B9012000E00020054614B90320BDE8C4
:102A5000F0812078072845D2DFE800F045040C110A
:102A60001B252F000DB90220F1E7012003F068FAC1
:102A70000020ECE7002003F063FA0020E7E70DB93F
:102A80000220E4E7D4ED010AB0EE600A03F070FA28
:102A9000DDE70DB90220DAE7D4ED020AB0EE600AF4
:102AA00003F07EFAD3E70DB90220D0E7D4ED020A95
:102AB000B0EE600A03F08CFAC9E7002003F040FA98
:102AC0000A48D0ED300AB0EE600A03F0AFFA0646CD
:102AD0009FED080A03F07CFA07460EB13046B6E7D0
:102AE0003846B4E700BF0320B1E70000C4C70120A7
:102AF00000008C420000000010B52DED0A8BF0EEB6
:102B0000409AB0EE608AB0EE41AA044614B9BDEC1A
:102B10000A8B10BD9FED2D0A69EE80AA9FED2B0A4E
:102B200028EE00BAB0EE4A0AFFF7DAFD30EE080AE6
:102B3000DFED260A60EE20BAB0EE4B0A10F0CCF9B9
:102B4000DFED230A60EE20CAB0EE6B0A10F0C4F984
:102B5000DFED1F0AB0EE6CCA00EE80CA9FED1D0AC1
:102B60007CEE008A9FED1B9AB0EE6A0A10F0B4F971
:102B700060EE28CAB0EE6A0A10F09EFA49EE40CA2A
:102B8000C4ED00CAB0EE6A0A10F096FA60EE28CAE8
:102B9000B0EE6A0A10F0A0F949EE00CAC4ED01CA0D
:102BA000B0EE4B0A10F088FADFED0BCADFED080A31
:102BB00040EE80CAB0EE6B0A10F07EFADFED040A38
:102BC00040EE80CAC4ED02CA00BFA0E735FA8E3CD1
:102BD00000008243000000000000784270B5054606
:102BE0000DB9002070BD00BFEFF31080044672B62F
:102BF000BC2204492846FDF7CDFC04B962B6012089
:102C0000F0E7000088CB012030B5094CA06284F8C1
:102C10002C1084F82D2084F82E30246A844206D1AA
:102C20000024034D2C6285F8244085F8254030BDF2
:102C300088CB01202DE9F04104460D4617461E467B
:102C40000CB9BDE8F0813A462946204600F024F848
:102C50000448846280F82C5080F82D7080F82E6033
:102C600000BFEEE788CB012010B50446084890F875
:102C7000300028B1064A11791068224600F00CF89D
:102C80000020034981F8300002498861087710BDAF
:102C900024CD012088CB012010B500B910BD094B0F
:102CA000186383F8341083F835201B6A834206D1F9
:102CB0000023044C236284F8243084F8253000BFBC
:102CC000ECE7000088CB0120034B186283F8241046
:102CD00083F825207047000088CB01200122054B96
:102CE00083F850201A46506582ED170A01F51672D6
:102CF0009A65704724CD01200146084890F850009D
:102D000008B9002070470548806D081A04D40020D7
:102D1000024A82F85000F5E70120F3E724CD0120B4
:102D20001FB59FEDAE0A8DED000AF421AC48FDF70A
:102D30008DFC4FF4AE71AB48FDF788FC8021AA48AA
:102D4000FDF784FC9021A948FDF780FC6421A84888
:102D5000FDF77CFCBC21A748FDF778FC4021A64884
:102D6000FDF774FC7821A548FDF770FC2821A448E4
:102D7000FDF76CFC6021A348FDF768FC00209D492D
:102D800008719FED960A9D4880ED010A9FED930A18
:102D900080ED020AB7EE000A80ED030A9FED9A0A61
:102DA00080ED040A9FED990A80ED050A9FED980ACF
:102DB00080ED060A9FED970A80ED070A9FED870ACE
:102DC00080ED0B0A9FED940A80ED0C0AB7EE000A25
:102DD00080ED0D0A9FED910A80ED0E0A9FED8E0A9F
:102DE00080ED0F0AB3EE040A80ED100A9FED8C0A05
:102DF00080ED110A9FED790A80ED150A9FED820A98
:102E000080ED160AB7EE000A80ED170A9FED850ADD
:102E100080ED180A9FED840A80ED190A9FED830A60
:102E200080ED1A0ABBEE040A80ED1B0A0020019017
:102E3000029003907E48019002208DF80D00002042
:102E40008DF80E000320ADF808001320ADF80A003D
:102E500006208DF80C0001A806F036FA67490860D4
:102E60000220ADF808001220ADF80A0007208DF806
:102E70000C0001A806F028FA604988620120ADF82C
:102E800008001120ADF80A0006208DF80C0001A8FA
:102E900006F01AFA5949086508460068D0B1084694
:102EA000806AB8B10846006DA0B108460068808EFF
:102EB00040F2031188420DD15048806A808EB0F5EF
:102EC000817F07D14D48006D808E891E884201D1D7
:102ED000012000E000204249C870684600F03CFC38
:102EE0003F490871FF20887100204870087081F800
:102EF000F00007F01DFD4249086008460068486080
:102F0000084600680861002081F8230081F8240049
:102F10000120344908740021324841748174C1741D
:102F20000175022141759FED430A80ED060A9FED70
:102F3000420A80ED070A9FED400A80ED080A9FEDE6
:102F40003F0A80ED090A9FED250A80ED0A0A9FEDF0
:102F50002F0A80ED0B0A9FED210A80ED0C0A9FEDF0
:102F60001F0A80ED0D0A9FED1D0A80ED0E0A032158
:102F700080F83C100021016441648164C1640165F2
:102F800000201D4908704870022048720320C87252
:102F90009FED2B0A084680ED030A9FED100A80ED95
:102FA000040AB2EE040A80ED050A15480068886339
:102FB00005F0B6FB02F0E8FD03F0B6FA0848C07869
:102FC00010B10748007918B9012000F04FFC1FBD6F
:102FD00002200349087000BFF9E70000000000006C
:102FE000C4C70120B8C8012014CA012094CA012016
:102FF00024CB012088CB012044CC012084CC0120AB
:10300000FCCC012024CD01200000B4C20000B44259
:103010000000DCC20000DC420000344300000C422F
:103020000000484300003EC300000CC2000052C331
:1030300028C20120000070420000C07F00004D4304
:1030400000007A432DE9F04F2DED108B83B005463B
:103050000E4614469FEDF00AB0EE40EA4FF000092C
:10306000CA46CB462CB9032003B0BDEC108BBDE89B
:10307000F08F20212046FDF7E9FA85B37EB395ED68
:10308000000A10EE101A08460FF0C7FC38B395ED91
:10309000010A10EE101A08460FF0BFFCF8B195EDCA
:1030A000020A10EE101A08460FF0B7FCB8B196ED00
:1030B000000A10EE101A08460FF0AFFC78B196ED3A
:1030C000010A10EE101A08460FF0A7FC38B196ED71
:1030D000020A10EE101A08460FF09FFC18B90320E0
:1030E00020702078C0E7D5ED000A60EEA00A95EDCB
:1030F000011AD5ED011A41EE210AB0EE600A10F076
:10310000A3F8B0EE408A95ED020ADFEDC40A70EE36
:10311000608A18EE100A0FF080FC20B118EE900AB9
:103120000FF07BFC18B90720207020789CE79FEDFA
:10313000BC0A08EE080AB5EEC00AF1EE10FA03D296
:103140000420207020788FE79FEDB30A18EE080A5C
:10315000F0EE400A9FEDB00A0FF066FFB0EE409A25
:1031600010F072F8F0EE409A9FEDAD0AB4EEC08A0E
:10317000F1EE10FA0ADD95ED001AF0EE410A95ED38
:10318000011AB0EE410A0FF01BFD05E096ED000AB2
:10319000DFEDA40A20EE200AF0EE40DA0027DAE0A4
:1031A0009FED9F0AF4EEC09AF1EE10FA02D8012FBB
:1031B00000D1CEE017B9B0EE690A01E0B1EE690ABC
:1031C000F0EE40BA9FED940A7BEEC0AAF0EE6B0AD7
:1031D0009FED910A0FF0F4FC3DEEC00ADFED920A7C
:1031E00020EE200AB0EE40AA00F01CFBB0EE40CA70
:1031F0002AEEAA0A08EEA80ADFED8C0A30EE600A71
:10320000DFED8A0A30EE600ADFED890A80EE209A4F
:1032100019EE100A0FF001FC18B907202070207871
:1032200022E79FED840AB4EEC09AF1EE10FA06D3BD
:103230009FED810AB4EEC09AF1EE10FA00DD88E04D
:103240004FF0010AB7EE001AFFEE000AB0EE490A8D
:1032500000F06CFAB0EE409A4FF0000875E0B0EE66
:10326000490A0FF021FCB0EE40BAB8F1000F03D0CC
:10327000B1EE4B0AB0EE40BAF0EE6A0AB0EE680A60
:103280000FF09EFCF0EE40FAB0EE4B0A0FF024FE79
:10329000DFED6A0A9FED691A41EE000AF0EE60EA7E
:1032A000B0EE4B0A0FF008FFDFED640A20EE200AB3
:1032B000B0EE40FAF0EE6E0A0FF082FC7FEEC0CA6C
:1032C0009FED590A2BEE00DA8DED00CA9FED560AEC
:1032D0002CEE800A8DED010AB0EE4D0AFFF7F6F9EB
:1032E0008DED020A684600F05DF900B929E04FF063
:1032F000010B6846FDF7ACFB00B922E06078401C8A
:1033000060703146684600F0C1F9B0EE40AA1AEE8E
:10331000100A0FF082FB18B9072020702078A3E66E
:10332000B9F1000F04D0B4EECEAAF1EE10FA07D234
:103330004FF00109B0EE4AEA9DE80700231D07C3DC
:1033400000BF08F1010000F0FF08B8F1020F86D3BA
:1033500000BF781CC7B2022FFFF422AFB9F1000FF3
:103360000FD1BBF1000F02D00620207007E0BAF1A8
:10337000000F02D00520207001E00420207020788A
:1033800072E6D4ED031AB0EE611AD4ED021AF0EE33
:10339000610AD4ED011AB0EE610A04F11000FFF7E2
:1033A000ABFBD4ED040A95ED001A70EEC10A60EE95
:1033B000A00A94ED051AD5ED011A31EE611AD4ED8B
:1033C000051A95ED012A71EEC21A41EE210A94ED1B
:1033D000061AD5ED021A31EE611AD4ED061A95EDF2
:1033E000022A71EEC21A41EE210AB0EE600A0FF015
:1033F0002BFF84ED070A94ED070A10EE101A084619
:103400000FF00BFB18B90720207020782CE6002065
:103410002070207828E600000000000000007842BC
:1034200017B7D13835FA8E3CE02E65420008844744
:1034300000080448470380BF4703803F00008243E1
:1034400070B52DED028B0546B0EE408A2846FDF79B
:103450004DFB20B118EE100A0FF0D6FA20B99FEDFF
:10346000150ABDEC028B70BD05EB8500124901EB1E
:10347000C004D4ED030AB0EE600AFDF733FAF6EEAD
:10348000000AB4EEE00AF1EE10FA02D29FED090A4A
:10349000E7E794ED020A38EE400ADFED080A20EE75
:1034A000200AD4ED030A80EE201A94ED010A31EED1
:1034B000000AD6E70000C07F84CC012035FA8E3C9C
:1034C00070B52DED028B0546F0EE408A0C46022DBC
:1034D00007D0B0EE680A2846FFF7B2FFBDEC028BBA
:1034E00070BD54B194ED010A10EE101A08460FF0A9
:1034F0008BFA10B194ED018A1BE0124890ED130A8B
:1035000010EE101A08460FF07FFA18B10D4890ED32
:10351000138A0EE00B4890ED120A10EE101A0846BE
:103520000FF072FA18B1074890ED128A01E09FED92
:10353000068AF0EE480AB0EE680A284600F006F85F
:10354000CCE7000084CC01200000344310B52DED01
:10355000048B0446B0EE408AF0EE608A022C19D14A
:10356000B0EE680AFFF78AF8B0EE409A18EE100A3B
:103570000FF04AFA20B119EE100A0FF045FA20B9FF
:103580009FED070ABDEC048B10BD38EE490AB0EE82
:10359000408A00BFB0EE480A2046FFF751FFF1E72E
:1035A0000000C07F10B50446BCB194ED000A10EED7
:1035B000101A08460FF031FA78B194ED010A10EEB6
:1035C000101A08460FF029FA38B194ED020A10EEED
:1035D000101A08460FF021FA08B9002010BD94ED2A
:1035E000000ADFED1C0AB4EEE00AF1EE10FA2EDB61
:1035F00094ED000ADFED180AB4EEE00AF1EE10FADD
:1036000025D894ED010ADFED150AB4EEE00AF1EEDB
:1036100010FA1CDB94ED010ADFED110AB4EEE00AAA
:10362000F1EE10FA13D894ED020ADFED0E0AB4EEB3
:10363000E00AF1EE10FA0ADB94ED020ADFED0A0A65
:10364000B4EEE00AF1EE10FA01D80120C6E700203E
:10365000C4E700006666B4C26666B44233330B4208
:103660003333344333333EC333330BC210B52DED04
:10367000028BB0EE408AF0EE608A78EE680AB0EE17
:10368000600A00F0CFF8BDEC028B10BD70B52DEDD7
:10369000068B04460D469FED200AB0EE409A9FED42
:1036A0001F0AF0EE409A9FED1E0AB4EEC09AF1EEAA
:1036B00010FA06D99FED1A0AF4EEC09AF1EE10FA4C
:1036C00004D89FED180ABDEC068B70BD95ED001A6D
:1036D000F0EE410A94ED001AB0EE410AFFF7C6FF82
:1036E000DFED110A80EE20AA94ED010AD5ED010A62
:1036F00030EE600A80EE098A94ED020AD5ED020AE6
:1037000030EE600AC0EE298A2AEE0A0A08EE080A9C
:1037100008EEA80AD7E700000000114300001B4391
:1037200017B7D1380000807F0000B443F0EE401A94
:10373000F4EEE01AF1EE10FA02D2B0EE600A704731
:10374000F4EEC11AF1EE10FA02DDB0EE410AF6E72E
:10375000B0EE610AF3E7000010B52DED028B86B0E4
:10376000044603A89FED291ADFED290A9FED290AD7
:10377000FFF7C2F99FED280A8DED000A9FED250A9B
:103780008DED010A9FED250A8DED020ADDED030A9C
:103790009DED001A70EEC10A60EEA00A9DED041ABC
:1037A000DDED011A31EE611ADDED041A9DED012AFD
:1037B00071EEC21A41EE210A9DED051ADDED021AE5
:1037C00031EE611ADDED051A9DED022A71EEC21A85
:1037D00041EE210AB0EE600A0FF036FDB0EE408AED
:1037E0000CB184ED008A18EE100A0FF016F958B1EA
:1037F0009FED0B0AB4EEC08AF1EE10FA04D8012056
:1038000006B0BDEC028B10BD0020F9E70000B4C289
:103810000000B44200000000000082430000A14309
:103820000AD7233C05E0DFED0E0A70EE600AB0EE29
:10383000600ADFED0C0AB4EEE00AF1EE10FAF2DCF9
:1038400005E0DFED070A70EE200AB0EE600ADFED5A
:10385000060AB4EEE00AF1EE10FAF2D37047000067
:103860000000B44300003443000034C310B50446E4
:1038700004B901241848807808B10B2C01D11648EE
:1038800084700B2C01D1052000E00420124908703F
:103890000B2C01D10E2000E00D200F4948700820AC
:1038A000FDF708F8FDF750F900200C4981F82400D5
:1038B00002F002FC01F068FFFEF7CCFE0120074990
:1038C00081F821000B2C02D00548C07910B10020EE
:1038D00002F036FB10BD0000C4C70120FCCC012063
:1038E0000C28002010B52DED028B0446F0EE408A26
:1038F0000F4890ED130AB0EE408A012C07D1B0EECC
:10390000680A204600F018F8BDEC028B10BD18EED6
:10391000100A0FF079F818B99FED060AB0EE408A48
:10392000F0EE480AB0EE680A204600F033F8EBE704
:1039300084CC01200000344370B52DED028B054688
:10394000B0EE408A2846FDF7D1F820B118EE100AF3
:103950000FF05AF820B99FED0C0ABDEC028B70BD38
:1039600005EB8500094901EBC00494ED030AD4ED91
:10397000010A78EE600A60EE200A94ED020A9FEDDB
:10398000041A00EE810AE8E70000C07F84CC012021
:10399000E02E654210B52DED048B0446F0EE409A02
:1039A000F0EE608AB0EE690A2046FFF7C5FFB0EE80
:1039B000408A022C19D1B0EE680AFEF75FFEB0EE25
:1039C000409A18EE100A0FF01FF820B119EE100AF5
:1039D0000FF01AF820B99FED060ABDEC048B10BD5C
:1039E00038EE090AB0EE408A00BFB0EE480AF4E7AC
:1039F0000000C07F10B52DED028B0446B0EE408A6A
:103A00002046FDF773F820B118EE100A0EF0FCFF07
:103A100020B99FED220ABDEC028B10BD022C2FD1E4
:103A20001F4890F8240050B31E48806A20B11D48FA
:103A3000806AD0ED020A01E0DFED1B0AB0EE600AF9
:103A40000120FFF7D7FFF0EE408A18EE900A0EF043
:103A5000DBFF10B99FED110ADDE704EB840011498B
:103A600001EBC00090ED030A20EE080ADFED0F0A1B
:103A700020EE200AF7EE000A00EEA80ACBE700BF0E
:103A800004EB8400074901EBC00090ED030A20EE2F
:103A9000080ADFED060A20EE200ABCE70000C07F1E
:103AA000FCCC012084CC012000000000E02E654207
:103AB0002DE9F0412DED048B92B00446B0EE408A22
:103AC00006F036FF074620210AA8FCF7BFFD0320B9
:103AD0008DF82800A2480078022807D0A048007876
:103AE000042803D09E480078032805D1012012B095
:103AF000BDEC048BBDE8F08154B394ED000A10EEE8
:103B0000101A08460EF092FF10B394ED010A10EE61
:103B1000101A08460EF08AFFD0B194ED020A10EE9A
:103B2000101A08460EF082FF90B118EE100A0EF03F
:103B30007DFF68B1B7EE000AB4EEC08AF1EE10FA6C
:103B400006D39FED880AB4EEC08AF1EE10FA05DDC7
:103B50009DF82800FDF770FD0320C8E7FDF776FC0F
:103B600028B99DF82800FDF767FD0220BFE77E48D1
:103B700090ED070A8DED040A90ED080A8DED050A17
:103B800090ED090A8DED060A04A8FFF70BFD18B1A8
:103B900004A8FCF75DFF20B90620FDF74DFD0420C9
:103BA000A5E7DDED061AB0EE611ADDED051AF0EEBF
:103BB000610ADDED041AB0EE610A6C48FEF79CFF65
:103BC00021466A48FDF79AFCF0EE408A18EE900A0A
:103BD0000EF02CFF20B90720FDF72EFD032086E70D
:103BE0009FED630AF4EEC08AF1EE10FA04D80021CA
:103BF000204601F03BF97AE7B7EE000AC8EE800AEA
:103C0000B0EE609AB0EE490A0FF030F9BCEEC00A8F
:103C100010EE100A401C85B2022D02D3B5F5C07F0C
:103C200004D90320FDF708FD042060E74F48183849
:103C3000058200204D49183981F88D0001F580700A
:103C400004A90EC914300EC004A807C801AB07C3ED
:103C5000012663E0681E00EE100AF8EE400A00EE4E
:103C6000106AB8EE400A80EE201AB0EE419A94ED48
:103C7000000A3E481838D0ED060A70EE600A90ED52
:103C8000060A09EE200A8DED070A94ED010AD0ED2F
:103C9000070A70EE600A90ED070A09EE200A8DED22
:103CA000080A94ED020AD0ED080A70EE600A90ED61
:103CB000080A09EE200A8DED090A0AAA01A907A837
:103CC000FFF7C0F9A8B99DED110AF6EE000AB4EEAF
:103CD000E00AF1EE10FA0CDC0BA8FFF763FC40B130
:103CE0000BA8FCF7B5FE20B10BA901A8FDF738FB26
:103CF00028B99DF82800FDF79FFC0420F7E606EBA5
:103D000046011A48FC3000EB81000BA90EC90EC019
:103D10000BA807C801AB07C3701C86B2AE4299DB83
:103D200028469FED141AF0EE480AB0EE680AFDF737
:103D300009F8804601A8FCF7E1FE20B90320FDF751
:103D40007BFC0220D3E604230222DFED0A0AB0EE58
:103D5000480A414620460097FEF778F80020C6E65C
:103D6000840E002000002F44C4C70120100F002043
:103D70000AD7233C000061452DE9F0412DED048B6D
:103D80009CB00446B0EE408A06F0D2FD07462021E2
:103D900014A8FCF75BFC03208DF85000B1480078B4
:103DA000022807D0AF480078042803D0AD48007837
:103DB000032805D101201CB0BDEC048BBDE8F081C7
:103DC00054B394ED000A10EE101A08460EF02EFEC1
:103DD00010B394ED010A10EE101A08460EF026FEFC
:103DE000D0B194ED020A10EE101A08460EF01EFE35
:103DF00090B118EE100A0EF019FE68B1B7EE000A85
:103E0000B4EEC08AF1EE10FA06D39FED970AB4EE35
:103E1000C08AF1EE10FA05DD9DF85000FDF70CFCAC
:103E20000320C8E7FDF712FB28B99DF85000FDF705
:103E300003FC0220BFE708A9204601F01DFE20B9BF
:103E40000420FDF7F9FB0420B5E7884890ED070A48
:103E50008DED050A90ED080A8DED060A90ED090A30
:103E60008DED070A05A8FFF79DFB98B105A8FCF7A3
:103E7000EFFD78B105A8FEF775F858B1DDED050A3C
:103E8000B0EE600A11A9DFED7A0A7848A83001F097
:103E900057FD20B90620FDF7CFFB04208BE7214614
:103EA00011A8FDF72BFBF0EE408A18EE900A0EF0F9
:103EB000BDFD20B90720FDF7BFFB03207BE79FED89
:103EC0006D0AF4EEC08AF1EE10FA04D80021204603
:103ED00001F044F96FE7B7EE000AC8EE800AB0EED1
:103EE000609AB0EE490A0EF0C1FFBCEEC00A10EEB7
:103EF000100A401C85B2022D02D3B5F5C07F04D94B
:103F00000320FDF799FB042055E75B48058201205B
:103F1000594981F88D0001F1800094E80E001030BD
:103F20000EC01C3808A90EC91C300EC0A83811A933
:103F30000EC918300EC0DC3005A90EC914300EC0F1
:103F400005A807C802AB07C3012669E0681E00EE9A
:103F5000100AF8EE400A00EE106AB8EE400A80EE51
:103F6000201AB0EE419A94ED000ADDED110A70EED0
:103F7000600A9DED110A09EE200A8DED0E0A94EDFE
:103F8000010ADDED120A70EE600A9DED120A09EEDB
:103F9000200A8DED0F0A94ED020ADDED130A70EE92
:103FA000600A9DED130A09EE200A8DED100A0BA997
:103FB0000EA801F061FDF8B114AA02A90BA8FFF741
:103FC00041F8C8B99DED1B0AF6EE000AB4EEE00A0E
:103FD000F1EE10FA10DC15A8FFF7E4FA60B115A8AD
:103FE000FCF736FD40B115A8FDF7BCFF20B115A9BF
:103FF00002A8FDF7B5F928B99DF85000FDF71CFBA4
:104000000420D8E606EB46011C4800EB810015A908
:104010000EC90EC015A807C802AB07C3701C86B234
:10402000AE4293DB28469FED161AF0EE480AB0EE3A
:10403000680AFCF787FE804602A8FCF75FFD20B9FE
:104040000320FDF7F9FA0220B5E604230122DFED93
:104050000C0AB0EE480A414620460097FDF7F6FEEE
:104060000020A8E6840E002000002F44C4C70120D1
:10407000000000000AD7233CF80E00200C1000209E
:104080000000614570B52DED028B05460E462DB939
:10409000002036498860BDEC028B70BD002455E0DD
:1040A00005EB840090ED000A10EE101A08460EF0A1
:1040B000ABFC60B104EB84002D4A02EBC00090ED34
:1040C000090A10EE101A08460EF09EFC18B90020DE
:1040D00026498860DFE705EB840090ED000A04EBD9
:1040E0008400234901EBC000D0ED090A70EE608A1C
:1040F00004EB840051F83000D0ED020AB0EE600A03
:104100002046FFF777FCB0EE408A18EE100A0EF05A
:104110007BFCA8B1B0EE680AFCF7E4FBF7EE000AFE
:10412000B4EEE00AF1EE10FA0ADCB0EE480AFCF751
:10413000D9FBF0EE000AB4EEE00AF1EE10FA03DD6E
:1041400000200A498860A6E7601CC4B2032CA7D3EC
:104150000648806808B90548866004488068301AB7
:10416000782801D3012096E7002094E7FCCC0120B9
:1041700084CC0120094890F8330058B9074890F8DA
:10418000310038B9054890F8320018B9034890F862
:10419000340008B1012070470020FCE724CD012045
:1041A000FEB50546774C207868B9607808B101F013
:1041B00055F900206070A0700220607100207249E3
:1041C00081F82300FEBD704890F82300D8B9012083
:1041D0006D4981F8230008460561012060700020C8
:1041E000A070E0702071022060719FED680A84ED7C
:1041F000030A9FED660A84ED040A0020E063206C48
:10420000401C2064DEE706F093FB0646FCF778FBD3
:1042100028B1FCF7B9FB10B1FCF79CFB20B90720D3
:10422000607002206071CDE794ED020A10EE101A62
:1042300008460EF0E9FB30B194ED020AB5EEC00A73
:10424000F1EE10FA04D80720607003206071B9E71E
:104250004D480069281AE0636078082875D2DFE8C5
:1042600000F08804125275767B8201206071464806
:104270000069281AB0F57A7F00D27FE00020E07054
:10428000022060707AE0424890ED090A8DED000A44
:1042900090ED130A8DED010A90ED1D0A8DED020AD5
:1042A00004F12C0304F12002191D684600F066FD9C
:1042B00020B907206070062060715FE0D4ED020A2B
:1042C000B0EE600A002104F13000FEF765F920B974
:1042D000072060700620607150E02B4805610020C7
:1042E00029498860A0700120E0709FED280A84EDC4
:1042F000030A9FED260A84ED040A0020E063607142
:10430000032060703AE02348D0ED300AB0EE600A36
:1043100001F08CFE294604F13000FFF7B3FE40B1F6
:104320000020A070012020710020607106206070C4
:1043300024E015480069281A46F2A811884203D3E0
:10434000072060700220607118E011E000BF0720B4
:1043500060700620607111E00020A07001202071C3
:10436000002060710AE002F075F801F077F805E0CE
:1043700000BF0020044981F8230000BF00BF00BF38
:1043800020E70000C8C80120FCCC01200000C07F4D
:1043900084CC0120C4C7012070B50546F748806B66
:1043A000281AF649C863084600780D2879D2DFE854
:1043B00000F00716406989CDF9F8F7F6F5F4F30037
:1043C000284600F085FBEE4840780C2806D10120F5
:1043D000EC4981F82400294600F03EFD0DE2284614
:1043E00002F0BEFBE848407C062802D02846FFF7D2
:1043F000D7FEE348D0ED300AB0EE600A01F016FEB9
:10440000E148407C072807D10420DC49487229464E
:104410000C2000F021FD0BE0DB48407C062807D192
:104420000120D84981F824002946022000F014FD1B
:10443000E3E1D348D0ED300AB0EE600A01F0F6FDBA
:1044400001F01CFC60B101F077FA90F8200038B957
:1044500001F0EEFF20B12946032000F0FDFC10E042
:1044600001F06AFA8078072804D0C448C06BB0F520
:10447000FA5F06D30220C149487229460C2000F099
:10448000EBFCBAE12846FCF73BFA28B1FCF77CFAD2
:1044900010B1FCF75FFA28B929460C2000F0DCFCCB
:1044A000ABE196E1B548C06BB0F5FA7F09D3B349EB
:1044B000497809B1042100E00B210846294600F0A3
:1044C000CBFC9AE1AD491831A1F10C0001F0D4FA0E
:1044D00040B90420A9494872C87229460C2000F04E
:1044E000BBFC8AE19FEDA90AA4480C30FFF744FC0D
:1044F0000446A2484472A64890F854009F49C872E6
:1045000024B129460C2000F0A7FC76E19B48A04B83
:104510001C330ECB24300EC03038D0ED0A0A90ED9B
:104520000B1ADFED9C1A31EEC11A70EE810AB0EE63
:10453000600A01F05BFC914880ED0C0A01208F4974
:1045400088702946052000F087FC56E1284602F0D5
:1045500007FB02F00DF830BB8D480078062822D109
:104560008B4890ED180AF7EE000AB4EEE00AF1EE7F
:1045700010FA18DB01F0E0F990F8200098B901205A
:104580007E49C87000204872012001F0D9FC2946FC
:10459000062000F061FC15E01CE111E1D9E0ACE07F
:1045A0006FE04CE00FE07548C06B46F2A8118842FE
:1045B00008D301F04FFF02207049487229460C20B1
:1045C00000F04AFC19E1284602F0CAFA2846FCF736
:1045D00097F928B1FCF7D8F910B1FCF7BBF950B93D
:1045E000002001F0ADFC02206449487229460C20ED
:1045F00000F032FC01E19FED680A604880ED0D0A91
:104600009FED650A01F0CCFC5C4988720846807A0F
:1046100030B9012048712946072000F01DFC0DE04B
:104620005648807A012809D0002001F089FC022038
:104630005249487229460C2000F00EFCDDE0284665
:1046400002F08EFA2846FCF75BF928B1FCF79CF9DA
:1046500010B1FCF77FF950B9002001F071FC022085
:104660004649487229460C2000F0F6FBC5E0434855
:10467000C06BB0F5167F03D32946082000F0ECFB91
:10468000BBE0284602F06CFA2846FCF739F928B15D
:10469000FCF77AF910B1FCF75DF950B9002001F090
:1046A0004FFC02203549487229460C2000F0D4FB0B
:1046B000A3E09FED3A0A314880ED0D0A9FED370ADD
:1046C00001F06EFC2D4988720846807A30B90220CC
:1046D00048712946092000F0BFFB0DE02748807A89
:1046E000012809D0002001F02BFC02202349487248
:1046F00029460C2000F0B0FB7FE0284602F030FA9B
:104700002846FCF7FDF828B1FCF73EF910B1FCF79C
:1047100021F950B9002001F013FC0220174948721A
:1047200029460C2000F098FB67E01448C06BB0F5F8
:10473000167F0DD3002001F003FC01200F49887182
:1047400008710020C871087229460A2000F084FB15
:1047500053E0284602F004FA0848C07968B90120FD
:104760000649C871FCF7EEF938B90120034908720F
:1047700029460B2000F070FB3FE011E044CC012003
:10478000C4C70120FCCC0120B8C8012000007A4336
:10479000840E0020000034C30000074300003442B0
:1047A0001748C06B40F6B831884208D3FCF7CCF903
:1047B00001201349087229460B2000F04DFB1CE034
:1047C0000120104908700C204870284602F0C8F9F2
:1047D00013E000BFFCF7B8F901F06EFC00F0D4FF65
:1047E000002001F0ADFB01F035FE04200549087002
:1047F0000D204870FF20887100BF00BF70BD000011
:1048000044CC0120C4C7012070B598B00646AD481D
:1048100090F83300002831D0AA48056C0020A9493F
:1048200081F8330081F8310081F8320081F83400DA
:104830008864084690F8300030B10A4611790223A6
:1048400010680622FEF7F6F90620FEF70DFA9E4ADA
:1048500092F824100223106A0622FEF7EBF90222D6
:1048600007212846FEF730FAFDF744FF0023032214
:1048700007212846FEF7C8F918B070BD914890F896
:10488000310020B38F48856B00208E4981F83100BC
:10489000084690F8300030B10A46117900231068BC
:1048A0000522FEF7C7F90520FEF7DEF9864A92F8E1
:1048B00024100023106A0522FEF7BCF9FCF746F924
:1048C0000023032206212846FEF79EF9D4E77D48FF
:1048D00090F83200D8B17B48C56B0020794981F847
:1048E0003200794890F82400032807D1764A92F8DC
:1048F00024100023106A0522FEF786F900F0D8FC88
:104900000023032205212846FEF77EF9B4E76D480F
:1049100090F8340058B36B48456C0020694981F821
:104920003400084690F8300030B10A46117902236D
:1049300010680622FEF77EF90620FEF795F9624A16
:1049400092F824100223106A0622FEF773F902225D
:1049500008212846FEF7B8F900F0FAF95B48D0F8CC
:10496000E80058498864304600F04CF984E755481F
:1049700090F8300000B97FE7302252490CA8FBF7CD
:1049800009FE00204F4981F830004F4988610877BF
:104990009DF83400012810D10C9807909DF838003C
:1049A0008DF82000DDE90F121198CDE909120B9066
:1049B00007A8FDF78DFF044663E09DF83400022848
:1049C00028D10C9802909DF838008DF80C000CA8A6
:1049D000407A8DF80D00DDE90F121198CDE904122F
:1049E00006909DED120A8DED070A0CA8007F8DF848
:1049F00020009DED140A8DED090A9DF854008DF8F4
:104A000028009DED160A8DED0B0A02A8FDF778FE31
:104A1000044636E09DF83400032828D10C98019014
:104A20009DF838008DF80800DDE90F121198CDE9E6
:104A3000031205909DED120A8DED060A9DED130AF5
:104A40008DED070A9DF850008DF820009DED150AA8
:104A50008DED090A9DF858008DF828009DED170A84
:104A60008DED0B0A01A8FDF791FF044609E09DF8C2
:104A70003400042804D10EA8FDF7D0FF044600E05E
:104A80000424B4B99DF83400032803D09DF8340001
:104A9000042807D19DF83410002303220C98FEF758
:104AA000B3F80DE09DF8341002220C98FEF70CF9D3
:104AB00006E09DF83410234604220C98FEF7A4F873
:104AC00000BFD9E624CD012088CB0120C4C7012036
:104AD00070B5054647484078022821D003DC38B13C
:104AE000012873D110E0032830D00C287BD164E07A
:104AF00041480068281AB0F57A7F00D278E029464C
:104B0000012000F00DFB73E03B484068281AB0F527
:104B1000967F00D26CE02946022000F001FB67E09E
:104B200000240CE004EB8401344A52F8310004F014
:104B30004DFB10B1012132480155601CC4B2032C59
:104B4000F0D32946032000F0EBFA51E02A484068F0
:104B5000281A642812D32848456000240CE004EB8E
:104B60008401264A52F8310004F030FB10B10121D3
:104B700023480155601CC4B2032CF0D32846FBF730
:104B8000BFFEC8B100F06AFC00B931E0002408E0C3
:104B900004EB8401194A52F8310004F036FB601C22
:104BA000C4B2032CF4D3022012490870FF2088718C
:104BB00029460C2000F0B4FA1AE00F484068281A81
:104BC00064280FD30C484560002409E00BE004EB97
:104BD00084010A4A52F8310004F017FB601CC4B289
:104BE000032CF4D304E02946002000F099FA00BF1A
:104BF00000BF70BDC4C70120FCCC012084CC0120C3
:104C0000BFC801202DE9F04707464B48D0F8EC50CB
:104C1000D0F8E8804948D0F8549002264648D0F8A9
:104C2000EC00484500D04D464348D0F8EC004045E4
:104C300000D045464048D0F8EC00A84201D1BDE87C
:104C4000F0873D48C0F8E8503C4845653A488078D0
:104C500008B903262DE03846FBF752FE08B90426B2
:104C600027E09FED370A00F0CDFC08B1052620E0D3
:104C7000FBF7A4FE08B106261BE0002416E004EBB7
:104C80008400304901EBC000D0ED090AB0EE600AA3
:104C90002046FDF711FC8246BAF1000F02D0BAF1AE
:104CA000030F01D1072603E0601CC4B2032CE6D336
:104CB00000BF214880F8F060C0F8EC501F488565BF
:104CC00080F85C60022E00D0B9E7FDF7C3FC00203D
:104CD0001D4981F82400002418E004EB8401194ADE
:104CE00052F8310004F0FBF838B90820124981F875
:104CF000F000124981F85C00A1E704EB8401114A3D
:104D000052F8310004F061FB601CC4B2032CE4D300
:104D100000200949887001200B4981F822000020F9
:104D200081F821003946012000F0FAF900200249FB
:104D3000087000BF83E70000C4C70120B8C8012085
:104D400000008C4284CC0120FCCC01207047000084
:104D50000848D0F8E800401C0649C1F8E8000120E6
:104D600081F8F0000846D0F8E800034948650120C2
:104D700070470000C4C70120B8C80120F0B52DED70
:104D8000028B8BB006460F4615461C462F4AD2E9C9
:104D900000109268CDE90902089116B10FB105B172
:104DA00024B900200BB0BDEC028BF0BD2021684679
:104DB000FBF74CFC03202070294608A800F05CFE9D
:104DC00018B9042020700020ECE76A4631462846D6
:104DD000FEF738F92070207880B99DED070AF6EECD
:104DE000000AB4EEE00AF1EE10FA07DC01A8FEF7C3
:104DF000D9FB18B101A8FBF72BFE08B90020D1E7B9
:104E00009DED020ADDED030A9FED111A71EE600AB5
:104E100030EE208AB0EE480A00F0E8FFF0EE408A5B
:104E200001F014F840B19DED010AF0EE400A9FED4B
:104E3000090A01F019F818B9062020700020B1E71E
:104E400001A807C887E807000120ABE73058010830
:104E5000000034C300000000034A10709163002278
:104E6000014BDA637047000044CC012070B58CB070
:104E700004460D46202104A8FBF7E8FB03208DF82B
:104E80001000BCB194ED000A10EE101A08460DF0A7
:104E9000CDFD78B194ED010A10EE101A08460DF020
:104EA000C5FD38B194ED020A10EE101A08460DF057
:104EB000BDFD60B99DF81000FCF7BEFB25B12022B6
:104EC00004A92846FBF766FB03200CB070BDFCF775
:104ED000BDFA58B99DF81000FCF7AEFB25B12022B1
:104EE00004A92846FBF756FB0220EEE7424890ED66
:104EF000070A8DED010A90ED080A8DED020A90ED8A
:104F0000090A8DED030A04AA01A92046FEF79AF8C2
:104F100080B99DED0B0AF6EE000AB4EEE00AF1EE60
:104F200010FA07DC05A8FEF73DFB18B105A8FBF752
:104F30008FFD58B99DF81000FCF77EFB25B12022AB
:104F400004A92846FBF726FB0420BEE705A802F0CB
:104F5000C5F958B99DF81000FCF76EFB25B1202269
:104F600004A92846FBF716FB0220AEE700202349E0
:104F700081F88D0001F1800094E80E001C300EC015
:104F8000283894E80E0010300EC01D4805A90EC93F
:104F900010300EC01C3805A90EC91C300EC02838B0
:104FA000D4E901132268C0E9131382640020144974
:104FB00081F85400012081F8550081F85600B7EEC1
:104FC000000A084680ED180A00204866886601201D
:104FD000A1F86C000020487005F0AAFC0646314696
:104FE0000620FCF723FE25B1202204A92846FBF762
:104FF000D1FA002069E70000C4C70120F80E0020A4
:10500000840E00202DE9F0412DED068B05468846E3
:10501000B0EE408AF0EE608A1746032D0ED218EEED
:10502000100A0DF0F1FC48B118EE900A0DF0ECFCFE
:1050300020B1F5EEC08AF1EE10FA04D80020BDECE4
:10504000068BBDE8F08105EB8500234901EBC00626
:10505000B0EE480A2846FDF72FFA044624B1032C87
:1050600002D01FB9012C01D00020E8E74146B0EE84
:10507000480A2846FEF724FAB0EE409A9FED170A38
:1050800028EE800AD6ED030A80EE201AB0EE41AA7F
:10509000B0EE4A0AFBF726FCF0EE409A19EE100A31
:1050A0000DF0B2FC60B119EE900A0DF0ADFC38B114
:1050B000F0EE690AB0EE490A306804F0C6F908B9A2
:1050C0000020BCE786ED088A054800EB850080EDEE
:1050D000008A0120B3E7000084CC012035FA8E3C21
:1050E000F0C7012000B52DED048B83B0B0EE409ADF
:1050F000B0EE608AF0EE418A8DED009A8DED018A66
:10510000CDED028A6846FBF7F9FC20B9002003B018
:10511000BDEC048B00BD684602F0E0F8F7E7000044
:1051200010B50B4B5A7858700A4B59600023094C44
:10513000A360E3609FED080A234683ED050A0C286F
:1051400004D10C2A02D0002384F8233010BD0000C3
:10515000C4C70120FCCC01200000000070B52DED7B
:10516000028B8EB004460D46202103A8FBF76EFA91
:1051700003208DF80C00BCB194ED000A10EE101A5B
:1051800008460DF053FC78B194ED010A10EE101AA8
:1051900008460DF04BFC38B194ED020A10EE101ADF
:1051A00008460DF043FC70B99DF80C00FCF744FA7A
:1051B00025B1202203A92846FBF7ECF903200EB005
:1051C000BDEC028B70BD0BA9204600F055FC68B900
:1051D0000420FCF731FA3DB104208DF80C002022A8
:1051E00003A92846FBF7D6F90420E8E72D4890EDFF
:1051F000070A8DED000A90ED080A8DED010A90ED89
:10520000090A8DED020A03AA69460BA8FDF71AFFE9
:10521000A0B99DED0A0AF6EE000AB4EEE00AF1EE3E
:1052200010FA0BDC04A8FEF7BDF938B104A8FBF7AF
:105230000FFC18B104A8FCF795FE58B99DF80C00B6
:10524000FCF7FAF925B1202203A92846FBF7A2F9B9
:105250000420B4E729460BA8FFF708FE0646FEB96E
:105260000120114981F88D0001F1800094E80E00C1
:1052700010300EC01C380BA90EC91C300EC0A83847
:1052800094E80E0024300EC0084894E80E00483020
:105290000EC004A8FCF718FDB0EE408A00F0C6FE70
:1052A00030468CE7C4C70120F80E0020840E002091
:1052B00010B501F059FA10BD70B504462CB1206844
:1052C00018B12079FDF7BCF908B9032070BD207929
:1052D000072808D02079062805D02079052802D093
:1052E0002079082845D100BFEFF31080054672B63B
:1052F0002068FDF735F918B105B962B60720E5E772
:10530000207907280DD1514920680864012081F8CF
:105310003300002081F8310081F8320081F8340038
:1053200020E0FEF727FF18B105B962B60120CDE7EE
:105330002079062806D1454920688863012081F834
:1053400031000FE02079052806D140492068C86364
:10535000012081F8320005E03C49206848640120C2
:1053600081F8340039492068C86405B962B6002064
:10537000ACE72068FDF7F4F808B10720A6E7344849
:10538000007801280ED1324840780C280AD13048E4
:10539000807838B99FED2F0A00F034F910B900F089
:1053A0006DFC28B9204600F0FFF908B902208DE70E
:1053B000207903280ED1254890F8300040B92648BE
:1053C000006A28B901F0D4F898B101F05FF980B90A
:1053D00001207BE71D4890F8300040B91E48006A64
:1053E00028B901F0C5F810B901F050F908B1012051
:1053F0006CE700BFEFF31080054672B62068FDF73A
:10540000AFF818B105B962B607205FE70F4890F80A
:10541000300010B9FEF7AEFE18B105B962B6012032
:1054200054E7302221460948FBF7B4F80120074928
:1054300081F830002068C8640749206888612079B5
:10544000087705B962B6002040E7000024CD0120AE
:10545000C4C7012000008C4288CB01203EB51C4807
:1054600090F8240000BB00241AE004EB84001949E2
:1054700051F830501DB1284603F0FEFE08B9002057
:105480003EBD04EB8400134901EBC00090ED090A16
:1054900004EB840001EBC00080ED080A601CC4B27C
:1054A000032CE2D30120EBE70A4890ED090A8DEDC9
:1054B000000A90ED130A8DED010A90ED1D0A8DEDA5
:1054C000020A0121B1EE040A6846FDF765F8D7E744
:1054D000FCCC012084CC012070B505F029FA0546EA
:1054E000284601F0BBFB2846FFF78EF9404880783C
:1054F00018B12846FFF786FB28E02846FBF774FA28
:1055000018B10220FEF7B2F921E09FED3A0A00F04F
:1055100079F818B10A20FEF7A9F918E0FBF780FA2C
:1055200018B10320FEF7A2F911E09FED330A00F055
:1055300069F840B1002000F003FD00F08BFF02216C
:105540002E48417503E02846FEF726FF00BF284697
:1055500001F084FB26480078012819D124484078BE
:105560000C2815D12248807890B92148007978B16B
:1055700000BF1F48D0ED300AB0EE600A00F056FDC3
:105580001B48D0ED070AB0EE600A284600F0CAFEBC
:10559000284600F0A1FD1648D0ED070AB0EE600ADB
:1055A00000F1B401DFED160AA83000F0C9F900F0EF
:1055B000C3F9044660780E4981F8C800E07981F8A3
:1055C000C90001F18000D4E90312C0E91312803848
:1055D0006169C0F8D41094F85400054981F8D800E6
:1055E000A06DC1F8DC0001F0A5FE01F0D7FC70BD94
:1055F000C4C701200000A04200008C42B8C80120AE
:1056000000000000002117E001EB81000C4B53F873
:1056100030207AB1D2ED040AF4EEC00AF1EE10FAAD
:1056200006DAD2ED050AF4EEC00AF1EE10FA01DB5B
:1056300001207047481CC1B20329E5D30020F8E7D8
:1056400084CC012010B52DED0A8B0446B0EE408AC3
:1056500018EE100A0DF0F3F918B1012C05D0022C48
:1056600003D00020BDEC0A8B10BD022C02D19FEDAF
:10567000370A01E09FED360AB0EE40AA022C02D1B3
:105680009FED340A01E09FED340AF0EE40AA022CAF
:1056900002D19FED320A01E09FED2F0AF0EE40BAF1
:1056A000B4EECA8AF1EE10FA01D2B0EE4A8AB4EE34
:1056B000EA8AF1EE10FA01DDB0EE6A8A012C02D11D
:1056C0009FED270A01E09FED270AB0EE40CA022CA9
:1056D00002D19FED1F0A01E09FED1D0AB0EE409A36
:1056E000022C02D19FED200A01E09FED1F0AF0EE8F
:1056F000409A39EEC90A80EE2BBA9FED1C0A38EEAB
:10570000400AF0EE4C8A40EE0B8AF4EEC98AF1EEC4
:1057100010FA05D2BCEEC90A10EE100A80B2A1E759
:10572000F4EEE98AF1EE10FA05DDBCEEE90A10EEBE
:10573000100A80B296E7B6EE000A38EE800ABCEE98
:10574000C00A10EE100A80B28CE70000000034C2DC
:105750000000000000006143000034430000874364
:10576000000002440000FA4300007A440000B44202
:105770000021034A1154002202490A5470470000D4
:10578000B42800207828002010B50020FFF7F0FF93
:105790000120FFF7EDFF0020024981F8200081F889
:1057A000260010BD0C280020014611B108790428FC
:1057B00001D000207047087A022802D0087A062813
:1057C00001D10120F6E70020F4E70000F8B5064615
:1057D0005348407828B95348007818B95148407860
:1057E00000B9F8BD4F48007800283BD04D484078BC
:1057F000002837D04B48C1880089814232D14948BE
:10580000C08800904748838841880222012008F020
:1058100015F90446012C00D1E3E7BCB9002000F0E3
:105820004DFA012000F04AFA0020FFF7A1FF012005
:10583000FFF79EFF3C48D0F88400401C3A49C1F86D
:10584000840001204870002088650AE0002000F0F4
:1058500021FA012000F01EFA00203349487003208D
:105860008865BEE72F480078A8B12E48407890B1EF
:105870002C48C1680069814202D12A48057D11E0A7
:105880002848C1680069081A002801DD012000E0ED
:105890000020054606E02348007808B9012000E012
:1058A000002005461F4B9B1D33F815201B1F33F8A6
:1058B00015100DB9012300E00223184608F0B4F8D2
:1058C0000446012C00D18CE704BB284600F0F6F911
:1058D0002846FFF74DFF0DB9012000E000201149D7
:1058E00008751148D0F88000401C0F49C1F88000AD
:1058F0000846007A20B10846407A08B1012000E04D
:105900000020094948700020886507E0284600F01B
:10591000C1F90020044948700320886500BF60E792
:10592000F80C0020B42800200C280020014890ED3D
:105930000D0A70470C280020004870470C280020F2
:1059400070B52DED088B0446B0EE409AB0EE608A3B
:105950000D4614B30DB394ED000A10EE101A08466C
:105960000DF06DF8C8B194ED010A10EE101A08465A
:105970000DF065F888B194ED020A10EE101A084691
:105980000DF05DF848B119EE100A0DF058F820B18D
:1059900018EE100A0DF053F830B90120314988652E
:1059A0000020BDEC088B70BD9FED2F0A29EE00AAE8
:1059B0009FED2D0A68EE008AB0EE680A0DF08CFAB1
:1059C000DFED2A0A20EE20BADFED290A78EEE00AA0
:1059D000B0EE600A0DF080FADFED260AF0EE4B9A89
:1059E00040EE809AB0EE680A0DF066FBDFED1F0A0C
:1059F00020EE20BADFED1E0A78EEE00AB0EE600A73
:105A00000DF05AFBDFED1B0AF0EE4BAA40EE80AA28
:105A1000B0EE4A0A0DF060FAD4ED000A49EE800AB1
:105A2000C5ED000AB0EE4A0A0DF046FBD4ED010ABE
:105A300049EE800AC5ED010A94ED020A30EE2A0A09
:105A400085ED020A0748803094E80E000C300EC045
:105A5000183895E80E0018300EC0A43880ED298A59
:105A600001209EE70C28002035FA8E3C333371422A
:105A7000DB0FC93F0000584270B52DED028B044684
:105A80000D46C4B1BDB194ED000A10EE101A0846DF
:105A90000CF0D5FF78B194ED010A10EE101A08460B
:105AA0000CF0CDFF38B194ED020A10EE101A084642
:105AB0000CF0C5FF30B90120304988650020BDECED
:105AC000028B70BDD4ED000A60EEA00A94ED011ABD
:105AD000D4ED011A41EE210AB0EE600A0DF0B4FBDC
