:020000040800F2
:10000000F08801204D03000809750008F16E000812
:10001000057500084D2B000855A8000800000000D9
:100020000000000000000000000000008D02000839
:10003000813A000800000000E90200084D7900083C
:1000400067030008670300086703000867030008E8
:1000500067030008670300086703000867030008D8
:1000600067030008670300086703000867030008C8
:100070007D30000867030008670300086703000875
:1000800067030008670300086703000867030008A8
:10009000512B0008612B0008670300086703000864
:1000A0006703000867030008670300086703000888
:1000B0006703000867030008670300086703000878
:1000C0006703000867030008670300080D7900084C
:1000D0006703000867030008670300086703000858
:1000E0006703000867030008670300086703000848
:1000F00067030008497A00086703000867030008DF
:100100006703000867030008670300086703000827
:100110006703000867030008670300086703000817
:100120008D300008670300089D300008AD300008DE
:1001300067030008670300086703000867030008F7
:10014000712B0008812B0008670300080D7500085B
:1001500067030008670300086703000867030008D7
:1001600067030008670300086703000867030008C7
:100170006703000867030008670300080000000029
:10018000670300086703000800F002F800F06EF84B
:100190000AA090E8000C82448344AAF10107DA45E2
:1001A00001D100F063F8AFF2090EBAE80F0013F0C6
:1001B000010F18BFFB1A43F00103184708CB0000DA
:1001C00048CB00000A444FF0000C10F8013B13F03C
:1001D000070408BF10F8014B1D1108BF10F8015BA0
:1001E000641E05D010F8016B641E01F8016BF9D193
:1001F00013F0080F1EBF10F8014BAD1C0C1B09D1EA
:100200006D1E58BF01F801CBFAD505E014F8016B5B
:1002100001F8016B6D1EF9D59142D6D370470000ED
:10022000103A24BF78C878C1FAD8520724BF30C822
:1002300030C144BF04680C607047000000230024F4
:1002400000250026103A28BF78C1FBD8520728BFE6
:1002500030C148BF0B6070471FB50CF0B4FC9DE87F
:10026000030000F047FA1FBD10B510BD00F0AEFA54
:100270001146FFF7F1FF0BF0B2F900F0CCFA03B42E
:10028000FFF7F2FF03BC00F0FDFA00002C4B1968E9
:100290000868B0E8F04F80F30988BFF36F8F4FF024
:1002A000000080F3118870470000000008480068D3
:1002B000006880F308884FF0000080F3148862B66D
:1002C00061B6BFF34F8FBFF36F8F00DF00BF00BF7A
:1002D00008ED00E0DFF80C00016841F470010160F6
:1002E000704700BF88ED00E0EFF30980BFF36F8F28
:1002F000134B1A681EF0100F08BF20ED108A20E97A
:10030000F04F106009B44FF0500080F31188BFF334
:100310004F8FBFF36F8F0BF077FE4FF0000080F32D
:10032000118809BC19680868B0E8F04F1EF0100F7A
:1003300008BFB0EC108A80F30988BFF36F8F704755
:1003400020C00120EFF30580704700000948804776
:1003500009480047FEE7FEE7FEE7FEE7FEE7FEE7A7
:10036000FEE7FEE7FEE7FEE704480549054A064BBF
:1003700070470000357A000889010008F0880020E5
:10038000F0880120F0080120F008012070B5064631
:1003900000F094F9056806F10B0020F00704B44260
:1003A0009CBF002070BD2B466A68BAB11068A0429D
:1003B00010D304F1080188423CBF5068586007D34D
:1003C0005168101941601168091B01605860146080
:1003D000101D70BD13465268002AE7D121462846F9
:1003E00000F074F90028DED170BD70B50446051F19
:1003F00000F064F90068002C14BF446870BD002C44
:1004000018BFAC423CBF20466468F8D301680A18A4
:10041000AA4218BF456003D12A680546114401600D
:1004200028684119A1421CBF6C6070BD6168696099
:1004300021680844286070BD53EA020C00F069800E
:100440002DE9F04B4FF00006002B1FBFB3FA83F5E8
:1004500003FA05F424FA05F65E4012BF1643B2FA19
:1004600082F502FA05F4C5F120051EBF22FA05FC4B
:1004700044EA0C04203556EA044C4FEA144418BFF1
:10048000641C4FF000084FF00009904271EB030C20
:1004900039D3002919BFB1FA81F701FA07F6B0FA8A
:1004A00080F700FA07F6C7F120071EBF20FA07FC05
:1004B00046EA0C062037B6FBF4FCA7EB0507103F15
:1004C00007F01F0BCBF120060CFA0BFB2CFA06F6FB
:1004D00044BFB3460026202FA4BF5E464FF0000B5A
:1004E0005BEA060C08BF4FF0010B19EB0B09ABFBE5
:1004F000027C48EB0608C01B06FB02CC0BFB03CCBE
:1005000071EB0C01C1E70B46024641464846BDE887
:10051000F08B13B54FF000004FF00001AFF30080F7
:10052000BDE81C407047032A40F2308010F0030CF5
:1005300000F0158011F8013BBCF1020F624498BF36
:1005400011F801CB00F8013B38BF11F8013BA2F1D3
:10055000040298BF00F801CB38BF00F8013B11F04E
:10056000030300F02580083AC0F0088051F8043BEE
:10057000083A51F804CBA0E80810F5E7121D5CBF5B
:1005800051F8043B40F8043BAFF30080D20724BF8E
:1005900011F8013B11F801CB48BF11F8012B24BF22
:1005A00000F8013B00F801CB48BF00F8012B704771
:1005B00010B5203AC0F00B80B1E81850203AA0E8FE
:1005C0001850B1E81850A0E81850BFF4F5AF5FEA32
:1005D000027C24BFB1E81850A0E8185044BF18C9E5
:1005E00018C0BDE810405FEA827C24BF51F8043B8C
:1005F00040F8043B08BF7047D20728BF31F8023BE0
:1006000048BF11F8012B28BF20F8023B48BF00F873
:10061000012B704702F0FF0343EA032242EA024241
:1006200000F002B84FF000020429C0F0128010F070
:10063000030C00F01B80CCF1040CBCF1020F18BFBE
:1006400000F8012BA8BF20F8022BA1EB0C0100F051
:100650000DB85FEAC17C24BF00F8012B00F8012B24
:1006600048BF00F8012B70474FF0000200B5134659
:1006700094469646203922BFA0E80C50A0E80C50C2
:10068000B1F12001BFF4F7AF090728BFA0E80C5073
:1006900048BF0CC05DF804EB890028BF40F8042B6C
:1006A00008BF704748BF20F8022B11F0804F18BFD9
:1006B00000F8012B7047704770477047004870473B
:1006C0008CC80120704770477047704738B50446A2
:1006D0000A4600206946AFF30080002808BF38BDF5
:1006E00002460099204600F04FF8012038BD012055
:1006F00000F064B8F8B5AFF30080054600200C4662
:10070000102000BF0646A819A0420DD932466946FE
:100710000020AFF30080070008BF00F04FF80098FA
:10072000A04218BF0546C419FFF7C8FF0560074679
:10073000F01D20F007004619284600F00AF8B442E0
:1007400008BFF8BDA21B31463868BDE8F84000F08C
:100750001BB800210160C0E90110704710207047EC
:1007600010B500F00DF8006810BD10B5044600F09B
:1007700007F8046010BD00000048704784C80120DD
:100780000048704784C80120034640688C46002812
:1007900018BF88423CBF03464068F8D31868184425
:1007A000884207D00CF1030020F00700001D411A19
:1007B000521A0146081D0A60FFF717BE10B500F077
:1007C00039F8BDE8104000F02FB870477546FFF7C4
:1007D000D3FFAE4605006946534620F00700854624
:1007E00018B020B5FFF7C0FDBDE820404FF000066F
:1007F0004FF000074FF000084FF0000B21F0070109
:10080000AC46ACE8C009ACE8C009ACE8C009ACE84B
:10081000C0098D46704710B50446AFF300802046EE
:10082000BDE81040FFF72BBD002801D000F02AB82A
:100830007047000010B5012805D0002103A000F08A
:1008400027F8012010BD09A1F8E7000053494752DD
:10085000544D454D3A204F7574206F662068656190
:1008600070206D656D6F7279000000003A20486558
:100870006170206D656D6F727920636F7272757033
:100880007465640001491820ABBEFEE72600020033
:1008900070B505460C460A2000E06D1C00F011F80A
:1008A00035B128780028F8D102E0641C00F009F87E
:1008B00014B120780028F8D1BDE870400A20AFF3C9
:1008C000008008B569468DF800000320ABBE08BD66
:1008D000094948700E21084A1170002182F856100B
:1008E000064A517591751175118202F1800100223D
:1008F0000A624A628A6270479C0F00201010002032
:10090000F0EE400AF5EEC00AF1EE10FA02D2B1EEB6
:10091000600A7047B0EE600AFBE7000070B506465B
:1009200000251EE005EB8500104951F83040A4B1C8
:100930003146204602F088FE78B194ED010A10EEAF
:10094000101A084609F0ABFF38B194ED020A10EE18
:10095000101A084609F0A3FF08B9002070BD681CF2
:10096000C5B2032DDED30120F8E70000EC0E002015
:10097000002110E001EB8100094A52F8300030B14B
:1009800001EB810052F8300090F8450008B90020D2
:100990007047481CC1B20329ECD30120F8E70000DE
:1009A000EC0E0020002110E001EB8100094A52F812
:1009B000300030B101EB810052F8300090F8440073
:1009C00008B900207047481CC1B20329ECD30120AC
:1009D000F8E70000EC0E002010B500240BE004EB5B
:1009E0008401074A52F8310002F095FD08B1012058
:1009F00010BD601CC4B2032CF1D30020F8E7000046
:100A0000EC0E002070B50646002410E004EB8400D4
:100A1000094951F8305045B1287E30B13146284659
:100A200002F012FE08B9012070BD601CC4B2032C94
:100A3000ECD30020F8E70000EC0E002000210FE0CE
:100A400001EB8100084B53F830203AB192F84A008C
:100A500010B9506D052801D301207047481CC1B260
:100A60000329EDD30020F8E7EC0E002070470000CA
:100A700010B50446204600F0EFFD08B9002010BD77
:100A800094ED000ADFED1B0AB4EEE00AF1EE10FA75
:100A90002EDB94ED000ADFED180AB4EEE00AF1EE69
:100AA00010FA25D894ED010ADFED140AB4EEE00A3D
:100AB000F1EE10FA1CDB94ED010ADFED110AB4EE41
:100AC000E00AF1EE10FA13D894ED020ADFED0D0AF8
:100AD000B4EEE00AF1EE10FA0ADB94ED020ADFED63
:100AE0000A0AB4EEE00AF1EE10FA01D80120C6E7D6
:100AF0000020C4E70000B4C20000B44200000C4271
:100B00000000344300003EC3000020C20146022919
:100B100001DC012070470020FCE7000070B52DEDDE
:100B2000028B0546B0EE408A05EB85001C4901EBBF
:100B3000C0049FED1C0AF0EE408A18EE100A09F07E
:100B4000AEFE18B90020BDEC028B70BD94ED040A16
:100B500030EE680AB4EEC80AF1EE10FA0AD894ED45
:100B6000050A30EE280AB4EEC80AF1EE10FA01DBED
:100B70000120E8E794ED060A30EE680AB4EEC80AF0
:100B8000F1EE10FA0AD894ED070A30EE280AB4EE16
:100B9000C80AF1EE10FA01DB0220D4E70320D2E705
:100BA000EC0E0020CDCC4C3E2DE9F0412DED028B1A
:100BB0000546B0EE408A0F464DB118EE100A09F016
:100BC0006EFE20B1B5EEC08AF1EE10FA04D8002016
:100BD000BDEC028BBDE8F08100241FE005EB840032
:100BE00090ED000A10EE101A084609F058FE08B9F8
:100BF0000020EDE705EB8400D0ED000AB0EE600ABE
:100C00002046FFF78BFF064626B1032E02D01FB900
:100C1000012E01D00020DBE7601CC4B2032CDDD321
:100C2000002411E005EB8400D0ED000AB0EE600A6C
:100C30003A46F0EE480A2946204601F07FFB08B903
:100C40000020C5E7601CC4B2032CEBD30120BFE732
:100C500070B500240AE004EB8400064951F83050D6
:100C600015B1284602F0FDFB601CC4B2032CF2D380
:100C700070BD0000EC0E002010B52DED028BB0EE23
:100C8000408A0D4890F8350020B99FED0C0ABDEC64
:100C9000028B10BD18EE100A09F001FE10B99FED8D
:100CA000080AF4E79FED070A38EE400AF7EE000A5B
:100CB00020EE200AEBE70000640F00200000000097
:100CC0000000C07F00003443F0EE400A9FED020AAE
:100CD00030EE600A70470000000034C3F0EE400AB6
:100CE0009FED020A30EE600A70470000000034C336
:100CF00010B52DED0A8BF0EE409AB0EE608AB0EEA2
:100D000041AA044614B9BDEC0A8B10BD9FED2D0A13
:100D100069EE80AA9FED2B0A28EE00BAB0EE4A0ACF
:100D2000FFF7DCFF30EE080ADFED260A60EE20BA9E
:100D3000B0EE4B0A09F0C4FFDFED230A60EE20CAD3
:100D4000B0EE6B0A09F0BCFFDFED200AB0EE6CCA12
:100D500000EE80CA9FED1E0A7CEE008A9FED1C9A71
:100D6000B0EE6A0A09F0ACFF60EE28CAB0EE6A0A7B
:100D70000AF072F849EE40CAC4ED00CAB0EE6A0A41
:100D80000AF06AF860EE28CAB0EE6A0A09F098FF25
:100D900049EE00CAC4ED01CAB0EE4B0A0AF05CF895
:100DA000DFED0CCADFED080A40EE80CAB0EE6B0A38
:100DB0000AF052F8DFED050A40EE80CAC4ED02CA1F
:100DC00000BFA0E735FA8E3C000082430000664376
:100DD00000000000000078421FB59FEDAF0A8DEDC6
:100DE000000AD021AD48FFF73FFC4FF4B871AC4882
:100DF000FFF73AFC8021AB48FFF736FC9021AA4868
:100E0000FFF732FC4021A948FFF72EFC7821A848C3
:100E1000FFF72AFC3821A748FFF726FC9FED9E0A22
:100E2000A34880ED010A9FED9C0A80ED020AB7EE0F
:100E3000000A80ED030A9FEDA00A80ED040A9FEDF1
:100E40009F0A80ED050A9FED9E0A80ED060A9FED40
:100E50009D0A80ED070A9FED900A80ED0B0A9FED39
:100E60009A0A80ED0C0AB7EE000A80ED0D0A9FED9C
:100E7000970A80ED0E0A9FED940A80ED0F0AB3EEFB
:100E8000040A80ED100A9FED920A80ED110A9FED91
:100E9000820A80ED150A9FED880A80ED160AB7EEEA
:100EA000000A80ED170A9FED8B0A80ED180A9FED6E
:100EB0008A0A80ED190A9FED890A80ED1A0ABBEEB5
:100EC000040A80ED1B0A00200190029003908448E0
:100ED000019002208DF80D0000208DF80E000320F7
:100EE000ADF808001320ADF80A0006208DF80C00BC
:100EF00001A802F047FB6E4908600220ADF8080027
:100F00001220ADF80A0007208DF80C0001A802F0AD
:100F100039FB674988620120ADF808001120ADF85F
:100F20000A0006208DF80C0001A802F02BFB604996
:100F3000086508460068D0B10846806AB8B108461E
:100F4000006DA0B108460068808E40F2031188420F
:100F50000DD15748806A808EB0F5817F07D1544803
:100F6000006D808E891E884201D1012000E00020A2
:100F70004A49C870684600F049FC48490871FF209A
:100F8000887100204870087081F8CC0003F082FD61
:100F900048490860084600684860084600680861DB
:100FA0000846006848610846002141628162C162CA
:100FB0000020404981F8330081F8340081F8350081
:100FC0000120374908730021354841738173C1738B
:100FD000017402214174B2EE040A80ED050A9FED0E
:100FE000410A80ED060A9FED3F0A80ED070A9FED5A
:100FF0002A0A80ED080A9FED340A80ED090A9FED68
:101000002E0A80ED0A0A0021C162016301202449F1
:1010100081F834000021224880F8351080F836101D
:1010200080F8371080F83810022180F83910032139
:1010300080F83A109FED2C0A80ED0F0A9FED160AFA
:1010400080ED100A9FED290A80ED110A00218164CC
:10105000C1640165B2EE040A80ED150A9FED210A14
:1010600080ED160A9FED1F0A80ED170A01664166A2
:1010700001F060FD01F0C6FA0848C07810B10748D9
:10108000007918B9012000F04BFC1FBD0220034974
:10109000087000BFF9E70000000000005C0B0020B2
:1010A0002C0C00209C0D00201C0E0020AC0E0020FB
:1010B000EC0E0020640F00200000B4C20000B44217
:1010C0000000DCC20000DC420000344300000C429F
:1010D0000000484300003EC3000020C2000052C38D
:1010E00008C101200000C07F00007A430000F042E8
:1010F0002DE9F04F2DED108B83B005460E461446BA
:101100009FEDF00AB0EE40EA4FF00009CA46CB4628
:101110002CB9032003B0BDEC108BBDE8F08F20216B
:101120002046FFF7A1FA85B37EB395ED000A10EED5
:10113000101A084609F0BCFB38B395ED010A10EE11
:10114000101A084609F0B4FBF8B195ED020A10EE4A
:10115000101A084609F0ACFBB8B196ED000A10EE83
:10116000101A084609F0A4FB78B196ED010A10EEBA
:10117000101A084609F09CFB38B196ED020A10EEF1
:10118000101A084609F094FB18B903202070207843
:10119000C0E7D5ED000A60EEA00A95ED011AD5ED85
:1011A000011A41EE210AB0EE600A09F01DFFB0EE0F
:1011B000408A95ED020ADFEDC40A70EE608A18EEEF
:1011C000100A09F075FB20B118EE900A09F070FBC7
:1011D00018B90720207020789CE79FEDBC0A08EE24
:1011E000080AB5EEC00AF1EE10FA03D2042020700E
:1011F00020788FE79FEDB30A18EE080AF0EE400A58
:101200009FEDB00A09F004FEB0EE409A09F0ECFE42
:10121000F0EE409A9FEDAD0AB4EEC08AF1EE10FAFE
:101220000ADD95ED001AF0EE410A95ED011AB0EED7
:10123000410A09F0EFFB05E096ED000ADFEDA40A94
:1012400020EE200AF0EE40DA0027DAE09FED9F0A58
:10125000F4EEC09AF1EE10FA02D8012F00D1CEE0E0
:1012600017B9B0EE690A01E0B1EE690AF0EE40BAD2
:101270009FED940A7BEEC0AAF0EE6B0A9FED910AF7
:1012800009F0C8FB3DEEC00ADFED920A20EE200A0D
:10129000B0EE40AA00F020FBB0EE40CA2AEEAA0A47
:1012A00008EEA80ADFED8C0A30EE600ADFED8B0A4B
:1012B00030EE600ADFED8A0A80EE209A19EE100AFD
:1012C00009F0F6FA18B907202070207822E79FED80
:1012D000850AB4EEC09AF1EE10FA06D39FED820AA9
:1012E000B4EEC09AF1EE10FA00DD88E04FF0010A8A
:1012F000B7EE001AFFEE000AB0EE490A00F070FAED
:10130000B0EE409A4FF0000875E0B0EE490A09F0DF
:10131000F5FAB0EE40BAB8F1000F03D0B1EE4B0AC7
:10132000B0EE40BAF0EE6A0AB0EE680A09F072FB5D
:10133000F0EE40FAB0EE4B0A09F0C2FCDFED6B0AAA
:101340009FED6B1A41EE000AF0EE60EAB0EE4B0A38
:1013500009F082FDDFED660A20EE200AB0EE40FAC9
:10136000F0EE6E0A09F056FB7FEEC0CA9FED590AF7
:101370002BEE00DA8DED00CA9FED560A2CEE800AA6
:101380008DED010AB0EE4D0AFFF79EFC8DED020ACD
:10139000684600F061F900B929E04FF0010B68469A
:1013A000FFF766FB00B922E06078401C60703146B0
:1013B000684600F0C5F9B0EE40AA1AEE100A09F02E
:1013C00077FA18B9072020702078A3E6B9F1000F4A
:1013D00004D0B4EECEAAF1EE10FA07D24FF0010914
:1013E000B0EE4AEA9DE80700231D07C300BF08F1DD
:1013F000010000F0FF08B8F1020F86D300BF781C8F
:10140000C7B2022FFFF422AFB9F1000F0FD1BBF129
:10141000000F02D00620207007E0BAF1000F02D0C2
:101420000520207001E004202070207872E6D4EDC1
:10143000031AB0EE611AD4ED021AF0EE610AD4ED8F
:10144000011AB0EE610A04F11000FFF751FCD4ED6F
:10145000040A95ED001A70EEC10A60EEA00A94ED40
:10146000051AD5ED011A31EE611AD4ED051A95ED84
:10147000012A71EEC21A41EE210A94ED061AD5ED49
:10148000021A31EE611AD4ED061A95ED022A71EEB8
:10149000C21A41EE210AB0EE600A09F0A5FD84ED02
:1014A000070A94ED070A10EE101A084609F000FA30
:1014B00018B90720207020782CE6002020702078B2
:1014C00028E60000000000000000784217B7D1387D
:1014D00035FA8E3CE02E65420008844700A44E4752
:1014E0000098E947470380BF4703803F00008243DD
:1014F0000000664370B52DED028B0546B0EE408AC4
:101500002846FFF703FB20B118EE100A09F0C7F9CF
:1015100020B99FED150ABDEC028B70BD05EB85006F
:10152000124901EBC004D4ED030AB0EE600AFFF7E4
:10153000E7F9F6EE000AB4EEE00AF1EE10FA02D294
:101540009FED090AE7E794ED020A38EE400ADFED65
:10155000080A20EE200AD4ED030A80EE201A94ED4A
:10156000010A31EE000AD6E70000C07FEC0E002031
:1015700035FA8E3C70B52DED028B0546F0EE408AB3
:101580000C46022D07D0B0EE680A2846FFF7B2FFDE
:10159000BDEC028B70BD54B194ED010A10EE101A2F
:1015A000084609F07CF910B194ED018A1BE012485D
:1015B00090ED130A10EE101A084609F070F918B1F0
:1015C0000D4890ED138A0EE00B4890ED120A10EED4
:1015D000101A084609F063F918B1074890ED128A0D
:1015E00001E09FED068AF0EE480AB0EE680A284650
:1015F00000F006F8CCE70000EC0E002000003443B9
:1016000010B52DED048B0446B0EE408AF0EE608AF2
:10161000022C19D1B0EE680AFFF72EFBB0EE409A0B
:1016200018EE100A09F03BF920B119EE100A09F082
:1016300036F920B99FED070ABDEC048B10BD38EEDA
:10164000490AB0EE408A00BFB0EE480A2046FFF7D4
:1016500051FFF1E70000C07F10B50446BCB194ED26
:10166000000A10EE101A084609F022F978B194ED3C
:10167000010A10EE101A084609F01AF938B194ED73
:10168000020A10EE101A084609F012F908B90020F3
:1016900010BD94ED000ADFED1C0AB4EEE00AF1EE95
:1016A00010FA2EDB94ED000ADFED180AB4EEE00A22
:1016B000F1EE10FA25D894ED010ADFED150AB4EE2B
:1016C000E00AF1EE10FA1CDB94ED010ADFED110ADD
:1016D000B4EEE00AF1EE10FA13D894ED020ADFED51
:1016E0000E0AB4EEE00AF1EE10FA0ADB94ED020AFB
:1016F000DFED0A0AB4EEE00AF1EE10FA01D801209B
:10170000C6E70020C4E700006666B4C26666B4425D
:1017100033330B423333344333333EC333331FC28B
:1017200010B52DED028BB0EE408AF0EE608A78EEB7
:10173000680AB0EE600A00F0CFF8BDEC028B10BD75
:1017400070B52DED068B04460D469FED200AB0EED8
:10175000409A9FED1F0AF0EE409A9FED1E0AB4EEEC
:10176000C09AF1EE10FA06D99FED1A0AF4EEC09A6B
:10177000F1EE10FA04D89FED180ABDEC068B70BD8F
:1017800095ED001AF0EE410A94ED001AB0EE410A10
:10179000FFF7C6FFDFED110A80EE20AA94ED010AE3
:1017A000D5ED010A30EE600A80EE098A94ED020A56
:1017B000D5ED020A30EE600AC0EE298A2AEE0A0A46
:1017C00008EE080A08EEA80AD7E700000000114357
:1017D0000000164317B7D1380000807F0000B443E3
:1017E000F0EE401AF4EEE01AF1EE10FA02D2B0EE8A
:1017F000600A7047F4EEC11AF1EE10FA02DDB0EEA5
:10180000410AF6E7B0EE610AF3E7000010B52DEDEE
:10181000028B86B0044603A89FED291ADFED290A42
:101820009FED290AFFF764FA9FED280A8DED000A63
:101830009FED250A8DED010A9FED250A8DED020A27
:10184000DDED030A9DED001A70EEC10A60EEA00AFC
:101850009DED041ADDED011A31EE611ADDED041A79
:101860009DED012A71EEC21A41EE210A9DED051A85
:10187000DDED021A31EE611ADDED051A9DED022A49
:1018800071EEC21A41EE210AB0EE600A09F0ACFB1B
:10189000B0EE408A0CB184ED008A18EE100A09F00F
:1018A00007F858B19FED0B0AB4EEC08AF1EE10FABA
:1018B00004D8012006B0BDEC028B10BD0020F9E772
:1018C0000000B4C20000B442000000000000664303
:1018D0000000A1430AD7233C05E0DFED0E0A70EEBD
:1018E000600AB0EE600ADFED0C0AB4EEE00AF1EE39
:1018F00010FAF2DC05E0DFED070A70EE200AB0EE28
:10190000600ADFED060AB4EEE00AF1EE10FAF2D357
:10191000704700000000B44300003443000034C3AB
:1019200010B5044604B901241148807808B10B2C85
:1019300001D10F4884700B2C01D1052000E0042058
:101940000B4908700B2C01D10E2000E00D20084936
:1019500048700820FEF7BCFF0020064981F83500DA
:10196000FFF776F90120034981F8310010BD00002E
:101970005C0B0020640F002010B52DED028B044697
:10198000F0EE408A0F4890ED130AB0EE408A012C29
:1019900007D1B0EE680A204600F018F8BDEC028BC3
:1019A00010BD18EE100A08F07AFF18B99FED060A6C
:1019B000B0EE408AF0EE480AB0EE680A204600F029
:1019C00033F8EBE7EC0E00200000344370B52DED4A
:1019D000028B0546B0EE408A2846FFF797F820B103
:1019E00018EE100A08F05BFF20B99FED0C0ABDEC61
:1019F000028B70BD05EB8500094901EBC00494ED35
:101A0000030AD4ED010A78EE600A60EE200A94ED34
:101A1000020A9FED041A00EE810AE8E70000C07F89
:101A2000EC0E0020E02E654210B52DED048B04462F
:101A3000F0EE409AF0EE608AB0EE690A2046FFF7B9
:101A4000C5FFB0EE408A022C19D1B0EE680AFFF74C
:101A500013F9B0EE409A18EE100A08F020FF20B1FA
:101A600019EE100A08F01BFF20B99FED060ABDEC25
:101A7000048B10BD38EE090AB0EE408A00BFB0EE0C
:101A8000480AF4E70000C07F10B52DED028B044634
:101A9000B0EE408A2046FFF739F820B118EE100A60
:101AA00008F0FDFE20B99FED220ABDEC028B10BDAF
:101AB000022C2FD11F4890F8350050B31E48806A81
:101AC00020B11D48806AD0ED020A01E0DFED1B0A5B
:101AD000B0EE600A0120FFF7D7FFF0EE408A18EE63
:101AE000900A08F0DCFE10B99FED110ADDE704EB67
:101AF0008400114901EBC00090ED030A20EE080AB2
:101B0000DFED0F0A20EE200AF7EE000A00EEA80A29
:101B1000CBE700BF04EB8400074901EBC00090ED68
:101B2000030A20EE080ADFED060A20EE200ABCE7D1
:101B30000000C07F640F0020EC0E002000000000B9
:101B4000E02E654270B52DED028B05460E462DB98F
:101B5000002037498860BDEC028B70BD002455E041
:101B600005EB840090ED000A10EE101A084608F00C
:101B700096FE60B104EB84002E4A02EBC00090EDAB
:101B8000090A10EE101A084608F089FE18B900205C
:101B900027498860DFE705EB840090ED000A04EB3D
:101BA0008400244901EBC000D0ED090A70EE608A80
:101BB00004EB840051F83000D0ED020AB0EE600A68
:101BC0002046FFF761FFB0EE408A18EE100A08F0D9
:101BD00066FEA8B1B0EE680AFEF792FEF7EE000AC4
:101BE000B4EEE00AF1EE10FA0ADCB0EE480AFEF7B5
:101BF00087FEF0EE000AB4EEE00AF1EE10FA03DD23
:101C000000200B498860A6E7601CC4B2032CA7D350
:101C10000748806808B90648866005488068301A19
:101C2000B0F5967F01D3012095E7002093E70000EF
:101C3000640F0020EC0E00202DE9F0412DED048B07
:101C400006468D4C207880B9607808B100F004FC1D
:101C500000206070A070022060710020874981F828
:101C60003300BDEC048BBDE8F081844890F833006C
:101C7000D8B90120814981F8330008460661012066
:101C800060700020A070E0702071022060719FEDF4
:101C90007C0A84ED030A9FED7A0A84ED040A002091
:101CA0002062606A401C6062DBE702F0F3FE0746D8
:101CB000FEF734FE28B1FEF775FE10B1FEF758FEB0
:101CC00020B90520607002206071CAE7A06808EEA4
:101CD000100A18EE100A08F0E2FD20B1B5EEC08A35
:101CE000F1EE10FA04D80520607003206071B8E7A7
:101CF00062480069301A20626078062870D2DFE8F6
:101D000000F0B2035A8BA5AE002540E005EB85003C
:101D10005C4901EBC00090ED080A05EB850001EB82
:101D2000C000D0ED090A70EE608A05EB850051F81D
:101D30003000D0ED020AB0EE600A2846FFF7A4FE9C
:101D4000B0EE409A18EE900A08F0A9FDD0B119EE55
:101D5000100A08F0A4FDA8B1B0EE680AFEF7D0FDA5
:101D6000F7EE000AB4EEE00AF1EE10FA0ADCB0EE8B
:101D7000490AFEF7C5FDF0EE000AB4EEE00AF1EE06
:101D800010FA02DD0120607103E0681CC5B2032D6A
:101D9000BCD300BF032D00D26AE001206071374838
:101DA0000069301AB0F57A7F00D261E00020E0705F
:101DB000022060705CE03448FFF74EFC20B905203B
:101DC00060700620607153E00021B0EE480A2E4892
:101DD000FEF7EAFE28B9052060700620607147E032
:101DE00040E026480661002024498860A070012058
:101DF000E0709FED230A84ED030A9FED210A84ED34
:101E0000040A214A07CAC4E9061260610020206260
:101E10006071032060702BE031461B48FFF792FE93
:101E200040B10020A07001202071002060710420CA
:101E300060701DE011480069301A46F2A81188420E
:101E400003D3052060700220607111E000F004FBF4
:101E50000020A070012020710020607108E000F0D7
:101E6000FBFA05E000BF0020044981F8330000BF01
:101E700000BF00BFF5E60000380C0020640F002012
:101E80000000C07FEC0E002070CC000870B52DED76
:101E9000028B88B00546854C207880B9607808B1FF
:101EA00000F0DAFA00206070A0700220607100205B
:101EB0007F4981F8340008B0BDEC028B70BD7B48CF
:101EC0003438007C20B179483438407B042806D06F
:101ED000012060700020A07002206071EBE7744860
:101EE00090F8340048BB0120714981F8340008465D
:101EF0004561022060700020A070E0702071022017
:101F000060710320A0719FED6B0A84ED020A9FEDC2
:101F10006A0A84ED030A9FED690A84ED040A9FEDC5
:101F2000680A84ED090A9FED660A84ED0A0A00201A
:101F3000E062206B401C2063BDE702F0ABFD06466B
:101F4000FEF7ECFC28B1FEF72DFD10B1FEF710FDF9
:101F500020B90620607002206071ACE7206A08EEAC
:101F6000100A18EE100A08F09AFC20B1B5EEC08AEB
:101F7000F1EE10FA04D806206070032060719AE731
:101F80004B484069281AE0626078072877D2DFE87A
:101F900000F08485042D4F77800020216846FEF7ED
:101FA00063FB6A46474904F10800FFF7A1F8A071F6
:101FB000A07938B901A8FFF74FFB18B101A8FEF7C7
:101FC00057FD18B90620607060716CE001A807C861
:101FD000C4E906126061364801A90EC924300EC05A
:101FE0000020E0706071032060705CE00021B0EEC2
:101FF000480A2F482430FEF7D7FD18B90620607034
:10200000607150E02A484561002029498860A0702D
:102010000120E0709FED2A0A84ED090A9FED280A4D
:1020200084ED0A0A0020E0626071042060703AE0EA
:102030000021B0EE480A1E482430FEF7B5FD18B95D
:102040000620607060712EE0294619482430FFF7A1
:1020500079FD40B10020A070012020710020607146
:10206000052060701FE012484069281A46F2A81146
:10207000884203D3062060700220607113E00BE0F9
:1020800000F0EAF90020A0700120207100206071AA
:1020900009E000F0E1F906E000BF00BF00200449BC
:1020A00081F8340000BF00BF00BF04E7600C0020CF
:1020B000640F002000007A43000000000000F0429E
:1020C0000000C07F780B002070B50546444840787A
:1020D00002281AD003DC38B1012879D109E003289D
:1020E00029D00C2874D15DE02946012000F096F932
:1020F00073E03C484068281AB0F5967F00D26CE047
:102100002946022000F08AF967E000240CE004EB85
:102110008401354A52F8310001F0B6F910B10121BD
:1021200032480155601CC4B2032CF0D32946032069
:1021300000F074F951E02B484068281A642812D343
:102140002848456000240CE004EB8401264A52F83C
:10215000310001F099F910B1012124480155601CAA
:10216000C4B2032CF0D32846FEF7D8FBC8B100F068
:1021700073F900B931E0002408E004EB84011A4A45
:1021800052F8310001F09FF9601CC4B2032CF4D363
:10219000022013490870FF20887129460C2000F0A6
:1021A0003DF91AE00F484068281A64280ED30D48FC
:1021B0004560002408E004EB84010B4A52F831002A
:1021C00001F081F9601CC4B2032CF4D305E0FFE7F1
:1021D0002946002000F022F900BF00BF70BD0000BA
:1021E0005C0B0020640F0020EC0E0020330C00205C
:1021F0002DE9F04707464B48D0F8C850D0F8C480C6
:102200004948D0F8689002264648D0F8C8004845AA
:1022100000D04D464348D0F8C800404500D0454660
:102220004048D0F8C800A84201D1BDE8F0873D4839
:10223000C0F8C4503C4885663A48807808B90326FF
:102240002DE03846FEF76AFB08B9042627E09FED2B
:10225000370A00F0B7F908B1052620E0FEF7BCFB0D
:1022600008B106261BE0002416E004EB8400304988
:1022700001EBC000D0ED090AB0EE600A2046FEF77F
:102280004DFC8246BAF1000F02D0BAF1030F01D122
:10229000072603E0601CC4B2032CE6D300BF21482C
:1022A00080F8CC60C0F8C8501F48C56680F87060E0
:1022B000022E00D0B9E7FEF7CBFC00201D4981F8C3
:1022C0003500002418E004EB8401194A52F831006B
:1022D00000F063FF38B90820124981F8CC00124998
:1022E00081F87000A1E704EB8401114A52F8310033
:1022F00001F0C9F9601CC4B2032CE4D300200949E1
:10230000887001200B4981F83200002081F83100EB
:102310003946012000F082F800200249087000BF11
:1023200083E700005C0B00202C0C002000008C4296
:10233000EC0E0020640F0020704700002DE9F041F2
:102340002DED068B05468846B0EE408AF0EE608A99
:102350001746032D0ED218EE100A08F0A0FA48B165
:1023600018EE900A08F09BFA20B1F5EEC08AF1EE63
:1023700010FA04D80020BDEC068BBDE8F08105EB17
:102380008500234901EBC006B0EE480A2846FEF757
:10239000C5FB044624B1032C02D01FB9012C01D087
:1023A0000020E8E74146B0EE480A2846FFF7E2F889
:1023B000B0EE409A9FED170A28EE800AD6ED030A88
:1023C00080EE201AB0EE41AAB0EE4A0AFEF798FA63
:1023D000F0EE409A19EE100A08F061FA60B119EEB9
:1023E000900A08F05CFA38B1F0EE690AB0EE490ADA
:1023F000306801F088F908B90020BCE786ED088A4A
:10240000054800EB850080ED008A0120B3E700005D
:10241000EC0E002035FA8E3C880B002010B50B4BDB
:102420005A7858700A4B59600023094CA360E36046
:102430009FED080A234683ED060A0C2804D10C2AD6
:1024400002D0002384F8333010BD00005C0B002064
:10245000640F0020000000003EB51C4890F83500D5
:1024600000BB00241AE004EB8400194951F83050F5
:102470001DB1284601F05EF808B900203EBD04EB0E
:102480008400134901EBC00090ED090A04EB8400BD
:1024900001EBC00080ED080A601CC4B2032CE2D33B
:1024A0000120EBE70A4890ED090A8DED000A90ED56
:1024B000130A8DED010A90ED1D0A8DED020A01212E
:1024C000B1EE040A6846FEF76FFBD7E7640F002001
:1024D000EC0E002010B502F0DDFA0446204600F0B4
:1024E000B5F83348807818B12046FFF781FE57E0F1
:1024F0002046FFF7E9FD2E4840780C2805D02046FD
:1025000000F0A4F800F01CFA10BD2046FEF77AFA9D
:1025100040B10220FFF704FA204600F097F800F0DF
:102520000FFAF1E79FED230A00F04CF840B10A20C2
:10253000FFF7F6F9204600F089F800F001FAE3E72A
:10254000FEF77CFA40B10320FFF7EAF9204600F0DD
:102550007DF800F0F5F9D7E79FED170A00F032F8A3
:1025600050B1FFF779FF022114484174204600F072
:102570006DF800F0E5F9C7E71048407B042802D069
:102580002046FFF759FB0D48407B042808D1012065
:102590000B4981F83500064908702046FFF776FCA4
:1025A000204600F053F800F0CBF900BFACE7000084
:1025B0005C0B00200000A04200008C422C0C00208C
:1025C000640F0020002117E001EB81000C4B53F851
:1025D00030207AB1D2ED040AF4EEC00AF1EE10FA1E
:1025E00006DAD2ED050AF4EEC00AF1EE10FA01DBCC
:1025F00001207047481CC1B20329E5D30020F8E749
:10260000EC0E002010B541F2CC210E48FEF72CF85C
:1026100074210D48FEF728F800200B490870487017
:1026200002F038FA074988600020FFF7EFF8054903
:1026300088740846807C20B908200349087001206E
:10264000487010BD101000209C0F00202DE9F047AD
:102650002DED028B8146B34890F83500B249C87021
:1026600000260DE106EB8600B04901EBC0073C688F
:10267000C6EBC60000EB4001AB48743000EB8105AF
:102680009FEDAB0AB0EE408A4FF00008002C7CD0E2
:10269000D4ED010AB0EE600A3046FFF76DF987ED20
:1026A000090AD4ED020AB0EE600A3046FFF7ECF9F1
:1026B000B0EE408AD7ED090AB0EE600A3046FEF768
:1026C0002DFA80464946204600F0BEFF99498855BC
:1026D00094F845109748C01C815594F84410C01CCC
:1026E0008155B8F1010F01D1012100E0002191488D
:1026F00009308155B8F1010F02D0B8F1020F01D1B4
:10270000012100E000218B480C3081556178C01C0C
:10271000815594ED010A263000EB860080ED000A19
:1027200094ED020A8348413000EB860080ED000AF8
:1027300080484D3000EB860080ED008A94ED030A5E
:102740007C48653000EB860080ED000A94ED030ABA
:102750007848593000EB860080ED000A94ED0F0AAE
:102760007448713000EB860080ED000A94ED100A89
:1027700070487D3000EB860080ED000A94ED040A7D
:102780006C48893000EB860000E067E080ED000ACD
:1027900094ED050A6748953000EB860080ED000A4D
:1027A000208E203525F8200C608E25F81E0CA08E7A
:1027B00025F81C0C94ED010A05ED060A97ED090AAF
:1027C00005ED050A97ED080A05ED040A94ED0F0AD8
:1027D00005ED030A94ED100A05ED020A94ED100AC6
:1027E000DFED550A20EE200A05ED010A94ED020AFC
:1027F00085ED000A85ED018A94ED030A85ED020A54
:1028000094ED040A85ED030A94ED050A85ED040AAA
:1028100060782875207E68754648805DA87594F8B4
:102820004400E87594F84500287694F846006876E8
:10283000204600F018FFA87685F81B803D480C3034
:10284000805D2877E0692862E06C6862206DA8628C
:10285000A06DE862B4F860002886203D97ED090A73
:102860003448153000EB860080ED000A97ED080A29
:102870003048253000EB860080ED000A701CC6B29F
:10288000032EFFF4EFAEFEF78DF82A49C91F4871F9
:102890000846D0ED091AB0EE611AD0ED081AF0EE34
:1028A000610AD0ED071AB0EE610AA830FEF720FAEF
:1028B0002048C01F90ED080AD0ED090A9FED1F1AAD
:1028C00071EE600A30EE200A80ED2D0A90ED2D0A9F
:1028D00080ED2E0A13484068A9EB00001549C91F76
:1028E000C1F8C000084600780F4908701148C01FA1
:1028F000407848700F48C01F807888700D48C01F0E
:10290000D0F8C40088660B48C01FD0F8C800C8665D
:102910000848C01F90F8CC0081F87000BDEC028B15
:10292000BDE8F087640F00202C0C0020EC0E002086
:1029300000000000630B0020E02E6542000034C35D
:1029400070B56F48C06B451C40216D48FDF78CFE8B
:1029500002F0A0F80646FDF7E1FF69490870002083
:102960004870684800798870002425E06548C01DDB
:10297000015D6348C01C015562480A30015D604832
:10298000801D01555F481C3000EB840090ED000A6B
:102990005B480C3000EB840080ED000A59483C3065
:1029A00000EB840090ED000A55481C3000EB8400D9
:1029B00080ED000A601CC4B2032CD7D350495148A3
:1029C0008030D0E90A23006BC1E90A2308634D482F
:1029D00090ED2D0A084680ED0D0AC56380214A4816
:1029E000FDF742FE474800794749087008464549C7
:1029F000B1F80720A0F80120497AC17041494A89FD
:102A00008280097B81713F4B1C330ECB08300EC096
:102A100014383C4B2C330ECB14300EC03A49394895
:102A20008030D0E90A23006BC1E908238862354869
:102A3000D0ED2A0A60EEA00A90ED2B1AD0ED2B1AE9
:102A400041EE210AB0EE600A08F0CEFA2E4880ED81
:102A50000B0A90ED0B0A80ED0C0A2A4890ED2C0A27
:102A6000DFED2A0A30EE600A274880ED0D0A25487E
:102A700090ED2D0A244880ED0E0A9FED240A80ED8A
:102A80000F0A9FED230A80ED100A9FED220A80EDC8
:102A9000110A9FED210A80ED120A9FED1F0A80EDB9
:102AA000130A9FED1E0A80ED140A9FED1D0A80EDAA
:102AB000150A9FED1C0A80ED160A9FED1B0A80ED9A
:102AC000170A9FED1A0A80ED180A9FED190A80ED8A
:102AD000190A9FED110A80ED1A0A9FED110A80ED87
:102AE0001B0A9FED0E0A80ED1C0A74309FED0B1A35
:102AF000DFED0B0A9FED080AFEF7FAF870BD000043
:102B0000AC0E00205C0B00209C0D002000007842E1
:102B10000000824300006643000000000000B4C2D1
:102B20000000B44200000C420000344300003EC3E9
:102B3000000020C2044800210160416040F2DC50E6
:102B4000014948800120704718C0012000BFFEE7FE
:102B500010B5024801F0F6F910BD000008C10120CF
:102B600010B5024801F0EEF910BD000008C10120C7
:102B700010B5024801F0E6F910BD000030C1012097
:102B800010B5024801F0DEF910BD000030C101208F
:102B900010B58AB004460120069000200790207FDF
:102BA00000F0010080F0010004900E200990606B9D
:102BB0004001019020680D49884207D10C480078F7
:102BC0000B490978491C0A4A117006E00948007847
:102BD00008490978491C074A11700590012008909E
:102BE0002068694601F024F80AB010BD08C1012030
:102BF00001C0012002C001207CB505460E463AE026
:102C00006B46214A3146284601F0B7F800242EE0F1
:102C10001E4850F824000068A84227D11A480068CE
:102C20001A4951F82410496B88421FD1174850F8AF
:102C30002400D0F83900C0B11348007C134951F882
:102C4000241081F8380010490A69104951F82410FD
:102C500001F12C006946FDF766FC0C4A52F824008D
:102C600052F82420D2F8391088477CBD641C0848EB
:102C700000788442CCD33146284601F06AF8002817
:102C8000BED100BFF1E7000084060020440600200A
:102C900000C0012070B505462548007808B900F04D
:102CA0004BF823480078102801DB002070BD00217C
:102CB00011E0204850F8210000682A68904208D1AD
:102CC0001C4850F82100406BAA68904201D10020B6
:102CD000ECE7481CC1B2164800788142E9DB41208C
:102CE000FDF754FB044641212046FDF79BFC686834
:102CF00060600021E1602161082161612868206035
:102D00006868E061A8686063E868C4F83900286909
:102D1000C4F83D002046FFF73BFF054801780078E6
:102D2000401C034A1070034840F821402046BDE78C
:102D300000C001204406002010B50B4801F0B5FB8F
:102D40000221094800F0BAFE1021074800F0B6FE43
:102D5000064801F0AAFB0221044800F0AFFE102152
:102D6000024800F0ABFE10BD08C1012030C10120B7
:102D7000082900DC01B97047416100BFFBE7000092
:102D800010B52DED028B0446B0EE408A00F08EFDAA
:102D9000F0EE408A11E000F089FD30EE680AB4EEF2
:102DA000C80AF1EE10FA08DD12480068401C11490B
:102DB00008600020BDEC028B10BD206801F0A7F870
:102DC0000028E8D000F072FD30EE680A0A4880ED75
:102DD000000A206804F120031A1D211D00F083FE63
:102DE00030B104480068401C024908600020E1E757
:102DF0000120DFE704C0012008C001200346042BA6
:102E000015D007DC7BB1012B0ED0022B0DD0032B8C
:102E100012D10BE0202B0BD0212B0AD0222B09D072
:102E2000232B09D107E008E007E006E005E004E015
:102E300003E002E001E000E000BF00BF00207047B7
:102E40000020704710B500220449054805F03BFBFF
:102E50000449034805F028FB002010BDEC79002050
:102E6000A8C30120EC71002070B504460D46204631
:102E7000296807F0D9FB2146034805F015FB0248F5
:102E800005F0DEFA002070BDA8C3012010B503468E
:102E90000C460021084610BD00BF08F083F9012050
:102EA00008F0C4FBF9E700002DE9F05F2DED028B7F
:102EB0004FF0000ABDE06D4850F82A6006F11C058D
:102EC00006F12804374694ED5E0AB0EE408A287970
:102ED000012803D1B1EE480AB0EE408AA87800F08C
:102EE0004000D8B12888402818D1A879012807D1F6
:102EF000206828B1206890ED000AF0EE408A03E0D7
:102F000097ED040AF0EE408AF0EE480AB0EE680A47
:102F100004F5807004F032FCB0EE408AA87800F02E
:102F2000080048B3287800F0480028B3287A00F059
:102F30000A0040B1A06830B1A06890ED000A30EE00
:102F4000080AB0EE408AE879012807D1606828B104
:102F5000606890ED000AF0EE408A03E097ED020A07
:102F6000F0EE408AF0EE480AB0EE680A04F18800FC
:102F700004F004FCB0EE408A287A00F0010040B171
:102F8000E06830B1E06890ED000A30EE080AB0EE7B
:102F9000408AA87800F0010078B1B7F90C0000EE83
:102FA000900AF8EEE00AB0EE600AF0EE480A04F18A
:102FB000100004F0E3FBB0EE408A6879012805D1E7
:102FC000BFEE000A28EE000AB0EE408ABDEEC80A45
:102FD00010EE100A0FFA80FB96F8AC8196F8AD91CE
:102FE000CBF3072108EB8810214A1044243000F865
:102FF000191008EB88101146084424304FEA4901A3
:10300000491C00F801B096F8AF0180B9002108EB27
:1030100088101044243000F81910002208EB8810A2
:103020001349084424304FEA4901491C42540AF12B
:10303000010A104800788245FFF43DAF4FF0000AC6
:103040000DE00D4810F80A0038B10AEB8A11084A61
:103050008818B7EE000AFFF793FE0AF1010ABAF1E9
:10306000060FEED3BDEC028BBDE8F09FA00600205A
:103070007100002070000020F701002010B5024808
:1030800001F05EFA10BD0000E405002010B5024812
:1030900001F056FA10BD0000B0C1012010B5024881
:1030A00001F04EFA10BD00008405002010B5024862
:1030B00001F046FA10BD000010C201200146087858
:1030C00010381823B0FBF3F20848805CC865032A67
:1030D00005D908686FF30900001D886503E00868DA
:1030E0006FF309008865886D704700004CCC0008BC
:1030F000014600208A6A8B69CBB932B1012A0DD012
:10310000022A03D0032A10D10EE000BFCB6A03F0DD
:103110008073B3F1807F00D1012007E0CB6AB3F167
:10312000C07F00D1012001E000E000BF34E08B69E6
:10313000B3F5005F1AD132B1012A07D0022A03D0B9
:10314000032A11D10AE000BF01200EE0CB6A03F090
:103150008073B3F1807F00D1012006E0CB6AB3F128
:10316000C07F00D1012000E000BF15E032B1012A8C
:1031700005D0022A04D0032A0CD103E000BF00BF0F
:10318000012008E0CB6A03F08073B3F1807F00D1A7
:10319000012000E000BF00BF704710B504460CB925
:1031A000002010BDFB21204600F07FFAF9E7000067
:1031B00030B502460C460AB1106820B901202849F2
:1031C0000870002030BD27480078052804D302206D
:1031D000234908700020F5E7908840B190880F28B7
:1031E00005D8D08818B1D088B0F5006F04D303207B
:1031F0001B4908700020E5E7107A062807D0107AEE
:10320000072804D00120164908700020DAE7507A18
:10321000022804D00420124908700020D2E70023BD
:1032200018E0114850F8231091B1886A80B1886A7B
:1032300000681568A8420BD1888EA04203D0488E42
:10324000D588A84204D10520054D28700020B9E793
:10325000581CC3B2034800788342E2DB0120B1E787
:10326000090200200002002048C301202DE9FC4192
:1032700005462F480068281A022801D2BDE8FC81C3
:103280002B48056000263EE02A48007830442A4951
:10329000097890FBF1F201FB1200C7B2274850F801
:1032A00027400CB1A06A00B92BE0207E58B1294616
:1032B000204600F0C9F930B9012045342071E07092
:1032C000002004F8450994F8450038B194F844000A
:1032D00020B1207E10B194F8480000B111E094EDC7
:1032E0000F0A8DED010A94ED100A8DED000AA06A17
:1032F00001994162A06A00998162204600F04AFA71
:1033000000BF701CC6B20C4800788642BCDB0A487D
:10331000007850B107480078401C07490978B0FB95
:10332000F1F201FB12000349087000BFA6E700009C
:1033300004020020080200200002002048C30120EF
:103340002DE9F05F054615B1D5F83D0008B9BDE897
:10335000F09FD5F83D4095F83800082803D0206A42
:10336000401C2062F3E795F82C0000F00F0694F85B
:103370003000B04203D0206A401C2062E7E72E20D4
:10338000415D2D20405D41EA00292F20405D010173
:103390003020405D41EA201A3120415D3020405DFF
:1033A00000F00F0041EA002B95F82C000709E069B6
:1033B00000F10108267067701021F2EE090ABAEEDA
:1033C000090A484600F00EFA84ED010A0C21F3EEDA
:1033D0000E0ABBEE0E0A504600F004FA84ED020A13
:1033E0000C21F2EE040ABAEE040A584600F0FAF98B
:1033F00084ED030A3220405D00EE100AB8EE400A68
:1034000084ED040A3320405D00EE100AB8EE400A55
:1034100084ED050A01F03EFB6062C4F81C800120C7
:103420002076002084F8490094F8460090B1E06DC1
:1034300040450FD2012F0DD100204434A07001204F
:10344000E07014F8440928B194F8480010B901203C
:1034500084F84500E06A10B1E06A00F0EFFA00BFBE
:1034600075E770B504460CB9002070BD00204434E7
:1034700060702070A070E070443CFD21204600F098
:1034800014F905462846F0E770B5044624B1A06A51
:1034900010B194F8480008B1002070BD002084F8F5
:1034A000450084F84700012084F84600E069E065A3
:1034B000FC21204600F0F9F8054615B9002084F8F3
:1034C00046002846E9E770B504463CB1A06A28B139
:1034D00094F8440010B194F8480008B1002070BD81
:1034E000002004F8450F6070A070453CFC21204688
:1034F00000F0DBF8054625B1012084F8470084F888
:1035000045002846EBE7014619B1087E08B10120C5
:1035100070470020FCE7014609B1087E08B9002089
:103520007047487820B14878012801D00120F7E79A
:103530000020F5E710B504464CB1207E38B194ED7B
:10354000010A10EE101A084607F0A0F908B9002089
:1035500010BD94ED010A84ED0F0A9FED090A84ED78
:10356000100A012084F8440094F8470028B194F828
:10357000480010B9012084F845000120E8E7000068
:103580000AD7233C70B586B0054625B1A88800F55A
:10359000807080B200E00020064631462846FFF7E2
:1035A00007FE10B9002006B070BD6420FCF7EEFEE7
:1035B000044624B90620204908700020F3E764215E
:1035C0002046FDF751F8A88824F8300FE88860807D
:1035D000A680287AA071687AE071A87A2072303CBF
:1035E000142101A8FDF740F8286801900296E888A8
:1035F000039012480490059401A8FFF74BFBA062CA
:10360000A06A38B92046FCF7F0FE07200A49087086
:103610000020C8E70821A06AFFF7AAFB0848017844
:103620000078401C064A1070064840F821400020EF
:10363000014908702046B6E709020020413300081E
:103640000002002048C3012000B502460B46104688
:10365000FFF759FF28B1506A181A642801D80120D1
:1036600000BD0020FCE7014659B1087E48B191F841
:10367000460030B991F8470018B14878012800D1C8
:1036800070470020FCE700B9704700212C3001771B
:10369000417781778162417601768176C1760163D7
:1036A00000F8141C2C3800BFEEE72DE9F041044669
:1036B0000D460CB1A06A10B90020BDE8F081A16AE6
:1036C00001F12400FF220721FCF7A4FFA06A80F883
:1036D0002B50A06A4668A06AC769208EA16A48601C
:1036E000208EA16AC861208EA4F86000A06D401CE5
:1036F000A065204600F04EF88046A06A4660A06AA9
:10370000C7614046D9E710B52DED028B0446B0EEF7
:10371000408AF0EE608A3CB394F83700022823D147
:1037200018EE100A07F0B2F8F0B118EE900A07F0A0
:10373000ADF8C8B1BAEE090AB4EEC08AF1EE10FADB
:1037400012D3B2EE090AB4EEC08AF1EE10FA0BDC25
:10375000F5EEC08AF1EE10FA06D9B3EE0E0AF4EED9
:10376000C08AF1EE10FA03DD0020BDEC028B10BD23
:1037700084ED0F8AC4ED108A012084F8440094F887
:10378000470028B194F8480010B9012084F845009A
:103790000120EAE770B504460CB1A06A08B9002020
:1037A00070BD9FED0F0AA06AFFF7EAFA054635B132
:1037B000E06C401CE064002060650120F0E7206DB3
:1037C000401C2065606D401C6065606D052804D359
:1037D000012084F84A0084F848000020E0E7000057
:1037E000CDCCCC3DB0EE401A30EEC10AB0EE402A4E
:1037F00001228A40521E01EE902A00EE100AB8EE15
:10380000400A20EE020AB8EE613AC0EE032A32EE18
:10381000810A704708B50E480078B8B901200C49F4
:1038200008700C48406800900B490098096888426D
:1038300004D20A480068401C0849086005484068EE
:103840000549086000200249087000BF08BD00005B
:1038500050000020001000E0400000203C0000204C
:1038600010B52DED028B82B004460E4840680190E1
:1038700020680199081A00EE100AF8EE400A0A487A
:1038800090ED000AB8EE400A80EE801AB0EE418A50
:1038900001982060FFF7BEFFB0EE480A02B0BDEC11
:1038A000028B10BD001000E03000002010B52DED9F
:1038B000028B00F05BF80F4880880E49096801EB25
:1038C0004102C2EBC11100EBC10000EE100AB8EEDC
:1038D000400A0848C08800EE900AF8EE600A9FEDA2
:1038E000061A00EE810AB0EE408AB0EE480ABDEC3E
:1038F000028B10BD280000206F12833A10B50446D9
:103900001348006840F08070114908600020114998
:1039100048600846006840F0010008600E486043B7
:103920000E490860084600684FF47A71B0FBF1F068
:103930000B490860094800680749B0FBF1F00949E4
:103940000860002008490860FFF764FF10BD000010
:10395000FCED00E0001000E040420F0030000020CD
:1039600034000020380000203C00002038B52948F1
:1039700040680090FFF74EFF274800684FF0FF3186
:10398000A0FB01310098181841F10001234A03C23D
:10399000234800232149026803C9FCF74DFD214A51
:1039A00003C220480CC81E4800680024A2FB001572
:1039B00003FB005002FB04021848D0E90030591AFA
:1039C00060EB0200184AC2E9001016480068174967
:1039D0000860174800231449026803C9FCF72CFD4E
:1039E00012498880084680881149096841430E4879
:1039F000D0E90030591A60F100000E4AC2E9001007
:103A00000D4800230B49026803C9FCF715FD07495F
:103A1000C88038BD001000E03C00002048000020B5
:103A20003000002058000020600000202800002006
:103A30003400002068000020380000200188018147
:103A40007047000070B5002510E00B4850F8254085
:103A50002089002803DD2089401E208104E0606861
:103A600010B16168E0688847681CC5B203480078F7
:103A70008542EADB70BD0000D006002014C00120A2
:103A8000704772B600BFFEE770B50A480468001DB3
:103A90000568001D0668344454B1082206492046D2
:103AA00003F02FFA042204491031284603F029FAC2
:103AB00070BD0000107AFF1F7602002010B502468C
:103AC00092F82030012B01D0022B06D110684069FA
:103AD000084314686061002010BD506A40F48020E3
:103AE00050620120F8E7F0B504460D461E4694F8F2
:103AF000207020688368A86800B900E000BF012F2B
:103B000001D0022F7DD103F0806030B903F0006056
:103B100018B903F0805000287ED0C3F30161012062
:103B200088403060A86860B9B5F800C0E86840EA2D
:103B30004C5C206800F5C07000EB0110C0F800C0BC
:103B40000FE0D5E901C040EACC00D5F80CC040EA4E
:103B50000C00D4F800C00CF5C07C0CEB011CCCF8B8
:103B60000000D5F810C0206800F5C07000EB01100F
:103B7000C0F804C0287D01280ED1206800F5C0706F
:103B800000EB0110406840F4807C206800F5C070B4
:103B900000EB0110C0F804C0D079000692F806C00E
:103BA00040EA0C4092F805C040EA0C2092F804C0AC
:103BB00040EA0C00D4F800C00CF5C07C0CEB011CF2
:103BC000CCF80C00D078000692F802C040EA0C4015
:103BD00092F801C040EA0C2092F800C040EA0C00C4
:103BE000D4F800C00CF5C07C0CEB011CCCF808002C
:103BF000206800F5C07000EB0110006840F0010C77
:103C000001E00FE008E0206800F5C07000EB011053
:103C1000C0F800C00020F0BD606A40F4001060628F
:103C20000120F8E7606A40F4802060620120F2E73A
:103C3000F0B504460A4694F82050012D01D0022D1B
:103C40007ED1424901F50071086840F0010008602A
:103C5000086820F47C5008600868566A40EA06202C
:103C60000860107D00F01F06012000FA06F3C86905
:103C70009843C861A1F50071D069C8B9D1F80C02A8
:103C80009843C1F80C02908880B2968940EA0646B3
:103C900001F51070576940F83760108880B21689B6
:103CA00040EA064601F51070576900EBC700466010
:103CB000D069012819D1D1F80C021843C1F80C02BF
:103CC000908880B2168840EA064601F51070576960
:103CD00040F83760908980B2168940EA064601F5BF
:103CE0001070576900EBC7004660906928B9D1F899
:103CF00004029843C1F8040204E0D1F80402184316
:103D0000C1F80402106928B9D1F814029843C1F827
:103D1000140204E0D1F814021843C1F81402106A26
:103D2000012804D1D1F81C021843C1F81C02D1F8B3
:103D3000000220F00100C1F800020020F0BDFFE702
:103D4000606A40F4802060620120F7E70064004070
:103D5000704710B50246002092F82030012B01D0A8
:103D6000022B09D121B91468E46804F0030003E0D0
:103D70001468246904F0030010BD70B5044694F87B
:103D80002050012D01D0022D7DD151B92068C0688D
:103D900000F0030080B9606A40F400106062012006
:103DA00070BD2068006900F0030028B9606A40F423
:103DB000001060620120F3E7206800F5D87000EB86
:103DC0000110006800F004009060906840B920681D
:103DD00000F5D87000EB01100068400D106007E09E
:103DE000206800F5D87000EB01100068C008506032
:103DF000206800F5D87000EB0110006800F00200A8
:103E0000D060206800F5D87000EB0110406800F029
:103E10000F00082802D30820106108E0206800F590
:103E2000D87000EB0110406800F00F0010612068AE
:103E300000F5D87000EB0110406800F47F40000AE4
:103E40009061206800F5D87000EB01104068000C0C
:103E50005061206800F5D87000EB01108068187080
:103E6000206800F5D87000EB0110806800F47F40F6
:103E7000000A5870206800F5D87000EB01108068C7
:103E800000F47F0000E03CE0000C9870206800F532
:103E9000D87000EB01108068000ED870206800F523
:103EA000D87000EB0110C0681871206800F5D87058
:103EB00000EB0110C06800F47F40000A58712068D0
:103EC00000F5D87000EB0110C06800F47F00000C12
:103ED0009871206800F5D87000EB0110C068000EE2
:103EE000D87131B92068C06840F020002668F060C1
:103EF00005E02068006940F020002668306100205D
:103F00004EE7606A40F480206062012048E7014685
:103F1000002091F82020012A01D0022A11D10B683B
:103F20009B6803F0806303B1401C0B689B6803F03F
:103F3000006303B1401C0B689B6803F0805303B11E
:103F4000401C70472DE9F05F044600252068466953
:103F50002068D0F80490206887682068D0F80CA00A
:103F60002068D0F810B02068D0F8188006F0010062
:103F7000002855D007F00100C0B1012021688860F9
:103F800007F0020018B1204600F0BFFA0EE007F07B
:103F9000040010B145F4006508E007F0080010B116
:103FA00045F4805502E0204600F0AEFA07F4807038
:103FB000C8B14FF480702168886007F4007018B1B0
:103FC000204600F0A4FA0EE007F4806010B145F43A
:103FD000005508E007F4006010B145F4804502E0A8
:103FE000204600F093FA07F48030C8B14FF48030D7
:103FF0002168886007F4003018B1204600F089FA83
:104000000EE007F4802010B145F4004508E007F405
:10401000002010B145F4803502E0204600F078FA27
:1040200006F0080038B10AF0100020B145F4007520
:1040300010202168C86006F0040040B10AF00800B2
:1040400028B108202168C860204600F01DFA06F05B
:10405000020038B12068C06800F0030010B12046AB
:1040600000F013FA06F0400038B10BF0100020B158
:1040700045F4806510202168086106F0200040B1F9
:104080000BF0080028B1082021680861204600F0E4
:1040900003FA06F0100038B12068006900F0030050
:1040A00010B1204600F0F9F906F4003040B109F0F3
:1040B000100028B1102021684860204600F0F4F973
:1040C00006F4803040B109F0080028B108202168CA
:1040D0004860204600F01EFA06F4004088B309F05C
:1040E000040078B306F4807020B108F0010008B134
:1040F00045F0010506F4007020B108F0020008B197
:1041000045F0020506F4806020B108F0040008B113
:1041100045F0040506F40060A0B108F0700088B115
:1041200008F07000402817D006DC10280BD020289B
:104130000CD0302819D10CE0502810D0602814D1B0
:1041400010E01DE019E045F008050FE045F010050E
:104150000CE045F0200509E045F0400506E045F09B
:10416000800503E045F4807500E000BF00BF2068D3
:10417000806920F07000216888610420216848600F
:104180002DB1606A284360622046FFF7E1FDBDE87B
:10419000F09F70B504460CB9012070BD94F8200062
:1041A00010B9204600F0B0F82068006840F0010027
:1041B0002168086000F06EFC05460DE000F06AFC26
:1041C000401B0A2808D9606A40F40030606205206C
:1041D00084F820000120E0E72068406800F001003A
:1041E0000028EBD02068006820F0020021680860F9
:1041F00000F050FC05460DE000F04CFC401B0A2886
:1042000008D9606A40F400306062052084F820001C
:104210000120C2E72068406800F002000028EBD1CE
:10422000207E012806D12068006840F080002168C7
:10423000086005E02068006820F0800021680860C0
:10424000607E012806D12068006840F040002168A7
:10425000086005E02068006820F0400021680860E0
:10426000A07E012806D12068006840F02000216867
:10427000086005E02068006820F0200021680860E0
:10428000E07E012806D12068006820F01000216837
:10429000086005E02068006840F0100021680860B0
:1042A000207F012806D12068006840F008002168BE
:1042B000086005E02068006820F0080021680860B8
:1042C000607F012806D12068006840F00400216862
:1042D000086005E02068006820F00400216808609C
:1042E000D4E9020108432169084361690843616810
:1042F000491E08432168C86100206062012084F8DB
:104300002000002049E7000010B586B004461421C3
:1043100001A8FCF7A9F956492068884249D15548B7
:104320000068401C534908600846006801280FD106
:1043300000BF002000905048006840F000704E49D7
:1043400008600846006800F00070009000BF00BFE1
:1043500000BF0020009048481038006840F0080076
:104360004549103908600846006800F008000090D0
:1043700000BF00BF032001900220029000200390A4
:10438000032004900920059001A93C4800F082FA1E
:1043900000220521142000F045FC142000F02EFC22
:1043A00000220521152000F03DFC152000F026FC20
:1043B0005CE033492068884258D100BF002000905B
:1043C0002D48006840F080602B490860084600686E
:1043D00000F08060009000BF00BF26480068401CCD
:1043E000244908600846006801280FD100BF00205A
:1043F00000902148006840F000701F49086008469E
:10440000006800F00070009000BF00BF00BF0020F7
:10441000009019481038006840F002001649103921
:1044200008600846006800F00200009000BF00BF6E
:10443000602001900220029000200390032004904D
:104440000920059001A90F4800F024FA0022052157
:10445000402000F0E7FB402000F0D0FB00220521C7
:10446000412000F0DFFB412000F0C8FB06B010BD8A
:10447000006400401000002040380240000C024060
:104480000068004000040240704710B50446002157
:104490002046FEF7B1FB10BD704710B50446012160
:1044A0002046FEF7A9FB10BD704770B5044694F88E
:1044B0002000012822D1022084F820002068006812
:1044C00020F001002168086000F0E4FA05460DE0E4
:1044D00000F0E0FA401B0A2808D9606A40F4003076
:1044E0006062052084F82000012070BD20684068CB
:1044F00000F001000028EBD16062F6E7606A40F44A
:10450000002060620120F0E77047704770477047F5
:10451000704770477047014691F83500022803D074
:104520008020486501207047052081F83500086823
:10453000006820F001000A6810600020F3E7000026
:10454000F8B50446002000908C4800684FF41651DE
:10455000B0FBF1F7A56D2E6894F85C100820884038
:10456000304098B12068006800F0040070B1206805
:10457000006820F004002168086094F85C100820AE
:104580008840A860606D40F00100606594F85C10A0
:1045900001208840304068B12068406900F0800008
:1045A00040B194F85C1001208840A860606D40F034
:1045B0000200606594F85C1004208840304068B1C7
:1045C0002068006800F0020040B194F85C100420FC
:1045D0008840A860606D40F00400606594F85C104D
:1045E00010208840304078B32068006800F0080050
:1045F00050B394F85C1010208840A86020680068D0
:1046000000F4802080B12068006800F4002028B900
:10461000206CC8B12046216C884715E0A06C98B189
:104620002046A16C88470FE02068006800F4807085
:1046300028B92068006820F0080021680860206C14
:1046400010B12046216C884794F85C1020208840E7
:104650003040002865D02068006800F01000002875
:104660005FD094F85C1020208840A86094F8350052
:10467000052828D12068006820F01600216808600D
:104680002068406920F0800021684861206C08B9EA
:10469000A06C28B12068006820F00800216808603C
:1046A00094F85C103F208840A860012084F8350011
:1046B00000BF002084F8340000BF206D10B12046F8
:1046C000216D8847F8BD2068006800F4802080B123
:1046D0002068006800F4002028B9606C10B1204602
:1046E000616C88471DE0E06BD8B12046E16B8847DC
:1046F00017E02068006800F4807068B920680068DE
:1047000020F0100021680860012084F8350000BF07
:10471000002084F8340000BFE06B10B12046E16B4C
:104720008847606D38B3606D00F00100F0B105207E
:1047300084F835002068006820F0010021680860D6
:1047400000BF0098401C0090B84200D905E02068E6
:10475000006800F001000028F3D100BF012084F8B8
:10476000350000BF002084F8340000BFE06C10B1B9
:104770002046E16C884700BFA4E70000200000202D
:104780002DE9F0410446002500F084F9074614B9EC
:104790000120BDE8F081606A00B100BF022084F80A
:1047A000350000BF002084F8340000BF2068006896
:1047B00020F00100216808600AE000F06BF9C01BDE
:1047C000052805D920206065032084F83500E0E73E
:1047D0002068006800F001000028EED1206805681C
:1047E00021480540D4E901010843E16808432169F3
:1047F000084361690843A1690843E1690843216AE4
:1048000008430543606A042803D1D4E90B01084337
:104810000543206805602068456925F00705606A42
:104820000543606A04280DD1A06A0543E06A48B1D7
:104830002046FEF75DFC28B140206065012084F829
:104840003500A6E7206845612046FEF737FC06469E
:1048500094F85C103F208840B06000206065012023
:1048600084F83500002094E73F8010F070B50446CE
:1048700000F010F906462546681C10B1044800787F
:10488000054400BF00F006F9801BA842FAD370BDB2
:104890001C000020F8B502460B460025002400202D
:1048A0000021D6E0012606FA01F51E6806EA050495
:1048B000AC4274D11E7906F00306012E04D01E7995
:1048C00006F00306022E13D190684F000326BE4067
:1048D000B0434F00DE68BE40304390605068012610
:1048E0008E40B0431E79C6F300168E4030435060B0
:1048F0001E7906F00306032E09D0D0684F00032668
:10490000BE40B0434F009E68BE403043D0601E7929
:1049100006F00306022E13D1CF0802F1200656F846
:1049200027004E07F70E0F26BE40B0434F07FF0E7D
:104930001E69BE403043CF0802F1200646F827002A
:1049400010684F000326BE40B0431E7906F00306F0
:104950004F00BE40304310605E6806F44036002EC3
:1049600076D000BF002600963C4E366846F480465E
:104970003A4F3E603E46366806F48046009600BFD9
:1049800000BF374E8F0856F827008E07370F0F26C7
:10499000BE40B043334EB24202D1002624E057E07D
:1049A000314EB24201D101261EE0304EB24201D159
:1049B000022619E02E4EB24201D1032614E02D4EFC
:1049C000B24201D104260FE02B4EB24201D105269E
:1049D0000AE02A4EB24201D1062605E0284EB24234
:1049E00001D1072600E008268F073F0FBE40304365
:1049F0001B4E8F0846F82700224E3068A0435E68A1
:104A000006F4801606B120431E4E3060361D306815
:104A1000A0435E6806F4001606B12043194E361D09
:104A20003060184E361F3068A0435E6806F40036CA
:104A300006B12043134E361F3060361F3068A04346
:104A40005E6806F4803606B120430E4E083E3060A4
:104A5000491C1029FFF426AFF8BD0000443802407D
:104A600008380140000002400004024000080240F3
:104A7000000C0240001002400014024000180240E6
:104A8000001C0240083C01400AB1816101E00B04B6
:104A900083617047014800687047000014000020DF
:104AA00003480068034909780844014908607047D1
:104AB000140000201C00002010B50D48006840F4D0
:104AC00000700B4908600846006840F48060086088
:104AD0000846006840F480700860032000F0E0F8A9
:104AE0000F2000F007F800F05FF8002010BD000074
:104AF000003C02402DE9F04188B004460027B8464A
:104B000000BF002001902348006840F480702149D4
:104B100008600846006800F48070019000BF00BF84
:104B200002A903A801F064F8069F1FB901F088F8F4
:104B3000054602E001F084F845001748B5FBF0F0A7
:104B4000A0F1010815481649086040F2E731144801
:104B5000C160C0F80480002101618160816101F0C1
:104B600093FD064696B90E4801F0F2FD06466EB971
:104B70002D2000F043F8102C07D2002221462D20D2
:104B800000F050F80748046000E00126304608B005
:104B9000BDE8F0814038024040420F000020004054
:104BA00000C301201800002008B500BF00200090BD
:104BB0001148006840F480400F49086008460068CA
:104BC00000F48040009000BF00BF00BF00200090B4
:104BD000081F006840F08050091F08600846006800
:104BE00000F08050009000BF00BF00220F21901EF7
:104BF00000F018F808BD000044380240014608469D
:104C000000280DDB00BF00BF00F01F0301229A4007
:104C100043099B0003F1E023C3F8002100BF00BF5C
:104C200000BF70472DE9F05F80460D46164600270D
:104C300005F048FE074639462A46334601F007008C
:104C4000C0F1070ABAF1040F02D94FF0040A01E0DB
:104C5000C0F1070AD14600F1040ABAF1070F02D2E7
:104C60004FF0000A01E0A0F1030AD4464FF0010A18
:104C70000AFA09FAAAF1010A0AEA020A0AFA0CFA7D
:104C80004FF0010B0BFA0CFBABF1010B0BEA030B22
:104C90004AEA0B042146404605F01CFEBDE8F09FA1
:104CA00000BF00F00702064B19684FF6FF031940DA
:104CB000044B0B4343EA0221014B196000BF7047CC
:104CC0000CED00E00000FA057047024610684162F2
:104CD00000207047F0B5034615461868446A21B9AC
:104CE00044EA05401E68B06219E01868806A04EB67
:104CF0001044002208E0186800F5827050F8220085
:104D000004EB1044501CC2B2481E9042F3D844EA4F
:104D10000547186800F582704E1E40F82670002086
:104D2000F0BD10B50446D4F8E00404F0CEF810BD90
:104D300070B504460D4605EBC50304F1140101EB03
:104D40008301CA682946D4F8E00403F0B1FF70BDBE
:104D500070B504460D4605EBC50304F5157101EB6E
:104D60008301CA682946D4F8E00404F029F870BD2C
:104D700010B50446D4F8E00404F0AAF810BD2DE9FB
:104D8000F04104460D4605F08000802808D105F06A
:104D90000F0000EBC00104F1140000EB810607E0F6
:104DA00005F00F0000EBC00104F5157000EB810663
:104DB0003146206805F0E2FA07463846BDE8F08142
:104DC00070B504460E4606F0800080280AD106F031
:104DD0000F0000EBC00104F1140000EB810501207D
:104DE000687009E006F00F0000EBC00104F51570D3
:104DF00000EB81050020687006F00F00287000BFEE
:104E000094F89404012801D1022070BD012084F897
:104E1000940400BF2946206804F03EFE00BF002035
:104E200084F8940400BF00BFEFE770B504460E4657
:104E300006F00F002179884201D9012070BD06F0EB
:104E4000800080280AD106F00F0000EBC00104F1B9
:104E5000140000EB81050120687009E006F00F00E6
:104E600000EBC00104F5157000EB810500206870AF
:104E70000020A87006F00F00287000BF94F894047A
:104E8000012801D10220D9E7012084F8940400BF51
:104E90002946206804F0FEFF00BF002084F8940437
:104EA00000BF00BFCAE7024601F00F0000EBC003DD
:104EB00002F5157000EB8300406970472DE9F0475B
:104EC00005460E4690461F464FF0000906F080004A
:104ED00080280AD106F00F0000EBC00105F1140094
:104EE00000EB81040120607009E006F00F0000EB88
:104EF000C00105F5157000EB81040020607006F01C
:104F00000F002070C8F30A00A0602771607808B114
:104F100020786083022F01D10020607100BF95F8D6
:104F20009404012802D10220BDE8F087012085F811
:104F3000940400BF2146286804F0BAFC00BF00209A
:104F400085F8940400BF4846EEE72DE9F041054698
:104F50000E461746984606F00F0000EBC00105F517
:104F6000157000EB8104E760C4F8108000206061D8
:104F7000607006F00F002070A879012800D1E76169
:104F8000AA792146286805F019F80020BDE8F081CB
:104F900070B504460D4605F00F002179884201D90D
:104FA000012070BD05F0800080280AD105F00F00B7
:104FB00000EBC00104F1140000EB810601207070C9
:104FC00007E005EBC50104F5157000EB8106002034
:104FD00070700120B07005F00F00307000BF94F8C1
:104FE0009404012801D10220DBE7012084F8940415
:104FF00000BF3146206804F094FF05F00F0028B987
:10500000A17904F29C42206804F00CFF00BF00204C
:1050100084F8940400BF00BFC3E72DE9F0410546C2
:105020000E461746984606F00F0000EBC00105F14A
:10503000140000EB8104E760C4F810800020606178
:105040000120607006F00F002070A879012800D1BF
:10505000E761AA792146286804F0B0FF0020BDE886
:10506000F0812DE9FE4F0446D4F800B05E4620687A
:1050700005F066FA002874D1206805F0A0FA08B996
:10508000BDE8FE8F40F608008059C0F30D20C4F83B
:10509000D404206805F093FA00F00200022805D13C
:1050A0002068406900F0020021684861206805F02E
:1050B00086FA00F01000102845D12068806920F0A1
:1050C000100021688861DBF8209009F00F0000EBE8
:1050D000C00104F5157000EB810AC9F343400228B2
:1050E0001AD147F6F07009EA000030B3C9F30A128A
:1050F0005846DAF80C1005F067FAC9F30A11DAF825
:105100000C000844CAF80C00C9F30A11DAF81400BC
:105110000844CAF8140010E0C9F3434006280CD133
:10512000082204F29C41584605F04EFAC9F30A11D0
:10513000DAF814000844CAF814002068806940F0C6
:10514000100021688861206805F039FA00F4002019
:10515000B0F5002F7BD10025206805F000FA029001
:1051600072E0E1E2029800F00100002868D0E9B2A4
:10517000206805F017FA804608F0010048B10121C7
:1051800006F5306000EB451081602946204602F0AC
:10519000F7F908F00800082809D1082106F5306061
:1051A00000EB451081602946204602F0B7F908F06F
:1051B0001000102805D1102106F5306000EB4510D5
:1051C000816008F00200022824D1DBF8140000F00E
:1051D0008000802807D140F60400805940F48061A7
:1051E00040F60400815105EBC50104F5157000EB94
:1051F000810A9AF80300012806D100208AF80300EA
:10520000E9B2204600F09BFA022106F5306000EB7F
:105210004510816008F02000202805D1202106F5E6
:10522000306000EB4510816008F40050B0F5005F7D
:1052300006D14FF4005106F5306000EB4510816057
:105240006D1C029840080290029800288AD12068BC
:1052500005F0B5F900F48020B0F5802F7DD12068ED
:1052600005F073F9029000259AE0029800F0010021
:10527000002873D0E9B2206805F07BF9804608F079
:105280000100F0B305F00F0101208840019040F6C5
:1052900034008159019821EA000040F63401885118
:1052A000012106F5106000EB45108160A07901280E
:1052B00024D105EBC50104F1140000EB810005EBDE
:1052C000C502C16804F1140000EB8200806801444B
:1052D00005EBC50204F1140000EB8200C1606DB95A
:1052E00005EBC50104F1140000EB8100006928B949
:1052F00004F29C420121206804F094FDE9B22046AA
:1053000000E001E0FFF714FD08F00800082805D1CF
:10531000082106F5106000EB4510816008F01000D0
:10532000102805D1102106F5106000EB45108160B2
:1053300008F04000402805D1402106F5106000EB40
:105340004510816008F0020002281DD12946584608
:1053500005F0B9F805EBC50101E025E01CE004F11A
:10536000140000EB810A9AF80300012806D10020FE
:105370008AF80300E9B2204600F0D8F9022106F5C8
:10538000106000EB4510816008F08000802803D198
:105390002946204602F096F96D1C029840080290BA
:1053A000029800287FF461AF206805F008F900F04A
:1053B0000040B0F1004F1CD140F60400805920F0AD
:1053C000010140F60400815194F8CC04012807D172
:1053D000002084F8CC0400212046FFF775FC02E091
:1053E000204600F0D1FA2068406900F000402168B2
:1053F0004861206805F0E3F800F40060B0F5006F44
:105400000ED140F60800805900F0010010B120468E
:1054100000F012FB2068406900F4006021684861D8
:10542000206805F0CCF800F48050B0F5805F7ED1A4
:1054300040F60400805920F0010140F6040081513B
:105440001021206805F03FF8002732E04FF67F3149
:1054500006F5106000EB4710816006F5106000EB68
:105460004710006820F4001106F5106000EB4710AB
:1054700001604FF67F3106F5306000EB4710816028
:1054800006F5306000EB4710006820F4001106F5C7
:10549000306000EB4710016006F5306000EB47100C
:1054A000006840F0006106F5306000EB47100160D5
:1054B0007F1C2079B842C9D840F61C00805940F0C2
:1054C000011140F61C008151E07B70B1D6F88408D0
:1054D00040F00B01C6F8841840F64400805940F0B3
:1054E0000B0140F6440081510FE040F61400805952
:1054F00042F22B01084340F614018851081F8059DD
:1055000040F00B014FF401608151D6F8000820F4FF
:10551000FE60C6F80008A17904F29C42206804F0FD
:1055200081FC2068406900F48050216800E000E0C0
:105530004861206805F043F800F40050B0F5005FC2
:1055400017D1206804F01CFA206804F0E6FFE0712F
:1055500000F070FB0090E2792068009905F0E4F813
:10556000204600F0F9F92068406900F400502168F5
:105570004861206805F023F800F00800082808D1E9
:10558000204600F008FA2068406900F00800216811
:105590004861206805F013F800F08000802818D1D9
:1055A000DBF8180020F08000CBF8180001250DE092
:1055B00005EBC50104F5157000EB8100C0780128EA
:1055C00003D1E9B22046FFF7DAFB6D1C2079A8422F
:1055D000EED8206804F0F3FF00F48010B0F5801FCF
:1055E0002DD1012522E006F5106000EB4510D0F822
:1055F000009005EBC50104F1140000EB8100007977
:10560000012812D109F00040B0F1004F0DD1012165
:1056100005EBC50204F1140000EB8200C170E8B292
:1056200040F080012046FFF7AAFB6D1C2079A842BC
:10563000D9D82068406900F480102168486120684A
:1056400004F0BDFF00F40010B0F5001F44D10125A7
:1056500038E006F5306000EB4510D0F8009005EB1F
:10566000C50104F5157000EB81000079012828D1EF
:1056700009F00040B0F1004F23D194F8D40400F0B9
:105680000100C9F3004188421BD1012105EBC5028D
:1056900004F5157000EB8200C170DBF8180040F0D3
:1056A0008000CBF81800DBF8140000F0800040B94F
:1056B00040F60400805940F4007140F60400815126
:1056C00003E06D1C2079A842C3D800BF2068406960
:1056D00000F4001021684861206804F070FF00F0B9
:1056E0008040B0F1804F08D12046FFF71AFB2068B8
:1056F000406900F0804021684861206804F05FFF45
:1057000000F0040004280FD12068D0F8049009F0BC
:105710000400042802D12046FFF72AFB20684068D5
:1057200040EA09002168486000BFA9E470B504465A
:105730000D462946D4F8E00403F036FC70BD70B580
:1057400004460D462946D4F8E00403F051FC70BD30
:10575000F8B504460CB90120F8BD266894F8950404
:1057600028B9002084F89404204600F0A1F8032012
:1057700084F89504B6F1A04F01D10021A1712068F1
:1057800004F048FB207C8DF8000094E80F0004F042
:105790000BF920B1022084F895040120DCE70021F8
:1057A000206804F06FFF20B1022084F895040120E6
:1057B000D2E7002531E0012105EBC50204F1140018
:1057C00000EB8200417005EBC50104F1140000F804
:1057D000215005EBC50100EB81004583002105EB5D
:1057E000C50204F1140000EB8200017105EBC50253
:1057F00004F1140000EB8200816005EBC50204F1A6
:10580000140000EB8200C16005EBC50204F1140036
:1058100000EB82000161681CC5B22079A842CADC95
:1058200000252AE0002105EBC50204F5157000EB08
:105830008200417005EBC50104F5157000F8215098
:10584000002105EBC50200EB8200017105EBC502EA
:1058500004F5157000EB8200816005EBC50204F5CC
:10586000157000EB8200C16005EBC50204F51570F0
:1058700000EB82000161681CC5B22079A842D1DC2E
:10588000207C8DF8000094E80F0004F0CFF920B1DF
:10589000022084F8950401205EE700206074012056
:1058A00084F89504206804F0AFF9002054E7000064
:1058B00010B586B00446142101A8FAF7D5FE206879
:1058C000B0F1A04F42D100BF0020009020480068F6
:1058D00040F001001E4908600846006800F0010021
:1058E000009000BF00BF4FF4C05001900220029012
:1058F00000200390032004900A20059001A9154878
:10590000FEF7C8FF00BF1248001D006840F080008D
:105910000F49091D086000BF002000900C4814309A
:10592000006840F480400A49143108600846006865
:1059300000F48040009000BF00BF00BF002205219E
:105940004320FFF76FF94320FFF758F906B010BD69
:10595000303802400000024070B504460125E0796D
:1059600008B9002506E0E079022801D1012501E00F
:10597000FEF787F82946D4F8E00403F0E3FBD4F8F7
:10598000E00403F089FB70BD10B50446D4F8E004D0
:1059900003F0B9FB10BD10B50446D4F8E00403F0E1
:1059A000BDFB10BD70B504460D4600BF94F89404CD
:1059B000012801D1022070BD012084F8940400BFA9
:1059C00065742946206804F091FE00BF002084F829
:1059D000940400BF00BFEEE710B5044604F29C41FA
:1059E000D4F8E00403F0C5FB10BD70B5044625688B
:1059F00000BF94F89404012801D1022070BD012059
:105A000084F8940400BFE86800F0400030B1607B87
:105A1000012803D1A86B40F48030A863206804F00B
:105A200023FD206804F0DEF800BF002084F8940411
:105A300000BF00BFE2E7000010B50446D4F8E00460
:105A400003F0F4FB2068D0F8000E40F0010021685C
:105A5000C1F8000EE07A28B10348006840F0060063
:105A60000149086010BD000010ED00E070B504466B
:105A70000D460CB9012070BD5848006800F00700C1
:105A8000A84209D255490D700846006800F0070089
:105A9000A84201D00120EEE7207800F002000228A1
:105AA0001DD1207800F00400042805D14C4800687E
:105AB00040F4E0504A490860207800F008000828C7
:105AC00005D14748006840F46040454908604448B3
:105AD000006820F0F000A168084341490860207880
