:020000040800F2
:10000000D88D01203103000891C6000825C00008E2
:100010008DC60008C169000831FF0008000000001B
:100020000000000000000000000000007102000855
:100030002179000800000000CD020008D5CA0008A0
:100040004B0300084B0300084B0300084B03000858
:100050004B0300084B0300084B0300084B03000848
:100060004B0300084B0300084B0300084B03000838
:10007000F16E00084B0300084B0300084B03000817
:100080004B0300084B0300084B0300084B03000818
:10009000C5690008D56900084B0300084B03000838
:1000A0004B0300084B0300084B0300084B030008F8
:1000B0004B0300084B0300084B0300084B030008E8
:1000C0004B0300084B0300084B03000895CA0008C7
:1000D0004B0300084B0300084B0300084B030008C8
:1000E0004B0300084B0300084B0300084B030008B8
:1000F0004B030008D1CB00084B0300084B0300085A
:100100004B0300084B0300084B0300084B03000897
:100110004B0300084B0300084B0300084B03000887
:10012000016F00084B030008116F0008216F0008E1
:100130004B0300084B0300084B0300084B03000867
:10014000E5690008F56900084B03000895C600083A
:100150004B0300084B0300084B0300082DD6000892
:100160004B0300084B0300084B0300084B03000837
:100170004B0300084B0300084B030008000000007D
:100180004B0300084B03000800F002F800F060F891
:100190000AA090E8000C82448344AAF10107DA45E2
:1001A00001D100F055F8AFF2090EBAE80F0013F0D4
:1001B000010F18BFFB1A43F0010318470823010081
:1001C000482301000A444FF0000C10F8013B13F0E3
:1001D000070408BF10F8014B1D1108BF10F8015BA0
:1001E000641E05D010F8016B641E01F8016BF9D193
:1001F00013F0080F1EBF10F8014BAD1C0C1B09D1EA
:100200006D1E58BF01F801CBFAD505E014F8016B5B
:1002100001F8016B6D1EF9D59142D6D370470000ED
:100220000023002400250026103A28BF78C1FBD8FF
:10023000520728BF30C148BF0B6070471FB512F08E
:10024000A4F89DE8030000F047FA1FBD10B510BDEB
:1002500000F0AEFA1146FFF7F1FF10F0A0FD00F03C
:10026000CCFA03B4FFF7F2FF03BC00F0FDFA000084
:100270002C4B19680868B0E8F04F80F30988BFF389
:100280006F8F4FF0000080F311887047000000006E
:1002900008480068006880F308884FF0000080F389
:1002A000148862B661B6BFF34F8FBFF36F8F00DF64
:1002B00000BF00BF08ED00E0DFF80C00016841F46A
:1002C00070010160704700BF88ED00E0EFF3098026
:1002D000BFF36F8F134B1A681EF0100F08BF20ED8D
:1002E000108A20E9F04F106009B44FF0500080F3FD
:1002F0001188BFF34F8FBFF36F8F11F067FA4FF084
:10030000000080F3118809BC19680868B0E8F04F54
:100310001EF0100F08BFB0EC108A80F30988BFF3FD
:100320006F8F7047B0010020EFF305807047000029
:100330000948804709480047FEE7FEE7FEE7FEE779
:10034000FEE7FEE7FEE7FEE7FEE7FEE704480549B5
:10035000054A064B70470000BDCB00088901000824
:10036000D88D0020D88D0120D80D0120D80D012076
:1003700070B5064600F094F9056806F10B0020F010
:100380000704B4429CBF002070BD2B466A68BAB116
:100390001068A04210D304F1080188423CBF5068A5
:1003A000586007D35168101941601168091B01603A
:1003B00058601460101D70BD13465268002AE7D1C2
:1003C0002146284600F074F90028DED170BD70B5D2
:1003D0000446051F00F064F90068002C14BF44684F
:1003E00070BD002C18BFAC423CBF20466468F8D3F7
:1003F00001680A18AA4218BF456003D12A68054659
:100400001144016028684119A1421CBF6C6070BD95
:100410006168696021680844286070BD53EA020C75
:1004200000F069802DE9F04B4FF00006002B1FBF54
:10043000B3FA83F503FA05F424FA05F65E4012BF19
:100440001643B2FA82F502FA05F4C5F120051EBF83
:1004500022FA05FC44EA0C04203556EA044C4FEA23
:10046000144418BF641C4FF000084FF0000990427C
:1004700071EB030C39D3002919BFB1FA81F701FAE6
:1004800007F6B0FA80F700FA07F6C7F120071EBF9B
:1004900020FA07FC46EA0C062037B6FBF4FCA7EB73
:1004A0000507103F07F01F0BCBF120060CFA0BFBE2
:1004B0002CFA06F644BFB3460026202FA4BF5E46A2
:1004C0004FF0000B5BEA060C08BF4FF0010B19EB75
:1004D0000B09ABFB027C48EB0608C01B06FB02CCF9
:1004E0000BFB03CC71EB0C01C1E70B460246414606
:1004F0004846BDE8F08B13B54FF000004FF0000107
:10050000AFF30080BDE81C407047032A40F2308002
:1005100010F0030C00F0158011F8013BBCF1020F44
:10052000624498BF11F801CB00F8013B38BF11F8C5
:10053000013BA2F1040298BF00F801CB38BF00F8DC
:10054000013B11F0030300F02580083AC0F0088059
:1005500051F8043B083A51F804CBA0E80810F5E73D
:10056000121D5CBF51F8043B40F8043BAFF3008020
:10057000D20724BF11F8013B11F801CB48BF11F895
:10058000012B24BF00F8013B00F801CB48BF00F865
:10059000012B704710B5203AC0F00B80B1E818501D
:1005A000203AA0E81850B1E81850A0E81850BFF45D
:1005B000F5AF5FEA027C24BFB1E81850A0E81850FC
:1005C00044BF18C918C0BDE810405FEA827C24BF50
:1005D00051F8043B40F8043B08BF7047D20728BFDE
:1005E00031F8023B48BF11F8012B28BF20F8023B2D
:1005F00048BF00F8012B704702F0FF0343EA0322D3
:1006000042EA024200F002B84FF000020429C0F0B2
:10061000128010F0030C00F01B80CCF1040CBCF134
:10062000020F18BF00F8012BA8BF20F8022BA1EB86
:100630000C0100F00DB85FEAC17C24BF00F8012B6B
:1006400000F8012B48BF00F8012B70474FF0000263
:1006500000B5134694469646203922BFA0E80C50B8
:10066000A0E80C50B1F12001BFF4F7AF090728BF93
:10067000A0E80C5048BF0CC05DF804EB890028BF0F
:1006800040F8042B08BF704748BF20F8022B11F038
:10069000804F18BF00F8012B7047704770477047B4
:1006A0000048704784CD01207047704770477047FD
:1006B00038B504460A4600206946AFF3008000289A
:1006C00008BF38BD02460099204600F04FF80120CF
:1006D00038BD012000F064B8F8B5AFF300800546DE
:1006E00000200C46102000BF0646A819A0420DD9D4
:1006F000324669460020AFF30080070008BF00F0D3
:100700004FF80098A04218BF0546C419FFF7C8FF6C
:1007100005600746F01D20F007004619284600F046
:100720000AF8B44208BFF8BDA21B31463868BDE8DC
:10073000F84000F01BB800210160C0E901107047CB
:100740001020704710B500F00DF8006810BD10B50E
:10075000044600F007F8046010BD00000048704730
:100760007CCD0120004870477CCD012003464068C5
:100770008C46002818BF88423CBF03464068F8D327
:1007800018681844884207D00CF1030020F00700D5
:10079000001D411A521A0146081D0A60FFF717BED4
:1007A00010B500F039F8BDE8104000F02FB87047E0
:1007B0007546FFF7D3FFAE4605006946534620F065
:1007C0000700854618B020B5FFF7C0FDBDE8204002
:1007D0004FF000064FF000074FF000084FF0000BFD
:1007E00021F00701AC46ACE8C009ACE8C009ACE8B0
:1007F000C009ACE8C0098D46704710B50446AFF398
:1008000000802046BDE81040FFF72BBD002801D036
:1008100000F02AB87047000010B5012805D000216B
:1008200003A000F027F8012010BD09A1F8E700009F
:1008300053494752544D454D3A204F7574206F66C9
:100840002068656170206D656D6F72790000000031
:100850003A2048656170206D656D6F727920636F15
:10086000727275707465640001491820ABBEFEE7B2
:100870002600020070B505460C460A2000E06D1CFB
:1008800000F011F835B128780028F8D102E0641C96
:1008900000F009F814B120780028F8D1BDE87040C4
:1008A0000A20AFF3008008B569468DF800000320E8
:1008B000ABBE08BD094948700E21084A11700021DD
:1008C00082F85610064A517591751175118202F120
:1008D000800100220A664A668A667047EC0B002097
:1008E000600C0020F0EE400AF5EEC00AF1EE10FABE
:1008F00002D2B1EE600A7047B0EE600AFBE700007A
:1009000070B5064600251EE005EB8500104951F83C
:100910003040A4B13146204606F0E6FD78B194EDB2
:10092000010A10EE101A08460FF027FB38B194EDBB
:10093000020A10EE101A08460FF01FFB08B900203B
:1009400070BD681CC5B2032DDED30120F8E700009E
:10095000040B0020002110E001EB8100094A52F84D
:10096000300030B101EB810052F8300090F84500C2
:1009700008B900207047481CC1B20329ECD30120FC
:10098000F8E70000040B0020002110E001EB8100DB
:10099000094A52F8300030B101EB810052F83000C2
:1009A00090F8440008B900207047481CC1B20329E0
:1009B000ECD30120F8E70000040B002010B5002460
:1009C0000BE004EB8401074A52F8310006F0F3FC17
:1009D00008B1012010BD601CC4B2032CF1D300206B
:1009E000F8E70000040B002070B50646002410E074
:1009F00004EB8400094951F8305045B1287E30B1EC
:100A00003146284606F070FD08B9012070BD601C13
:100A1000C4B2032CECD30020F8E70000040B002044
:100A200000210FE001EB8100084B53F830203AB170
:100A300092F84A0010B9506D052801D30120704783
:100A4000481CC1B20329EDD30020F8E7040B0020B5
:100A500010B50446204602F065FC08B9002010BD20
:100A600094ED000ADFED1B0AB4EEE00AF1EE10FA95
:100A70002EDB94ED000ADFED180AB4EEE00AF1EE89
:100A800010FA25D894ED010ADFED140AB4EEE00A5D
:100A9000F1EE10FA1CDB94ED010ADFED110AB4EE61
:100AA000E00AF1EE10FA13D894ED020ADFED0D0A18
:100AB000B4EEE00AF1EE10FA0ADB94ED020ADFED83
:100AC0000A0AB4EEE00AF1EE10FA01D80120C6E7F6
:100AD0000020C4E70000B4C20000B44200000C4291
:100AE0000000344300003EC3000020C2014602293A
:100AF00001DC012070470020FCE7000070B50546CE
:100B00000F480078012800D100E0002004461CB9FD
:100B10000B480078022801D1012000E000200446A3
:100B200054B1074840780C2806D10548807818B998
:100B3000284602F0F7FB08B9002070BD0120FCE751
:100B40007406002010B50448807800B110BD04F090
:100B5000D1FE00BFFAE700007406002070B52DED4D
:100B6000048B86B00546644A07CA03AB07C39FEDF2
:100B7000630AB0EE408A15B1B5F5C07F05D99FED87
:100B80005F0A06B0BDEC048B70BD9FED5C0A5C484B
:100B900080EDC30A01247EE09FED580AF0EE408A02
:100BA00004EB4401574800EB8100D0ED000A601EC1
:100BB00000EB4001534800EB810090ED001A70EE0D
:100BC000C10AB0EE600A01F04FFCB0EE409A10F09E
:100BD000DCF88DED000A04EB44014A4800EB81008B
:100BE000D0ED010A601E00EB4001464800EB810099
:100BF00090ED011A70EEC10AB0EE600A10F0C5F86F
:100C00008DED010A04EB44013E4800EB8100D0ED7C
:100C1000020A601E00EB40013A4800EB810090EDB3
:100C2000021A70EEC10AB0EE600A10F0AEF88DED57
:100C3000020A002617E0684600EB860090ED000AE5
:100C400003A800EB8600D0ED000A80EE201AB0EE7B
:100C5000419AF0EE490AB0EE680A0FF08FFCF0EE10
:100C6000408A701CC6B2032EE5D39FED270AF4EE2E
:100C7000C08AF1EE10FA03D29FED230AF0EE408A0B
:100C800038EE280AB0EE408A204800EB840080ED60
:100C9000008A601C84B2AC42FFF67EAF012D06D004
:100CA0009FED190AB4EEC08AF1EE10FA07D29FED5B
:100CB000130A134880EDC30A9FED100A61E7012073
:100CC0000DE0124901EB800191ED000AC0EE080A27
:100CD0000E4901EB8001C1ED000A411C88B2A84217
:100CE000EFDBB7EE000A681E084901EB800080EDDB
:100CF000000AB0EE480A44E758240108000000004A
:100D0000601C00206C0D0020BD3786356C1F002054
:100D1000F0EE401AF4EEE01AF1EE10FA02D2B0EE64
:100D2000600A7047F4EEC11AF1EE10FA02DDB0EE7F
:100D3000410AF6E7B0EE610AF3E7000070B52DED69
:100D40000A8B8CB0B0EE408AF0EE609AB0EE41AA09
:100D500006469FEDD70AF0EE408A002009900A90DF
:100D60000B903046FFF7FAFEF0EE40AAD14AD2E9E6
:100D700000109268CDE907020691CE4A0C3207CAEC
:100D800003AB07C39FEDCC0AB4EEC08AF1EE10FAB4
:100D90001EDDB7EE0E0A28EE000AC0EE290AB0EEFC
:100DA000609A9FEDC60A28EE000AC0EE0A0AF0EE2D
:100DB00060BAB0EE6B0A0FF0F1FCB0EE40BAF0EEA4
:100DC0004B0AB0EE490A0FF0D9FBF0EE408A00BFA3
:100DD000B7EE0E0A2AEE800AF0EE400AB0EE680A7C
:100DE0000FF0CCFBF0EE408A012456E004EB440106
:100DF000B34800EB8100D0ED000A601E00EB40011B
:100E0000AF4800EB810090ED001A70EEC10AB0EE21
:100E1000600A01F029FBB0EE409A0FF0B6FFDDED5D
:100E2000090A30EE200A8DED090A04EB4401A448BA
:100E300000EB8100D0ED010A601E00EB4001A048EC
:100E400000EB810090ED011A70EEC10AB0EE600A6D
:100E50000FF09BFFDDED0A0A30EE200A8DED0A0A45
:100E600004EB4401964800EB8100D0ED020A601EBD
:100E700000EB4001924800EB810090ED021A70EE09
:100E8000C10AB0EE600A0FF080FFDDED0B0A30EE14
:100E9000200A8DED0B0A601C84B2B442A6DB00244C
:100EA0003BE009A800EB840090ED000AF7EE0E0A83
:100EB00020EE200A06A800EB8400D0ED000A80EEA8
:100EC000201AB0EE41BA09A800EB840090ED000AA8
:100ED000DFED7A0A20EE200A03A800EB8400D0EDB3
:100EE000000A80EE201AF0EE41BAB0EE6B0A0FF065
:100EF00055FCB0EE409AF0EE490AB0EE4B0A0FF006
:100F00003DFBF0EE40BAF0EE6B0AB0EE680A0FF06F
:100F100035FBF0EE408A601CC4B2032CC1D301241F
:100F2000AAE0684800EB840090ED000A601E654965
:100F300001EB8000D0ED000A30EE600AB0EE409A7E
:100F40009FED610AB4EEC09AF1EE10FA00D291E082
:100F500004EB44015A4800EB8100D0ED000A601E0A
:100F600000EB4001564800EB810090ED001A70EE56
:100F7000C10AB0EE600A01F077FAB0EE40BA0FF0A5
:100F800004FF8DED000A04EB44014D4800EB8100A5
:100F9000D0ED010A601E00EB4001494800EB8100E2
:100FA00090ED011A70EEC10AB0EE600A0FF0EDFE8E
:100FB0008DED010A04EB4401414800EB8100D0EDC6
:100FC000020A601E00EB40013D4800EB810090EDFD
:100FD000021A70EEC10AB0EE600A0FF0D6FE8DED77
:100FE000020A002543E0684600EB850090ED000A08
:100FF000F7EE0E0A20EE200A06A800EB8500D0EDE1
:10100000000A60EE890A80EE201AB0EE41BA684606
:1010100000EB850090ED000ADFED280A20EE200AA3
:10102000F7EE000A20EE200A03A800EB8500D0EDC1
:10103000000A60EE890A80EE201AB0EE41CAB0EED6
:101040004C0A0FF0ABFBF0EE40BAF0EE6B0AB0EEDC
:101050004B0A0FF093FAB0EE40CAF0EE4C0AB0EE35
:10106000680A0FF08BFAF0EE408A681CC5B2032DB7
:10107000B9D300BF601C84B2B442FFF652AF9FEDFB
:10108000130AF4EEC08AF1EE10FA03D29FED0F0AB4
:10109000F0EE408ADFED0E0A9FED0E0A08EEA00A80
:1010A000BCEEC00A10EE100A0CB0BDEC0A8B70BD8D
:1010B00000000000642401080AD7233C83C0B84024
:1010C0006C0D00206C1F0020BD3786356F12833AEF
:1010D00000007A4477BE7F3F2DE9F0412DED068B6D
:1010E000F0EE409A06466748008A01280AD866480A
:1010F000D0E903214069C6E90021B060BDEC068B50
:10110000BDE8F081B7EE001ADFED600AB0EE690AC3
:10111000FFF7FEFDB0EE408AB7EE000AB4EEC08ADB
:10112000F1EE10FA07DB5748008A401E84B22546CC
:10113000DFED568A3FE00020524A128A521E91B2D9
:1011400011E00B1A00EB53039AB2514B03EB8203ED
:1011500093ED000AB4EEC80AF1EE10FA01D8104679
:1011600000E0114600BF421C92B28A42E9DB04460D
:101170000D46474A02EB850292ED000A444A02EB13
:101180008402D2ED000A30EE609A9FED420AB4EE7E
:10119000C09AF1EE10FA09DD3D4A02EB840292EDAD
:1011A000000A78EE400A80EE890A01E09FED370AD6
:1011B000F0EE408A00BF05EB450133480C3000EBF0
:1011C0008100D0ED000A04EB44012F480C3000EB05
:1011D000810090ED001A70EEC10AB0EE600A01F0D5
:1011E00043F904EB440128480C3000EB8100D0EDBA
:1011F000000A48EE800AB0EE60AAB0EE4A0A01F09A
:1012000033F986ED000A05EB45011F480C3000EB71
:10121000810090ED010A04EB44011B480C3000EB07
:101220008100D0ED010A70EE600A04EB440116481B
:101230000C3000EB810090ED010A08EEA00A86ED6B
:10124000010A05EB450110480C3000EB810090EDE0
:10125000020A04EB44010C480C3000EB8100D0ED95
:10126000020A70EE600A04EB440107480C3000EB00
:10127000810090ED020A08EEA00A86ED020A00BF86
:101280003CE70000600C0020600D00200000000022
:101290006C1F0020BD37863570B52DED028B0546DD
:1012A0000C462B48D0F8A80078B12948D0F8A40003
:1012B000281A00EE100AF8EE400A254890ED2A0A96
:1012C000B8EE401A80EE810A01E0B7EE000AB0EEF7
:1012D000408AB7EE001ADFED1F0AB0EE480AFFF7AA
:1012E00017FDB0EE408A1A48D0ED320A90ED2F1A61
:1012F00070EEC10AB0EE600A01F0B6F81448D0ED05
:101300002F0A48EE000AF0EE608AB0EE680A01F09B
:10131000ABF884ED000A0E4890ED330AD0ED300AA8
:1013200070EE600A90ED300A08EE200A84ED010AA2
:1013300090ED340AD0ED310A70EE600A90ED310A7A
:1013400008EE200A84ED020ABDEC028B70BD00009D
:10135000600C00200000000070B52DED028B0446EB
:101360000D46D5ED000A94ED001A70EEC10AB0EEFC
:10137000600A01F079F8B0EE408A0FF006FDF1EE58
:10138000040AB4EEE00AF1EE10FA25D8D5ED010A10
:1013900094ED011A70EEC10AB0EE600A0FF0F5FC90
:1013A000F0EE000AB4EEE00AF1EE10FA14D8D5ED32
:1013B000020A94ED021A70EEC10AB0EE600A0FF054
:1013C000E4FCF0EE000AB4EEE00AF1EE10FA03D805
:1013D0000120BDEC028B70BD0020FAE710B52DEDA9
:1013E000028B0446B0EE408A204601F025F8F0EE6C
:1013F000408AF4EEC88AF1EE10FA1DDD9FED100A66
:10140000F4EEC08AF1EE10FA16DDC8EE280AB0EE4E
:10141000600AD4ED000A60EE800AC4ED000AD4ED43
:10142000010A60EE800AC4ED010AD4ED020A60EE02
:10143000800AC4ED020A00BFBDEC028B10BD0000A3
:10144000BD37863516480078012800D100E000201D
:10145000014619B912480078022801D1012000E0A4
:10146000002001460E48C078C0B10D480079A8B1EF
:101470000B48407990B10A4840780C280ED169B1E8
:101480000748807850B90648C07938B10448007AD6
:1014900020B10348407A08B1012070470020FCE7E2
:1014A000740600201249D1ED090A91ED061A30EEBA
:1014B000C11AD1ED060A40EE010AC0ED000AD1EDD5
:1014C0000A0A91ED071A30EEC11AD1ED070A40EE73
:1014D000010AC0ED010AD1ED0B0A91ED081A30EEB8
:1014E000C11AD1ED080A40EE010AC0ED020A7047A8
:1014F000600C002070B52DED048B04460D4695ED73
:10150000000AD4ED000A30EE600AB0EE409A95ED84
:10151000010AD4ED010A30EE600AB0EE408A95ED82
:10152000020AD4ED020A30EE600AF0EE408A69EE5B
:10153000090A48EE080A48EEA80AB0EE600A0FF061
:101540002DF9BDEC048B70BD10B52DED048BF0EEC4
:10155000408AB7EE001ADFED0F0AB0EE680AFFF717
:10156000D7FBB0EE408A28EE080AB0EE409A29EE8A
:10157000080AF0EE409ABAEE0E0AF1EE080A00EE02
:10158000880AF2EE040A48EE000A20EEA90ABDEC31
:10159000048B10BD0000000010B52DED028BF0EEA5
:1015A000408AB7EE001ADFED0E0AB0EE680AFFF7C8
:1015B000AFFBB0EE408A9FED0B0A28EE000AF7EE73
:1015C000000A70EEC80A60EE200AB7EE000AB0EE1C
:1015D000001A01EE480A20EE800ABDEC028B10BD15
:1015E000000000000000704210B52DED048BB0EE3D
:1015F000409AB7EE001ADFED0D0AB0EE490AFFF788
:1016000087FBB0EE408AB7EE000A30EE480AF0EEF3
:10161000408AB3EE0E0A28EE000A20EE080A20EEF9
:10162000280A20EE280ABDEC048B10BD0000000043
:10163000064981F854000021044A82F8551082F8C6
:1016400056101146C96D491CD1657047EC0B00203E
:101650000C480021016341638163C16301644164FB
:10166000603001808170603841668166C1660648DD
:1016700081808171A0F58070A0F8071180F80911B0
:101680007047000024090020600D002070B52DED8A
:10169000048B84B005465B4840682C1A5948C068E2
:1016A000A04201D85748C4685648C06858B1554848
:1016B00090ED030AF8EE400A00EE104AB8EE401A28
:1016C00081EE200A01E0B7EE000AF0EE408AB0EEAB
:1016D000680AFFF739FFB0EE408A4A48C07D022809
:1016E0001FD14848007D28B14648D0F8A000281AEC
:1016F000022811D3B0EE480A284600F007FB58B97B
:101700004048007D40B93F484068401C3D49486022
:1017100004B0BDEC048B70BD01A92846FFF7BCFDE9
:1017200004E001A8B0EE480AFFF7D6FC01A804F0D7
:10173000EFFFA0B93348C07C38B93348C06D401CB6
:101740003149C86501202F49C87400202E4981F80D
:1017500056002C484068401C2A494860D8E7294870
:1017600090F88500012806D101A800F0A9FAB0EE92
:10177000409A03F087FF00202249C87401202249C3
:1017800081F856000846846680ED188A01A90EC9C2
:1017900010300EC01B48C068A04230D81948008ADB
:1017A000401E86B206EB4602184901EB820004F0A7
:1017B000AFFF144890F8850001280AD106EB4602D5
:1017C000124901EB820000F07BFAB0EE409A03F080
:1017D00059FF06EB46010D4800EB81000A49D0E9AC
:1017E00000238068C1E904238861B7EE000A084637
:1017F00080ED180A2946062000F014FA00BF00BF49
:1018000086E70000600C0020EC0B00206C0D00202F
:1018100070B52DED048B9EB004460D4600EE105AB7
:10182000B8EE400ADFEDFA0A20EE200AB0EE408A58
:10183000F8480146D1E91832896EC0E91B32416788
:101840008038D0F8AC00201A64280CD90120F14966
:1018500080398875EF4800210166416681661EB0B7
:10186000BDEC048B70BD0020EA4980398875B5EE67
:10187000C08AF1EE10FA00D8F1E7E648803890ED22
:101880001A0AD0ED0C0A30EE600A8DED0D0A90EDCB
:101890001B0AD0ED0D0A30EE600A8DED0E0A90EDB8
:1018A0001C0AD0ED0E0A30EE600A8DED0F0A0DA86D
:1018B00000F0C2FDF0EE408AD6488038D0ED1E0A16
:1018C000B0EE001A60EE810A60EEA80AB0EE600A7F
:1018D0000EF064FFB0EE409ACE488038D0ED1D0A7D
:1018E000B0EE600AF0EE490A0EF06CFEF0EE409A9F
:1018F0000DA807C80AAB07C3B0EE690A0AA800F032
:101900009BF99DED0A0AC3488038D0ED380A30EEC5
:10191000600AC0EE080ACDED070A9DED0B0AD0ED76
:10192000390A30EE600AC0EE080ACDED080A9DEDD6
:101930000C0AD0ED3A0A30EE600AC0EE080ACDED8E
:10194000090AD0ED1E0AB0EE600A07A8FFF746FDAF
:10195000002014E0AF49603101EB800191ED000AF5
:1019600007A901EB8001D1ED000A00EE880AA94920
:10197000603101EB800181ED000A411CC8B20328EF
:10198000E8D3A4488038D0ED1D0AB0EE600AE030FC
:10199000FFF724FD9F48803890ED380A20EE080AB2
:1019A0008DED040A90ED390A20EE080A8DED050A46
:1019B00090ED3A0A20EE080A8DED060A9FED960A90
:1019C000F4EEC08AF1EE10FA18D99DED040ADDEDAF
:1019D0000D0A20EE200ADDED050A9DED0E1A00EE3F
:1019E000810ADDED060A9DED0F1A00EE810A68EE10
:1019F000A80AB4EEE00AF1EE10FA0EDB8549803950
:101A00000846D0E91A23006FC1E90C238863814896
:101A1000002101664166816619E07E48803890EDBC
:101A20000C0ADDED040A30EE200A80ED0C0A90ED80
:101A30000D0ADDED050A30EE200A80ED0D0A90ED6D
:101A40000E0ADDED060A30EE200A80ED0E0A714A1C
:101A5000803A303207CA13AB07C36E48803890F81B
:101A60008400012817D110A913A803F0D3FBB0B943
:101A7000684800210166416681660020674981F857
:101A80005600012081F8570081F858000846C06DC3
:101A9000401CC865E3E613A807C810AB07C35D4840
:101AA0008038D0F8A000201A02286CD3002620210C
:101AB00016A8FEF7CBFD16AA5649483110A801F02A
:101AC00081F908B1012629E09DED1D0AF6EE000A14
:101AD000B4EEE00AF1EE10FA01DD02261EE017A8CE
:101AE00001F020FC08B9032618E017A8FEF7B0FFA4
:101AF00008B9042612E04748803890F8840001288D
:101B000005D117A800F02AFA08B9042606E017A99B
:101B100040484830FFF720FC00B9052696BB3D48F9
:101B20000146D1E91223096DC0E90F23416417A9C9
:101B30000EC948300EC0D43813A90EC93C300EC0AF
:101B4000483890F88400012805D13248803813A91C
:101B50000EC954300EC02F488038C0F8A44002206F
:101B60002C498039C1F8A8000846C0F8A0400020E0
:101B70002A4981F85400012081F85600002081F89C
:101B800057001CE000E01BE022480021016641668E
:101B90008166803803463C330ECB30300EC09DF852
:101BA00058001E4981F85400002081F8560008466C
:101BB00080F8576080F85860C06D401CC86500BF51
:101BC00001A92046FFF768FB01A804F0A1FD88B138
:101BD000124801A90EC910300EC00E48803890F886
:101BE0008400012806D101A800F06AF8B0EE409AFE
:101BF00003F048FD074880384068201A0749886686
:101C00009FED070A084680ED180A00BF27E600008E
:101C10006F12833AE00C0020CDCC4C3DEC0B002041
:101C200000000000024A1070024A11607047000074
:101C3000EC0B0020600C002010B52DED028B04464B
:101C4000B0EE408A204600F0F7FBF0EE408A9FEDB0
:101C50001A0AF4EEC08AF1EE10FA04D9B5EEC08A81
:101C6000F1EE10FA0ED89FED150A84ED000A9FEDF3
:101C7000130A84ED010A9FED110A84ED020ABDECFE
:101C8000028B10BD88EE280AD4ED000A20EE200A4F
:101C900084ED000A88EE280AD4ED010A20EE200A1D
:101CA00084ED010A88EE280AD4ED020A20EE200A0B
:101CB00084ED020A00BFE2E7BD3786350000000070
:101CC00010B504467CB194ED010A10EE101A0846D6
:101CD0000EF065F938B194ED020A10EE101A0846BC
:101CE0000EF05DF910B99FED070A10BD94ED010AE1
:101CF000D4ED020A9FED041A71EE600A30EE200A5C
:101D0000F3E700000000C07F000034C310B52DEDE4
:101D1000028B8EB00446B0EE408A0BA8B0EE480AA3
:101D2000FFF7C0FB454890F8850001280CD10BA9AE
:101D30000BA803F06FFA38B90420FFF779FC0020F4
:101D40000EB0BDEC028B10BD3C48007D88B13B4815
:101D50008030D0E91212006DCDE9001202903748B0
:101D600080300146D1E91223096DC0E90F23416497
:101D70000AE0334A103207CA8DE807002F48803046
:101D80009DE80E003C300EC0202103A8FEF75EFC4B
:101D900003AA69460BA801F015F8F0B99DED0A0AEF
:101DA000F6EE000AB4EEE00AF1EE10FA15DC04A833
:101DB00001F0B8FA88B104A8FEF74AFE68B11F48DE
:101DC00090F88500012803D104A800F0C7F820B1DD
:101DD00004A96846FFF7C0FA98B99DF80C001849A5
:101DE00081F85400002081F856001448C07C30B9B6
:101DF0000846C06D401CC86501201049C874002009
:101E00009EE70E48803004A90EC948300EC0D43871
:101E1000C0F8A44002200949C1F8A8000846C0F84B
:101E2000A040012008750020C874054981F85400BD
:101E3000012081F8560000BF82E70000600C0020FE
:101E4000EC0B00202DE9F0472DED028B04460E46E9
:101E5000B0EE408AF0EE608A174698460A9D3B48ED
:101E6000008A401E1FFA80F9384894E80E0024309A
:101E70000EC0303890F8850001280AD133488030F0
:101E800094E80E0008300EC00146204603F0C2F967
:101E90000AE02E48803094E80E0014300EC020383E
:101EA00094E80E0008300EC02848C660456080EDFA
:101EB0002C8AC0ED2D8AC77500202449C874087586
:101EC0000846C0F8A050C0F8A4500220C1F8A800ED
:101ED00000204875887521461C481830FFF70AFB1A
:101EE0001A4880ED2E0A1A4A00F58070D0E90331B5
:101EF0004069C2E90431906109EB4901154800EBE2
:101F0000810310460ECB1C300EC0283894E80E001A
:101F100048300EC000200E4981F85400012081F89D
:101F2000550081F856009FED0C0A084680ED180A0E
:101F3000002088664870FFF78BFB29464046FFF774
:101F400071FEBDEC028BBDE8F0870000600C002044
:101F5000EC0B00206C0D00200000000010B52DEDF2
:101F6000028B04462046FFF7ABFEB0EE408AB0EE8F
:101F7000480A03F0CDFAF0EE408AB0EE680A03F0AA
:101F8000F7FABDEC028B10BD70B52DED048B84B05B
:101F900006460D46EE4890ED030AB8EE400ADFED26
:101FA000ED0A20EE200AB0EE408AB5EEC08AF1EECE
:101FB00010FA0CDDE84890ED1A0AF8EE400AE44801
:101FC00090ED030AB8EE401A80EE810A01E0B7EE08
:101FD000000AF0EE409AE148E14BD3E907215B6A41
:101FE000C0E9011302600246DB4B10330BCB0C320D
:101FF0000BC2DA48D84B1C330ECB18300EC0243835
:10200000D74B54330ECB48300EC05438D44B6033CA
:102010000ECB54300EC00024CFE094B9CE4810301F
:1020200000EB8400D0ED000ACD481C3000EB8400AA
:1020300090ED001A70EEC10AB0EE600A00F014FADA
:102040000DE0C548103000EB840090ED000AC44854
:102050001C3000EB8400D0ED000A30EE600AB0EED8
:10206000409A94B9BC481C3000EB8400D0ED000AC3
:10207000BB481C3000EB840090ED001A70EEC10AE2
:10208000B0EE600A00F0F0F90DE0B3481C3000EB50
:10209000840090ED000AB2481C3000EB8400D0EDC3
:1020A000000A30EE600AF0EE408AAC48243000EBC3
:1020B000840080ED009AB0EE490A0EF066FEA74853
:1020C000303000EB8400D0ED000AB4EEE00AF1EE0F
:1020D00010FA09DDB0EE490A0EF057FE9F48303085
:1020E00000EB840080ED000A9E48005D98B9B0EED8
:1020F000680A0EF04AFEDFED9C0AB4EEE00AF1EE4B
:1021000010FA08DD97480C3800EB8400C0ED008A17
:102110000121944801559348005D80B191480C38E5
:1021200000EB840090ED000A20EE280AB5EEC00A0C
:10213000F1EE10FA03D201218A48C01C01558948EA
:10214000C01C005DC0B1B0EE680A0EF01EFE8348F0
:102150003C3000EB8400D0ED000AB4EEE00AF1EE72
:1021600010FA09DDB0EE680A0EF00FFE7B483C3035
:1021700000EB840080ED000AB0EE490A0EF005FE87
:10218000F1EE040AB4EEE00AF1EE10FA0CDD0121E2
:10219000724860300155001D50F8240041196F4805
:1021A000643040F8241006E000216C48603001558E
:1021B000001D40F82410601CC4B2032CFFF42DAFA6
:1021C0006348407DE8B300EE105AB8EE400ADFEDF8
:1021D000610A20EE200AF0EE408A5D48D0ED380A10
:1021E00060EEA00A90ED391AD0ED391A41EE210ABD
:1021F00090ED3A1AD0ED3A1A41EE210AB0EE600A9B
:102200000EF0CCFA554880ED1C0A514890ED380A82
:10221000D0ED3B0A30EE600A8DED010A90ED390AEF
:10222000D0ED3C0A30EE600A8DED020A90ED3A0ADC
:10223000D0ED3D0A30EE600A8DED030AF5EEC08A5E
:1022400000E021E0F1EE10FA18DDDDED010A60EEAC
:10225000A00A9DED021ADDED021A41EE210A9DED64
:10226000031ADDED031A41EE210AB0EE600A0EF00A
:1022700095FAF0EE400A80EEA80A01E09FED3B0AD5
:10228000364880ED1D0A31E0B5EEC08AF1EE10FA55
:102290000BDDB0EE690AFFF7A7F92D48D0ED2E0A45
:1022A00060EE200A80EE880A01E09FED300A2B489C
:1022B00080ED1C0AB5EEC08AF1EE10FA11DDB0EE29
:1022C000690AFFF769F9F0EE408A0EF05EFD2048DA
:1022D000D0ED2E0A60EE200A28EE081A80EE810A60
:1022E00001E09FED220A1D4880ED1D0A1A48806E0C
:1022F0001A4988671648C068C867174800780528D3
:1023000003D113480068301A00E000201349C1F8D7
:1023100080000F48407D81F888000D48807D81F85D
:1023200089000B48006EC1F88C000948407D20B13F
:102330000748D0F8AC00301A00E000200749C1F887
:102340008400084603F0D8FE04B0BDEC048B70BDD9
:10235000600C00206F12833AEC0B0020240900204F
:1023600074060020640D00200AD7233C0000000002
:1023700010B52E482E4BD3E907215B6AC0E9021342
:102380004260002429E094B928481C3000EB840006
:10239000D0ED000A26481C3000EB840090ED001AB6
:1023A00070EEC10AB0EE600A00F05EF80DE01F4862
:1023B0001C3000EB840090ED000A1D481C3000EB3F
:1023C0008400D0ED000A30EE600A1848283000EB97
:1023D000840080ED000A601CC4B2032CD3D31349DF
:1023E00013488030D0E90A23006BC1E90F23486409
:1023F0004831A1F10C00FFF77DF80C4880ED1C0A74
:102400000B49B1F807208286497A80F836103730B8
:1024100007494A890280097B81700648C0680349E0
:1024200048660448008AA1F86C0010BDEC0B00203F
:1024300074060020600C002010B50446D4ED000A9C
:1024400060EEA00A94ED011AD4ED011A41EE210AC2
:1024500094ED021AD4ED021A41EE210AB0EE600AA0
:102460000EF09CF910BD000005E0DFED0E0A70EEE5
:10247000600AB0EE600ADFED0C0AB4EEE00AF1EE9D
:1024800010FAF2DC05E0DFED070A70EE200AB0EE8C
:10249000600ADFED060AB4EEE00AF1EE10FAF2D3BC
:1024A000704700000000B44300003443000034C310
:1024B00070B52DED028B0546B0EE408A05EB850028
:1024C0001C4901EBC0049FED1C0AF0EE408A18EE97
:1024D000100A0DF052FD18B90020BDEC028B70BD42
:1024E00094ED040A30EE680AB4EEC80AF1EE10FA70
:1024F0000AD894ED050A30EE280AB4EEC80AF1EEC7
:1025000010FA01DB0120E8E794ED060A30EE680AD4
:10251000B4EEC80AF1EE10FA0AD894ED070A30EECC
:10252000280AB4EEC80AF1EE10FA01DB0220D4E763
:102530000320D2E7040B0020CDCC4C3E2DE9F04126
:102540002DED028B0546B0EE408A0F464DB118EED8
:10255000100A0DF012FD20B1B5EEC08AF1EE10FAAE
:1025600004D80020BDEC028BBDE8F08100241FE000
:1025700005EB840090ED000A10EE101A08460DF0ED
:10258000FCFC08B90020EDE705EB8400D0ED000A63
:10259000B0EE600A2046FFF78BFF064626B1032EF9
:1025A00002D01FB9012E01D00020DBE7601CC4B2AD
:1025B000032CDDD3002411E005EB8400D0ED000AEC
:1025C000B0EE600A3A46F0EE480A2946204602F08C
:1025D000D7FA08B90020C5E7601CC4B2032CEBD3BE
:1025E0000120BFE770B500240AE004EB840006492F
:1025F00051F8305015B1284604F083FE601CC4B277
:10260000032CF2D370BD0000040B002010B52DED9B
:10261000028BB0EE408A0D4890F8240020B99FED5F
:102620000C0ABDEC028B10BD18EE100A0DF0A5FCD3
:1026300010B99FED080AF4E79FED070A38EE400A4B
:10264000F7EE000A20EE200AEBE700007C0B0020EA
:10265000000000000000C07F00003443F0EE400A9C
:102660009FED020A30EE600A70470000000034C39C
:10267000F0EE400A9FED020A30EE600A704700005B
:10268000000034C310B50B2000F0B0FF10BD0000F7
:1026900030B52DED028B89B0044624B9032009B072
:1026A000BDEC028B30BD207E08B10420F7E7207915
:1026B00020B12079012801D00320F0E730480078CC
:1026C00001280ED12E4840780C280AD12C48807859
:1026D00038B99FED2C0A02F079FC10B902F072FEB5
:1026E00008B90220DBE703F093F908B10120D6E72F
:1026F000202101A8FDF7AAFF607978B92079012887
:1027000005D101A904F1080002F0E6FA04E001A9EC
:1027100004F1080002F068F905461FE094ED050A8F
:10272000B5EEC00AF1EE10FA02DD94ED050A01E003
:102730009FED150AB0EE408A2079012806D1B0EE4F
:10274000480A04F1080001F0D3F905E0B0EE480AA8
:1027500004F1080001F068F8054600BF0DB900203B
:102760009DE7012D01D1012099E7022D01D1022021
:1027700095E7032D01D1032091E706208FE70000A4
:102780007406002000008C420000E14370B504464E
:1027900024B104F1080000F0C5FD08B9032070BDA4
:1027A0001948007801280ED1174840780C280AD122
:1027B0001548807838B99FED150A02F007FC10B96A
:1027C00002F000FE08B90220E9E703F021F908B1A0
:1027D0000120E4E7207920B904F1080003F0ACF906
:1027E00003E004F1080003F02FF905460DB90020BD
:1027F000D5E7012D01D10120D1E7022D01D1022021
:10280000CDE70620CBE700007406002000008C42D4
:1028100010B504460C48007801280ED10A484078CB
:102820000C280AD10848807838B99FED080A02F0D0
:10283000CDFB10B902F0C6FD08B9022010BD20463C
:1028400003F0F8F9FAE700007406002000008C425B
:102850002DE9F04104462848007801280DD126488A
:1028600040780C2809D12448807830B99FED230A9C
:1028700002F0ACFB08B9012000E00020054614B9C5
:102880000320BDE8F0812078062832D2DFE800F08E
:1028900032030B101A1C0DB90220F2E7012002F0DE
:1028A00099FE0020EDE7002002F094FE0020E8E70A
:1028B0000DB90220E5E7D4ED010AB0EE600A02F09E
:1028C000A1FEDEE70420DCE7002002F083FE0A48D8
:1028D000D0ED300AB0EE600A02F0D4FE06469FED5D
:1028E000080A02F0A7FE07460EB13046C9E738468F
:1028F000C7E700BF0320C4E77406002000008C4235
:102900000000B44210B52DED0A8BF0EE409AB0EE07
:10291000608AB0EE41AA044614B9BDEC0A8B10BD22
:102920009FED2D0A69EE80AA9FED2B0A28EE00BAD2
:10293000B0EE4A0AFFF79CFE30EE080ADFED260AE9
:1029400060EE20BAB0EE4B0A0DF070FDDFED230A09
:1029500060EE20CAB0EE6B0A0DF068FDDFED1F0AD5
:10296000B0EE6CCA00EE80CA9FED1D0A7CEE008AB4
:102970009FED1B9AB0EE6A0A0DF058FD60EE28CA72
:10298000B0EE6A0A0DF042FE49EE40CAC4ED00CA3C
:10299000B0EE6A0A0DF03AFE60EE28CAB0EE6A0A9E
:1029A0000DF044FD49EE00CAC4ED01CAB0EE4B0A79
:1029B0000DF02CFEDFED0BCADFED080A40EE80CAF9
:1029C000B0EE6B0A0DF022FEDFED040A40EE80CA85
:1029D000C4ED02CA00BFA0E735FA8E3C0000824376
:1029E000000000000000784230B5094CA06284F875
:1029F0002C1084F82D2084F82E30246A844206D1CD
:102A00000024034D2C6285F8244085F8254030BD14
:102A1000180A00202DE9F04104460D4617461E46CF
:102A20000CB9BDE8F0813A462946204600F024F86A
:102A30000448846280F82C5080F82D7080F82E6055
:102A400000BFEEE7180A002010B50446084890F8C9
:102A5000280028B1064A11791068224600F00CF8C7
:102A60000020034981F8280002498861087710BDD9
:102A7000A40B0020180A002010B500B910BD094BA6
:102A8000186383F8341083F835201B6A834206D11B
:102A90000023044C236284F8243084F8253000BFDE
:102AA000ECE70000180A0020034B186283F824109A
:102AB00083F8252070470000180A00201FB59FEDFD
:102AC000A50A8DED000AF421A348FDF7BFFD4FF4E0
:102AD0009E71A248FDF7BAFD8021A148FDF7B6FD21
:102AE0009021A048FDF7B2FD64219F48FDF7AEFD9F
:102AF000B4219E48FDF7AAFD38219D48FDF7A6FDAB
:102B000078219C48FDF7A2FD28219B48FDF79EFDFA
:102B100048219A48FDF79AFD0020944908719FEDDD
:102B20008D0A944880ED010A9FED8A0A80ED020A21
:102B3000B7EE000A80ED030A9FED910A80ED040ACA
:102B40009FED900A80ED050A9FED8F0A80ED060A41
:102B50009FED8E0A80ED070A9FED7E0A80ED0B0A3D
:102B60009FED8B0A80ED0C0AB7EE000A80ED0D0A8E
:102B70009FED880A80ED0E0A9FED850A80ED0F0A11
:102B8000B3EE040A80ED100A9FED830A80ED110A6E
:102B90009FED700A80ED150A9FED790A80ED160A07
:102BA000B7EE000A80ED170A9FED7C0A80ED180A47
:102BB0009FED7B0A80ED190A9FED7A0A80ED1A0AD3
:102BC000BBEE040A80ED1B0A0020019002900390E6
:102BD0007548019002208DF80D0000208DF80E0040
:102BE0000320ADF808001320ADF80A0006208DF888
:102BF0000C0001A804F016FC5E4908600220ADF844
:102C000008001220ADF80A0007208DF80C0001A87A
:102C100004F008FC574988620120ADF80800112033
:102C2000ADF80A0006208DF80C0001A804F0FAFBAC
:102C30005049086508460068D0B10846806AB8B1B6
:102C40000846006DA0B108460068808E40F203116E
:102C500088420DD14748806A808EB0F5817F07D1C8
:102C60004448006D808E891E884201D1012000E019
:102C700000203949C870684600F02EFC36490871BA
:102C8000FF20887100204870087081F8F00005F07E
:102C9000F5FE394908600846006848600846006843
:102CA0000861002081F8230081F8240001202B49CD
:102CB00008730021294841738173C1730174022193
:102CC00041749FED3A0A80ED050A9FED390A80EDC7
:102CD000060A9FED370A80ED070A9FED1E0A80ED78
:102CE000080A9FED340A80ED090A9FED330A80ED52
:102CF0000A0A0021C162016300201D4908700120F9
:102D0000487002204871032088719FED2C0A084604
:102D100080ED020A9FED2A0A80ED030AB3EE040A51
:102D200080ED040A14480068086303F03DFE02F0D9
:102D3000F9FA02F049FE0848C07810B10648007957
:102D400018B9012000F052FC1FBD02200249087092
:102D500000BFF9E7000000007406002068070020AB
:102D6000A408002024090020B4090020180A00202B
:102D7000CC0A0020040B00207C0B0020A40B0020B8
:102D80000000B4C20000B4420000DCC20000DC421B
:102D90000000344300000C420000484300003EC3E2
:102DA000000020C2000052C3C40400200000704391
:102DB0000000C07F00007042000070C200007A4333
:102DC000000020422DE9F04F2DED108B83B0054619
:102DD0000E4614469FEDF00AB0EE40EA4FF00009AF
:102DE000CA46CB462CB9032003B0BDEC108BBDE81E
:102DF000F08F20212046FDF729FC85B37EB395EDA9
:102E0000000A10EE101A08460DF0C0F838B395ED20
:102E1000010A10EE101A08460DF0B8F8F8B195ED59
:102E2000020A10EE101A08460DF0B0F8B8B196ED8F
:102E3000000A10EE101A08460DF0A8F878B196EDC9
:102E4000010A10EE101A08460DF0A0F838B196ED00
:102E5000020A10EE101A08460DF098F818B903206F
:102E600020702078C0E7D5ED000A60EEA00A95ED4D
:102E7000011AD5ED011A41EE210AB0EE600A0DF0FB
:102E80008DFCB0EE408A95ED020ADFEDC40A70EECB
:102E9000608A18EE100A0DF079F820B118EE900A49
:102EA0000DF074F818B90720207020789CE79FED8A
:102EB000BC0A08EE080AB5EEC00AF1EE10FA03D219
:102EC0000420207020788FE79FEDB30A18EE080ADF
:102ED000F0EE400A9FEDB00A0DF050FBB0EE409AC4
:102EE0000DF05CFCF0EE409A9FEDAD0AB4EEC08AA6
:102EF000F1EE10FA0ADD95ED001AF0EE410A95EDBB
:102F0000011AB0EE410A0DF005F905E096ED000A50
:102F1000DFEDA40A20EE200AF0EE40DA0027DAE026
:102F20009FED9F0AF4EEC09AF1EE10FA02D8012F3D
:102F300000D1CEE017B9B0EE690A01E0B1EE690A3E
:102F4000F0EE40BA9FED940A7BEEC0AAF0EE6B0A59
:102F50009FED910A0DF0DEF83DEEC00ADFED920A1A
:102F600020EE200AB0EE40AA00F01CFBB0EE40CAF2
:102F70002AEEAA0A08EEA80ADFED8C0A30EE600AF3
:102F8000DFED8A0A30EE600ADFED890A80EE209AD2
:102F900019EE100A0CF0FAFF18B9072020702078FB
:102FA00022E79FED840AB4EEC09AF1EE10FA06D340
:102FB0009FED810AB4EEC09AF1EE10FA00DD88E0D0
:102FC0004FF0010AB7EE001AFFEE000AB0EE490A10
:102FD00000F06CFAB0EE409A4FF0000875E0B0EEE9
:102FE000490A0DF00BF8B0EE40BAB8F1000F03D06B
:102FF000B1EE4B0AB0EE40BAF0EE6A0AB0EE680AE3
:103000000DF088F8F0EE40FAB0EE4B0A0DF00EFA33
:10301000DFED6A0A9FED691A41EE000AF0EE60EA00
:10302000B0EE4B0A0DF0F2FADFED640A20EE200A52
:10303000B0EE40FAF0EE6E0A0DF06CF87FEEC0CA0A
:103040009FED590A2BEE00DA8DED00CA9FED560A6E
:103050002CEE800A8DED010AB0EE4D0AFFF7FEFA64
:103060008DED020A684600F05DF900B929E04FF0E5
:10307000010B6846FDF7ECFC00B922E06078401CCB
:1030800060703146684600F0C1F9B0EE40AA1AEE11
:10309000100A0CF07BFF18B9072020702078A3E6F7
:1030A000B9F1000F04D0B4EECEAAF1EE10FA07D2B7
:1030B0004FF00109B0EE4AEA9DE80700231D07C35F
:1030C00000BF08F1010000F0FF08B8F1020F86D33D
:1030D00000BF781CC7B2022FFFF422AFB9F1000F76
:1030E0000FD1BBF1000F02D00620207007E0BAF12B
:1030F000000F02D00520207001E00420207020780D
:1031000072E6D4ED031AB0EE611AD4ED021AF0EEB5
:10311000610AD4ED011AB0EE610A04F11000FFF764
:10312000F1FBD4ED040A95ED001A70EEC10A60EED1
:10313000A00A94ED051AD5ED011A31EE611AD4ED0D
:10314000051A95ED012A71EEC21A41EE210A94ED9D
:10315000061AD5ED021A31EE611AD4ED061A95ED74
:10316000022A71EEC21A41EE210AB0EE600A0DF099
:1031700015FB84ED070A94ED070A10EE101A0846B5
:103180000CF004FF18B90720207020782CE60020EE
:103190002070207828E6000000000000000078423F
:1031A00017B7D13835FA8E3CE02E654200088447C7
:1031B00000080448470380BF4703803F0000824364
:1031C00070B52DED028B0546B0EE408A2846FDF71E
:1031D0008DFC20B118EE100A0CF0CFFE20B99FED47
:1031E000150ABDEC028B70BD05EB8500124901EBA1
:1031F000C004D4ED030AB0EE600AFDF773FBF6EEEF
:10320000000AB4EEE00AF1EE10FA02D29FED090ACC
:10321000E7E794ED020A38EE400ADFED080A20EEF7
:10322000200AD4ED030A80EE201A94ED010A31EE53
:10323000000AD6E70000C07F040B002035FA8E3C60
:1032400070B52DED028B0546F0EE408A0C46022D3E
:1032500007D0B0EE680A2846FFF7B2FFBDEC028B3C
:1032600070BD54B194ED010A10EE101A08460CF02E
:1032700084FE10B194ED018A1BE0124890ED130A10
:1032800010EE101A08460CF078FE18B10D4890EDBB
:10329000138A0EE00B4890ED120A10EE101A084641
:1032A0000CF06BFE18B1074890ED128A01E09FED1B
:1032B000068AF0EE480AB0EE680A284600F006F8E2
:1032C000CCE70000040B00200000344310B52DEDC6
:1032D000048B0446B0EE408AF0EE608A022C19D1CD
:1032E000B0EE680AFFF792F9B0EE409A18EE100AB5
:1032F0000CF043FE20B119EE100A0CF03EFE20B98E
:103300009FED070ABDEC048B10BD38EE490AB0EE04
:10331000408A00BFB0EE480A2046FFF751FFF1E7B0
:103320000000C07F10B50446BCB194ED000A10EE59
:10333000101A08460CF02AFE78B194ED010A10EE3E
:10334000101A08460CF022FE38B194ED020A10EE75
:10335000101A08460CF01AFE08B9002010BD94EDB2
:10336000000ADFED1C0AB4EEE00AF1EE10FA2EDBE3
:1033700094ED000ADFED180AB4EEE00AF1EE10FA5F
:1033800025D894ED010ADFED150AB4EEE00AF1EE5E
:1033900010FA1CDB94ED010ADFED110AB4EEE00A2D
:1033A000F1EE10FA13D894ED020ADFED0E0AB4EE36
:1033B000E00AF1EE10FA0ADB94ED020ADFED0A0AE8
:1033C000B4EEE00AF1EE10FA01D80120C6E70020C1
:1033D000C4E700006666B4C26666B44233330B428B
:1033E0003333344333333EC333331FC210B52DED73
:1033F000028BB0EE408AF0EE608A78EE680AB0EE9A
:10340000600A00F0CFF8BDEC028B10BD70B52DED59
:10341000068B04460D469FED200AB0EE409A9FEDC4
:103420001F0AF0EE409A9FED1E0AB4EEC09AF1EE2C
:1034300010FA06D99FED1A0AF4EEC09AF1EE10FACE
:1034400004D89FED180ABDEC068B70BD95ED001AEF
:10345000F0EE410A94ED001AB0EE410AFFF7C6FF04
:10346000DFED110A80EE20AA94ED010AD5ED010AE4
:1034700030EE600A80EE098A94ED020AD5ED020A68
:1034800030EE600AC0EE298A2AEE0A0A08EE080A1F
:1034900008EEA80AD7E70000000011430000164319
:1034A00017B7D1380000807F0000B443F0EE401A17
:1034B000F4EEE01AF1EE10FA02D2B0EE600A7047B4
:1034C000F4EEC11AF1EE10FA02DDB0EE410AF6E7B1
:1034D000B0EE610AF3E7000010B52DED028B86B067
:1034E000044603A89FED291ADFED290A9FED290A5A
:1034F000FFF708FA9FED280A8DED000A9FED250AD7
:103500008DED010A9FED250A8DED020ADDED030A1E
:103510009DED001A70EEC10A60EEA00A9DED041A3E
:10352000DDED011A31EE611ADDED041A9DED012A7F
:1035300071EEC21A41EE210A9DED051ADDED021A67
:1035400031EE611ADDED051A9DED022A71EEC21A07
:1035500041EE210AB0EE600A0DF020F9B0EE408A8B
:103560000CB184ED008A18EE100A0CF00FFD58B172
:103570009FED0B0AB4EEC08AF1EE10FA04D80120D8
:1035800006B0BDEC028B10BD0020F9E70000B4C20C
:103590000000B44200000000000082430000A1438C
:1035A0000AD7233C05E0DFED0E0A70EE600AB0EEAC
:1035B000600ADFED0C0AB4EEE00AF1EE10FAF2DC7C
:1035C00005E0DFED070A70EE200AB0EE600ADFEDDD
:1035D000060AB4EEE00AF1EE10FAF2D370470000EA
:1035E0000000B44300003443000034C310B5044667
:1035F00004B901241648807808B10B2C01D1144875
:1036000084700B2C01D1052000E0042010490870C3
:103610000B2C01D10E2000E00D200D494870082030
:10362000FDF748F900200B4981F8240002F070F8FA
:10363000FEF7D8FF0120074981F821000B2C03D0A9
:1036400005480078062802D1002001F0C3FF10BD14
:10365000740600207C0B0020CC0A002010B52DED54
:10366000028B0446F0EE408A0F4890ED130AB0EE4C
:10367000408A012C07D1B0EE680A204600F018F805
:10368000BDEC028B10BD18EE100A0CF076FC18B9D8
:103690009FED060AB0EE408AF0EE480AB0EE680AE6
:1036A000204600F033F8EBE7040B00200000344321
:1036B00070B52DED028B0546B0EE408A2846FDF729
:1036C00015FA20B118EE100A0CF057FC20B99FED46
:1036D0000C0ABDEC028B70BD05EB8500094901EBBE
:1036E000C00494ED030AD4ED010A78EE600A60EE9E
:1036F000200A94ED020A9FED041A00EE810AE8E721
:103700000000C07F040B0020E02E654210B52DEDB7
:10371000048B0446F0EE409AF0EE608AB0EE690A3F
:103720002046FFF7C5FFB0EE408A022C19D1B0EE5B
:10373000680AFEF76BFFB0EE409A18EE100A0CF024
:103740001CFC20B119EE100A0CF017FC20B99FEDFB
:10375000060ABDEC048B10BD38EE090AB0EE408AB3
:1037600000BFB0EE480AF4E70000C07F10B52DEDB1
:10377000028B0446B0EE408A2046FDF7B7F920B12F
:1037800018EE100A0CF0F9FB20B99FED220ABDECEF
:10379000028B10BD022C2FD11F4890F8240050B38B
:1037A0001E48806A20B11D48806AD0ED020A01E0FF
:1037B000DFED1B0AB0EE600A0120FFF7D7FFF0EE45
:1037C000408A18EE900A0CF0D8FB10B99FED110A50
:1037D000DDE704EB8400114901EBC00090ED030A22
:1037E00020EE080ADFED0F0A20EE200AF7EE000AAD
:1037F00000EEA80ACBE700BF04EB8400074901EB09
:10380000C00090ED030A20EE080ADFED060A20EE64
:10381000200ABCE70000C07F7C0B0020040B0020C6
:1038200000000000E02E65422DE9F0412DED048BF3
:1038300092B00446B0EE408A05F020F907462021F8
:103840000AA8FCF703FF03208DF82800A24800789F
:10385000022807D0A0480078042803D09E480078AA
:10386000032805D1012012B0BDEC048BBDE8F08126
:1038700054B394ED000A10EE101A08460CF08FFBBA
:1038800010B394ED010A10EE101A08460CF087FBF5
:10389000D0B194ED020A10EE101A08460CF07FFB2E
:1038A00090B118EE100A0CF07AFB68B1B7EE000A7E
:1038B000B4EEC08AF1EE10FA06D39FED880AB4EE9A
:1038C000C08AF1EE10FA05DD9DF82800FDF7B0FE84
:1038D0000320C8E7FDF7B6FD28B99DF82800FDF7DD
:1038E000A7FE0220BFE77E4890ED070A8DED040A8F
:1038F00090ED080A8DED050A90ED090A8DED060A96
:1039000004A8FFF70FFD18B104A8FDF7A1F820B92E
:103910000620FDF78DFE0420A5E7DDED061AB0EECA
:10392000611ADDED051AF0EE610ADDED041AB0EE64
:10393000610A6C48FEF7E6FF21466A48FDF7DAFDAA
:10394000F0EE408A18EE900A0CF029FB20B907200F
:10395000FDF76EFE032086E79FED630AF4EEC08A52
:10396000F1EE10FA04D80021204601F03DF87AE784
:10397000B7EE000AC8EE800AB0EE609AB0EE490ACF
:103980000CF01EFDBCEEC00A10EE100A401C85B201
:10399000022D02D3B5F5C07F04D90320FDF748FE00
:1039A000042060E74F481838058200204D49183937
:1039B00081F8850001F5807004A90EC90C300EC095
:1039C00004A807C801AB07C3012663E0681E00EE28
:1039D000100AF8EE400A00EE106AB8EE400A80EED7
:1039E000201AB0EE419A94ED000A3E481838D0ED06
:1039F000060A70EE600A90ED060A09EE200A8DEDC7
:103A0000070A94ED010AD0ED070A70EE600A90ED06
:103A1000070A09EE200A8DED080A94ED020AD0ED9E
:103A2000080A70EE600A90ED080A09EE200A8DED92
:103A3000090A0AAA01A907A8FFF7C4F9A8B99DEDC8
:103A4000110AF6EE000AB4EEE00AF1EE10FA0CDC10
:103A50000BA8FFF767FC40B10BA8FCF7F9FF20B1FA
:103A60000BA901A8FDF778FC28B99DF82800FDF7FF
:103A7000DFFD0420F7E606EB46011A48F43000EBC0
:103A800081000BA90EC90EC00BA807C801AB07C364
:103A9000701C86B2AE4299DB28469FED141AF0EEF8
:103AA000480AB0EE680AFDF749F9804601A8FDF71B
:103AB00025F820B90320FDF7BBFD0220D3E604233F
:103AC0000222DFED0A0AB0EE480A4146204600977E
:103AD000FEF7B8F90020C6E6EC0B002000002F44EA
:103AE00074060020780C00200AD7233C00006145B2
:103AF0002DE9F0412DED048B9CB00446B0EE408AD8
:103B000004F0BCFF0746202114A8FCF79FFD03200A
:103B10008DF85000B1480078022807D0AF480078EF
:103B2000042803D0AD480078032805D101201CB03B
:103B3000BDEC048BBDE8F08154B394ED000A10EEA7
:103B4000101A08460CF02BFA10B394ED010A10EE8F
:103B5000101A08460CF023FAD0B194ED020A10EEC8
:103B6000101A08460CF01BFA90B118EE100A0CF06F
:103B700016FA68B1B7EE000AB4EEC08AF1EE10FA98
:103B800006D39FED970AB4EEC08AF1EE10FA05DD78
:103B90009DF85000FDF74CFD0320C8E7FDF752FCEF
:103BA00028B99DF85000FDF743FD0220BFE708A9A2
:103BB000204601F02FFB20B90420FDF739FD042039
:103BC000B5E7884890ED070A8DED050A90ED080AE3
:103BD0008DED060A90ED090A8DED070A05A8FFF79D
:103BE000A1FB98B105A8FCF733FF78B105A8FEF753
:103BF000B5F958B1DDED050AB0EE600A11A9DFEDA7
:103C00007A0A7848A83001F069FA20B90620FDF751
:103C10000FFD04208BE7214611A8FDF76BFCF0EEA9
:103C2000408A18EE900A0CF0BAF920B90720FDF787
:103C3000FFFC03207BE79FED6D0AF4EEC08AF1EEF6
:103C400010FA04D80021204601F046F86FE7B7EEDD
:103C5000000AC8EE800AB0EE609AB0EE490A0CF095
:103C6000AFFBBCEEC00A10EE100A401C85B2022D5C
:103C700002D3B5F5C07F04D90320FDF7D9FC042099
:103C800055E75B4805820120594981F8850001F11B
:103C9000800094E80E0008300EC0143808A90EC940
:103CA00014300EC0A03811A90EC918300EC0DC3077
:103CB00005A90EC90C300EC005A807C802AB07C382
:103CC000012669E0681E00EE100AF8EE400A00EED8
:103CD000106AB8EE400A80EE201AB0EE419A94EDD8
:103CE000000ADDED110A70EE600A9DED110A09EE81
:103CF000200A8DED0E0A94ED010ADDED120A70EE38
:103D0000600A9DED120A09EE200A8DED0F0A94ED6E
:103D1000020ADDED130A70EE600A9DED130A09EE4A
:103D2000200A8DED100A0BA90EA801F073FAF8B164
:103D300014AA02A90BA8FFF745F8C8B99DED1B0A04
:103D4000F6EE000AB4EEE00AF1EE10FA10DC15A867
:103D5000FFF7E8FA60B115A8FCF77AFE40B115A8A4
:103D6000FEF7FCF820B115A902A8FDF7F5FA28B96D
:103D70009DF85000FDF75CFC0420D8E606EB4601F8
:103D80001C4800EB810015A90EC90EC015A807C874
:103D900002AB07C3701C86B2AE4293DB28469FED90
:103DA000161AF0EE480AB0EE680AFCF7C7FF804624
:103DB00002A8FCF7A3FE20B90320FDF739FC02207E
:103DC000B5E604230122DFED0C0AB0EE480A4146B5
:103DD00020460097FEF736F80020A8E6EC0B0020FE
:103DE00000002F4474060020000000000AD7233C86
:103DF000600C00206C0D00200000614570B52DEDB9
:103E0000028B05460E462DB9002036498860BDEC70
:103E1000028B70BD002455E005EB840090ED000A94
:103E200010EE101A08460CF0A8F860B104EB8400FC
:103E30002D4A02EBC00090ED090A10EE101A084658
:103E40000CF09BF818B9002026498860DFE705EBE5
:103E5000840090ED000A04EB8400234901EBC000CC
:103E6000D0ED090A70EE608A04EB840051F830004E
:103E7000D0ED020AB0EE600A2046FFF777FCB0EE04
:103E8000408A18EE100A0CF078F8A8B1B0EE680A73
:103E9000FCF728FDF7EE000AB4EEE00AF1EE10FAA6
:103EA0000ADCB0EE480AFCF71DFDF0EE000AB4EEA5
:103EB000E00AF1EE10FA03DD00200A498860A6E767
:103EC000601CC4B2032CA7D30648806808B9054813
:103ED000866004488068301A782801D3012096E76C
:103EE000002094E77C0B0020040B0020F0B52DEDA2
:103EF000028B83B00546B74C207880B9607808B152
:103F000000F098FF00206070A07002206071002017
:103F1000B14981F8230003B0BDEC028BF0BDAE487F
:103F200090F82300D8B90120AB4981F82300084656
:103F30000561022060700020A070E07020710220F6
:103F400060719FEDA60A84ED030A9FEDA40A84ED3B
:103F5000040A00202062606A401C6062DBE704F013
:103F60008DFD0746FCF7CCFC28B1FCF70DFD10B128
:103F7000FCF7F0FC20B90720607002206071CAE7EE
:103F800094ED020A10EE101A08460BF0F6FF30B15D
:103F900094ED020AB5EEC00AF1EE10FA04D807203B
:103FA000607003206071B6E78B480069281A2062B0
:103FB0006078082873D2DFE800F0F4045B8EA6CAAC
:103FC000F5FE002640E006EB8600854901EBC000C7
:103FD00090ED080A06EB860001EBC000D0ED090A5F
:103FE00030EE608A06EB860051F83000D0ED020A10
:103FF000B0EE600A3046FFF7B9FBF0EE408A18EEEB
:10400000100A0BF0BAFFD0B118EE900A0BF0B5FF12
:10401000A8B1B0EE480AFCF765FCF7EE000AB4EE72
:10402000E00AF1EE10FA0ADCB0EE680AFCF75AFC7E
:10403000F0EE000AB4EEE00AF1EE10FA02DD012023
:10404000607103E0701CC6B2032EBCD300BF032E08
:1040500000D2BBE0012060715F480069281AB0F50A
:104060007A7F00D2B2E00020E07002206070ADE004
:104070005C48FFF757F920B907206070062060718F
:10408000A4E0D4ED020AB0EE600A00215548FEF724
:1040900055FA28B9072060700620607196E08FE01D
:1040A0004D48056100204C498860A0700120E070F7
:1040B0009FED4A0A84ED030A9FED480A84ED040A45
:1040C000484A07CAC4E90612606100202062607194
:1040D000032060707AE029464248FFF78FFE30B136
:1040E0000020A07001206071042060706EE03A48EA
:1040F0000069281A46F2A811884203D3072060708D
:104100000220607162E0384A07CA8DE807006846FD
:1041100001F09AFC074647B107206070012F01D1DA
:10412000012000E00620607150E09DE80700C4E92E
:104130000612606128480561002027498860022036
:10414000E070002020626071052060703EE0264A29
:104150000C3207CA8DE8070001F05AFC88B92348E1
:10416000007806280DD129466846FFF747FE40B182
:104170000020A07001202071002060710620607076
:1041800024E015480069281A46F2A811884205D390
:1041900001F0B0FB072060700220607116E00AE0B9
:1041A00000E00EE000F046FE0020A070012020712B
:1041B000002060710AE001F09DFB00F03BFE05E08D
:1041C00000BF0020044981F8230000BF00BF00BFEA
:1041D000A1E60000740700207C0B00200000C07FD7
:1041E000040B00203424010840240108EC0B0020BB
:1041F00070B505469E48006B281A9D4948630846DD
:104200000078092871D2DFE800F00514375171B544
:10421000EBFEFD00284600F08DFA964840780C2809
:1042200006D10120944981F82400294600F0D2FBF0
:104230001BE1284601F0E4FE9048407B062802D0AE
:104240002846FFF753FE8D48407B072807D10420FE
:10425000874948712946082000F0BCFB0BE08748DD
:10426000407B062807D10120834981F82400294694
:10427000022000F0AFFBF8E001F0A4F820B12946DD
:10428000032000F0A7FB10E000F024FF807807284F
:1042900004D07748406BB0F5FA5F06D3022074492A
:1042A00048712946082000F095FBDEE02846FCF71F
:1042B00027FB28B1FCF768FB10B1FCF74BFB20B9DA
:1042C0002946082000F086FBCFE06948406BB0F536
:1042D000FA7F09D36649497809B1042100E0072132
:1042E0000846294600F076FBBFE0AEE06049143195
:1042F000A1F10C0000F08EFF40B904205C49487128
:1043000088712946082000F065FBAEE09FED5C0A4D
:1043100057480830FFF7ECFB0446554844715948AC
:1043200090F854005249887124B12946082000F0C1
:1043300051FB9AE04E48534B1C330ECB20300EC03D
:104340002C38D0ED090A90ED0A1ADFED4F1A31EE44
:10435000C11A70EE810AB0EE600A01F0D9F8444843
:1043600080ED0B0A0120424988702946052000F0A3
:1043700031FB7AE0284601F043FE01F049FBF8B931
:104380004048007806281BD13E4890ED180AF7EE09
:10439000000AB4EEE00AF1EE10FA11DB00F09AFE2A
:1043A00090F8200060B901203149C87000204871A0
:1043B000012001F00FF92946062000F00BFB0EE06A
:1043C0002B48406B46F2A811884208D301F092FABC
:1043D0000220274948712946082000F0FBFA44E0F2
:1043E000284601F00DFE2846FCF78AFA28B1FCF7B2
:1043F000CBFA10B1FCF7AEFA68B9002001F0EAF888
:10440000022001E022E017E01949487129460820FE
:1044100000F0E0FA29E01648406B41F2883188420A
:1044200009D3002001F0D6F801201149087129466E
:10443000072000F0CFFA18E001200E4908700C2088
:104440004870284601F0DCFD0FE000BF01F060F984
:10445000002001F0BFF801F04DFA04200549087072
:104460000D204870FF20887100BF00BF70BD0000A4
:10447000CC0A0020740600207C0B00206807002076
:1044800000007A43EC0B0020000034C370B594B0F8
:104490000646A54890F82B00002831D0A248856B2D
:1044A0000020A14981F82B0081F8290081F82A0019
:1044B00081F82C000864084690F8280030B10A46BC
:1044C0001179022310680622FEF7A4FA0620FEF7EF
:1044D000BBFA964A92F824100223106A0622FEF7CD
:1044E00099FA022207212846FEF7DEFAFEF7CAF8FB
:1044F0000023032207212846FEF776FA14B070BD88
:10450000894890F8290020B38748056B0020864928
:1045100081F82900084690F8280030B10A46117940
:10452000002310680522FEF775FA0520FEF78CFAC5
:104530007E4A92F824100023106A0522FEF76AFAD8
:10454000FCF700FB0023032206212846FEF74CFA65
:10455000D4E7754890F82A00D8B17348456B00201D
:10456000714981F82A00714890F82400032807D186
:104570006E4A92F824100023106A0522FEF734FADE
:1045800000F054FC0023032205212846FEF72CFAF4
:10459000B4E7654890F82C0058B36348C56B002019
:1045A000614981F82C00084690F8280030B10A468D
:1045B0001179022310680622FEF72CFA0620FEF776
:1045C00043FA5A4A92F824100223106A0622FEF790
:1045D00021FA022208212846FEF766FA00F0E4F9E3
:1045E0005348D0F8E80050490864304600F036F9E6
:1045F00084E74D4890F8280000B97FE728224A490F
:104600000AA8FBF7C7FF0020474981F8280047495F
:10461000886108779DF82C00012810D10A98059030
:104620009DF830008DF81800DDE90D120F98CDE9E6
:104630000712099005A8FEF7A9F8044653E09DF873
:104640002C00022820D10A9802909DF830008DF8A5
:104650000C000AA8407A8DF80D00DDE90D210F98B5
:10466000CDE9042106909DED100A8DED070A0AA8F8
:10467000007F8DF820009DED120A8DED090A02A839
:10468000FEF706F804462EE09DF82C00032820D102
:104690000A9801909DF830008DF80800DDE90D12B0
:1046A0000F98CDE9031205909DED100A8DED060AD5
:1046B0009DED110A8DED070A9DF848008DF8200048
:1046C0009DED130A8DED090A01A8FEF7A1F8044635
:1046D00009E09DF82C00042804D10CA8FEF7B8F8D6
:1046E000044600E00424B4B99DF82C00032803D04C
:1046F0009DF82C00042807D19DF82C1000230322DC
:104700000A98FEF771F90DE09DF82C1002220A9824
:10471000FEF7CAF906E09DF82C10234604220A98F9
:10472000FEF762F900BFE9E6A40B0020180A00209A
:104730007406002070B505464448407802281AD017
:1047400003DC38B1012879D109E0032829D00C28ED
:1047500074D15DE02946012000F0A0FA73E03C48E6
:104760004068281AB0F5967F00D26CE029460220F6
:1047700000F094FA67E000240CE004EB8401354A71
:1047800052F8310002F0D0FD10B10121324801553C
:10479000601CC4B2032CF0D32946032000F07EFA3B
:1047A00051E02B484068281A642812D328484560F5
:1047B00000240CE004EB8401264A52F8310002F098
:1047C000B3FD10B1012124480155601CC4B2032C73
:1047D000F0D32846FCF794F8C8B100F02BFB00B9E1
:1047E00031E0002408E004EB84011A4A52F8310059
:1047F00002F0B9FD601CC4B2032CF4D302201349AB
:104800000870FF20887129460C2000F047FA1AE052
:104810000F484068281A64280ED30D4845600024CC
:1048200008E004EB84010B4A52F8310002F09BFDD2
:10483000601CC4B2032CF4D305E0FFE72946002036
:1048400000F02CFA00BF00BF70BD0000740600200D
:104850007C0B0020040B00206F0700202DE9F0479F
:1048600007464B48D0F8EC50D0F8E8804948D0F8DB
:10487000349002264648D0F8EC00484500D04D461A
:104880004348D0F8EC00404500D045464048D0F8B9
:10489000EC00A84201D1BDE8F0873D48C0F8E850DF
:1048A0003C4845633A48807808B903262DE03846ED
:1048B000FCF726F808B9042627E09FED370A00F038
:1048C00085FB08B1052620E0FCF778F808B106263C
:1048D0001BE0002416E004EB8400304901EBC0002B
:1048E000D0ED090AB0EE600A2046FDF7E1FD8246F0
:1048F000BAF1000F02D0BAF1030F01D1072603E08D
:10490000601CC4B2032CE6D300BF214880F8F060DD
:10491000C0F8EC501F48856380F83C60022E00D040
:10492000B9E7FDF75FFE00201D4981F8240000244F
:1049300018E004EB8401194A52F8310002F07DFBC3
:1049400038B90820124981F8F000124981F83C007A
:10495000A1E704EB8401114A52F8310002F0E3FDB3
:10496000601CC4B2032CE4D30020094988700120E4
:104970000B4981F82200002081F8210039460120EE
:1049800000F08CF900200249087000BF83E70000A6
:10499000740600206807002000008C42040B0020F1
:1049A0007C0B0020704700000848D0F8E800401C4D
:1049B0000649C1F8E800012081F8F0000846D0F867
:1049C000E800034948630120704700007406002096
:1049D00068070020034A107011630022014B5A63DC
:1049E00070470000CC0A002070B58CB004460D461C
:1049F000202104A8FBF72AFE03208DF81000BCB18B
:104A000094ED000A10EE101A08460BF0C8FA78B1BF
:104A100094ED010A10EE101A08460BF0C0FA38B1F6
:104A200094ED020A10EE101A08460BF0B8FA60B9BD
:104A30009DF81000FCF7FCFD25B1202204A92846B2
:104A4000FBF7A8FD03200CB070BDFCF7FBFC58B9C8
:104A50009DF81000FCF7ECFD25B1202204A92846A2
:104A6000FBF798FD0220EEE7424890ED070A8DED36
:104A7000010A90ED080A8DED020A90ED090A8DED0C
:104A8000030A04AA01A92046FEF79CF980B99DED0E
:104A90000B0AF6EE000AB4EEE00AF1EE10FA07DCBB
:104AA00005A8FEF73FFC18B105A8FBF7D1FF58B9E0
:104AB0009DF81000FCF7BCFD25B1202204A9284672
:104AC000FBF768FD0420BEE705A801F021FE58B9F8
:104AD0009DF81000FCF7ACFD25B1202204A9284662
:104AE000FBF758FD0220AEE70020234981F885003E
:104AF00001F1800094E80E0014300EC0203894E8D4
:104B00000E0008300EC01D4805A90EC910300EC099
:104B10001C3805A90EC91C300EC02838D4E9011371
:104B20002268C0E9131382640020144981F85400FC
:104B3000012081F8550081F85600B7EE000A0846BA
:104B400080ED180A0020486688660120A1F86C00F4
:104B50000020487003F092FF064631460620FDF71C
:104B600061F825B1202204A92846FBF713FD002097
:104B700069E7000074060020600C0020EC0B0020A8
:104B80002DE9F0412DED068B05468846B0EE408AB2
:104B9000F0EE608A1746032D0ED218EE100A0BF0C5
:104BA000ECF948B118EE900A0BF0E7F920B1F5EEF8
:104BB000C08AF1EE10FA04D80020BDEC068BBDE8E7
:104BC000F08105EB8500234901EBC006B0EE480AF1
:104BD0002846FDF76DFC044624B1032C02D01FB912
:104BE000012C01D00020E8E74146B0EE480A2846F3
:104BF000FEF726FBB0EE409A9FED170A28EE800ADA
:104C0000D6ED030A80EE201AB0EE41AAB0EE4A0AB1
:104C1000FBF768FEF0EE409A19EE100A0BF0ADF9C2
:104C200060B119EE900A0BF0A8F938B1F0EE690AFC
:104C3000B0EE490A306802F0B6FC08B90020BCE7C3
:104C400086ED088A054800EB850080ED008A01208A
:104C5000B3E70000040B002035FA8E3CA0060020CC
:104C600000B52DED048B83B0B0EE409AB0EE608AB3
:104C7000F0EE418A8DED009A8DED018ACDED028A2C
:104C80006846FBF73BFF20B9002003B0BDEC048B66
:104C900000BD684601F03CFDF7E7000010B50B4B86
:104CA0005A7858700A4B59600023094CA360E3609E
:104CB0009FED080A234683ED050A0C2804D10C2A2F
:104CC00002D0002384F8233010BD000074060020B9
:104CD0007C0B00200000000070B52DED028B8EB023
:104CE00004460D46202103A8FBF7B0FC03208DF8F5
:104CF0000C00BCB194ED000A10EE101A08460BF03F
:104D00004EF978B194ED010A10EE101A08460BF036
:104D100046F938B194ED020A10EE101A08460BF06D
:104D20003EF970B99DF80C00FCF782FC25B12022F9
:104D300003A92846FBF72EFC03200EB0BDEC028B26
:104D400070BD0BA9204600F065FA68B90420FCF795
:104D50006FFC3DB104208DF80C00202203A92846E9
:104D6000FBF718FC0420E8E72D4890ED070A8DEDCD
:104D7000000A90ED080A8DED010A90ED090A8DED0B
:104D8000020A03AA69460BA8FEF71CF8A0B99DED1C
:104D90000A0AF6EE000AB4EEE00AF1EE10FA0BDCB5
:104DA00004A8FEF7BFFA38B104A8FBF751FE18B10A
:104DB00004A8FDF7D3F858B99DF80C00FCF738FCAF
:104DC00025B1202203A92846FBF7E4FB0420B4E721
:104DD00029460BA8FFF708FE0646FEB90120114937
:104DE00081F8850001F1800094E80E0008300EC0C3
:104DF00014380BA90EC914300EC0A03894E80E0068
:104E000024300EC0084894E80E0048300EC004A8B4
:104E1000FCF756FFB0EE408A00F034FC30468CE7D9
:104E200074060020600C0020EC0B002010B500F090
:104E3000EBFE10BD3EB51C4890F8240000BB0024DA
:104E40001AE004EB8400194951F830501DB128468E
:104E500002F0C0FA08B900203EBD04EB84001349FB
:104E600001EBC00090ED090A04EB840001EBC000E7
:104E700080ED080A601CC4B2032CE2D30120EBE7EA
:104E80000A4890ED090A8DED000A90ED130A8DEDA8
:104E9000010A90ED1D0A8DED020A0121B1EE040A0E
:104EA0006846FDF74BFBD7E77C0B0020040B002086
:104EB00070B503F0E3FD0546284600F035FC2846B2
:104EC00001F01CF92846FFF7E1FA3B48807818B159
:104ED0002846FFF7C3FC28E02846FBF785FD18B1FC
:104EE0000220FEF783FB21E09FED340A00F06EF80C
:104EF00018B10A20FEF77AFB18E0FBF791FD18B114
:104F00000320FEF773FB11E09FED2D0A00F05EF821
:104F100040B1002000F05EFB00F0ECFC02212948CB
:104F2000417403E02846FFF763F900BF284601F00B
:104F3000E5F821480078012811D11F4840780C2855
:104F40000DD11D48807850B91B48007938B100BF99
:104F50001948D0ED300AB0EE600A00F093FB164815
:104F6000D0ED070AB0EE600A00F1B401DFED160AD9
:104F7000A83000F0B3F800F0ADF8044660780E49B0
:104F800081F8C800E07981F8C90001F18000D4E916
:104F90000312C0E9131280386169C0F8D41094F884
:104FA0002100054981F8D800606AC1F8DC0001F0F1
:104FB000DBFB01F01DFA70BD740600200000A0426A
:104FC00000008C426807002000000000002117E06C
:104FD00001EB81000C4B53F830207AB1D2ED040A7A
:104FE000F4EEC00AF1EE10FA06DAD2ED050AF4EE9C
:104FF000C00AF1EE10FA01DB01207047481CC1B273
:105000000329E5D30020F8E7040B002010B52DEDAF
:10501000048B0446B0EE408A18EE100A0AF0C8FF6E
:1050200018B1012C05D0022C03D00020BDEC048B5C
:1050300010BDB5EEC08AF1EE10FA03D29FED1E0A44
:10504000B0EE408A9FED1D0AB4EEC08AF1EE10FA70
:1050500003DD9FED1A0AB0EE408A012C02D19FEDCC
:10506000180A01E09FED170AF0EE409A9FED169A9C
:105070009FED160A38EE400AF0EE698A40EE098A82
:10508000F5EEC08AF1EE10FA01D20020CEE79FEDD6
:10509000100AF4EEC08AF1EE10FA02DD4FF47A70D5
:1050A000C4E7B6EE000A38EE800ABCEEC00A10EE85
:1050B000100A80B2BAE7000000000000000034438C
:1050C0000000024400C019441CC7B1400000B442B3
:1050D00000007A44004870476C25002070B52DED23
:1050E000088B0446B0EE409AB0EE608A0D4614B3C9
:1050F0000DB394ED000A10EE101A08460AF058FF9E
:10510000C8B194ED010A10EE101A08460AF050FFDB
:1051100088B194ED020A10EE101A08460AF048FF12
:1051200048B119EE100A0AF043FF20B118EE100A38
:105130000AF03EFF30B90120314948620020BDEC41
:10514000088B70BD9FED2F0A29EE00AA9FED2D0A56
:1051500068EE008AB0EE680A0BF068F9DFED2A0A03
:1051600020EE20BADFED290A78EEE00AB0EE600A00
:105170000BF05CF9DFED260AF0EE4B9A40EE809AD8
:10518000B0EE680A0BF042FADFED1F0A20EE20BAFB
:10519000DFED1E0A78EEE00AB0EE600A0BF036FA98
:1051A000DFED1B0AF0EE4BAA40EE80AAB0EE4A0AF1
:1051B0000BF03CF9D4ED000A49EE800AC5ED000A77
:1051C000B0EE4A0A0BF022FAD4ED010A49EE800A49
:1051D000C5ED010A94ED020A30EE2A0A85ED020AB5
:1051E000074894E80E003C300EC0483895E80E00A1
:1051F00048300EC0543880ED158A01209FE700002A
:105200006C25002035FA8E3C33337142DB0FC93FE9
:105210000000584270B52DED028B04460D46C4B116
:10522000BDB194ED000A10EE101A08460AF0C0FE57
:1052300078B194ED010A10EE101A08460AF0B8FE93
:1052400038B194ED020A10EE101A08460AF0B0FECA
:1052500030B90120304948620020BDEC028B70BD9E
:10526000D4ED000A60EEA00A94ED011AD4ED011A03
:1052700041EE210AB0EE600A0BF090FAB0EE408ADF
:1052800018EE100A0AF094FE30B19FED240AB4EE35
:10529000C08AF1EE10FA04D804201F4948620020A9
:1052A000DBE79FED1E0A78EE408A94ED000A20EEBF
:1052B000280AC0EE080AC5ED000A94ED010A20EEA6
:1052C000280AC0EE080AC5ED010A94ED020ADFEDD6
:1052D000140A30EE200A85ED020A95ED000A10EE60
:1052E000101A08460AF064FE78B195ED010A10EE36
:1052F000101A08460AF05CFE38B195ED020A10EE6D
:10530000101A08460AF054FE20B9042002494862E7
:105310000020A2E70120A0E76C2500203333714272
:105320000000584210B558212248FBF78FF906F0CB
:1053300007FB044600224FF480511F4803F098FBFE
:105340001C48047000201B49C871012081F821000D
:105350009FED1A0A084680ED030A9FED190A80EDB9
:10536000040A9FED160A80ED060A03F087FB114937
:10537000C861002081F820009FED100A0120FFF78E
:1053800045FE0C4988829FED0E0A0220FFF73EFE83
:105390000849C882002048700CB1012000E00720B5
:1053A0000449887003F06AFB024988630CB9032042
:1053B000486210BD6C250020000402400000344209
:1053C0000000B44210B5FFF785FE0446A078062819
:1053D00001D1012010BD0020FCE700002DE9F047BD
:1053E0002DED028B0646B0EE408A0F4691463046C0
:1053F00000F0E8F8044603F041FB82464348007899
:1054000038B90120414948620220BDEC028BBDE859
:10541000F087012E01D0022E08D1B0EE480A00F02C
:10542000B3F818B147F23050874204D90220374907
:1054300048620320E9E7B9F1000F1CD13348806BC3
:10544000AAEB00001E2801D20020DEE72F480C3016
:1054500000EB8400D0ED000A78EE600AB0EE600A3E
:105460000BF098FCF6EE000AB4EEE00AF1EE10FA4A
:1054700001D20020C9E7B0EE480A3046FFF7C6FD6A
:1054800080463A464146304606F072FA0546012DFE
:1054900000D1BAE79DB11D48303050F82400401CBF
:1054A0001A49303141F824000021184808300155CC
:1054B000002016494870032048620220A5E71348DF
:1054C000283050F82400401C1049283141F82400AD
:1054D00001210E4808300155001D00EB840080EDCD
:1054E000008A0A48143020F814801438C0F838A014
:1054F000007A20B10548407A08B1012000E0002080
:10550000024948700020486200BF7EE76C250020F9
:1055100010B52DED028BB0EE408A18EE100A0AF09D
:1055200047FD50B1B7EE000A0BF034FCDFED0C0A7A
:10553000B4EEE00AF1EE10FA04D29FED0A0ABDECD7
:10554000028B10BD9FED080A28EE000AB7EE001A84
:10555000C0EE010A9FED050A30EE800AEFE7000079
:10556000BD3786350000C07FCDCC4C3F0000B44233
:1055700010B52DED028BB0EE408AB0EE480A00F077
:1055800003F8BDEC028B10BD10B52DED028BB0EE13
:10559000408A18EE100A0AF00BFD78B1B5EEC08A09
:1055A000F1EE10FA0ADB9FED060AB4EEC08AF1EEC6
:1055B00010FA03D80120BDEC028B10BD0020FAE7E1
:1055C000000034430146012901D00120704700202A
:1055D000FCE7000010B504460CB1012000E00020FB
:1055E00002464FF48051054803F042FA0CB1012005
:1055F00000E000200249C87110BD00000004024014
:105600006C25002010B52DED028BB0EE408A0020F5
:10561000074981F8210081F8200001220021B0EE25
:10562000480A1046FFF7DAFEBDEC028B10BD000001
:105630006C25002010B52DED028BB0EE408A18EEDF
:10564000100A0AF0B5FC70B1DFED0D0A78EE600AC1
:10565000B0EE600A0BF09EFBF6EE000AB4EEE00A34
:10566000F1EE10FA03DD0420BDEC028B10BD002228
:105670004FF4FA719FED020A0220FFF7AFFEF3E745
:105680000000B44210B52DED028BF0EE408AB0EE72
:10569000680AFFF73DFFB0EE408AB0EE480AFFF718
:1056A00067FF40B900201849487002204862062070
:1056B000BDEC028B10BD0120134981F821009FED44
:1056C000130A084680ED150A80ED068AD0ED030A1C
:1056D00078EE600AB0EE600A0BF05CFBF6EE000AB2
:1056E000B4EEE00AF1EE10FA0BDD074890F8200066
:1056F00018B903F0C3F90449C8610120024981F8CF
:1057000020000020D4E700006C25002000000000ED
:10571000044890ED030A80ED060A0020014981F853
:10572000200070476C25002070B52DED048B0446D9
:10573000204606F069F96B48807808287CD2DFE8BB
:1057400000F07E0425314B717C7D6648806B201A09
:10575000B0F57A7F00D273E001224FF4FA719FED29
:10576000620A1046FFF73AFE05463DB95D484571AD
:1057700001205C49C8700220887006E0012D04D029
:105780005848457107205749887059E05748407874
:1057900038B95448806B201A1E2802D3032051497F
:1057A00088704DE001224FF4FA719FED510A0220FA
:1057B000FFF714FE05463DB94A4885710220494964
:1057C000C8700420887006E0012D04D0454885711A
:1057D00007204449887033E04448407800BB414882
:1057E0000079401C3F4908710846007A20B10846FC
:1057F000407A08B1012000E000203A49487008468C
:105800000079052804D2084684630520887007E0E3
:105810003448407808B1062000E0072031498870FC
:105820000EE009E02F48806B201AB0F5967F02D376
:1058300001202C49887003E000BF00BF00BF00BFFB
:1058400000BF28488078062848D1264890F82000D4
:10585000F0B326484078D8BB2248C069201A1428E3
:105860003CD3204890ED030AB0EE409A90ED060A32
:10587000B0EE408A38EE490AF0EE409AB0EE690A7E
:105880000BF088FAF6EE000AB4EEE00AF1EE10FA38
:1058900004D80020134981F820001EE0F0EE488A69
:1058A00001220021B0EE680A1046FFF797FDA0B96B
:1058B0000C48C46178EE680AB0EE600A0BF06AFA30
:1058C000F6EE000AB4EEE00AF1EE10FA05D800E0B8
:1058D00004E00020034981F8200000BFBDEC048BE8
:1058E00070BD00006C25002000003442C8C80120B3
:1058F0000000B4423EB5FBF7A5FD00B93EBD2F4800
:1059000090ED070A8DED000A90ED080A8DED010A71
:1059100090ED090A8DED020A684600F0F9FE28486C
:105920009DE80E0010300EC0254A9DE80B001C3289
:105930000BC2234921488030D0E90A23006BC1E91A
:105940001223086500201F4981F8850001F18000BD
:105950001A498031D1E90A23096BC0E90523C161E5
:1059600016498031D1E90A23096BC0E9022301619C
:10597000B7EE000A124880ED180A0120104981F89C
:105980005600002048700F494875887501F1800065
:10599000002101664166816601200A49088201F5FD
:1059A00080709DE80E000C300EC003F067F80446CE
:1059B00021460620FCF736F900BF9FE77406002059
:1059C000EC0B0020600C002010B541F60C110E48C5
:1059D000FAF73CFE74210D48FAF738FE00200B4917
:1059E0000870487003F04AF8074988600020FDF706
:1059F00073FD054988740846807C20B90820034956
:105A000008700120487010BD600C0020EC0B0020D5
:105A10000B48407D78B90B48007802280BD0094824
:105A20000078032807D007480078042803D00548E9
:105A30000078052801D1012070470020FCE7000014
:105A4000600C0020EC0B00207FB5044614B1FFF77A
:105A5000DFFF28B114B9032004B070BD0120FBE7BB
:105A6000FBF7F0FC08B90220F6E72046FDF75AFCE8
:105A700018B12046FAF7ECFF08B90420ECE7022041
:105A800025490882002081F8850001F58070234AAD
:105A9000D2E90713526AC0E90432C1600C3094E8BD
:105AA0000E000C300EC0D4ED021AB0EE611AD4ED27
:105AB000011AF0EE610AD4ED001AB0EE610A01A8F5
:105AC000FCF720FF144915488030D0E90A23006B09
:105AD000C1E90623086202209FED111ADFED110AC9
