:020000040800F2
:10000000489101203103000815F10008CDE90008EE
:1000100011F10008F98E0008AD2F01080000000062
:100020000000000000000000000000007102000855
:10003000859F000800000000CD02000895F500082B
:100040004B0300084B0300084B0300084B03000858
:100050004B0300084B0300084B0300084B03000848
:100060004B0300084B0300084B0300084B03000838
:10007000559500084B0300084B0300084B0300088C
:100080004B0300084B0300084B0300084B03000818
:10009000D98F0008E98F00084B0300084B030008C4
:1000A0004B0300084B0300084B0300084B030008F8
:1000B0004B0300084B0300084B0300084B030008E8
:1000C0004B0300084B0300084B03000855F50008DC
:1000D0004B0300084B0300084B0300084B030008C8
:1000E0004B0300084B0300084B0300084B030008B8
:1000F0004B03000891F600084B0300084B0300086F
:100100004B0300084B0300084B0300084B03000897
:100110004B0300084B0300084B0300084B03000887
:10012000659500084B030008759500088595000843
:100130004B0300084B0300084B0300084B03000867
:10014000F98F0008099000084B03000819F1000816
:100150004B0300084B0300084B030008850001080F
:100160004B0300084B0300084B0300084B03000837
:100170004B0300084B0300084B030008000000007D
:100180004B0300084B03000800F002F800F060F891
:100190000AA090E8000C82448344AAF10107DA45E2
:1001A00001D100F055F8AFF2090EBAE80F0013F0D4
:1001B000010F18BFFB1A43F001031847B05E01009E
:1001C000F05E01000A444FF0000C10F8013B13F000
:1001D000070408BF10F8014B1D1108BF10F8015BA0
:1001E000641E05D010F8016B641E01F8016BF9D193
:1001F00013F0080F1EBF10F8014BAD1C0C1B09D1EA
:100200006D1E58BF01F801CBFAD505E014F8016B5B
:1002100001F8016B6D1EF9D59142D6D370470000ED
:100220000023002400250026103A28BF78C1FBD8FF
:10023000520728BF30C148BF0B6070471FB515F08B
:1002400084FE9DE8030000F047FA1FBD10B510BD05
:1002500000F0AEFA1146FFF7F1FF14F010F800F0CD
:10026000CCFA03B4FFF7F2FF03BC00F0FDFA000084
:100270002C4B19680868B0E8F04F80F30988BFF389
:100280006F8F4FF0000080F311887047000000006E
:1002900008480068006880F308884FF0000080F389
:1002A000148862B661B6BFF34F8FBFF36F8F00DF64
:1002B00000BF00BF08ED00E0DFF80C00016841F46A
:1002C00070010160704700BF88ED00E0EFF3098026
:1002D000BFF36F8F134B1A681EF0100F08BF20ED8D
:1002E000108A20E9F04F106009B44FF0500080F3FD
:1002F0001188BFF34F8FBFF36F8F15F047F84FF0A2
:10030000000080F3118809BC19680868B0E8F04F54
:100310001EF0100F08BFB0EC108A80F30988BFF3FD
:100320006F8F70473CC20120EFF3058070470000DB
:100330000948804709480047FEE7FEE7FEE7FEE779
:10034000FEE7FEE7FEE7FEE7FEE7FEE704480549B5
:10035000054A064B704700007DF600088901000839
:1003600048910020489101204811012048110120A6
:1003700070B5064600F094F9056806F10B0020F010
:100380000704B4429CBF002070BD2B466A68BAB116
:100390001068A04210D304F1080188423CBF5068A5
:1003A000586007D35168101941601168091B01603A
:1003B00058601460101D70BD13465268002AE7D1C2
:1003C0002146284600F074F90028DED170BD70B5D2
:1003D0000446051F00F064F90068002C14BF44684F
:1003E00070BD002C18BFAC423CBF20466468F8D3F7
:1003F00001680A18AA4218BF456003D12A68054659
:100400001144016028684119A1421CBF6C6070BD95
:100410006168696021680844286070BD53EA020C75
:1004200000F069802DE9F04B4FF00006002B1FBF54
:10043000B3FA83F503FA05F424FA05F65E4012BF19
:100440001643B2FA82F502FA05F4C5F120051EBF83
:1004500022FA05FC44EA0C04203556EA044C4FEA23
:10046000144418BF641C4FF000084FF0000990427C
:1004700071EB030C39D3002919BFB1FA81F701FAE6
:1004800007F6B0FA80F700FA07F6C7F120071EBF9B
:1004900020FA07FC46EA0C062037B6FBF4FCA7EB73
:1004A0000507103F07F01F0BCBF120060CFA0BFBE2
:1004B0002CFA06F644BFB3460026202FA4BF5E46A2
:1004C0004FF0000B5BEA060C08BF4FF0010B19EB75
:1004D0000B09ABFB027C48EB0608C01B06FB02CCF9
:1004E0000BFB03CC71EB0C01C1E70B460246414606
:1004F0004846BDE8F08B13B54FF000004FF0000107
:10050000AFF30080BDE81C407047032A40F2308002
:1005100010F0030C00F0158011F8013BBCF1020F44
:10052000624498BF11F801CB00F8013B38BF11F8C5
:10053000013BA2F1040298BF00F801CB38BF00F8DC
:10054000013B11F0030300F02580083AC0F0088059
:1005500051F8043B083A51F804CBA0E80810F5E73D
:10056000121D5CBF51F8043B40F8043BAFF3008020
:10057000D20724BF11F8013B11F801CB48BF11F895
:10058000012B24BF00F8013B00F801CB48BF00F865
:10059000012B704710B5203AC0F00B80B1E818501D
:1005A000203AA0E81850B1E81850A0E81850BFF45D
:1005B000F5AF5FEA027C24BFB1E81850A0E81850FC
:1005C00044BF18C918C0BDE810405FEA827C24BF50
:1005D00051F8043B40F8043B08BF7047D20728BFDE
:1005E00031F8023B48BF11F8012B28BF20F8023B2D
:1005F00048BF00F8012B704702F0FF0343EA0322D3
:1006000042EA024200F002B84FF000020429C0F0B2
:10061000128010F0030C00F01B80CCF1040CBCF134
:10062000020F18BF00F8012BA8BF20F8022BA1EB86
:100630000C0100F00DB85FEAC17C24BF00F8012B6B
:1006400000F8012B48BF00F8012B70474FF0000263
:1006500000B5134694469646203922BFA0E80C50B8
:10066000A0E80C50B1F12001BFF4F7AF090728BF93
:10067000A0E80C5048BF0CC05DF804EB890028BF0F
:1006800040F8042B08BF704748BF20F8022B11F038
:10069000804F18BF00F8012B7047704770477047B4
:1006A00000487047F09000207047704770477047CF
:1006B00038B504460A4600206946AFF3008000289A
:1006C00008BF38BD02460099204600F04FF80120CF
:1006D00038BD012000F064B8F8B5AFF300800546DE
:1006E00000200C46102000BF0646A819A0420DD9D4
:1006F000324669460020AFF30080070008BF00F0D3
:100700004FF80098A04218BF0546C419FFF7C8FF6C
:1007100005600746F01D20F007004619284600F046
:100720000AF8B44208BFF8BDA21B31463868BDE8DC
:10073000F84000F01BB800210160C0E901107047CB
:100740001020704710B500F00DF8006810BD10B50E
:10075000044600F007F8046010BD00000048704730
:10076000E890002000487047E89000200346406869
:100770008C46002818BF88423CBF03464068F8D327
:1007800018681844884207D00CF1030020F00700D5
:10079000001D411A521A0146081D0A60FFF717BED4
:1007A00010B500F039F8BDE8104000F02FB87047E0
:1007B0007546FFF7D3FFAE4605006946534620F065
:1007C0000700854618B020B5FFF7C0FDBDE8204002
:1007D0004FF000064FF000074FF000084FF0000BFD
:1007E00021F00701AC46ACE8C009ACE8C009ACE8B0
:1007F000C009ACE8C0098D46704710B50446AFF398
:1008000000802046BDE81040FFF72BBD002801D036
:1008100000F02AB87047000010B5012805D000216B
:1008200003A000F027F8012010BD09A1F8E700009F
:1008300053494752544D454D3A204F7574206F66C9
:100840002068656170206D656D6F72790000000031
:100850003A2048656170206D656D6F727920636F15
:10086000727275707465640001491820ABBEFEE7B2
:100870002600020070B505460C460A2000E06D1CFB
:1008800000F011F835B128780028F8D102E0641C96
:1008900000F009F814B120780028F8D1BDE87040C4
:1008A0000A20AFF3008008B569468DF800000320E8
:1008B000ABBE08BD094948700E21084A11700021DD
:1008C00082F85610064A517591751175118202F120
:1008D00080010022CA660A674A677047880E0020B6
:1008E000FC0E0020F0EE400AF5EEC00AF1EE10FA20
:1008F00002D2B1EE600A7047B0EE600AFBE700007A
:1009000070B5064600251EE005EB8500104951F83C
:100910003040A4B13146204609F018F978B194ED81
:10092000010A10EE101A084612F04EFC38B194ED90
:10093000020A10EE101A084612F046FC08B9002010
:1009400070BD681CC5B2032DDED30120F8E700009E
:100950008CCC0120002110E001EB8100094A52F803
:10096000300030B101EB810052F8300090F84500C2
:1009700008B900207047481CC1B20329ECD30120FC
:10098000F8E700008CCC0120002110E001EB810091
:10099000094A52F8300030B101EB810052F83000C2
:1009A00090F8440008B900207047481CC1B20329E0
:1009B000ECD30120F8E700008CCC012010B5002416
:1009C0000BE004EB8401074A52F8310009F025F8E6
:1009D00008B1012010BD601CC4B2032CF1D300206B
:1009E000F8E700008CCC012070B50646002410E02A
:1009F00004EB8400094951F8305045B1287E30B1EC
:100A00003146284609F0A2F808B9012070BD601CE3
:100A1000C4B2032CECD30020F8E700008CCC0120FA
:100A200000210FE001EB8100084B53F830203AB170
:100A300092F84A0010B9506D052801D30120704783
:100A4000481CC1B20329EDD30020F8E78CCC01206B
:100A500010B50446204602F08FFE08B9002010BDF4
:100A600094ED000ADFED1B0AB4EEE00AF1EE10FA95
:100A70002EDB94ED000ADFED180AB4EEE00AF1EE89
:100A800010FA25D894ED010ADFED140AB4EEE00A5D
:100A9000F1EE10FA1CDB94ED010ADFED110AB4EE61
:100AA000E00AF1EE10FA13D894ED020ADFED0D0A18
:100AB000B4EEE00AF1EE10FA0ADB94ED020ADFED83
:100AC0000A0AB4EEE00AF1EE10FA01D80120C6E7F6
:100AD0000020C4E70000B4C20000B44200000C4291
:100AE0000000344300003EC300000CC2014602294E
:100AF00001DC012070470020FCE7000070B50546CE
:100B00000F480078012800D100E0002004461CB9FD
:100B10000B480078022801D1012000E000200446A3
:100B200054B1074840780C2806D10548807818B998
:100B3000284602F021FE08B9002070BD0120FCE724
:100B4000C4C70120012070477047000010B5044859
:100B5000807800B110BD05F0A1FD00BFFAE70000EC
:100B6000C4C7012070B52DED048B86B00546644ADC
:100B700007CA03AB07C39FED630AB0EE408A15B105
:100B8000B5F5C07F05D99FED5F0A06B0BDEC048BBB
:100B900070BD9FED5C0A5C4880EDC60A01247EE0D2
:100BA0009FED580AF0EE408A04EB4401574800EBF1
:100BB0008100D0ED000A601E00EB4001534800EBBD
:100BC000810090ED001A70EEC10AB0EE600A01F0EB
:100BD00039FDB0EE409A13F048FB8DED000A04EBAE
:100BE00044014A4800EB8100D0ED010A601E00EB91
:100BF0004001464800EB810090ED011A70EEC10AF9
:100C0000B0EE600A13F031FB8DED010A04EB4401F4
:100C10003E4800EB8100D0ED020A601E00EB40016F
:100C20003A4800EB810090ED021A70EEC10AB0EE76
:100C3000600A13F01AFB8DED020A002617E06846E1
:100C400000EB860090ED000A03A800EB8600D0EDD3
:100C5000000A80EE201AB0EE419AF0EE490AB0EE9A
:100C6000680A12F0C1FDF0EE408A701CC6B2032E75
:100C7000E5D39FED270AF4EEC08AF1EE10FA03D215
:100C80009FED230AF0EE408A38EE280AB0EE408A43
:100C9000204800EB840080ED008A601C84B2AC42E6
:100CA000FFF67EAF012D06D09FED190AB4EEC08A83
:100CB000F1EE10FA07D29FED130A134880EDC60A31
:100CC0009FED100A61E701200DE0124901EB800160
:100CD00091ED000AC0EE080A0E4901EB8001C1ED5A
:100CE000000A411C88B2A842EFDBB7EE000A681E7A
:100CF000084901EB800080ED000AB0EE480A44E7A5
:100D00000060010800000000FC1E002014100020FC
:100D1000BD37863514220020F0EE401AF4EEE01ABA
:100D2000F1EE10FA02D2B0EE600A7047F4EEC11A8A
:100D3000F1EE10FA02DDB0EE410AF6E7B0EE610A1C
:100D4000F3E7000070B52DED0A8B8CB0B0EE408A51
:100D5000F0EE609AB0EE41AA06469FEDD70AF0EE9B
:100D6000408A002009900A900B903046FFF7FAFE67
:100D7000F0EE40AAD14AD2E900109268CDE907020C
:100D80000691CE4A0C3207CA03AB07C39FEDCC0ACB
:100D9000B4EEC08AF1EE10FA1EDDB7EE0E0A28EEB0
:100DA000000AC0EE290AB0EE609A9FEDC60A28EE4E
:100DB000000AC0EE0A0AF0EE60BAB0EE6B0A12F05A
:100DC00023FEB0EE40BAF0EE4B0AB0EE490A12F044
:100DD0000BFDF0EE408A00BFB7EE0E0A2AEE800A45
:100DE000F0EE400AB0EE680A12F0FEFCF0EE408A27
:100DF000012456E004EB4401B34800EB8100D0ED40
:100E0000000A601E00EB4001AF4800EB810090ED4E
:100E1000001A70EEC10AB0EE600A01F013FCB0EEE9
:100E2000409A13F022FADDED090A30EE200A8DED2A
:100E3000090A04EB4401A44800EB8100D0ED010A4B
:100E4000601E00EB4001A04800EB810090ED011A0C
:100E500070EEC10AB0EE600A13F007FADDED0A0A7F
:100E600030EE200A8DED0A0A04EB4401964800EBAF
:100E70008100D0ED020A601E00EB4001924800EBB9
:100E8000810090ED021A70EEC10AB0EE600A13F014
:100E9000ECF9DDED0B0A30EE200A8DED0B0A601C3B
:100EA00084B2B442A6DB00243BE009A800EB840036
:100EB00090ED000AF7EE0E0A20EE200A06A800EBDD
:100EC0008400D0ED000A80EE201AB0EE41BA09A8E5
:100ED00000EB840090ED000ADFED7A0A20EE200A94
:100EE00003A800EB8400D0ED000A80EE201AF0EE9B
:100EF00041BAB0EE6B0A12F087FDB0EE409AF0EE08
:100F0000490AB0EE4B0A12F06FFCF0EE40BAF0EE78
:100F10006B0AB0EE680A12F067FCF0EE408A601CC3
:100F2000C4B2032CC1D30124AAE0684800EB8400BA
:100F300090ED000A601E654901EB8000D0ED000ACB
:100F400030EE600AB0EE409A9FED610AB4EEC09AAE
:100F5000F1EE10FA00D291E004EB44015A4800EBA4
:100F60008100D0ED000A601E00EB4001564800EB06
:100F7000810090ED001A70EEC10AB0EE600A01F037
:100F800061FBB0EE40BA13F070F98DED000A04EB8E
:100F900044014D4800EB8100D0ED010A601E00EBDA
:100FA0004001494800EB810090ED011A70EEC10A42
:100FB000B0EE600A13F059F98DED010A04EB44011B
:100FC000414800EB8100D0ED020A601E00EB4001B9
:100FD0003D4800EB810090ED021A70EEC10AB0EEC0
:100FE000600A13F042F98DED020A002543E06846DD
:100FF00000EB850090ED000AF7EE0E0A20EE200AC5
:1010000006A800EB8500D0ED000A60EE890A80EEAC
:10101000201AB0EE41BA684600EB850090ED000A58
:10102000DFED280A20EE200AF7EE000A20EE200A63
:1010300003A800EB8500D0ED000A60EE890A80EE7F
:10104000201AB0EE41CAB0EE4C0A12F0DDFCF0EE10
:1010500040BAF0EE6B0AB0EE4B0A12F0C5FBB0EEF0
:1010600040CAF0EE4C0AB0EE680A12F0BDFBF0EE9A
:10107000408A681CC5B2032DB9D300BF601C84B27E
:10108000B442FFF652AF9FED130AF4EEC08AF1EEC0
:1010900010FA03D29FED0F0AF0EE408ADFED0E0A40
:1010A0009FED0E0A08EEA00ABCEEC00A10EE100A70
:1010B0000CB0BDEC0A8B70BD000000000C60010894
:1010C0000AD7233C83C0B84014100020142200200B
:1010D000BD3786356F12833A00007A4477BE7F3F72
:1010E00010B52DED028B002462E0334800EB840044
:1010F00090ED000AB0EE408A304800EB840090ED9D
:10110000000A10EE101A084612F070F880B12A4852
:10111000383800EB840090ED000A10EE101A0846F3
:1011200012F064F820B118EE100A12F05FF818B946
:101130000020BDEC028B10BD8CB9204800EB840070
:10114000D0ED000A1C48383800EB840090ED001AFE
:1011500070EEC10AB0EE600A01F074FA0CE01748B4
:1011600000EB840090ED000A1348383800EB84004F
:10117000D0ED000A30EE600AF0EE408AB0EE680A68
:1011800013F073F8F0EE000AB4EEE00AF1EE10FA94
:101190000ADCB0EE480A13F068F8F1EE040AB4EE87
:1011A000E00AF1EE10FA01DD0020C2E7601CC4B2D3
:1011B000032C9AD30120BCE718C80120A40E0020FC
:1011C0002DE9F0412DED068BF0EE409A064667487A
:1011D000008A01280AD86648D0E90621006AC6E9D3
:1011E0000021B060BDEC068BBDE8F081B7EE001ABF
:1011F000DFED600AB0EE690AFFF78EFDB0EE408ABF
:10120000B7EE000AB4EEC08AF1EE10FA07DB5748D9
:10121000008A401E84B22546DFED568A3FE000205A
:10122000524A128A521E91B211E00B1A00EB53037C
:101230009AB2514B03EB820393ED000AB4EEC80A55
:10124000F1EE10FA01D8104600E0114600BF421C32
:1012500092B28A42E9DB04460D46474A02EB850218
:1012600092ED000A444A02EB8402D2ED000A30EE0D
:10127000609A9FED420AB4EEC09AF1EE10FA09DDD1
:101280003D4A02EB840292ED000A78EE400A80EEBD
:10129000890A01E09FED370AF0EE408A00BF05EBB6
:1012A00045013348183000EB8100D0ED000A04EB13
:1012B00044012F48183000EB810090ED001A70EEC9
:1012C000C10AB0EE600A01F0BDF904EB4401284800
:1012D000183000EB8100D0ED000A48EE800AB0EE35
:1012E00060AAB0EE4A0A01F0ADF986ED000A05EBFE
:1012F00045011F48183000EB810090ED010A04EB16
:1013000044011B48183000EB8100D0ED010A70EE5B
:10131000600A04EB44011648183000EB810090EDA0
:10132000010A08EEA00A86ED010A05EB4501104806
:10133000183000EB810090ED020A04EB44010C48E8
:10134000183000EB8100D0ED020A70EE600A04EB69
:1013500044010748183000EB810090ED020A08EEC6
:10136000A00A86ED020A00BF3CE70000FC0E002048
:10137000FC0F00200000000014220020BD3786353D
:1013800070B52DED028B05460C462B48D0F8B00009
:1013900078B12948D0F8AC00281A00EE100AF8EE0F
:1013A000400A254890ED2C0AB8EE401A80EE810ADA
:1013B00001E0B7EE000AB0EE408AB7EE001ADFEDAA
:1013C0001F0AB0EE480AFFF7A7FCB0EE408A1A48A1
:1013D000D0ED350A90ED321A70EEC10AB0EE600A17
:1013E00001F030F91448D0ED320A48EE000AF0EE70
:1013F000608AB0EE680A01F025F984ED000A0E4813
:1014000090ED360AD0ED330A70EE600A90ED330AA3
:1014100008EE200A84ED010A90ED370AD0ED340A77
:1014200070EE600A90ED340A08EE200A84ED020A9C
:10143000BDEC028B70BD0000FC0E0020000000001F
:1014400070B52DED028B04460D46D5ED000A94EDE6
:10145000001A70EEC10AB0EE600A01F0F3F8B0EEC7
:10146000408A12F002FFF1EE040AB4EEE00AF1EE57
:1014700010FA25D8D5ED010A94ED011A70EEC10AD3
:10148000B0EE600A12F0F1FEF0EE000AB4EEE00AEF
:10149000F1EE10FA14D8D5ED020A94ED021A70EEAE
:1014A000C10AB0EE600A12F0E0FEF0EE000AB4EEFF
:1014B000E00AF1EE10FA03D80120BDEC028B70BDFA
:1014C0000020FAE710B52DED028B0446B0EE408AFD
:1014D000204601F09FF8F0EE408AF4EEC88AF1EE63
:1014E00010FA1DDD9FED100AF4EEC08AF1EE10FA3D
:1014F00016DDC8EE280AB0EE600AD4ED000A60EEF0
:10150000800AC4ED000AD4ED010A60EE800AC4ED41
:10151000010AD4ED020A60EE800AC4ED020A00BF9F
:10152000BDEC028B10BD0000BD3786351648007833
:10153000012800D100E00020014619B912480078C6
:10154000022801D1012000E0002001460E48C078A9
:10155000C0B10D480079A8B10B48407990B10A4854
:1015600040780C280ED169B10748807850B90648F8
:10157000C07938B10448007A20B10348407A08B1F4
:10158000012070470020FCE7C4C701201249D1EDBB
:10159000090A91ED061A30EEC11AD1ED060A40EEA5
:1015A000010AC0ED000AD1ED0A0A91ED071A30EEEA
:1015B000C11AD1ED070A40EE010AC0ED010AD1EDD2
:1015C0000B0A91ED081A30EEC11AD1ED080A40EE6F
:1015D000010AC0ED020A7047FC0E002070B52DED27
:1015E000048B04460D4695ED000AD4ED000A30EE5A
:1015F000600AB0EE409A95ED010AD4ED010A30EE92
:10160000600AB0EE408A95ED020AD4ED020A30EE8F
:10161000600AF0EE408A69EE090A48EE080A48EED0
:10162000A80AB0EE600A12F0EFF9BDEC048B70BDB1
:1016300010B52DED048BF0EE408AB7EE001ADFED09
:101640000F0AB0EE680AFFF767FBB0EE408A28EE9B
:10165000080AB0EE409A29EE080AF0EE409ABAEE77
:101660000E0AF1EE080A00EE880AF2EE040A48EECD
:10167000000A20EEA90ABDEC048B10BD000000009A
:1016800010B52DED028BF0EE408AB7EE001ADFEDBB
:101690000E0AB0EE680AFFF73FFBB0EE408A9FEDFE
:1016A0000B0A28EE000AF7EE000A70EEC80A60EE98
:1016B000200AB7EE000AB0EE001A01EE480A20EE4A
:1016C000800ABDEC028B10BD0000000000007042DB
:1016D00010B52DED048BB0EE409AB7EE001ADFED99
:1016E0000D0AB0EE490AFFF717FBB0EE408AB7EEDD
:1016F000000A30EE480AF0EE408AB3EE0E0A28EEF9
:10170000000A20EE080A20EE280A20EE280ABDEC86
:10171000048B10BD00000000064981F85400002130
:10172000044A82F8551082F856101146C96D491CBA
:10173000D1657047880E00200C4800210163416389
:101740008163C163016441646030018081706038ED
:1017500041668166C166064801828174A0F5807089
:10176000A0F8131180F815117047000094CA0120E9
:10177000FC0F002070B52DED048B84B005465C484D
:1017800040682C1A5A48C068A04201D85848C4681A
:101790005748C06858B1564890ED030AF8EE400A21
:1017A00000EE104AB8EE401A81EE200A01E0B7EED2
:1017B000000AF0EE408AB0EE680AFFF739FFB0EE9B
:1017C000408A4B48C07D02281FD14948007D28B17E
:1017D0004748D0F8A800281A022811D3B0EE480ACA
:1017E000284600F067FB58B94148007D40B94048A1
:1017F0004068401C3E49486004B0BDEC048B70BD9D
:1018000001A92846FFF7BCFD04E001A8B0EE480A94
:10181000FFF7D6FC01A805F09FFEA0B93448C07CB4
:1018200038B93448C06D401C3249C8650120304980
:10183000C87400202F4981F856002D484068401C8C
:101840002B494860D8E72A4890F88D00012806D136
:1018500001A800F009FBB0EE409A04F0F5FC00206E
:101860002349C8740120234981F85600084684663C
:1018700080ED188A01A90EC910300EC01C48C0683E
:10188000A04233D81A48008A401E86B206EB4602B0
:10189000194901EB820005F05FFE154890F88D00B4
:1018A00001280AD106EB4602134901EB820000F041
:1018B000DBFAB0EE409A04F0C7FC06EB46010E4896
:1018C00000EB81020B48D2E900139268C0E90532AF
:1018D0000161B7EE000A80ED180A00200449C1F842
:1018E000B8002946052000F06BFA00BF00BF83E76F
:1018F000FC0E0020880E00201410002070B52DED85
:10190000048B9EB004460D4600EE105AB8EE400A15
:10191000DFEDFA0A20EE200AB0EE408AF8480146D0
:10192000D1E91B32496FC0E91E32C0F880108038FF
:10193000D0F8B400201A64280CD90120F04980396D
:101940008875EF480021C166016741671EB0BDEC94
:10195000048B70BD0020EA4980398875B5EEC08AD5
:10196000F1EE10FA00D8F1E7E548803890ED1A0A58
:10197000D0ED0C0A30EE600A8DED0D0A90ED1B0AD9
:10198000D0ED0D0A30EE600A8DED0E0A90ED1C0AC6
:10199000D0ED0E0A30EE600A8DED0F0A0DA800F0B2
:1019A00039FEF0EE408AD6488038D0ED1E0AB0EEFF
:1019B000001A60EE810A60EEA80AB0EE600A12F02A
:1019C00023F8B0EE409ACE488038D0ED1D0AB0EE34
:1019D000600AF0EE490A11F02BFFF0EE409A0DA8D4
:1019E00007C80AAB07C3B0EE690A0AA800F0F8F905
:1019F0009DED0A0AC2488038D0ED3B0A30EE600AFD
:101A0000C0EE080ACDED070A9DED0B0AD0ED3C0AA9
:101A100030EE600AC0EE080ACDED080A9DED0C0A12
:101A2000D0ED3D0A30EE600AC0EE080ACDED090A9D
:101A3000D0ED1E0AB0EE600A07A8FFF743FD0020B4
:101A400014E0AF496C3101EB800191ED000A07A968
:101A500001EB8001D1ED000A00EE880AA8496C3143
:101A600001EB800181ED000A411CC8B20328E8D3D4
:101A7000A3488038D0ED1D0AB0EE600AEC30FFF7C5
:101A800021FD9F48803890ED3B0A20EE080A8DED3D
:101A9000040A90ED3C0A20EE080A8DED050A90ED4F
:101AA0003D0A20EE080A8DED060A9FED960AF4EE37
:101AB000C08AF1EE10FA18D99DED040ADDED0D0A89
:101AC00020EE200ADDED050A9DED0E1A00EE810ADA
:101AD000DDED060A9DED0F1A00EE810A68EEA80AF8
:101AE000B4EEE00AF1EE10FA0EDB854980390846C3
:101AF000D0E91A23006FC1E90C23886380480021D4
:101B0000C1660167416719E07D48803890ED0C0A95
:101B1000DDED040A30EE200A80ED0C0A90ED0D0A8E
:101B2000DDED050A30EE200A80ED0D0A90ED0E0A7B
:101B3000DDED060A30EE200A80ED0E0A704A803A8A
:101B4000303207CA13AB07C36D48803890F88C0059
:101B5000012817D110A913A804F08CF8B0B968486F
:101B60000021C166016741670020674981F856007E
:101B7000012081F8570081F858000846C06D401CCC
:101B8000C865E3E613A807C810AB07C35C488038F4
:101B9000D0F8A800201A02286CD30026202116A80D
:101BA000FEF754FD16AA5649543110A801F034FB33
:101BB00008B1012629E09DED1D0AF6EE000AB4EEFB
:101BC000E00AF1EE10FA01DD02261EE017A801F08E
:101BD000D3FD08B9032618E017A8FEF739FF08B9A6
:101BE000042612E04648803890F88C00012805D180
:101BF00017A800F087FA08B9042606E017A940489C
:101C00005430FFF71DFC00B9052696BB3C48014641
:101C1000D1E91523C96DC0E91223016517A90EC9C1
:101C200054300EC0E03813A90EC93C300EC04838FD
:101C300090F88C00012805D13148803813A90EC9CD
:101C400054300EC02E488038C0F8AC4002202C49D9
:101C50008039C1F8B0000846C0F8A84000202A49E1
:101C600081F85400012081F85600002081F85700C7
:101C70001CE000E01BE022480021C16601674167CB
:101C8000803803463C330ECB30300EC09DF85800F0
:101C90001D4981F85400002081F85600084680F85C
:101CA000576080F85860C06D401CC86500BF01A92E
:101CB0002046FFF765FB01A805F04EFC88B11248ED
:101CC00001A90EC910300EC00D48803890F88C0064
:101CD000012806D101A800F0C7F8B0EE409A04F040
:101CE000B3FA074880384068201A074988669FED94
:101CF000070A084680ED180A00BF27E66F12833AEC
:101D00007C0F0020CDCC4C3D880E00200000000050
:101D100070B504462748008A50B907202649487004
:101D2000002081F8560021460D2000F049F870BDD2
:101D30002048008A401E85B205EB45021F4901EB91
:101D4000820005F009FC20B900201A49C1F8B8004A
:101D50001EE0FFF7C5F9B8B11648D0F8B80010B9C1
:101D60001448C0F8B8401348D0F8B800201A7828B2
:101D70000ED3002010494870012081F856002146FA
:101D8000062000F01DF8D2E700200A49C1F8B8008B
:101D900008480068201AB0F5FA5F09D30720064901
:101DA0004870002081F8560021460D2000F008F808
:101DB00000BFBCE7FC0E0020880E0020141000209D
:101DC000054A1070054A1160052803D00022034B14
:101DD000C3F8B82070470000880E0020FC0E0020D9
:101DE00010B52DED028B0446B0EE408A204600F07F
:101DF00011FCF0EE408A9FED1A0AF4EEC08AF1EE73
:101E000010FA04D9B5EEC08AF1EE10FA0ED89FEDA3
:101E1000150A84ED000A9FED130A84ED010A9FED77
:101E2000110A84ED020ABDEC028B10BD88EE280A6F
:101E3000D4ED000A20EE200A84ED000A88EE280A7C
:101E4000D4ED010A20EE200A84ED010A88EE280A6A
:101E5000D4ED020A20EE200A84ED020A00BFE2E778
:101E6000BD3786350000000010B504467CB194ED06
:101E7000010A10EE101A084611F0B8F938B194EDC5
:101E8000020A10EE101A084611F0B0F910B99FEDD1
:101E9000070A10BD94ED010AD4ED020A9FED041A61
:101EA00071EE600A30EE200AF3E700000000C07F08
:101EB000000034C310B52DED028B8EB00446B0EE99
:101EC000408A0BA8B0EE480AFFF760FB454890F83F
:101ED0008D0001280CD10BA90BA803F0CBFE38B95B
:101EE0000420FFF719FC00200EB0BDEC028B10BDE2
:101EF0003C48007D88B13B488030D0E91512C06D68
:101F0000CDE900120290374880300146D1E915230F
:101F1000C96DC0E9122301650AE0334A103207CACD
:101F20008DE807002F4880309DE80E0048300EC035
:101F3000202103A8FEF78AFB03AA69460BA801F03B
:101F40006BF9F0B99DED0A0AF6EE000AB4EEE00A6C
:101F5000F1EE10FA15DC04A801F00EFC88B104A81B
:101F6000FEF776FD68B11F4890F88D00012803D177
:101F700004A800F0C7F820B104A96846FFF760FA8A
:101F800098B99DF80C00184981F85400002081F898
:101F900056001448C07C30B90846C06D401CC86566
:101FA00001201049C87400209EE70E48803004A923
:101FB0000EC954300EC0E038C0F8AC4002200949C8
:101FC000C1F8B0000846C0F8A840012008750020FC
:101FD000C874054981F85400012081F8560000BFFB
:101FE00082E70000FC0E0020880E00202DE9F0475B
:101FF0002DED028B04460E46B0EE408AF0EE608A6C
:10200000174698460A9D3B48008A401E1FFA80F9F1
:10201000384894E80E0024300EC0303890F88D0017
:1020200001280AD13348803094E80E0010300EC0E9
:102030000146204603F01EFE0AE02E48803094E858
:102040000E001C300EC0283894E80E0010300EC070
:102050002848C660456080ED2F8AC0ED308AC7757C
:1020600000202449C87408750846C0F8A850C0F874
:10207000AC500220C1F8B000002048758875214698
:102080001C481830FFF7AAFA1A4880ED310A1A4A9C
:1020900000F58070D0E90631006AC2E90431906130
:1020A00009EB4901154800EB810310460ECB1C30AB
:1020B0000EC0283894E80E0048300EC000200E49AB
:1020C00081F85400012081F8550081F856009FEDF9
:1020D0000C0A084680ED180A002088664870FFF751
:1020E0002BFB29464046FFF76BFEBDEC028BBDE89B
:1020F000F0870000FC0E0020880E00201410002045
:102100000000000010B52DED028B04462046FFF7BD
:10211000ABFEB0EE408AB0EE480A03F065FFF0EE89
:10212000408AB0EE680A03F08FFFBDEC028B10BD51
:1021300070B52DED048B84B005460E46FB4890ED3E
:10214000030AB8EE400ADFEDFA0A20EE200AB0EEEC
:10215000408AB5EEC08AF1EE10FA0CDDF54890ED3C
:102160001A0AF8EE400AF14890ED030AB8EE401A58
:1021700080EE810A01E0B7EE000AF0EE409AEE48E8
:10218000EE4BD3E907215B6AC0E901130260024606
:10219000E84B10330BCB0C320BC2E748E54B1C333A
:1021A0000ECB18300EC0E449E44BD3E91520DB6DAB
:1021B000C1E913038A640846E04B60330ECB543008
:1021C0000EC00024CFE094B9DA48103000EB840050
:1021D000D0ED000AD9481C3000EB840090ED001AC5
:1021E00070EEC10AB0EE600A00F02CFA0DE0D148A2
:1021F000103000EB840090ED000AD0481C3000EB5A
:102200008400D0ED000A30EE600AB0EE409A94B936
:10221000C8481C3000EB8400D0ED000AC7481C30D1
:1022200000EB840090ED001A70EEC10AB0EE600A77
:1022300000F008FA0DE0BF481C3000EB840090ED80
:10224000000ABE481C3000EB8400D0ED000A30EEDE
:10225000600AF0EE408AB848243000EB840080ED3C
:10226000009AB0EE490A12F000F8B348303000EBA3
:102270008400D0ED000AB4EEE00AF1EE10FA09DDB8
:10228000B0EE490A11F0F1FFAB48303000EB8400AA
:1022900080ED000AAA48005D98B9B0EE680A11F016
:1022A000E4FFDFEDA80AB4EEE00AF1EE10FA08DD73
:1022B000A3480C3800EB8400C0ED008A0121A0483F
:1022C00001559F48005D80B19D480C3800EB8400AB
:1022D00090ED000A20EE280AB5EEC00AF1EE10FAE1
:1022E00003D201219648C01C01559548C01C005DD1
:1022F000C0B1B0EE680A11F0B8FF8F483C3000EB77
:102300008400D0ED000AB4EEE00AF1EE10FA09DD27
:10231000B0EE680A11F0A9FF87483C3000EB84005A
:1023200080ED000AB0EE490A11F09FFFF1EE040AB9
:10233000B4EEE00AF1EE10FA0CDD01217E486030C7
:102340000155001D50F8240081197B48643040F885
:10235000241006E00021784860300155001D40F847
:102360002410601CC4B2032CFFF42DAF6F48407DD5
:10237000E8B300EE106AB8EE400ADFED6D0A20EE19
:10238000200AF0EE408A6948D0ED3B0A60EEA00AD0
:1023900090ED3C1AD0ED3C1A41EE210A90ED3D1A29
:1023A000D0ED3D1A41EE210AB0EE600A11F02CFB8F
:1023B000614880ED1C0A5D4890ED3B0AD0ED3E0A75
:1023C00030EE600A8DED010A90ED3C0AD0ED3F0A37
:1023D00030EE600A8DED020A90ED3D0AD0ED400A24
:1023E00030EE600A8DED030AF5EEC08A00E01FE0D2
:1023F000F1EE10FA16DDDDED010A60EEA00A9DEDAA
:10240000021ADDED021A41EE210A9DED031ADDEDFF
:10241000031A41EE210AB0EE600A11F0F5FAC0EE9F
:10242000280A01E0DFED480A4348C0ED1D0A31E00B
:10243000B5EEC08AF1EE10FA0BDDB0EE690AFFF7D7
:1024400047F93A48D0ED310A60EE200A80EE880A5A
:1024500001E09FED3D0A384880ED1C0AB5EEC08AC8
:10246000F1EE10FA11DDB0EE690AFFF709F9F0EEAE
:10247000408A11F0FAFE2D48D0ED310A60EE200AB4
:1024800028EE081A80EE810A01E09FED2F0A2A4803
:1024900080ED1D0A2748806E274988672348C06859
:1024A000C86724480078052803D120480068281A06
:1024B00000E000202049C1F880001E48007805286F
:1024C00008D11A48D0F8B80020B11848D0F8B800A0
:1024D000281A00E000201849C1F884004FF4FA508F
:1024E000C1F88800FEF7FCFD134981F890000F4801
:1024F000407D81F891000D48807D81F892000B4865
:10250000006EC1F894000948407D20B10748D0F81A
:10251000B400281A00E000200749C1F88C000846E2
:1025200004F0D0FC04B0BDEC048B70BDFC0E0020A8
:102530006F12833A880E002094CA0120C4C701207C
:102540000C1000200AD7233C0000000010B52E48D4
:102550002E4BD3E907215B6AC0E9021342600024D5
:1025600029E094B928481C3000EB8400D0ED000A23
:1025700026481C3000EB840090ED001A70EEC10A72
:10258000B0EE600A00F05EF80DE01F481C3000EB72
:10259000840090ED000A1D481C3000EB8400D0ED53
:1025A000000A30EE600A1848283000EB840080ED05
:1025B000000A601CC4B2032CD3D3134913488030E3
:1025C000D0E90A23006BC1E90F2348644831A1F127
:1025D0000C00FFF703F80C4880ED1C0A0B49B1F81A
:1025E00007208286497A80F83610373007494A89B1
:1025F0000280097B81700648C06803494866044828
:10260000008AA1F86C0010BD880E0020C4C701200C
:10261000FC0E002010B50446D4ED000A60EEA00ABE
:1026200094ED011AD4ED011A41EE210A94ED021A3B
:10263000D4ED021A41EE210AB0EE600A11F0E4F97D
:1026400010BD000005E0DFED0E0A70EE600AB0EE8E
:10265000600ADFED0C0AB4EEE00AF1EE10FAF2DCEB
:1026600005E0DFED070A70EE200AB0EE600ADFED4C
:10267000060AB4EEE00AF1EE10FAF2D37047000059
:102680000000B44300003443000034C370B52DEDA6
:10269000028B0546B0EE408A05EB85001C4901EB34
:1026A000C0049FED1C0AF0EE408A18EE100A10F0EC
:1026B0008BFD18B90020BDEC028B70BD94ED040AAF
:1026C00030EE680AB4EEC80AF1EE10FA0AD894EDBA
:1026D000050A30EE280AB4EEC80AF1EE10FA01DB62
:1026E0000120E8E794ED060A30EE680AB4EEC80A65
:1026F000F1EE10FA0AD894ED070A30EE280AB4EE8B
:10270000C80AF1EE10FA01DB0220D4E70320D2E779
:102710008CCC0120CDCC4C3E01460548C26C12B198
:10272000881A002801DD012070470020FCE7000026
:102730002CCD012010B504460CB9012010BD204657
:10274000FFF7EAFF58B108488069A04207D0064861
:10275000006AA04203D00448806AA04201D101204F
:10276000ECE70020EAE7000090CB01202DE9F041E2
:102770002DED028B0546B0EE408A0F464DB118EEA6
:10278000100A10F021FD20B1B5EEC08AF1EE10FA6A
:1027900004D80020BDEC028BBDE8F08100241FE0CE
:1027A00005EB840090ED000A10EE101A084610F0B8
:1027B0000BFD08B90020EDE705EB8400D0ED000A21
:1027C000B0EE600A2046FFF761FF064626B1032EF1
:1027D00002D01FB9012E01D00020DBE7601CC4B27B
:1027E000032CDDD3002411E005EB8400D0ED000ABA
:1027F000B0EE600A3A46F0EE480A2946204602F05A
:10280000FFFC08B90020C5E7601CC4B2032CEBD361
:102810000120BFE70146002903DD082901DC012072
:1028200070470020FCE7000070B500240AE004EBCC
:102830008400064951F8305015B1284607F093F846
:10284000601CC4B2032CF2D370BD00008CCC0120FC
:1028500010B52DED028BB0EE408A0D4890F82400A3
:1028600020B99FED0C0ABDEC028B10BD18EE100ACA
:1028700010F0AAFC10B99FED080AF4E79FED070AD3
:1028800038EE400AF7EE000A20EE200AEBE70000DF
:1028900004CD0120000000000000C07F0000344390
:1028A000F0EE400A9FED020A30EE600A7047000029
:1028B000000034C3F0EE400A9FED020A30EE600AD9
:1028C00070470000000034C310B50B2001F0B8F8C9
:1028D00010BD0000F0B52DED048B89B0044624B97D
:1028E000032009B0BDEC048BF0BD207E08B10420AC
:1028F000F7E7207920B12079012801D00320F0E703
:1029000094F82000D8B194ED090A10EE101A084688
:1029100010F05AFC88B194ED090ADFED5C0AB4EEC0
:10292000E00AF1EE10FA08D394ED090ADFED580A37
:10293000B4EEE00AF1EE10FA01DD0320D1E794F8DD
:10294000200010B194ED090A01E003F0EDF8F0EE7B
:10295000408A94ED021AF0EE410A94ED031AB0EEAB
:10296000410A10F00DFDDFED4B0A20EE208A4A48A7
:10297000007801280ED1484840780C280AD14648F2
:10298000807838B99FED450A02F03AFF10B903F09C
:1029900073FA08B90220A4E703F00EFF08B1012082
:1029A0009FE73D4890ED070AF0EE400AB0EE680A56
:1029B00003F058FB30B1F0EE480AB0EE680A03F0BD
:1029C00051FB08B906208CE7202101A8FDF73EFE47
:1029D000607978B92079012805D101A904F10800AE
:1029E00002F0BAFC04E001A904F1080002F032FB95
:1029F00005461FE094ED050AB5EEC00AF1EE10FAA7
:102A000002DD94ED050A01E09FED250AB0EE409A43
:102A10002079012806D1B0EE490A04F1080001F03E
:102A20009BFA05E0B0EE490A04F1080001F02AF92A
:102A3000054600BFDDB994F82000B0B1D4ED090A15
:102A4000B0EE600A03F0D2FB06461EB103F026FE8C
:102A5000304646E708F04CFB0746D4ED090AB0EED5
:102A6000600A3946206800F023FA002039E7012D7A
:102A700001D1012035E7022D01D1022031E7032DDC
:102A800001D103202DE706202BE700000000DCC267
:102A90000000DC42E02E6542C4C7012000008C42E9
:102AA00000002F4470B52DED028B044624B104F1D3
:102AB000080000F061FE18B90320BDEC028B70BD68
:102AC0002548007801280ED1234840780C280AD1E7
:102AD0002148807838B99FED210A02F091FE10B9A3
:102AE00003F0CAF908B90220E7E703F065FE08B170
:102AF0000120E2E703F018F8B0EE408A164890EDA6
:102B0000070AF0EE400AB0EE480A03F0ABFA40B113
:102B100094ED020AF0EE400AB0EE480A03F0A2FA81
:102B200008B90620C9E7207920B904F1080003F0AC
:102B3000D7FE03E004F1080003F05AFE05460DB984
:102B40000020BAE7012D01D10120B6E7022D01D105
:102B50000220B2E70620B0E7C4C7012000008C4283
:102B600010B52DED028B044634B194F8240018B151
:102B70000420BDEC028B10BD1A48007801280ED14C
:102B8000184840780C280AD11648807838B99FED4B
:102B9000160A02F035FE10B903F06EF908B90220EA
:102BA000E7E7C4B194ED021AF0EE410A94ED031A7E
:102BB000B0EE410A10F0E4FBDFED0C0A20EE200A33
:102BC000B0EE408A02F0B0FFF0EE408AF0EE480A24
:102BD00003F048FA08B90620CBE7204603F00EFFC1
:102BE000C7E70000C4C7012000008C42E02E654208
:102BF0002DE9F04104463248007801280DD13048D3
:102C000040780C2809D12E48807830B99FED2D0AE4
:102C100002F0F6FD08B9012000E00020054614B9D5
:102C20000320BDE8F0812078072845D2DFE800F0D6
:102C300045040C111B252F000DB90220F1E70120DE
:102C400003F08CFA0020ECE7002003F087FA002064
:102C5000E7E70DB90220E4E7D4ED010AB0EE600A1F
:102C600003F094FADDE70DB90220DAE7D4ED020AA9
:102C7000B0EE600A03F0A2FAD3E70DB90220D0E764
:102C8000D4ED020AB0EE600A03F0B0FAC9E7002002
:102C900003F064FA0A48D0ED300AB0EE600A03F09F
:102CA000D3FA06469FED080A03F0A0FA07460EB1D4
:102CB0003046B6E73846B4E700BF0320B1E700006E
:102CC000C4C7012000008C420000000010B52DEDAB
:102CD0000A8BF0EE409AB0EE608AB0EE41AA04464C
:102CE00014B9BDEC0A8B10BD9FED2D0A69EE80AAC8
:102CF0009FED2B0A28EE00BAB0EE4A0AFFF7DAFD84
:102D000030EE080ADFED260A60EE20BAB0EE4B0A7C
:102D100010F0C2FCDFED230A60EE20CAB0EE6B0AB1
:102D200010F0BAFCDFED1F0AB0EE6CCA00EE80CAEC
:102D30009FED1D0A7CEE008A9FED1B9AB0EE6A0A99
:102D400010F0AAFC60EE28CAB0EE6A0A10F094FDFA
:102D500049EE40CAC4ED00CAB0EE6A0A10F08CFD1C
:102D600060EE28CAB0EE6A0A10F096FC49EE00CA7E
:102D7000C4ED01CAB0EE4B0A10F07EFDDFED0BCAC8
:102D8000DFED080A40EE80CAB0EE6B0A10F074FD69
:102D9000DFED040A40EE80CAC4ED02CA00BFA0E71E
:102DA00035FA8E3C000082430000000000007842AB
:102DB00070B505460DB9002070BD00BFEFF310805F
:102DC000044672B6BC2204492846FDF7E3FB04B969
:102DD00062B60120F0E7000090CB012030B5094C2D
:102DE000A06284F82C1084F82D2084F82E30246AF8
:102DF000844206D10024034D2C6285F8244085F8D6
:102E0000254030BD90CB01202DE9F04104460D4610
:102E100017461E460CB9BDE8F0813A4629462046C1
:102E200000F024F80448846280F82C5080F82D705B
:102E300080F82E6000BFEEE790CB012010B504466D
:102E4000084890F8300028B1064A117910682246E7
:102E500000F00CF80020034981F830000249886135
:102E6000087710BD2CCD012090CB012010B500B902
:102E700010BD094B186383F8341083F835201B6AA2
:102E8000834206D10023044C236284F8243084F862
:102E9000253000BFECE7000090CB0120034B186207
:102EA00083F8241083F825207047000090CB012080
:102EB0000122054B83F850201A46506582ED170A0F
:102EC00001F516729A6570472CCD0120014608481D
:102ED00090F8500008B9002070470548806D081A26
:102EE00004D40020024A82F85000F5E70120F3E7FD
:102EF0002CCD01201FB59FEDAE0A8DED000AF42107
:102F0000AC48FDF7A3FB4FF4AE71AB48FDF79EFB59
:102F10008021AA48FDF79AFB9821A948FDF796FB66
:102F20006421A848FDF792FBBC21A748FDF78EFB62
:102F30004021A648FDF78AFB7821A548FDF786FBCE
:102F40002821A448FDF782FB6021A348FDF77EFB02
:102F500000209D4908719FED960A9D4880ED010A69
:102F60009FED930A80ED020AB7EE000A80ED030A96
:102F70009FED9A0A80ED040A9FED990A80ED050AFB
:102F80009FED980A80ED060A9FED970A80ED070AEB
:102F90009FED870A80ED0B0A9FED940A80ED0C0AE5
:102FA000B7EE000A80ED0D0A9FED910A80ED0E0A42
:102FB0009FED8E0A80ED0F0AB3EE040A80ED100A31
:102FC0009FED8C0A80ED110A9FED790A80ED150ABC
:102FD0009FED820A80ED160AB7EE000A80ED170A0F
:102FE0009FED850A80ED180A9FED840A80ED190A8D
:102FF0009FED830A80ED1A0ABBEE040A80ED1B0ADE
:1030000000200190029003907E48019002208DF8EC
:103010000D0000208DF80E000320ADF808001320ED
:10302000ADF80A0006208DF80C0001A806F02CFD72
:10303000674908600220ADF808001220ADF80A00C8
:1030400007208DF80C0001A806F01EFD604988627B
:103050000120ADF808001120ADF80A0006208DF817
:103060000C0001A806F010FD5949086508460068E3
:10307000D0B10846806AB8B10846006DA0B10846D4
:103080000068808E40F2031188420DD15048806A5A
:10309000808EB0F5817F07D14D48006D808E891EEE
:1030A000884201D1012000E000204249C8706846F2
:1030B00000F03CFC3F490871FF20887100204870F7
:1030C000087081F8F00008F013F8424908600846DB
:1030D00000684860084600680861002081F8230005
:1030E00081F82400012034490874002132484174D9
:1030F0008174C1740175022141759FED430A80ED11
:10310000060A9FED420A80ED070A9FED400A80ED16
:10311000080A9FED3F0A80ED090A9FED250A80ED20
:103120000A0A9FED2F0A80ED0B0A9FED210A80ED20
:103130000C0A9FED1F0A80ED0D0A9FED1D0A80ED20
:103140000E0A032180F83C1000210164416481646F
:10315000C164016500201D49087048700220487252
:103160000320C8729FED2B0A084680ED030A9FEDED
:10317000100A80ED040AB2EE040A80ED050A154833
:103180000068886305F0ACFE02F0FCFD03F0F0FA85
:103190000848C07810B10748007918B9012000F03C
:1031A0004FFC1FBD02200349087000BFF9E7000073
:1031B00000000000C4C70120B8C8012014CA0120C3
:1031C00094CA01202CCB012090CB01204CCC0120B3
:1031D0008CCC012004CD01202CCD01200000B4C2F4
:1031E0000000B4420000DCC20000DC4200003443B6
:1031F00000000C420000484300003EC300000CC227
:10320000000052C398C20120000070420000C07F3D
:1032100000004D4300007A432DE9F04F2DED108B57
:1032200083B005460E4614469FEDF00AB0EE40EA24
:103230004FF00009CA46CB462CB9032003B0BDECC1
:10324000108BBDE8F08F20212046FDF7FFF985B3F4
:103250007EB395ED000A10EE101A08460FF0BDFF80
:1032600038B395ED010A10EE101A08460FF0B5FFBD
:10327000F8B195ED020A10EE101A08460FF0ADFFF6
:10328000B8B196ED000A10EE101A08460FF0A5FF2F
:1032900078B196ED010A10EE101A08460FF09DFF66
:1032A00038B196ED020A10EE101A08460FF095FF9D
:1032B00018B9032020702078C0E7D5ED000A60EE31
:1032C000A00A95ED011AD5ED011A41EE210AB0EEE2
:1032D000600A10F099FBB0EE408A95ED020ADFED2E
:1032E000C40A70EE608A18EE100A0FF076FF20B163
:1032F00018EE900A0FF071FF18B90720207020789F
:103300009CE79FEDBC0A08EE080AB5EEC00AF1EE94
:1033100010FA03D20420207020788FE79FEDB30AC3
:1033200018EE080AF0EE400A9FEDB00A10F05CFAC1
:10333000B0EE409A10F068FBF0EE409A9FEDAD0AB7
:10334000B4EEC08AF1EE10FA0ADD95ED001AF0EE47
:10335000410A95ED011AB0EE410A10F011F805E0AE
:1033600096ED000ADFEDA40A20EE200AF0EE40DA26
:103370000027DAE09FED9F0AF4EEC09AF1EE10FA12
:1033800002D8012F00D1CEE017B9B0EE690A01E0F2
:10339000B1EE690AF0EE40BA9FED940A7BEEC0AA46
:1033A000F0EE6B0A9FED910A0FF0EAFF3DEEC00AC6
:1033B000DFED920A20EE200AB0EE40AA00F01CFBDE
:1033C000B0EE40CA2AEEAA0A08EEA80ADFED8C0A7F
:1033D00030EE600ADFED8A0A30EE600ADFED890A1E
:1033E00080EE209A19EE100A0FF0F7FE18B90720A8
:1033F0002070207822E79FED840AB4EEC09AF1EEA7
:1034000010FA06D39FED810AB4EEC09AF1EE10FADD
:1034100000DD88E04FF0010AB7EE001AFFEE000A67
:10342000B0EE490A00F06CFAB0EE409A4FF0000896
:1034300075E0B0EE490A0FF017FFB0EE40BAB8F1F0
:10344000000F03D0B1EE4B0AB0EE40BAF0EE6A0ABC
:10345000B0EE680A0FF094FFF0EE40FAB0EE4B0ABF
:1034600010F01AF9DFED6A0A9FED691A41EE000AC1
:10347000F0EE60EAB0EE4B0A10F0FEF9DFED640A00
:1034800020EE200AB0EE40FAF0EE6E0A0FF078FF60
:103490007FEEC0CA9FED590A2BEE00DA8DED00CA0F
:1034A0009FED560A2CEE800A8DED010AB0EE4D0A12
:1034B000FFF7F6F98DED020A684600F05DF900B9F4
:1034C00029E04FF0010B6846FDF7C2FA00B922E08F
:1034D0006078401C60703146684600F0C1F9B0EE7B
:1034E00040AA1AEE100A0FF078FE18B907202070D3
:1034F0002078A3E6B9F1000F04D0B4EECEAAF1EE25
:1035000010FA07D24FF00109B0EE4AEA9DE8070031
:10351000231D07C300BF08F1010000F0FF08B8F148
:10352000020F86D300BF781CC7B2022FFFF422AF70
:10353000B9F1000F0FD1BBF1000F02D006202070AF
:1035400007E0BAF1000F02D00520207001E004204E
:103550002070207872E6D4ED031AB0EE611AD4ED33
:10356000021AF0EE610AD4ED011AB0EE610A04F11C
:103570001000FFF7ABFBD4ED040A95ED001A70EED6
:10358000C10A60EEA00A94ED051AD5ED011A31EEDC
:10359000611AD4ED051A95ED012A71EEC21A41EEB9
:1035A000210A94ED061AD5ED021A31EE611AD4ED16
:1035B000061A95ED022A71EEC21A41EE210AB0EE0A
:1035C000600A10F021FA84ED070A94ED070A10EE64
:1035D000101A08460FF001FE18B907202070207855
:1035E0002CE600202070207828E600000000000073
:1035F0000000784217B7D13835FA8E3CE02E65428C
:103600000008844700080448470380BF4703803F01
:103610000000824370B52DED028B0546B0EE408A66
:103620002846FDF763FA20B118EE100A0FF0CCFD22
:1036300020B99FED150ABDEC028B70BD05EB85002E
:10364000124901EBC004D4ED030AB0EE600AFDF7A5
:1036500049F9F6EE000AB4EEE00AF1EE10FA02D2F1
:103660009FED090AE7E794ED020A38EE400ADFED24
:10367000080A20EE200AD4ED030A80EE201A94ED09
:10368000010A31EE000AD6E70000C07F8CCC012091
:1036900035FA8E3C70B52DED028B0546F0EE408A72
:1036A0000C46022D07D0B0EE680A2846FFF7B2FF9D
:1036B000BDEC028B70BD54B194ED010A10EE101AEE
:1036C00008460FF081FD10B194ED018A1BE012480D
:1036D00090ED130A10EE101A08460FF075FD18B1A0
:1036E0000D4890ED138A0EE00B4890ED120A10EE93
:1036F000101A08460FF068FD18B1074890ED128ABD
:1037000001E09FED068AF0EE480AB0EE680A28460E
:1037100000F006F8CCE700008CCC01200000344318
:1037200010B52DED048B0446B0EE408AF0EE608AB1
:10373000022C19D1B0EE680AFFF78AF8B0EE409A71
:1037400018EE100A0FF040FD20B119EE100A0FF02C
:103750003BFD20B99FED070ABDEC048B10BD38EE90
:10376000490AB0EE408A00BFB0EE480A2046FFF793
:1037700051FFF1E70000C07F10B50446BCB194EDE5
:10378000000A10EE101A08460FF027FD78B194EDEC
:10379000010A10EE101A08460FF01FFD38B194ED23
:1037A000020A10EE101A08460FF017FD08B90020A3
:1037B00010BD94ED000ADFED1C0AB4EEE00AF1EE54
:1037C00010FA2EDB94ED000ADFED180AB4EEE00AE1
:1037D000F1EE10FA25D894ED010ADFED150AB4EEEA
:1037E000E00AF1EE10FA1CDB94ED010ADFED110A9C
:1037F000B4EEE00AF1EE10FA13D894ED020ADFED10
:103800000E0AB4EEE00AF1EE10FA0ADB94ED020AB9
:10381000DFED0A0AB4EEE00AF1EE10FA01D8012059
:10382000C6E70020C4E700006666B4C26666B4421C
:1038300033330B423333344333333EC333330BC25E
:1038400010B52DED028BB0EE408AF0EE608A78EE76
:10385000680AB0EE600A00F0CFF8BDEC028B10BD34
:1038600070B52DED068B04460D469FED200AB0EE97
:10387000409A9FED1F0AF0EE409A9FED1E0AB4EEAB
:10388000C09AF1EE10FA06D99FED1A0AF4EEC09A2A
:10389000F1EE10FA04D89FED180ABDEC068B70BD4E
:1038A00095ED001AF0EE410A94ED001AB0EE410ACF
:1038B000FFF7C6FFDFED110A80EE20AA94ED010AA2
:1038C000D5ED010A30EE600A80EE098A94ED020A15
:1038D000D5ED020A30EE600AC0EE298A2AEE0A0A05
:1038E00008EE080A08EEA80AD7E700000000114316
:1038F00000001B4317B7D1380000807F0000B4439D
:10390000F0EE401AF4EEE01AF1EE10FA02D2B0EE48
:10391000600A7047F4EEC11AF1EE10FA02DDB0EE63
:10392000410AF6E7B0EE610AF3E7000010B52DEDAD
:10393000028B86B0044603A89FED291ADFED290A01
:103940009FED290AFFF7C2F99FED280A8DED000AC5
:103950009FED250A8DED010A9FED250A8DED020AE6
:10396000DDED030A9DED001A70EEC10A60EEA00ABB
:103970009DED041ADDED011A31EE611ADDED041A38
:103980009DED012A71EEC21A41EE210A9DED051A44
:10399000DDED021A31EE611ADDED051A9DED022A08
:1039A00071EEC21A41EE210AB0EE600A10F02CF856
:1039B000B0EE408A0CB184ED008A18EE100A0FF0C8
:1039C0000CFC58B19FED0B0AB4EEC08AF1EE10FA70
:1039D00004D8012006B0BDEC028B10BD0020F9E731
:1039E0000000B4C20000B4420000000000008243A6
:1039F0000000A1430AD7233C05E0DFED0E0A70EE7C
:103A0000600AB0EE600ADFED0C0AB4EEE00AF1EEF7
:103A100010FAF2DC05E0DFED070A70EE200AB0EEE6
:103A2000600ADFED060AB4EEE00AF1EE10FAF2D316
:103A3000704700000000B44300003443000034C36A
:103A400010B5044604B901241848807808B10B2C3D
:103A500001D1164884700B2C01D1052000E0042010
:103A6000124908700B2C01D10E2000E00D200F49E7
:103A700048700820FCF71EFFFDF766F800200C498F
:103A800081F8240002F026FC01F07CFFFEF7CCFE5A
:103A90000120074981F821000B2C02D00548C0798C
:103AA00010B1002002F05AFB10BD0000C4C7012075
:103AB00004CD01201428002010B52DED028B044602
:103AC000F0EE408A0F4890ED130AB0EE408A012CC8
:103AD00007D1B0EE680A204600F018F8BDEC028B62
:103AE00010BD18EE100A0FF06FFB18B99FED060A13
:103AF000B0EE408AF0EE480AB0EE680A204600F0C8
:103B000033F8EBE78CCC01200000344370B52DED89
:103B1000028B0546B0EE408A2846FCF7E7FF20B14D
:103B200018EE100A0FF050FB20B99FED0C0ABDEC07
:103B3000028B70BD05EB8500094901EBC00494EDD3
:103B4000030AD4ED010A78EE600A60EE200A94EDD3
:103B5000020A9FED041A00EE810AE8E70000C07F28
:103B60008CCC0120E02E654210B52DED048B04466F
:103B7000F0EE409AF0EE608AB0EE690A2046FFF758
:103B8000C5FFB0EE408A022C19D1B0EE680AFEF7EC
:103B90005FFEB0EE409A18EE100A0FF015FB20B150
:103BA00019EE100A0FF010FB20B99FED060ABDECCC
:103BB000048B10BD38EE090AB0EE408A00BFB0EEAB
:103BC000480AF4E70000C07F10B52DED028B0446D3
:103BD000B0EE408A2046FCF789FF20B118EE100AAB
:103BE0000FF0F2FA20B99FED220ABDEC028B10BD56
:103BF000022C2FD11F4890F8240050B31E48806A31
:103C000020B11D48806AD0ED020A01E0DFED1B0AF9
:103C1000B0EE600A0120FFF7D7FFF0EE408A18EE01
:103C2000900A0FF0D1FA10B99FED110ADDE704EB0D
:103C30008400114901EBC00090ED030A20EE080A50
:103C4000DFED0F0A20EE200AF7EE000A00EEA80AC8
:103C5000CBE700BF04EB8400074901EBC00090ED07
:103C6000030A20EE080ADFED060A20EE200ABCE770
:103C70000000C07F04CD01208CCC0120000000009A
:103C8000E02E65422DE9F0412DED048B92B0044603
:103C9000B0EE408A07F02CFA074620210AA8FCF76C
:103CA000D5FC03208DF82800A448007802280BD00A
:103CB000A2480078042807D0A0480078032803D041
:103CC0009E480078052805D1012012B0BDEC048B78
:103CD000BDE8F08154B394ED000A10EE101A0846C6
:103CE0000FF084FA10B394ED010A10EE101A084692
:103CF0000FF07CFAD0B194ED020A10EE101A0846CB
:103D00000FF074FA90B118EE100A0FF06FFA68B164
:103D1000B7EE000AB4EEC08AF1EE10FA06D39FEDBA
:103D2000880AB4EEC08AF1EE10FA05DD9DF828008D
:103D3000FDF7F2FC0320C8E7FDF7F8FB28B99DF872
:103D40002800FDF7E9FC0220BFE77E4890ED070A56
:103D50008DED040A90ED080A8DED050A90ED090A33
:103D60008DED060A04A8FFF707FD18B104A8FCF7BB
:103D70006FFE20B90620FDF7CFFC0420A5E7DDED9E
:103D8000061AB0EE611ADDED051AF0EE610ADDEDFE
:103D9000041AB0EE610A6C48FEF798FF21466A48A3
:103DA000FDF71CFCF0EE408A18EE900A0FF01EFAA8
:103DB00020B90720FDF7B0FC032086E79FED630ADA
:103DC000F4EEC08AF1EE10FA04D80021204601F08A
:103DD00041F97AE7B7EE000AC8EE800AB0EE609AC1
:103DE000B0EE490A0FF022FCBCEEC00A10EE100A39
:103DF000401C85B2022D02D3B5F5C07F04D9032043
:103E0000FDF78AFC042060E74F481838058200203F
:103E10004D49183981F88D0001F5807004A90EC94B
:103E200018300EC004A807C801AB07C3012662E022
:103E3000681E00EE100AF8EE400A00EE106AB8EEB6
:103E4000400A80EE201AB0EE419A94ED000A3E48F6
:103E50001838D0ED060A70EE600A90ED060A09EEF9
:103E6000200A8DED070A94ED010AD0ED070A70EEE5
:103E7000600A90ED070A09EE200A8DED080A94ED1C
:103E8000020AD0ED080A70EE600A90ED080A09EE09
:103E9000200A8DED090A0AAA01A907A8FFF7BCF9B3
:103EA000A8B99DED110AF6EE000AB4EEE00AF1EEB3
:103EB00010FA0CDC0BA8FFF75FFC40B10BA8FCF775
:103EC000C7FD20B10BA901A8FDF7BAFA28B99DF8E2
:103ED0002800FDF721FC0420F7E606EB46011C480C
:103EE00000EB81000BA90EC90EC00BA807C801ABDF
:103EF00007C3701C86B2AE429ADB28469FED151AA6
:103F0000F0EE480AB0EE680AFCF71CFF804601A8F4
:103F1000FCF7F4FD20B90320FDF7FEFB0220D4E6F8
:103F200004230222DFED0B0AB0EE480A4146204688
:103F30000097FEF75BF80020C7E60000880E00201F
:103F400000002F44C4C70120140F00200AD7233CCF
:103F50001410002000409C452DE9F0412DED048B0C
:103F60009CB00446B0EE408A07F0C2F80746202114
:103F700014A8FCF76BFB03208DF85000B3480078C1
:103F800002280BD0B1480078042807D0AF48007849
:103F9000032803D0AD480078052805D101201CB0C6
:103FA000BDEC048BBDE8F08154B394ED000A10EE33
:103FB000101A08460FF01AF910B394ED010A10EE2A
:103FC000101A08460FF012F9D0B194ED020A10EE63
:103FD000101A08460FF00AF990B118EE100A0FF007
:103FE00005F968B1B7EE000AB4EEC08AF1EE10FA36
:103FF00006D39FED970AB4EEC08AF1EE10FA05DD04
:104000009DF85000FDF788FB0320C8E7FDF78EFA06
:1040100028B99DF85000FDF77FFB0220BFE708A9F3
:10402000204601F027FE20B90420FDF775FB04208F
:10403000B5E7884890ED070A8DED050A90ED080A6E
:104040008DED060A90ED090A8DED070A05A8FFF728
:1040500093FB98B105A8FCF7FBFC78B105A8FEF727
:1040600051F858B1DDED050AB0EE600A11A9DFED97
:104070007A0A7848A83001F061FD20B90620FDF7E2
:104080004BFB04208BE7214611A8FDF7A7FAF0EEC1
:10409000408A18EE900A0FF0A9F820B90720FDF722
:1040A0003BFB03207BE79FED6D0AF4EEC08AF1EE47
:1040B00010FA04D80021204601F04EF96FE7B7EE60
:1040C000000AC8EE800AB0EE609AB0EE490A0FF01E
:1040D000ADFABCEEC00A10EE100A401C85B2022DEB
:1040E00002D3B5F5C07F04D90320FDF715FB0420EA
:1040F00055E75B4805820120594981F88D0001F19F
:10410000800094E80E0010300EC01C3808A90EC9BB
:104110001C300EC0A83811A90EC918300EC0DC30F2
:1041200005A90EC918300EC005A807C802AB07C301
:10413000012669E0681E00EE100AF8EE400A00EE63
:10414000106AB8EE400A80EE201AB0EE419A94ED63
:10415000000ADDED110A70EE600A9DED110A09EE0C
:10416000200A8DED0E0A94ED010ADDED120A70EEC3
:10417000600A9DED120A09EE200A8DED0F0A94EDFA
:10418000020ADDED130A70EE600A9DED130A09EED6
:10419000200A8DED100A0BA90EA801F06BFDF8B1F5
:1041A00014AA02A90BA8FFF737F8C8B99DED1B0A9E
:1041B000F6EE000AB4EEE00AF1EE10FA10DC15A8F3
:1041C000FFF7DAFA60B115A8FCF742FC40B115A878
:1041D000FDF798FF20B115A902A8FDF731F928B91C
:1041E0009DF85000FDF798FA0420D8E606EB46014A
:1041F0001C4800EB810015A90EC90EC015A807C800
:1042000002AB07C3701C86B2AE4293DB28469FED1B
:10421000161AF0EE480AB0EE680AFCF793FD8046E5
:1042200002A8FCF76BFC20B90320FDF775FA022009
:10423000B5E604230122DFED0C0AB0EE480A414640
:1042400020460097FDF7D2FE0020A8E6880E002049
:1042500000002F44C4C70120000000000AD7233CFF
:10426000FC0E00201410002000409C4570B52DED80
:10427000028B05460E462DB9002036498860BDECFC
:10428000028B70BD002455E005EB840090ED000A20
:1042900010EE101A08460EF097FF60B104EB840090
:1042A0002D4A02EBC00090ED090A10EE101A0846E4
:1042B0000EF08AFF18B9002026498860DFE705EB79
:1042C000840090ED000A04EB8400234901EBC00058
:1042D000D0ED090A70EE608A04EB840051F83000DA
:1042E000D0ED020AB0EE600A2046FFF76DFCB0EE9A
:1042F000408A18EE100A0EF067FFA8B1B0EE680A07
:10430000FCF7F0FAF0EE000AB4EEE00AF1EE10FA73
:104310000ADCB0EE480AFCF7E5FAF1EE040AB4EE66
:10432000E00AF1EE10FA03DD00200A498860A6E7F2
:10433000601CC4B2032CA7D30648806808B905489E
:10434000866004488068301A782801D3012096E7F7
:10435000002094E704CD01208CCC0120094890F87E
:10436000330058B9074890F8310038B9054890F83B
:10437000320018B9034890F8340008B101207047A2
:104380000020FCE72CCD0120FEB50546774C2078B7
:1043900068B9607808B101F05FF900206070A07022
:1043A000022060710020724981F82300FEBD704830
:1043B00090F82300D8B901206D4981F82300084600
:1043C0000561012060700020A070E0702071022063
:1043D00060719FED680A84ED030A9FED660A84ED23
:1043E000040A0020E063206C401C2064DEE706F035
:1043F0007FFE0646FCF784FA28B1FCF7C5FA10B137
:10440000FCF7A8FA20B90720607002206071CDE7A0
:1044100094ED020A10EE101A08460EF0D5FE30B1E7
:1044200094ED020AB5EEC00AF1EE10FA04D80720A6
:10443000607003206071B9E74D480069281AE06395
:104440006078082875D2DFE800F08804125275768B
:104450007B820120607146480069281AB0F57A7F96
:1044600000D27FE00020E070022060707AE04248D5
:1044700090ED090A8DED000A90ED130A8DED010A09
:1044800090ED1D0A8DED020A04F12C0304F12002C7
:10449000191D684600F066FD20B9072060700620EF
:1044A00060715FE0D4ED020AB0EE600A002104F111
:1044B0003000FEF75BF920B90720607006206071BC
:1044C00050E02B480561002029498860A070012038
:1044D000E0709FED280A84ED030A9FED260A84ED23
:1044E000040A0020E0636071032060703AE0234812
:1044F000D0ED300AB0EE600A01F0A6FE294604F1C4
:104500003000FFF7B3FE40B10020A0700120207101
:10451000002060710620607024E015480069281AA8
:1045200046F2A811884203D3072060700220607110
:1045300018E011E000BF072060700620607111E0F4
:104540000020A07001202071002060710AE002F0BC
:10455000A5F801F081F805E000BF0020044981F8CA
:10456000230000BF00BF00BF20E70000C8C8012033
:1045700004CD01200000C07F8CCC0120C4C70120E5
:1045800070B50546F748806B281AF649C863084697
:1045900000780D2879D2DFE800F00716406989CD50
:1045A000F9F8F7F6F5F4F300284600F085FBEE483D
:1045B00040780C2806D10120EC4981F824002946D6
:1045C00000F03EFD0DE2284602F0FCFBE848407C8E
:1045D000062802D02846FFF7D7FEE348D0ED300A80
:1045E000B0EE600A01F030FEE148407C072807D1B8
:1045F0000420DC49487229460C2000F021FD0BE024
:10460000DB48407C062807D10120D84981F82400E6
:104610002946022000F014FDE3E1D348D0ED300A32
:10462000B0EE600A01F010FE01F026FC60B101F06E
:1046300081FA90F8200038B902F01EF820B129461E
:10464000032000F0FDFC10E001F074FA80780728E8
:1046500004D0C448C06BB0F5FA5F06D30220C1494C
:10466000487229460C2000F0EBFCBAE12846FCF722
:1046700047F928B1FCF788F910B1FCF76BF928B9B4
:1046800029460C2000F0DCFCABE196E1B548C06B9C
:10469000B0F5FA7F09D3B349497809B1042100E0A4
:1046A0000B210846294600F0CBFC9AE1AD491831B0
:1046B000A1F10C0001F0DEFA40B90420A9494872CA
:1046C000C87229460C2000F0BBFC8AE19FEDA90AC4
:1046D000A4480C30FFF740FC0446A2484472A648A8
:1046E00090F854009F49C87224B129460C2000F06C
:1046F000A7FC76E19B48A04B1C330ECB24300EC0A8
:104700003038D0ED0A0A90ED0B1ADFED9C1A31EE2D
:10471000C11A70EE810AB0EE600A01F065FC9148A2
:1047200080ED0C0A01208F4988702946052000F091
:1047300087FC56E1284602F045FB02F03DF830BB0D
:104740008D480078062822D18B4890ED180AF7EEA4
:10475000000AB4EEE00AF1EE10FA18DB01F0EAF913
:1047600090F8200098B901207E49C8700020487256
:10477000012001F0F3FC2946062000F061FC15E061
:104780001CE111E1D9E0ACE06FE04CE00FE07548CE
:10479000C06B46F2A811884208D301F07FFF0220C7
:1047A0007049487229460C2000F04AFC19E128465D
:1047B00002F008FB2846FCF7A3F828B1FCF7E4F860
:1047C00010B1FCF7C7F850B9002001F0C7FC022077
:1047D0006449487229460C2000F032FC01E19FED4B
:1047E000680A604880ED0D0A9FED650A01F0E6FC5D
:1047F0005C4988720846807A30B9012048712946A0
:10480000072000F01DFC0DE05648807A012809D0F1
:10481000002001F0A3FC02205249487229460C20D6
:1048200000F00EFCDDE0284602F0CCFA2846FCF74A
:1048300067F828B1FCF7A8F810B1FCF78BF850B96D
:10484000002001F08BFC02204649487229460C20CA
:1048500000F0F6FBC5E04348C06BB0F5167F03D30C
:104860002946082000F0ECFBBBE0284602F0AAFA3B
:104870002846FCF745F828B1FCF786F810B1FCF79C
:1048800069F850B9002001F069FC022035494872EE
:1048900029460C2000F0D4FBA3E09FED3A0A3148F2
:1048A00080ED0D0A9FED370A01F088FC2D498872D2
:1048B0000846807A30B9022048712946092000F064
:1048C000BFFB0DE02748807A012809D0002001F0C5
:1048D00045FC02202349487229460C2000F0B0FB19
:1048E0007FE0284602F06EFA2846FCF709F828B166
:1048F000FCF74AF810B1FCF72DF850B9002001F090
:104900002DFC02201749487229460C2000F098FB24
:1049100067E01448C06BB0F5167F0DD3002001F09E
:104920001DFC01200F49887108710020C8710872B0
:1049300029460A2000F084FB53E0284602F042FAA0
:104940000848C07968B901200649C871FCF7FAF82F
:1049500038B901200349087229460B2000F070FB8A
:104960003FE011E04CCC0120C4C7012004CD012060
:10497000B8C8012000007A43880E0020000034C32C
:1049800000000743000034421748C06B40F6B831BE
:10499000884208D3FCF7D8F8012013490872294649
:1049A0000B2000F04DFB1CE00120104908700C208A
:1049B0004870284602F006FA13E000BFFCF7C4F87E
:1049C00001F088FC00F0DEFF002001F0C7FB01F0E1
:1049D00065FE0420054908700D204870FF2088718D
:1049E00000BF00BF70BD00004CCC0120C4C7012037
:1049F00070B598B00646AD4890F83300002831D025
:104A0000AA48056C0020A94981F8330081F83100DB
:104A100081F8320081F834008864084690F830004C
:104A200030B10A461179022310680622FEF7ECF92C
:104A30000620FEF703FA9E4A92F824100223106A19
:104A40000622FEF7E1F9022207212846FEF726FAA0
:104A5000FDF73AFF0023032207212846FEF7BEF99F
:104A600018B070BD914890F8310020B38F48856B25
:104A700000208E4981F83100084690F8300030B1AE
:104A80000A461179002310680522FEF7BDF90520BA
:104A9000FEF7D4F9864A92F824100023106A052202
:104AA000FEF7B2F9FCF752F800230322062128464C
:104AB000FEF794F9D4E77D4890F83200D8B17B48EE
:104AC000C56B0020794981F83200794890F82400BC
:104AD000032807D1764A92F824100023106A052291
:104AE000FEF77CF900F0E2FC0023032205212846B2
:104AF000FEF774F9B4E76D4890F8340058B36B488A
:104B0000456C0020694981F83400084690F830006F
:104B100030B10A461179022310680622FEF774F9B3
:104B20000620FEF78BF9624A92F824100223106ADD
:104B30000622FEF769F9022208212846FEF7AEF99F
:104B400000F0FAF95B48D0F8E8005849886430462C
:104B500000F04CF984E7554890F8300000B97FE741
:104B6000302252490CA8FBF715FD00204F4981F86F
:104B700030004F49886108779DF83400012810D132
:104B80000C9807909DF838008DF82000DDE90F1291
:104B90001198CDE909120B9007A8FDF783FF044691
:104BA00063E09DF83400022828D10C9802909DF80B
:104BB00038008DF80C000CA8407A8DF80D00DDE966
:104BC0000F121198CDE9041206909DED120A8DED99
:104BD000070A0CA8007F8DF820009DED140A8DEDCA
:104BE000090A9DF854008DF828009DED160A8DEDF8
:104BF0000B0A02A8FDF76EFE044636E09DF834006D
:104C0000032828D10C9801909DF838008DF80800F1
:104C1000DDE90F121198CDE9031205909DED120AFE
:104C20008DED060A9DED130A8DED070A9DF85000E3
:104C30008DF820009DED150A8DED090A9DF85800AC
:104C40008DF828009DED170A8DED0B0A01A8FDF7E0
:104C500087FF044609E09DF83400042804D10EA81B
:104C6000FDF7C6FF044600E00424B4B99DF8340003
:104C7000032803D09DF83400042807D19DF8341090
:104C8000002303220C98FEF7A9F80DE09DF83410DC
:104C900002220C98FEF702F906E09DF83410234634
:104CA00004220C98FEF79AF800BFD9E62CCD01201B
:104CB00090CB0120C4C7012070B505464748407815
:104CC000022821D003DC38B1012873D110E0032879
:104CD00030D00C287BD164E041480068281AB0F538
:104CE0007A7F00D278E02946012000F017FB73E0BC
:104CF0003B484068281AB0F5967F00D26CE0294600
:104D0000022000F00BFB67E000240CE004EB8401C0
:104D1000344A52F8310004F039FE10B10121324812
:104D20000155601CC4B2032CF0D32946032000F0C7
:104D3000F5FA51E02A484068281A642812D3284816
:104D4000456000240CE004EB8401264A52F831004F
:104D500004F01CFE10B1012123480155601CC4B2AF
:104D6000032CF0D32846FBF7CBFDC8B100F074FC50
:104D700000B931E0002408E004EB8401194A52F83C
:104D8000310004F022FE601CC4B2032CF4D30220D4
:104D900012490870FF20887129460C2000F0BEFAE5
:104DA0001AE00F484068281A64280FD30C48456061
:104DB000002409E00BE004EB84010A4A52F83100B8
:104DC00004F003FE601CC4B2032CF4D304E02946B3
:104DD000002000F0A3FA00BF00BF70BDC4C70120CF
:104DE00004CD01208CCC0120BFC801202DE9F04763
:104DF00007464B48D0F8EC50D0F8E8804948D0F846
:104E0000549002264648D0F8EC00484500D04D4664
:104E10004348D0F8EC00404500D045464048D0F823
:104E2000EC00A84201D1BDE8F0873D48C0F8E85049
:104E30003C4845653A48807808B903262DE0384655
:104E4000FBF75EFD08B9042627E09FED370A00F066
:104E5000D7FC08B1052620E0FBF7B0FD08B1062617
:104E60001BE0002416E004EB8400304901EBC00095
:104E7000D0ED090AB0EE600A2046FDF707FC824635
:104E8000BAF1000F02D0BAF1030F01D1072603E0F7
:104E9000601CC4B2032CE6D300BF214880F8F06048
:104EA000C0F8EC501F48856580F85C60022E00D089
:104EB000B9E7FDF7B9FC00201D4981F82400002462
:104EC00018E004EB8401194A52F8310004F0E7FBC2
:104ED00038B90820124981F8F000124981F85C00C5
:104EE000A1E704EB8401114A52F8310004F04DFEB1
:104EF000601CC4B2032CE4D300200949887001204F
:104F00000B4981F82200002081F821003946012058
:104F100000F004FA00200249087000BF83E7000097
:104F2000C4C70120B8C8012000008C428CCC0120ED
:104F300004CD0120704700000848D0F8E800401C6C
:104F40000649C1F8E800012081F8F0000846D0F8D1
:104F5000E80003494865012070470000C4C70120EC
:104F6000B8C80120F0B52DED028B8BB006460F4678
:104F700015461C462F4AD2E900109268CDE9090275
:104F8000089116B10FB105B124B900200BB0BDECEA
:104F9000028BF0BD20216846FBF758FB03202070F0
:104FA000294608A800F066FE18B9042020700020E9
:104FB000ECE76A4631462846FEF72EF92070207845
:104FC00080B99DED070AF6EE000AB4EEE00AF1EEB4
:104FD00010FA07DC01A8FEF7CFFB18B101A8FBF718
:104FE00037FD08B90020D1E79DED020ADDED030A87
:104FF0009FED111A71EE600A30EE208AB0EE480A79
:1050000000F0F2FFF0EE408A01F01EF840B19DED95
:10501000010AF0EE400A9FED090A01F023F818B9E1
:10502000062020700020B1E701A807C887E8070024
:105030000120ABE7F05F0108000034C3000000006E
:10504000034A107091630022014BDA63704700003D
:105050004CCC012070B58CB004460D46202104A82C
:10506000FBF7F4FA03208DF81000BCB194ED000AB0
:1050700010EE101A08460EF0B9F878B194ED010A56
:1050800010EE101A08460EF0B1F838B194ED020A8D
:1050900010EE101A08460EF0A9F860B99DF810003D
:1050A000FCF73AFB25B1202204A92846FBF772FA47
:1050B00003200CB070BDFCF739FA58B99DF8100008
:1050C000FCF72AFB25B1202204A92846FBF762FA47
:1050D0000220EEE7474890ED070A8DED010A90EDBA
:1050E000080A8DED020A90ED090A8DED030A04AA63
:1050F00001A92046FEF790F880B99DED0B0AF6EE67
:10510000000AB4EEE00AF1EE10FA07DC05A8FEF79B
:1051100033FB18B105A8FBF79BFC58B99DF81000AC
:10512000FCF7FAFA25B1202204A92846FBF732FA47
:105130000420BEE705A802F00FFA58B99DF8100048
:10514000FCF7EAFA25B1202204A92846FBF722FA47
:105150000220AEE70020284981F88D0001F180008F
:1051600094E80E001C300EC0283894E80E00103071
:105170000EC001202049088201F5807005A90EC9E2
:1051800018300EC01D4805A90EC910300EC01C38BD
:1051900005A90EC91C300EC0283894E80E0048300E
:1051A0000EC00020154981F85400012081F85500F7
:1051B00081F85600B7EE000A084680ED180A002074
:1051C000486688660120A1F86C00002048700A49F2
:1051D000C1F8B80005F08CFF064631460520FCF703
:1051E000EFFD25B1202204A92846FBF7D3F90020C2
:1051F0005FE70000C4C70120FC0E0020880E0020DD
:105200002DE9F0412DED068B05468846B0EE408A2B
:10521000F0EE608A1746032D0ED218EE100A0DF03C
:10522000D3FF48B118EE900A0DF0CEFF20B1F5EE95
:10523000C08AF1EE10FA04D80020BDEC068BBDE860
:10524000F08105EB8500234901EBC006B0EE480A6A
:105250002846FDF71BFA044624B1032C02D01FB9DF
:10526000012C01D00020E8E74146B0EE480A28466C
:10527000FEF710FAB0EE409A9FED170A28EE800A6A
:10528000D6ED030A80EE201AB0EE41AAB0EE4A0A2B
:10529000FBF728FBF0EE409A19EE100A0DF094FF90
:1052A00060B119EE900A0DF08FFF38B1F0EE690A87
:1052B000B0EE490A306804F0A8FC08B90020BCE749
:1052C00086ED088A054800EB850080ED008A012004
:1052D000B3E700008CCC012035FA8E3CF0C70120EA
:1052E00000B52DED048B83B0B0EE409AB0EE608A2D
:1052F000F0EE418A8DED009A8DED018ACDED028AA6
:105300006846FBF7FBFB20B9002003B0BDEC048B23
:1053100000BD684602F020F9F7E7000010B50B4B1E
:105320005A7858700A4B59600023094CA360E36017
:105330009FED080A234683ED050A0C2804D10C2AA8
:1053400002D0002384F8233010BD0000C4C7012020
:1053500004CD01200000000070B52DED028B8EB051
:1053600004460D46202103A8FBF770F903208DF8B1
:105370000C00BCB194ED000A10EE101A08460DF0B6
:1053800035FF78B194ED010A10EE101A08460DF0C1
:105390002DFF38B194ED020A10EE101A08460DF0F8
:1053A00025FF70B99DF80C00FCF7B6F925B1202255
:1053B00003A92846FBF7EEF803200EB0BDEC028BE4
:1053C00070BD0BA9204600F055FC68B90420FCF71D
:1053D000A3F93DB104208DF80C00202203A9284632
:1053E000FBF7D8F80420E8E72D4890ED070A8DED8B
:1053F000000A90ED080A8DED010A90ED090A8DED85
:10540000020A03AA69460BA8FDF706FFA0B99DEDA5
:105410000A0AF6EE000AB4EEE00AF1EE10FA0BDC2E
:1054200004A8FEF7A9F938B104A8FBF711FB18B1DD
:1054300004A8FCF767FE58B99DF80C00FCF76CF95E
:1054400025B1202203A92846FBF7A4F80420B4E7DD
:1054500029460BA8FFF7FEFD0646FEB901201149BB
:1054600081F88D0001F1800094E80E0010300EC02C
:105470001C380BA90EC91C300EC0A83894E80E00C9
:1054800024300EC0084894E80E0048300EC004A82E
:10549000FCF7EAFCB0EE408A00F0D6FE30468CE71E
:1054A000C4C70120FC0E0020880E002010B501F0BA
:1054B0008FFA10BD70B504462CB1206818B1207960
:1054C000FDF7A8F908B9032070BD2079072808D096
:1054D0002079062805D02079052802D020790828CF
:1054E00045D100BFEFF31080054672B62068FDF786
:1054F00021F918B105B962B60720E5E72079072838
:105500000DD1514920680864012081F83300002042
:1055100081F8310081F8320081F8340020E0FEF794
:105520001DFF18B105B962B60120CDE72079062824
:1055300006D1454920688863012081F831000FE0D9
:105540002079052806D140492068C863012081F8E8
:10555000320005E03C4920684864012081F83400AD
:1055600039492068C86405B962B60020ACE72068F4
:10557000FDF7E0F808B10720A6E7344800780128D5
:105580000ED1324840780C280AD13048807838B99A
:105590009FED2F0A00F034F910B900F06DFC28B926
:1055A000204600F0FFF908B902208DE72079032892
:1055B0000ED1254890F8300040B92648006A28B935
:1055C00001F0FAF898B101F085F980B901207BE784
:1055D0001D4890F8300040B91E48006A28B901F013
:1055E000EBF810B901F076F908B101206CE700BFC3
:1055F000EFF31080054672B62068FDF79BF818B1EE
:1056000005B962B607205FE70F4890F8300010B97F
:10561000FEF7A4FE18B105B962B6012054E73022A6
:1056200021460948FAF7B6FF0120074981F8300002
:105630002068C8640749206888612079087705B91F
:1056400062B6002040E700002CCD0120C4C7012035
:1056500000008C4290CB01203EB51C4890F82400FD
:1056600000BB00241AE004EB8400194951F83050C3
:105670001DB1284604F0E0F908B900203EBD04EB56
:105680008400134901EBC00090ED090A04EB84008B
:1056900001EBC00080ED080A601CC4B2032CE2D309
:1056A0000120EBE70A4890ED090A8DED000A90ED24
:1056B000130A8DED010A90ED1D0A8DED020A0121FC
:1056C000B1EE040A6846FDF751F8D7E704CD012092
:1056D0008CCC012070B505F00BFD0546284601F085
:1056E000F3FB2846FFF784F94048807818B1284634
:1056F000FFF77CFB28E02846FBF776F918B102207B
:10570000FEF79EF921E09FED3A0A00F079F818B112
:105710000A20FEF795F918E0FBF782F918B103208B
:10572000FEF78EF911E09FED330A00F069F840B101
:10573000002000F013FD00F0B1FF02212E4841755A
:1057400003E02846FEF71CFF00BF284601F0BCFB23
:1057500026480078012819D1244840780C2815D112
:105760002248807890B92148007978B100BF1F485D
:10577000D0ED300AB0EE600A00F066FD1B48D0EDB7
:10578000070AB0EE600A284600F0DAFE284600F06C
:10579000B1FD1648D0ED070AB0EE600A00F1B40181
:1057A000DFED160AA83000F0C9F900F0C3F904468D
:1057B00060780E4981F8C800E07981F8C90001F1EC
:1057C0008000D4E90312C0E9131280386169C0F87F
:1057D000D41094F85400054981F8D800A06DC1F8A0
:1057E000DC0001F0E5FE01F00FFD70BDC4C7012033
:1057F0000000A04200008C42B8C801200000000058
:10580000002117E001EB81000C4B53F830207AB1F6
:10581000D2ED040AF4EEC00AF1EE10FA06DAD2ED87
:10582000050AF4EEC00AF1EE10FA01DB0120704720
:10583000481CC1B20329E5D30020F8E78CCC012035
:1058400010B52DED0A8B0446B0EE408A18EE100A12
:105850000DF0D5FC18B1012C05D0022C03D000208E
:10586000BDEC0A8B10BD022C02D19FED370A01E07E
:105870009FED360AB0EE40AA022C02D19FED340A09
:1058800001E09FED340AF0EE40AA022C02D19FED18
:10589000320A01E09FED2F0AF0EE40BAB4EECA8A58
:1058A000F1EE10FA01D2B0EE4A8AB4EEEA8AF1EED5
:1058B00010FA01DDB0EE6A8A012C02D19FED270AB1
:1058C00001E09FED270AB0EE40CA022C02D19FED05
:1058D0001F0A01E09FED1D0AB0EE409A022C02D192
:1058E0009FED200A01E09FED1F0AF0EE409A39EE8D
:1058F000C90A80EE2BBA9FED1C0A38EE400AF0EE82
:105900004C8A40EE0B8AF4EEC98AF1EE10FA05D209
:10591000BCEEC90A10EE100A80B2A1E7F4EEE98AE3
:10592000F1EE10FA05DDBCEEE90A10EE100A80B2C5
:1059300096E7B6EE000A38EE800ABCEEC00A10EE1A
:10594000100A80B28CE70000000034C200000000A2
:10595000000061430000344300008743000001441D
:105960000000FA4300007A440000B4420021034AD8
:105970001154002202490A5470470000BC2800203C
:105980008028002010B50020FFF7F0FF0120FFF76E
:10599000EDFF0020024981F8200081F8260010BDAB
:1059A00014280020014611B10879042801D00020F4
:1059B0007047087A022802D0087A062801D101200F
:1059C000F6E70020F4E70000F8B5064653484078B3
:1059D00028B95348007818B95148407800B9F8BD43
:1059E0004F48007800283BD04D484078002837D0F9
:1059F0004B48C1880089814232D14948C088009013
:105A00004748838841880222012008F0F7FB0446BA
:105A1000012C00D1E3E7BCB9002000F04DFA0120D1
:105A200000F04AFA0020FFF7A1FF0120FFF79EFFD8
:105A30003C48D0F88400401C3A49C1F88400012059
:105A40004870002088650AE0002000F021FA01205B
:105A500000F01EFA00203349487003208865BEE735
:105A60002F480078A8B12E48407890B12C48C168E2
:105A70000069814202D12A48057D11E02848C168A9
:105A80000069081A002801DD012000E00020054619
:105A900006E02348007808B9012000E00020054610
:105AA0001F4B9B1D33F815201B1F33F815100DB924
:105AB000012300E00223184608F096FB0446012C5F
:105AC00000D18CE704BB284600F0F6F92846FFF722
:105AD0004DFF0DB9012000E0002011490875114863
